:100000000C94BE010C9405020C9405020C9405029C
:100010000C9405020C9405020C9405020C94050244
:100020000C9405020C9405020C9405020C94791CA6
:100030000C942A1D0C946B170C9405020C94050269
:100040000C9405020C9405020C9405020C94C21742
:100050000C9405020C9405020C9405020C94050204
:100060000C9405020C9405020C9405020C940502F4
:100070000C94050214001A000800150018000C006A
:100080001200130004001600070009000D000E0006
:100090000F0028001D001B000600190011001000B1
:1000A00036003700010001000100010001000100DD
:1000B00001000100E1000100010001000100010058
:1000C000010001000100E000E300E2000100010086
:1000D0000100010001000100010001000100010018
:1000E0000100010001000100010001000100010008
:1000F0000100E5000100010001000100E600E70049
:10010000E400010001000100010001000100010004
:1001100001000100010001000100010001000100D7
:100120005200010001000100010001000100500027
:1001300051004F001E001F00200021002400250058
:10014000260027000100010001000100010001005C
:100150000100010001000100010001000100010097
:10016000010001000100010001000100C25C2F003C
:1001700030003100010001000100C75CC95CC55CB2
:1001800033003400010001000100C85CCA5CC65C99
:10019000C35C380000000000000000002A2B28008B
:1001A0000000000000000000000000000000002926
:1001B000000000002C1E3420212224342627252E66
:1001C000362D3738271E1F2021222324252633339E
:1001D000362E37381F0405060708090A0B0C0D0ECA
:1001E0000F101112131415161718191A1B1C1D2F96
:1001F0003130232D350405060708090A0B0C0D0EB6
:100200000F101112131415161718191A1B1C1D2F75
:100210003130354C000000000000000000000000FC
:1002200000000000000000000000000000000000CE
:1002300000000000000000007E0F00D4FFFFFFC799
:100240000000007810034300680072006400420060
:10025000720064000000160350004C00490050007A
:10026000200057006F0072006B0073000000040351
:10027000090409025B00030100A0FA09040000015F
:10028000030101000921110100012240000705813D
:100290000308000109040100020300000009211104
:1002A0000100012222000705820320000107050347
:1002B00003200001090402000103000000092111CC
:1002C000010001223B000705840320000112010008
:1002D000020000000857502400000001020001063F
:1002E00060FF0961A1010962150026FF00952075D4
:1002F0000881020963150026FF0095207508910208
:10030000C005010906A1018505050719E029E715C2
:100310000025019508750181020507190029EF15CF
:1003200000250195F075018102050819012905953F
:100330000575019102950175039101C0050109063A
:10034000A101050719E029E71500250195087501A8
:1003500081029501750881010507190029FF150023
:1003600026FF0095067508810005081901290595E5
:100370000575019102950175039101C011241FBEFD
:10038000CFEFD4E0DEBFCDBF04B603FE27C080911F
:10039000E9019091EA01A091EB01B091EC01873065
:1003A000904BA740B04BD1F41092E9011092EA01B2
:1003B0001092EB011092EC0114BE84B7877F84BFCA
:1003C0000FB6F894A89580916000886180936000D2
:1003D000109260000FBEE0E0F8E3099511E0A0E0A4
:1003E000B1E0ECE0FFE302C005900D92A832B10746
:1003F000D9F721E0A8E2B1E001C01D92A93EB20701
:10040000E1F70E941A110C94491F0C94000081E03E
:10041000089581E008950C94090208950C940D024A
:100420001F93CF93DF9300D000D00F92CDB7DEB7EC
:1004300049835A836B8330912A0189819A813111D2
:100440001DC06623B9F02223A9F00E94AA07182F25
:10045000682F89819A810E944B0769817A81812F57
:100460000F900F900F900F900F90DF91CF911F91F1
:100470000C942F130E948007182FEFCF0E94AA0719
:1004800069817A81EDCFFC01262F40815181628103
:10049000738184810C94100281E00895CF93DF93DF
:1004A000EC0160E00E944302BE01DF91CF910C9409
:1004B0000E02E1E0F0E0DF0102C0AA0FBB1F6A9567
:1004C000E2F7BD01DF0102C0AA0FBB1F4A95E2F7A8
:1004D0006A2B01C0EE0F2A95EAF7962F9823961300
:1004E00002C08E2B0895E0958E230895242F462F69
:1004F000682F809134010E9459020C9408070E94D1
:10050000C20F0E94C1030C94DD0F0C94E00F0895FC
:100510000E94A0060E9487022FEF84E39CE02150F6
:1005200080409040E1F700C000000C94E6170F9364
:100530001F93CF93DF938C0161E00E944302EC0193
:10054000B8010E947C118823D9F1B801CE010E9424
:100550000B028823A9F1B801CE010E9466148823FA
:1005600079F1B801CE010E94B814882349F1B8018D
:10057000CE010E94DB15882319F1F80182818823BE
:1005800061F0CA35FDE5DF0721F170F4C115ECE536
:10059000DE07A1F0CE3DDC45C9F0C801DF91CF9167
:1005A0001F910F910C940702CB358DE5D807A1F070
:1005B000CC35DD4591F70E947C0BEFCF0E9488027D
:1005C00080E0DF91CF911F910F9108950E94F20C6E
:1005D000F7CF0E94850BE1CF0E94880BDECFDF9220
:1005E000EF92FF920F931F93CF93DF93E82FF0E0EA
:1005F000EC56FE4FD490282F26952695269530E070
:10060000F901EC5CFD4F0491877010E0082E02C0E8
:10061000159507950A94E2F701701127F901EC5D31
:10062000FD4FE490F12C082E02C0F594E7940A9453
:10063000E2F791E0E922FF24F901EC5EFD4FC4915D
:10064000D0E002C0D595C7958A95E2F7C170DD2745
:100650000115110519F081EE0E940D04E114F10459
:1006600019F086EE0E940D048D2D0E947704EF286C
:1006700019F086EE0E943804012B19F081EE0E94D9
:100680003804CD2B51F08CE2DF91CF911F910F9167
:10069000FF90EF90DF900C947704DF91CF911F9142
:1006A0000F91FF90EF90DF900895EF92FF921F93CC
:1006B000CF93DF93EC01162F8881882309F451C072
:1006C000813009F04BC08981813099F47E0122E0AC
:1006D000E20EF11C8A810E947704E7012196812FA6
:1006E000815050F3EFE9FFE03197F1F700C00000CF
:1006F000F7CF823041F47E0182E0E80EF11C8A815E
:100700000E940D04EACF833041F47E01E2E0EE0E58
:10071000F11C8A810E943804E0CF843011F02196C8
:10072000DDCF2A81229690E080E0FE0131962053B1
:10073000330B2A30310548F0019780F2EFE9FFE0F2
:100740003197F1F700C00000F7CF6AE070E00E9437
:10075000DC1E820F931F2981EF01E7CF0E94EF0279
:10076000BDCFDF91CF911F91FF90EF90089560E092
:100770000C94550308950C94BA0381E008950C94E9
:10078000BD030895CF93C82F0E94BB038C2FCF9138
:100790000C94BF03CF93DF93CDB7DEB72B970FB683
:1007A000F894DEBF0FBECDBF4F83588769877A8725
:1007B0008B8761110E94AB0B1E821D8285E0FE01BA
:1007C0003796DE01119601900D928A95E1F78C81A2
:1007D0009D81892B89F449815A816B817C818D812E
:1007E0009E810E94A70A2B960FB6F894DEBF0FBE1B
:1007F000CDBFDF91CF91089589819A8189238F3F61
:1008000051F3CE0101960E944C028111E4CFEBCF4F
:10081000FC01808191810C94D707CF93C82F882346
:1008200029F18CEF8C0F813AA0F46C2F809100019C
:10083000909101010E947016882329F08C2F0E944C
:100840004C0B0E94DB0B8C2F0E94450BCF910C941C
:10085000DB0B80E28C0F883048F4C77081E001C068
:10086000880FCA95EAF70E948E0BF0CFCF910895BA
:10087000882329F19CEF980F913A20F40E944C0BA9
:100880000C94DB0B90E2980F983050F4877091E055
:1008900001C0990F8A95EAF7892F0E94940BF0CF37
:1008A0009BE5980F933020F490E080E00C94301694
:1008B000885A873120F490E080E00C944616089521
:1008C0001F93CF93DF93182FEB010E940D04209705
:1008D00031F4812FDF91CF911F910C9438048FE96F
:1008E0009FE00197F1F700C000002197F0CF70E082
:1008F00060E0893311F460E570E00C9460048823B3
:1009000021F00E948E0B0C94DB0B0895882321F0BC
:100910000E94940B0C94DB0B0895BF92CF92DF9250
:10092000EF92FF920F931F93CF93DF936C01D62F1B
:10093000C72FFC010281158112951F700E94630B65
:10094000E82E8823A1F0E02E002389F08C2F807FF1
:10095000803429F080E28D0FE12C883040F082E075
:100960000E942C0C0E94630B91E0E82EE926BC2E1D
:10097000B2949FE0B922EB2DF0E0E55BF04E0C94D1
:10098000ED1E1C2F1F70C07F11F01295107F0023E9
:10099000A9F0112359F080E28D0F883010F0D111A9
:1009A00009C0812F0E948E0B0E94DB0B8D2F0E94AD
:1009B0000D0414C0812F0E949E0BF6CF8D2F0E9434
:1009C0003804112359F080E28D0F883010F0D111D6
:1009D0002CC0812F0E94940B0E94DB0B2B2D2850E2
:1009E000330B2430310520F40E940A160E94C20302
:1009F000EE2009F452C10E945F0B80FD4EC1F6014A
:100A000012820E94590B0E941907C6010E946E06AD
:100A10000E94590BDF91CF911F910F91FF90EF90A2
:100A2000DF90CF90BF900C942407812F0E94A40BDD
:100A3000D3CFFC2FFF70FF2EC07FC03219F0F2948D
:100A400080EFF822DD2369F0D13049F1002391F1E4
:100A5000112351F1F601858180FFA8CF8F70858326
:100A600023C0002381F0111106C00E94BE0B8F2904
:100A70000E947F04B3CF1130C1F70E94BE0B8F29B3
:100A80000E94C40BABCF111106C00E94D10B8F2D59
:100A90000E948604A3CF113009F4A0CFF6CF002323
:100AA00029F0163008F09ACF8F2DE2CF153008F0DC
:100AB00095CFEDCF112359F3D93349F4FFEF27EE4A
:100AC00033E0F15020403040E1F700C000008D2FAE
:100AD0000E94380483CF8C2F837079F501117ECF6B
:100AE0004D2F429546954770440F440F8D2F8F70C0
:100AF000042E01C0880F0A94EAF72D2F2071D4FF2D
:100B000007C02FE030E001C0220F4A95EAF7209598
:100B1000C695C695C370822BC23049F058F4C130D7
:100B200019F00E94FA065ACF0E94F50657CF0E948C
:100B3000FF0654CF0E94F30651CF8695002311F093
:100B40008C2F8170882309F449CF4D2F429546950B
:100B50004770440F440F8D2F8F70042E01C0880FF3
:100B60000A94EAF72D2F2071D4FF07C02FE030E060
:100B700001C0220F4A95EAF72095C695C695C37025
:100B8000822BC23049F058F4C13019F00E9440075E
:100B900025CF0E943B0722CF0E9445071FCF0E940E
:100BA00008071CCFCF70002329F08C2F0E94190753
:100BB0008D2F5ECF8D2F0E9486048C2F0E942407DC
:100BC0000DCFD23F89F160F4D03FC9F0D13F29F178
:100BD000002309F442C01111E9CE8C2F8F7121C07E
:100BE000D33F39F1D43FA1F7002369F1CF718C2FA6
:100BF0000E94190763E08C2F0E94110CEFCE002396
:100C000041F0153008F0EACE8C2F8F710E9430072A
:100C1000E5CE163008F0E2CEF7CF8C2F8F7100238F
:100C200069F20E941907DACE8C2F8F710023C9F365
:100C3000C5CF002329F08C2F8F710E941107CECED3
:100C40000E940E07CBCE81E00E942C0C123008F4DB
:100C5000C5CE82E00E942C0CC1CE112359F0D933AD
:100C600009F035CF8FEF97EEE3E081509040E04000
:100C7000E1F72BCF8C2F8F71A1CF4C2F4F706D2FA1
:100C8000C6010E94C80D0E940508A8CE4C2F4F70C7
:100C90006D2FC6010E94CB0DA1CEDF91CF911F9188
:100CA0000F91FF90EF90DF90CF90BF9008950F933A
:100CB0001F93CF93DF93EC01688179818A810E9431
:100CC000E1078C010E944A070E94F206B801CE019A
:100CD000DF91CF911F910F910C948D04CF93DF93EF
:100CE000EC018B819C81892B29F088819981892352
:100CF0008F3F59F4DF91CF910895CE010E9457069E
:100D0000CE01DF91CF910C944E02CE010E9497024A
:100D10008111F3CF0E94630B882361F38A818823BA
:100D200049F382E0DF91CF910C942C0C0E94AB0B25
:100D30000E94BB0B0C94DB0B0E94530B0C94960689
:100D40000E949B0B0C949C06E92FE295EF70E250F9
:100D5000EE3070F4F0E0E55AF04E0C94ED1E803F5A
:100D600019F020F4883E20F481E00895843FE1F3F7
:100D700080E00895883EC0F3813FD1F7F5CF93FB23
:100D8000882780F90895FC01808191810E94D7070E
:100D90000C94A406CF93DF9300D000D00F92CDB770
:100DA000DEB70F900F900F900F900F90DF91CF91C3
:100DB0000895CF93DF9300D000D000D0CDB7DEB739
:100DC00026960FB6F894DEBF0FBECDBFDF91CF9150
:100DD000089508950C94E9060E94EA06809335016F
:100DE0000C94960608950C94EC0690913501892B8D
:100DF0000C94EC069091350189230C94EC069091AB
:100E0000350189270C94EC060C94E9060C94040730
:100E10000E940607809334010C94960680E00C949F
:100E2000080791E001C0990F8A95EAF7892F0C9481
:100E3000080721E030E001C0220F8A95EAF780918F
:100E40003401822B0C94080721E030E001C0220F0E
:100E50008A95EAF720958091340182230C94080743
:100E600021E030E001C0220F8A95EAF78091340139
:100E700082270C94080790913401892B0C94080761
:100E80009091340189230C940807909134018927AB
:100E90000C9408070895CF93DF93262F990F990F8D
:100EA000990F890F982F9770E1E001C0EE0F9A9586
:100EB000EAF786958695869590E063E070E00E945B
:100EC000DC1EDC01A55DBE4F50E040E0622F70E00B
:100ED0008D91ED0121979B01042E02C03695279537
:100EE0000A94E2F72170219528272E2328272883AA
:100EF0004F5F5F4F4330510559F7DF91CF91089510
:100F0000990F990F990F890FA82FA770869586952D
:100F1000869590E063E070E00E94DC1EFC01E55DD8
:100F2000FE4F50E040E080E0219130E00A2E02C008
:100F3000369527950A94E2F721703327042E01C0D5
:100F4000220F0A94EAF7822B4F5F5F4F433051051F
:100F500059F70895CF92DF92FF920F931F93CF938B
:100F6000DF936C010091340180913501082BC7E0BB
:100F7000D0E010E0FC2EC8010C2E02C0959587959C
:100F80000A94E2F780FD0CC02197A0F7F12C8F2D79
:100F9000DF91CF911F910F91FF90DF90CF90089537
:100FA000B6018C2F0E94CA0E019771F3F0CFCF9338
:100FB000DF93EC010E94AA07BE01DF91CF910C9450
:100FC000CA0E1F93CF93DF93EB0190912A019923CF
:100FD00031F0CB01DF91CF911F910C94D70788237B
:100FE00079F0CB010E94AA07182F682FCE010E942A
:100FF0004B07BE01812FDF91CF911F910C94CA0E38
:10100000CB010E948007182FF4CFEF92FF920F932D
:101010001F93CF93DF938C01892B81F0F12CEE2469
:10102000E394E8012196F8018491843770F48430C8
:1010300008F05FC08130B1F08230A1F1DF91CF9133
:101040001F910F91FF90EF900895853709F44CC0E0
:1010500008F43DC09CE7980F903780F78F770E9487
:10106000380449C00E5F1F4FFE01849190E2980F33
:10107000983060F48770FE2D01C0FF0F8A95EAF763
:101080008F2F0E94AE0B0E94DB0B02C00E940D044A
:101090008F2D815030F2EFE9FFE03197F1F700C07A
:1010A0000000F7CF0E5F1F4FFE01849190E2980F72
:1010B000983050F48770FE2D01C0FF0F8A95EAF733
:1010C0008F2F0E94B40BDFCF0E943804E1CF0E5F58
:1010D0001F4FFE01C491C150D8F28FE99FE00197E4
:1010E000F1F700C00000F7CF0E5F1F4FFE01F49034
:1010F000CFCF0E940D048E01CBCFCF93DF93C09151
:101100003601809137018C1303C0DF91CF91089590
:10111000D0E0CE0166E070E00E94DC1EFC01E85CDD
:10112000FE4F4081518162817381848195810E944B
:10113000D9062196C770E5CF4091680150916901A9
:1011400060916A0170916B0180916C0190916D01C9
:101150000C94D9061F93CF93DF9380916D01807F0C
:10116000A1F480916A01882381F020913601B09129
:10117000370140916801A0916901C0916B01D09144
:101180006C01142F1A23B21304C0DF91CF911F9169
:10119000089530E0209711F01F3F21F42F5F3F4F5B
:1011A0002770F1CFC90166E070E00E94DC1EFC01EF
:1011B000E85CFE4F81818A13F1CF80818413EECFEA
:1011C00082818111EBCF838194818C1B9D0B883CA4
:1011D000910520F780916D018F70806180936D0182
:1011E000C90166E070E00E94DC1EFC01E35CFE4F7A
:1011F00090819F709061908388E691E00E946E06D6
:10120000DF91CF911F910C947D08AF92BF92CF9246
:10121000DF92EF92FF920F931F93CF93DF93CDB79F
:10122000DEB761970FB6F894DEBF0FBECDBF8C015D
:1012300085E0F801DE011D9601900D928A95E1F797
:10124000F801E28088E6C82E81E0D82E60916B011B
:1012500070916C016115710509F45DC1909168018F
:1012600030916901892F83238F3F09F454C1408154
:101270002181A380B480F0906A01F501E61BF70B91
:10128000FF2009F4F8C080916D01582F507FE83C91
:10129000F10508F0B0C051117AC0FE2C321323C002
:1012A000941321C0E1101FC08F70806180936D0185
:1012B0000E949C08C6010E946E0680916D01F80193
:1012C00085838F2D61960FB6F894DEBF0FBECDBF1C
:1012D000DF91CF911F910F91FF90EF90DF90CF9012
:1012E000BF90AF900895AB2829F0842F82238F3FC1
:1012F00009F02AC180E0F82FF170DF2EE09136016D
:101300003091370180FD20C0EE20D9F280916D012F
:10131000816080936D01F12CD4CFF0E0CF0166E0C5
:1013200070E00E94DC1EDC01A85CBE4F11968C911F
:101330001197821307C08C91841304C012968C916C
:10134000E812E2CF3196E770E313E7CF4D872E879F
:101350008D859E850E94D707292F22952F702230D8
:1013600050F0243078F49F7051F0F8019581907F0F
:1013700031F4D12C0AC09F7011F08823D1F3805E24
:101380008830B8F3C8010E946E06FD2C9ACF321344
:1013900006C0941304C0F801EE2009F488C0C80107
:1013A0000E94C306882319F1EE2009F180916D0196
:1013B000803270F0209168013091690138872F8365
:1013C0001986BB86AA868C87CE0107960E946E0678
:1013D00086E0F801A8E6B1E001900D928A95E1F768
:1013E0000E94AA080E949C08FF24F3946ACFC801B7
:1013F0000E946E06F9CF511114C07A2DB98AA88ABD
:10140000522F6E2D89890E94CA0688E691E00E94BB
:101410006E0686E0F60111928A95E9F70E949C0813
:101420007ACF32130FC094130DC0E1100BC0F80136
:101430008583C8010E946E0686E0F60111928A95A6
:10144000E9F73FCFC8010E94C306882381F2EE204E
:1014500071F280916D01803208F4BACF2091680159
:10146000309169013A8329831B82BD82AC828E83CD
:10147000CE010196ABCFE83CF10508F03EC0FE2C52
:10148000EE2009F4B4CF32132AC0941328C08091FF
:101490006D0180FD1BC0982F907FC1F0F8018583FE
:1014A000903F31F0982F907F905F8F70892B8583CC
:1014B000C8010E946E0686E0F801A8E6B1E001903E
:1014C0000D928A95E1F70E949C08FBCE86E0F80118
:1014D000A8E6B1E001900D928A95E1F7F2CEC8013D
:1014E0000E94C306811174CF80916D018160809349
:1014F0006D01C8010E946E06E4CE7A2DB98AA88AD1
:10150000522F6E2D89890E94CA0686E0F60111923B
:101510008A95E9F7D8CFEE2009F469CFC8010E9477
:10152000C306F82E882309F462CF86E0F801A8E606
:10153000B1E001900D928A95E1F788E691E00E9472
:1015400008040E94AA08BFCF81E08E25D4CECF9395
:10155000DF93CDB7DEB72C970FB6F894DEBF0FBE82
:10156000CDBF4F83588769877A878B879C87CE0149
:1015700007960E9405098823D1F08A859B85892BCF
:1015800039F04F815885842F85238F3F09F076C02D
:101590008091360190913701891349C02C960FB67E
:1015A000F894DEBF0FBECDBFDF91CF91089586E0E6
:1015B000FE013796DE01119601900D928A95E1F7B2
:1015C0008A859B85892B21F38F81988589238F3F7D
:1015D000F9F28091370190E09C012F5F3F4F277017
:1015E0003327409136014217130671F40E94A0067A
:1015F000109237011092360186E0E8E6F1E0DF0153
:101600001D928A95E9F7C4CF66E070E00E94DC1E67
:10161000DC01A85CBE4F96E0FE01319601900D9270
:101620009A95E1F7209337010E947D08B1CF90E0B1
:1016300066E070E00E94DC1E885C9E4F0E940509F7
:10164000882309F4ABCF8091360190E066E070E02A
:101650000E94DC1EFC01E85CFE4F408151816281EA
:101660007381848195810E94D9068091360190E032
:10167000019687709927809336018ACF69857A858C
:101680008B859C850E94D90683CF682F80910001AD
:10169000909101010C94F016682F809100019091B7
:1016A00001010C94FB1680910001909101010C94B2
:1016B000061780916E018595859585950895809191
:1016C0006E018770089590916E01977081E009F422
:1016D00080E008959091D10192FB222720F92817EC
:1016E00051F080FB92F99093D1018091D0019091BB
:1016F000D1010C946F0C08958091D10182FB882751
:1017000080F991E089270C946A0B81E00C946A0BB4
:1017100080E00C946A0B809192010895909192015F
:10172000892B80939201089580959091920198233E
:1017300090939201089510929201089590919101D1
:10174000892B809391010895809590919101982320
:1017500090939101089510929101089590919001B4
:10176000892B809390010895809590919001982302
:1017700090939001089510929001089580916F01C7
:10178000089508950C94C10B9091D10192FD08C069
:1017900090916F01981721F080936F010C94C20B08
:1017A000089580916F01882329F010926F0180E0E5
:1017B0000C94C20B0895E0910001F0910101809119
:1017C00092018083E0910001F0910101808190916C
:1017D0009101892B8083E0910001F09101018081CA
:1017E00090919001892B808390916F01992381F0D2
:1017F000E0910001F09101018081892B808380912B
:101800000001909101010E945C1681110E94D10B90
:1018100080910001909101010C94161608950C948A
:101820000E0C9091D10192FD10C0982F990F990F35
:10183000990F962B90936E010E94190780916E016B
:101840008595859585950C940F0C0C94190710922D
:101850006E0180E00C940F0C90916E0180958923AD
:1018600080936E01282F277039F4282F082E000C42
:10187000330B9217130621F49091D10192FF07C008
:101880008595859585950E9424070C94270C0895CD
:101890006FEF7FEF90E080E00C94331F90E080E0EA
:1018A0000E940F1F893E9E4F11F40C94251180E079
:1018B000089582E090E00C94071F83E090E00C9480
:1018C000071FCF9384E090E00E94071FC82F82E299
:1018D00090E00E94071F982F8C2FCF910895CF93EF
:1018E000C92F682F84E090E00E94151F6C2F82E2C0
:1018F00090E0CF910C94151FAB01BC018FE090E0FC
:101900000C94271FAB01BC0183E190E00C94271FCE
:1019100060E070E0CB010C94820C60E070E0CB01E1
:101920000E947C0C0C94880C69EE7EEF90E080E0C5
:101930000E94331F60E082E090E00E94151F60E08B
:1019400083E090E00E94151F1092350160E084E072
:1019500090E00E94151F60E082E290E00E94151F57
:1019600060E085E090E00E94151F60E086E090E076
:101970000E94151F6FEF87E090E00E94151F40E066
:1019800050E0BA0188E090E00E94271F60E08DE0FF
:1019900090E00E94151F40E050E0BA0188E190E01D
:1019A0000E94271F60E087E190E00E94151F40E041
:1019B00050E0BA018CE190E00E94271F70E060E0E7
:1019C00080E290E00E94331F40E050E0BA0188E1DD
:1019D00090E00E94271F80E00E943E110E94641147
:1019E0000C948D0C0C94940C682F8EE090E00C9469
:1019F000151F0E94A71760939B0170939C01809311
:101A00009D0190939E01609397017093980180933C
:101A1000990190939A010895089508950C940C0DDE
:101A200008950C94100D88EA9FE00E940A180E9405
:101A30000D0D0C940E0D81E008950C941B0D08956E
:101A400008950E941F0D0C94200D0E9492170E9471
:101A500073110E948C100C94110DAF92BF92CF9213
:101A6000DF92EF92FF920F931F93CF93DF93CDB747
:101A7000DEB72A970FB6F894DEBF0FBECDBF0E9427
:101A8000A01081110E94F90C84E9E82E81E0F82E63
:101A900010E0D12C812F0E94E20FA82EF701B08018
:101AA000B81681F180919F0181FD0E94E80FBA2450
:101AB000C12C01E08B2D802301F10E941D0D882394
:101AC000A1F0CE821F8391E08A2D802309F490E05B
:101AD00098870E949B178160782F9A8789874E810B
:101AE0005F8168858A850E94CA03F701808180270B
:101AF0008083D394FBE0FD15F0F0C394000F88E0E1
:101B0000C812D8CF1F5FEFEFEE1AFE0A133009F0AC
:101B1000C1CFD11010C08FEF89838A831B820E94AE
:101B20009B178160782F9D838C8349815A816B81BB
:101B30008D810E94CA030E940A1690919301891711
:101B4000B1F00E940A16809393012A960FB6F8947A
:101B5000DEBF0FBECDBFDF91CF911F910F91FF90E0
:101B6000EF90DF90CF90BF90AF900C94C2032A9675
:101B70000FB6F894DEBF0FBECDBFDF91CF911F919E
:101B80000F91FF90EF90DF90CF90BF90AF900895AE
:101B900090E080E008950895FC01EE0FFF1FEC5BDC
:101BA000FD4F859194910895CF93DF930E94CE0EBF
:101BB000EC01811521E59207D0F5811530E59307F9
:101BC00008F098C0811540E29407F8F4C11581E04F
:101BD000D807B8F4C03ED10588F4C03CD10508F060
:101BE0007CC0C130D10569F0209759F0CE0104972F
:101BF000813A910530F0D0E0C0E003C0C83ED10585
:101C0000D0F7CE01DF91CF910895811520E492079E
:101C100008F06DC09F70C11530E3D30708F460C0B1
:101C2000CE019927D3FF60C0EC01D86CEACF8115B3
:101C300045E5940710F5C11584E5D80708F093C071
:101C4000C11523E5D20708F078C0C11532E5D307E6
:101C500008F46EC0CE018370992721E030E002C005
:101C6000220F331F8A95E2F7C695C695D0E0E5E0CE
:101C7000CC0FDD1FEA95E1F757C0811549E59407C0
:101C8000A8F4C11588E5D80708F072C0C11526E58B
:101C9000D20708F0B0CF8C2F0E94650FC82FD0E07C
:101CA000DC2FCC27CC27DF71D062ABCF81153AE592
:101CB000930708F462C090568115904208F09BCFBC
:101CC0008D2F8F710E94650F90E0982F88278827AD
:101CD0009F719C012C2BE901E7CFCE01805C91091B
:101CE0000E94CC0DEC018DCFEC01D06C8ACFDF705F
:101CF000D06A87CFA4E096958795AA95E1F783707F
:101D00002C2F26952695237030E0B5E0220F331F47
:101D1000BA95E1F7382B8C2F8370C1E0D0E002C078
:101D2000CC0FDD1F8A95E2F7C22BD32BDC6869CF7D
:101D3000DC2FCC27C16FD06A64CFCE018370992786
:101D400021E030E002C0220F331F8A95E2F7C695EA
:101D5000C695D0E075E0CC0FDD1F7A95E1F7C22B78
:101D6000D32BDA684ECFDC2FCC27C46FD06A49CF93
:101D7000DC2FCC27C06FD06A44CF8F700E94650FD4
:101D800034E0D695C7953A95E1F7CF709C2FEC01DA
:101D9000D06937CF0E942F130C94D40D823891054F
:101DA000B1F1B0F48133910509F475C048F489327A
:101DB000910509F469C08A32910509F473C0089548
:101DC0008533910509F459C08933910501F10895CE
:101DD000833E9105A9F138F4803E9105F9F0823EE9
:101DE000910549F10895863E9105A9F1873E910537
:101DF000C9F1843E910519F52091D10121FF1FC041
:101E00008091D00184FD14C087EE90E00895209168
:101E1000D0012370A1F080EE90E008952091D001D0
:101E200020FD47C03091D10130FF09C024FF44C0DC
:101E300090E080E004C02091D00122FDF7CF08950A
:101E40002091D00122FD3BC03091D10130FDE3CF84
:101E500024FFF5CFEDCF2091D00123FFF0CF24FD5B
:101E6000E7CFD2CF2091D00123FD2CC03091D101FA
:101E700031FFEECF84EE90E008952091D00125FF50
:101E8000DECF89E290E008952091D00125FFD7CFE1
:101E900085E390E008952091D00126FFD0CF8AE21B
:101EA00090E008952091D00126FFC9CF81E390E012
:101EB000089589E390E0089583EE90E0089582EE1E
:101EC00090E0089586EE90E008959091D00192FF01
:101ED00006C0282F28712830F9F4877F846093FF8B
:101EE00006C0282F28712831F1F4877E8461209163
:101EF000D10120FF06C0382F38713830D9F4877FE0
:101F0000816021FF06C0282F28712831D1F4877EF7
:101F1000816194FD877E0895282F24712430F9F67D
:101F20008B7F8860DCCF282F2471243101F78B7ED2
:101F30008861DDCF382F3171313019F78E7F88609D
:101F4000E0CF282F2171213121F78E7E8861E1CFEA
:101F500080E008950C94480C0E94A0108FE39CE947
:101F60000197F1F700C000000E94A01080E00E94DD
:101F7000E20F80FF04C00E94AA0F0C94E617089598
:101F80000C94AC0F0E944E0C811102C00E94F20C06
:101F90000E94590C80939F010E94610C9093D10183
:101FA0008093D0010E94C00F0E945D0C0E94F30636
:101FB000809134010C94060708950C94DC0F089569
:101FC0000C94DF0FE82FF0E0EB52FE4F8081089574
:101FD000089580EA8A95F1F7089500C008950C9459
:101FE000E90FF894E82FE295EF70F0E031A1282F87
:101FF0002F7081E090E001C0880F2A95EAF7982FB2
:102000009095932391A392A1892B82A3789408950C
:10201000CF93DF9383E90E94F10F84E90E94F10FCF
:1020200085E90E94F10FCDE0D1E089918F3F11F059
:102030000E94F10F81E0C531D807B9F7DF91CF9148
:102040000895CF92DF92EF92FF920F931F93CF9359
:10205000DF93EC01D62E062F10E0C8018B5E9E4F59
:102060007C01FC0180818F3F09F44BC0F894E82F7C
:10207000E295EF70F0E091A18F7021E030E001C0B7
:10208000220F8A95EAF7892F822B81A382A12095BE
:10209000282322A378940E94ED0FEDE0F1E030E0D8
:1020A00020E0C12C51E041914F3FA1F1A42FA29516
:1020B000AF70B0E090968C9190E04F7002C0959513
:1020C00087954A95E2F780FD25C0852F022E01C035
:1020D000880F0A94EAF7C82A2F5F3F4F283031054E
:1020E00011F7F70180818F3F11F00E94F10F61E03D
:1020F000C11001C060E08D2D0E94EF0FC00FD11FF5
:10210000C882DF91CF911F910F91FF90EF90DF90E8
:10211000CF90089580E0DFCF0E940810A2EDB1E0DB
:102120001C92E5EDF1E0108211961C92119711823C
:1021300012961C92128283E00E94E3100C947F029C
:102140001F93CF93DF9300D00F92CDB7DEB71982E4
:102150001A821B8260E0CE0101960E94211061E08C
:10216000CE0101960E94211062E0CE0101960E94EC
:10217000211043E050E0BE016F5F7F4F82ED91E0A0
:102180000E94FA1E11E0009709F410E0892B49F033
:1021900089819A81AB818093D2019093D301A093DE
:1021A000D401212F43E065ED71E082ED91E00E94C2
:1021B000E4100E948502812F0F900F900F90DF9105
:1021C000CF911F9108950895FF920F931F93CF937E
:1021D000DF93F82E092F162FD72FC42F222349F073
:1021E00081E08093A2010E949B179093A1018093AC
:1021F000A0018091A2018823A1F08091A00190917B
:10220000A1010E94B317059760F0EF2DF02FA12FC9
:10221000BD2FCE0FDF2FD11DEC17FD0741F410921B
:10222000A201DF91CF911F910F91FF9008958191AD
:102230008D93F2CF0E9418170E944D190E946619C3
:102240000E9478190E94210DFBCF83E290E00E944A
:10225000071F813289F484E290E00E94071F8231D7
:1022600059F485E290E00E94071F91E0833009F065
:1022700090E0892F8170089580E0FCCFCF93C82F24
:102280006FEF811161E283E290E00E94151F6FEF12
:10229000C11162E184E290E00E94151F6FEFC1114D
:1022A00063E085E290E0CF910C94151F089586E2DB
:1022B00090E00E94071F682F70E090E080E0089592
:1022C00086E290E00C94151F80E00E943E1160E0D1
:1022D00070E0CB010E9460110E94A9120E9493132A
:1022E00081E00C943E110E9456110E94251181112B
:1022F00002C00C9464110895CF93FB01C281CC23DA
:1023000009F19C0122513F452031310520F58251D0
:102310000E94A313C0E08C2FCF91089581E00E940A
:10232000190743E062E081E00E947602F3CF81E08A
:102330000E94240743E062E081E00E947602EBCF36
:1023400082E0F6CF8031FFE59F0789F381319F4519
:10235000B9F3C1E0E0CF8031EFE59E07F9F28131BA
:102360009F45C9F682E0DBCF2FEFFC012083089563
:102370001F93CF93DF93EC01162FE881E150E331F7
:1023800008F059C0F0E0E759F04E0C94ED1E1982A8
:1023900089E08A83612FCE01DF91CF911F910C9448
:1023A000551889818230D1F0833059F08130C9F4D9
:1023B0000E94A7170E94F31E6A837B838C839D83F0
:1023C000E9CF80E00E94E20F8A8381E00E94E20F61
:1023D0008B8382E00E94E20F8C83DCCF0E94571136
:1023E000E9CF612FCE010E94B411D4CF8981823010
:1023F000C1F76A817B818C819D810E94F31E0E94BE
:102400006011C8CF4B816A8189810E947B12982715
:10241000892798279D838C83BDCF2C813D813227CE
:10242000232732274B816A8189810E949412B2CF7F
:102430000E94A912AFCF8FEF8883ACCF0E943C13CC
:102440008983A8CF0E943E139827892798279A83CB
:102450008983A0CF6B8170E089819A81AE014C5F46
:102460005F4F9827892798270E94411393CF6B814C
:1024700070E089819A81AE014C5F5F4F9827892770
:1024800098270E94681386CF0E94931383CF0E94DF
:102490006412D6CF6B8170E089819A81AE014C5F66
:1024A0005F4F9827892798270E94E11273CF6B818D
:1024B00070E089819A81AE014C5F5F4F9827892730
:1024C00098270E94061366CF84E00895262F30E0F7
:1024D00094E0220F331F9A95E1F750E0440F551F07
:1024E000240F351F90E060E370E00E94DC1E820F35
:1024F000931F879608950F931F93CF93DF930E94A6
:1025000066128C010E94071FC82FD0E0DC2FCC2759
:10251000C80101960E94071F9E01282BC901DF9167
:10252000CF911F910F9108950F931F93CF93DF9336
:10253000122F032F0E946612EC01602F0E94151FBC
:10254000612FCE010196DF91CF911F910F910C94D5
:10255000151FAF92BF92CF92DF92EF92FF921F931F
:10256000CF93DF9384E7C82E80E0D82ED0E07601A9
:10257000C0E014C0F50125913491412F6C2F8D2FAF
:102580000E94941282E0A80EB11C1F5F183091F7D0
:1025900080E1E80EF11CCF5FC33019F0570110E065
:1025A000E9CFDF5F80E3C80ED11CD43001F7DF91A3
:1025B000CF911F91FF90EF90DF90CF90BF90AF90A1
:1025C0000895EF92FF920F931F93CF93DF93EC0147
:1025D0008A017C01E60EF71ECE018796CE15DF0537
:1025E00039F4DF91CF911F910F91FF90EF900895F3
:1025F000C03CD10540F40E94071FF80180830F5FA3
:102600001F4F2196E9CFF8011082F9CFCF92DF92C8
:10261000EF92FF920F931F93CF93DF937C016A0198
:102620008C01060F171FEC01CE018796C017D1074A
:1026300049F4DF91CF911F910F91FF90EF90DF90C0
:10264000CF900895C03CD10540F4FE01EE19FF097A
:10265000EC0DFD1D60810E94151F2196E5CF462FD0
:10266000843038F4733028F4683018F4672F0C94F1
:102670007B1290E080E0089580E1089589E193E085
:102680000895EF92FF920F931F93CF93DF93EC0186
:102690008A017C01E60EF71ECE0189519F4FCE15AF
:1026A000DF0539F4DF91CF911F910F91FF90EF90EB
:1026B0000895C93123E0D20740F40E94071FF801B2
:1026C00080830F5F1F4F2196E7CFF8011082F9CF6B
:1026D000CF92DF92EF92FF920F931F93CF93DF93EE
:1026E0007C016A018C01060F171FEC01CE01895194
:1026F0009F4FC017D10749F4DF91CF911F910F91E0
:10270000FF90EF90DF90CF900895C93123E0D2077A
:1027100040F4FE01EE19FF09EC0DFD1D60810E94E1
:10272000151F2196E3CFCF93DF93C7EED0E060E093
:10273000CE010E94151F2196C11584E0D807B9F774
:10274000DF91CF910895DF92EF92FF920F931F9345
:10275000CF93DF9300D000D0CDB7DEB7F82E8FE057
:102760008F1540F08FEF93E00E94071F07EE10E0F7
:102770008823C1F00F900F900F900F90DF91CF91B1
:102780001F910F91FF90EF90DF900895011584E065
:10279000180781F3C8010E94071F811101C0FA9434
:1027A0000F5F1F4FF110F2CF19821A821B821C8219
:1027B000DD24D39478018FEFE81AF80AC8010E944B
:1027C000071F89831A828823A9F29FEF980F9330FD
:1027D00078F48A83D9820E5F1F4FC7010E94071FBA
:1027E0008B83882339F2CE0101960E94B703E2CF92
:1027F0008701F9CF0F931F93CF93DF93C42FD22F6D
:10280000FC0182818823C9F04093A5010E949B1797
:102810009093A4018093A30180E28C0F883008F08C
:1028200050C0C77081E001C0880FCA95EAF7DF91F8
:10283000CF911F910F910C947F041091A501141357
:1028400035C08091A3019091A4010E94B317883CE8
:10285000910560F5C0E2CD0F1D17B9F080E2810F40
:10286000883040F4177081E001C0880F1A95EAF7AC
:102870000E948604C83048F481E09D2F977001C003
:10288000880F9A95EAF70E947F04802F0E947704B0
:10289000C830B8F4D77081E001C0880FDA95EAF744
:1028A000DF91CF911F910F910C94860480E28C0FE1
:1028B000883038F4C77081E001C0880FCA95EAF704
:1028C000EFCFDF91CF911F910F9108950F939C014E
:1028D000CB01233F4CE5340759F1A8F4283DFCE532
:1028E0003F0701F1293D4CE53407D1F1273D3C4537
:1028F00091F406E221EE41EE67ED7CE50E94FA13C9
:1029000080E00F910895253FFCE53F07E9F0B0F026
:10291000263F3C45F9F0FC018281882339F1109271
:10292000A501EFCF07E225EE45EE68ED7CE5E6CFA9
:1029300006E221EE40EE63EF7CE5E0CF07E225EE14
:1029400044EE64EF7CE5DACF06E221EE42EE65EF7D
:102950007CE5D4CF07E225EE46EE66EF7CE5CECFF0
:1029600008E221E045EE69ED7CE5C8CF81E0C9CF02
:10297000CF93DF93EC01FB018281882309F419C115
:10298000C230FCE5DF07C0F1C6319CE5D90730F065
:102990009E012A5F3C452930310570F50E94610C8B
:1029A0009093D1018093D001C031ECE5DE0709F4AA
:1029B000CFC008F05BC0C8308CE5D80709F4B6C0BA
:1029C00088F5C430ECE5DE0709F4A8C0C0F4C230D5
:1029D0008CE5D80709F49CC08091D0018260C33097
:1029E000DC4509F498C08091D0019091D1010E94FA
:1029F0006F0C0E94A00680E0DF91CF910895809136
:102A0000D0018061C630ECE5DE0709F484C0809116
:102A1000D0018860C730DC4508F47DC08091D001CA
:102A2000806279C0CC308CE5D80709F489C070F495
:102A30008091D0018C60CA30ECE5DE0709F46BC0F0
:102A400008F478C08091D0018E7F65C0CE308CE5CF
:102A5000D80709F479C08091D0018B7FCF30DC4555
:102A600008F459C08091D0018F7E55C0CB3FECE572
:102A7000DE0709F457C030F5C3318CE5D80709F4F7
:102A80006FC078F4C131ECE5DE0709F465C0C231EE
:102A9000DC4509F0A8CF0E94A0068091D0018F7775
:102AA0003AC0C5318CE5D80709F462C008F476C095
:102AB0008091D1018160CA3FDC4509F094CF8093B9
:102AC000D10191CFCF3FFCE5DF0709F44DC088F479
:102AD0008091D1018D7FCD3F9CE5D90781F3809115
:102AE000D1018E7FCE3FDC4550F38091D1018360D0
:102AF000E6CFC130FDE5DF0709F459C008F444C052
:102B000080E0C230DD4509F06ECF0E94F40C6BCF3F
:102B10008091D00181608093D00165CF8091D001F8
:102B20008460F9CF8091D1018260C9CF8091D001BA
:102B30008064F1CF0E94A0068091D0018068EBCF25
:102B40008091D0018D7FE7CF8091D001877FE3CF47
:102B50008091D0018F7DDFCF8091D0018F7BDBCF43
:102B60008091D001837FD7CF8091D1018C7FA7CF77
:102B70008091D00182FB992790F921E0922790FB68
:102B800082F990FB83F9C7CF8091D101982F90955E
:102B900091708E7F892B90FB81F991CF0E94A006C6
:102BA0009091D001892F97FB87F98058B4CF81E0AD
:102BB000ACCF81E021CFCF93DF93EB0186319C45F1
:102BC00011F50E948B0B9A81992399F08A7A91E0F2
:102BD00009F490E09093A601811109C089E20E9456
:102BE000450B0E94DB0B80E0DF91CF91089585E3D8
:102BF000F6CF8091A601811104C089E20E944C0B9E
:102C0000F0CF85E3FBCF81E0EFCF9093AC018093D1
:102C1000AB010895E091AB01F091AC01309721F048
:102C20000190F081E02D099480E00895E091AB01DE
:102C3000F091AC01309799F020910C01222359F0CA
:102C40002091D00127FF07C0DC012C9111962C9315
:102C5000119725E02C930280F381E02D09940895CB
:102C60002091A9013091AA012817390771F090939A
:102C7000AA018093A901E091AB01F091AC013097DA
:102C800021F00680F781E02D099408952091A70195
:102C90003091A8012817390771F09093A80180930B
:102CA000A701E091AB01F091AC01309721F00084D5
:102CB000F185E02D09940895FC01329680910C0174
:102CC000882321F08091D0019EE187FF96E080E08B
:102CD000915008F4089521912223D1F38F5FF8CF0A
:102CE000662301F120910C012223F1F02091D00103
:102CF00027FF1AC0462F4695469546954E3190F4CB
:102D0000677021E030E002C0220F331F6A95E2F7BE
:102D1000840F911DFC01828190E02823392381E0FA
:102D2000232B69F480E00895FC01329608962191E6
:102D3000261721F0E817F907D1F7F4CF81E00895BD
:102D40009C01FC0132969FEF80E04191461751F0C3
:102D50009F3F19F4411101C0982F8F5F8630A9F76A
:102D60009F3F09F40895290F311D97FD3A95F90108
:102D700062830895FC01329608962191261303C0C0
:102D8000DF0111971C92E817F907B9F70895E62FAC
:102D9000E695E695E695EE3168F4E80FF92FF11D1A
:102DA000677021E030E001C0220F6A95EAF7828166
:102DB000822B82830895E62FE695E695E695EE311F
:102DC00070F4E80FF92FF11D677021E030E001C0C9
:102DD000220F6A95EAF7209582812823228308959D
:102DE00020910C01222329F02091D00127FD0C9481
:102DF000C7160C94A01620910C01222329F02091D3
:102E0000D00127FD0C94DB160C94BA16FC01329607
:102E100080910C01882351F08091D00187FF06C07A
:102E20008EE1DF011D928A95E9F7089586E0F9CFDA
:102E30000895089508950C941A178091E001843044
:102E400049F10E941B1780E00E94C2031092AD015D
:102E500088E190E020E40FB6F894A8958093600094
:102E60000FBE2093600083B7817F846083BF83B7E8
:102E7000816083BF7894889583B78E7F83BF0FB6B8
:102E8000F894A8958091600088618093600010920A
:102E900060000FBE08950895CF930E9419170E94F5
:102EA000A0100E944B17C0E08C2F0E94E20F8111EE
:102EB00005C0CF5FC330C1F7CF91089581E0FCCF4B
:102EC00008950C9460170E94A0060E940A160E94A2
:102ED000C2030C9461171F921FB61F9211248F9387
:102EE0009F93AF93BF938091AD01811113C08091E7
:102EF000D8019091D901A091DA01B091DB014196FE
:102F0000A11DB11D8093D8019093D901A093DA013E
:102F1000B093DB01BF91AF919F918F911F901FBE26
:102F20001F90189582E084BD93E095BD9AEF97BD00
:102F300080936E0008952FB7F8948091D8019091F6
:102F4000D901A091DA01B091DB012FBF08952FB70D
:102F5000F8946091D8017091D9018091DA01909133
:102F6000DB012FBF08959C014FB7F8948091D801E1
:102F70009091D901A091DA01B091DB014FBF821B82
:102F8000930B089578941F921FB61F9211248F936C
:102F90009F93AF93BF938091D8019091D901A09155
:102FA000DA01B091DB010196A11DB11D8093D8011A
:102FB0009093D901A093DA01B093DB01BF91AF9157
:102FC0009F918F911F901FBE1F90189581E0809355
:102FD000E00080E28093D8001092C9008FE19EE467
:102FE0000197F1F700C0000087E090EBDC018093CF
:102FF000E9019093EA01A093EB01B093EC0188E121
:103000009CE00FB6F894A895809360000FBE909353
:103010006000FFCF9093290180932801089580914B
:10302000CE0108950895CF93DF93EC0180910C01B8
:103030008823B1F18091D00187FF32C060E284E043
:103040008093E9008FEF9091E800815095FD06C0D4
:1030500095ED9A95F1F700008111F5CF8091E80088
:1030600085FF1BC080910C0170E050E040E08111B1
:1030700004C050E040E068E070E0CE010E943B1ADE
:103080008091E8008E778093E80080E2FE01AEEA4E
:10309000B1E001900D928A95E1F7DF91CF9108950B
:1030A00068E081E0CDCF08950895CF93FC016032B0
:1030B00021F58091E001843001F5C091E900CF70E5
:1030C0002091EC00922F917020FD90E8C92B82E0B6
:1030D0008093E9008091E80080FF0CC050E040E060
:1030E00060E270E0CF010E943B1A8091E8008E7789
:1030F0008093E800CF70C093E900CF9108950895C0
:103100000895089542E061EC81E00E94921B42E242
:1031100061EC84E00E94921B42E261EC82E00E943A
:10312000921B42E260EC83E00C94921B8091E201DE
:10313000833009F45FC030F48130C1F1823009F48A
:103140009BC008958A3009F487C08B3009F46DC0A4
:10315000893009F04EC08091E101813209F049C007
:103160008091E5019091E601009719F0029709F02E
:1031700040C08091E800877F8093E8008091E8005C
:1031800082FF33C08091F200823029F48091F100F7
:103190008B7F813021F48091F1008093CE0180916A
:1031A000E8008B778093E8000C94C61B8091E101C6
:1031B000813AF9F48091E800877F8093E80080915C
:1031C000E5019091E601892B61F460E28EEA91E0DD
:1031D00070E00E94D91A8091E8008B778093E80014
:1031E000089560E090E080E0F3CF8091E0018111EC
:1031F000C5CF08958091E101813AD9F78091E50129
:103200009091E601892BA9F78091E800877F809350
:10321000E8008091E80080FFFCCF80910C01809352
:10322000F1008091E8008E77BDCF8091E10181327D
:1032300001F78091E5019091E601892BD1F680910B
:10324000E800877F8093E8000E94C61B8091E3011D
:1032500080930C010C94A0068091E101813249F623
:103260008091E800877F8093E8000E94C61B8091D0
:10327000E4018093CF0108958091E101813A09F042
:10328000B8CF8091E800877F8093E8008091E800C4
:1032900080FFFCCF8091CF01C2CF84B7877F84BFEE
:1032A0000FB6F894A89580916000886180936000C3
:1032B000109260000FBE80E890E00FB6F894809303
:1032C0006100909361000FBE0C94130D0E94161CB8
:1032D0000E94691CE2EEF0E0808184608083789433
:1032E0000E94C11E0E94250D82E091E00C940516FB
:1032F000CF93DF93CDB7DEB7A0970FB6F894DEBFBC
:103300000FBECDBF8091E001853031F48091E001A6
:10331000853091F10E9463170E942D0D8091E0018C
:10332000843009F583E08093E9008091E80082FF12
:103330001AC08091E80090E085FF09C050E040E0AD
:1033400060E270E0CE0101960E948A1A91E08091BD
:10335000E8008B778093E800992329F060E2CE01A2
:1033600001960E94B811A0960FB6F894DEBF0FBE6A
:10337000CDBFDF91CF9108950E941D178091DE018E
:10338000882321F20E944C17882309F4BFCF0E94A2
:10339000251A0E94A006BACF0C94CE19292F3327E4
:1033A0002330310521F168F42130310509F443C09F
:1033B0002230310509F444C090E080E030E020E0A4
:1033C00026C02132310551F122323105A9F763308F
:1033D000710590F7FB01EE0FFF1FE55EFE4F2081A8
:1033E0003181685E7E4FFB01808190E010C099279B
:1033F0008130910581F0009729F00297E9F6E4E425
:10340000F2E002C0EEE6F2E0849190E09F01FA0162
:10341000318320830895E6E5F2E0F6CF633071054D
:1034200058F6660F771FFB01EF5DFE4F208131815B
:1034300089E090E0ECCF82E190E02DEC32E0E7CF44
:103440008BE590E022E732E0E2CF84E089BD86E0C0
:1034500089BD09B400FEFDCF8091D8008F7D809397
:10346000D8008091E00082608093E0008091E000CD
:1034700081FDFCCF0895AF92BF92CF92DF92FF9271
:103480000F931F93CF93DF936C01EB018A010E948E
:10349000E51BF82E811123C00115110539F0F80143
:1034A00080819181C81BD90BC80ED91EB12CA12CCB
:1034B0002097A9F08091E80085FD22C08091E80066
:1034C0008E778093E80001151105A1F0F801808145
:1034D0009181A80EB91EB182A08285E0F82E8F2DB1
:1034E000DF91CF911F910F91FF90DF90CF90BF9010
:1034F000AF9008950E94E51B8823D1F2F82EEFCFFC
:10350000F60181916F018093F1002197FFEFAF1ACF
:10351000BF0ACECFAF92BF92CF92DF92FF920F93AE
:103520001F93CF93DF936C01EB018A010E94E51B8F
:10353000F82E811123C00115110539F0F8018081A1
:103540009181C81BD90BC80ED91EB12CA12C209774
:10355000A9F08091E80085FD22C08091E8008B777A
:103560008093E80001151105A1F0F8018081918197
:10357000A80EB91EB182A08285E0F82E8F2DDF91B2
:10358000CF911F910F91FF90DF90CF90BF90AF90A0
:1035900008950E94E51B8823D1F2F82EEFCF809189
:1035A000F100F60181936F012197FFEFAF1ABF0A77
:1035B000CECFFC018091E7019091E8018617970733
:1035C000A0F06115710529F49091E8009E77909321
:1035D000E80090E06115710551F4911108C08091E7
:1035E000E80082FF32C080E00895BC01F2CF8091F4
:1035F000E0018823B1F18530B1F18091E80083FDCD
:103600002EC08091E80082FDEACF8091E80080FF23
:10361000E1CF2091F20030E06115710519F02830FA
:10362000310558F091E02830310509F090E0209103
:10363000E8002E772093E800CDCF81918093F100B0
:10364000615071092F5F3F4FE7CF8091E0018823E0
:1036500041F0853041F08091E80083FFC0CF81E0E8
:10366000089582E0089583E00895FC018091E701C8
:103670009091E80186179707A0F06115710529F46C
:103680008091E8008E778093E80090E061157105E5
:1036900051F4911108C08091E80082FF33C080E0AE
:1036A0000895BC01F2CF8091E0018823B9F1853003
:1036B000B9F18091E80083FD2FC08091E80082FD80
:1036C000EACF8091E80080FFE1CF2091F20030E066
:1036D0006115710519F02830310558F091E0283056
:1036E000310509F090E08091E8008E778093E80042
:1036F000CDCF84918093F1003196615071092F5F95
:103700003F4FE6CF8091E001882341F0853041F0C2
:103710008091E80083FFBFCF81E0089582E00895A3
:1037200083E00895982F953028F08F708093E900FA
:1037300081E008959093E900242F762F50E09817A8
:1037400031F07091EC002091ED005091F00021FDDE
:1037500002C09F5FE8CF3091EB003E7F3093EB00DB
:103760003091ED003D7F3093ED003091EB00316002
:103770003093EB007093EC002093ED005093F00039
:103780002091EE0027FDE5CF80E008958091E101D2
:1037900087FF13C08091E80082FF06C08091E80097
:1037A0008B778093E80004C08091E0018111F2CF13
:1037B00008958091E0018823D9F38091E80080FF8B
:1037C000F8CF8091E8008E77ECCF2091E400309123
:1037D000E50095E6A9012091EC00822F817020FF81
:1037E00006C08091E80080FF06C080E00895209127
:1037F000E80022FD1AC08091E001882389F085301D
:1038000089F08091EB0085FD0FC02091E40030919C
:10381000E50042175307F9F29150E1F684E008956C
:1038200082E0089583E0089581E008950E94731C6A
:103830000E94761CE0EEF0E0808181608083E8EDFC
:10384000F0E080818F77808319BCE3E6F0E080812F
:10385000816080831092DF0108950E94731C0E9492
:10386000761C8091D8008F778093D8008091D80003
:1038700080688093D8008091D8008F7D8093D80095
:1038800084E089BD86E089BD09B400FEFDCF1092B9
:10389000E0011092DC011092DE011092DD0142E0A5
:1038A00060E080E00E94921B8091E1008E7F809317
:1038B000E1008091E20081608093E2008091E2006B
:1038C00088608093E2008091E0008E7F8093E0002A
:1038D0000895E3E6F0E080818E7F808381E080932D
:1038E000DF010C942D1C1092E20008951092E1006B
:1038F00008951F920F920FB60F9211242F933F93AA
:103900004F935F936F937F938F939F93AF93BF93E7
:10391000EF93FF938091E10082FF0BC08091E20062
:1039200082FF07C08091E1008B7F8093E1000E94BD
:10393000C01E8091E10080FF19C08091E20080FFED
:1039400015C08091E2008E7F8093E2008091E200BA
:1039500080618093E2008091D80080628093D800DB
:1039600019BC85E08093E0010E9480188091E100FD
:1039700084FF2BC08091E20084FF27C084E089BDD2
:1039800086E089BD89B5982F917080FFFBCF80912B
:10399000D8008F7D8093D8008091E1008F7E809346
:1039A000E1008091E2008F7E8093E2008091E2004E
:1039B00081608093E2008091DC01882309F443C098
:1039C00084E08093E0010E9481188091E10083FFF0
:1039D00029C08091E20083FF25C08091E100877FAC
:1039E0008093E10082E08093E0011092DC018091FD
:1039F000E1008E7F8093E1008091E2008E7F8093D2
:103A0000E2008091E20080618093E20042E060E0A9
:103A100080E00E94921B8091F00088608093F0000B
:103A20000E947F18FF91EF91BF91AF919F918F916D
:103A30007F916F915F914F913F912F910F900FBEAA
:103A40000F901F9018958091E30087FD93E090936D
:103A5000E001B9CF1F920F920FB60F9211242F934E
:103A60003F934F935F936F937F938F939F93AF9306
:103A7000BF93CF93DF93EF93FF93D091E900DF7073
:103A80008091EC00C82FC17080FDC0E81092E90061
:103A90008091F000877F8093F00078940E946E1DE3
:103AA0001092E9008091F00088608093F000CD2BA7
:103AB000CF70C093E900FF91EF91DF91CF91BF915B
:103AC000AF919F918F917F916F915F914F913F91B6
:103AD0002F910F900FBE0F901F9018951F93CF93AB
:103AE000DF93CDB7DEB7AA970FB6F894DEBF0FBE4F
:103AF000CDBF81EE91E02091F100FC012193CF0137
:103B0000F1E0893E9F07B9F70E9496188091E8007E
:103B100083FF1EC18091E1019091E2019A3008F08B
:103B200017C1E92FF0E0E458F04E0C94ED1E8038F8
:103B300099F0823809F00CC18091E5018F708530D1
:103B400008F006C18093E9008091EB0085FB88278F
:103B500080F91092E90006C08091DD019091DE01AC
:103B6000911182609091E800977F9093E800809394
:103B7000F1001092F1008091E8008E77E5C0882373
:103B800009F4D3C0823009F0E3C08091E3018111D0
:103B9000D6C08091E5018F702FEF280F243008F0F8
:103BA000D7C08093E9002091EB0020FFC8C093307C
:103BB00031F48091EB0080628093EB00C0C0909163
:103BC000EB0090619093EB0021E030E001C0220F08
:103BD0008A95EAF72093EA001092EA008091EB00C0
:103BE0008860EACF8111B4C01091E3011F77809102
:103BF000E3008078812B8093E3008091E800877F49
:103C00008093E8000E94C61B8091E80080FFFCCFF3
:103C10008091E30080688093E30082E0111183E0EB
:103C20008093E00195C08058823008F091C0809167
:103C3000E3019091E4018C3D23E09207A1F583E03C
:103C40008A838AE289834FB7F894DE01139620E0D5
:103C50003EE051E2E32FF0E050935700E49120FF63
:103C600003C0E295EF703F5FEF708E2F90E0EA3077
:103C7000C0F0C7968D939D932F5F243159F74FBFA6
:103C80008091E800877F8093E8006AE270E0CE01CF
:103C900001960E94D91A8091E8008B778093E80002
:103CA00057C0C096E7CF6091E5017091E601AE0183
:103CB0004F5F5F4F0E94CC19BC01892B09F448C0AB
:103CC0009091E800977F9093E80089819A810E9403
:103CD000351BE1CF8038E1F58091E800877F809344
:103CE000E8008091DC018093F10045CF811130C064
:103CF0009091E301923060F58091E800877F809396
:103D0000E8009093DC010E94C61B8091DC018823AF
:103D100011F084E005C08091E30087FDFACF81E0D7
:103D20008093E0010E94821813C08091E3018130EA
:103D300079F481E0933009F080E08093DE01109205
:103D4000E9008091E800877F8093E8000E94C61B0D
:103D50008091E80083FF0AC08091E800877F80930C
:103D6000E8008091EB0080628093EB00AA960FB68A
:103D7000F894DEBF0FBECDBFDF91CF911F910895A4
:103D80000895CF938091E0018823A1F0C091E900CC
:103D9000CF709091EC00892F817090FD80E8C82B46
:103DA0001092E9008091E80083FD0E946E1DCF70A3
:103DB000C093E900CF9108950024552704C0080E50
:103DC000591F880F991F009729F076956795B8F3CA
:103DD0007105B9F7802D952F0895EE0FFF1F0590FF
:103DE000F491E02D0994692796276927782787277A
:103DF00078270895FB01DC0104C08D9101908019A2
:103E000021F441505040C8F7881B990B0895F99947
:103E1000FECF92BD81BDF89A992780B50895A8E19B
:103E2000B0E042E050E00C943B1F262FF999FECF02
:103E300092BD81BDF89A019700B4021639F01FBAFD
:103E400020BD0FB6F894FA9AF99A0FBE089503961A
:103E5000272F0E94161F0E94151F252F0E94161F34
:103E6000242F0C94161F0196272F0E94161F0C94C6
:103E7000151FDC01CB01FC01F999FECF06C0F2BD94
:103E8000E1BDF89A319600B40D9241505040B8F718
:103E90000895F894FFCFC104C10419051905EE0473
:103EA000EE04EE04EE046B05D205E105E1053D06E6
:103EB000EE04EE044606AF06AF06B806B806BA062C
:103EC000B806B806B806AF06AF06BF06B806B8060D
:103ED000BF06C711D111F61102120D1218121B12D2
:103EE0001B121B121B121B121E1222122A12371235
:103EF000441247124A125712971DBF1DA81EBF1D1C
:0C3F0000A81EF21D131EA81E6A1E761ECD
:103F0C0070010F181318531812185418019291902D
:103F1C00623332313093949540223B3C03DF0201F3
:083F2C000384029D02BD0200A6
:00000001FF
