:100000000C948D020C94D4020C94D4020C94D4025F
:100010000C94D4020C94D4020C94D4020C94D40208
:100020000C94D4020C94D4020C94D4020C9497280F
:100030000C9453280C9466290C94D4020C94D4028A
:100040000C94D4020C94D4020C94D4020C94422943
:100050000C94D4020C94D4020C94D4020C94D402C8
:100060000C94D4020C94D4020C94D4020C94D402B8
:100070000C94D40205010902A10185020901A10025
:10008000050919012905150025019505750181024C
:100090009501750381010501093009311581257F1D
:1000A00095027508810609381581257F9501750827
:1000B0008106050C0A38021581257F950175088196
:1000C00006C0C005010980A101850319012AB700F6
:1000D000150126B700950175108100C0050C0901B6
:1000E000A101850419012AA002150126A00295018B
:1000F00075108100C00660FF0961A1010962150049
:1001000026FF009520750881020963150026FF006F
:10011000952075089102C005010906A1010507197E
:10012000E029E71500250195087501810295017503
:100130000881010507190029FF150026FF00950613
:1001400075088100050819012905950575019102B9
:10015000950175039101C00000000000000000003F
:10016000000000000000000000000000000000008F
:1001700000000000000000000000007E0F00D4FF1F
:10018000FFFFC70000007800000000000000002A08
:100190002B2800000000000000000000000000000C
:1001A000000029000000002C1E34202122243426C7
:1001B00027252E362D3738271E1F202122232425C0
:1001C000263333362E37381F0405060708090A0B75
:1001D0000C0D0E0F101112131415161718191A1BE7
:1001E0001C1D2F3130232D350405060708090A0B85
:1001F0000C0D0E0F101112131415161718191A1BC7
:100200001C1D2F3130354C643214783C1EFD377A7A
:10021000585A000004E6D6B4460200210116000038
:1002200000742FE5A3E0008C00795D003D8889C64D
:100230005436C3174FE4DD4D822BC6F4D592E9A5A1
:10024000755F54B9E327E3992A445E9031DA2613A7
:10025000B22523516D16A36A7516BFF7A97DD45A2E
:1002600015819F6D1D9D1D94CC2EB5FE1F0CCEC615
:100270004C5A4A0C55164B7C4CA261A04AAFAE2E8C
:10028000D4012240BC6E30082907AAB2B3CBC79E66
:100290003E9F252A29B7F5A14DA5E90B866C864717
:1002A000CEA0544700000000006472537ECB46711C
:1002B0000D000195018D0100004C7E6FADB1C4674A
:1002C000FB020000000004595A0001010101010174
:1002D00001010102020202020202020203030303FD
:1002E00003030303040404040404040505050505CD
:1002F000060606060607070707070808080809098B
:1003000009090A0A0A0B0B0B0C0C0C0D0D0D0E0E35
:100310000E0F0F0F101011111112121313141415C8
:100320001516161717181819191A1A1B1B1C1D1D3C
:100330001E1E1F2020212222232424252626272892
:1003400029292A2B2C2D2D2E2F30313232333435C2
:10035000363738393A3B3C3D3E3F404142434445C5
:10036000464748494A4C4D4E4F50515354555658A4
:10037000595A5B5D5E5F616264656668696B6C6D4E
:100380006F7072737577787A7B7D7E8082838587C4
:10039000888A8C8E8F91939596989A9C9EA0A2A302
:1003A000A5A7A9ABADAFB1B3B5B7BABCBEC0C2C407
:1003B000C6C9CBCDCFD1D4D6D8DBDDDFE2E4E7E9C7
:1003C000EBEEF0F3F5F8FAFDFF0400010001000187
:1003D0000001000100580300000200020054030065
:1003E000000300010059030000040002003E03BBAB
:1003F00004050001005A030000060002004003004B
:10040000000700020056030000080001005B030023
:100410000009000200420396040A00020044039609
:10042000040B000200460396040C000200480396E9
:10043000040D0002004A0396040E0002004C0396CD
:10044000040F0002004E03960410000200500396B1
:10045000041100020052039604120002005C030023
:1004600000130002005E03000009025B00030100AC
:10047000A03209040000010301010009211101005B
:10048000012240000705810308000A090401000257
:10049000030000000921110100012222000705824A
:1004A00003200001070503032000010904020001E5
:1004B00003000000092111010001228100070584C9
:1004C0000320000A1201000200000008575001003A
:1004D0000000010203011C037600690061006C004A
:1004E0003A006600360034006300320062003300D8
:1004F00063000000080344003100500000001603B0
:1005000050004C0049005000200057006F0072005E
:100510006B00730000000403090411241FBECFEF19
:10052000D4E0DEBFCDBF04B603FE27C080913B04FC
:1005300090913C04A0913D04B0913E048730904BD3
:10054000A740B04BD1F410923B0410923C0410929F
:100550003D0410923E0414BE84B7877F84BF0FB65B
:10056000F894A89580916000886180936000109253
:1005700060000FBEE0E0F8E3099524E0A2E7B1E0F7
:1005800001C01D92AB33B207E1F711E0A0E0B1E08A
:10059000EEEFF2E602C005900D92A237B107D9F74F
:1005A0000E948D290C944B310C9400002091E400A2
:1005B0003091E50095E6A9012091EC00822F817031
:1005C00020FF06C08091E80080FF06C080E008950B
:1005D0002091E80022FD1AC080912F04882389F021
:1005E000853089F08091EB0085FD0FC02091E400FB
:1005F0003091E50042175307F9F29150E1F684E09B
:10060000089582E0089583E0089581E00895EF92CF
:10061000FF920F931F93CF937C018B010E94D60210
:10062000C82F811117C08091E80085FD0BC0809113
:10063000E8008E778093E8000E94D602882399F321
:10064000C82F08C0F70181917F018093F10001500C
:10065000110949F78C2FCF911F910F91FF90EF90C7
:1006600008958091310487FF13C08091E80082FFD4
:1006700006C08091E8008B778093E80004C08091E9
:100680002F048111F2CF089580912F048823D9F38C
:100690008091E80080FFF8CF8091E8008E77ECCF62
:1006A000982F9093E900242F762F50E0891731F08E
:1006B0007091EC002091ED005091F00021FD07C0F9
:1006C0009F5F953071F78093E90081E00895309144
:1006D000EB003E7F3093EB003091ED003D7F309397
:1006E000ED003091EB0031603093EB007093EC0043
:1006F0002093ED005093F0002091EE0027FDE0CF15
:1007000080E00895FC0180913704909138048617A9
:100710009707A0F06115710529F49091E8009E7784
:100720009093E80090E06115710551F4911108C0B3
:100730008091E80082FF32C080E00895BC01F2CFD2
:1007400080912F048823B1F18530B1F18091E800C8
:1007500083FD2EC08091E80082FDEACF8091E80001
:1007600080FFE1CF2091F20030E06115710519F0B2
:100770002830310558F091E02830310509F090E03B
:100780002091E8002E772093E800CDCF81918093CF
:10079000F100615071092F5F3F4FE7CF80912F0427
:1007A000882341F0853041F08091E80083FFC0CF7D
:1007B00081E0089582E0089583E00895089580918E
:1007C000240408959C014FB7F89480911C049091E3
:1007D0001D04A0911E04B0911F044FBF821B930BF8
:1007E00008952FB7F89480911C0490911D04A09156
:1007F0001E04B0911F042FBF08959C01FC01329686
:100800009FEF80E04191461751F09F3F19F441114D
:1008100001C0982F8F5F8630A9F79F3F09F4089594
:10082000290F311D97FD3A95F901628308952091B2
:10083000190430911A042817390771F090931A049B
:1008400080931904E0911704F0911804309721F077
:100850000084F185E02D09940895209115043091CC
:1008600016042817390771F0909316048093150425
:10087000E0911704F0911804309721F00680F78179
:10088000E02D09940895E0911704F0911804309731
:1008900021F00190F081E02D099480E00895452B2E
:1008A00039F0682381E06F3F09F080E0817008959E
:1008B00081E0FCCFA0913A0350913B034A2F54139F
:1008C00001C00895242F30E0F901EE0FFF1FEE5C08
:1008D000FC4F608171816817790791F467E070E0DF
:1008E0000E947F3086509D4F51E0FC0154834A1393
:1008F000E8CF2F5F3F4F2370332720933A030895AB
:100900002F5F3F4F422F4370DACF10929702109221
:100910009602EAEFF2E08581811102C0148216820C
:10092000379683E0E233F807B1F70895EEE3F3E09A
:10093000848195812AE030E0B9010E949030609373
:100940001801868180931701828580931601848522
:100950008093150186859785B9010E949030609338
:100960001401808980931301828980931201848904
:1009700080931101089580913E0390913F039093DD
:100980001A01809319010895FA01811101C0FB0138
:100990000994089580910602982F9E7F29F4817012
:1009A00082608093060208958631E8F38170846145
:1009B000F8CFAF92BF92CF92DF92EF92FF920F9358
:1009C0001F93CF93DF938901E42FF0E0E753FD4FAE
:1009D000611115C09491392FE92FD8011196EC932C
:1009E00011979C9312963C93DF91CF911F910F9199
:1009F000FF90EF90DF90CF90BF90AF900895C82FF9
:100A0000D0E0E62EF12CE4914E2FAE2EB12CCE018B
:100A100066E070E00E947F30CC24CA94D12CB601ED
:100A20000E949030DB01CC0FDD1FCB0165E570E04B
:100A30000E947F30C81BD90B8C2F880FC80FC601AE
:100A40008E199F09B5010E947F30392FD0E0CE0169
:100A5000B7010E947F30692F70E0C601861B970B9B
:100A6000B5010E947F30292FC6018C1B9D0BB70159
:100A70000E947F30692F70E0C601861B970BB5017D
:100A80000E947F30892FA230B10589F040F4109781
:100A900009F4A3CF119779F0932F322F9ECFA43072
:100AA000B10561F078F0169709F497CFF5CF9E2F36
:100AB000E32F382F92CF9E2FE22F8FCF932F3E2FF1
:100AC000E82F8BCFE32F342F922F87CF0E94F10393
:100AD0009C019091F4018091F501982B21F03093C5
:100AE000F1012093F0019091F6018091F701982B8C
:100AF00021F03093EF012093EE01E0911704F09183
:100B00001804309749F082E08093F2010480F58167
:100B1000E02D82EF91E0099408959091F401803FD7
:100B200059F48091F50187FF0DC01092F5019111E4
:100B30000BC01092EC0108C0813F81F48091F50157
:100B400018169CF3992381F08091F6019091F7019A
:100B5000892B09F064C01092EB010895823F49F49B
:100B600097FFF0CF1092F4018091F5018111ECCF45
:100B7000E0CF833F19F41916ACF3E4CF2091F601CE
:100B8000893F29F41216F4F61092F601DBCF8A3F62
:100B900019F427FFD7CFF8CF2091F7018B3F29F425
:100BA00027FFD0CF1092F701CDCF8C3F19F412164A
:100BB000CCF3C8CF843F31F48091F3018E7F8093D2
:100BC000F301C0CF853F21F48091F3018D7FF7CFF2
:100BD000863F21F48091F3018B7FF1CF873F21F491
:100BE0008091F301877FEBCF883F21F48091F3015F
:100BF0008F7EE5CF8D3F31F48091ED018E7F809324
:100C0000ED01A0CF8E3F21F48091ED018D7FF7CFD4
:100C10008F3F09F097CF8091ED018B7FF0CF089542
:100C20008091ED0180FF0CC06091120170E075951C
:100C30006795759567956115710559F1862F08952A
:100C400081FF06C06091120170E075956795F3CF42
:100C50006091120170E082FD0CC06091EB0166238F
:100C6000A9F0209111018091120190E0621730F0FB
:100C7000BC0160387105F8F28FE7089570E00E94BA
:100C80007F30622F70E00E94A430F3CF61E070E00B
:100C9000D5CF81E008958091ED01209146033091F8
:100CA000470380FF13C08091160190E0B9010E94B4
:100CB0007F309C013695279536952795203831054C
:100CC000A0F52115310599F1822F089581FF0AC001
:100CD0008091160190E0B9010E947F309C01369509
:100CE0002795ECCF82FF08C08091160190E0B901F2
:100CF0000E947F309C01E2CF8091EC018823F1F2C9
:100D0000409115016091160170E0841710F0C9013F
:100D1000EFCF90E00E947F30B9010E947F30642FB6
:100D200070E00E9490309B01C9CF8FE7089581E069
:100D30000895803F31F40E944B0681958093F50120
:100D40000895813F19F40E944B06F8CF823F31F499
:100D50000E944B0681958093F4010895833F19F416
:100D60000E944B06F8CF893F29F40E941006809319
:100D7000F60108958A3F21F40E9410068195F7CF6D
:100D80008B3F31F40E94100681958093F7010895FE
:100D90008C3F19F40E941006F8CF843F31F4809103
:100DA000F30181608093F3010895853F21F48091E0
:100DB000F3018260F7CF863F21F48091F3018460D4
:100DC000F1CF873F21F48091F3018860EBCF883F1A
:100DD00021F48091F3018061E5CF8D3F31F4809162
:100DE000ED0181608093ED0108958E3F21F48091A3
:100DF000ED018260F7CF8F3FB9F78091ED018460FC
:100E0000F1CF80E00895F89427982F9A7894089568
:100E10009091E10192FF06C0282F28712830F9F443
:100E2000877F846093FF06C0282F28712831F1F452
:100E3000877E84612091E20120FF06C0382F38713F
:100E40003830D9F4877F816021FF06C0282F2871B0
:100E50002831D1F4877E816194FD877E0895282F03
:100E600024712430F9F68B7F8860DCCF282F247121
:100E7000243101F78B7E8861DDCF382F317131301D
:100E800019F78E7F8860E0CF282F2171213121F75B
:100E90008E7E8861E1CFCF93DF93EC01823891059C
:100EA000A9F1D8F58133910509F496C048F5893246
:100EB000910509F48AC08A9709F495C0C11521E506
:100EC000D20708F0BCC0C11530E5D30708F016C141
:100ED000C83ED10508F09CC0C03ED10560F5C83AB7
:100EE000D10508F087C0C53AD10508F0FFC0C13070
:100EF000D10509F12097F9F0C430D105E0F440C0E4
:100F00008533910509F45AC0C997C1F68091E10172
:100F1000837089F0C0EED0E00EC0833E910599F158
:100F200070F4803E910501F1823E910539F6809181
:100F3000E10182FD21C0CE01DF91CF910895863E6F
:100F4000910561F1873E910571F1843E910509F0AB
:100F5000B5CF8091E20181FFEECF8091E101C7EE34
:100F6000D0E084FD0DC0E7CF8091E10180FD18C184
:100F70009091E20190FFDFCFC3EED0E084FFDBCFA2
:100F8000D0E0C0E0D8CF8091E10182FD0CC190910A
:100F9000E20190FDBFCF84FFCECFF2CF8091E1017F
:100FA00083FDDDCFC8CF8091E10183FDFFC090912B
:100FB000E20191FFF0CFC4EED0E0BDCF8091E1011E
:100FC00085FFB9CFC9E2D0E0B6CF8091E10185FFBE
:100FD000B2CFC5E3D0E0AFCF8091E10186FFABCFC8
:100FE000CAE2D0E0A8CF8091E10186FFA4CFC1E39F
:100FF000D0E0A1CFCF3BD10518F6C85AD0E0CC0F36
:10100000DD1FC75DDE4F0990D881C02DD46493CF1A
:10101000C11540E2D40758F4C11581E0D80708F0A3
:101020008ACFC03FD10508F4ABCFD06584CFC115BE
:1010300020E4D20708F4A4CFDF70D06A7CCFC115BA
:1010400035E5D30710F5C11544E5D40708F090C085
:10105000C11583E5D80708F075C0C11522E5D20790
:1010600008F46BC0CE018370992721E030E002C004
:10107000220F331F8A95E2F7C695C695D0E0E5E0CA
:10108000CC0FDD1FEA95E1F754C0C11539E5D30750
:10109000A8F4C11548E5D40708F06FC0C11586E56E
:1010A000D80708F06DCF8C2F0E940807C82FD0E01A
:1010B000DC2FCC27CC27DF71D0623DCFC1152AE5CC
:1010C000D20708F45FC0CE0190568115904208F017
:1010D00057CF8D2F8F710E94080790E0982F882797
:1010E00088279F719C012C2BE901E6CFC55AD0E0DF
:1010F000CA5DDE4FC881D0E0D0641DCFCE01A4E030
:1011000096958795AA95E1F783702C2F26952695BD
:10111000237030E0B5E0220F331FBA95E1F7382B8A
:101120008C2F8370C1E0D0E002C0CC0FDD1F8A9508
:10113000E2F7C22BD32BDC68FECEDC2FCC27C16FAD
:10114000D06AF9CECE018370992721E030E002C049
:10115000220F331F8A95E2F7C695C695D0E075E059
:10116000CC0FDD1F7A95E1F7C22BD32BDA68E3CEE3
:10117000DC2FCC27C46FD06ADECEDC2FCC27C06F2B
:10118000D06AD9CE8C2F8F700E94080734E0D69594
:10119000C7953A95E1F7CF709C2FEC01D069CBCE83
:1011A000C9E3D0E0C8CEC2EED0E0C5CEC6EED0E0F6
:1011B000C2CE8091D301882331F01092D3011092D6
:1011C000D2011092D1010895CF93C82F8091E201EE
:1011D00082FD0CC08091D3018C1741F00E94F10375
:1011E0009093D2018093D101C093D301CF91089500
:1011F000809590913A04982390933A0408958095AD
:1012000090917102982390937102089590917102C8
:10121000892B8093710208951092CF011092CE0114
:101220001092CD0108958091400390914103892B44
:1012300089F00E94F1032091D1013091D201AC01DB
:10124000421B530B81E02091400330914103421730
:10125000530708F480E081700895809171029091A5
:101260003A04892B9091D001892B8093740180914D
:10127000D301882309F18091400390914103892B88
:1012800029F00E94130981110E94D90880917401EC
:101290009091D301892B8093740120E086E791E03F
:1012A000FC013191CF0131112F5FF1E08C379F07A5
:1012B000B9F721110E94D908E0911704F0911804A0
:1012C000309731F00280F381E02D84E791E00994BA
:1012D00008950F931F93CF93DF93EC018A858111BB
:1012E00032C00B811C811755C80166E170E00E9475
:1012F0007F30DC01AB59BC4F1496ED91FC911597F2
:10130000309731F054966D917C9185599C4F099599
:10131000C80166E170E00E947F308C010B591C4FC0
:10132000F80187810E94FF08F80180850E94F80873
:101330000E942D09188219861B861E821D8210921A
:10134000640310926303DF91CF911F910F91089571
:10135000CF93DF93EC018989811118C081E0898BDB
:101360008F810E94060980913A049885892B809389
:101370003A040E942D09EA81FB81309739F06C898B
:101380007D89CE010696DF91CF910994DF91CF91AF
:10139000089580911B01877F80931B0182E00E944A
:1013A000F80880911B0184FF06C08F7E80931B018B
:1013B00082E00E94060980911B0185FF06C08F7D97
:1013C00080931B0180E20E9406090C942D098091F4
:1013D000CC0181111092CC0108952091CB01909104
:1013E0008A01291302C080E0089530E0F90153E03A
:1013F000EE0FFF1F5A95E1F7E557FE4F5181561347
:1014000006C05081581303C05281541304C02F5F8B
:101410003F4F2770E6CF81E008958091CB019091F6
:101420008A01981301C008958F5F8770FACF9E3F9D
:1014300041F1980FA92FA770969596959695892FAB
:1014400090E063E070E00E947F30FC01E158FE4FC5
:1014500050E040E080E0219130E00A2E02C0369555
:1014600027950A94E2F721703327042E01C0220F3A
:101470000A94EAF7822B4F5F5F4F4330510559F7CB
:10148000089580E00895CF93DF93262F9E3F69F162
:10149000980F892F8770E1E001C0EE0F8A95EAF777
:1014A000969596959695892F90E063E070E00E945E
:1014B0007F30DC01A158BE4F50E040E0622F70E069
:1014C0008D91ED0121979B01042E02C03695279541
:1014D0000A94E2F72170219528272E2328272883B4
:1014E0004F5F5F4F4330510559F7DF91CF9108951A
:1014F000E92FE295EF70E250EE3070F4F0E0E35B3C
:10150000FE4C0C94B830803F19F020F4883E20F453
:1015100081E00895843FE1F380E00895883EC0F3C0
:10152000813FD1F7F5CF93FB882780F9089590E0AC
:1015300080E00E942D0490E080E00E941704109249
:101540003A041092D0010E942D0986E0E2EFF1E00A
:10155000DF011D928A95E9F71092EC011092EB01E0
:101560001092ED010C946605809339040C94970A4F
:1015700080913904982F9670963019F488600C94F5
:10158000B40A877FFCCF21E030E001C0220F8A95AA
:10159000EAF720958091390482230C94B40A909143
:1015A000CF01809589238093CF01282F277091F454
:1015B000282F082E000C330B9217130659F0909128
:1015C000E20192FD07C08595859585950E94C30A25
:1015D0000C940C09089521E030E001C0220F8A9597
:1015E000EAF780913904822B0C94B40A9091E201BD
:1015F00092FD10C0982F990F990F990F962B9093E9
:10160000CF010E94EB0A0E94F1039093CE018093D8
:10161000CD0108950C94EB0A8093D4010C94970AA1
:10162000882321F00E94F8080C942D09089588233E
:1016300039F090913A04982B90933A040C942D0928
:101640000895882321F00E94FF080C942D09089525
:10165000882321F00E9406090C942D0908958823FF
:10166000B1F19CEF980F913A70F4E6E7F1E09191B7
:10167000891303C0DF0111971C9291E0EC37F90741
:10168000B1F70C942D0990E2980F983050F48770C0
:1016900091E001C0990F8A95EAF7892F0E94FF080F
:1016A000F0CF9BE5980F933020F490E080E00C940D
:1016B0002D0498E5980F973120F490E080E00C9489
:1016C0001704803F20F00E948D050C946605089554
:1016D000CF93C82F882309F452C08CEF8C0F813A26
:1016E000F8F4E6E7F1E08CE791E0DF012D91C21715
:1016F00059F08A179B07D1F76C2F84E791E00E947D
:10170000FD03CF910C942D092191C21303C0DF0179
:1017100011971C928E179F07B9F70E942D09ECCFE5
:1017200080E28C0F883048F4C77081E001C0880FD8
:10173000CA95EAF70E940609E4CFEBE5EC0FE33027
:1017400040F4F0E0EA5DFE4F808190E0CF910C9490
:101750002D04E8E5EC0FE73150F4F0E0EE0FFF1F49
:10176000E75DFE4F80819181CF910C941704C03FBB
:1017700030F08C2F0E949906CF910C946605CF9182
:1017800008959C013A9521153F4150F5FC01EE2743
:10179000F170BC0166277270AC01442754709C0143
:1017A0002227387094FF0EC080E1EF2B09F480E00F
:1017B000672B09F08062452B09F08064232B89F0A8
:1017C0008068089581E0EF2B09F480E0672B09F031
:1017D0008260452B09F08460232B19F088600895FE
:1017E00080E00895CF93DF93EC010E942F0BCE0190
:1017F0000E94C10B9E01205E31092830310510F096
:10180000CD2B21F4DF91CF910C94210BDF91CF915F
:101810000C94100BCF93DF93EC010E94C10B9E013F
:10182000205E31092830310510F0209739F40E94EC
:10183000280B8C2FDF91CF910C94680B0E94170B13
:10184000F8CF662329F020913A04226020933A04CD
:101850009C013056211540E2340720F0305E2115FE
:10186000304108F499270C940A0C8093200470935B
:1018700022046093210480912F048430F9F4809332
:10188000E9008FEF9091E800815095FD06C095ED3D
:101890009A95F1F700008111F5CF8091E80085FF5E
:1018A0000DC050E040E063E070E080E294E00E9410
:1018B00007038091E8008E778093E8000895BC01CB
:1018C00084E00C94350CBC0183E00C94350C9C0135
:1018D00084E08093E9009FEF8091E800915085FDBE
:1018E00006C085ED8A95F1F700009111F5CF809142
:1018F000E80085FF0CC050E040E066E070E0C90100
:101900000E9407038091E8008E778093E800089595
:10191000CF93DF93EC0181E08093E9008FEF90910A
:10192000E800815095FD06C095ED9A95F1F700000D
:101930008111F5CF8091E80085FF14C050E040E0B0
:1019400068E070E0CE010E9407038091E8008E7786
:101950008093E80088E0FE01A5E2B4E001900D92DA
:101960008A95E1F7DF91CF91089581E08093E000BF
:1019700080E28093D8001092C9008FE19EE4019725
:10198000F1F700C0000087E090EBDC0180933B049E
:1019900090933C04A0933D04B0933E0488E19CE006
:1019A0000FB6F894A895809360000FBE90936000E6
:1019B000FFCF019708F40895EFE9FFE03197F1F7C1
:1019C00000C00000F6CFDF92EF92FF920F931F93BB
:1019D000CF93DF937C018B01D42E80911B0182FF7A
:1019E0008CC0C0919402D0919502CE15DF0521F0F4
:1019F000E114F10409F081C080911B018B7F809379
:101A00001B0181FD73C08091920290919302A80105
:101A1000481B590B81E02091190130911A0142179E
:101A2000530708F480E08170F82E80911B01F0FAD2
:101A300081F980931B01FE0183E0F695E7958A9575
:101A4000E1F7EE71FF27EE58FD4F20813181AE01A5
:101A50004F70552781E090E002C0880F991F4A958A
:101A6000E2F7FF2009F444C0822B932B91838083FB
:101A70008091710281FF08C080911B018061809379
:101A80001B0182E00E94FF088091710285FF08C05F
:101A900080911B01806280931B0180E20E94FF08FD
:101AA0006F2DCE010E94210CDD2031F08091590371
:101AB00085FF02C086FF3BC080915C0390915D036F
:101AC0000E94D90C80919402909195029C0130560D
:101AD000211540E2340720F0305E2115304108F432
:101AE00099270E94F20B0E94C9091DC081E09BCF7B
:101AF0008095909582239323B9CFC70199279701A9
:101B00003056211540E2340728F0305E211530416F
:101B100008F0C7010E94F20B809194029091950207
:101B20008E159F0501F31093930200939202DF91AB
:101B3000CF911F910F91FF90EF90DF9008958091CA
:101B4000060280FD0CC01092010210920002109259
:101B500002021092040210920302109205023D9AB2
:101B600038B13F7D28B120624FB7F89480E092E011
:101B7000FC015191CF0168E028B9000000C057FF77
:101B800038B9550F000000C000C000C038B900C00F
:101B90006A9591F7F2E086309F0751F74FBF8FE5C6
:101BA00094E00197F1F700C0000008950F931F9390
:101BB000CF93DF93EC01009109021091080220E01D
:101BC00032E0402F612F8C810E94D9048C8123E068
:101BD00032E0402F612F81580E94D9040E949F0D4E
:101BE0009A818C8190FF07C08F5F8C83DF91CF91AA
:101BF0001F910F9108958150F8CF9091060290FFA8
:101C00000EC0809301026093000240930202809311
:101C1000040260930302409305020C949F0D089503
:101C20000F931F93CF93DF9300D00F92CDB7DEB702
:101C30008C018091060280FF10C09E012F5F3F4FF4
:101C40004091090260910802F80184810E94D90440
:101C50004B8169818A810E94FD0DF80184818F5F2B
:101C600084830F900F900F90DF91CF911F910F9170
:101C700008951F93CF93DF93182FC0915E03D091E7
:101C80005F03893321F0C0915C03D0915D03812F04
:101C90000E94680B209731F4812FDF91CF911F9123
:101CA0000C942F0B8FE99FE00197F1F700C0000023
:101CB0002197F0CF0F931F93CF93DF93C42FD22F91
:101CC000FC0182818823A1F0409362030E94F1030A
:101CD0009093610380936003C77081E001C0880F17
:101CE000CA95EAF7DF91CF911F910F910C94280BC1
:101CF00010916203141339C08091600390916103C5
:101D00000E94E203209156033091570382179307F4
:101D100060F5C0E2CD0F1D17B9F080E2810F883069
:101D200040F4177081E001C0880F1A95EAF70E940D
:101D3000210BC83048F481E09D2F977001C0880FB7
:101D40009A95EAF70E94280B802F0E94390EC8301E
:101D500098F4D77081E001C0880FDA95EAF7DF9137
:101D6000CF911F910F910C94210BC77081E001C09E
:101D7000880FCA95EAF7F3CFDF91CF911F910F91AA
:101D80000895BF92CF92DF92EF92FF920F931F932D
:101D9000CF93DF93EC012881222309F48DC02130F9
:101DA000D1F599818A81913021F422960E94390ED1
:101DB00005C0923029F422960E94680B2196EBCF41
:101DC000933021F422960E942F0BF8CF943011F01B
:101DD0002196F4CF229650E040E0FE013196682F24
:101DE0006053770B9B016A30710550F041505109E7
:101DF00028F38FE99FE00197F1F700C00000F6CFCC
:101E0000CA016AE070E00E947F30A901480F591FA3
:101E10008981EF01E2CFE22FF0E0E957FE4FB49065
:101E2000822F86958695869590E0FC01E958FE4FB5
:101E3000E4902770F12C022E02C0F594E7940A94E6
:101E4000E2F731E0E322FF24FC01E959FE4FC490A0
:101E5000D12C022E02C0D594C7940A94E2F761E017
:101E6000C622DD24FC01E95AFE4F049110E002C0B5
:101E7000159507952A95E2F701701127E114F104F1
:101E800019F081EE0E94680BC114D10419F086EE9E
:101E90000E94680B8B2D0E94390ECD2819F086EE1A
:101EA0000E942F0BEF2819F081EE0E942F0B012BBF
:101EB00009F484CF8CE27ACFDF91CF911F910F91FB
:101EC000FF90EF90DF90CF90BF9008950F931F93F6
:101ED000CF93DF930EE313E0CFE2D0E0CE010E9478
:101EE000FB30F80181938F012196C135D105B1F7FF
:101EF000C7EDD3E0FE0185919491009711F0FC01AC
:101F000009952896F4E0CF36DF07A1F7DF91CF914E
:101F10001F910F9108950F931F93CF93DF938430F8
:101F2000D0F4642BC1F4082F10E0000F111FC8017A
:101F300087960E94FB30C82FD0E0DC2FCC27C80149
:101F400088960E94FB309E01282BC901DF91CF911A
:101F50001F910F91089590E080E0F8CF20916F02DB
:101F600030917002232B89F47E3F39F46E3F69F47F
:101F700080916D0290916E020895843030F4762B3A
:101F800021F440E060E00C948B0F90E080E0089535
:101F9000CF92DF92FF920F931F93CF93DF936C0149
:101FA000009139048091D401082BC7E0D0E010E003
:101FB000FC2EC8010C2E02C0959587950A94E2F775
:101FC00080FD0CC02197A0F7F12C8F2DDF91CF91D0
:101FD0001F910F91FF90DF90CF900895B6018C2F45
:101FE0000E94AE0F0E944B07019761F3EECFCF9393
:101FF000DF93EC010E94C80FBE010E94AE0FDF917B
:10200000CF910C944B07FC0186819781009721F0BA
:102010000E944B070C94780A808191810E94F70FEF
:10202000F9CF1F93CF93DF9300D000D00F92CDB79D
:10203000DEB749835A8389819A816623B9F02223C6
:10204000A9F00E94C80F182F682F89819A810E94D9
:10205000430A69817A81812F0F900F900F900F9022
:102060000F90DF91CF911F910C94AE0F0E94170A31
:10207000182FEFCFFC01262F86819781009739F426
:10208000408151816281738184810C941110089583
:1020900083E290E00E94FB30803D89F484E290E08E
:1020A0000E94FB30893459F485E290E00E94FB30B5
:1020B00091E0863B09F090E0892F8170089580E0DF
:1020C000FCCFCF9384E090E00E94FB30C82F82E2E7
:1020D00090E00E94FB30982F8C2FCF9108950F93A2
:1020E0001F93CF93DF930EE313E0CFE2D0E0CE0156
:1020F0000E94FB30F80161918F01681719F0CE0141
:102100000E940F312196C135D10589F7DF91CF911A
:102110001F910F910895EEE3F3E0128E138E8FEA74
:1021200090E09183808385E0848F88E893E19383B6
:1021300082834CE251E05583448322E330E03783CD
:10214000268385E090E0918780878AE090E09387FE
:10215000828764E170E0758764875787468744E625
:1021600050E0518B408B48E050E0538B428B48E26B
:1021700050E0558B448B378B268B28EC30E0318F29
:10218000208F158E978F868F80E590E091A380A396
:102190000E946F100C94660FCF93DF93C1EFD0E0D5
:1021A00060E0CE010E940F312196C11584E0D8076E
:1021B000B9F7DF91CF9108950F931F93CF93DF93DA
:1021C00089018430E8F4642BD9F421153C4531F4BD
:1021D00020910F0130911001232B91F0C82FD0E0F6
:1021E000CC0FDD1F612FCE0187960E940F31602F2B
:1021F000CE018896DF91CF911F910F910C940F31F2
:10220000DF91CF911F910F910895CF93C82F6FEF5A
:10221000811160ED83E290E00E940F316FEFC111F8
:1022200069E484E290E00E940F316FEFC11166EB28
:1022300085E290E0CF910C940F31CF93C091E201F1
:10224000C2FB992790F9981799F080FBC2F9C093C7
:10225000E2016091E10184E090E00E940F316C2F77
:1022600082E290E00E940F3182E0CF910C94CF0A7D
:10227000CF910895CF92DF92EF92FF920F931F9329
:10228000CF93DF93CDB7DEB764970FB6F894DEBF78
:102290000FBECDBFC0900F01D090100181E090E043
:1022A0009093100180930F0189ECE82E83E0F82EC3
:1022B00010E0F7012591349140E060E0812F0E9409
:1022C000DC1082E0E80EF11C1F5F143091F70E94D1
:1022D0008B101A8219821C821B821E821D82188614
:1022E0001F8288EC90E09A87898701E510E04AE038
:1022F00050E0B801CE0101960E943331065F1F4FB6
:10230000013A1105A1F77E01EBE0EE0EF11C8AE027
:10231000F70111928A95E9F74AE050E0B801C70148
:102320000E943331065F1F4F013F1105A9F7D0927C
:102330001001C0920F0164960FB6F894DEBF0FBE75
:10234000CDBFDF91CF911F910F91FF90EF90DF9064
:10235000CF90089580E00E94051160E086E290E051
:102360000E940F310E943A110E94CC1081E00C941F
:1023700005119B01883080F490E06AE070E00E94D3
:102380007F30BC016F5A7F4F4AE050E0C9010E9484
:10239000EB3090E080E008958FEF9FEF08958F92EB
:1023A0009F92AF92BF92CF92DF92EF92FF920F93E4
:1023B0001F93CF93DF93CDB7DEB72A970FB6F8946C
:1023C000DEBF0FBECDBF05E613E0F12CE12C82EAA3
:1023D000C82E87E2D82E9CECA92E97E2B92E2BE0CE
:1023E000822E27E2922EF801D182C082B382A2828D
:1023F00095828482F58AE48ABE016F5F7F4F8E2DBD
:102400000E94B911892B29F489859A85F801938B4B
:10241000828BFFEFEF1AFF0A0A5E1F4F88E0E81673
:10242000F10409F72A960FB6F894DEBF0FBECDBFB0
:10243000DF91CF911F910F91FF90EF90DF90CF90A0
:10244000BF90AF909F908F900895CF92DF92EF92C0
:10245000FF920F931F93CF93DF93CDB7DEB72A97E9
:102460000FB6F894DEBF0FBECDBFEDE1F2E080E520
:10247000DF011D928A95E9F7EAEFF2E088E3DF01D8
:102480001D928A95E9F78DE1C82E82E0D82E7F0152
:1024900001EA10E0F701D182C0824AE050E0B801C1
:1024A000CE0101960E94EB3088E0FE013196D60104
:1024B00001900D928A95E1F789859A85D701139647
:1024C0009C938E931297BAE0CB0ED11CE7E0EE0EF0
:1024D000F11C065F1F4F013F1105E1F62A960FB66A
:1024E000F894DEBF0FBECDBFDF91CF911F910F914A
:1024F000FF90EF90DF90CF90089510927102E6E781
:10250000F1E086E0DF011D928A95E9F70C94970AC5
:102510001F93CF93DF93CDB7DEB7AA970FB6F8948A
:10252000DEBF0FBECDBF81E394E02091F100DC015E
:102530002D93CD01B4E089339B07B9F78091320424
:10254000833009F470C0B8F4813009F447C0823098
:1025500009F4B1C08091E80083FF93C280913104F7
:10256000909132049A3008F08CC2E92FF0E0E55ADD
:10257000FE4C0C94B8308A3009F48CC08B3009F4CE
:102580006FC0893039F780913104813219F7809119
:10259000350490913604009711F00297D9F6809196
:1025A000E800877F8093E8008091E80082FF36C0D2
:1025B0008091F200823031F48091F100813011F08D
:1025C000863021F48091F100809324048091E8000A
:1025D0008B778093E8000E943103BCCF8091310457
:1025E000813A09F0B7CF8091E800877F8093E800B7
:1025F0008091350490913604892B61F468E085E27E
:1026000094E070E00E9482038091E8008B778093D1
:10261000E800A0CF60E090E080E0F3CF80912F044D
:102620008111C2CF97CF80913104813A09F092CFC6
:102630008091350490913604892B09F08BCF8091DD
:10264000E800877F8093E8008091E80080FFFCCF5E
:1026500080911D018093F1008091E8008E77B9CFC1
:1026600080913104813209F075CF809135049091C9
:102670003604892B09F06ECF8091E800877F809324
:10268000E8000E9431038091330480931D010E9471
:102690007D1260CF80913104813209F05BCF80914F
:1026A000E800877F8093E8000E9431038091340422
:1026B000809323044FCF80913104813A09F04ACFAF
:1026C0008091E800877F8093E8008091E80080FF98
:1026D000FCCF80912304BECF803899F0823809F076
:1026E000D0C1809135048F70853008F0CAC18093C5
:1026F000E9008091EB0085FB882780F91092E900C2
:1027000006C080912D0490912E04911182609091C9
:10271000E800977F9093E8008093F1001092F10019
:102720008091E8008E77A9C1882309F497C182308F
:1027300009F0A7C18091330481119AC180913504B9
:102740008F702FEF280F243008F09BC18093E90091
:102750002091EB0020FF8CC1933031F48091EB008D
:1027600080628093EB0084C19091EB009061909324
:10277000EB0021E030E001C0220F8A95EAF72093B8
:10278000EA001092EA008091EB008860EACF8111A4
:1027900078C1109133041F778091E3008078812BFA
:1027A0008093E3008091E800877F8093E8000E9497
:1027B00031038091E80080FFFCCF8091E3008068C6
:1027C0008093E30082E0111183E080932F0459C1CC
:1027D0008058823008F055C1209133043091340480
:1027E0002C3DE3E03E07A1F583E08A838AE28983FA
:1027F0004FB7F894DE01139620E03EE051E2E32F5C
:10280000F0E050935700E49120FF03C0E295EF7091
:102810003F5FEF708E2F90E0EA30C0F0C7968D9347
:102820009D932F5F243159F74FBF8091E800877F38
:102830008093E8006AE270E0CE0101960E94820374
:102840008091E8008B778093E8001BC1C096E7CFAA
:102850008091350490913604432F5527433051051C
:1028600009F44AC078F54130510509F485C08BE57B
:1028700090E0E9E6F4E04230510509F002C1209110
:10288000E800277F2093E800209137043091380436
:102890008217930708F49C0140E02115310509F0E7
:1028A00070C041116EC08091E80082FDC9CF809157
:1028B0002F04882329F2853019F28091E80083FFE4
:1028C000F2CFBECF4132510509F447C04232510523
:1028D00009F0D7C08330910508F0D3C0FC01EE0F9A
:1028E000FF1FEB59FE4F0190F081E02D8E599E4F56
:1028F000DC018C9190E01DC0332721303105E9F0D7
:102900002115310579F022303105F9F023303105F8
:1029100009F0B7C0E6EDF4E0E4918E2F90E0E6ED2B
:10292000F4E007C0E6E1F5E0E4918E2F90E0E6E107
:10293000F5E0009709F4A5C0A2CFEEEFF4E0E49132
:102940008E2F90E0EEEFF4E0F4CFE4EFF4E0E491CA
:102950008E2F90E0E4EFF4E0ECCF8330910508F0A7
:1029600090C0880F991FFC01E559FE4F0190F0813E
:10297000E02D89E090E083CF82E190E0E4ECF4E0A8
:102980007ECF80912F04882309F45ACF853009F433
:1029900057CF8091E80083FD53CF8091E80082FDFE
:1029A00082CF8091E80080FF78CF8091F20090E0A4
:1029B0002115310519F08830910550F041E0089754
:1029C00009F040E08091E8008E778093E80065CFC1
:1029D00044914093F1003196215031090196E8CF9E
:1029E000803809F04EC08091E800877F8093E8002E
:1029F000809130048093F10093CE811142C01091F8
:102A000033041230F0F58091E800877F8093E8006E
:102A1000109330040E943103112311F084E005C0AB
:102A20008091E30087FDFACF81E080932F0442E09C
:102A300061EC81E00E94500342E261EC84E00E947C
:102A4000500342E261EC82E00E94500342E260ECFB
:102A500083E00E94500380912F0413C080913304BF
:102A6000813079F481E0933009F080E080932E0486
:102A70001092E9008091E800877F8093E8000E942F
:102A800031038091E80083FF0AC08091E800877FCE
:102A90008093E8008091EB0080628093EB00AA961F
:102AA0000FB6F894DEBF0FBECDBFDF91CF911F915F
:102AB0000895CF92DF92EF92FF926B017C010E940A
:102AC000CA04B701A60188E090E0FF90EF90DF9084
:102AD000CF900C942131EF92FF920F931F93CF93DD
:102AE000DF9300D00F92CDB7DEB7182FF62E042F4C
:102AF000E22E8091060280FF28C0E82FE695F0E0E4
:102B0000E95AFE4F90819093FE018E7F823039F515
:102B10009E012F5F3F4F812F0E94D9044B81698115
:102B20008A810E94FD0D10930702F0920802009323
:102B30000902EE2051F06091060270910702809127
:102B40000802909109020E9459150F900F900F9062
:102B5000DF91CF911F910F91FF90EF9008959230E8
:102B600019F410910702DFCF9530E9F6FACFE6E0CD
:102B7000F2E0438121E1421B08F440E021E0628160
:102B800081810C946B15E6E0F2E0438121E1420F74
:102B900008F44FEF21E0628181810C946B15E6E02F
:102BA000F2E0628121E1621B08F460E021E04381F0
:102BB00081810C946B15E6E0F2E0628121E1620F05
:102BC00008F46FEF21E0438181810C946B15E6E0FE
:102BD000F2E0818121E04381628188500C946B1581
:102BE000E6E0F2E0818121E043816281885F0C941C
:102BF0006B1580910A02882319F0815080930A0294
:102C0000609106027091070280910802909109027A
:102C10000C94591580910A02833018F48F5F8093C9
:102C20000A02609106027091070280910802909159
:102C300009020C9459159091060290FF3DC09170C5
:102C4000811129C0926090930602662351F0609131
:102C500006027091070280910802909109020E9479
:102C6000591560910602669570E041E050E08EE0F3
:102C700091E00E94CE30892BA9F01092FF0181E0F3
:102C80008093FB0120E0409109026091080280914D
:102C900007020C946B158B3010F09461D4CF880F21
:102CA000982BD1CF81E08093FF010E94F103909394
:102CB000F9018093F801E3CF08958091060286958B
:102CC000815009F48AE061E00C941B1680910602A1
:102CD00086958F5F8B3008F081E061E00C941B16C5
:102CE0009091060290FF07C09695981720F09617CE
:102CF00010F40C94661661E00C941B16E6E0F2E00A
:102D000083E0808311828FEF8283838314826081CA
:102D10007181828193810C9459156AEE7EEF90E067
:102D200080E00E942D3160E082E090E00E940F314F
:102D300060E083E090E00E940F311092D40160E0E7
:102D400084E090E00E940F3160E082E290E00E9417
:102D50000F3160E085E090E00E940F3160E086E096
:102D600090E00E940F316FEF87E090E00E940F31FA
:102D700040E050E0BA0188E090E00E94213160E03C
:102D80008DE090E00E940F3140E050E0BA0188E110
:102D900090E00E94213160E087E190E00E940F31D5
:102DA00040E050E0BA018CE190E00E94213170E0F7
:102DB00060E080E290E00E942D3140E050E0BA01F6
:102DC00088E190E00E94213180E00E9405110E947C
:102DD000AA1140E050E0BA018FE090E00E9421315A
:102DE00040E050E0BA0183E190E00C9421319F92E1
:102DF000AF92BF92CF92DF92EF92FF920F931F9309
:102E0000CF93DF9300D000D0CDB7DEB77C01DC01DB
:102E100013964D915C91149711966C9111978C912A
:102E20000E944F04811179C061E0C7010E943A10ED
:102E30008C01F7018281811111C0D70112968C910A
:102E4000811149C00031FFE51F0709F4E8C00131D5
:102E50002FE5120709F0CBC782E0E2C080910001A4
:102E600090910101019649F365E6C62E63E0D62EE6
:102E7000B12CA12C9924939480910001909101018F
:102E80008A159B05D4F2F60186818823E9F08185B5
:102E900092850817190739F48091630390916403B0
:102EA0000817190789F0D6011F969C921F971C9648
:102EB0001C930E931B97C6010E94A809C601069693
:102EC0000E94690910923A04BFEFAB1ABB0AE6E10F
:102ED000CE0ED11CD1CF980122513F452031310572
:102EE00008F07BC78FEF93E00E94FB305EEED52E9B
:102EF000D00E01EF10E0882361F18091CF0187703F
:102F000061F0D70112968C91882339F08091E2010B
:102F100082FD03C082E00E94CF0A0F900F900F90B5
:102F20000F90DF91CF911F910F91FF90EF90DF9065
:102F3000CF90BF90AF909F9008950115F4E01F07C8
:102F4000E1F2C8010E94FB30811101C0DA940F5FE9
:102F50001F4FD110F2CF19821A821B821C82580196
:102F60002FEFA21AB20AC8010E94FB3089831A828D
:102F7000882319F2813009F046C0680132E0C30E9F
:102F8000D11CC5010E94FB30A82E8A83882309F436
:102F9000B4CFC6010E94FB30B82E8FEF8A0D83306C
:102FA00068F4680143E0C40ED11CBB82BB2021F051
:102FB000CE0101960E94C10E8601D1CF54E0A51228
:102FC000FBCF680184E0C80ED11CC80103960E94A3
:102FD000FB30BB2009F491CF882309F48ECF8150B8
:102FE000990B6FEF70E00E947F30AB2DA150BB0BAF
:102FF0008A0F9B1F019700F3EFE9FFE03197F1F78C
:1030000000C00000F7CFCE0101960E94C10E6501FD
:10301000D3CF81E00E94EB0A0E94B80A6ECF81E014
:103020000E94C30AF9CF82E0F5CF4FEFC416D10456
:1030300011F008F0E8C663E172E08C2D0E94B9112E
:10304000892B31F5C60166E170E00E947F308B5913
:103050009C4FDC0116968C91813009F066C08091FE
:10306000130290911402892B99F08091150290918E
:103070001602892B69F08091170290911802209115
:10308000190230911A02822B932B892B09F457C015
:1030900080910001909101018C159D0524F4D0923E
:1030A0000101C0920001D70112962C911297C6011E
:1030B00066E170E00E947F308B599C4F5C01FC01FF
:1030C000208B12969C918681992309F444C0128723
:1030D00001878F5F86830E94F103D5011E969C9322
:1030E0008E931D978091D30117968C93179780919B
:1030F0003A0490917102892B18968C931897ED9150
:10310000FC911197309761F054962D913C91C60136
:1031100066E170E00E947F30B90185599C4F0995A6
:1031200010936403009363036EC6823009F0B0CF3E
:103130008091170290911802892B09F4A9CFC6013A
:1031400066E170E00E947F308B599C4FFC01108A31
:103150000E94A8099DCF882309F455C68189882338
:1031600009F451C6C60166E170E00E947F308559BE
:103170009C4F0E94690947C680911B018160809322
:103180001B016FC680911B018E7F80931B010E94E3
:10319000C90967C680911B018F7E013E110531F080
:1031A000053E1105C9F480911B018F7D80931B01A1
:1031B00080911B0180FF64C6D70112968C91083262
:1031C000110528F50E31110508F074C00430110501
:1031D00080F5811151C654C6C8019056811540E250
:1031E000940720F0905E8115904110F780911B01AB
:1031F00082FF46C680915B0381FD42C628ED31E027
:1032000040E0B60190E080E00E94E30C39C609334B
:10321000110558F40D32110518F40B321105C9F6D9
:103220009091590392FDD5CF08C004361105C1F322
:10323000D0CF9091590394FDCCCF882309F4A1C03D
:10324000909171028091D301282F292B322F3D7F3D
:10325000B1F110929502109294023091590331FD10
:103260002EC0F80143E0F695E7954A95E1F7EE7137
:10327000FF27EE58FD4F98012F70332781E090E033
:1032800002C0880F991F2A95E2F7809590952081BA
:103290003181822393239183808360E0C8010E945F
:1032A000210C8091D3018D7F0E94E40882E00E946E
:1032B000CF0A23CE9091590393FD8BCFBECF38E038
:1032C000F701A8EDB1E001900D923A95E1F7109267
:1032D000DA011092DC011092DB01A0909402B09010
:1032E00095020A151B05B1F53091590335FF32C01F
:1032F00040911B0141FB992490F841FF02C036FF29
:1033000029C04091920250919302B601641B750B43
:10331000409156035091570364177507D8F491FFF5
:1033200008C080911B01806180931B0182E00E9494
:10333000FF088091710285FF08C080911B018062A7
:1033400080931B0180E20E94FF08692DC5010E9445
:10335000210CD3CD90911B0121FB91F990931B017E
:103360008D7F0E94E4081093950200939402D092FE
:103370009302C092920280911B01846080931B0192
:1033800095CF970140E0B601C8010E94E30CB5CD8E
:10339000053F4CE5140709F467C008F45FC0063F19
:1033A0008CE5180709F466C0D70112963C913323C7
:1033B00009F485C5109262030330BDE51B0708F0D0
:1033C00065C00A3FECE51E0730F4C80182509C45F9
:1033D000449708F060C00E9461109093E2018093CE
:1033E000E10100312CE5120709F47EC108F0FAC0B2
:1033F00008304CE5140709F465C108F0CCC004306E
:103400008CE5180709F450C108F0B2C00230ACE5F1
:103410001A0709F443C18091E101826003301C4521
:1034200009F43FC16091E1011091E20184E090E074
:103430000E940F31612F82E290E00E940F310E94C2
:103440007D125BCD07E225EE45EE68ED7CE533C5E8
:1034500006E221EE40EE63EF7CE52DC507E225EEA6
:1034600044EE64EF7CE527C506E221EE42EE65EF0F
:103470007CE521C507E225EE46EE66EF7CE51BC53F
:1034800008E221E045EE69ED7CE515C50136FDE574
:103490001F0709F4A0CF06315CE5150709F413C531
:1034A0008091710282720A3C4CE5140709F4DDC177
:1034B00008F06AC1053C9CE5190709F4C2C108F08F
:1034C0004DC1033CBCE51B0709F4AFC108F0B4C112
:1034D000023CFCE51F0709F481C10A35BDE51B0765
:1034E00009F4FAC108F0D6C10115FCE51F0709F47B
:1034F000E3C10E3D1C4509F4ECC1F70186819781BB
:10350000009709F4EDC10E944B07182F092FF7010E
:10351000D280C580C2943FE0C3228091CF018770E2
:10352000C1F0AD2CDD20B1F0892F807F803421F0F7
:1035300080E2810F883068F08091E20182FD09C04D
:1035400082E00E94CF0A8091CF018770AA24A394C1
:103550008111A12C902E92942FE09222FBE0F9157C
:1035600008F44BC2E92DF0E0EB59FE4C0C94B83056
:103570008091E10180610630ECE51E0709F491C0FD
:103580008091E101886007301C4508F48AC0809171
:10359000E101806286C08091E1018D7F0C302CE5D5
:1035A000120709F47EC070F48091E1018C600A304A
:1035B0004CE5140709F475C008F488C08091E10156
:1035C0008E7F6FC00E308CE5180709F485C080919E
:1035D000E1018B7F0F301C4508F463C08091E1014D
:1035E0008F7E5FC00C3FACE51A0709F479C068F51F
:1035F0000431ECE51E0709F48BC080F402312CE5A0
:10360000120709F475C08091E1018F7B03311C45DD
:1036100008F447C08091E101837F43C00A3F4CE535
:10362000140709F445C008F049C005311C4509F0EC
:10363000F9CE8091E10182FB992790F921E0922750
:1036400090FB82F990FB83F92CC001159DE51907C9
:1036500009F454C088F48091E20183600E3FBCE518
:103660001B0749F18091E2018D7F0F3F1C4518F146
:103670008091E2018C7F1FC00230FDE51F0709F435
:1036800056C008F44EC001361D4509F0CBCE9091CE
:10369000E101892F8F7E94FF806103C08091E10159
:1036A00081608093E101BECE8091E1018460F9CF19
:1036B0008091E20181608093E201B4CE8091E201C9
:1036C0008260F9CF8091E1018064EBCF0E947D128E
:1036D0008091E1018068E5CF8091E101877FE1CFB2
:1036E0008091E2018E7FE7CF8091E1018F7DD9CF7C
:1036F0000E947D128091E1018F77D3CF8091E2010A
:10370000982F909591708E7F892B90FB81F9D3CF64
:103710000E947D129091E101892F97FB87F98058D3
:10372000C0CF61E08EE090E00E940F317BCE60E080
:10373000F9CF80917C0181110FC089E2E6E7F1E0C9
:103740002CE731E09191891303C0DF0111971C929E
:103750002E173F07B9F7E4C385E3F0CF073C2CE50C
:10376000120709F478C008F471C0083C4CE514074E
:1037700009F476C0093C5CE5150709F0AECE47EBCD
:1037800055E163EC75E155C00F3C9CE5190709F460
:103790007EC090F40C3CBCE51B0709F470C008F433
:1037A00069C00D3CFCE51F0709F46EC00E3C2CE51A
:1037B000120709F4A2CB91CE063D3CE5130748F46D
:1037C0006AE085E0013D1C4508F097CB0E94701629
:1037D00094CB0D35100709F490CB7FCE8091060273
:1037E00080FF1BC08E7F809306026091060270915D
:1037F000070280910802909109020E9459151092C7
:10380000FF018FEF90E7A2E081509040A040E1F7E8
:1038100000C000000E949F0D70CB81608093060263
:1038200061E086950E941B1668CB4DE556E166E681
:1038300076E10E94C40461CB46E656E16DE576E18F
:10384000F8CF47EE55E160EF75E1F3CF40EF55E17A
:1038500067EE75E1EECF4FEC55E16BED75E1E9CF29
:103860004BED55E16FEC75E1E4CF43EC55E167EBCF
:1038700075E1DFCF49EF55E16AE076E1DACF4AE062
:1038800056E169EF75E1D5CF61E081E0CBCF64E02F
:1038900082E09CCF0B353DE5130701F10C351D454A
:1038A00009F02BCE8091E20182FB882780F991E01C
:1038B00089270E941D1121CE0E947D125FEF84E3B3
:1038C0009CE0515080409040E1F700C000000E9411
:1038D000B50C0E948D1611CB81E0EBCF80E0E9CFD3
:1038E000828100811181882369F0C8010E94C80F7C
:1038F000D82E682FC8010E94430AB8018D2D0E945E
:10390000AE0F01CEC8010E94170AD82EF6CF202F85
:103910002F70B22E802F807F19F0B29490EFB922D1
:10392000DD20A9F0BB2059F080E2810F883010F033
:10393000111107C08B2D0E9406090E942D09812FAD
:103940005AC080913A04B82AB0923A04F6CF812F37
:103950000E942F0BBB2009F450C080E2810F8830F9
:1039600010F0111104C08B2D0E94FF0803C08B2D95
:103970000E94F8080E942D0940C0302F3F70B32EDE
:10398000802F807F803219F0B29480EFB82211230B
:1039900021F1113009F4A4C0DD2009F4ADC0CC2020
:1039A00009F47DC020E0D7014C9111965C911197EC
:1039B00012966C91129713967C91139714968C9192
:1039C0000E94111080915B0381FDB9CFF7018581C1
:1039D00080FFB5CF8F70858362C08091E20182FF46
:1039E00040C0DD20C1F1BB2029F08B2D0E940609CB
:1039F0000E942D0980E00E94680BA92DA850BB0BE6
:103A0000149710F40E944304812F902F0E94780A8B
:103A10008111C4C110927E0110927D01AA20B1F0E3
:103A20008091CF0180FD12C0D70112961C9285951E
:103A3000859585950E94EB0AC7010E94F716809133
:103A4000CF018595859585950E94C30A60E0C701E1
:103A50000E943A1062CA80E00E942F0BBB2069F2DC
:103A600082CFDD2001F1C11004C08091D3018B29E8
:103A700017C041E0C41206C08091D3018B290E9477
:103A8000E408BBCF80915A03823078F3C812EDCF9F
:103A90000E94D9088091CC01B812B092CC018B2D34
:103AA0000E94280BAACFC11006C00E94D9088B2DF6
:103AB0000E94210BA2CF80915A0351E0C5120BC086
:103AC000823008F49ACF809171028B2109F495CF4E
:103AD0000E94E709EACF823040F38C11E6CF8DCF08
:103AE000DD2029F085E08C1508F487CFD8CF94E04D
:103AF0009C1508F482CFDBCFCC20C9F280915E0305
:103B000090915F03193321F080915C0390915D03E4
:103B10000E94D90C812F0E942F0B6FCF802F86958A
:103B20008695837069F0813009F067CF812F902FDF
:103B30009370D11002C090E080E00E9417045DCF26
:103B4000812F902F9370D11002C090E080E00E94EE
:103B50002D0453CF812FDD2029F00E9499060E9469
:103B600066054BCF0E948D05FACF802F837091F5AB
:103B7000D11043CF412F429546954770440F440FD3
:103B8000812F8F70042E01C0880F0A94EAF7212F2D
:103B9000207114FF07C02FE030E001C0220F4A95CA
:103BA000EAF72095302F369536953370323069F02C
:103BB00050F44091D401313029F0822B84230E94AB
:103BC0000C0B1BCF842B822BFACF282B8091D40196
:103BD0008227F5CF8695DD2011F0802F8170882314
:103BE00009F40BCF412F429546954770440F440F7F
:103BF000812F8F70042E01C0880F0A94EAF7212FBD
:103C0000207114FF07C02FE030E001C0220F4A9559
:103C1000EAF72095302F369536953370323069F0BB
:103C200050F440913904313029F0822B84230E94D2
:103C3000B40AE3CE842B822BFACF282B809139044F
:103C40008227F5CFF02FFF70BF2EDD2029F08F2FB8
:103C50000E94EB0A812F24CF812F0E94210B8B2DF4
:103C60000E94C30ACACE123F89F160F4103FB9F036
:103C7000113F81F0DD2009F48CC0C11060CE802F8F
:103C80008F7128C0133F49F1143FA1F78091E201E1
:103C900082FF2FC0802F8F71DD2011F31BC0DD202C
:103CA00081F024E02C1508F4A8CE202F2F7181E09C
:103CB00090E001C0880F2A95EAF79091390489278E
:103CC000B6CF35E03C1508F498CEEFCF802F8F713A
:103CD000D110C6CF0E94EB0A90CE80E0DD2009F41F
:103CE000A6CF81E0902F9F7101C0880F9A95EAF7C7
:103CF0009ECF80915A038230A0F18091CC01DD20CB
:103D0000F1F00E94FF088091CF018770843041F468
:103D10000E940C09802F8F710E94C30AA12C6DCEC6
:103D200080915A03C816D0F7402F4F71B42E842FBC
:103D30000E94EB0A63E08B2D0E94F60AEFCF0E94EF
:103D4000060980915A03C81640F00E940C090E948F
:103D5000E70964E0802F8F71EFCF81E00E94CF0AE6
:103D6000DDCFDD2059F0502F5F71B52E852F0E94D9
:103D7000EB0A63E08B2D0E94F60A3FCE81E00E94A1
:103D8000CF0A81E08C1508F038CE82E00E94CF0A7D
:103D900034CEC110B3CE802F8F7162CFDD2019F0E9
:103DA000C11038CE3BCEC11035CE20E0F7014081A6
:103DB00051816281738184810E94111080915B0323
:103DC00083FF28CE80917D0190917E01029709F0BA
:103DD00021CE812F0E94390E1DCE0031BFE51B0779
:103DE00009F417C90131EFE51E0709F41CC9680180
:103DF00027E5D21A882309F418C93FEFC316D10466
:103E000009F008F445C98091590380FF39C00E9428
:103E1000F1036C01D70112968C91882309F4BAC979
:103E200080911B0182FF08C028ED31E040E0B6011F
:103E300090E080E00E94E30C0B31BCE51B0709F425
:103E40009BC90C31ECE51E0709F49CC990911B013C
:103E5000892F8E7F90FF81600A31FCE51F0709F4EE
:103E600094C9C8019056811520E2920728F0905E0F
:103E70008115904108F09CC910929502109294020D
:103E8000033FBCE51B0709F4E3CA08F081CA083DFB
:103E9000FCE51F0709F4D6CA093D2CE5120709F411
:103EA000EFCA073D3CE5130709F07ECA06E221EEA2
:103EB00041EE67ED7CE5C7010E945A0E1EC806312F
:103EC0001C4509F01ACB80917102982F9A7A2091A3
:103ED000580320FF04C0482F447409F090E021FFEC
:103EE00004C0482F417109F090E022FF04C0482F20
:103EF000487809F090E023FF03C0827209F090E057
:103F0000332309F416CC81E0911101C080E0809345
:103F10007C0169E2911165E384E791E00E94FD0371
:103F20000E942D090C947D17CF92DF92EF92FF92A1
:103F30000F931F93CF93DF9380918701807F31F49C
:103F400080918401C091CB0181110BC0DF91CF9191
:103F50001F910F91FF90EF90DF90CF9008952196E1
:103F6000C77080918A018C1789F3F0908201E090EC
:103F70008301C0908501D0908601A6016E2D8F2D02
:103F80000E944F04D0E08111EACF8E0183E0000F40
:103F9000111F8A95E1F7F801E557FE4F81818E11D7
:103FA000DECF80818F11DBCF82818111D8CFE3807A
:103FB000F480EC18FD0860E082E891E00E943A107D
:103FC0008091560390915703E816F90640F68091C8
:103FD00087018F70806180938701F801E057FE4F61
:103FE00080818F708061808382E891E00E94F71663
:103FF000DF91CF911F910F91FF90EF90DF90CF90C5
:104000000C940D0A3F924F925F926F927F928F9223
:104010009F92AF92BF92CF92DF92EF92FF920F9357
:104020001F93CF93DF93CDB7DEB765970FB6F894A4
:10403000DEBF0FBECDBF8C0185E0F801DE015196D9
:1040400001900D928A95E1F7D8014C9011965C9001
:1040500011971296EC9012971396CD90DC9060E039
:1040600082E891E00E943A1082E8A82E81E0B82E02
:104070008090850190908601A401609183018091D8
:1040800082010E944F048111CAC1F0908401F6019F
:10409000E819F9094F0160E0FF2009F46DC1C5017D
:1040A0000E943A1060905603709057033090870139
:1040B0008614970408F013C1409185015091860140
:1040C000B0908201A0908301832D807F6A2D09F03A
:1040D000ADC08B2D0E944F04FE2C81113BC0D80136
:1040E00011968C9111978A1135C08C918B1132C029
:1040F000209188013091890116968D919C91281705
:10410000390741F5E11026C0832D8F7080618093BF
:10411000870182E891E00E94F71680918701F801FB
:1041200085838F2D65960FB6F894DEBF0FBECDBF89
:10413000DF91CF911F910F91FF90EF90DF90CF9083
:10414000BF90AF909F908F907F906F905F904F90B7
:104150003F900895F4EF6F16F1E07F0620F4809110
:104160005B0380FF21C0A601652D842D0E944F04B2
:10417000811118C081E08E2580FF16C04E2D652D5F
:10418000842D0E94ED09882379F082E891E00E9455
:10419000F71688E0E2E8F1E0DF011D928A95E9F781
:1041A000F12CBFCF80E0E8CFA601652D842D0E94C1
:1041B0004F04811124C081E08E25B82FB170CB2E21
:1041C00080FF2BC04E2D652D842D0E94ED09D82E29
:1041D000811123C0498A5A8A89899A890E94F70FD6
:1041E000292F22952F70223060F0243088F49F70A0
:1041F00061F0F8019581907F41F4FD2C92CF80E031
:10420000DCCF9F7011F08823C1F3805E8830A8F363
:10421000C8010E94F716DC2CF0CFEE2009F481CF04
:1042200080918701816080938701BACF8B2D0E9496
:104230004F04811124C0D80111968C9111978A11D5
:104240001EC08C918B111BC0209188013091890177
:1042500016968D919C9117972817390781F4E110D4
:104260000EC015963C92C8010E94F71688E0F8012E
:10427000A2E8B1E001900D928A95E1F752CFC80112
:104280000E940310882339F1EE2029F180918701E3
:104290008032A0F020918201309183013A872987F2
:1042A0001B86DD86CC868E8780918801909189015E
:1042B000988B8F87CE0109960E94F71688E0F80147
:1042C000A2E8B1E001900D928A95E1F70E94941F57
:1042D000FF24F39426CFC8010E94F716F9CF832D4F
:1042E000807F09F452CF90908201809083014091A9
:1042F000850150918601682D892D0E944F048111FE
:104300001CC0F8018181881118C08081891115C0F5
:10431000209188013091890186819781281739077A
:1043200061F4E1100AC03582C8010E94F71688E0E6
:10433000D5011D928A95E9F7F4CEC8010E940310B9
:10434000882349F2EE2039F280918701803208F407
:10435000B5CF20918201309183013A8329831B825A
:10436000DD82CC828E83809188019091890198872B
:104370008F83CE010196A0CF82E891E00E943A108F
:1043800080915603909157038816990680F6FE2C6B
:10439000EE2009F4A0CFE0908201D09083014091FB
:1043A0008501509186016D2D8E2D0E944F04811143
:1043B00028C0F80181818D1124C080818E1121C017
:1043C00020918801309189018681978128173907CA
:1043D000C1F480915B0382FD49CF9091870190FDEC
:1043E00045CF907F09F442CF809187018583903F2C
:1043F00009F439CF982F907F905F8F70892B858338
:1044000032CFC8010E940310811158CF80918701DB
:10441000816080938701C8010E94F71682CEEE204A
:1044200009F459CFC8010E940310F82E882309F41B
:1044300052CF88E0F801A2E8B1E001900D928A9590
:10444000E1F780918201909183010E94F70F0E9411
:10445000941F67CECF93DF93CDB7DEB760970FB6CB
:10446000F894DEBF0FBECDBF29873A874B875C87A4
:104470006D877E878F87988BCE0109960E940220D8
:1044800081112FC088E0FE013996DE01119601905E
:104490000D928A95E1F74C855D856A8589850E9434
:1044A0004F0481111EC0A0918A01B0E0CD01019698
:1044B000877099272091CB012817190609F133E05D
:1044C000AA0FBB1F3A95E1F7A557BE4F98E0FE0132
:1044D000319601900D929A95E1F780938A010E949E
:1044E0000D0A8091CB0190918A01891317C06096C3
:1044F0000FB6F894DEBF0FBECDBFDF91CF91089508
:104500000E947D1210928A011092CB0188E0E2E8AD
:10451000F1E0DF011D928A95E9F7E3CF90E023E017
:10452000880F991F2A95E1F785579E4F0E94022018
:104530008823E9F28091CB0190E00196877099275A
:104540008093CB01CECFFF920F931F93CF93DF9336
:104550008091990200919802811139C0DF91CF9129
:104560001F910F91FF900895FF24F394F00EF092A5
:10457000980210E0C8016CE070E00E947F30EC010E
:10458000C656DD4F4B815C81698188810E944F0452
:1045900081111CC08E819F81892B21F4888599858A
:1045A000019651F4288139814A815B816C817D813A
:1045B0008E819F810E942A22C8016CE070E00E94D7
:1045C0007F3086569D4FFC01148213820F2D8091FF
:1045D0009902081748F21092990210929802BECFE1
:1045E00010923D0310923C0310921C0180913B03FA
:1045F00080933A030E9485040C94A3224F925F9209
:104600007F928F929F92AF92BF92CF92DF92EF9262
:10461000FF920F931F93CF93DF93C0913A0301E072
:1046200010E08EEFA82E8824839480913B038C1396
:1046300013C00E94A322DF91CF911F910F91FF9091
:10464000EF90DF90CF90BF90AF909F908F907F9032
:104650005F904F900C9485044C2E512CF201EE0F7C
:10466000FF1FEE5CFC4F20813181C90167E070E0E3
:104670000E947F3086509D4FEC018C81811162C079
:1046800090909902AAE9B2E0F0E0E0E0B12CE915DF
:1046900008F055C01A96ED90FC901B97C90167E091
:1046A00070E00E947F3086509D4FEC01C880D98019
:1046B0004FEF5FEF712C872D90E0BC01660F771FE5
:1046C0006C0D7D1DEB01688179816115710531F0FB
:1046D000E616F70609F4AC017394EDCF4F3F54078B
:1046E000C9F1B80102C0660F771F4A95E2F7B62AF2
:1046F000E80102C0CC0FDD1F7A94E2F7CE010197EA
:10470000B816190619F5CF016CE070E00E947F30F1
:10471000FC01E656FD4FC90167E070E00E947F3062
:10472000DC01A650BD4F12968D919C9113979783F3
:104730008683A082A1823187208715968C92C90139
:104740000E945A04E2012196C3706FCF14961C9206
:104750001E92139731961C969ACFEF92FF920F9369
:104760001F93CF93DF93F894279A2F98789400C0E3
:10477000C9B1D0E0D595C795D595C795C095D095C9
:10478000C170DD271C2F0E94030720EA2A95F1F74C
:104790008091E30101E08C1301C000E08117D1F0AA
:1047A000C093E30181E08093D7010E94F1039093CD
:1047B000D6018093D5018091D5019091D6010E94B8
:1047C000E203059758F08091E3018093EA0110928B
:1047D000D70104C08091D7018111EDCF80910001F4
:1047E0009091010110E0019609F061C080911C01D7
:1047F000811167C08091590380FF1EC080911B0109
:1048000082FF1AC00E94F10320919202309193021C
:10481000AC01421B530B2091190130911A01421730
:10482000530750F028ED31E041E0BC018091940243
:10483000909195020E94E30C802FDF91CF911F9100
:104840000F91FF90EF900895CE0166E170E00E9415
:104850007F308B599C4FFC01E288F388E114F1040E
:1048600021F4E0905603F0905703CE0166E170E02A
:104870000E947F308B599C4FFC0186818823B1F0C8
:10488000858596850E94E203E816F90678F4CE0144
:1048900066E170E00E947F30EC018B599C4F0E94D2
:1048A000A809CE0185599C4F0E9469091F5FC12F3D
:1048B000D0E080910001909101018C179D0724F6B2
:1048C00095CF80913C0390913D03009709F492CFDE
:1048D0000E94E2032091960230919702281739072F
:1048E00008F088CF90913A0380913B03981759F0D4
:1048F0000E94FE22109297021092960210923D039F
:1049000010923C0377CF0E94A32210923D03109295
:104910003C030E9485046ECF2F923F924F925F928C
:104920006F927F928F929F92AF92BF92CF92DF92BF
:10493000EF92FF920F931F93CF93DF93CDB7DEB724
:1049400067970FB6F894DEBF0FBECDBF942F498B8B
:10495000252F5A8B6B8B7C8B8D8B4C895D89622FBD
:10496000892F0E944F04811109C080917D0190918F
:104970007E01019690937E0180937D018B89811148
:1049800010923A041D861E861F86188A85E0FE0155
:104990007196DE01199601900D928A95E1F780914A
:1049A000E20182FD1EC08091400390914103892B5A
:1049B000C1F00E94F1032091CD013091CE01821B04
:1049C000930B20914003309141038217930720F00D
:1049D0008091CF0182FFECC10E94130981110E94D6
:1049E000D9084C855D856A8589850E944F048111AF
:1049F00011C061E0CE0109960E943A107C018B85BE
:104A000037EFE3163CE5F30681F4882321F181E0DA
:104A100080931C0129853A854B855C856D857E8553
:104A20008F8598890E942A22C4C048EFE4164CE57D
:104A3000F40629F4882379F00E94F022EBCF69EF85
:104A4000E6166CE5F60639F4882329F080911C01FE
:104A50008111F2CFDCCF0AEF12E0412CD12CC12C16
:104A600088248394912CF80140815181AA24AA942E
:104A7000BA2C20E0822F90E0FC01EE0FFF1FE40F24
:104A8000F51F608171816115710531F0E616F70639
:104A900009F45C012F5FEECF512CFFEFAF16BF067C
:104AA00009F448C0F801448150901C01852D411142
:104AB00080E0F82FF1705F2EF801358086819B85AC
:104AC000992309F404C1552009F401C160905403ED
:104AD00070905503311012C0A40101C0440FAA9474
:104AE000EAF7842B8683809196029091970286152F
:104AF000970520F47092970260929602C40102C05A
:104B0000880F991F2A95E2F70197F8012681281747
:104B1000190681F480913C0390913D03009709F4BC
:104B200061C00E94E2036816790608F05BC031E0BC
:104B3000F80134834528FFEFCF1ADF0A095F1F4FC2
:104B400038E0C316D10409F08ECF8B85882309F491
:104B50001AC1442009F417C10E94F10390933D0348
:104B600080933C0380919902883018F591E0980F6A
:104B70009093990298E0FE013996DE01119601901A
:104B80000D929A95E1F790E06CE070E00E947F3022
:104B900086569D4F28E0FE013196DC0101900D9272
:104BA0002A95E1F72FEF3FEFFC0131872087F3864D
:104BB000E28667960FB6F894DEBF0FBECDBFDF91D9
:104BC000CF911F910F91FF90EF90DF90CF90BF900A
:104BD000AF909F908F907F906F905F904F903F909D
:104BE0002F90089520913A0340913B034F8B322F31
:104BF000F0E0E0E04F89241315C030933A03E0174A
:104C0000F10709F497CF30E0F901EE0FFF1FEE5CDA
:104C1000FC4FD182C0822F5F3F4F237033272093F8
:104C20003B0388CFA22FB0E0FD01EE0FFF1FEE5C2B
:104C3000FC4F8081918167E070E00E947F30865058
:104C40009D4FFC01608071801E8AB12CA12CEA2D41
:104C5000F0E0EE0FFF1FE60DF71D40815181411579
:104C60005105B9F0F80120803180B12C05C04617FC
:104C7000570709F45E8AB394EB2DF0E0EE0FFF1FA7
:104C8000E20DF31D608171816115710581F7A394B7
:104C9000DECFFE89FF23C1F0F801BA1408F0FC0151
:104CA00041E044830E171F0721F430933A035E88D6
:104CB00041CF321305C08E179F0711F43F5F337049
:104CC00011962A2F237096CFF0E0E0E0F9CF90E024
:104CD00031101FC0B40102C0660F771F2A95E2F79A
:104CE0009B01215031098217930731F4442309F4C1
:104CF00048C0C6010E945A04C40101C0880FAA948A
:104D0000EAF7982F9095F801868189238683532CA2
:104D100011CF9C010A2C02C0359527950A94E2F721
:104D2000A90141705527BC01615071098623972361
:104D3000892B19F5452B09F1F80182819381892B83
:104D4000C9F01B821C821D821E82FEEFF983FA834A
:104D50000E94F1038160582F9D838C83F80182812A
:104D600093818F83988729813A814B816D817E81E0
:104D70000E942A22F8011582BFCFF22FF1703F2E38
:104D8000BBCF352CB9CF90913A0380913B03981754
:104D900031F00E94FE22442009F43CCE0ACF0E944A
:104DA000A32210923D0310923C030E948504F3CF8E
:104DB00082E00E94CF0A10CECF93DF9300D000D0C4
:104DC0000F92CDB7DEB790936E0280936D0281157E
:104DD00020E2920748F40F900F900F900F900F90E1
:104DE000DF91CF910C94F20B8EEF89838A831B8223
:104DF0000E94F1038160782F9D838C8349815A81C1
:104E00006B818D810F900F900F900F900F90DF911D
:104E1000CF910C948C240F931F93CF93DF938C012D
:104E2000EB0163E172E08C2F0E94B911892BA1F490
:104E300080915C0390915D030E94D90CDD27C55FD2
:104E4000DD4F8881F80110821882833009F148F41F
:104E5000813059F0823081F0DF91CF911F910F9115
:104E600008958430D1F08530B9F780911302909184
:104E70001402009789F306C08091150290911602E2
:104E8000009799F3DF91CF911F910F910C94DC263D
:104E90008091170290911802F3CF8091190290919E
:104EA0001A02009779F72091130230911402809131
:104EB00015029091160221153105D9F2009711F7CC
:104EC000C901E0CFCF93DF9300D000D00F92CDB7D0
:104ED000DEB790936E0280936D02811520E29207F7
:104EE00048F40F900F900F900F900F90DF91CF919B
:104EF0000C940A0C8EEF89838A8381E08B830E9455
:104F0000F1038160782F9D838C8349815A816B8165
:104F10008D810F900F900F900F900F90DF91CF9198
:104F20000C948C24CF93DF93EC010E946227809134
:104F30005C0390915D030E94D90CCE01DF91CF916B
:104F40000C94DC260F931F93CF93DF938C01862F55
:104F500063E172E00E94B911892BC9F4C091130278
:104F6000D0911402209799F0F8018081833069F480
:104F7000CE010E949227CE010E949227CE01DF919E
:104F8000CF911F910F910C9492278430B8F7DF9145
:104F9000CF911F910F9108950F931F93CF93DF939C
:104FA0008C01EB0163E172E08C2F0E94B911892B17
:104FB00009F064C0FE01FF27D8018C91E55FFD4F29
:104FC0008130D9F419969C911997992311F0808317
:104FD0000CC01A969C919923D1F382E08083809132
:104FE0001502909116020097D9F4809113029091C6
:104FF0001402009709F442C013C08230E9F51996F3
:105000008C91199781112DC01A968C9181110EC027
:1050100083E080838091170290911802009719F124
:10502000DF91CF911F910F910C94622784E08083D0
:105030008091190290911A02009791F780911302C2
:10504000909114020097F9F00E9492278091150226
:1050500090911602009721F780911302909114020B
:10506000DFCF85E080838091130290911402009736
:1050700029F00E949227F0CF86E08083DF91CF91C4
:105080001F910F9108958091150290911602B1CF52
:1050900090E080E00E9409318A3E9E4F11F40C940A
:1050A000481080E008951F920F920FB60F921124BE
:1050B0002F933F934F935F936F937F938F939F9320
:1050C000AF93BF93CF93DF93EF93FF93D091E9001A
:1050D000DF708091EC00C82FC17080FDC0E8109295
:1050E000E9008091F000877F8093F00078940E941F
:1050F00088121092E9008091F00088608093F0009F
:10510000CD2BCF70C093E900FF91EF91DF91CF914C
:10511000BF91AF919F918F917F916F915F914F91CF
:105120003F912F910F900FBE0F901F9018951F92D7
:105130000F920FB60F9211242F933F934F935F93CB
:105140006F937F938F939F93AF93BF93EF93FF934F
:105150008091E10082FF09C08091E20082FF05C0DA
:105160008091E1008B7F8093E1008091E10080FFDE
:1051700017C08091E20080FF13C08091E2008E7F13
:105180008093E2008091E20080618093E200809150
:10519000D80080628093D80019BC85E080932F04EA
:1051A0008091E10084FF2BC08091E20084FF27C042
:1051B00084E089BD86E089BD89B5982F917080FF14
:1051C000FBCF8091D8008F7D8093D8008091E10043
:1051D0008F7E8093E1008091E2008F7E8093E200D9
:1051E0008091E20081608093E20080913004882306
:1051F00009F441C084E080932F0480912F048091B2
:10520000E10083FF27C08091E20083FF23C08091EB
:10521000E100877F8093E10082E080932F04109269
:1052200030048091E1008E7F8093E1008091E20064
:105230008E7F8093E2008091E20080618093E200A3
:1052400042E060E080E00E9450038091F0008860BE
:105250008093F000FF91EF91BF91AF919F918F915B
:105260007F916F915F914F913F912F910F900FBE62
:105270000F901F9018958091E30087FD93E0909325
:105280002F04BBCF78941F921FB61F9211248F93C7
:105290009F93AF93BF9380911C0490911D04A091A4
:1052A0001E04B0911F040196A11DB11D80931C0422
:1052B00090931D04A0931E04B0931F04BF91AF915F
:1052C0009F918F911F901FBE1F9018951F921FB620
:1052D0001F9211248F939F93AF93BF9380911B04D0
:1052E000811113C080911C0490911D04A0911E0493
:1052F000B0911F044196A11DB11D80931C04909391
:105300001D04A0931E04B0931F04BF91AF919F9101
:105310008F911F901FBE1F901895CDB7DEB7E497F1
:105320000FB6F894DEBF0FBECDBF84B7877F84BFB2
:105330000FB6F894A8958091600088618093600012
:10534000109260000FBE80E890E00FB6F894809352
:105350006100909361000FBE81E097E0909373012C
:10536000809372010E94CF110E9425120E94660F45
:105370001092E2001092E1008091E0008160809341
:10538000E0008091D8008F778093D80019BC80917D
:1053900063008160809363001092E001809163005C
:1053A0008E7F8093630081E08093E0011092E200A1
:1053B0001092E1008091D8008F778093D80080917F
:1053C000D80080688093D8008091D8008F7D80932A
:1053D000D80084E089BD86E089BD89B5282F217079
:1053E000922E80FFFACF10922F0410923004109268
:1053F0002E0410922D0442E060E080E00E945003F1
:105400008091E1008E7F8093E1008091E2008160D5
:105410008093E2008091E20088608093E2008091B6
:10542000E0008E7F8093E0008091E20084608093B2
:10543000E200789480912F048823A1F01091E90074
:105440001F709091EC00892F817090FD80E8182BDF
:105450001092E9008091E80083FD0E9488121F707D
:105460001093E90082E084BD93E095BD9AEF97BD6B
:1054700080936E000E944810811102C00E94AA1100
:105480000E940307F89452985A9A78941092EA016D
:105490001092E3010E944828811102C00E948D16DB
:1054A00082E090E00E94FB308093E6010E94611050
:1054B0009093E2018093E1010E94AD238FE39CE988
:1054C0000197F1F700C000000E94AD238091EA012E
:1054D00080FF08C06FEF7FEF90E080E00E942D31E9
:1054E0000E94B50C83E090E00E94FB300E940C0B00
:1054F0008091E401811133C00E944828811104C0C9
:105500000E948D160E947E1688E090E00E94033172
:105510006093060270930702809308029093090239
:105520006E7F71F40E947E1688E090E00E94033145
:105530006093060270930702809308029093090219
:105540000E94CA041092FF018091060280FF04C0ED
:1055500060E086950E941B1681E08093E40182E062
:1055600091E09093180480931704E8E14E2E512C9B
:10557000F0E42F2EA4E03A2EB4E08B2EDE0111963B
:105580007D016E01B3E0CB0ED11C80912F0416E09B
:10559000853009F457C00E94AD23882359F08FB796
:1055A000F89440911C0450911D0460911E04709168
:1055B0001F048FBF8091EA019091E701292F2827CE
:1055C00098134AC08FEF88AB89AB1AAA0E94F103E7
:1055D0008160782F9CAB8BAB48A959A96AA98CA98B
:1055E0000E948C2451C080912F04843009F11092C4
:1055F0001B040FB6F894A895409260000FBE20924D
:10560000600083B7817F846083BF83B7816083BF7D
:105610007894889583B78E7F83BF0FB6F894A8954A
:1056200080916000886180936000109260000FBEDE
:1056300080912E04882331F00E94AD238091EA01ED
:105640008111FDC480912F04853009F4CCCF0E94D4
:105650007D120E9443049FCF20FFB4CF1BA61CA63F
:1056600081708DA70E94F1038160782F9FA78EA77C
:105670004BA55CA56DA58FA50E948C248091E701A8
:1056800091E089278093E7018091FF018823D1F180
:105690008091FE01E0910602E695E81BE093FA0195
:1056A000823009F0D0C0F0E0E65FFD4FE4910E2FAC
:1056B00010E070E1A72E7EE0B72E8091FB018823D9
:1056C00061F01092FB010E94F1039093F901809325
:1056D000F8011092FD011092FC010E94F103E0918B
:1056E000F801F091F9018E1B9F0B8F3F9F4750F4FB
:1056F0000E0F1F1F1093F9010093F80188EF91E03E
:10570000F501099586E0E2EFF1E0D70101900D92F5
:105710008A95E1F7A090F401B090F5010091F601AF
:105720001091F7011092F4011092F5011092F60118
:105730001092F7018A2D8B2991F08091F0019091C0
:10574000F1010E94E203FC012091EC01222309F403
:105750008FC0809117018E171F0608F498C0802F04
:10576000812B91F08091EE019091EF010E94E20374
:10577000FC012091EB01222309F4CCC0809113019C
:105780008E171F0608F4D5C08091F4019091F501A1
:10579000892B9091F601892B9091F701892B11F0BB
:1057A0000E94660586E0F701A2EFB1E001900D923C
:1057B0008A95E1F70E9443049091E501891721F051
:1057C0000E9443048093E50180912F04843009F006
:1057D000DCCE83E08093E9008091E80082FFD5CEA3
:1057E0008091E80090E085FF0AC00E94D60240E266
:1057F000A42EB12C8701882309F4E8C091E08091A0
:10580000E8008B778093E800992309F4BECE0091DD
:105810006F021091700289810115110509F4E4C02D
:105820008E3F09F06FC18A81833020F0855083302C
:1058300008F068C1EA81EE3008F064C1F0E0EF588A
:10584000FE4C0C94B83000ED17E059ECA52E54E056
:10585000B52E853009F031CFE695F0E0E95FFD4FD8
:10586000E4910E2F10E066EDA62E6DE0B62E25CF4A
:105870008091180190E06AE070E00E947F308E17FE
:105880009F0708F06CCF2F5F2093EC0102C02F3FE1
:10589000D1F7AA2051F00E944B066FEF1A140CF4B6
:1058A000692D0E9476308093F401BB2051F00E9454
:1058B0004B066FEF1B140CF4692D0E947630809319
:1058C000F5018091F401882309F449CF2091F50175
:1058D000222309F444CF082E000C990B65EB70E0ED
:1058E0000E947F30992371F09093F401822F220F50
:1058F000990B65EB70E00E947F30992339F090930B
:10590000F5012DCF81E08093F401F0CF81E0809309
:10591000F50125CF8091140190E06AE070E00E94CB
:105920007F308E179F0708F02FCF2F5F2093EB015A
:1059300002C02F3FD1F7002351F00E9410066FEFF5
:1059400010160CF4692D0E9476308093F601112315
:1059500051F00E9410066FEF11160CF4692D0E9491
:1059600076308093F7018091F601882309F40CCFFB
:105970002091F701222309F407CF082E000C990B80
:1059800065EB70E00E947F30992371F09093F601EF
:10599000822F220F990B65EB70E00E947F309923D4
:1059A00039F09093F701F0CE81E08093F601F0CFCB
:1059B00081E08093F701E8CE8091F100D8018D93CA
:1059C0008D01B1E0AB1AB10809F418CF8091E8005D
:1059D00085FDF2CF8091E8008B778093E8000E94EC
:1059E000D602882399F30ACF893009F43AC120F509
:1059F000843009F4C5C050F4823009F469C008F05D
:105A0000B0C0813009F460C08FEF45C3863009F41F
:105A1000CDC008F4C0C0873009F4CBC08830A1F7EE
:105A20008A81813809F412C108F004C1803809F074
:105A300069C0809109024AC0803109F44AC1C0F5A9
:105A40008D3009F419C128F48C30F1F680E18A8395
:105A500059C08E3009F414C18F30B1F680910F0116
:105A600090911001892B09F44DC0AC80B12C4DE10F
:105A7000A416B10408F046C00A811B811027012733
:105A800010273701A00EB11EC8018F509F4F0A1575
:105A90001B05C1F10F30A3E01A0720F4F301648164
:105AA0000E940F31FFEF6F1A7F0A0F5F1F4FECCF7D
:105AB000823109F413C108F40FC1833109F435C1EF
:105AC0008E3F09F0A1CFB6CE1A8289E08B831AC02F
:105AD0008A81823009F401C38330D1F1813009F029
