:100000000C94AF010C94F6010C94F6010C94F601DB
:100010000C94F6010C94F6010C94F6010C94F60184
:100020000C94F6010C94F6010C94F6010C94E52462
:100030000C9496250C9456200C94F6010C94F60121
:100040000C94F6010C94F6010C94F6010C94AD207E
:100050000C94F6010C94F6010C94F6010C94F60144
:100060000C94F6010C94F6010C94F6010C94F60134
:100070000C94F6012D002E00635D000000000000CE
:1000800000002A2B280000000000000000000000F3
:10009000000000000029000000002C1E3420212256
:1000A00024342627252E362D3738271E1F202122BF
:1000B000232425263333362E37381F040506070838
:1000C000090A0B0C0D0E0F10111213141516171828
:1000D000191A1B1C1D2F3130232D35040506070866
:1000E000090A0B0C0D0E0F10111213141516171808
:1000F000191A1B1C1D2F3130354C00000000000068
:1001000000000000000000000000000000000000EF
:1001100000000000000000000000000000007E0F52
:1001200000D4FFFFFFC700000078643214783C1E43
:1001300000010101010101010101020202020202AA
:10014000020202030303030303030304040404047D
:100150000404050505050506060606060707070744
:100160000708080808090909090A0A0A0B0B0B0CF9
:100170000C0C0D0D0D0E0E0E0F0F0F101011111196
:100180001212131314141515161617171818191917
:100190001A1A1B1B1C1D1D1E1E1F2020212222237C
:1001A0002424252626272829292A2B2C2D2D2E2FBD
:1001B00030313232333435363738393A3B3C3D3ED4
:1001C0003F404142434445464748494A4C4D4E4FC3
:1001D00050515354555658595A5B5D5E5F61626485
:1001E000656668696B6C6D6F7072737577787A7B12
:1001F0007D7E8082838587888A8C8E8F9193959669
:10020000989A9C9EA0A2A3A5A7A9ABADAFB1B3B588
:10021000B7BABCBEC0C2C4C6C9CBCDCFD1D4D6D864
:10022000DBDDDFE2E4E7E9EBEEF0F3F5F8FAFDFF02
:1002300008034400310050000000160350004C0039
:1002400049005000200057006F0072006B007300DF
:1002500000000403090409023B00020100A0320966
:1002600004000001030101000921110100012240E5
:10027000000705810308000A0904010001030000CA
:1002800000092111010001227B00070582032000E3
:100290000A1201000200000008575001000000018E
:1002A00002000105010902A10185020901A1000561
:1002B0000919012908150025019508750181020514
:1002C00001093009311581257F95027508810609DC
:1002D000381581257F950175088106050C0A3802BD
:1002E0001581257F950175088106C0C0050109802B
:1002F000A101850319012AB700150126B700950150
:1003000075108100C0050C0901A101850419012A9D
:10031000A002150126A002950175108100C00501FB
:100320000906A101050719E029E71500250195082F
:10033000750181029501750881010507190029FFE2
:10034000150026FF0095067508810005081901298A
:1003500005950575019102950175039101C0112460
:100360001FBECFEFD4E0DEBFCDBF04B603FE27C073
:1003700080913F0390914003A0914103B0914203CB
:100380008730904BA740B04BD1F410923F031092AE
:100390004003109241031092420314BE84B7877F3A
:1003A00084BF0FB6F894A89580916000886180930F
:1003B0006000109260000FBEE0E0F8E3099512E0E3
:1003C000A0E0B1E0E4E5F0E502C005900D92A837A9
:1003D000B107D9F723E0A8E7B2E001C01D92AF331F
:1003E000B207E1F70E9450160C9400280C9400000C
:1003F00083369D4591F4FB018281882381F081E061
:1004000080938F020E94862090938E0280938D02AB
:10041000809182028F5F8093820281E00895109222
:100420008F0281E080938C0280917F028823A9F063
:100430006DE371E083E892E00E94B127109282029E
:1004400010927F028091090190910A01009781F03A
:10045000019739F46CE371E00DC08091820289301C
:1004600088F38FEF9FEF90930A0180930901D5CF16
:1004700062EA71E083E892E00E949D27F2CFCF9379
:10048000DF93EC016FE571E00E94A827892B29F426
:1004900084E0DF91CF910C9414096EE771E0CE01F6
:1004A0000E94A827892B11F485E0F3CF63E671E061
:1004B000CE010E94A827892B11F486E0EACF64E3DD
:1004C00071E0CE010E94A827892B11F487E0E1CFCB
:1004D00062EA71E0CE010E94A827892B11F488E01E
:1004E000D8CF68E971E0CE010E94A827892B11F4CA
:1004F00089E0CFCF60EA71E0CE010E94A827892B66
:1005000011F48AE0C6CF6DEA71E0CE010E94A827FF
:10051000892B11F48BE0BDCF65E371E0CE010E9421
:10052000A827892B11F48CE0B4CF6BE471E0CE01E5
:100530000E94A827892B11F48DE0ABCF6EE571E006
:10054000CE010E94A827892B11F48EE0A2CF6FEC78
:1005500071E0CE010E94A827892B11F48FE099CF7A
:100560006BE371E0CE010E94A827892B11F480E192
:1005700090CF61EA71E0CE010E94A827892B11F487
:1005800081E187CF6AE371E0CE010E94A827892B21
:1005900011F482E17ECF65E471E0CE010E94A827CC
:1005A000892B11F483E175CF6DE571E0CE010E94D6
:1005B000A827892B11F484E16CCF64E671E0CE01A9
:1005C0000E94A827892B11F485E163CF6FE771E0C2
:1005D000CE010E94A827892B11F486E15ACF6CE343
:1005E00071E0CE010E94A827892B11F487E151CF39
:1005F0006AE671E0CE010E94A827892B11F488E1F8
:1006000048CF6FE371E0CE010E94A827892B11F437
:1006100089E13FCF68E571E0CE010E94A827892BD0
:1006200011F48AE136CF69E671E0CE010E94A82775
:10063000892B11F48BE12DCF67E571E0CE010E948B
:10064000A827892B11F48CE124CF63E371E0CE015C
:100650000E94A827892B11F48DE11BCF66E271E07F
:10066000CE010E94A827892B11F48EE112CF6CE2F3
:1006700071E0CE010E94A827892B11F48FE109CFE8
:1006800068EC71E0CE010E94A827892B11F480E26A
:1006900000CF60EE71E0CE010E94A827892B11F4F3
:1006A00081E2F7CE65EA71E0CE010E94A827892B8E
:1006B00011F482E2EECE6CEA71E0CE010E94A8272E
:1006C000892B11F483E2E5CE6DE771E0CE010E9443
:1006D000A827892B11F484E2DCCE62E371E0CE011D
:1006E0000E94A827892B11F485E2D3CE6EE971E030
:1006F000CE010E94A827892B11F486E2CACE68E3B6
:1007000071E0CE010E94A827892B11F487E2C1CEA7
:100710006EE371E0CE010E94A827892B11F48EE2CE
:10072000B8CE64E471E0CE010E94A827892B59F469
:1007300081EE0E9480088EE20E94140981EEDF9112
:10074000CF910C94CE086AE471E0CE010E94A827F4
:10075000892B11F48DE29DCE60E571E0CE010E94FF
:10076000A827892B29F481EE0E94800885E2E4CF36
:1007700060EF71E0CE010E94A827892B11F488E375
:1007800088CE66E571E0CE010E94A827892B11F47E
:1007900081E37FCE6CE571E0CE010E94A827892B12
:1007A00029F481EE0E94800881E3C6CF6AE871E0F7
:1007B000CE010E94A827892B29F481EE0E9480088F
:1007C00086E2BACF6EEF71E0CE010E94A827892B96
:1007D00029F481EE0E94800887E2AECF62E671E0E4
:1007E000CE010E94A827892B29F481EE0E9480085F
:1007F0008FE2A2CF68E671E0CE010E94A827892B84
:1008000029F481EE0E94800880E396CF67E971E0C9
:10081000CE010E94A827892B11F48FE23ACE66E719
:1008200071E0CE010E94A827892B11F480E331CE1C
:100830006EE671E0CE010E94A827892B11F487E3B0
:1008400028CE65E771E0CE010E94A827892B11F41C
:1008500086E31FCE6CE771E0CE010E94A827892BAA
:1008600029F481EE0E94800883E366CF63E871E09B
:10087000CE010E94A827892B11F483E30ACE69E8F0
:1008800071E0CE010E94A827892B29F481EE0E94F5
:10089000800888E351CF60E971E0CE010E94A8276B
:1008A000892B29F481EE0E9480088EE145CF66E90C
:1008B00071E0CE010E94A827892B29F481EE0E94C5
:1008C000800884E339CF6DE971E0CE010E94A8274A
:1008D000892B11F484E3DDCD6AEB71E0CE010E9437
:1008E000A827892B11F482E5D4CD63EB71E0CE010A
:1008F0000E94A827892B11F480E5CBCD67EF71E02A
:10090000CE010E94A827892B11F481E5C2CD61ECAC
:1009100071E0CE010E94A827892B11F48FE4B9CD94
:1009200064EA71E0CE010E94A827892B41F480EE91
:100930000E94800886E00E94140980EE00CF6BEAD6
:1009400071E0CE010E94A827892B29F480EE0E9435
:1009500080088BE1F0CF62EB71E0CE010E94A82706
:10096000892B29F480EE0E94800889E1E4CF69EBAD
:1009700071E0CE010E94A827892B29F480EE0E9405
:1009800080088DE1D8CF60EC71E0CE010E94A827ED
:10099000892B29F480EE0E9480088CE1CCCF6FED8A
:1009A00071E0CE010E94A827892B29F480EE0E94D5
:1009B000800886E1C0CF60E771E0CE010E94A827E1
:1009C000892B11F489E265CD6FE971E0CE010E94B7
:1009D000A827892B11F48CE25CCD69E371E0CE018C
:1009E0000E94A827892B11F48AE253CD65E072E0BA
:1009F000CE010E94A827892B11F488E24ACD67EC2A
:100A000071E0CE010E94A827892B11F48CE441CD1E
:100A100067E771E0CE010E94A827892BA1F480919D
:100A20007C02882361F085EE0E94CE0880917C02D2
:100A300091E0892780937C02DF91CF91089585EE24
:100A40000E948008F3CF6EEC71E0CE010E94A827CF
:100A5000892B91F480917B02882351F084EE0E94CF
:100A6000CE0880917B0291E0892780937B02E4CFBE
:100A700084EE0E948008F5CF6FE671E0CE010E94FF
:100A8000A827892B91F480917A02882351F086EE71
:100A90000E94CE0880917A0291E0892780937A02A1
:100AA000CBCF86EE0E948008F5CF64ED71E0CE01D9
:100AB0000E94A827892BA9F48AEF90E0909308015F
:100AC00080930701909306018093050128EE33E09F
:100AD000309304012093030190930201809301015C
:100AE000ABCF6DED71E0CE010E94A827892B99F460
:100AF00086E990E090930801809307018AEF90E0E7
:100B00009093060180930501909304018093030163
:100B10008DE790E0E1CF66EE71E0CE010E94A8275C
:100B2000892B39F48091000191E08927809300019D
:100B300083CF6FEE71E0CE010E94A827892B21F4AC
:100B4000DF91CF910C94D91B66EF71E0CE010E942A
:100B5000A827892B59F40E94C119843029F48AE00E
:100B6000DF91CF910C94CE1B84E0FACF6DEF71E052
:100B7000CE010E94A827892B21F4DF91CF910C94FC
:100B8000F91A64E072E0CE010E94A827892B21F4B3
:100B9000DF91CF910C94081B80E07BCCCF93DF9347
:100BA00080918F02882309F493C080918D029091E7
:100BB0008E020E949E204091090150910A012091CD
:100BC0000701309108018217930708F041C0109285
:100BD0000A01109209018091090190910A0184177C
:100BE000950791F08130910509F445C08230910557
:100BF00009F44BC0892B41F480910001882321F036
:100C000086E790E00E942A080E9486209093810245
:100C10008093800280917F028823B9F080917D02C9
:100C200090917E020E949E2020910101309102014C
:100C30002817390750F483E892E00E943F020E948F
:100C4000862090937E0280937D02DF91CF9108955C
:100C50006091050170910601260F371F82179307D7
:100C600038F481E090E090930A0180930901B3CFBA
:100C700082E090E0F8CF80910001882329F28AE297
:100C80000E94140984E790E0BDCF8091000181119A
:100C90000AC081E080937F020E94862090937E02AA
:100CA00080937D02B1CF8AE20E9414098091820272
:100CB000815080938202D0E0C0E0809182028C1744
:100CC0001D0639F334F38AE20E9414092196F5CF08
:100CD00080918C02882309F4B8CF80918002909192
:100CE00081020E949E202091030130910401281767
:100CF000390708F0AACF8091000181111EC08091B0
:100D00008202893020F483E892E00E943F026DE382
:100D100071E083E892E00E94B12710928202109263
:100D20008C0293CF8AE20E9414092196809182025C
:100D30008C171D0609F0B4F7E2CFD0E0C0E0F6CF83
:100D400081E008950C94F80108950C94A4061F9373
:100D5000CF93DF9300D000D00F92CDB7DEB7498399
:100D60005A836B833091900289819A8131111DC021
:100D70006623B9F02223A9F00E94450D182F682F91
:100D800089819A810E94EC0C69817A81812F0F9070
:100D90000F900F900F900F90DF91CF911F910C94B7
:100DA00054130E941E0D182FEFCF0E94450D69812C
:100DB0007A81EDCFFC01262F4081518162817381C0
:100DC00084810C94A70681E00895CF93DF93EC0112
:100DD00060E00E94DA06BE01DF91CF910C94A50677
:100DE0000E947C150E9434080C94A1150C94A31544
:100DF00008950E94950B0E94F8062FEF84E39CE073
:100E0000215080409040E1F700C000000C94D120B8
:100E10000F931F93CF93DF938C0161E00E94DA065A
:100E2000EC01B8010E94A2068823D9F1B801CE01D5
:100E30000E94C01D8823A9F1B801CE010E94121E94
:100E4000882379F1B801CE010E94351F882349F12A
:100E5000B801CE010E94891C882319F1F801828112
:100E6000882361F0CB35FDE5DF0721F170F4C11572
:100E7000ECE5DE07A1F0CF3DDC45C9F0C801DF910C
:100E8000CF911F910F910C94A006CC358DE5D8071A
:100E9000A1F0CD35DD4591F70E942C11EFCF0E94D6
:100EA000F90680E0DF91CF911F910F9108950E9484
:100EB000A312F7CF0E943511E1CF0E943811DECF87
:100EC000DF92EF92FF920F931F93CF93DF93E82F60
:100ED000F0E0E658FF4FD490282F269526952695CA
:100EE00030E0F901E65EFE4F0491877010E0082EB5
:100EF00002C0159507950A94E2F701701127F901D0
:100F0000E65FFE4FE490F12C082E02C0F594E794C2
:100F10000A94E2F791E0E922FF24F901E650FF4F3D
:100F2000C491D0E002C0D595C7958A95E2F7C1700B
:100F3000DD270115110519F081EE0E948008E114EA
:100F4000F10419F086EE0E9480088D2D0E9414098C
:100F5000EF2819F086EE0E94CE08012B19F081EEE1
:100F60000E94CE08CD2B51F08CE2DF91CF911F91E2
:100F70000F91FF90EF90DF900C941409DF91CF91C7
:100F80001F910F91FF90EF90DF900895FF920F93C4
:100F90001F93CF93DF938C01F62EF8018491882361
:100FA00009F452C0813009F04BC0E8012196FE01DE
:100FB0008491813091F42196FE0184910E9414095C
:100FC0008E010F5F1F4F8F2D815038F3EFE9FFE047
:100FD0003197F1F700C00000F7CF823039F4E80113
:100FE0002296FE0184910E948008EACF833039F472
:100FF000E8012296FE0184910E94CE08E1CF843060
:10100000F9F6E8012296FE01249190E080E0FE01CD
:1010100031962053330B2A30310548F0019780F286
:10102000EFE9FFE03197F1F700C00000F7CF6AE089
:1010300070E00E945127820F931F2491EF01E7CFA8
:101040000E946007E801BCCFDF91CF911F910F9103
:10105000FF90089560E00C94C60708950C942D0845
:1010600081E008950C9430080895CF93C82F0E9412
:101070002E088C2FCF910C943208CF93DF93CDB7ED
:10108000DEB72B970FB6F894DEBF0FBECDBF4F83F0
:10109000588769877A878B8761110E945B111E824E
:1010A0001D8285E0FE013796DE01119601900D92BA
:1010B0008A95E1F78C819D81892B89F449815A8138
:1010C0006B817C818D819E810E9457102B960FB67B
:1010D000F894DEBF0FBECDBFDF91CF910895898117
:1010E0009A8189238F3F51F3CE0101960E94E30636
:1010F0008111E4CFEBCFFC01808191810C94870DAD
:10110000CF93C82F882309F447C08CEF8C0F813A06
:10111000A0F46C2F80910B0190910C010E94C71FCD
:10112000882329F08C2F0E94FC100E948B118C2F99
:101130000E94F510CF910C948B1180E28C0F8830B7
:1011400048F4C77081E001C0880FCA95EAF70E9491
:101150003E11F0CFEBE5EC0FE33040F4F0E0E75C5C
:10116000FD4F808190E0CF910C94891FE8E5EC0F52
:10117000E73150F4F0E0EE0FFF1FE55FFD4F808197
:101180009181CF910C949F1FCD3E30F08C2F0E9407
:10119000E216CF910C94B517CF910895882361F191
:1011A0009CEF980F913A20F40E94FC100C948B1144
:1011B00090E2980F983050F4877091E001C0990F39
:1011C0008A95EAF7892F0E944411F0CF9BE5980F8A
:1011D000933020F490E080E00C94891F98E5980FFC
:1011E000973120F490E080E00C949F1F8D3E20F01A
:1011F0000E943C170C94B51708951F93CF93DF936B
:10120000182FEB010E948008209731F4812FDF9185
:10121000CF911F910C94CE088FE99FE00197F1F7D1
:1012200000C000002197F0CF70E060E0893311F436
:1012300060E570E00C94FD08882321F00E943E11C7
:101240000C948B110895882321F00E9444110C9472
:101250008B110895BF92CF92DF92EF92FF920F937E
:101260001F93CF93DF936C01D62FC72FFC01128100
:10127000058102950F700E941311E82E8823A1F0BA
:10128000E12E112389F08C2F807F803429F080E2B9
:101290008D0FE12C883040F082E00E94DC110E942A
:1012A000131191E0E82EE926BC2EB2949FE0B922FA
:1012B000EB2DF0E0EE5FF74D0C948A270C2F0F70AA
:1012C000C07F11F00295007F1123A9F0002359F08F
:1012D00080E28D0F883010F0D11109C0802F0E945C
:1012E0003E110E948B118D2F0E94800814C0802F08
:1012F0000E944E11F6CF8D2F0E94CE08002359F088
:1013000080E28D0F883010F0D1112CC0802F0E9408
:1013100044110E948B112B2D2850330B24303105A2
:1013200020F40E94641F0E943508EE2009F49EC13B
:101330000E940F1180FD9AC1F60112820E940911CC
:101340000E94500CC6010E94570B0E940911DF91A8
:10135000CF911F910F91FF90EF90DF90CF90BF90B2
:101360000C94710C802F0E945411D3CFFC2FFF706E
:10137000FF2EC07FC03219F0F29480EFF822DD23F7
:1013800069F0D13049F1112391F1002351F1F601B7
:10139000858180FFA8CF8F70858323C0112381F0C2
:1013A000011106C00E946E118F290E941C09B3CF43
:1013B0000130C1F70E946E118F290E947411ABCFCA
:1013C000011106C00E9481118F2D0E942309A3CF15
:1013D000013009F4A0CFF6CF112329F0063008F030
:1013E0009ACF8F2DE2CF053008F095CFEDCF0023B7
:1013F00059F3D93349F4FFEF27EE33E0F1502040A1
:101400003040E1F700C000008D2F0E94CE0883CF4E
:101410008C2F86958695837069F0813009F07BCF9B
:101420008D2F9C2F9370111102C090E080E00E94DC
:101430009F1F71CF8D2F9C2F9370111102C090E0D0
:1014400080E00E94891F67CF8D2F112329F00E9411
:10145000E2160E94B5175FCF0E943C17FACF8C2F7F
:10146000837009F041C0111156CF4D2F429546951A
:101470004770440F440F0D2F0F7010E030E020E054
:10148000042E04C0000F111F221F331F0A94D2F72D
:1014900060E070E0CB01D4FF0FC06FE070E080E04F
:1014A00090E004C0660F771F881F991F4A95D2F7F6
:1014B0006095709580959095C695C695C370602B84
:1014C000712B822B932BC23049F058F4C13019F0A4
:1014D0000E94020C20CF0E94F00B1DCF0E94140C22
:1014E0001ACF0E94EE0B17CF8695112311F08C2F87
:1014F0008170882309F40FCF4D2F42954695477090
:10150000440F440F0D2F0F7010E030E020E0042E48
:1015100004C0000F111F221F331F0A94D2F760E08E
:1015200070E0CB01D4FF0FC06FE070E080E090E08E
:1015300004C0660F771F881F991F4A95D2F76095E0
:10154000709580959095C695C695C370602B712B4C
:10155000822B932BC23049F058F4C13019F00E940D
:10156000C70CD9CE0E94B50CD6CE0E94D90CD3CED2
:101570000E942A0CD0CECF70112329F08C2F0E940C
:10158000500C8D2F12CF8D2F0E9423098C2F0E947B
:10159000710CC1CED23F89F160F4D03FC9F0D13F88
:1015A00029F1112309F442C001119DCE8C2F8F71B6
:1015B00021C0D33F39F1D43FA1F7112369F1CF7195
:1015C0008C2F0E94500C63E08C2F0E94C111A3CE7F
:1015D000112341F0053008F09ECE8C2F8F710E94B0
:1015E000940C99CE063008F096CEF7CF8C2F8F71E1
:1015F000112369F20E94500C8ECE8C2F8F71112313
:10160000C9F3C5CF112329F08C2F8F710E943B0C99
:1016100082CE0E94360C7FCE81E00E94DC11023027
:1016200008F479CE82E00E94DC1175CE002359F0D7
:10163000D93309F0E9CE8FEF97EEE3E08150904087
:10164000E040E1F7DFCE8C2F8F71A1CF4C2F4F7090
:101650006D2FC6010E9450130E94B50D5CCE4C2F19
:101660004F706D2FC6010E94531355CEDF91CF915D
:101670001F910F91FF90EF90DF90CF90BF90089552
:101680000F931F93CF93DF93EC01688179818A8157
:101690000E94910D8C010E94EB0C0E94ED0BB80191
:1016A000CE01DF91CF911F910F910C942A09CF9316
:1016B000DF93EC018B819C81892B29F088819981B2
:1016C00089238F3F59F4DF91CF910895CE010E9475
:1016D000400BCE01DF91CF910C94E506CE010E9424
:1016E00008078111F3CF0E941311882361F38A81C7
:1016F000882349F382E0DF91CF910C94DC1190E0D4
:1017000080E00E94891F90E080E00E949F1F0E945D
:101710005B110E946B110E948B110E94E6180C94C1
:10172000B5170E9403110C947F0B0E944B110C946F
:10173000910BE92FE295EF70E250EE3070F4F0E09B
:10174000EE5EF74D0C948A27803F19F020F4883E16
:1017500020F481E00895843FE1F380E00895883E1D
:10176000C0F3813FD1F7F5CF93FB882780F9089527
:10177000FC01808191810E94870D0C94990BCF937D
:10178000DF9300D000D00F92CDB7DEB70F900F904F
:101790000F900F900F90DF91CF910895CF93DF932B
:1017A00000D000D000D0CDB7DEB726960FB6F894A3
:1017B000DEBF0FBECDBFDF91CF91089508950C9489
:1017C000DE0B0E94DF0B60939A0270939B02809362
:1017D0009C0290939D020C947F0B08950C94E10B56
:1017E0000F931F9300919A0210919B0220919C02EB
:1017F00030919D02602B712B822B932B1F910F91A7
:101800000C94E10B0F931F9300919A0210919B028D
:1018100020919C0230919D026023712382239323A7
:101820001F910F910C94E10B0F931F9300919A025B
:1018300010919B0220919C0230919D02602771279C
:10184000822793271F910F910C94E10B0C94DE0BD0
:101850000C94260C0E94280C6093960270939702B9
:1018600080939802909399020C947F0B60E070E053
:10187000CB010C942A0C0F931F9341E050E060E0E1
:1018800070E08A019B0104C0000F111F221F331F4B
:101890008A95D2F7C901B8011F910F910C942A0CB7
:1018A0000F931F9341E050E060E070E004C0440FEC
:1018B000551F661F771F8A95D2F7809196029091E7
:1018C0009702A0919802B09199028A019B01082B7E
:1018D000192B2A2B3B2BC901B8011F910F910C9496
:1018E0002A0C0F931F9341E050E060E070E004C0C9
:1018F000440F551F661F771F8A95D2F7CB01BA0197
:101900006095709580959095009196021091970240
:1019100020919802309199026023712382239323AE
:101920001F910F910C942A0C0F931F9341E050E0EC
:1019300060E070E004C0440F551F661F771F8A9552
:10194000D2F78091960290919702A0919802B0915F
:1019500099028A019B01082719272A273B27C901D9
:10196000B8011F910F910C942A0C0F931F930091B3
:101970009602109197022091980230919902602B63
:10198000712B822B932B1F910F910C942A0C0F9388
:101990001F93009196021091970220919802309126
:1019A000990260237123822393231F910F910C943A
:1019B0002A0C0F931F930091960210919702209189
:1019C00098023091990260277127822793271F91EF
:1019D0000F910C942A0C0895CF93DF93262F890F33
:1019E000982F9770E1E001C0EE0F9A95EAF786957F
:1019F0008695869590E065E070E00E945127DC01B5
:101A0000AF56BD4F50E040E0622F70E08D91ED0188
:101A100021979B01042E02C0369527950A94E2F780
:101A20002170219528272E23282728834F5F5F4F79
:101A30004530510559F7DF91CF910895890FA82FAF
:101A4000A77086958695869590E065E070E00E9487
:101A50005127FC01EF56FD4F50E040E080E021911E
:101A600030E00A2E02C0369527950A94E2F72170DD
:101A70003327042E01C0220F0A94EAF7822B4F5F0E
:101A80005F4F4530510559F70895BF92CF92DF92CD
:101A9000EF92FF920F931F93CF93DF938C01C0902F
:101AA0009602D0909702E0909802F090990280916F
:101AB0009A0290919B02A0919C02B0919D02C82A2B
:101AC000D92AEA2AFB2ACFE1D0E0BC2ED701C601F1
:101AD0000C2E04C0B695A795979587950A94D2F7D2
:101AE00080FD0EC0219788F7B12C8B2DDF91CF910F
:101AF0001F910F91FF90EF90DF90CF90BF900895CE
:101B0000B8018C2F0E948414019761F3EECFCF931C
:101B1000DF93EC010E94450DBE01DF91CF910C9443
:101B200084141F93CF93DF93EB019091900299233C
:101B300031F0CB01DF91CF911F910C94870D882359
:101B400079F0CB010E94450D182F682FCE010E941D
:101B5000EC0CBE01812FDF91CF911F910C94841466
:101B6000CB010E941E0D182FF4CFEF92FF920F931E
:101B70001F93CF93DF938C01892B81F0F12CEE24FE
:101B8000E394E8012196F8018491843770F484305D
:101B900008F05FC08130B1F08230A1F1DF91CF91C8
:101BA0001F910F91FF90EF900895853709F44CC075
:101BB00008F43DC09CE7980F903780F78F770E941C
:101BC000CE0849C00E5F1F4FFE01849190E2980F2E
:101BD000983060F48770FE2D01C0FF0F8A95EAF7F8
:101BE0008F2F0E945E110E948B1102C00E948008FC
:101BF0008F2D815030F2EFE9FFE03197F1F700C00F
:101C00000000F7CF0E5F1F4FFE01849190E2980F06
:101C1000983050F48770FE2D01C0FF0F8A95EAF7C7
:101C20008F2F0E946411DFCF0E94CE08E1CF0E5F9C
:101C30001F4FFE01C491C150D8F28FE99FE0019778
:101C4000F1F700C00000F7CF0E5F1F4FFE01F490C8
:101C5000CFCF0E9480088E01CBCFCF93DF93C0916E
:101C60009E0280919F028C1303C0DF91CF91089553
:101C7000D0E0CE0166E070E00E945127FC01E05602
:101C8000FD4F4081518162817381848195810E94E1
:101C9000CE0B2196C770E5CF4091D0025091D10272
:101CA0006091D2027091D3028091D4029091D502BA
:101CB0000C94CE0B1F93CF93DF938091D502807F3E
:101CC000A1F48091D202882381F020919E02B091EC
:101CD0009F024091D002A091D102C091D302D09135
:101CE000D402142F1A23B21304C0DF91CF911F9195
:101CF000089530E0209711F01F3F21F42F5F3F4FF0
:101D00002770F1CFC90166E070E00E945127FC0105
:101D1000E056FD4F81818A13F1CF80818413EECF8D
:101D200082818111EBCF838194818C1B9D0B883C38
:101D3000910520F78091D5028F7080618093D50244
:101D4000C90166E070E00E945127FC01EB55FD4F90
:101D500090819F709061908380ED92E00E94570B7C
:101D6000DF91CF911F910C942D0EAF92BF92CF9225
:101D7000DF92EF92FF920F931F93CF93DF93CDB734
:101D8000DEB761970FB6F894DEBF0FBECDBF8C01F2
:101D900085E0F801DE011D9601900D928A95E1F72C
:101DA000F801E28080EDC82E82E0D82E6091D30247
:101DB0007091D4026115710509F45DC19091D00252
:101DC0003091D102892F83238F3F09F454C1408180
:101DD0002181A380B480F090D202F501E61BF70BBD
:101DE000FF2009F4F8C08091D502582F507FE83CBD
:101DF000F10508F0B0C051117AC0FE2C321323C097
:101E0000941321C0E1101FC08F7080618093D502B0
:101E10000E944C0EC6010E94570B8091D502F8011A
:101E200085838F2D61960FB6F894DEBF0FBECDBFB0
:101E3000DF91CF911F910F91FF90EF90DF90CF90A6
:101E4000BF90AF900895AB2829F0842F82238F3F55
:101E500009F02AC180E0F82FF170DF2EE0919E0298
:101E600030919F0280FD20C0EE20D9F28091D502F2
:101E700081608093D502F12CD4CFF0E0CF0166E0F1
:101E800070E00E945127DC01A056BD4F11968C9145
:101E90001197821307C08C91841304C012968C9101
:101EA000E812E2CF3196E770E313E7CF4D872E8734
:101EB0008D859E850E94870D292F22952F702230B7
:101EC00050F0243078F49F7051F0F8019581907FA4
:101ED00031F4D12C0AC09F7011F08823D1F3805EB9
:101EE0008830B8F3C8010E94570BFD2C9ACF3213EB
:101EF00006C0941304C0F801EE2009F488C0C8019C
:101F00000E94B80B882319F1EE2009F18091D502C7
:101F1000803270F02091D0023091D10238872F8327
:101F20001986BB86AA868C87CE0107960E94570B1E
:101F300086E0F801A0EDB2E001900D928A95E1F7FC
:101F40000E945A0E0E944C0EFF24F3946ACFC801DF
:101F50000E94570BF9CF511114C07A2DB98AA88A63
:101F6000522F6E2D89890E94BF0B80ED92E00E9456
:101F7000570B86E0F60111928A95E9F70E944C0E04
:101F80007ACF32130FC094130DC0E1100BC0F801CB
:101F90008583C8010E94570B86E0F60111928A954D
:101FA000E9F73FCFC8010E94B80B882381F2EE20E9
:101FB00071F28091D502803208F4BACF2091D0021C
:101FC0003091D1023A8329831B82BD82AC828E83F9
:101FD000CE010196ABCFE83CF10508F03EC0FE2CE7
:101FE000EE2009F4B4CF32132AC0941328C0809194
:101FF000D50280FD1BC0982F907FC1F0F80185832A
:10200000903F31F0982F907F905F8F70892B858360
:10201000C8010E94570B86E0F801A0EDB2E00190E4
:102020000D928A95E1F70E944C0EFBCE86E0F801F6
:10203000A0EDB2E001900D928A95E1F7F2CEC801D1
:102040000E94B80B811174CF8091D502816080937A
:10205000D502C8010E94570BE4CE7A2DB98AA88A0E
:10206000522F6E2D89890E94BF0B86E0F6011192D6
:102070008A95E9F7D8CFEE2009F469CFC8010E940C
:10208000B80BF82E882309F462CF86E0F801A0EDA2
:10209000B2E001900D928A95E1F780ED92E00E9406
:1020A0007B080E945A0EBFCF81E08E25D4CECF93FD
:1020B000DF93CDB7DEB72C970FB6F894DEBF0FBE17
:1020C000CDBF4F83588769877A878B879C87CE01DE
:1020D00007960E94B50E8823D1F08A859B85892BAF
:1020E00039F04F815885842F85238F3F09F076C0C2
:1020F00080919E0290919F02891349C02C960FB641
:10210000F894DEBF0FBECDBFDF91CF91089586E07A
:10211000FE013796DE01119601900D928A95E1F746
:102120008A859B85892B21F38F81988589238F3F11
:10213000F9F280919F0290E09C012F5F3F4F277042
:10214000332740919E024217130671F40E94950BAB
:1021500010929F0210929E0286E0E0EDF2E0DF0115
:102160001D928A95E9F7C4CF66E070E00E9451277E
:10217000DC01A056BD4F96E0FE01319601900D9214
:102180009A95E1F720939F020E942D0EB1CF90E027
:1021900066E070E00E94512780569D4F0E94B50E68
:1021A000882309F4ABCF80919E0290E066E070E056
:1021B0000E945127FC01E056FD4F40815181628110
:1021C0007381848195810E94CE0B80919E0290E064
:1021D00001968770992780939E028ACF69857A85B8
:1021E0008B859C850E94CE0B83CF682F80910B013D
:1021F00090910C010C94FD1F682F80910B01909120
:102200000C010C94FF1F80910B0190910C010C9418
:1022100001208091D60285958595859508958091B8
:10222000D602877008959091D602977081E009F4E4
:1022300080E008959091200392FB222720F928172F
:1022400051F080FB92F99093200380911F039091AD
:1022500020030C941F1208958091200382FB88278D
:1022600080F991E089270C941A1181E00C941A11DD
:1022700080E00C941A118091E20208959091E2029C
:10228000892B8093E202089580959091E202982331
:102290009093E20208951092E20208959091E10273
:1022A000892B8093E102089580959091E102982313
:1022B0009093E10208951092E10208959091E00256
:1022C000892B8093E002089580959091E0029823F5
:1022D0009093E00208951092E00208958091D70251
:1022E000089508950C9471119091200392FD08C0F7
:1022F0009091D702981721F08093D7020C94721115
:1023000008958091D702882329F01092D70280E0A7
:102310000C9472110895E0910B01F0910C018091E1
:10232000E2028083E0910B01F0910C018081909199
:10233000E102892B8083E0910B01F0910C018081F7
:102340009091E002892B80839091D702992381F0AC
:10235000E0910B01F0910C018081892B80838091A9
:102360000B0190910C010E94B51F81110E948111F7
:1023700080910B0190910C010C94701F08950C94A6
:10238000BE119091200392FD10C0982F990F990FC4
:10239000990F962B9093D6020E94500C8091D602F2
:1023A0008595859585950C94BF110C94500C1092D1
:1023B000D60280E00C94BF119091D60280958923BB
:1023C0008093D602282F277039F4282F082E000C6E
:1023D000330B9217130621F49091200392FF07C04C
:1023E0008595859585950E94710C0C94D71108955B
:1023F0006FEF7FEF90E080E00C94EA2790E080E0C0
:102400000E94C62721E0893E9E4F09F020E0822FDE
:10241000089582E090E00C94B82783E090E00C945B
:10242000B827CF9384E090E00E94B827C82F82E2BB
:1024300090E00E94B827982F8C2FCF910895CF93CA
:10244000C92F682F84E090E00E94CC276C2F82E295
:1024500090E0CF910C94CC27AB01BC018FE090E0D1
:102460000C94DE27AB01BC0183E190E00C94DE27E5
:1024700060E070E0CB010C94321260E070E0CB01C0
:102480000E942C120C94381269EE7EEF90E080E0EE
:102490000E94EA2760E082E090E00E94CC2760E0A2
:1024A00083E090E00E94CC2710929A0210929B0247
:1024B00010929C0210929D0260E084E090E00E94E5
:1024C000CC2760E082E290E00E94CC2760E085E0CB
:1024D00090E00E94CC2760E086E090E00E94CC274C
:1024E0006FEF87E090E00E94CC2740E050E0BA0117
:1024F00088E090E00E94DE2760E08DE090E00E949E
:10250000CC2740E050E0BA0188E190E00E94DE274D
:1025100060E087E190E00E94CC2740E050E0BA0103
:102520008CE190E00E94DE2770E060E080E290E0C5
:102530000E94EA2740E050E0BA0188E190E00E9462
:10254000DE270C943D120C944412682F8EE090E02C
:102550000C94CC270E9492206093E9027093EA02C7
:102560008093EB029093EC026093E5027093E60295
:102570008093E7029093E8020895089508950C94DB
:10258000BD1208950C94C11282E695E10E94F520D7
:102590000E94BE120C94BF1281E008950C94CC12DC
:1025A000089508950E94D0120C94D1120E947D20AB
:1025B0000E94E8150E94E31B0C94C2120F931F9314
:1025C000CF93DF93CDB7DEB72A970FB6F894DEBF6F
:1025D0000FBECDBF0E94F31581110E94AA1280E0A8
:1025E0000E94A515182F8091E402082F012781175A
:1025F00039F08091ED0281FD0E94AB1500FD2AC0EB
:102600008FEF89838A831B820E9486208160782FC6
:102610009D838C8349815A816B818D810E943D0805
:102620000E94161C0E94D0170E94641F9091E30222
:10263000891759F10E94641F8093E3022A960FB60E
:10264000F894DEBF0FBECDBFDF91CF911F910F91E8
:102650000C9435080E94CE12882381F01E821F82BE
:10266000117018870E9486208160782F9A87898749
:102670004E815F8168858A850E943D088091E402D1
:1026800091E089278093E402CBCF2A960FB6F89485
:10269000DEBF0FBECDBFDF91CF911F910F91089587
:1026A00090E080E008950895272F260F3327331FE9
:1026B000F901E80FF11DEE0FFF1FE858FF4F85915C
:1026C00094910895FC01EE0FFF1FE65DFE4F85918A
:1026D00094910895CF93DF930E948814EC018115A3
:1026E00020E5920708F042C0811530E4930708F016
:1026F000BFC0883E910528F5803E910508F0A0C036
:10270000883A910588F4853A910508F092C08130A5
:10271000910509F495C0009709F492C0049708F058
:102720008FC0D0E0C0E08CC08F3B910508F48CC016
:10273000805C9109C03CD105A0F30E946213EC01BA
:102740007FC0811540E2940750F4C11581E0D8079D
:1027500008F076C0CD3ED10520F3D06571C081155B
:1027600020E3920708F07BC09F70E7CF811535E525
:10277000930770F5811544E5940708F0ADC0C115C5
:1027800082E5D80750F4C11521E5D20708F473C0DB
:10279000DC2FCC27C16FD06A53C09C2F969596959D
:1027A0009E0123703327C115D34508F083C0C1E0D3
:1027B000D0E002C0CC0FDD1F2A95E2F7892F90E010
:1027C000E5E0880F991FEA95E1F7C82BD92B70C077
:1027D000C11589E5D807A8F4C11528E5D20708F086
:1027E00080C0C11536E5D30708F09BCF8C2F0E941F
:1027F0001F15C82FD0E0DC2FCC27CC27DF71D0628B
:102800001FC0C1154AE5D40708F470C0CE01905628
:102810008115904208F085CF8D2F8F710E941F1572
:1028200090E0982F882788279F719C012C2BE90125
:10283000E6CFC55AD0E0C659DD4FC881D0E0D0649C
:10284000CE01DF91CF910895C85AD0E0CC0FDD1FA3
:10285000C45CDD4F0990D881C02DD464F1CF992795
:10286000D3FF03C0EC01D86CEBCFEC01D06CE8CF08
:10287000DF70D06AE5CFCE01A4E096958795AA9542
:10288000E1F783702C2F26952695237030E0B5E074
:10289000220F331FBA95E1F7382B8C2F8370C1E0DC
:1028A000D0E002C0CC0FDD1F8A95E2F7C22BD32BFC
:1028B000DC68C6CFC1E0D0E002C0CC0FDD1F2A9596
:1028C000E2F7892F90E075E0880F991F7A95E1F77C
:1028D000C82BD92BDA68B4CFD82FCC27C46FD06AD5
:1028E000AFCFDC2FCC27C06FD06AAACF8C2F8F70D0
:1028F0000E941F1534E0D695C7953A95E1F7CF7041
:102900009C2FEC01D0699CCF0E9454130C946A1345
:1029100082389105B1F1B0F48133910509F475C0A5
:1029200048F48932910509F469C08A32910509F4A5
:1029300073C008958533910509F459C08933910511
:1029400001F10895833E9105A9F138F4803E910587
:10295000F9F0823E910549F10895863E9105A9F16D
:10296000873E9105C9F1843E910519F52091200318
:1029700021FF1FC080911F0384FD14C087EE90E0EB
:10298000089520911F032370A1F080EE90E0089538
:1029900020911F0320FD47C03091200330FF09C064
:1029A00024FF44C090E080E004C020911F0322FD7A
:1029B000F7CF089520911F0322FD3BC030912003E3
:1029C00030FDE3CF24FFF5CFEDCF20911F0323FF90
:1029D000F0CF24FDE7CFD2CF20911F0323FD2CC0E1
:1029E0003091200331FFEECF84EE90E008952091E6
:1029F0001F0325FFDECF89E290E0089520911F0399
:102A000025FFD7CF85E390E0089520911F0326FF8F
:102A1000D0CF8AE290E0089520911F0326FFC9CF0E
:102A200081E390E0089589E390E0089583EE90E0DB
:102A3000089582EE90E0089586EE90E008959091DA
:102A40001F0392FF06C0282F28712830F9F4877FD2
:102A5000846093FF06C0282F28712831F1F4877E07
:102A600084612091200320FF06C0382F3871383050
:102A7000D9F4877F816021FF06C0282F2871283173
:102A8000D1F4877E816194FD877E0895282F24717B
:102A90002430F9F68B7F8860DCCF282F2471243115
:102AA00001F78B7E8861DDCF382F3171313019F716
:102AB0008E7F8860E0CF282F2171213121F78E7E13
:102AC0008861E1CF80E008950C94F8110E94F3151D
:102AD0008FE39CE90197F1F700C000000E94F31515
:102AE00080E00E94A51580FF04C00E9464150C942C
:102AF000D12008950C9466150E94FE11811102C028
:102B00000E94A3120E9409128093ED020E941112EA
:102B10009093200380931F030E947A150E940D1248
:102B2000682F70E090E080E00E94EE0B60919602CA
:102B30007091970280919802909199020C94280CC0
:102B400008950C94A0150C94CE05E82FF0E0EE5DEE
:102B5000FC4F80810895089580EA8A95F1F70895E1
:102B600000C008950C94AC15F89427982F9A789487
:102B700008950E94B415F89452985A9A789408953A
:102B8000EF92FF921F93CF93DF937C01162FF8945F
:102B9000279A2F9878940E94B015C9B1D0E0D595A6
:102BA000C795D595C795C095D0950E94B4156C2F43
:102BB0006170812F0E94B215F701E10FF11DC17004
:102BC000DD27C083DF91CF911F91FF90EF90089593
:102BD0000E94B915109221031092220381E00E94F5
:102BE00019160C94F0061F93CF93DF930F92CDB775
:102BF000DEB7198260E0CE0101960E94C015909167
:102C00002103898111E0981301C010E0981380938B
:102C10002103212F41E062E273E081E293E00E9410
:102C20001A160E94F606812F0F90DF91CF911F9107
:102C300008950895FF920F931F93CF93DF93F82E7B
:102C4000092F162FD72FC42F222349F081E080931C
:102C5000F0020E9486209093EF028093EE02809112
:102C6000F0028823A1F08091EE029091EF020E9481
:102C70009E20059760F0EF2DF02FA12FBD2FCE0FD6
:102C8000DF2FD11DEC17FD0741F41092F002DF9108
:102C9000CF911F910F91FF90089581918D93F2CF65
:102CA0000E9408200E9440220E9459220E946B220A
:102CB0000E94D212FBCF8091F70280FF11C0809159
:102CC000120190E065E070E00E945127959587958C
:102CD0009595879580389105B0F50097B1F10895E5
:102CE00081FF0AC08091120190E065E070E00E94CF
:102CF000512795958795EECF82FF08C080911201EC
:102D000090E065E070E00E945127E4CF8091F602E8
:102D10008823B1F0209111016091120170E08217B7
:102D200010F0CB01EECF90E00E94512765E070E0FB
:102D30000E945127622F70E00E947627CB01CACFF4
:102D400085E090E008958FE7089581E008958091EF
:102D5000F70280FF0CC060910E0170E075956795D9
:102D6000759567956115710559F1862F089581FF55
:102D700006C060910E0170E075956795F3CF609184
:102D80000E0170E082FD0CC06091F5026623A9F08F
:102D900020910D0180910E0190E0621730F0BC018E
:102DA00060387105F8F28FE7089570E00E945127AE
:102DB000622F70E00E947627F3CF61E070E0D5CFFC
:102DC00081E008958D3E31F40E945B1681958093D9
:102DD000FB0208958E3E19F40E945B16F8CF8F3ED9
:102DE00031F40E945B1681958093FA020895803F2A
:102DF00019F40E945B16F8CF893F29F40E94A716A8
:102E00008093FC0208958A3F21F40E94A7168195C1
:102E1000F7CF8B3F31F40E94A71681958093FD0276
:102E200008958C3F19F40E94A716F8CF9FE0980FE1
:102E3000983070F4815F990B21E030E001C0220FDF
:102E40008A95EAF78091F902822B8093F90208951E
:102E50008D3F31F48091F70281608093F7020895ED
:102E60008E3F21F48091F7028260F7CF8F3FB9F750
:102E70008091F7028460F1CF4091FA028D3E59F4BF
:102E80008091FB0287FF0DC01092FB0241110BC025
:102E90001092F60208C08E3E81F48091FB02181653
:102EA0009CF3442381F08091FC029091FD02892BD8
:102EB00009F05AC01092F50208958F3E49F447FF79
:102EC000F0CF1092FA028091FB028111ECCFE0CF9B
:102ED000803F19F41416ACF3E4CF9091FC02893FC3
:102EE00029F41916F4F61092FC02DBCF8A3F19F48C
:102EF00097FFD7CFF8CF9091FD028B3F29F497FF32
:102F0000D0CF1092FD02CDCF8C3F19F41916CCF31F
:102F1000C8CF9FE0980F983090F4815F990B21E023
:102F200030E0B90102C0660F771F8A95E2F7CB0146
:102F300080959091F90289238093F902B2CF8D3F59
:102F400031F48091F7028E7F8093F702AACF8E3FF3
:102F500021F48091F7028D7FF7CF8F3F09F0A1CF49
:102F60008091F7028B7FF0CF08950E9486209C010C
:102F70009091FA028091FB02982B21F03093F40299
:102F80002093F3029091FC028091FD02982B21F096
:102F90003093F2022093F10288EF92E00C947B1FB1
:102FA000EF92FF920F931F93CF93DF9300D000D047
:102FB00000D0CDB7DEB786E0E8EFF2E0DE01119693
:102FC00001900D928A95E1F7E090FA02F090FB02F1
:102FD0000091FC021091FD021092FA021092FB0285
:102FE0001092FC021092FD028E2D8F2991F080919B
:102FF000F3029091F4020E949E20FC012091F602BF
:10300000222309F43FC0809113018E171F0608F494
:1030100048C0802F812B91F08091F1029091F202B3
:103020000E949E20FC012091F502222309F47CC01D
:1030300080910F018E171F0608F485C08091FA0257
:103040009091FB02892B9091FC02892B9091FD02BB
:10305000892B11F00E94B51786E0FE013196A8EF8A
:10306000B2E001900D928A95E1F726960FB6F8949A
:10307000DEBF0FBECDBFDF91CF911F910F91FF90AB
:10308000EF9008958091140190E06AE070E00E9452
:1030900051278E179F0708F0BCCF2F5F2093F602B1
:1030A00002C02F3FD1F7EE2051F00E945B166FEF68
:1030B0001E140CF461E00E9448278093FA02FF205E
:1030C00051F00E945B166FEF1F140CF461E00E9438
:1030D00048278093FB028091FA02882309F499CF54
:1030E0002091FB02222309F494CF082E000C990BA7
:1030F00065EB70E00E945127992371F09093FA02DA
:10310000822F220F990B65EB70E00E9451279923C3
:1031100039F09093FB027DCF81E08093FA02F0CFEB
:1031200081E08093FB0275CF8091100190E06AE00E
:1031300070E00E9451278E179F0708F07FCF2F5F06
:103140002093F50202C02F3FD1F7002351F00E94D7
:10315000A7166FEF10160CF461E00E9448278093C9
:10316000FC02112351F00E94A7166FEF11160CF408
:1031700061E00E9448278093FD028091FC02882331
:1031800009F45CCF2091FD02222309F457CF082EC9
:10319000000C990B65EB70E00E945127992371F0A8
:1031A0009093FC02822F220F990B65EB70E00E9436
:1031B0005127992339F09093FD0240CF81E080930D
:1031C000FC02F0CF81E08093FD0238CF86E0E8EF8B
:1031D000F2E0DF011D928A95E9F71092F602109253
:1031E000F5021092F7020895EF92FF920F931F934A
:1031F000CF93DF93982F711111C0442329F0E82F4A
:10320000F0E0E05DFE4F9491692F792F892FDF91D7
:10321000CF911F910F91FF90EF900895262F30E0EE
:10322000C72FD0E0E82FF0E0442321F0E05DFE4F0F
:10323000E491F0E0C90166E070E00E9451270FEFD1
:1032400010E0B8010E946227DB01220F331FCB017F
:1032500065E570E00E945127281B390BE22EEE0C29
:10326000E20EC8018C1B9D0BBF010E945127292F24
:10327000F12CC701BE010E945127492F50E0C8011F
:10328000841B950BBF010E945127392FC8018E194D
:103290009F09BE010E945127492F50E0C801841B9D
:1032A000950BBF010E945127892F7E2FA230B105B7
:1032B00089F038F4109759F0119781F0922F232F4D
:1032C00006C0A430B10569F080F01697B9F7692FF0
:1032D000822F9DCF9E2F722F282FF9CF9E2F732FD5
:1032E000F6CF922F2E2F782FF2CF722F2E2F932FD3
:1032F000EECF41E00C94F41808950C947919CF9313
:10330000DF93762FE901682F842F0E947D1979833E
:1033100068838A83DF91CF91089580912303982F4A
:103320009E7F29F481708260809323030895863103
:10333000E8F381708461F8CF88E090E00C94C027B6
:10334000CF92DF92EF92FF926B017C010E948D1968
:10335000B701A60188E090E0FF90EF90DF90CF905A
:103360000C94DE27E3E2F3E083E0808311828FEFA9
:1033700082838383148260817181828193810C9422
:10338000A0198091230380FF02C08695089580E0F4
:10339000089590912703933018F49F5F909327032B
:1033A000882351F0609123037091240380912503B9
:1033B000909126030C94A019089581E00C94C919EA
:1033C00090912703992319F0915090932703882314
:1033D00051F0609123037091240380912503909113
:1033E00026030C94A019089581E00C94E01970E074
:1033F0000C94271D309116018091230380FF0CC08F
:103400008091150190E063E070E00E945127632FE6
:10341000885D9C4F0C94F719209117014091180179
:10342000822F90E063E070E00E945127FC01E85D8C
:10343000FC4F241728F71182108212822F5F3396D7
:10344000F8CFA82FB62F8091230380FF17C02091BB
:10345000170130911801822F90E063E070E00E9424
:103460005127FC01E85DFC4F231710F00C94FA196A
:10347000A183B08342832F5F3396F6CF0895CF9315
:10348000DF9300D00F92CDB7DEB79091230390FF6A
:103490000AC09E012F5F3F4F0E947F194B816981B7
:1034A0008A810E94211A0F900F900F90DF91CF9187
:1034B0000895CF93DF93EC01E3E2F3E0438162816F
:1034C0008C810E943F1A8C818F5F8C83DF91CF911A
:1034D0000895EF92FF920F931F93CF93DF9300D045
:1034E0000F92CDB7DEB7182FF62E042FE22E809163
:1034F000230380FF28C0E82FE695F0E0E359FD4F55
:103500009081909305038E7F823039F59E012F5F65
:103510003F4F812F0E947F194B8169818A810E94D0
:10352000211A10932403F092250300932603EE2022
:1035300051F06091230370912403809125039091B1
:1035400026030E94A0190F900F900F90DF91CF914A
:103550001F910F91FF90EF900895923019F4109100
:103560002403DFCF9530E9F6FACFE3E2F3E091816F
:10357000282F4381628188E0890F0C94691A81E0C9
:103580000C94B51AE3E2F3E09181282F4381628124
:1035900088EF890F0C94691A81E00C94C21AE3E257
:1035A000F3E0628121E1620F08F46FEF282F43817D
:1035B00081810C94691A81E00C94CF1AE3E2F3E064
:1035C000628121E1621B08F460E0282F4381818140
:1035D0000C94691A81E00C94DE1AE3E2F3E0438173
:1035E00021E1420F08F44FEF282F628181810C9472
:1035F000691A81E00C94ED1AE3E2F3E0438121E1E2
:10360000421B08F440E0282F628181810C94691AE2
:1036100081E00C94FC1A20E00C94691AEF92FF925E
:103620001F93CF93DF93EC0110E0EE24EA94F12C8A
:1036300030911901131770F00E94FA199A818C8148
:1036400090FF27C08F5F8C83DF91CF911F91FF90F8
:10365000EF90089580911701810F9927991F63E0DA
:1036600070E00E945127FC01E85DFC4F632F70E081
:10367000C7010E947627812F0E9448279C819F01C5
:103680004091260360912503890F0E947F191F5FD7
:10369000CFCF8150D8CFE3E2F3E080818E7F80836B
:1036A00060817181828193810E94A019109206032A
:1036B0002FEF80E792E0215080409040E1F700C07A
:1036C00000000C94FA1960912303669570E041E0C4
:1036D00050E08AE191E00E949027892B19F481E063
:1036E000809306030E9486209093FF028093FE023F
:1036F00008959091230390FF35C09170811128C0E7
:10370000926090932303662351F06091230370919C
:10371000240380912503909126030E94A0196091B3
:103720002303669570E041E050E08AE191E00E9459
:103730009027892BA1F01092060381E0809301036A
:103740004091260360912503809124030C940B1B68
:103750008B3010F09461D5CF880F982BD2CF0E9478
:10376000631BEBCF0895682F90912303969581E01A
:10377000890F8B3008F081E00C94791B81E00C9468
:10378000B31B682F9091230396958FEF890F09F44F
:103790008AE00C94791B81E00C94C11B61E00C94CD
:1037A000791BE3E2F3E080818160808386950C944D
:1037B000CE1B8091230380FD0C944B1B0C94D11BDA
:1037C00060E00C94791B8091040381112EC00E944B
:1037D000FE11811104C00E94A3120E94B2190E941E
:1037E0009C19609323037093240380932503909383
:1037F00026036E7F61F40E94B2190E949C196093A7
:1038000023037093240380932503909326030E943F
:103810008D19109206038091230380FF03C08695C3
:103820000E94E01B81E08093040308950F931F938F
:10383000CF93DF9380910603882309F44BC08091D6
:103840000503E0912303E695E81BE0930003823033
:1038500089F5F0E0E35DFE4FE491CE2FD0E009E57D
:103860001AE180910103882361F0109201030E9404
:1038700086209093FF028093FE0210920303109221
:1038800002030E948620E091FE02F091FF028E1B4F
:103890009F0B8F3F9F47F0F4CE0FDF1FD093FF02A7
:1038A000C093FE028EEF92E0F801DF91CF911F915D
:1038B0000F910994C0EDD7E00CE719E1853089F646
:1038C000E695F0E0E65DFE4FE491CE2FD0E00EE00D
:1038D0001BE1C7CFDF91CF911F910F910895FA019E
:1038E000811101C0FB010994CF93DF93C82FD62F1C
:1038F0000E94C1198C1740F00E94C1198D1720F445
:10390000DF91CF910C94BE1B8C2FDF91CF910C9443
:10391000CE1B0F931F93CF938C01FB01C281CC234D
:1039200009F493C00E943B1182720B3CFCE51F0717
:1039300009F475C060F5063CECE51E0709F45BC0B0
:1039400080F4043C9CE5190709F44BC008F04EC014
:10395000033C1C4509F442C08C2FCF911F910F915D
:103960000895083C9CE5190709F44FC008F448C0C5
:10397000093CFCE51F0709F44DC048E05BE169EF35
:103980007AE10A3C1C4541F70E946F1C15C0003DBE
:10399000ECE51E0709F456C088F40D3C9CE51907B8
:1039A00009F447C008F440C00E3CFCE51F0709F4C9
:1039B00045C00F3C1C4581F6C0E0CECF073D9CE5DD
:1039C000190740F46AE085E0023D1C45A8F70E9413
:1039D000741CF2CF0E351D4579F3BECF0E94D91B62
:1039E000EBCF4BEC5BE16EEB7BE1CECF4EEB5BE1E3
:1039F0006BEC7BE1C9CF4CEC5AE16FEB7AE1C4CFC1
:103A00004FEB5AE16CEC7AE1BFCF4AEE5AE16BED35
:103A10007AE1BACF4BED5AE16AEE7AE1B5CF49EFE0
:103A20005AE168E07BE1B0CF44EF59E16DED79E117
:103A3000ABCF4DED59E164EF79E1A6CF81E00E9473
:103A4000CE1BBACF64E082E0C2CFC1E085CF9C013B
:103A5000CB013D9A48B14F7DE8B1E062FFB7F894E1
:103A600063E070E00E945127820F931F8217930733
:103A700041F4FFBF8FE594E00197F1F700C000002B
:103A80000895D9015D919D0168E0E8B9000000C08A
:103A900057FF48B9550F000000C000C000C048B92A
:103AA00000C06A9591F7E2CF0F931F93CF93DF93F6
:103AB000C42FD22FFC0182818823C9F040930903CF
:103AC0000E948620909308038093070380E28C0F66
:103AD000883008F050C0C77081E001C0880FCA95D7
:103AE000EAF7DF91CF911F910F910C941C0910916F
:103AF0000903141335C080910703909108030E94B5
:103B00009E20883C910560F5C0E2CD0F1D17B9F0ED
:103B100080E2810F883040F4177081E001C0880F87
:103B20001A95EAF70E942309C83048F481E09D2FD6
:103B3000977001C0880F9A95EAF70E941C09802FA0
:103B40000E941409C830B8F4D77081E001C0880F12
:103B5000DA95EAF7DF91CF911F910F910C94230929
:103B600080E28C0F883038F4C77081E001C0880F84
:103B7000CA95EAF7EFCFDF91CF911F910F9108958A
:103B80000F939C01CB01243F4CE5340759F1A8F475
:103B9000293DFCE53F0701F12A3D4CE53407D1F111
:103BA000283D3C4591F406E221EE41EE68ED7CE5CE
:103BB0000E94541D80E00F910895263FFCE53F07C9
:103BC000E9F0B0F0273F3C45F9F0FC018281882301
:103BD00039F110920903EFCF07E225EE45EE69EDCA
:103BE0007CE5E6CF06E221EE40EE64EF7CE5E0CF37
:103BF00007E225EE44EE65EF7CE5DACF06E221EE42
:103C000042EE66EF7CE5D4CF07E225EE46EE67EFA5
:103C10007CE5CECF08E221E045EE6AED7CE5C8CF39
:103C200081E0C9CFCF93DF93EC01FB018281882330
:103C300009F419C1C230FCE5DF07C0F1C6319CE5CB
:103C4000D90730F09E012B5F3C452930310570F5D6
:103C50000E9411129093200380931F03C031ECE562
:103C6000DE0709F4CFC008F05BC0C8308CE5D80788
:103C700009F4B6C088F5C430ECE5DE0709F4A8C045
:103C8000C0F4C2308CE5D80709F49CC080911F03B2
:103C90008260C330DC4509F498C080911F03909185
:103CA00020030E941F120E94950B80E0DF91CF91AC
:103CB000089580911F038061C630ECE5DE0709F4AA
:103CC00084C080911F038860C730DC4508F47DC044
:103CD00080911F03806279C0CC308CE5D80709F44D
:103CE00089C070F480911F038C60CA30ECE5DE0758
:103CF00009F46BC008F478C080911F038E7F65C003
:103D0000CE308CE5D80709F479C080911F038B7FF2
:103D1000CF30DC4508F459C080911F038F7E55C019
:103D2000CC3FECE5DE0709F457C030F5C3318CE534
:103D3000D80709F46FC078F4C131ECE5DE0709F467
:103D400065C0C231DC4509F0A8CF0E94950B809177
:103D50001F038F773AC0C5318CE5D80709F462C0DC
:103D600008F476C0809120038160CB3FDC4509F0E8
:103D700094CF8093200391CFC115FDE5DF0709F4AF
:103D80004DC088F4809120038D7FCE3F9CE5D907FC
:103D900081F3809120038E7FCF3FDC4550F38091EB
:103DA00020038360E6CFC230FDE5DF0709F459C088
:103DB00008F444C080E0C330DD4509F06ECF0E94B6
:103DC000A5126BCF80911F03816080931F0365CF85
:103DD00080911F038460F9CF809120038260C9CF56
:103DE00080911F038064F1CF0E94950B80911F0387
:103DF0008068EBCF80911F038D7FE7CF80911F03F9
:103E0000877FE3CF80911F038F7DDFCF80911F03DA
:103E10008F7BDBCF80911F03837FD7CF80912003DF
:103E20008C7FA7CF80911F0382FB992790F921E017
:103E3000922790FB82F990FB83F9C7CF80912003F2
:103E4000982F909591708E7F892B90FB81F991CF5F
:103E50000E94950B90911F03892F97FB87F980583B
:103E6000B4CF81E0ACCF81E021CFCF93DF93EB01E2
:103E700086319C4511F50E943B119A81992399F056
:103E80008A7A91E009F490E090930A03811109C0C5
:103E900089E20E94F5100E948B1180E0DF91CF91A2
:103EA000089585E3F6CF80910A03811104C089E269
:103EB0000E94FC10F0CF85E3FBCF81E0EFCF909321
:103EC000100380930F030895E0910F03F091100306
:103ED000309721F00190F081E02D099480E0089561
:103EE000E0910F03F0911003309721F00280F381ED
:103EF000E02D09940895E0910F03F091100330979D
:103F000039F022E0DC012C930480F581E02D099446
:103F1000089520910D0330910E032817390771F091
:103F200090930E0380930D03E0910F03F091100323
:103F3000309721F00680F781E02D099408952091B3
:103F40000B0330910C032817390771F090930C0381
:103F500080930B03E0910F03F0911003309721F051
:103F60000084F185E02D099408959C012E5F3F4F58
:103F7000AC01485F5F4F80E02417350709F40895CE
:103F8000F90191919F019923B9F38F5FF5CF6623D2
:103F900049F0FC01329608962191261729F0E8177E
:103FA000F907D1F780E0089581E008959C01FC01B4
:103FB00032969FEF80E04191461751F09F3F19F4F0
:103FC000411101C0982F8F5F8630A9F79F3F09F4F8
:103FD0000895290F311D97FD3A95F90162830895DF
:103FE000FC01329608962191261303C0DF01119738
:103FF0001C92E817F907B9F708950C94D61F0C9492
:10400000F01F029626E0FC0111922A95E9F7089527
:104010000895089508950C940A2080913603843001
:1040200049F10E940B2080E00E9435081092110394
:1040300088E190E020E40FB6F894A89580936000A2
:104040000FBE2093600083B7817F846083BF83B7F6
:10405000816083BF7894889583B78E7F83BF0FB6C6
:10406000F894A89580916000886180936000109218
:1040700060000FBE089508950E9409200E94F31564
:104080000E943B2080E00E94A51591E0811101C0B3
:1040900090E0892F089508950C944B200E94950B71
:1040A0000E94641F0E9435080C944C201F921FB67A
:1040B0001F9211248F939F93AF93BF93809111030D
:1040C000811113C080912E0390912F03A091300392
:1040D000B09131034196A11DB11D80932E039093A1
:1040E0002F03A0933003B0933103BF91AF919F9101
:1040F0008F911F901FBE1F90189582E084BD93E0A2
:1041000095BD9AEF97BD80936E0008952FB7F894F0
:1041100080912E0390912F03A0913003B091310331
:104120002FBF08952FB7F89460912E0370912F033D
:1041300080913003909131032FBF08959C014FB7B8
:10414000F89480912E0390912F03A0913003B091A9
:1041500031034FBF821B930B089578941F921FB6B3
:104160001F9211248F939F93AF93BF9380912E033F
:1041700090912F03A0913003B09131030196A11DBE
:10418000B11D80932E0390932F03A0933003B0931F
:104190003103BF91AF919F918F911F901FBE1F90D0
:1041A000189581E08093E00080E28093D80010921F
:1041B000C9008FE19EE40197F1F700C0000087E09D
:1041C00090EBDC0180933F0390934003A093410365
:1041D000B093420388E19CE00FB6F894A8958093D1
:1041E00060000FBE90936000FFCF909379028093A0
:1041F0007802089580911D030895909136039430BC
:1042000031F580931203709314036093130382E0DB
:104210008093E9008FEF9091E800815095FD06C0F2
:1042200095ED9A95F1F700008111F5CF8091E800A6
:1042300085FF0DC050E040E063E070E082E193E074
:104240000E94F6228091E8008E778093E80008951E
:10425000BC0184E00C94FD20BC0183E00C94FD20A3
:104260009C0182E08093E9009FEF8091E8009150EB
:1042700085FD06C085ED8A95F1F700009111F5CF17
:104280008091E80085FF0CC050E040E066E070E0FF
:10429000C9010E94F6228091E8008E778093E800A1
:1042A0000895CF93DF93EC0181E08093E9008FEFD5
:1042B0009091E800815095FD06C095ED9A95F1F733
:1042C00000008111F5CF8091E80085FF14C050E017
:1042D00040E068E070E0CE010E94F6228091E800A4
:1042E0008E778093E80088E0FE01A5E1B3E00190BD
:1042F0000D928A95E1F7DF91CF9108950895089581
:10430000089542E061EC81E00E94FE2342E261EC0C
:1043100082E00C94FE2380913803833009F45DC061
:1043200030F48130B1F1823009F499C008958A30B7
:1043300009F485C08B3009F46BC0893009F04CC09A
:1043400080913703813209F047C080913B039091FF
:104350003C03029708F040C08091E800877F80937B
:10436000E8008091E80082FF33C08091F200823043
:1043700029F48091F1008B7F813021F48091F1004C
:1043800080931D038091E8008B778093E8000C9464
:10439000322480913703813AF9F48091E800877FD5
:1043A0008093E80080913B0390913C03892B61F45A
:1043B00068E085E193E070E00E9445238091E80089
:1043C0008B778093E800089560E090E080E0F3CF81
:1043D000809136038111C5CF089580913703813ACA
:1043E000D9F780913B0390913C03892BA9F78091E9
:1043F000E800877F8093E8008091E80080FFFCCF91
:10440000809125018093F1008091E8008E77BDCFE7
:1044100080913703813201F780913B0390913C03F7
:10442000892BD1F68091E800877F8093E8000E9475
:10443000322480913903809325010C94950B80914F
:104440003703813249F68091E800877F8093E80046
:104450000E94322480913A0380931E030895809134
:104460003703813A09F0B8CF8091E800877F8093C5
:10447000E8008091E80080FFFCCF80911E03C2CF4E
:1044800084B7877F84BF0FB6F894A89580916000A9
:10449000886180936000109260000FBE80E890E019
:1044A0000FB6F89480936100909361000FBE0C9456
:1044B000C4120E9482240E94D524E2EEF0E08081A2
:1044C0008460808378940E942D270E94D6128BE10D
:1044D00091E00C945F1F80913603853031F4809118
:1044E0003603853021F00E944E200C94DE120E948B
:1044F0000D2080913403882391F30E943C2088236F
:1045000071F30E94E0220E94950BE9CF0C9488225F
:10451000292F33272330310519F168F42130310573
:1045200009F444C02230310509F445C090E080E030
:1045300030E020E025C02132310549F12232310539
:10454000A9F780E490E02EE133E061157105C1F038
:104550008BE790E023EA32E06130710589F0E6CF25
:1045600099278130910581F0009729F00297F1F6A3
:10457000E0E3F2E002C0E2E5F2E0849190E09F0126
:10458000FA01318320830895EAE3F2E0F6CF89E06F
:1045900090E028E632E06115710591F389E090E042
:1045A00021E832E06130710559F3C0CF82E190E03B
:1045B00021E932E0E5CF8BE390E026E532E0E0CF81
:1045C00084E089BD86E089BD09B400FEFDCF8091FD
:1045D000D8008F7D8093D8008091E0008260809326
:1045E000E0008091E00081FDFCCF0895AF92BF9282
:1045F000CF92DF92FF920F931F93CF93DF936C01C3
:10460000EB018A010E945124F82E811123C001156B
:10461000110539F0F80180819181C81BD90BC80EB2
:10462000D91EB12CA12C2097A9F08091E80085FD1E
:1046300022C08091E8008E778093E8000115110573
:10464000A1F0F80180819181A80EB91EB182A082EB
:1046500085E0F82E8F2DDF91CF911F910F91FF9064
:10466000DF90CF90BF90AF9008950E94512488238F
:10467000D1F2F82EEFCFF60181916F018093F10016
:104680002197FFEFAF1ABF0ACECFFC0180913D0307
:1046900090913E0386179707A0F06115710529F4E4
:1046A0009091E8009E779093E80090E06115710585
:1046B00051F4911108C08091E80082FF32C080E07F
:1046C0000895BC01F2CF809136038823B1F1853083
:1046D000B1F18091E80083FD2EC08091E80082FD59
:1046E000EACF8091E80080FFE1CF2091F20030E036
:1046F0006115710519F02830310558F091E0283026
:10470000310509F090E02091E8002E772093E80031
:10471000CDCF81918093F100615071092F5F3F4FA0
:10472000E7CF80913603882341F0853041F08091B6
:10473000E80083FFC0CF81E0089582E0089583E020
:104740000895FC0180913D0390913E0386179707E1
:10475000A0F06115710529F48091E8008E778093AF
:10476000E80090E06115710551F4911108C0809145
:10477000E80082FF33C080E00895BC01F2CF809151
:1047800036038823B9F18530B9F18091E80083FDC3
:104790002FC08091E80082FDEACF8091E80080FF81
:1047A000E1CF2091F20030E06115710519F0283059
:1047B000310558F091E02830310509F090E0809102
:1047C000E8008E778093E800CDCF84918093F1004C
:1047D0003196615071092F5F3F4FE6CF80913603CC
:1047E000882341F0853041F08091E80083FFBFCFFE
:1047F00081E0089582E0089583E00895982F953030
:1048000028F08F708093E90081E008959093E9008B
:10481000242F762F50E0981731F07091EC00209102
:10482000ED005091F00021FD02C09F5FE8CF309174
:10483000EB003E7F3093EB003091ED003D7F3093F5
:10484000ED003091EB0031603093EB007093EC00A1
:104850002093ED005093F0002091EE0027FDE5CF6E
:1048600080E008958091370387FF13C08091E800AE
:1048700082FF06C08091E8008B778093E80004C037
:10488000809136038111F2CF0895809136038823F9
:10489000D9F38091E80080FFF8CF8091E8008E770F
:1048A000ECCF2091E4003091E50095E6A90120913C
:1048B000EC00822F817020FF06C08091E80080FF0D
:1048C00006C080E008952091E80022FD1AC0809182
:1048D0003603882389F0853089F08091EB0085FDCF
:1048E0000FC02091E4003091E50042175307F9F220
:1048F0009150E1F684E0089582E0089583E0089500
:1049000081E008950E94DF240E94E224E0EEF0E0BE
:10491000808181608083E8EDF0E080818F77808303
:1049200019BCE3E6F0E0808181608083109235035A
:1049300008950E94DF240E94E2248091D8008F779E
:104940008093D8008091D80080688093D8008091AF
:10495000D8008F7D8093D80084E089BD86E089BD32
:1049600009B400FEFDCF109236031092320310926C
:1049700034031092330342E060E080E00E94FE23A3
:104980008091E1008E7F8093E1008091E200816060
:104990008093E2008091E20088608093E200809141
:1049A000E0008E7F8093E0000895E3E6F0E08081F0
:1049B0008E7F808381E0809335030C94992410923C
:1049C000E20008951092E10008951F920F920FB631
:1049D0000F9211242F933F934F935F936F937F9385
:1049E0008F939F93AF93BF93EF93FF938091E100D9
:1049F00082FF0BC08091E20082FF07C08091E1003E
:104A00008B7F8093E1000E942C278091E10080FF42
:104A100019C08091E20080FF15C08091E2008E7F76
:104A20008093E2008091E20080618093E2008091B7
:104A3000D80080628093D80019BC85E0809336034B
:104A40000E947F218091E10084FF2BC08091E200D1
:104A500084FF27C084E089BD86E089BD89B5982F91
:104A6000917080FFFBCF8091D8008F7D8093D8001C
:104A70008091E1008F7E8093E1008091E2008F7E43
:104A80008093E2008091E20081608093E200809157
:104A90003203882309F443C084E0809336030E94E4
:104AA00080218091E10083FF29C08091E20083FF93
:104AB00025C08091E100877F8093E10082E08093B0
:104AC0003603109232038091E1008E7F8093E100E3
:104AD0008091E2008E7F8093E2008091E20080610D
:104AE0008093E20042E060E080E00E94FE2380913B
:104AF000F00088608093F0000E947E21FF91EF918A
:104B0000BF91AF919F918F917F916F915F914F91E5
:104B10003F912F910F900FBE0F901F90189580918D
:104B2000E30087FD93E090933603B9CF1F920F9275
:104B30000FB60F9211242F933F934F935F936F9370
:104B40007F938F939F93AF93BF93CF93DF93EF9315
:104B5000FF93D091E900DF708091EC00C82FC17005
:104B600080FDC0E81092E9008091F000877F80937B
:104B7000F00078940E94DA251092E9008091F0000C
:104B800088608093F000CD2BCF70C093E900FF9137
:104B9000EF91DF91CF91BF91AF919F918F917F91D5
:104BA0006F915F914F913F912F910F900FBE0F909A
:104BB0001F9018951F93CF93DF93CDB7DEB7AA97B9
:104BC0000FB6F894DEBF0FBECDBF87E393E0209110
:104BD000F100FC012193CF01F3E08F339F07B9F778
:104BE0000E948B218091E80083FF1EC180913703D2
:104BF000909138039A3008F017C1E92FF0E0E05E99
:104C0000F74D0C948A27803899F0823809F00CC14E
:104C100080913B038F70853008F006C18093E900D6
:104C20008091EB0085FB882780F91092E90006C08F
:104C30008091330390913403911182609091E80048
:104C4000977F9093E8008093F1001092F10080919B
:104C5000E8008E77E5C0882309F4D3C0823009F0DC
:104C6000E3C0809139038111D6C080913B038F70DE
:104C70002FEF280F243008F0D7C08093E90020914F
:104C8000EB0020FFC8C0933031F48091EB008062CC
:104C90008093EB00C0C09091EB0090619093EB008B
:104CA00021E030E001C0220F8A95EAF72093EA0064
:104CB0001092EA008091EB008860EACF8111B4C0C5
:104CC000109139031F778091E3008078812B8093C6
:104CD000E3008091E800877F8093E8000E943224FF
:104CE0008091E80080FFFCCF8091E3008068809392
:104CF000E30082E0111183E08093360395C0805871
:104D0000823008F091C08091390390913A038C3D34
:104D100023E09207A1F583E08A838AE289834FB773
:104D2000F894DE01139620E03EE051E2E32FF0E03C
:104D300050935700E49120FF03C0E295EF703F5F6E
:104D4000EF708E2F90E0EA30C0F0C7968D939D9360
:104D50002F5F243159F74FBF8091E800877F809300
:104D6000E8006AE270E0CE0101960E94452380913E
:104D7000E8008B778093E80057C0C096E7CF60913A
:104D80003B0370913C03AE014F5F5F4F0E94862250
:104D9000BC01892B09F448C09091E800977F90935B
:104DA000E80089819A810E94A123E1CF8038E1F552
:104DB0008091E800877F8093E800809132038093A0
:104DC000F10045CF811130C090913903923060F5E8
:104DD0008091E800877F8093E800909332030E94DF
:104DE000322480913203882311F084E005C0809141
:104DF000E30087FDFACF81E0809336030E94812192
:104E000013C080913903813079F481E0933009F047
:104E100080E0809334031092E9008091E800877F5E
:104E20008093E8000E9432248091E80083FF0AC04A
:104E30008091E800877F8093E8008091EB0080629A
:104E40008093EB00AA960FB6F894DEBF0FBECDBFDD
:104E5000DF91CF911F9108950895CF9380913603EC
:104E60008823A1F0C091E900CF709091EC00892FC8
:104E7000817090FD80E8C82B1092E9008091E800D5
:104E800083FD0E94DA25CF70C093E900CF91089589
:104E9000002480FD060E660F11F08695D1F7802D57
:104EA00008950024552704C0080E591F880F991F24
:104EB000009729F076956795B8F37105B9F7802DBD
:104EC000952F0895AA1BBB1B51E107C0AA1FBB1F4A
:104ED000A617B70710F0A61BB70B881F991F5A9586
:104EE000A9F780959095BC01CD01089597FB072EF9
:104EF00016F4009407D077FD09D00E94622707FCC2
:104F000005D03EF4909581959F4F089570956195D9
:104F10007F4F0895EE0FFF1F0590F491E02D099447
:104F2000FC014150504030F001900616D1F7319706
:104F3000CF010895882799270895FB01DC010D9082
:104F40000020E9F7119701900D920020E1F70895F4
:104F5000FB01DC018D91019080190110D9F3990BAF
:104F60000895FB01DC0101900D920020E1F7089506
:104F7000F999FECF92BD81BDF89A992780B5089521
:104F8000A6E1B0E044E050E00C94F227A8E1B0E0E4
:104F900042E050E00C94F227262FF999FECF92BD03
:104FA00081BDF89A019700B4021639F01FBA20BDEE
:104FB0000FB6F894FA9AF99A0FBE08950396272F20
:104FC0000E94CD270E94CC27252F0E94CD27242F79
:104FD0000C94CD270196272F0E94CD270C94CC2727
:104FE000DC01CB01FC01F999FECF06C0F2BDE1BDA9
:104FF000F89A319600B40D9241505040B8F7089598
:10500000F894FFCF5E095E09B609B609080A240ABA
:105010008B098B092F0ABB0ACA0ACA0A260B8B09FD
:105020008B092F0BA40BA40BAD0BAD0BAF0BAD0B72
:10503000AD0BAD0BA40BA40BB40BAD0BAD0BB40BB4
:1050400003262B2614272B2614275E267F261427BB
:04505000D626E22658
:1050540001FA00E803FA00FA00FFFFD80228086406
:105064001E140A321E000200020201FA20512130ED
:10507400212C212821012E2D2D2D2D002E2E2D2DDC
:105084002D002D2D2D2E2E002D2D2D2D2D002D2ED0
:105094002E2E2D002D2E2D2D2E002D2E2D2D2D00BE
:1050A4002E2D2E2D2D002D2D2E2D2D002D2D2D2E82
:1050B4002D002D2D2E2D2E002D2D2E2E2D002E2D9E
:1050C4002E2D2E2D002D2D2E2E2D2D002D2D2D2E61
:1050D4002E2E002E2E2D2E2D002E2E2D2D2E2E007A
:1050E4002E2E2D2D2E002E2D2E2E2D2E002E2D2D3E
:1050F4002D2D2E002D2E2E2E2E2E002E2D2E2E2E2C
:105104002E002E2E2D2E2E2E002E2E2E2D2E2E0047
:105114002E2E2E2E2D2E002E2E2E2E2D2D002D2E0B
:105124002D2E2E002E2E2E2E2E2E2E2E002E2E2EF8
:105134002E2E2E2E2D002D2E2E2E2E2E2E2E002EE9
:105144002E2D2E2E2D002E2E2D2E2D2E002E2E2DDC
:105154002D2E2D002E2E2D2D2D2E00E200E900EAFD
:1051640000B500B600B700CD008301CC008A0192DF
:105174000194012102230224022502260227022A85
:1051840002B300B4006F007000818283E200E90082
:10519400EA00B500B600B700CD008301CC008A0157
:1051A40092019401210223022402250226022702ED
:1051B4002A02B300B4006F007000818283000102F0
:0851C4000202050505050505C1
:00000001FF
