:100000000C948D020C94D4020C94D4020C94D4025F
:100010000C94D4020C94D4020C94D4020C94D40208
:100020000C94D4020C94D4020C94D4020C94AD31F0
:100030000C945E320C94482C0C94D4020C94D40290
:100040000C94D4020C94D4020C94D4020C949F2CE3
:100050000C94D4020C94D4020C94D4020C94D402C8
:100060000C94D4020C94D4020C94D4020C94D402B8
:100070000C94D40204000100010001000000000003
:10008000000000002A2B28000000000000000000F3
:100090000000000000000029000000002C1E342099
:1000A000212224342627252E362D3738271E1F20BF
:1000B0002122232425263333362E37381F04050604
:1000C0000708090A0B0C0D0E0F1011121314151648
:1000D0001718191A1B1C1D2F3130232D3504050646
:1000E0000708090A0B0C0D0E0F1011121314151628
:1000F0001718191A1B1C1D2F3130354C0000000039
:1001000000000000000000000000000000000000EF
:1001100000000000000000000000000000000000DF
:100120007E0F00D4FFFFFFC7000000786432147810
:100130003C1E000101010101010101010202020254
:100140000202020202030303030303030304040481
:10015000040404040505050505060606060607074A
:1001600007070708080808090909090A0A0A0B0B02
:100170000B0C0C0C0D0D0D0E0E0E0F0F0F101011A1
:100180001111121213131414151516161717181827
:1001900019191A1A1B1B1C1D1D1E1E1F202021228F
:1001A00022232424252626272829292A2B2C2D2DD5
:1001B0002E2F30313232333435363738393A3B3CF2
:1001C0003D3E3F404142434445464748494A4C4DE5
:1001D0004E4F50515354555658595A5B5D5E5F61AE
:1001E0006264656668696B6C6D6F70727375777841
:1001F0007A7B7D7E8082838587888A8C8E8F91939F
:100200009596989A9C9EA0A2A3A5A7A9ABADAFB1C5
:10021000B3B5B7BABCBEC0C2C4C6C9CBCDCFD1D4AA
:10022000D6D8DBDDDFE2E4E7E9EBEEF0F3F5F8FA50
:10023000FDFFFD377A585A000004E6D6B4460200A6
:10024000210116000000742FE5A3E0008C00795D09
:10025000003D8889C65436C3174FE4DD4D822BC656
:10026000F4D592E9A5755F54B9E327E3992A445E72
:100270009031DA2613B22523516D16A36A7516BF85
:10028000F7A97DD45A15819F6D1D9D1D94CC2EB567
:10029000FE1F0CCEC64C5A4A0C55164B7C4CA26124
:1002A000A04AAFAE2ED4012240BC6E30082907AA66
:1002B000B2B3CBC79E3E9F252A29B7F5A14DA5E92C
:1002C0000B866C8647CEA054470000000000647285
:1002D000537ECB46710D000195018D0100004C7ECF
:1002E0006FADB1C467FB020000000004595A010061
:1002F0000100560300000200020052030000030048
:10030000010057030000040002003C039C23050089
:10031000010058030000060002003E030000070031
:100320000200540300000800010059030000090006
:100330000200400377230A000200420377230B00E8
:100340000200440377230C000200460377230D00CC
:100350000200480377230E0002004A0377230F00B0
:1003600002004C037723100002004E037723110094
:10037000020050037723120002005A03000013000A
:1003800002005C0300001C037600690061006C0041
:100390003A00660036003400630032006200330029
:1003A0006300000008034400310050000000160301
:1003B00050004C0049005000200057006F007200B0
:1003C0006B00730000000403090409025B000301D1
:1003D00000A03209040000010301010009211101FC
:1003E00000012240000705810308000A09040100FA
:1003F000020300000009211101000122220007056B
:100400008203200001070503032000010904020004
:1004100001030000000921110100012281000705EC
:10042000840320000A120100020000000857500156
:10043000000000010203010660FF0961A1010962D9
:10044000150026FF00952075088102096315002616
:10045000FF00952075089102C005010902A10185E0
:10046000020901A1000509190129051500250195B9
:1004700005750181029501750381010501093009A6
:10048000311581257F95027508810609381581256A
:100490007F950175088106050C0A38021581257FB4
:1004A000950175088106C0C005010980A101850379
:1004B00019012AB700150126B700950175108100B2
:1004C000C0050C0901A101850419012AA00215012A
:1004D00026A002950175108100C005010906A10141
:1004E000050719E029E71500250195087501810226
:1004F0009501750881010507190029FF150026FFE0
:1005000000950675088100050819012905950575EE
:10051000019102950175039101C011241FBECFEF17
:10052000D4E0DEBFCDBF04B603FE27C080916F03C9
:1005300090917003A0917103B09172038730904B3A
:10054000A740B04BD1F410926F0310927003109239
:1005500071031092720314BE84B7877F84BF0FB6F5
:10056000F894A89580916000886180936000109253
:1005700060000FBEE0E0F8E3099511E0A0E0B1E013
:10058000EAE3FAE602C005900D92A83AB107D9F75E
:1005900023E0A8EAB1E001C01D92AF36B207E1F74F
:1005A0000E949D140C94E5340C9400009C013A9533
:1005B00021153F4150F5FC01EE27F170BC01662783
:1005C0007270AC01442754709C012227387094FF4C
:1005D0000EC080E1EF2B09F480E0672B09F0806208
:1005E000452B09F08064232B89F08068089581E011
:1005F000EF2B09F480E0672B09F08260452B09F0AE
:100600008460232B19F08860089580E00895CF93CB
:10061000DF93EC010E94D6029E01205E3109283052
:10062000310510F0209739F40E9447068C2FDF9196
:10063000CF910C94A7050E945506F8CFCF93DF9376
:10064000EC010E94F505CE010E94D6029E01205EBB
:1006500031092830310510F0CD2B21F4DF91CF91F5
:100660000C944E06DF91CF910C945C0681E00895C6
:1006700081E008950C94380308950C943C031F9373
:10068000CF93DF9300D000D00F92CDB7DEB7498370
:100690005A836B833091AA0189819A8131111DC0DF
:1006A0006623B9F02223A9F00E94640A182F682F4C
:1006B00089819A810E94030A69817A81812F0F9032
:1006C0000F900F900F900F90DF91CF911F910C948E
:1006D00066220E94380A182FEFCF0E94640A6981AF
:1006E0007A81EDCFFC01262F408151816281738197
:1006F00084810C943F0381E00895CF93DF93EC0154
:1007000060E00E947203BE01DF91CF910C943D0323
:10071000E1E0F0E0DF0102C0AA0FBB1F6A95E2F73B
:10072000BD01DF0102C0AA0FBB1F4A95E2F76A2B89
:1007300001C0EE0F2A95EAF7962F9823961302C070
:100740008E2B0895E0958E230895242F462F682F31
:100750008091B0010E9488030C94C0090E94C613C6
:100760000E9427050C94E1130E94ED2A0E94532752
:100770000C94E41380E00C942805089508950E94D9
:1007800079060E94BE032FEF84E39CE02150804055
:100790009040E1F700C000000C94C32C0F931F930E
:1007A000CF93DF93EC018B010E94422AB801CE0166
:1007B0000E94561C882309F456C0B801CE010E943D
:1007C000E220882309F44FC0B801CE010E943A0309
:1007D000882309F448C0B801CE010E94882A8823E2
:1007E00009F441C0B801CE010E948C278823D9F1B9
:1007F000B801CE010E9493298823A9F1B801CE0146
:100800000E94FF24882379F1B801CE010E94C428F8
:10081000882349F1B801CE010E94341B882319F1C5
:10082000F8018281882361F0CA35FDE5DF0721F1F7
:1008300070F4C115ECE5DE07A1F0CE3DDC45C9F052
:10084000C801DF91CF911F910F910C943603CB35E6
:100850008DE5D807A1F0CC35DD4591F70E943C101D
:10086000EFCF0E94BF0380E0DF91CF911F910F91E6
:1008700008950E94F510F7CF0E944510E1CF0E9425
:100880004810DECFCF93DF93EC0161E00E9472034A
:10089000BE01DF91CF910C94CE030C94BD030E9456
:1008A000492B0E9428050C944D04DF92EF92FF9291
:1008B0000F931F93CF93DF93E82FF0E0E458FF4F9F
:1008C000D490282F26952695269530E0F901E45EF0
:1008D000FE4F0491877010E0082E02C01595079511
:1008E0000A94E2F701701127F901E45FFE4FE490EA
:1008F000F12C082E02C0F594E7940A94E2F791E0F7
:10090000E922FF24F901E450FF4FC491D0E002C076
:10091000D595C7958A95E2F7C170DD2701151105B8
:1009200019F081EE0E94A705E114F10419F086EE9A
:100930000E94A7058D2D0E943B06EF2819F086EE38
:100940000E94F505012B19F081EE0E94F505CD2BD3
:1009500051F08CE2DF91CF911F910F91FF90EF90BA
:10096000DF900C943B06DF91CF911F910F91FF9088
:10097000EF90DF900895EF92FF921F93CF93DF9354
:10098000EC01162F8881882309F451C0813009F0C9
:100990004BC08981813099F47E0122E0E20EF11C86
:1009A0008A810E943B06E7012196812F815050F3F6
:1009B000EFE9FFE03197F1F700C00000F7CF823098
:1009C00041F47E0182E0E80EF11C8A810E94A705B5
:1009D000EACF833041F47E01E2E0EE0EF11C8A8121
:1009E0000E94F505E0CF843011F02196DDCF2A81F9
:1009F000229690E080E0FE0131962053330B2A309E
:100A0000310548F0019780F2EFE9FFE03197F1F707
:100A100000C00000F7CF6AE070E00E941934820F36
:100A2000931F2981EF01E7CF0E945504BDCFDF91CD
:100A3000CF911F91FF90EF90089560E00C94BB045C
:100A400008950C94200581E008950C9423050895E1
:100A5000CF93C82F0E9421058C2FCF910C94250590
:100A6000019708F40895EFE9FFE03197F1F700C02E
:100A70000000F6CFCF93DF93CDB7DEB72B970FB63D
:100A8000F894DEBF0FBECDBF4F83588769877A8742
:100A90008B878A859B85892B29F0CA0189238F3F03
:100AA00009F046C0898581110E944E0F1E821D8269
:100AB00085E0FE013796DE01119601900D928A9530
:100AC000E1F780912C0382FD12C080913E0390914A
:100AD0003F03892B61F00E940A0F882319F082E0FE
:100AE0000E940B100E94E60E81110E94950F8C81CE
:100AF0009D81892B89F449815A816B817C818D810B
:100B00009E810E94310E2B960FB6F894DEBF0FBE69
:100B1000CDBFDF91CF91089589819A8189238F3F3D
:100B200051F3CE0101960E947B038111E4CFEBCFFC
:100B30008091AB019091AC0101969093AC018093B0
:100B4000AB01B0CFFC01808191810C94910ACF93CD
:100B5000C82F882309F447C08CEF8C0F813AA0F48A
:100B60006C2F80910001909101010E94AC2B882391
:100B700029F08C2F0E94D60E0E94A30F8C2F0E946A
:100B8000CF0ECF910C94A30F80E28C0F883048F4E5
:100B9000C77081E001C0880FCA95EAF70E942E0F46
:100BA000F0CFEBE5EC0FE33040F4F0E0E65AFE4F17
:100BB000808190E0CF910C946E2BE8E5EC0FE7314B
:100BC00050F4F0E0EE0FFF1FE45DFE4F8081918155
:100BD000CF910C94842BC03F30F08C2F0E943315A2
:100BE000CF910C941E16CF910895882361F19CEF4C
:100BF000980F913A20F40E94D60E0C94A30F90E225
:100C0000980F983050F4877091E001C0990F8A9541
:100C1000EAF7892F0E94340FF0CF9BE5980F9330AD
:100C200020F490E080E00C946E2B98E5980F9731BB
:100C300020F490E080E00C94842B803F20F00E9410
:100C40009B150C941E1608951F93CF93DF93182FB6
:100C5000EB010E94A705209731F4812FDF91CF91FE
:100C60001F910C94F5058FE99FE00197F1F700C003
:100C700000002197F0CF60915C0370915D03893390
:100C800021F060915A0370915B030C942406882331
:100C900021F00E942E0F0C94A30F0895882321F0B9
:100CA0000E94340F0C94A30F0895882321F00E9412
:100CB000410F0C94A30F0895882321F00E94470F41
:100CC0000C94A30F089590E080E00E946E2B90E0BA
:100CD00080E00E94842B0E944E0F0E945E0F0E94B3
:100CE000A30F0E944F170C941E160E94DD0E0C9449
:100CF00063060E943B0F0C947506E92FE295EF7096
:100D0000E250EE3070F4F0E0E951FB4C0C945234B8
:100D1000803F19F020F4883E20F481E00895843F5C
:100D2000E1F380E00895883EC0F3813FD1F7F5CF2D
:100D300093FB882780F90895FC01808191810E94AE
:100D4000910A0C947D06BF92CF92DF92EF92FF92B0
:100D50000F931F93CF93DF937C01EB01FC01128172
:100D6000058102950F700E94240FC82E8823B9F0C8
:100D7000C12E1123A1F08D2F807F803421F080E2DD
:100D80008C0F8830B0F080912C0382FD12C082E07D
:100D90000E940B100E94240F91E0C82EC926BD2E80
:100DA000B2942FE0B222EB2DF0E0EB50FB4C0C9410
:100DB0005234C12CF4CFFD2FFF70DF2E8D2F807F9A
:100DC00019F0D29490EFD922112399F0DD2059F037
:100DD00080E28C0F883010F0C11107C08D2D0E9469
:100DE0002E0F0E94A30F8C2F52C08D2D0E94410FF9
:100DF000F8CF8C2F0E94F505DD2009F450C080E269
:100E00008C0F883010F0C11104C08D2D0E94340F5A
:100E100003C08D2D0E94470F0E94A30F40C02D2FAD
:100E20002F70D22E8D2F807F803219F0D29480EFD8
:100E3000D822CC23F1F0C13009F49BC0112309F46E
:100E4000A2C0002309F477C020E0F701408151815E
:100E50006281738184810E943F03B7010E94B9249B
:100E60008111C1CFF701858180FFBDCF8F70858350
:100E700062C080912C0382FF41C0112359F0DD2014
:100E800029F08D2D0E942E0F0E94A30F80E00E945A
:100E9000A70505C080E00E94F505D110B6CFEB2D67
:100EA000E850FF0B349720F40E94492B0E9428053C
:100EB000CE010E947D068111B7C11092AC01109243
:100EC000AB01CC2009F4D1C10E94060F80FDCDC139
:100ED000F70112820E94000F0E94D109C7010E94EF
:100EE00056090E94000FDF91CF911F910F91FF9043
:100EF000EF90DF90CF90BF900C94DC091123E9F0C4
:100F0000011106C00E94610F8D290E944706C7CFBC
:100F1000013031F40E94610F8D290E947D0FBFCFF7
:100F200080915803823070F38013ECCF0E94950FAC
:100F30008D2D0E94670F8D2DE8CF011106C00E94F4
:100F4000950F8D2D0E944E06AACF80915803013037
:100F500059F4823008F4A3CF0E942B0F8D2109F49D
:100F60009ECF0E94700FEBCF823048F30813E7CF7B
:100F700096CF112321F0063008F091CFDCCF053059
:100F800008F08DCFDECF0023E1F280915C039091D9
:100F90005D03C93321F080915A0390915B030E9455
:100FA00030058C2F0E94F5057ACF8D2F869586957A
:100FB000837061F0813009F072CFCE01937011110E
:100FC00002C090E080E00E94842B69CFCE01937034
:100FD000111102C090E080E00E946E2B60CF8C2F38
:100FE000112329F00E9433150E941E1658CF0E942B
:100FF0009B15FACF8D2F837081F5111150CF4C2F97
:10100000429546954770440F440F8C2F8F70042EE5
:1010100001C0880F0A94EAF72C2F2071C4FF07C083
:101020002FE030E001C0220F4A95EAF720959D2F6E
:10103000969596959370822B923049F058F49130A2
:1010400019F00E94B2092BCF0E94AD0928CF0E944F
:10105000B70925CF0E94AB0922CF8695112311F045
:101060008D2F8170882309F41ACF4C2F4295469515
:101070004770440F440F8C2F8F70042E01C0880FCF
:101080000A94EAF72C2F2071C4FF07C02FE030E04C
:1010900001C0220F4A95EAF720959D2F96959695C7
:1010A0009370822B923049F058F4913019F00E94DD
:1010B000F809F5CE0E94F309F2CE0E94FD09EFCEA9
:1010C0000E94C009ECCEFD2FFF70DF2E112329F006
:1010D0008F2F0E94D1098C2F18CF8C2F0E944E0683
:1010E0008D2D0E94DC09DBCEC23F41F160F4C03F90
:1010F000B9F0C13F81F0112309F481C0011173CE11
:101100008D2F8F711FC0C33F01F1C43FA1F78091A4
:101110002C0382FF24C08D2F8F71112311F312C075
:10112000112341F0053008F0BACE8D2F8F710E9447
:10113000E809B5CE063008F0B2CEF7CF8D2F8F710B
:101140001111CFCF0E94D109AACE112329F08D2FE2
:101150008F710E94C909A3CE0E94C609A0CE8091BA
:1011600058038230A8F11123F9F00E94E30E0E9487
:10117000340F0E94060F843041F40E9402108D2F1C
:101180008F710E94DC09C12C8ACE80915803081708
:10119000D0F72D2F2F71D22E822F0E94D10963E01C
:1011A0008D2D0E94E60FEFCF0E94E30E0E942E0FBE
:1011B00080915803081740F00E9402100E94700F9F
:1011C00064E08D2F8F71EDCF81E00E940B10DBCF9B
:1011D000112359F03D2F3F71D32E832F0E94D10947
:1011E00063E08D2D0E94E60F5ACE81E00E940B1025
:1011F000023008F454CE82E00E940B1050CE011150
:10120000C4CE8D2F8F716DCF4D2F4F706C2FC701B6
:101210000E94A8110E94BF0A42CE4D2F4F706C2F22
:10122000C7010E94AB113BCE112319F0011145CE2D
:1012300048CE011142CE20E0F70140815181628108
:10124000738184810E943F03B7010E94C4248823D4
:1012500009F433CE8091AB019091AC01029709F073
:101260002CCE8C2F0E943B0628CEDF91CF911F9170
:101270000F91FF90EF90DF90CF90BF9008950F9364
:101280001F93CF93DF93EC01688179818A810E945B
:101290009B0A8C010E94020A0E94AA09B801CE0191
:1012A000DF91CF911F910F910C94A306CF93DF9301
:1012B000EC018B819C81892B29F08881998189237C
:1012C0008F3F59F4DF91CF910895CE010E943F09DD
:1012D000CE01DF91CF910C947D03CE010E94420498
:1012E0008111F3CF0E94240F882361F38A81882320
:1012F00049F380912C0382FDE5CF82E0DF91CF910D
:101300000C940B10CF93DF9300D000D00F92CDB789
:10131000DEB70F900F900F900F900F90DF91CF914D
:101320000895CF93DF9300D000D000D0CDB7DEB7C3
:1013300026960FB6F894DEBF0FBECDBFDF91CF91DA
:10134000089508950C94A1090E94A2098093B10107
:101350000C94630608950C94A4099091B101892B13
:101360000C94A4099091B10189230C94A409909143
:10137000B10189270C94A4090C94A1090C94BC090F
:101380000E94BE098093B0010C94630680E00C9427
:10139000C00991E001C0990F8A95EAF7892F0C9452
:1013A000C00921E030E001C0220F8A95EAF7809160
:1013B000B001822B0C94C00921E030E001C0220F63
:1013C0008A95EAF720958091B00182230C94C00998
:1013D00021E030E001C0220F8A95EAF78091B00148
:1013E00082270C94C0099091B001892B0C94C009FC
:1013F0009091B00189230C94C0099091B001892784
:101400000C94C0090895CF93DF93262F9E3F69F176
:10141000980F892F8770E1E001C0EE0F8A95EAF7F7
:10142000969596959695892F90E063E070E00E94DE
:101430001934DC01A355BE4F50E040E0622F70E04C
:101440008D91ED0121979B01042E02C036952795C1
:101450000A94E2F72170219528272E232827288334
:101460004F5F5F4F4330510559F7DF91CF9108959A
:101470009E3F41F1980FA92FA77096959695969546
:10148000892F90E063E070E00E941934FC01E3557D
:10149000FE4F50E040E080E0219130E00A2E02C093
:1014A000369527950A94E2F721703327042E01C060
:1014B000220F0A94EAF7822B4F5F5F4F43305105AA
:1014C00059F7089580E00895CF92DF92FF920F932D
:1014D0001F93CF93DF936C010091B0018091B10114
:1014E000082BC7E0D0E010E0FC2EC8010C2E02C093
:1014F000959587950A94E2F780FD0CC02197A0F797
:10150000F12C8F2DDF91CF911F910F91FF90DF90E4
:10151000CF900895B6018C2F0E94CE12019771F3DF
:10152000F0CFCF93DF93EC010E94640ABE01DF91FC
:10153000CF910C94CE121F93CF93DF93EB01909138
:10154000AA01992331F0CB01DF91CF911F910C9427
:10155000910A882379F0CB010E94640A182F682F22
:10156000CE010E94030ABE01812FDF91CF911F910E
:101570000C94CE12CB010E94380A182FF4CFEF92B0
:10158000FF920F931F93CF93DF938C01892B81F0F0
:10159000F12CEE24E394E8012196F801849184373C
:1015A00070F4843008F05FC08130B1F08230A1F176
:1015B000DF91CF911F910F91FF90EF9008958537A4
:1015C00009F44CC008F43DC09CE7980F903780F7B1
:1015D0008F770E94F50549C00E5F1F4FFE01849171
:1015E00090E2980F983060F48770FE2D01C0FF0FD5
:1015F0008A95EAF78F2F0E94510F0E94A30F02C015
:101600000E94A7058F2D815030F2EFE9FFE031975E
:10161000F1F700C00000F7CF0E5F1F4FFE0184916D
:1016200090E2980F983050F48770FE2D01C0FF0FA4
:101630008A95EAF78F2F0E94570FDFCF0E94F5059A
:10164000E1CF0E5F1F4FFE01C491C150D8F28FE968
:101650009FE00197F1F700C00000F7CF0E5F1F4F2A
:10166000FE01F490CFCF0E94A7058E01CBCFCF9380
:10167000DF93C091B2018091B3018C1303C0DF915D
:10168000CF910895D0E0CE0166E070E00E94193459
:10169000FC01EC54FE4F4081518162817381848151
:1016A00095810E9491092196C770E5CF4091E40190
:1016B0005091E5016091E6017091E7018091E801A8
:1016C0009091E9010C949109CF93B82FC62F2091E6
:1016D000B201A091B3012A1303C080E0CF91089515
:1016E00030E0C90166E070E00E941934FC01EC545E
:1016F000FE4F81818C1306C080818B1303C08281D1
:10170000841304C02F5F3F4F2770E5CF81E0E6CF01
:101710000F931F93CF93DF938091E901807F31F482
:101720008091E601C091B201811116C0DF91CF9185
:101730001F910F910895A091E701B091E801D0E0C9
:10174000109741F02091E4013091E501822F83232D
:101750008F3F39F42196C7708091B3018C13EBCF82
:10176000E5CFCE0166E070E00E941934FC01EC5434
:10177000FE4F81818313EECF80818213EBCF828174
:101780008111E8CF038114810A1B1B0B60E084EEFA
:1017900091E00E94720364EE71E00E94B024081789
:1017A0001907C0F68091E9018F7080618093E9018B
:1017B000CE0166E070E00E941934FC01E754FE4F50
:1017C00090819F709061908384EE91E00E94560911
:1017D000DF91CF911F910F910C94370B4F925F9235
:1017E0006F927F928F929F92AF92BF92CF92DF9231
:1017F000EF92FF920F931F93CF93DF93CDB7DEB796
:1018000061970FB6F894DEBF0FBECDBF8C0185E0A7
:10181000F801DE011D9601900D928A95E1F7D8013D
:101820004C9011965C90119712967C90129713969B
:10183000ED90FC9060E084EE91E00E9472036C01F8
:1018400084EE882E81E0982E2091E7013091E80106
:101850002115310541F08091E4019091E501892342
:101860008F3F09F0ABC1711000C1C8010E94560939
:1018700078C0B801C6010E94B5248111D1C1EF28FA
:1018800029F0852D84218F3F09F005C180E0B82F14
:10189000B170EB2E80FF29C0472D652D842D0E944D
:1018A000640BF82E811121C04D865E868D859E8544
:1018B0000E94910A292F22952F70223050F0243057
:1018C00078F49F7051F0F8019581907F31F46F2C7E
:1018D00004C19F7011F08823D1F3805E8830B8F383
:1018E000C8010E945609FE2CF2CF772009F4F5C0FA
:1018F0008091E90181608093E901612CEEC0892B20
:1019000049F08091E4019091E501282F29232F3F90
:1019100009F0FBC0C8010E949C06882309F4A5CFEA
:10192000772009F4A2CF8091E901803270F02091F4
:10193000E4013091E50138872F831986FB86EA861A
:101940008C87CE0107960E94560986E0F801A4EE26
:10195000B1E001900D928A95E1F70E94880B0E94F8
:10196000560B66246394B9C0211112C07E2DF98AEA
:10197000E88AA201672D89890E94820984EE91E09C
:101980000E94560986E0F40111928A95E9F766C132
:101990008091E7019091E801892B49F08091E40161
:1019A0009091E501282F29232F3F09F0CAC0C801D3
:1019B0000E949C06882309F458CF772009F455CF5C
:1019C0008091E901803208F22091E4013091E50133
:1019D0003A8329831B82FD82EC828E83CE0101969D
:1019E000B2CF60E084EE91E00E94720364EE71E099
:1019F0000E94B024A816B90650F5672C772009F488
:101A000034CF8091E7019091E801892B49F08091D2
:101A1000E4019091E501282F29232F3F09F0ABC065
:101A2000C8010E949C06811190CF8091E9018160DC
:101A30008093E901C8010E9456094FC086E0F80171
:101A4000A4EEB1E001900D928A95E1F746C07E2D9B
:101A5000F98AE88AA201672D89890E94820986E0B5
:101A6000F40111928A95E9F769C0C8010E949C06A9
:101A7000682E882309F4F9CE86E0F801A4EEB1E0DF
:101A800001900D928A95E1F784EE91E00E94A20503
:101A90000E94880B53C081E08725F9CE81E087251D
:101AA000C8C0D80111962C912913B2C0F8019081B9
:101AB0009813AEC07110ACC08091E9018F70806145
:101AC0008093E9010E94560B84EE91E00E94560932
:101AD0008091E901D80115968C93862D61960FB6F9
:101AE000F894DEBF0FBECDBFDF91CF911F910F9154
:101AF000FF90EF90DF90CF90BF90AF909F908F902E
:101B00007F906F905F904F900895F8012181291385
:101B100001CFD8019C919813FDCE8091E9017110FD
:101B2000F9CE15968C93C8010E94560986E0F801FB
:101B3000A4EEB1E001900D928A95E1F70E94560B58
:101B4000CCCFD80111962C91291331CFD8019C917B
:101B500098132DCF71102BCF8091E90115968C939E
:101B6000C8010E945609E4EEF1E086E0DF011D9213
:101B70008A95E9F7B2CFF8012181291351CFF801F5
:101B8000908198134DCFB801C6010E94BE248111E7
:101B900055CF8091E90180FD51CF982F907F09F4B6
:101BA0004DCFD80115968C931597903F09F4BBCF74
:101BB000982F907F905F8F70892BB3CF6090E60154
:101BC0005701A21AB30A662009F40BCF60E084EE35
:101BD00091E00E94720364EE71E00E94B0242091B3
:101BE000E901207FA816B90608F0BECE8091E70172
:101BF0009091E801211183CE672C892B49F08091C7
:101C0000E4019091E501282F29232F3F09F049CFC6
:101C1000B801C6010E94B024843F914008F429CE47
:101C2000E114F10429F0852D84218F3F09F036CF8E
:101C300080E080FF24CE472D652D842D0E94640B0B
:101C4000882309F41CCE84EE91E00E94560986E0B8
:101C5000E4EEF1E0DF011D928A95E9F70E94560B50
:101C60004CCECF93DF93CDB7DEB72C970FB6F89459
:101C7000DEBF0FBECDBF4F83588769877A878B87BA
:101C80009C87CE0107960E94EE0B8823D1F08A85AF
:101C90009B85892B39F04F815885842F85238F3F71
:101CA00009F076C08091B2019091B301891349C0C7
:101CB0002C960FB6F894DEBF0FBECDBFDF91CF914B
:101CC000089586E0FE013796DE01119601900D928F
:101CD0008A95E1F78A859B85892B21F38F819885E9
:101CE00089238F3FF9F28091B30190E09C012F5F2F
:101CF0003F4F277033274091B2014217130671F40A
:101D00000E9479061092B3011092B20186E0E4EECF
:101D1000F1E0DF011D928A95E9F7C4CF66E070E03B
:101D20000E941934DC01AC54BE4F96E0FE0131969E
:101D300001900D929A95E1F72093B3010E94370B21
:101D4000B1CF90E066E070E00E9419348C549E4F51
:101D50000E94EE0B882309F4ABCF8091B20190E092
:101D600066E070E00E941934FC01EC54FE4F4081A3
:101D7000518162817381848195810E949109809152
:101D8000B20190E00196877099278093B2018ACFC3
:101D900069857A858B859C850E94910983CF682F00
:101DA00080910001909101010C94E22B682F8091A9
:101DB0000001909101010C94E42B8091000190911D
:101DC00001010C94E62B8091EF01089580913E0370
:101DD00090913F03892B89F00E94782C2091ED018E
:101DE0003091EE01AC01421B530B81E020913E0388
:101DF00030913F034217530708F480E08170089543
:101E00008091EC0185958595859508958091EC01EB
:101E1000877008950E94782C2091EA013091EB019F
:101E2000821B930B20913E0330913F03821793074F
:101E300048F08091EC0182FB882780F991E08927A6
:101E40008170089580E0FCCF9091EC01977081E063
:101E500009F480E008958091FB0108959091FB01C1
:101E6000892B8093FB01089580959091FB01982325
:101E70009093FB0108951092FB0108958091FA015F
:101E800008959091FA01892B8093FA010895809525
:101E90009091FA0198239093FA0108951092FA0113
:101EA00008959091F901892B8093F9010895809507
:101EB0009091F90198239093F90108951092F901F6
:101EC00008958091F001089508950C94640F909105
:101ED000EF01981721F08093EF010C94650F08959E
:101EE0008091EF01882329F01092EF0180E00C949B
:101EF000650F089508950C947A0FCF93C82F8091A1
:101F00002C0382FD10C08091F0018C1761F00E94BB
:101F1000782C9093EE018093ED01C093F0018C2F0B
:101F2000CF910C947B0FCF9108958091F00188237D
:101F300049F01092F0011092EE011092ED0180E054
:101F40000C947B0F0895E0910001F09101018091C4
:101F5000FB018083E0910001F0910101808190916B
:101F6000FA01892B8083E0910001F09101018081C9
:101F70009091F901892B80838091F0018823E9F009
:101F800080913E0390913F03892B29F00E94E60E39
:101F900081110E94950FE0910001F0910101808173
:101FA0009091F001892B8083809100019091010133
:101FB0000E949A2B81110E94950F809100019091AF
:101FC00001010C94552B08950C94E30F90912C0370
:101FD00092FD16C0982F990F990F990F962B9093F9
:101FE000EC010E94D1090E94782C9093EB01809320
:101FF000EA018091EC018595859585950C94E40F17
:102000000C94D1091092EC011092EB011092EA01AC
:1020100080E00C94E40F9091EC01809589238093EB
:10202000EC01282F277091F4282F082E000C330B79
:102030009217130659F090912C0392FD07C08595D5
:10204000859585950E94DC090C9402100895909165
:102050002C0392FB222720F9281769F080FB92F9C4
:1020600090932C0380912B0390912C030E9472106B
:1020700082E00C940B10089580912C0382FB88273A
:1020800080F991E089270C94271081E00C942710A7
:1020900080E00C9427106FEF7FEF90E080E00C94CD
:1020A000C73490E080E00E94A3348A3E9E4F11F432
:1020B0000C94FF1B80E0089582E090E00C9495342E
:1020C00083E090E00C949534CF9384E090E00E94FC
:1020D0009534C82F82E290E00E949534982F8C2F7F
:1020E000CF910895CF93C92F682F84E090E00E948C
:1020F000A9346C2F82E290E0CF910C94A934AB010B
:10210000BC018FE090E00C94BB34AB01BC0183E1D7
:1021100090E00C94BB3460E070E0CB010C9485102F
:1021200060E070E0CB010E947F100C948B106AEE8F
:102130007EEF90E080E00E94C73460E082E090E0B3
:102140000E94A93460E083E090E00E94A9341092DC
:10215000B10160E084E090E00E94A93460E082E296
:1021600090E00E94A93460E085E090E00E94A934EC
:1021700060E086E090E00E94A9346FEF87E090E095
:102180000E94A93440E050E0BA0188E090E00E944B
:10219000BB3460E08DE090E00E94A93440E050E064
:1021A000BA0188E190E00E94BB3460E087E190E0F2
:1021B0000E94A93440E050E0BA018CE190E00E9416
:1021C000BB3470E060E080E290E00E94C73440E001
:1021D00050E0BA0188E190E00E94BB3480E00E94A8
:1021E000181C0E943E1C0C9490100C949710682FA1
:1021F0008EE090E00C94A9340E94842C609302023B
:102200007093030280930402909305026093FE0191
:102210007093FF0180930002909301020895089546
:1022200008950C940F1108950C9413118CEA93E106
:102230000E943F2B0E94C41F0E94BE230E941011C7
:102240000C94111181E008950C94221108950895C1
:102250000E9426110C9427110E946F2C0E944D1C85
:102260000E9429140E94861A0C9414110F931F9334
:10227000CF93DF93CDB7DEB72A970FB6F894DEBFC2
:102280000FBECDBF0E94341481110E94FC1080E06B
:102290000E94E613182F8091FD01082F0127811756
:1022A00039F08091060281FD0E94EC1300FD2AC0E6
:1022B0008FEF89838A831B820E94782C8160782F1C
:1022C0009D838C8349815A816B818D810E943A055F
:1022D0000E94C11A0E9439160E94492B9091FC015C
:1022E000891759F10E94492B8093FC012A960FB659
:1022F000F894DEBF0FBECDBFDF91CF911F910F913C
:102300000C9428050E942411882381F01E821F82CC
:10231000117018870E94782C8160782F9A8789879E
:102320004E815F8168858A850E943A058091FD0112
:1023300091E089278093FD01CBCF2A960FB6F894C0
:10234000DEBF0FBECDBFDF91CF911F910F910895DA
:1023500090E080E008950895FC01EE0FFF1FE45D1A
:10236000FE4F859194910895CF93DF930E94D212EE
:10237000EC01811520E5920708F042C0811530E498
:10238000930708F0BFC0883E910528F5803E91056F
:1023900008F0A0C0883A910588F4853A910508F0C4
:1023A00092C08130910509F495C0009709F492C05C
:1023B000049708F08FC0D0E0C0E08CC08F3B91053F
:1023C00008F48CC0805C9109C03CD105A0F30E9448
:1023D000AC11EC017FC0811540E2940750F4C115A7
:1023E00081E0D80708F076C0C03FD10520F3D06562
:1023F00071C0811520E3920708F07BC09F70E7CF82
:10240000811535E5930770F5811544E5940708F0CB
:10241000ADC0C11582E5D80750F4C11521E5D2073A
:1024200008F473C0DC2FCC27C16FD06A53C09C2F37
:10243000969596959E0123703327C115D34508F0D4
:1024400083C0C1E0D0E002C0CC0FDD1F2A95E2F7C7
:10245000892F90E0E5E0880F991FEA95E1F7C82BF6
:10246000D92B70C0C11589E5D807A8F4C11528E596
:10247000D20708F080C0C11536E5D30708F09BCF1E
:102480008C2F0E946913C82FD0E0DC2FCC27CC27DB
:10249000DF71D0621FC0C1154AE5D40708F470C0CF
:1024A000CE0190568115904208F085CF8D2F8F7107
:1024B0000E94691390E0982F882788279F719C01BC
:1024C0002C2BE901E6CFC55AD0E0C557DE4FC881B5
:1024D000D0E0D064CE01DF91CF910895C85AD0E00A
:1024E000CC0FDD1FC35ADE4F0990D881C02DD464B4
:1024F000F1CF9927D3FF03C0EC01D86CEBCFEC01EF
:10250000D06CE8CFDF70D06AE5CFCE01A4E096951D
:102510008795AA95E1F783702C2F26952695237031
:1025200030E0B5E0220F331FBA95E1F7382B8C2F3E
:102530008370C1E0D0E002C0CC0FDD1F8A95E2F7C6
:10254000C22BD32BDC68C6CFC1E0D0E002C0CC0FD9
:10255000DD1F2A95E2F7892F90E075E0880F991F1B
:102560007A95E1F7C82BD92BDA68B4CFD82FCC27CE
:10257000C46FD06AAFCFDC2FCC27C06FD06AAACF90
:102580008C2F8F700E94691334E0D695C7953A95C9
:10259000E1F7CF709C2FEC01D0699CCF0E9466229E
:1025A0000C94B41182389105B1F1B0F481339105E6
:1025B00009F475C048F48932910509F469C08A327A
:1025C000910509F473C008958533910509F459C044
:1025D0008933910501F10895833E9105A9F138F4FD
:1025E000803E9105F9F0823E910549F10895863EBD
:1025F0009105A9F1873E9105C9F1843E910519F530
:1026000020912C0321FF1FC080912B0384FD14C057
:1026100087EE90E0089520912B032370A1F080EEC7
:1026200090E0089520912B0320FD47C030912C03AA
:1026300030FF09C024FF44C090E080E004C0209136
:102640002B0322FDF7CF089520912B0322FD3BC0E1
:1026500030912C0330FDE3CF24FFF5CFEDCF209157
:102660002B0323FFF0CF24FDE7CFD2CF20912B0304
:1026700023FD2CC030912C0331FFEECF84EE90E08F
:10268000089520912B0325FFDECF89E290E0089585
:1026900020912B0325FFD7CF85E390E0089520916B
:1026A0002B0326FFD0CF8AE290E0089520912B03E0
:1026B00026FFC9CF81E390E0089589E390E0089573
:1026C00083EE90E0089582EE90E0089586EE90E02B
:1026D000089590912B0392FF06C0282F287128306F
:1026E000F9F4877F846093FF06C0282F2871283172
:1026F000F1F4877E846120912C0320FF06C0382FDF
:1027000038713830D9F4877F816021FF06C0282FC7
:1027100028712831D1F4877E816194FD877E0895E8
:10272000282F24712430F9F68B7F8860DCCF282F86
:102730002471243101F78B7E8861DDCF382F317110
:10274000313019F78E7F8860E0CF282F2171213139
:1027500021F78E7E8861E1CF80E008950C944B10C4
:102760000E9434148FE39CE90197F1F700C0000048
:102770000E94341480E00E94E61380FF04C00E948F
:10278000AE130C94C32C08950C94B0130E945110F6
:10279000811102C00E94F5100E945C108093060215
:1027A0000E94641090932C0380932B030E94C41307
:1027B0000E9460100E94AB098091B0010C94BE0988
:1027C00008950C94E01308950C94E313E82FF0E0BF
:1027D000E25DFC4F80810895089580EA8A95F1F7C3
:1027E000089500C008950C94ED13F89427982F9A3B
:1027F000789408950E94F513F89452985A9A789410
:102800000895EF92FF921F93CF93DF937C01162FD1
:10281000F894279A2F9878940E94F113C9B1D0E0C8
:10282000D595C795D595C795C095D0950E94F513B8
:102830006C2F6170812F0E94F313F701E10FF11DDE
:10284000C170DD27C083DF91CF911F91FF90EF9082
:1028500008950E94FA1310922E0310922D0381E026
:102860000E945A140C94AE031F93CF93DF930F92E0
:10287000CDB7DEB7198260E0CE0101960E94011447
:1028800090912D03898111E0981301C010E09813F5
:1028900080932D03212F41E06EE273E08DE293E0FF
:1028A0000E945B140E94B403812F0F90DF91CF919F
:1028B0001F9108950895FF920F931F93CF93DF9375
:1028C000F82E092F162FD72FC42F222349F081E08D
:1028D000809309020E94782C90930802809307024B
:1028E000809109028823A1F080910702909108024B
:1028F0000E94902C059760F0EF2DF02FA12FBD2F97
:10290000CE0FDF2FD11DEC17FD0741F41092090205
:10291000DF91CF911F910F91FF90089581918D9339
:10292000F2CF0E94982E0E942C110C94A42E0E948B
:10293000A82E0E9436110C94C22E0E94072C0E94D1
:102940007F2E0E9416110E9491140E9497140E94DB
:102950002811FBCF80911002209144033091450350
:1029600080FF13C08091070190E0B9010E941934E3
:102970009C01369527953695279520383105A0F589
:102980002115310599F1822F089581FF0AC08091A8
:10299000070190E0B9010E9419349C0136952795F2
:1029A000ECCF82FF08C08091070190E0B9010E943E
:1029B00019349C01E2CF80910F028823F1F24091FB
:1029C00006016091070170E0841710F0C901EFCF94
:1029D00090E00E941934B9010E941934642F70E00C
:1029E0000E942A349B01C9CF8FE7089581E00895A2
:1029F0008091100280FF0CC06091030170E075951A
:102A00006795759567956115710559F1862F08953C
:102A100081FF06C06091030170E075956795F3CF63
:102A20006091030170E082FD0CC060910E0266238C
:102A3000A9F0209102018091030190E0621730F02B
:102A4000BC0160387105F8F28FE7089570E00E94CC
:102A50001934622F70E00E943E34F3CF61E070E0E1
:102A6000D5CF81E00895803F31F40E94AA1481956A
:102A7000809314020895813F19F40E94AA14F8CF9C
:102A8000823F31F40E94AA14819580931302089525
:102A9000833F19F40E94AA14F8CF893F29F40E94B9
:102AA000F8148093150208958A3F21F40E94F814C7
:102AB0008195F7CF8B3F31F40E94F8148195809374
:102AC000160208958C3F19F40E94F814F8CF843F41
:102AD00031F4809112028160809312020895853F43
:102AE00021F4809112028260F7CF863F21F4809119
:102AF00012028460F1CF873F21F480911202886036
:102B0000EBCF883F21F4809112028061E5CF8D3FA9
:102B100031F48091100281608093100208958E3FFD
:102B200021F4809110028260F7CF8F3FB9F7809136
:102B300010028460F1CF90911302803F59F480918C
:102B4000140287FF0DC01092140291110BC0109255
:102B50000F0208C0813F81F48091140218169CF383
:102B6000992381F08091150290911602892B09F02A
:102B700064C010920E020895823F49F497FFF0CF8F
:102B800010921302809114028111ECCFE0CF833FA9
:102B900019F41916ACF3E4CF20911502893F29F4FA
:102BA0001216F4F610921502DBCF8A3F19F427FFB4
:102BB000D7CFF8CF209116028B3F29F427FFD0CF33
:102BC00010921602CDCF8C3F19F41216CCF3C8CF59
:102BD000843F31F4809112028E7F80931202C0CF25
:102BE000853F21F4809112028D7FF7CF863F21F43B
:102BF000809112028B7FF1CF873F21F480911202E6
:102C0000877FEBCF883F21F4809112028F7EE5CF42
:102C10008D3F31F4809110028E7F80931002A0CFFF
:102C20008E3F21F4809110028D7FF7CF8F3F09F006
:102C300097CF809110028B7FF0CF08950E94782C5F
:102C40009C019091130280911402982B21F03093F3
:102C50000D0220930C029091150280911602982B80
:102C600021F030930B0220930A0281E192E00C9450
:102C7000602BEF92FF920F931F93CF93DF9300D0BF
:102C800000D000D0CDB7DEB786E0E1E1F2E0DE01B2
:102C9000119601900D928A95E1F7E0901302F09061
:102CA0001402009115021091160210921302109254
:102CB000140210921502109216028E2D8F2991F097
:102CC00080910C0290910D020E94902CFC012091A9
:102CD0000F02222309F43FC0809108018E171F06BE
:102CE00008F448C0802F812B91F080910A029091C6
:102CF0000B020E94902CFC0120910E02222309F469
:102D00007CC0809104018E171F0608F485C0809155
:102D1000130290911402892B90911502892B9091A6
:102D20001602892B11F00E941E1686E0FE013196D4
:102D3000A1E1B2E001900D928A95E1F726960FB6D7
:102D4000F894DEBF0FBECDBFDF91CF911F910F91E1
:102D5000FF90EF9008958091090190E06AE070E0A3
:102D60000E9419348E179F0708F0BCCF2F5F209365
:102D70000F0202C02F3FD1F7EE2051F00E94AA149B
:102D80006FEF1E140CF461E00E9410348093130264
:102D9000FF2051F00E94AA146FEF1F140CF461E0A1
:102DA0000E9410348093140280911302882309F446
:102DB00099CF20911402222309F494CF082E000CFD
:102DC000990B65EB70E00E941934992371F0909390
:102DD0001302822F220F990B65EB70E00E941934C9
:102DE000992339F0909314027DCF81E080931302F0
:102DF000F0CF81E08093140275CF8091050190E0BF
:102E00006AE070E00E9419348E179F0708F07FCFA8
:102E10002F5F20930E0202C02F3FD1F7002351F005
:102E20000E94F8146FEF10160CF461E00E94103449
:102E300080931502112351F00E94F8146FEF1116C0
:102E40000CF461E00E941034809316028091150208
:102E5000882309F45CCF20911602222309F457CF6E
:102E6000082E000C990B65EB70E00E941934992331
:102E700071F090931502822F220F990B65EB70E091
:102E80000E941934992339F09093160240CF81E0C3
:102E900080931502F0CF81E08093160238CF86E050
:102EA000E1E1F2E0DF011D928A95E9F710920F024D
:102EB00010920E02109210020895EF92FF920F935B
:102EC0001F93CF93DF93982F711111C0442329F0E2
:102ED000E82FF0E0EE5CFE4F9491692F792F892F57
:102EE000DF91CF911F910F91FF90EF900895262FC2
:102EF00030E0C72FD0E0E82FF0E0442321F0EE5C73
:102F0000FE4FE491F0E0C90166E070E00E941934E0
:102F10000FEF10E0B8010E942A34DB01220F331FAB
:102F2000CB0165E570E00E941934281B390BE22EB5
:102F3000EE0CE20EC8018C1B9D0BBF010E941934E0
:102F4000292FF12CC701BE010E941934492F50E0EE
:102F5000C801841B950BBF010E941934392FC80189
:102F60008E199F09BE010E941934492F50E0C801F3
:102F7000841B950BBF010E941934892F7E2FA2302C
:102F8000B10589F038F4109759F0119781F0922F1C
:102F9000232F06C0A430B10569F080F01697B9F769
:102FA000692F822F9DCF9E2F722F282FF9CF9E2F12
:102FB000732FF6CF922F2E2F782FF2CF722F2E2F26
:102FC000932FEECF41E00C945D1708950C94E21717
:102FD000CF93DF93762FE901682F842F0E94E617A5
:102FE000798368838A83DF91CF91089580912F033D
:102FF000982F9E7F29F48170826080932F0308951B
:103000008631E8F381708461F8CF88E090E00C9419
:103010009D34CF92DF92EF92FF926B017C010E9470
:10302000F617B701A60188E090E0FF90EF90DF90DF
:10303000CF900C94BB3460912F037091300380913A
:103040003103909132030C940918EFE2F3E083E02E
:10305000808311828FEF82838383148260817181E8
:10306000828193810C94091880912F0380FF02C004
:103070008695089580E0089590913303933018F475
:103080009F5F90933303882351F060912F037091D9
:10309000300380913103909132030C940918089504
:1030A00081E00C943C1890913303992319F09150CE
:1030B00090933303882351F060912F037091300374
:1030C00080913103909132030C940918089581E0A6
:1030D0000C9453188091330308958093330366232F
:1030E00051F060912F0370913003809131039091E2
:1030F00032030C940918089560E00C946D188091C7
:10310000300308958091310308958091320308952A
:1031100070E00C94D21B30910B0180912F0380FF43
:103120000CC080910A0190E063E070E00E941934C5
:10313000632F8C5C9C4F0C94881820910C0140915B
:103140000D01822F90E063E070E00E941934FC01D1
:10315000EC5CFC4F241728F71182108212822F5F3B
:103160003396F8CFA82FB62F80912F0380FF17C07A
:1031700020910C0130910D01822F90E063E070E00E
:103180000E941934FC01EC5CFC4F231710F00C94E6
:103190008B18A183B08342832F5F3396F6CF0895B7
:1031A000CF93DF9300D00F92CDB7DEB790912F036E
:1031B00090FF0AC09E012F5F3F4F0E94E8174B818E
:1031C00069818A810E94B2180F900F900F90DF9151
:1031D000CF910895CF93DF93EC01EFE2F3E04381C9
:1031E00062818C810E94D0188C818F5F8C83DF91EB
:1031F000CF910895EF92FF920F931F93CF93DF9398
:1032000000D00F92CDB7DEB7182FF62E042FE22E86
:1032100080912F0380FF28C0E82FE695F0E0E25769
:10322000FE4F908190931E028E7F823039F59E0171
:103230002F5F3F4F812F0E94E8174B8169818A8160
:103240000E94B21810933003F092310300933203BE
:10325000EE2051F060912F03709130038091310383
:10326000909132030E9409180F900F900F90DF91F8
:10327000CF911F910F91FF90EF900895923019F424
:1032800010913003DFCF9530E9F6FACFEFE2F3E0AB
:103290009181282F4381628188E0890F0C94FA186C
:1032A00081E00C944619EFE2F3E09181282F4381ED
:1032B000628188EF890F0C94FA1881E00C945319FD
:1032C000EFE2F3E0628121E1620F08F46FEF282F53
:1032D000438181810C94FA1881E00C946019EFE22B
:1032E000F3E0628121E1621B08F460E0282F438152
:1032F00081810C94FA1881E00C946F19EFE2F3E0ED
:10330000438121E1420F08F44FEF282F6281818130
:103310000C94FA1881E00C947E19EFE2F3E04381FB
:1033200021E1421B08F440E0282F628181810C9446
:10333000FA1881E00C948D1920E00C94FA18EF92A1
:10334000FF921F93CF93DF93EC0110E0EE24EA94F9
:10335000F12C30910E01131770F00E948B189A8196
:103360008C8190FF27C08F5F8C83DF91CF911F915D
:10337000FF90EF90089580910C01810F9927991F7C
:1033800063E070E00E941934FC01EC5CFC4F632F99
:1033900070E0C7010E943E34812F0E9410349C814E
:1033A0009F014091320360913103890F0E94E81719
:1033B0001F5FCFCF8150D8CFEFE2F3E080818E7FC7
:1033C000808360817181828193810E9409181092AB
:1033D0001F022FEF80E792E0215080409040E1F7FC
:1033E00000C000000C948B18EFE2F3E080818E7F28
:1033F000808310921F022FEF80E792E021508040DF
:103400009040E1F700C000000C948B1860912F03EE
:10341000669570E041E050E08FE091E00E946834F2
:10342000892B19F481E080931F020E94782C9093DD
:10343000180280931702089590912F0390FF35C0D2
:103440009170811128C0926090932F03662351F0F0
:1034500060912F037091300380913103909132037A
:103460000E94091860912F03669570E041E050E0DA
:103470008FE091E00E946834892BA1F010921F0226
:1034800081E080931A024091320360913103809170
:1034900030030C949C198B3010F09461D5CF880FB9
:1034A000982BD2CF0E94061AEBCF0895682F9091E7
:1034B0002F03969581E0890F8B3008F081E00C9402
:1034C0001C1A81E00C94561A682F90912F03969540
:1034D0008FEF890F09F48AE00C941C1A81E00C9498
:1034E000641A61E00C941C1AEFE2F3E080818160C1
:1034F000808386950C94711A80912F0380FD0C9423
:10350000DC190C94741A60E00C941C1A80911D0252
:1035100081112EC00E945110811104C00E94F5102B
:103520000E9425180E94051860932F0370933003A2
:1035300080933103909332036E7F61F40E942518CB
:103540000E94051860932F0370933003809331031A
:10355000909332030E94F61710921F0280912F035E
:1035600080FF03C086950E94831A81E080931D022C
:103570000895EFE2F3E080818160808386950C946A
:10358000831A0F931F93CF93DF9380911F02882399
:1035900009F44BC080911E02E0912F03E695E81BD1
:1035A000E0931902823089F5F0E0E15DFE4FE4918D
:1035B000CE2FD0E00AEE18E180911A02882361F044
:1035C00010921A020E94782C90931802809317028E
:1035D00010921C0210921B020E94782CE09117029C
:1035E000F09118028E1B9F0B8F3F9F47F0F4CE0F78
:1035F000DF1FD0931802C093170287E192E0F80111
:10360000DF91CF911F910F910994C0EDD7E005EEA6
:1036100017E1853089F6E695F0E0E45DFE4FE49130
:10362000CE2FD0E00FE919E1C7CFDF91CF911F91E5
:103630000F910895FA01811101C0FB010994CF9304
:10364000DF93C82FD62F0E9434188C1740F00E94A9
:1036500034188D1720F4DF91CF910C94611A8C2FC0
:10366000DF91CF910C94711A0F931F93CF938C011C
:10367000FB01C281CC2309F493C00E942B0F8272FC
:103680000A3CFCE51F0709F475C060F5053CECE554
:103690001E0709F45BC080F4033C9CE5190709F49C
:1036A0004BC008F04EC0023C1C4509F442C08C2FB0
:1036B000CF911F910F910895073C9CE5190709F4DC
:1036C0004FC008F448C0083CFCE51F0709F44DC092
:1036D00049E959E16AE879E1093C1C4541F70E9452
:1036E0001A1B15C00F3CECE51E0709F456C088F400
:1036F0000C3C9CE5190709F447C008F440C00D3C98
:10370000FCE51F0709F445C00E3C1C4581F6C0E0EE
:10371000CECF063D9CE5190740F46AE085E0013D07
:103720001C45A8F70E941F1BF2CF0D351D4579F3EC
:10373000BECF0E947C1AEBCF4EE65AE161E67AE1F9
:10374000CECF41E65AE16EE67AE1C9CF4DE559E1C7
:1037500060E579E1C4CF40E559E16DE579E1BFCF9E
:103760004BE759E16CE679E1BACF4CE659E16BE7FA
:1037700079E1B5CF4AE859E169E979E1B0CF47E6A7
:1037800058E160E578E1ABCF40E558E167E678E1E4
:10379000A6CF81E00E94711ABACF64E082E0C2CF66
:1037A000C1E085CF9C01CB013D9A48B14F7DE8B186
:1037B000E062FFB7F89463E070E00E941934820F72
:1037C000931F8217930741F4FFBF8FE594E00197A1
:1037D000F1F700C000000895D9015D919D0168E0F6
:1037E000E8B9000000C057FF48B9550F000000C0FD
:1037F00000C000C048B900C06A9591F7E2CF83E2EB
:1038000090E00E949534863F89F484E290E00E9423
:1038100095348B3759F485E290E00E94953491E01D
:10382000883409F090E0892F8170089580E0FCCF02
:10383000CF93C82F6FEF811166EF83E290E00E9473
:10384000A9346FEFC1116BE784E290E00E94A934C4
:103850006FEFC11168E485E290E0CF910C94A93438
:10386000089586E290E00E949534682F70E090E021
:1038700080E0089586E290E00C94A93480E00E94F4
:10388000181C60E070E0CB010E943A1C0E94B92134
:103890000E94D72281E00C94181C0E94301C0E94C8
:1038A000FF1B811102C00C943E1C0895CF93FB01B5
:1038B000C281CC2309F19C0122513F4520313105C1
:1038C00020F582510E94E722C0E08C2FCF9108950D
:1038D00081E00E94D10943E062E081E00E94A503FB
:1038E000F3CF81E00E94DC0943E062E081E00E94C6
:1038F000A503EBCF82E0F6CF8031FFE59F0789F388
:1039000081319F45B9F3C1E0E0CF8031EFE59E07FB
:10391000F9F281319F45C9F682E0DBCF2FEFFC0140
:1039200020830895CF93DF93EC0188818138A9F03B
:1039300028F4803871F0DF91CF910895823881F0BA
:103940008338C9F70E947F1889830E9482188A836E
:10395000F2CF0E9485188983EECF0E943418FBCFE6
:103960000E946A18F8CFCF93DF93EC0188818138E9
:10397000E1F028F4803869F0DF91CF910895823822
:1039800011F18338C9F70E948518482F6A8189810F
:1039900008C0D9810E948218C82F0E947F184D2F1D
:1039A0006C2FDF91CF910C949C1989810E94831A0E
:1039B0008981811104C0DF91CF910C94F419DF91BA
:1039C000CF910C94B91A8981DF91CF910C947C1816
:1039D0001F93CF93DF93EC01162F98812091E4027F
:1039E0003091E502232B79F09E3F09F07BC089815D
:1039F000833020F08550833008F074C0612FCE01F1
:103A00000E94C61F6FC09E012F5F3F4F993009F47F
:103A1000A7C0F8F4943009F486C068F4923009F431
:103A200051C008F073C0913009F448C0612FCE0135
:103A30000E948E1C57C0963009F48BC008F47EC0DB
:103A4000973009F489C0983089F7C9010E94921C07
:103A500049C0903109F4A0C028F59D3009F483C015
:103A600030F49C3019F70E94802289833BC09E303D
:103A700009F481C09F30D1F680911001909111011D
:103A8000892B81F16B8170E06D31710558F5898169
:103A90009A81AE014C5F5F4F9827892798270E9433
:103AA000AC2220C0923109F47DC008F478C0933173
:103AB00009F489C09E3F09F0B9CFA0CF198289E0EF
:103AC0008A8310C089818230A1F08330A9F08130CF
:103AD00009F0ACCF0E94842C0E9458346A837B8307
:103AE0008C839D83612FCE01DF91CF911F910C9428
:103AF0006B2D0E94311CF0CF80911001909111012B
:103B0000892B81F380E00E94E613DACF898182302D
:103B100009F08CCF6A817B818C819D810E94583411
:103B20000E943A1CDFCF4B816A8189810E94322139
:103B30009827892798279D838C83D4CF2C813D811A
:103B40003227232732274B816A8189810E945521A0
:103B5000C9CF0E94B921C6CFC9010E94B31CC2CFF0
:103B60000E941B18BFCF0E9482229827892798277E
:103B70009A838983B7CF6B8170E06D31710508F04E
:103B8000B1CF89819A81AE014C5F5F4F9827892719
:103B900098270E948522A6CF0E94D722A3CF0E94F9
:103BA000302163CF6B8170E06D31710508F09ACFE1
:103BB00089819A81AE014C5F5F4F982789279827AA
:103BC0000E940F228FCF6B8170E06D31710508F07C
:103BD00089CF89819A81AE014C5F5F4F98278927F1
:103BE00098270E9434227ECF8F929F92AF92BF92ED
:103BF000CF92DF92EF92FF920F931F93CF93DF93B9
:103C0000CDB7DEB72A970FB6F894DEBF0FBECDBF93
:103C100000E212E0F12CE12C8EE1C82E8FE1D82ECB
:103C200098E4A92E9FE1B92E29E7822E2EE1922E4B
:103C3000F801D182C082B382A28295828482F58A01
:103C4000E48ABE016F5F7F4F8E2D0E948D21892BEC
:103C500029F489859A85F801938B828BFFEFEF1AFF
:103C6000FF0A0A5E1F4F88E0E816F10409F72A965A
:103C70000FB6F894DEBF0FBECDBFDF91CF911F917D
:103C80000F91FF90EF90DF90CF90BF90AF909F90FB
:103C90008F900895CF93DF9300D000D00F92CDB7CF
:103CA000DEB790933B0380933A03811520E292079D
:103CB00048F40F900F900F900F900F90DF91CF91DD
:103CC0000C941E038EEF89838A831B820E94782CBA
:103CD0008160782F9D838C8349815A816B818D818E
:103CE0000F900F900F900F900F90DF91CF910C9449
:103CF0003A050F931F93CF93DF938C01EB0160ED97
:103D000072E08C2F0E948D21892BA1F480915A039F
:103D100090915B03019798F4DD27C652DD4F8881AF
:103D2000F80110821882833041F180F4813091F0E3
:103D30008230B9F0DF91CF911F910F910895EFE993
:103D4000FFE03197F1F700C00000E4CF8430D1F0FC
:103D5000853081F78091D0029091D102009751F384
:103D600006C08091D2029091D302009799F3DF911F
:103D7000CF911F910F910C944A1E8091D402909183
:103D8000D502F3CF8091D6029091D702009779F7B0
:103D90002091D0023091D1028091D2029091D30231
:103DA00021153105D9F2009711F7C901E0CFCF9362
:103DB000DF9300D000D00F92CDB7DEB790933B03D6
:103DC00080933A03811520E2920748F40F900F90F8
:103DD0000F900F900F90DF91CF910C9407038EEF0F
:103DE00089838A8381E08B830E94782C8160782F7D
:103DF0009D838C8349815A816B818D810F900F90B7
:103E00000F900F900F90DF91CF910C943A05CF93C4
:103E1000DF93EC010E94D71E80915A0390915B03BF
:103E2000019728F4CE01DF91CF910C944A1EEFE95F
:103E3000FFE03197F1F700C00000F2CF0F931F931E
:103E4000CF93DF938C01862F60ED72E00E948D216D
:103E5000892BC9F4C091D002D091D102209799F05A
:103E6000F8018081833069F4CE010E94071FCE01E2
:103E70000E94071FCE01DF91CF911F910F910C94EB
:103E8000071F8430B8F7DF91CF911F910F910895EC
:103E90000F931F93CF93DF938C01EB0160ED72E0E2
:103EA0008C2F0E948D21892B09F064C0FE01FF2711
:103EB000D8018C91E652FD4F8130D9F419969C912E
:103EC0001997992311F080830CC01A969C9199231D
:103ED000D1F382E080838091D2029091D302009747
:103EE000D9F48091D0029091D102009709F442C098
:103EF00013C08230E9F519968C91199781112DC064
:103F00001A968C9181110EC083E080838091D40237
:103F10009091D502009719F1DF91CF911F910F91E8
:103F20000C94D71E84E080838091D6029091D702B2
:103F3000009791F78091D0029091D1020097F9F00B
:103F40000E94071F8091D2029091D302009721F71F
:103F50008091D0029091D102DFCF85E08083809163
:103F6000D0029091D102009729F00E94071FF0CF54
:103F700086E08083DF91CF911F910F91089580910A
:103F8000D2029091D302B1CF0C94F41DCF92DF9264
:103F9000FF920F931F93CF93DF93CDB7DEB72A978E
:103FA0000FB6F894DEBF0FBECDBF8C01603269F54D
:103FB000DC011196EC911197EE3038F5F0E0EB5FF3
:103FC000FA4C0C94523488E0E4E2F1E0DE01119600
:103FD00001900D928A95E1F780E2F80111928A959D
:103FE000E9F784E0D8018C9311961C9211971296F0
:103FF0001C92129713961C92139788E0FE0131963B
:10400000149601900D928A95E1F72A960FB6F894CE
:10401000DEBF0FBECDBFDF91CF911F910F91FF90FB
:10402000DF90CF9008958CEBF8018083118212828B
:104030001382EBCF13968C911397682F70E0762F35
:10404000662712968C91860F972F911D092E000CD2
:10405000AA0BBB0B35E0880F991FAA1FBB1F3A950F
:10406000D1F7AC01BD01405E5F4F6F4F7F4F4817E6
:1040700059076A077B0748F28C3B9105A105B105FA
:1040800020F64D3B51056105710520F04CEB50E0E9
:1040900060E070E0481B590BBC016E5C7D4FC801AD
:1040A0000E945F34B2CF40E250E06FEF70E00E94B8
:1040B0007E3480911001F80180838091E402818335
:1040C000A4CF81E090E09093E5028093E40282E344
:1040D00090E09093E3028093E2020E94782C95CFC7
:1040E000809110018C938091E40211968C9311972A
:1040F0008091E20212968C9388CF40E250E0BC019E
:10410000FC01828193810E9424247FCFBC016F5FD8
:104110007F4F4FE150E012968D919C910E94562462
:10412000F801808372CFBC016C5F7F4F4CE150E09F
:1041300012968D919C910E947E24F2CF0E94E323DF
:1041400064CF12968C911297813021F18823C1F0AF
:10415000823009F05ACF13968C919AE0F801349688
:10416000DE01119601900D929A95E1F7BE016F5F05
:104170007F4F0E94A321F80180830E94F41D45CF48
:1041800080E2F80111928A95E9F788E08C93119604
:104190001C923BCFF80183819AE0F92E9E012F5F9C
:1041A0003F4F6901D901EF2D1D92EA95E9F7B90159
:1041B0000E948D21D8018D93F60101900D92FA9401
:1041C000E1F723CFCF93DF93FB012281211130C090
:1041D000EC01D755CF3FD10509F050F560ED72E005
:1041E0008C2F0E948D21892B19F5CE0166E170E09C
:1041F0000E941934805E9D4FFC0186818130E1F47C
:104200008091D0029091D102892B91F08091D202BD
:104210009091D302892B61F08091D4029091D502C4
:104220002091D6023091D702822B932B892B61F0FB
:1042300081E0DF91CF9108958230D1F78091D4024F
:104240009091D502892BA1F3CE0166E170E00E9426
:104250001934805E9D4FFC01108A0E94E529E8CF49
:1042600084E008950F931F93CF93DF938430D0F4AD
:10427000642BC1F4082F10E0000F111FC8018796AE
:104280000E949534C82FD0E0DC2FCC27C801889637
:104290000E9495349E01282BC901DF91CF911F9177
:1042A0000F91089590E080E0F8CF0F931F93CF9384
:1042B000DF9389018430E8F4642BD9F421153C455F
:1042C00031F42091100130911101232B91F0C82F6E
:1042D000D0E0CC0FDD1F612FCE0187960E94A9345C
:1042E000602FCE018896DF91CF911F910F910C9492
:1042F000A934DF91CF911F910F91089582329105DA
:1043000018F48F960C94953480E0089582329105CC
:1043100018F48F960C94A93408959B01883080F48A
:1043200090E06AE070E00E941934BC016F5A7F4F40
:104330004AE050E0C9010E94853490E080E0089591
:104340008FEF9FEF08959B01883080F490E06AE042
:1043500070E00E941934BC016F5A7F4F4AE050E070
:10436000C9010E94CD3490E080E008958FEF9FEF67
:104370000895CF92DF92EF92FF921F93CF93DF9336
:10438000CDB7DEB72A970FB6F894DEBF0FBECDBF0C
:10439000C0901001D090110181E090E09093110144
:1043A0008093100184E7E82E80E0F82E10E0F701FA
:1043B0002591349140E060E0812F0E94552182E0F8
:1043C000E80EF11C1F5F143091F70E94E3231A825C
:1043D00019821C821B821E821D8218861F8288EC15
:1043E00090E09A87898710E0BE016F5F7F4F812F31
:1043F0000E94A3211F5F1830B9F7D0921101C0921B
:1044000010012A960FB6F894DEBF0FBECDBFDF9124
:10441000CF911F91FF90EF90DF90CF900895EF9292
:10442000FF920F931F93CF93DF93EC018A017C01DE
:10443000E60EF71ECE018796CE15DF0539F4DF9123
:10444000CF911F910F91FF90EF900895C830D10543
:1044500040F40E949534F80180830F5F1F4F21962E
:10446000E9CFF8011082F9CFCF92DF92EF92FF925D
:104470000F931F93CF93DF938C016A01089780F409
:1044800088E090E0801B910B8617970748F0780131
:10449000E60EF71EE801CE018796CE15DF0549F43A
:1044A000DF91CF911F910F91FF90EF90DF90CF9010
:1044B0000895C830D10540F4FE01E01BF10BEC0D6E
:1044C000FD1D60810E94A9342196E5CF2091E40270
:1044D0003091E502232B89F47E3F39F46E3F69F475
:1044E00080913A0390913B030895843030F4762B09
:1044F00021F440E060E00C94322190E080E00895E7
:1045000080E108958FE593E00895EF92FF920F9375
:104510001F93CF93DF93EC018A017C01E60EF71E17
:10452000CE018F559F4FCE15DF0539F4DF91CF9126
:104530001F910F91FF90EF900895CF3523E0D207A0
:1045400040F40E949534F80180830F5F1F4F21963D
:10455000E7CFF8011082F9CFCF92DF92EF92FF926E
:104560000F931F93CF93DF937C016A018C01060F99
:10457000171FEC01CE018F559F4FC017D10749F48B
:10458000DF91CF911F910F91FF90EF90DF90CF902F
:104590000895CF3523E0D20740F4FE01EE19FF095C
:1045A000EC0DFD1D60810E94A9342196E3CFCF93CD
:1045B000DF93C1EAD0E060E0CE010E94A9342196E9
:1045C000C11584E0D807B9F7DF91CF910895CF9254
:1045D000DF92EF92FF920F931F93CF93DF9300D060
:1045E00000D0CDB7DEB7F82E2FE0281740F08FEFC0
:1045F00093E00E94953401EA10E08823C9F00F90FF
:104600000F900F900F90DF91CF911F910F91FF901E
:10461000EF90DF90CF900895011544E0140779F3EF
:10462000C8010E949534811101C0FA940F5F1F4F99
:10463000F110F2CF19821A821B821C8278015FEF7F
:10464000E51AF50AC8010E94953489831A828823E5
:10465000B1F2813009F045C0680182E0C80ED11C7A
:10466000C7010E949534E82E8A83882341F2C6014F
:104670000E949534F82E8FEF8E0D833068F4680118
:10468000E3E0CE0ED11CFB82FF2021F0CE0101968B
:104690000E941D058601D2CFF4E0EF12FBCF680126
:1046A00024E0C20ED11CC80103960E949534FF205D
:1046B00009F4A5CF882309F4A2CF8150990B6FEF9D
:1046C00070E00E9419344F2D4150550B840F951FF7
:1046D000019700F3EFE9FFE03197F1F700C0000028
:1046E000F7CFCE0101960E941D056701D3CFECE301
:1046F000F3E0848195812AE030E0B9010E942A34F8
:104700006093090186818093080182858093070167
:1047100084858093060186859785B9010E942A3495
:10472000609305018089809304018289809303014D
:10473000848980930201089580913C0390913D0308
:104740000C9487270F931F93CF93DF930CE313E011
:10475000D0E0C0E0CE010E947E21F80161918F017E
:10476000861719F0CE010E9486212196C232D1050A
:1047700089F7DF91CF911F910F9108950F931F93A8
:10478000CF93DF930CE313E0D0E0C0E0CE010E94B2
:104790007E21F80181938F012196C232D105B1F7B4
:1047A000C4EFD2E0FE0185919491009711F0FC01D5
:1047B00009952896F3E0CC38DF07A1F7DF91CF9178
:1047C0001F910F910895ECE3F3E0128E138E8FEAA0
:1047D00090E09183808385E0848F88E893E19383E0
:1047E00082834CE251E05583448322E330E03783F7
:1047F000268385E090E0918780878AE090E0938728
:10480000828764E170E0758764875787468744E64E
:1048100050E0518B408B48E050E0538B428B48E294
:1048200050E0558B448B378B268B28EC30E0318F52
:10483000208F158E978F868F80E590E091A380A3BF
:104840000E94A2230C94BE23EF92FF920F931F931A
:10485000CF93DF937C01EB018A016FEF70E0CE0113
:104860000E947E342EEE32E0A6E8B3E090E080E0D5
:10487000AC014E5F5F4F0417150788F0F901659191
:104880007491E616F70630F48C0F9D1FFC017183BE
:104890006083CA01285F3F4FA217B30749F7DF9132
:1048A000CF911F910F91FF90EF900895DC01CB0104
:1048B0002EEE32E0F90165917491A617B70749F021
:1048C000285F3F4F63E026383607A1F78FEF9FEF51
:1048D0000895B9016E5F7F4FFB01A591B4914A170E
:1048E0005B07A0F3FB0145915491F9013496659162
:1048F00074910E94753490E080E00895CF93DF9327
:10490000CEEED2E0FE01259134918217930741F05B
:10491000289623E0C638D207A9F78FEF9FEF1DC076
:10492000CE010296FC012591349142175307A8F35A
:10493000FC0145915491FE013496859194910E9419
:1049400075340E94A223FE013696859194910097BA
:1049500011F0FC01099590E080E0DF91CF9108957E
:10496000809154039091550308958091590381706B
:104970000895809159038695817008958091590317
:1049800082FB882780F908958091590383FB88274B
:1049900080F908958832910538F48E319105E8F454
:1049A0000497A0F480E008958933910558F48D327E
:1049B000910510F48B97B1F78091570382FB8827FC
:1049C00080F908C084369105B9F3ECCF8091570384
:1049D0008295817091E0892708958091570383FB28
:1049E000882780F9F7CF8091570385FB882780F9C6
:1049F00008958091570386FB882780F90895CF9307
:104A0000DF93EC01FB018281882309F420C1C330CC
:104A1000FDE5DF07C8F5CA3F9CE5D90730F49E01E4
:104A200022503C452431310598F50E946410909342
:104A30002C0380932B03C031FCE5DF0709F4E0C0B1
:104A400008F061C0C8309CE5D90709F4CBC088F5EF
:104A5000C430FCE5DF0709F4B3C0E8F4C2309CE5DC
:104A6000D90709F4A7C080912B038260C330DC45CD
:104A700009F4A3C080912B0390912C030E94721023
:104A80000E94790680E004C0C136EDE5DE0769F2D8
:104A9000DF91CF91089580912B038061C630FCE5B2
:104AA000DF0709F48AC008F48FC080912B0380626D
:104AB00084C080912B038D7FCC309CE5D90709F40D
:104AC0007CC070F480912B038C60CA30FCE5DF075A
:104AD00009F473C008F48AC080912B038E7F6DC0E7
:104AE00080912B03877FCE309CE5D90709F465C000
:104AF00080912B038B7FCF30DC4508F45EC0809122
:104B00002B038F7E5AC0CC3FFCE5DF0709F474C04D
:104B100040F5C4319CE5D90709F48AC058F4C23184
:104B2000FCE5DF0709F474C008F46EC080912B0324
:104B3000837F43C0CA3F9CE5D90709F449C008F008
:104B40004DC0C531DC4509F095CF80912B0382FB28
:104B5000992790F921E0922790FB82F990FB83F945
:104B60002CC0C1158DE5D80709F458C088F4809190
:104B70002C038360CE3FECE5DE0769F180912C03C6
:104B80008D7FCF3FDC4538F180912C038C7F23C093
:104B9000C2308DE5D80709F458C008F452C0C136B8
:104BA000DD4509F067CF90912B03892F8F7E94FF0D
:104BB000806103C080912B03816080932B035ACFC7
:104BC00080912B038460F9CF80912B038860F5CF0F
:104BD00080912C03816080932C034CCF80912C0317
:104BE0008260F9CF80912B038064E7CF0E94790621
:104BF00080912B038068E1CF80912C038E7FEBCFD7
:104C000080912B038F7DD9CF80912B038F7BD5CFC4
:104C10000E94790680912B038F77CFCF80912C0350
:104C2000982F909591708E7F892B90FB81F9D3CF2F
:104C30000E94790690912B03892F97FB87F9805862
:104C4000BCCF81E00E94F71015CF80E0FBCF81E060
:104C50001FCF80911201877F8093120182E00E9412
:104C6000470F8091120184FF06C08F7E809312014E
:104C700082E00E942E0F8091120185FF06C08F7D79
:104C80008093120180E20E942E0F0C94A30FCF9309
:104C9000DF93EC01662319F082E00E94410FCE0100
:104CA0009056811520E2920720F0905E8115904188
:104CB00008F4DD27CE01DF91CF910C9407039C010E
:104CC0003056211540E2340720F0305E2115304186
:104CD00008F499270C941E03FC0123E0F695E79550
:104CE0002A95E1F7EE71FF27EA51FD4F20813181CE
:104CF000AC014F70552781E090E002C0880F991FEA
:104D00004A95E2F7662329F0822B932B91838083C7
:104D100008958095909582239323F8CFFC0123E09A
:104D2000F695E7952A95E1F7EE71FF27EA51FD4FD9
:104D30008F70992721E030E002C0220F331F8A953F
:104D4000E2F7808191812823392381E0232B09F424
:104D500080E00895DF92EF92FF920F931F93CF931D
:104D6000DF93EC017B01D42E89018091120182FF37
:104D700086C020910C0330910D032C173D0719F0CC
:104D8000209709F07CC0909112019B7F90931201B3
:104D900061E091FD10C080910E0390910F03A70177
:104DA000481B590B61E08091130190911401481741
:104DB000590708F460E061708091120160FB81F98D
:104DC00080931201C9010E946C260E942B0F81FF63
:104DD00008C08091120180618093120182E00E94DC
:104DE000340F0E942B0F85FF08C080911201806252
:104DF0008093120180E20E94340F60911201669547
:104E00006170A80180910C0390910D030E944726C8
:104E1000D11014C080915A0390915B03019740F523
:104E20006091120166956170A80180910C039091C8
:104E30000D030E945F260E94292630C0B801809190
:104E40000C0390910D030E94F324882319F3B801F9
:104E500080910C0390910D030E94F9248111DACF07
:104E6000DF91CF911F910F91FF90EF90DF90089508
:104E7000EFE9FFE03197F1F700C00000CFCFCE019E
:104E80000E948E26A801682FCE010E945F26809185
:104E90000C0390910D038C179D0769F2F0920F039C
:104EA000E0920E03DDCF8091570380FF1EC08091FA
:104EB000120182FF1AC00E94782C20910E033091BB
:104EC0000F03AC01421B530B2091130130911401CD
:104ED0004217530750F026E033E041E0BC018091D7
:104EE0000C0390910D030C94AA2608959091120141
:104EF000892F8E7F90FF8160809312010C94292668
:104F0000809112018E7F809312010C942926909338
:104F10001401809313010895CF92DF92EF92FF92D4
:104F20000F931F93CF93DF93EC017B018091570385
:104F300080FD0BC011E0812FDF91CF911F910F9168
:104F4000FF90EF90DF90CF9008950E94782C6C0135
:104F5000F7018281882391F18091120182FF08C0BC
:104F600026E033E040E0B60190E080E00E94AA260F
:104F7000CB31FCE5DF07C9F0CC312CE5D207D9F005
:104F8000CA318CE5D80711F40E947627CE019056DD
:104F90008115E0E29E0720F0905E81159041E0F4DB
:104FA00010920D0310920C03C5CF80911201816005
:104FB00080931201EBCF0E948027E8CF80911201ED
:104FC0008F7EC13ED10531F0C53ED105B9F5809146
:104FD00012018F7D809312018091120180FFAACF70
:104FE000B701CE010E94CA24F7011281882309F477
:104FF000C8C0112309F4BEC00E942B0F182F0E94B5
:10500000610F812B8D7FB9F110920D0310920C036B
:105010008091570381FD2FC060E0CE010E946C2675
:10502000A70160E0CE010E9447260E94610F8D7F9C
:105030000E947D0F82E00E940B1072C0CE0190563C
:10504000811520E2920720F0905E8115904120F6B4
:105050008091120182FF6ECFB701CE010E94B92468
:10506000811168CF26E033E040E0B60190E080E0B7
:105070000E94AA265FCF86E0F701A6E0B3E0019088
:105080000D928A95E1F71092080310920A0310928C
:10509000090380910C0390910D03C817D90709F0FB
:1050A0004AC0B701CE010E94F324882309F443C00B
:1050B0008091120181FD36C080910E0390910F0303
:1050C0008601081B190BB70180910C0390910D0309
:1050D0000E94B0240817190770F50E942B0F81FF5A
:1050E00008C08091120180618093120182E00E94C9
:1050F000340F0E942B0F85FF08C08091120180623F
:105100008093120180E20E94340F60911201669533
:105110006170A70180910C0390910D030E944726B6
:1051200010E009CFB70180910C0390910D030E940C
:10513000F9248111C1CF0E942B0F182F0E94610FFB
:10514000812B9091120181FB91F9909312010E94A1
:10515000610F8D7F0E947D0FD0930D03C0930C03D0
:10516000D0920F03C0920E0380911201846080934D
:10517000120160CF970140E0B601CE010E94AA263D
:10518000DACE11110DCFD6CECF93DF93EB0186315E
:105190009C4509F03BC00E942B0F982F9A7A2091D2
:1051A000560320FF04C0382F347409F090E021FF2B
:1051B00004C0382F317109F090E022FF04C0382F6D
:1051C000387809F090E023FF03C0827209F090E084
:1051D0008A81882389F081E0911101C080E0809369
:1051E000100389E2911185E30E94CF0E0E94A30F64
:1051F00080E0DF91CF91089580911003811104C068
:1052000089E20E94D60EF2CF85E3FBCF81E0F1CF99
:10521000AF92BF92CF92DF92EF92FF920F931F93C4
:10522000CF93DF937C015B01C42FD22FFC018281DD
:105230008823F9F0409313030E94782C9093120373
:105240008093110380E28C0F883008F061C0C77032
:1052500081E001C0880FCA95EAF7DF91CF911F91D5
:105260000F91FF90EF90DF90CF90BF90AF900C9494
:10527000470610911303141340C0809111039091BD
:1052800012030E94902C6C01B701C5010E94B0244A
:10529000C816D90690F5C0E2CD0F1D17B9F080E20F
:1052A000810F883040F4177081E001C0880F1A9593
:1052B000EAF70E944E06C83048F481E09D2F9770AF
:1052C00001C0880F9A95EAF70E944706802F0E9436
:1052D0003B06C830E8F4D77081E001C0880FDA954A
:1052E000EAF7DF91CF911F910F91FF90EF90DF9040
:1052F000CF90BF90AF900C944E0680E28C0F883018
:1053000038F4C77081E001C0880FCA95EAF7E9CF89
:10531000DF91CF911F910F91FF90EF90DF90CF9091
:10532000BF90AF9008950F939C01CB01233F4CE5B4
:10533000340759F1A8F4283DFCE53F0701F1293D68
:105340004CE53407D1F1273D3C4591F406E221EECE
:1053500041EE67ED7CE50E94082980E00F910895F9
:10536000253FFCE53F07E9F0B0F0263F3C45F9F06A
:10537000FC018281882339F110921303EFCF07E2F9
:1053800025EE45EE68ED7CE5E6CF06E221EE40EE47
:1053900063EF7CE5E0CF07E225EE44EE64EF7CE5C9
:1053A000DACF06E221EE42EE65EF7CE5D4CF07E2EC
:1053B00025EE46EE66EF7CE5CECF08E221E045EE35
:1053C00069ED7CE5C8CF81E0C9CFCF93DF93EC01D5
:1053D0008989811115C081E0898B8F810E942E0FF0
:1053E00088850E94410F0E94A30FEA81FB813097BC
:1053F00039F06C897D89CE010696DF91CF910994B1
:10540000DF91CF9108950F931F93CF93DF93EC011A
:105410008A85811132C00B811C811755C80166E154
:1054200070E00E941934DC01A05EBD4F1496ED912E
:10543000FC911597309731F054966D917C918A5D6F
:105440009D4F0995C80166E170E00E9419348C01F6
:10545000005E1D4FF80187810E94340FF80180859E
:105460000E94470F0E94A30F188219861B861E8276
:105470001D821092150310921403DF91CF911F919A
:105480000F910895DF92EF92FF920F931F93CF93A6
:10549000DF937C01FB018281882399F080911501C3
:1054A00090911601019669F0C0E2D2E010E000E0B0
:1054B000DD24D394809115019091160180179107F6
:1054C00044F4DF91CF911F910F91FF90EF90DF9007
:1054D00008958E818823C1F089859A858E159F0550
:1054E00039F480911403909115038E159F0561F096
:1054F000DF86FC86EB86CE010E94E529CE0106966A
:105500000E94032A0E944E0F0F5F1F4F6696D2CF54
:10551000EF92FF920F931F93CF93DF937C01FB01D8
:105520008C0117550F3F110511F008F03FC0809115
:105530001501909116018017910724F4109316011C
:10554000009315012281C80166E170E00E941934C0
:10555000EC01C05EDD4F288B92818E81992371F121
:10556000FA86E9868F5F8E830E94782C9E878D87CE
:105570000E94610F8F830E942B0F88870E943E0F2D
:105580009885892B8887E881F981309759F02C8993
:105590003D89C80166E170E00E941934B9018A5D55
:1055A0009D4F0995F0921503E092140381E0DF917D
:1055B000CF911F910F91FF90EF9008958823B1F341
:1055C0008989882399F3C80166E170E00E94193443
:1055D0008A5D9D4F0E94032AE9CFEF92FF921F93AD
:1055E000CF93DF93809115019091160110E0019601
:1055F000E1F5DF91CF911F91FF90EF900895CE01DB
:1056000066E170E00E941934FC01E05EFD4FE28823
:10561000F388E114F10439F470E060E0818592854B
:105620000E94B0247C01CE0166E170E00E94193432
:10563000805E9D4FFC0186818823B1F0858596852B
:105640000E94902CE816F90678F4CE0166E170E02D
:105650000E941934EC01805E9D4F0E94E529CE0125
:105660008A5D9D4F0E94032A1F5FC12FD0E0809169
:105670001501909116018C179D070CF6BACF9093E7
:10568000A9018093A801089590931B0380931A03A6
:105690000895E0911A03F0911B03309721F00190D7
:1056A000F081E02D099480E00895E0911A03F091D3
:1056B0001B03309721F00280F381E02D09940895B7
:1056C000E0911A03F0911B03309739F022E0DC01DE
:1056D0002C930480F581E02D0994089520911803FE
:1056E000309119032817390771F0909319038093AB
:1056F0001803E0911A03F0911B03309721F0068004
:10570000F781E02D09940895209116033091170335
:105710002817390771F09093170380931603E091CF
:105720001A03F0911B03309721F00084F185E02DDE
:10573000099408959C012E5F3F4FAC01485F5F4F75
:1057400080E02417350709F40895F90191919F012C
:105750009923B9F38F5FF5CF662349F0FC013296A8
:1057600008962191261729F0E817F907D1F780E06C
:10577000089581E008959C01FC0132969FEF80E03E
:105780004191461751F09F3F19F4411101C0982FE4
:105790008F5F8630A9F79F3F09F40895290F311DC7
:1057A00097FD3A95F90162830895FC0132960896B7
:1057B0002191261303C0DF0111971C92E817F90706
:1057C000B9F708950C94BB2B0C94D52B029626E0C8
:1057D000FC0111922A95E9F7089508950C94ED2B98
:1057E000811105C081E080931C030C94EE2B82E0B4
:1057F000FACF83E080931C030C94EE2B0C94F02BD7
:1058000081E080931C030C94EE2B0C94002C0895E3
:1058100080916603843031F10E94BA0310921D0317
:1058200088E190E020E40FB6F894A895809360009A
:105830000FBE2093600083B7817F846083BF83B7EE
:10584000816083BF7894889583B78E7F83BF0FB6BE
:10585000F894A89580916000886180936000109210
:1058600060000FBE0895089508950E94332C0E9491
:1058700034140E94342C80E00E94E61391E08111E0
:1058800001C090E0892F08950E9479060C944F047E
:105890001F921FB61F9211248F939F93AF93BF93B4
:1058A00080911D03811113C080915E0390915F036D
:1058B000A0916003B09161034196A11DB11D809339
:1058C0005E0390935F03A0936003B0936103BF9165
:1058D000AF919F918F911F901FBE1F90189582E0EE
:1058E00084BD93E095BD9AEF97BD80936E000895B7
:1058F0002FB7F89480915E0390915F03A0916003AD
:10590000B09161032FBF08952FB7F89460915E03A3
:1059100070915F0380916003909161032FBF0895A0
:105920009C014FB7F89480915E0390915F03A09122
:105930006003B09161034FBF821B930B089578946D
:105940001F921FB61F9211248F939F93AF93BF9303
:1059500080915E0390915F03A0916003B091610319
:105960000196A11DB11D80935E0390935F03A093E8
:105970006003B0936103BF91AF919F918F911F908E
:105980001FBE1F90189581E08093E00080E2809315
:10599000D8001092C9008FE19EE40197F1F700C092
:1059A000000087E090EBDC0180936F03909370031D
:1059B000A0937103B093720388E19CE00FB6F89452
:1059C000A895809360000FBE90936000FFCF8091F8
:1059D0002903089508959C0184E08093E9009FEFD6
:1059E0008091E800915085FD06C085ED8A95F1F71C
:1059F00000009111F5CF8091E80085FF0CC050E0C8
:105A000040E066E070E0C9010E946F2F8091E800DD
:105A10008E778093E8000895CF93DF93EC0181E0C7
:105A20008093E9008FEF9091E800815095FD06C0CA
:105A300095ED9A95F1F700008111F5CF8091E8007E
:105A400085FF14C050E040E068E070E0CE010E94A5
:105A50006F2F8091E8008E778093E80088E0FE0148
:105A6000A1E2B3E001900D928A95E1F7DF91CF9129
:105A7000089580931E037093200360931F03809109
:105A800066038430F9F48093E9008FEF9091E80089
:105A9000815095FD06C095ED9A95F1F700008111B2
:105AA000F5CF8091E80085FF0DC050E040E063E055
:105AB00070E08EE193E00E946F2F8091E8008E7776
:105AC0008093E8000895BC0184E00C94392DBC015A
:105AD00083E00C94392DCF93FC01603221F5809145
