:100000000C94D1010C9418020C9418020C94180250
:100010000C9418020C9418020C9418020C941802F8
:100020000C9418020C9418020C9418020C948B2354
:100030000C943C240C94401E0C9418020C9418024E
:100040000C9418020C9418020C9418020C94971E2D
:100050000C9418020C9418020C9418020C941802B8
:100060000C9418020C9418020C9418020C941802A8
:100070000C941802040001000100010000000000BF
:10008000000000002A2B28000000000000000000F3
:100090000000000000000029000000002C1E342099
:1000A000212224342627252E362D3738271E1F20BF
:1000B0002122232425263333362E37381F04050604
:1000C0000708090A0B0C0D0E0F1011121314151648
:1000D0001718191A1B1C1D2F3130232D3504050646
:1000E0000708090A0B0C0D0E0F1011121314151628
:1000F0001718191A1B1C1D2F3130354C0000000039
:1001000000000000000000000000000000000000EF
:1001100000000000000000000000000000000000DF
:100120007E0F00D4FFFFFFC7000000786432147810
:100130003C1E000101010101010101010202020254
:100140000202020202030303030303030304040481
:10015000040404040505050505060606060607074A
:1001600007070708080808090909090A0A0A0B0B02
:100170000B0C0C0C0D0D0D0E0E0E0F0F0F101011A1
:100180001111121213131414151516161717181827
:1001900019191A1A1B1B1C1D1D1E1E1F202021228F
:1001A00022232424252626272829292A2B2C2D2DD5
:1001B0002E2F30313232333435363738393A3B3CF2
:1001C0003D3E3F404142434445464748494A4C4DE5
:1001D0004E4F50515354555658595A5B5D5E5F61AE
:1001E0006264656668696B6C6D6F70727375777841
:1001F0007A7B7D7E8082838587888A8C8E8F91939F
:100200009596989A9C9EA0A2A3A5A7A9ABADAFB1C5
:10021000B3B5B7BABCBEC0C2C4C6C9CBCDCFD1D4AA
:10022000D6D8DBDDDFE2E4E7E9EBEEF0F3F5F8FA50
:10023000FDFF080344003100500000001603500089
:100240004C0049005000200057006F0072006B0006
:10025000730000000403090409025B00030100A00D
:10026000320904000001030101000921110100010C
:100270002240000705810308000A09040100020367
:10028000000000092111010001222200070582035C
:1002900020000107050303200001090402000103F7
:1002A000000000092111010001227B0007058403E1
:1002B00020000A120100020000000857500100004F
:1002C00000010200010660FF0961A1010962150039
:1002D00026FF009520750881020963150026FF009E
:1002E000952075089102C005010902A10185020946
:1002F00001A10005091901290815002501950875B6
:100300000181020501093009311581257F950275AA
:1003100008810609381581257F9501750881060534
:100320000C0A38021581257F950175088106C0C029
:1003300005010980A101850319012AB700150126CD
:10034000B700950175108100C0050C0901A1018558
:100350000419012AA002150126A002950175108139
:1003600000C005010906A101050719E029E71500EC
:100370002501950875018102950175088101050720
:10038000190029FF150026FF009506750881000554
:1003900008190129059505750191029501750391CB
:1003A00001C011241FBECFEFD4E0DEBFCDBF04B625
:1003B00003FE27C08091410290914202A091430226
:1003C000B09144028730904BA740B04BD1F41092CB
:1003D000410210924202109243021092440214BE53
:1003E00084B7877F84BF0FB6F894A895809160008A
:1003F000886180936000109260000FBEE0E0F8E337
:10040000099511E0A0E0B1E0EEE9FDE402C005903D
:100410000D92A839B107D9F722E0A8E9B1E001C0EF
:100420001D92A134B207E1F70E94FB100C949226B2
:100430000C94000081E0089581E008950C941C0262
:1004400008950C9420021F93CF93DF9300D000D027
:100450000F92CDB7DEB749835A836B8330919A01EF
:1004600089819A8131111DC06623B9F02223A9F038
:100470000E941B08182F682F89819A810E94C20749
:1004800069817A81812F0F900F900F900F900F90BC
:10049000DF91CF911F910C94771A0E94F407182FC7
:1004A000EFCF0E941B0869817A81EDCFFC01262FD6
:1004B000408151816281738184810C94230281E0A7
:1004C0000895CF93DF93EC0160E00E945602BE01D5
:1004D000DF91CF910C942102E1E0F0E0DF0102C056
:1004E000AA0FBB1F6A95E2F7BD01DF0102C0AA0F88
:1004F000BB1F4A95E2F76A2B01C0EE0F2A95EAF777
:10050000962F9823961302C08E2B0895E0958E2384
:100510000895242F462F682F80919E010E946C021F
:100520000C947F070E9430100E94DB030C944B1048
:100530000C944E1008950E9417070E949A022FEF04
:1005400084E39CE0215080409040E1F700C000002F
:100550000C94BB1E0F931F93CF93DF938C0161E02C
:100560000E945602EC01B8010E949818882309F4F1
:1005700041C0B801CE010E941E028823D9F1B80102
:10058000CE010E94AA1B8823A9F1B801CE010E94C6
:10059000FC1B882379F1B801CE010E941F1D88231E
:1005A00049F1B801CE010E947617882319F1F801AC
:1005B0008281882361F0CA35FDE5DF0721F170F4FF
:1005C000C115ECE5DE07A1F0CE3DDC45C9F0C80160
:1005D000DF91CF911F910F910C941A02CB358DE5CD
:1005E000D807A1F0CC35DD4591F70E94ED0BEFCF98
:1005F0000E949B0280E0DF91CF911F910F9108959F
:100600000E94630DF7CF0E94F60BE1CF0E94F90B19
:10061000DECFDF92EF92FF920F931F93CF93DF9382
:10062000E82FF0E0E458FF4FD490282F2695269528
:10063000269530E0F901E45EFE4F0491877010E0EA
:10064000082E02C0159507950A94E2F7017011274C
:10065000F901E45FFE4FE490F12C082E02C0F594FE
:10066000E7940A94E2F791E0E922FF24F901E450CB
:10067000FF4FC491D0E002C0D595C7958A95E2F7A7
:10068000C170DD270115110519F081EE0E942704C4
:10069000E114F10419F086EE0E9427048D2D0E94CA
:1006A000BB04EF2819F086EE0E947504012B19F0A7
:1006B00081EE0E947504CD2B51F08CE2DF91CF9139
:1006C0001F910F91FF90EF90DF900C94BB04DF918E
:1006D000CF911F910F91FF90EF90DF900895EF92CF
:1006E000FF921F93CF93DF93EC01162F888188230D
:1006F00009F451C0813009F04BC08981813099F4EF
:100700007E0122E0E20EF11C8A810E94BB04E70117
:100710002196812F815050F3EFE9FFE03197F1F7F7
:1007200000C00000F7CF823041F47E0182E0E80E85
:10073000F11C8A810E942704EACF833041F47E01B4
:10074000E2E0EE0EF11C8A810E947504E0CF843055
:1007500011F02196DDCF2A81229690E080E0FE0103
:1007600031962053330B2A30310548F0019780F23F
:10077000EFE9FFE03197F1F700C00000F7CF6AE042
:1007800070E00E94F725820F931F2981EF01E7CFC8
:100790000E940903BDCFDF91CF911F91FF90EF9091
:1007A000089560E00C946F0308950C94D40381E0E5
:1007B00008950C94D7030895CF93C82F0E94D503B2
:1007C0008C2FCF910C94D903CF93DF93CDB7DEB7A5
:1007D0002B970FB6F894DEBF0FBECDBF4F8358875F
:1007E00069877A878B8761110E941C0C1E821D828B
:1007F00085E0FE013796DE01119601900D928A95F3
:10080000E1F78C819D81892B89F449815A816B8123
:100810007C818D819E810E94180B2B960FB6F894D7
:10082000DEBF0FBECDBFDF91CF91089589819A8140
:1008300089238F3F51F3CE0101960E945F028111FF
:10084000E4CFEBCFFC01808191810C944808CF93D9
:10085000C82F882309F447C08CEF8C0F813AA0F48D
:100860006C2F80910001909101010E94B11D88239D
:1008700029F08C2F0E94BD0B0E944C0C8C2F0E94E3
:10088000B60BCF910C944C0C80E28C0F883048F45E
:10089000C77081E001C0880FCA95EAF70E94FF0B7C
:1008A000F0CFEBE5EC0FE33040F4F0E0E75BFE4F18
:1008B000808190E0CF910C94731DE8E5EC0FE73157
:1008C00050F4F0E0EE0FFF1FE55EFE4F8081918156
:1008D000CF910C94891DC03F30F08C2F0E948D1158
:1008E000CF910C946012CF910895882361F19CEF11
:1008F000980F913A20F40E94BD0B0C944C0C90E29E
:10090000980F983050F4877091E001C0990F8A9544
:10091000EAF7892F0E94050CF0CF9BE5980F9330E2
:1009200020F490E080E00C94731D98E5980F9731C7
:1009300020F490E080E00C94891D803F20F00E941C
:10094000E7110C94601208951F93CF93DF93182F33
:10095000EB010E942704209731F4812FDF91CF9182
:100960001F910C9475048FE99FE00197F1F700C087
:1009700000002197F0CF70E060E0893311F460E56A
:1009800070E00C94A404882321F00E94FF0B0C94C7
:100990004C0C0895882321F00E94050C0C944C0CFB
:1009A0000895BF92CF92DF92EF92FF920F931F9321
:1009B000CF93DF936C01D62FC72FFC0112810581E5
:1009C00002950F700E94D40BE82E8823A1F0E12E2F
:1009D000112389F08C2F807F803429F080E28D0FE5
:1009E000E12C883040F082E00E949D0C0E94D40BE4
:1009F00091E0E82EE926BC2EB2949FE0B922EB2DBF
:100A0000F0E0EC56F94D0C9430260C2F0F70C07F9F
:100A100011F00295007F1123A9F0002359F080E224
:100A20008D0F883010F0D11109C0802F0E94FF0B6C
:100A30000E944C0C8D2F0E94270414C0802F0E940E
:100A40000F0CF6CF8D2F0E947504002359F080E221
:100A50008D0F883010F0D1112CC0802F0E94050C12
:100A60000E944C0C2B2D2850330B2430310520F4E0
:100A70000E944E1D0E94DC03EE2009F479C10E9401
:100A8000D00B80FD75C1F60112820E94CA0B0E9434
:100A90009007C6010E94D9060E94CA0BDF91CF9130
:100AA0001F910F91FF90EF90DF90CF90BF900C942B
:100AB0009B07802F0E94150CD3CFFC2FFF70FF2EB9
:100AC000C07FC03219F0F29480EFF822DD2369F084
:100AD000D13049F1112391F1002351F1F6018581C3
:100AE00080FFA8CF8F70858323C0112381F001116F
:100AF00006C00E942F0C8F290E94C304B3CF01307F
:100B0000C1F70E942F0C8F290E94350CABCF011129
:100B100006C00E94420C8F2D0E94CA04A3CF013050
:100B200009F4A0CFF6CF112329F0063008F09ACFB0
:100B30008F2DE2CF053008F095CFEDCF002359F38C
:100B4000D93349F4FFEF27EE33E0F1502040304035
:100B5000E1F700C000008D2F0E94750483CF8C2F19
:100B600086958695837069F0813009F07BCF8D2F53
:100B70009C2F9370111102C090E080E00E94891DAB
:100B800071CF8D2F9C2F9370111102C090E080E0E7
:100B90000E94731D67CF8D2F112329F00E948D11A4
:100BA0000E9460125FCF0E94E711FACF8C2F8370F2
:100BB00079F5111157CF4D2F429546954770440F47
:100BC000440F8D2F8F70042E01C0880F0A94EAF70E
:100BD0002D2F2071D4FF07C02FE030E001C0220F7D
:100BE0004A95EAF72095C695C695C370822BC23008
:100BF00049F058F4C13019F00E94710733CF0E94B8
:100C00006C0730CF0E9476072DCF0E946A072ACF4B
:100C10008695112311F08C2F8170882309F422CF3F
:100C20004D2F429546954770440F440F8D2F8F707E
:100C3000042E01C0880F0A94EAF72D2F2071D4FFEB
:100C400007C02FE030E001C0220F4A95EAF7209557
:100C5000C695C695C370822BC23049F058F4C13096
:100C600019F00E94B707FECE0E94B207FBCE0E9489
:100C7000BC07F8CE0E947F07F5CECF70112329F074
:100C80008C2F0E9490078D2F37CF8D2F0E94CA0482
:100C90008C2F0E949B07E6CED23F89F160F4D03FB3
:100CA000C9F0D13F29F1112309F442C00111C2CE8C
:100CB0008C2F8F7121C0D33F39F1D43FA1F711237D
:100CC00069F1CF718C2F0E94900763E08C2F0E94F6
:100CD000820CC8CE112341F0053008F0C3CE8C2F12
:100CE0008F710E94A707BECE063008F0BBCEF7CFAB
:100CF0008C2F8F71112369F20E949007B3CE8C2F35
:100D00008F711123C9F3C5CF112329F08C2F8F7157
:100D10000E948807A7CE0E948507A4CE81E00E948A
:100D20009D0C023008F49ECE82E00E949D0C9ACE6B
:100D3000002359F0D93309F00ECF8FEF97EEE3E09F
:100D400081509040E040E1F704CF8C2F8F71A1CF0C
:100D50004C2F4F706D2FC6010E94120E0E94760814
:100D600081CE4C2F4F706D2FC6010E94150E7ACE8A
:100D7000DF91CF911F910F91FF90EF90DF90CF9077
:100D8000BF9008950F931F93CF93DF93EC01688179
:100D900079818A810E9452088C010E94C1070E94B9
:100DA0006907B801CE01DF91CF911F910F910C948B
:100DB000D104CF93DF93EC018B819C81892B29F0A7
:100DC0008881998189238F3F59F4DF91CF910895CC
:100DD000CE010E94C206CE01DF91CF910C94610238
:100DE000CE010E94AA028111F3CF0E94D40B882366
:100DF00061F38A81882349F382E0DF91CF910C94DB
:100E00009D0C90E080E00E94731D90E080E00E94C5
:100E1000891D0E941C0C0E942C0C0E944C0C0E94EC
:100E200091130C9460120E94C40B0C9401070E9451
:100E30000C0C0C941307E92FE295EF70E250EE30A2
:100E400070F4F0E0EC55F94D0C943026803F19F029
:100E500020F4883E20F481E00895843FE1F380E0AF
:100E60000895883EC0F3813FD1F7F5CF93FB8827E3
:100E700080F90895FC01808191810E9448080C94BA
:100E80001B07CF93DF9300D000D00F92CDB7DEB712
:100E90000F900F900F900F900F90DF91CF910895CA
:100EA000CF93DF9300D000D000D0CDB7DEB7269629
:100EB0000FB6F894DEBF0FBECDBFDF91CF9108957E
:100EC00008950C9460070E94610780939F010C9421
:100ED000010708950C94630790919F01892B0C944E
:100EE000630790919F0189230C94630790919F0160
:100EF00089270C9463070C9460070C947B070E946D
:100F00007D0780939E010C94010780E00C947F077D
:100F100091E001C0990F8A95EAF7892F0C947F0719
:100F200021E030E001C0220F8A95EAF780919E010E
:100F3000822B0C947F0721E030E001C0220F8A95BC
:100F4000EAF7209580919E0182230C947F0721E08F
:100F500030E001C0220F8A95EAF780919E01822736
:100F60000C947F0790919E01892B0C947F079091A0
:100F70009E0189230C947F0790919E0189270C94F0
:100F80007F070895CF93DF93262F890F982F9770AF
:100F9000E1E001C0EE0F9A95EAF786958695869571
:100FA00090E063E070E00E94F725DC01A556BE4F9B
:100FB00050E040E0622F70E08D91ED0121979B01A0
:100FC000042E02C0369527950A94E2F721702195E8
:100FD00028272E23282728834F5F5F4F4330510552
:100FE00059F7DF91CF910895890FA82FA7708695A3
:100FF0008695869590E063E070E00E94F725FC01FD
:10100000E556FE4F50E040E080E0219130E00A2EAE
:1010100002C0369527950A94E2F721703327042EF3
:1010200001C0220F0A94EAF7822B4F5F5F4F4330D3
:10103000510559F70895CF92DF92FF920F931F93B6
:10104000CF93DF936C0100919E0180919F01082B4B
:10105000C7E0D0E010E0FC2EC8010C2E02C0959530
:1010600087950A94E2F780FD0CC02197A0F7F12C38
:101070008F2DDF91CF911F910F91FF90DF90CF9037
:101080000895B6018C2F0E94380F019771F3F0CFAD
:10109000CF93DF93EC010E941B08BE01DF91CF913B
:1010A0000C94380F1F93CF93DF93EB0190919A012B
:1010B000992331F0CB01DF91CF911F910C94480817
:1010C000882379F0CB010E941B08182F682FCE01CE
:1010D0000E94C207BE01812FDF91CF911F910C9416
:1010E000380FCB010E94F407182FF4CFEF92FF9234
:1010F0000F931F93CF93DF938C01892B81F0F12CF9
:10110000EE24E394E8012196F8018491843770F489
:10111000843008F05FC08130B1F08230A1F1DF91FE
:10112000CF911F910F91FF90EF900895853709F4AB
:101130004CC008F43DC09CE7980F903780F78F773C
:101140000E94750449C00E5F1F4FFE01849190E21A
:10115000980F983060F48770FE2D01C0FF0F8A95BC
:10116000EAF78F2F0E941F0C0E944C0C02C00E94B5
:1011700027048F2D815030F2EFE9FFE03197F1F72E
:1011800000C00000F7CF0E5F1F4FFE01849190E278
:10119000980F983050F48770FE2D01C0FF0F8A958C
:1011A000EAF78F2F0E94250CDFCF0E947504E1CF54
:1011B0000E5F1F4FFE01C491C150D8F28FE99FE02E
:1011C0000197F1F700C00000F7CF0E5F1F4FFE013F
:1011D000F490CFCF0E9427048E01CBCFCF93DF9323
:1011E000C091A0018091A1018C1303C0DF91CF9128
:1011F0000895D0E0CE0166E070E00E94F725FC0182
:10120000EE55FE4F408151816281738184819581C9
:101210000E9450072196C770E5CF4091D2015091AE
:10122000D3016091D4017091D5018091D601909144
:10123000D7010C9450071F93CF93DF938091D70170
:10124000807FA1F48091D401882381F02091A001B6
:10125000B091A1014091D201A091D301C091D501DB
:10126000D091D601142F1A23B21304C0DF91CF916D
:101270001F91089530E0209711F01F3F21F42F5F58
:101280003F4F2770F1CFC90166E070E00E94F7255B
:10129000FC01EE55FE4F81818A13F1CF80818413CA
:1012A000EECF82818111EBCF838194818C1B9D0BCA
:1012B000883C910520F78091D7018F7080618093E1
:1012C000D701C90166E070E00E94F725FC01E955ED
:1012D000FE4F90819F709061908382ED91E00E941B
:1012E000D906DF91CF911F910C94EE08AF92BF9277
:1012F000CF92DF92EF92FF920F931F93CF93DF93E2
:10130000CDB7DEB761970FB6F894DEBF0FBECDBF85
:101310008C0185E0F801DE011D9601900D928A9501
:10132000E1F7F801E28082EDC82E81E0D82E6091CD
:10133000D5017091D6016115710509F45DC19091D7
:10134000D2013091D301892F83238F3F09F454C1F7
:1013500040812181A380B480F090D401F501E61B87
:10136000F70BFF2009F4F8C08091D701582F507F68
:10137000E83CF10508F0B0C051117AC0FE2C3213E0
:1013800023C0941321C0E1101FC08F70806180932F
:10139000D7010E940D09C6010E94D9068091D7018C
:1013A000F80185838F2D61960FB6F894DEBF0FBECE
:1013B000CDBFDF91CF911F910F91FF90EF90DF9004
:1013C000CF90BF90AF900895AB2829F0842F82234F
:1013D0008F3F09F02AC180E0F82FF170DF2EE091F5
:1013E000A0013091A10180FD20C0EE20D9F28091B2
:1013F000D70181608093D701F12CD4CFF0E0CF01E9
:1014000066E070E00E94F725DC01AE55BE4F1196F4
:101410008C911197821307C08C91841304C012968B
:101420008C91E812E2CF3196E770E313E7CF4D8756
:101430002E878D859E850E944808292F22952F7022
:10144000223050F0243078F49F7051F0F8019581EB
:10145000907F31F4D12C0AC09F7011F08823D1F312
:10146000805E8830B8F3C8010E94D906FD2C9ACF5F
:10147000321306C0941304C0F801EE2009F488C0AA
:10148000C8010E943A07882319F1EE2009F18091E2
:10149000D701803270F02091D2013091D30138878A
:1014A0002F831986BB86AA868C87CE0107960E9459
:1014B000D90686E0F801A2EDB1E001900D928A957F
:1014C000E1F70E941B090E940D09FF24F3946ACFE3
:1014D000C8010E94D906F9CF511114C07A2DB98ADA
:1014E000A88A522F6E2D89890E94410782ED91E0D2
:1014F0000E94D90686E0F60111928A95E9F70E94CA
:101500000D097ACF32130FC094130DC0E1100BC038
:10151000F8018583C8010E94D90686E0F601119280
:101520008A95E9F73FCFC8010E943A07882381F2E4
:10153000EE2071F28091D701803208F4BACF209169
:10154000D2013091D3013A8329831B82BD82AC82C0
:101550008E83CE010196ABCFE83CF10508F03EC08A
:10156000FE2CEE2009F4B4CF32132AC0941328C005
:101570008091D70180FD1BC0982F907FC1F0F801AA
:101580008583903F31F0982F907F905F8F70892BEB
:101590008583C8010E94D90686E0F801A2EDB1E07A
:1015A00001900D928A95E1F70E940D09FBCE86E02D
:1015B000F801A2EDB1E001900D928A95E1F7F2CE2B
:1015C000C8010E943A07811174CF8091D7018160D0
:1015D0008093D701C8010E94D906E4CE7A2DB98A3A
:1015E000A88A522F6E2D89890E94410786E0F60154
:1015F00011928A95E9F7D8CFEE2009F469CFC80196
:101600000E943A07F82E882309F462CF86E0F80199
:10161000A2EDB1E001900D928A95E1F782ED91E0A3
:101620000E9422040E941B09BFCF81E08E25D4CEE8
:10163000CF93DF93CDB7DEB72C970FB6F894DEBF0C
:101640000FBECDBF4F83588769877A878B879C876A
:10165000CE0107960E9476098823D1F08A859B8562
:10166000892B39F04F815885842F85238F3F09F0CE
:1016700076C08091A0019091A101891349C02C9658
:101680000FB6F894DEBF0FBECDBFDF91CF910895A6
:1016900086E0FE013796DE01119601900D928A9543
:1016A000E1F78A859B85892B21F38F819885892392
:1016B0008F3FF9F28091A10190E09C012F5F3F4F95
:1016C000277033274091A0014217130671F40E943E
:1016D00017071092A1011092A00186E0E2EDF1E05F
:1016E000DF011D928A95E9F7C4CF66E070E00E94A1
:1016F000F725DC01AE55BE4F96E0FE013196019014
:101700000D929A95E1F72093A1010E94EE08B1CFC6
:1017100090E066E070E00E94F7258E559E4F0E9493
:101720007609882309F4ABCF8091A00190E066E0B0
:1017300070E00E94F725FC01EE55FE4F408151817B
:1017400062817381848195810E9450078091A001FC
:1017500090E00196877099278093A0018ACF6985D0
:101760007A858B859C850E94500783CF682F809156
:101770000001909101010C94E71D682F80910001F8
:10178000909101010C94E91D80910001909101015B
:101790000C94EB1D8091D8018595859585950895CC
:1017A0008091D801877008959091D801977081E059
:1017B00009F480E008959091220292FB222720F9FB
:1017C000281751F080FB92F9909322028091210218
:1017D000909122020C94E00C08958091220282FBE9
:1017E000882780F991E089270C94DB0B81E00C9429
:1017F000DB0B80E00C94DB0B8091E4010895909169
:10180000E401892B8093E401089580959091E4018F
:1018100098239093E40108951092E4010895909123
:10182000E301892B8093E301089580959091E30172
:1018300098239093E30108951092E3010895909105
:10184000E201892B8093E201089580959091E20155
:1018500098239093E20108951092E20108958091F7
:10186000D901089508950C94320C9091220292FDB2
:1018700008C09091D901981721F08093D9010C9458
:10188000330C08958091D901882329F01092D90151
:1018900080E00C94330C0895E0910001F091010177
:1018A0008091E4018083E0910001F0910101808149
:1018B0009091E301892B8083E0910001F091010177
:1018C00080819091E201892B80839091D9019923A5
:1018D00081F0E0910001F09101018081892B8083EA
:1018E00080910001909101010E949F1D81110E9431
:1018F000420C80910001909101010C945A1D0895B1
:101900000C947F0C9091220292FD10C0982F990F99
:10191000990F990F962B9093D8010E949007809170
:10192000D8018595859585950C94800C0C9490072D
:101930001092D80180E00C94800C9091D801809591
:1019400089238093D801282F277039F4282F082E57
:10195000000C330B9217130621F49091220292FF90
:1019600007C08595859585950E949B070C94980CDA
:1019700008956FEF7FEF90E080E00C947C2690E07C
:1019800080E00E945826893E9E4F11F40C94411825
:1019900080E0089582E090E00C944A2683E090E095
:1019A0000C944A26CF9384E090E00E944A26C82FE8
:1019B00082E290E00E944A26982F8C2FCF910895C2
:1019C000CF93C92F682F84E090E00E945E266C2F91
:1019D00082E290E0CF910C945E26AB01BC018FE0D7
:1019E00090E00C947026AB01BC0183E190E00C9474
:1019F000702660E070E0CB010C94F30C60E070E0C6
:101A0000CB010E94ED0C0C94F90C69EE7EEF90E096
:101A100080E00E947C2660E082E090E00E945E26EA
:101A200060E083E090E00E945E2610929F0160E0FB
:101A300084E090E00E945E2660E082E290E00E94F6
:101A40005E2660E085E090E00E945E2660E086E031
:101A500090E00E945E266FEF87E090E00E945E2695
:101A600040E050E0BA0188E090E00E94702660E01B
:101A70008DE090E00E945E2640E050E0BA0188E1EF
:101A800090E00E94702660E087E190E00E945E2670
:101A900040E050E0BA018CE190E00E94702670E0D6
:101AA00060E080E290E00E947C2640E050E0BA01D5
:101AB00088E190E00E94702680E00E945A180E94FF
:101AC00080180C94FE0C0C94050D682F8EE090E0AD
:101AD0000C945E260E947C1E6093EB017093EC01D7
:101AE0008093ED019093EE016093E7017093E8011C
:101AF0008093E9019093EA010895089508950C9464
:101B00007D0D08950C94810D86E190E10E94DF1E09
:101B10000E947E0D0C947F0D81E008950C948C0D35
:101B2000089508950E94900D0C94910D0E94671ED7
:101B30000E948F180E9493100E94C8160C94820D68
:101B40000F931F93CF93DF93CDB7DEB72A970FB6CE
:101B5000F894DEBF0FBECDBF0E949E1081110E947F
:101B60006A0D80E00E945010182F8091E601082F26
:101B70000127811739F08091EF0181FD0E945610F5
:101B800000FD2AC08FEF89838A831B820E94701E0A
:101B90008160782F9D838C8349815A816B818D81EF
:101BA0000E94E4030E9403170E947B120E944E1DB4
:101BB0009091E501891759F10E944E1D8093E5012E
:101BC0002A960FB6F894DEBF0FBECDBFDF91CF913E
:101BD0001F910F910C94DC030E948E0D882381F0DD
:101BE0001E821F82117018870E94701E8160782FDC
:101BF0009A8789874E815F8168858A850E94E40380
:101C00008091E60191E089278093E601CBCF2A9667
:101C10000FB6F894DEBF0FBECDBFDF91CF911F91FD
:101C20000F91089590E080E008950895FC01EE0F73
:101C3000FF1FE45DFE4F859194910895CF93DF934C
:101C40000E943C0FEC01811520E5920708F042C08C
:101C5000811530E4930708F0BFC0883E910528F550
:101C6000803E910508F0A0C0883A910588F4853A35
:101C7000910508F092C08130910509F495C0009754
:101C800009F492C0049708F08FC0D0E0C0E08CC087
:101C90008F3B910508F48CC0805C9109C03CD10554
:101CA000A0F30E94160EEC017FC0811540E294075C
:101CB00050F4C11581E0D80708F076C0C03FD105C7
:101CC00020F3D06571C0811520E3920708F07BC036
:101CD0009F70E7CF811535E5930770F5811544E5D1
:101CE000940708F0ADC0C11582E5D80750F4C115BE
:101CF00021E5D20708F473C0DC2FCC27C16FD06A6E
:101D000053C09C2F969596959E0123703327C1153D
:101D1000D34508F083C0C1E0D0E002C0CC0FDD1F86
:101D20002A95E2F7892F90E0E5E0880F991FEA9560
:101D3000E1F7C82BD92B70C0C11589E5D807A8F4E5
:101D4000C11528E5D20708F080C0C11536E5D307D4
:101D500008F09BCF8C2F0E94D30FC82FD0E0DC2F30
:101D6000CC27CC27DF71D0621FC0C1154AE5D4074C
:101D700008F470C0CE0190568115904208F085CFCE
:101D80008D2F8F710E94D30F90E0982F882788277E
:101D90009F719C012C2BE901E6CFC55AD0E0C658B3
:101DA000DE4FC881D0E0D064CE01DF91CF9108959D
:101DB000C85AD0E0CC0FDD1FC45BDE4F0990D8813C
:101DC000C02DD464F1CF9927D3FF03C0EC01D86CA8
:101DD000EBCFEC01D06CE8CFDF70D06AE5CFCE015D
:101DE000A4E096958795AA95E1F783702C2F269508
:101DF0002695237030E0B5E0220F331FBA95E1F746
:101E0000382B8C2F8370C1E0D0E002C0CC0FDD1FD7
:101E10008A95E2F7C22BD32BDC68C6CFC1E0D0E0B5
:101E200002C0CC0FDD1F2A95E2F7892F90E075E004
:101E3000880F991F7A95E1F7C82BD92BDA68B4CFB0
:101E4000D82FCC27C46FD06AAFCFDC2FCC27C06F80
:101E5000D06AAACF8C2F8F700E94D30F34E0D69512
:101E6000C7953A95E1F7CF709C2FEC01D0699CCFD4
:101E70000E94771A0C941E0E82389105B1F1B0F4CD
:101E80008133910509F475C048F48932910509F44C
:101E900069C08A32910509F473C0089585339105AC
:101EA00009F459C08933910501F10895833E9105E4
:101EB000A9F138F4803E9105F9F0823E910549F18F
:101EC0000895863E9105A9F1873E9105C9F1843EAA
:101ED000910519F52091220221FF1FC08091210256
:101EE00084FD14C087EE90E00895209121022370B4
:101EF000A1F080EE90E008952091210220FD47C0DE
:101F00003091220230FF09C024FF44C090E080E0FD
:101F100004C02091210222FDF7CF089520912102D3
:101F200022FD3BC03091220230FDE3CF24FFF5CFEC
:101F3000EDCF2091210223FFF0CF24FDE7CFD2CFB8
:101F40002091210223FD2CC03091220231FFEECFDF
:101F500084EE90E008952091210225FFDECF89E2F2
:101F600090E008952091210225FFD7CF85E390E0EE
:101F700008952091210226FFD0CF8AE290E00895B3
:101F80002091210226FFC9CF81E390E0089589E3E3
:101F900090E0089583EE90E0089582EE90E0089539
:101FA00086EE90E008959091210292FF06C0282FBE
:101FB00028712830F9F4877F846093FF06C0282FAA
:101FC00028712831F1F4877E84612091220220FF5C
:101FD00006C0382F38713830D9F4877F816021FFEF
:101FE00006C0282F28712831D1F4877E816194FDA5
:101FF000877E0895282F24712430F9F68B7F88601E
:10200000DCCF282F2471243101F78B7E8861DDCF4E
:10201000382F3171313019F78E7F8860E0CF282F4B
:102020002171213121F78E7E8861E1CF80E0089512
:102030000C94B90C0E949E108FE39CE90197F1F774
:1020400000C000000E949E1080E00E94501080FF9F
:1020500004C00E9418100C94BB1E08950C941A1012
:102060000E94BF0C811102C00E94630D0E94CA0C25
:102070008093EF010E94D20C909322028093210260
:102080000E942E100E94CE0C0E946A0780919E0131
:102090000C947D0708950C944A1008950C944D10EB
:1020A000E82FF0E0EC5DFD4F80810895089580EA0F
:1020B0008A95F1F7089500C008950C945710F8948C
:1020C00027982F9A789408950E945F10F894529858
:1020D0005A9A78940895EF92FF921F93CF93DF93CB
:1020E0007C01162FF894279A2F9878940E945B1001
:1020F000C9B1D0E0D595C795D595C795C095D09570
:102100000E945F106C2F6170812F0E945D10F7019B
:10211000E10FF11DC170DD27C083DF91CF911F91C9
:10212000FF90EF9008950E94641010922302109285
:10213000240281E00E94C4100C9492021F93CF935A
:10214000DF930F92CDB7DEB7198260E0CE01019622
:102150000E946B1090912302898111E0981301C0B5
:1021600010E0981380932302212F41E064E272E093
:1021700083E292E00E94C5100E949802812F0F9086
:10218000DF91CF911F9108950895FF920F931F93B0
:10219000CF93DF93F82E092F162FD72FC42F22238A
:1021A00049F081E08093F2010E94701E9093F1014A
:1021B0008093F0018091F2018823A1F08091F001D9
:1021C0009091F1010E94881E059760F0EF2DF02F8D
:1021D000A12FBD2FCE0FDF2FD11DEC17FD0741F42E
:1021E0001092F201DF91CF911F910F91FF9008950E
:1021F00081918D93F2CF0E94F21D0E945F200E9478
:1022000078200E948A200E94920DFBCF8091F901D4
:1022100080FF11C08091070190E065E070E00E94AE
:10222000F725959587959595879580389105B0F513
:102230000097B1F1089581FF0AC08091070190E0F5
:1022400065E070E00E94F72595958795EECF82FFB7
:1022500008C08091070190E065E070E00E94F725DA
:10226000E4CF8091F8018823B1F0209106016091BC
:10227000070170E0821710F0CB01EECF90E00E94D2
:10228000F72565E070E00E94F725622F70E00E945C
:102290001C26CB01CACF85E090E008958FE7089512
:1022A00081E008958091F90180FF0CC060910301E5
:1022B00070E075956795759567956115710559F18C
:1022C000862F089581FF06C06091030170E0759527
:1022D0006795F3CF6091030170E082FD0CC06091BF
:1022E000F7016623A9F0209102018091030190E09B
:1022F000621730F0BC0160387105F8F28FE708957D
:1023000070E00E94F725622F70E00E941C26F3CF38
:1023100061E070E0D5CF81E00895803F31F40E9404
:10232000061181958093FD010895813F19F40E9463
:102330000611F8CF823F31F40E94061181958093F7
:10234000FC010895833F19F40E940611F8CF893FDC
:1023500029F40E9452118093FE0108958A3F21F4CE
:102360000E9452118195F7CF8B3F31F40E94521198
:1023700081958093FF0108958C3F19F40E945211BA
:10238000F8CF9CE0980F953070F4845F990B21E0B2
:1023900030E001C0220F8A95EAF78091FB01822B81
:1023A0008093FB0108958D3F31F48091F9018160A4
:1023B0008093F90108958E3F21F48091F9018260A4
:1023C000F7CF8F3FB9F78091F9018460F1CF409149
:1023D000FC01803F59F48091FD0187FF0DC01092F0
:1023E000FD0141110BC01092F80108C0813F81F43A
:1023F0008091FD0118169CF3442381F08091FE0129
:102400009091FF01892B09F05AC01092F7010895AD
:10241000823F49F447FFF0CF1092FC018091FD010B
:102420008111ECCFE0CF833F19F41416ACF3E4CF65
:102430009091FE01893F29F41916F4F61092FE01DD
:10244000DBCF8A3F19F497FFD7CFF8CF9091FF01E8
:102450008B3F29F497FFD0CF1092FF01CDCF8C3F57
:1024600019F41916CCF3C8CF9CE0980F953090F46E
:10247000845F990B21E030E0B90102C0660F771F3D
:102480008A95E2F7CB0180959091FB018923809397
:10249000FB01B2CF8D3F31F48091F9018E7F8093A3
:1024A000F901AACF8E3F21F48091F9018D7FF7CFFA
:1024B0008F3F09F0A1CF8091F9018B7FF0CF089574
:1024C0000E94701E9C019091FC018091FD01982B4F
:1024D00021F03093F6012093F5019091FE01809157
:1024E000FF01982B21F03093F4012093F3018AEF40
:1024F00091E00C94651DEF92FF920F931F93CF9381
:10250000DF9300D000D000D0CDB7DEB786E0EAEF91
:10251000F1E0DE01119601900D928A95E1F7E090CD
:10252000FC01F090FD010091FE011091FF0110925D
:10253000FC011092FD011092FE011092FF018E2D00
:102540008F2991F08091F5019091F6010E94881EEB
:10255000FC012091F801222309F43FC08091080179
:102560008E171F0608F448C0802F812B91F08091B0
:10257000F3019091F4010E94881EFC012091F70163
:10258000222309F47CC0809104018E171F0608F4F1
:1025900085C08091FC019091FD01892B9091FE01F5
:1025A000892B9091FF01892B11F00E94601286E027
:1025B000FE013196AAEFB1E001900D928A95E1F704
:1025C00026960FB6F894DEBF0FBECDBFDF91CF9138
:1025D0001F910F91FF90EF9008958091090190E075
:1025E0006AE070E00E94F7258E179F0708F0BCCFC5
:1025F0002F5F2093F80102C02F3FD1F7EE2051F05A
:102600000E9406116FEF1E140CF461E00E94EE258B
:102610008093FC01FF2051F00E9406116FEF1F1400
:102620000CF461E00E94EE258093FD018091FC0195
:10263000882309F499CF2091FD01222309F494CF36
:10264000082E000C990B65EB70E00E94F72599238A
:1026500071F09093FC01822F220F990B65EB70E0D3
:102660000E94F725992339F09093FD017DCF81E0F9
:102670008093FC01F0CF81E08093FD0175CF8091C4
:10268000050190E06AE070E00E94F7258E179F0731
:1026900008F07FCF2F5F2093F70102C02F3FD1F7C3
:1026A000002351F00E9452116FEF10160CF461E0FC
:1026B0000E94EE258093FE01112351F00E945211D9
:1026C0006FEF11160CF461E00E94EE258093FF017C
:1026D0008091FE01882309F45CCF2091FF01222321
:1026E00009F457CF082E000C990B65EB70E00E949F
:1026F000F725992371F09093FE01822F220F990BF9
:1027000065EB70E00E94F725992339F09093FF0163
:1027100040CF81E08093FE01F0CF81E08093FF0104
:1027200038CF86E0EAEFF1E0DF011D928A95E9F704
:102730001092F8011092F7011092F9010895EF92AA
:10274000FF920F931F93CF93DF93982F711111C0B6
:10275000442329F0E82FF0E0EE5CFE4F9491692FBE
:10276000792F892FDF91CF911F910F91FF90EF90DB
:102770000895262F30E0C72FD0E0E82FF0E0442363
:1027800021F0EE5CFE4FE491F0E0C90166E070E0FC
:102790000E94F7250FEF10E0B8010E940826DB0128
:1027A000220F331FCB0165E570E00E94F725281B3F
:1027B000390BE22EEE0CE20EC8018C1B9D0BBF0103
:1027C0000E94F725292FF12CC701BE010E94F72591
:1027D000492F50E0C801841B950BBF010E94F725CB
:1027E000392FC8018E199F09BE010E94F725492F74
:1027F00050E0C801841B950BBF010E94F725892F6B
:102800007E2FA230B10589F038F4109759F0119756
:1028100081F0922F232F06C0A430B10569F080F01B
:102820001697B9F7692F822F9DCF9E2F722F282FD1
:10283000F9CF9E2F732FF6CF922F2E2F782FF2CF16
:10284000722F2E2F932FEECF41E00C949F130895FB
:102850000C942414CF93DF93762FE901682F842FF3
:102860000E942814798368838A83DF91CF91089529
:1028700080912502982F9E7F29F481708260809339
:10288000250208958631E8F381708461F8CF88E0ED
:1028900090E00C945226CF92DF92EF92FF926B0160
:1028A0007C010E943814B701A60188E090E0FF90F7
:1028B000EF90DF90CF900C9470266091250270917C
:1028C000260280912702909128020C944B14E5E295
:1028D000F2E083E0808311828FEF8283838314820E
:1028E00060817181828193810C944B1480912502C7
:1028F00080FF02C08695089580E008959091290296
:10290000933018F49F5F90932902882351F06091CF
:1029100025027091260280912702909128020C9442
:102920004B14089581E00C947E1490912902992310
:1029300019F0915090932902882351F0609125025B
:102940007091260280912702909128020C944B14DA
:10295000089581E00C949514809129020895809344
:102960002902662351F06091250270912602809120
:102970002702909128020C944B14089560E00C9467
:10298000AF148091260208958091270208958091C6
:102990002802089570E00C94141830910B01809176
:1029A000250280FF0CC080910A0190E063E070E096
:1029B0000E94F725632F865D9D4F0C94CA142091C9
:1029C0000C0140910D01822F90E063E070E00E94C5
:1029D000F725FC01E65DFD4F241728F711821082D0
:1029E00012822F5F3396F8CFA82FB62F8091250241
:1029F00080FF17C020910C0130910D01822F90E0D3
:102A000063E070E00E94F725FC01E65DFD4F2317AF
:102A100010F00C94CD14A183B08342832F5F3396C2
:102A2000F6CF0895CF93DF9300D00F92CDB7DEB7E6
:102A30009091250290FF0AC09E012F5F3F4F0E9498
:102A40002A144B8169818A810E94F4140F900F909F
:102A50000F90DF91CF910895CF93DF93EC01E5E2E2
:102A6000F2E0438162818C810E9412158C818F5F1C
:102A70008C83DF91CF910895EF92FF920F931F9374
:102A8000CF93DF9300D00F92CDB7DEB7182FF62E7D
:102A9000042FE22E8091250280FF28C0E82FE695C2
:102AA000F0E0E358FE4F9081909307028E7F8230D2
:102AB00039F59E012F5F3F4F812F0E942A144B81D1
:102AC00069818A810E94F41410932602F0922702F1
:102AD00000932802EE2051F06091250270912602A9
:102AE00080912702909128020E944B140F900F9022
:102AF0000F90DF91CF911F910F91FF90EF9008956C
:102B0000923019F410912602DFCF9530E9F6FACF12
:102B1000E5E2F2E09181282F4381628188E0890F0C
:102B20000C943C1581E00C948815E5E2F2E091816B
:102B3000282F4381628188EF890F0C943C1581E036
:102B40000C949515E5E2F2E0628121E1620F08F450
:102B50006FEF282F438181810C943C1581E00C9408
:102B6000A215E5E2F2E0628121E1621B08F460E077
:102B7000282F438181810C943C1581E00C94B11580
:102B8000E5E2F2E0438121E1420F08F44FEF282F04
:102B9000628181810C943C1581E00C94C015E5E2C2
:102BA000F2E0438121E1421B08F440E0282F6281DA
:102BB00081810C943C1581E00C94CF1520E00C949D
:102BC0003C15EF92FF921F93CF93DF93EC0110E03F
:102BD000EE24EA94F12C30910E01131770F00E944C
:102BE000CD149A818C8190FF27C08F5F8C83DF91F9
:102BF000CF911F91FF90EF90089580910C01810F6C
:102C00009927991F63E070E00E94F725FC01E65DBB
:102C1000FD4F632F70E0C7010E941C26812F0E9488
:102C2000EE259C819F014091280260912702890F27
:102C30000E942A141F5FCFCF8150D8CFE5E2F2E087
:102C400080818E7F808360817181828193810E94E7
:102C50004B14109208022FEF80E792E02150804041
:102C60009040E1F700C000000C94CD14E5E2F2E0E2
:102C700080818E7F8083109208022FEF80E792E0A0
:102C8000215080409040E1F700C000000C94CD142A
:102C900060912502669570E041E050E08FE091E0A0
:102CA0000E943D26892B19F481E0809308020E943E
:102CB000701E909301028093000208959091250266
:102CC00090FF35C09170811128C0926090932502C9
:102CD000662351F0609125027091260280912702AF
:102CE000909128020E944B1460912502669570E035
:102CF00041E050E08FE091E00E943D26892BA1F059
:102D00001092080281E080930302409128026091B2
:102D10002702809126020C94DE158B3010F094610E
:102D2000D5CF880F982BD2CF0E944816EBCF0895AD
:102D3000682F90912502969581E0890F8B3008F0DD
:102D400081E00C945E1681E00C949816682F9091A7
:102D5000250296958FEF890F09F48AE00C945E1690
:102D600081E00C94A61661E00C945E16E5E2F2E0B8
:102D700080818160808386950C94B31680912502B2
:102D800080FD0C941E160C94B61660E00C945E1632
:102D90008091060281112EC00E94BF0C811104C0D7
:102DA0000E94630D0E9467140E94471460932502DD
:102DB0007093260280932702909328026E7F61F41D
:102DC0000E9467140E9447146093250270932602A4
:102DD00080932702909328020E94381410920802D0
:102DE0008091250280FF03C086950E94C51681E070
:102DF000809306020895E5E2F2E08081816080839D
:102E000086950C94C5160F931F93CF93DF938091F3
:102E10000802882309F44BC080910702E091250243
:102E2000E695E81BE0930202823089F5F0E0E15D6F
:102E3000FE4FE491CE2FD0E00CE215E18091030229
:102E4000882361F0109203020E94701E9093010289
:102E50008093000210920502109204020E94701EDC
:102E6000E0910002F09101028E1B9F0B8F3F9F4764
:102E7000F0F4CE0FDF1FD0930102C093000280E078
:102E800092E0F801DF91CF911F910F910994C0ED6D
:102E9000D7E007E214E1853089F6E695F0E0E45DDD
:102EA000FE4FE491CE2FD0E001EE15E1C7CFDF91C8
:102EB000CF911F910F910895FA01811101C0FB017B
:102EC0000994CF93DF93C82FD62F0E9476148C17C6
:102ED00040F00E9476148D1720F4DF91CF910C946E
:102EE000A3168C2FDF91CF910C94B3160F931F93E1
:102EF000CF938C01FB01C281CC2309F493C00E94C3
:102F0000FC0B82720A3CFCE51F0709F475C060F5F2
:102F1000053CECE51E0709F45BC080F4033C9CE52E
:102F2000190709F44BC008F04EC0023C1C4509F4D7
:102F300042C08C2FCF911F910F910895073C9CE5C3
:102F4000190709F44FC008F448C0083CFCE51F0706
:102F500009F44DC04BED55E16CEC75E1093C1C45A5
:102F600041F70E945C1715C00F3CECE51E0709F401
:102F700056C088F40C3C9CE5190709F447C008F4D6
:102F800040C00D3CFCE51F0709F445C00E3C1C4544
:102F900081F6C0E0CECF063D9CE5190740F46AE01B
:102FA00085E0013D1C45A8F70E946117F2CF0D3561
:102FB0001D4579F3BECF0E94BE16EBCF40EB56E124
:102FC00063EA76E1CECF43EA56E160EB76E1C9CF22
:102FD0004FE955E162E975E1C4CF42E955E16FE996
:102FE00075E1BFCF4DEB55E16EEA75E1BACF4EEA20
:102FF00055E16DEB75E1B5CF4CEC55E16BED75E14D
:10300000B0CF49EA54E162E974E1ABCF42E954E15F
:1030100069EA74E1A6CF81E00E94B316BACF64E0FA
:1030200082E0C2CFC1E085CF9C01CB013D9A48B17F
:103030004F7DE8B1E062FFB7F89463E070E00E9472
:10304000F725820F931F8217930741F4FFBF8FE587
:1030500094E00197F1F700C000000895D9015D9157
:103060009D0168E0E8B9000000C057FF48B9550F5E
:10307000000000C000C000C048B900C06A9591F7C8
:10308000E2CF83E290E00E944A26823289F484E211
:1030900090E00E944A26833059F485E290E00E9435
:1030A0004A2691E0883009F090E0892F81700895D8
:1030B00080E0FCCFCF93C82F6FEF811162E283E2F3
:1030C00090E00E945E266FEFC11163E084E290E021
:1030D0000E945E266FEFC11168E085E290E0CF911B
:1030E0000C945E26089586E290E00E944A26682F9E
:1030F00070E090E080E0089586E290E00C945E2617
:1031000080E00E945A1860E070E0CB010E947C18B9
:103110000E94121A0E94D71A81E00C945A180E9439
:1031200072180E944118811102C00C9480180895F1
:10313000CF93FB01C281CC2309F19C0122513F4571
:103140002031310520F582510E94E71AC0E08C2F12
:10315000CF91089581E00E94900743E062E081E012
:103160000E948902F3CF81E00E949B0743E062E066
:1031700081E00E948902EBCF82E0F6CF8031FFE54B
:103180009F0789F381319F45B9F3C1E0E0CF8031DA
:10319000EFE59E07F9F281319F45C9F682E0DBCF6A
:1031A0002FEFFC0120830895CF93DF93EC018881FA
:1031B0008138A9F028F4803871F0DF91CF9108951B
:1031C000823881F08338C9F70E94C11489830E9434
:1031D000C4148A83F2CF0E94C7148983EECF0E9461
:1031E0007614FBCF0E94AC14F8CFCF93DF93EC01A1
:1031F00088818138E1F028F4803869F0DF91CF913F
:103200000895823811F18338C9F70E94C714482FF6
:103210006A81898108C0D9810E94C414C82F0E9484
:10322000C1144D2F6C2FDF91CF910C94DE15898145
:103230000E94C5168981811104C0DF91CF910C9441
:103240003616DF91CF910C94FB168981DF91CF91D7
:103250000C94BE141F93CF93DF93EC01162FDC0167
:10326000ED91CD01E150E33108F09FC0F0E0EE5464
:10327000F94D0C943026198289E08A830FC0898128
:10328000823099F08330A1F08130B1F40E947C1E2D
:103290000E9436266A837B838C839D83612FCE01B7
:1032A000DF91CF911F910C94671F0E947318F0CF8C
:1032B00080E00E945010E1CF612FCE010E94D01813
:1032C000EDCF89818230C1F76A817B818C819D81BC
:1032D0000E9436260E947C18E1CF4B816A81898149
:1032E0000E94E4199827892798279D838C83D6CF3D
:1032F0002C813D813227232732274B816A818981A6
:103300000E94FD19CBCF0E94121AC8CF0E94F51857
:10331000C5CF0E94D418C2CF0E945D14BFCF0E94B7
:10332000821A8983BBCF0E94841A982789279827FD
:103330009A838983B3CF6B8170E089819A81AE01D2
:103340004C5F5F4F9827892798270E94871AA6CF3E
:103350006B8170E089819A81AE014C5F5F4F982745
:10336000892798270E94AD1A99CF0E94D71A96CF25
:103370000E94D819D6CF6B8170E089819A81AE0105
:103380004C5F5F4F9827892798270E94291A86CF7C
:103390006B8170E089819A81AE014C5F5F4F982705
:1033A000892798270E944E1A79CF8FEF888376CF8E
:1033B00084E00895640F7727771F860F972F911D5C
:1033C000880F991F879608950F931F93CF93DF93CC
:1033D0000E94DA198C010E944A26C82FD0E0DC2F07
:1033E000CC27C80101960E944A269E01282BC901BC
:1033F000DF91CF911F910F9108950F931F93CF935A
:10340000DF93122F032F0E94DA19EC01602F0E9424
:103410005E26612FCE010196DF91CF911F910F9112
:103420000C945E260F931F93CF9304E710E0C0E047
:10343000F8012591349140E060E08C2F0E94FD1945
:103440000E5F1F4FCF5FC43099F7CF911F910F913F
:103450000895EF92FF920F931F93CF93DF93EC01A8
:103460008A017C01E60EF71ECE018796CE15DF0598
:1034700039F4DF91CF911F910F91FF90EF90089554
:10348000C830D10540F40E944A26F80180830F5FBE
:103490001F4F2196E9CFF8011082F9CFCF92DF922A
:1034A000EF92FF920F931F93CF93DF937C016A01FA
:1034B0008C01060F171FEC01CE018796C017D107AC
:1034C00049F4DF91CF911F910F91FF90EF90DF9022
:1034D000CF900895C830D10540F4FE01EE19FF09E0
:1034E000EC0DFD1D60810E945E262196E5CF8430A3
:1034F00030F4762B21F440E060E00C94E41990E085
:1035000080E0089580E1089581ED93E00895EF92C1
:10351000FF920F931F93CF93DF93EC018A017C01FD
:10352000E60EF71ECE018F96CE15DF0539F4DF913A
:10353000CF911F910F91FF90EF900895C13D23E02F
:10354000D20740F40E944A26F80180830F5F1F4F84
:103550002196E8CFF8011082F9CFCF92DF92EF9257
:10356000FF920F931F93CF93DF937C016A018C012D
:10357000060F171FEC01CE018F96C017D10749F433
:10358000DF91CF911F910F91FF90EF90DF90CF903F
:103590000895C13D23E0D20740F4FE01EE19FF0972
:1035A000EC0DFD1D60810E945E262196E4CFCF9335
:1035B000DF93CFE2D0E060E0CE010E945E2621964C
:1035C000C11584E0D807B9F7DF91CF910895DF9254
:1035D000EF92FF920F931F93CF93DF9300D000D011
:1035E000CDB7DEB7F82E8FE08F1540F08FEF93E068
:1035F0000E944A260FE210E08823C1F00F900F903E
:103600000F900F90DF91CF911F910F91FF90EF904E
:10361000DF900895011584E0180781F3C8010E9426
:103620004A26811101C0FA940F5F1F4FF110F2CFAB
:1036300019821A821B821C82DD24D39478018FEFB9
:10364000E81AF80AC8010E944A2689831A82882348
:10365000A9F29FEF980F933078F48A83D9820E5F96
:103660001F4FC7010E944A268B83882339F2CE015F
:1036700001960E94D103E2CF8701F9CF0F931F93E8
:10368000CF93DF93C42FD22FFC0182818823C9F00E
:1036900040930B020E94701E90930A0280930902CD
:1036A00080E28C0F883008F050C0C77081E001C004
:1036B000880FCA95EAF7DF91CF911F910F910C9473
:1036C000C30410910B02141335C08091090290912C
:1036D0000A020E94881E883C910560F5C0E2CD0F69
:1036E0001D17B9F080E2810F883040F4177081E037
:1036F00001C0880F1A95EAF70E94CA04C83048F43E
:1037000081E09D2F977001C0880F9A95EAF70E947B
:10371000C304802F0E94BB04C830B8F4D77081E086
:1037200001C0880FDA95EAF7DF91CF911F910F91D1
:103730000C94CA0480E28C0F883038F4C77081E0A2
:1037400001C0880FCA95EAF7EFCFDF91CF911F91A3
:103750000F9108950F939C01CB01233F4CE5340753
:1037600059F1A8F4283DFCE53F0701F1293D4CE55E
:103770003407D1F1273D3C4591F406E221EE41EEBC
:1037800067ED7CE50E943E1B80E00F910895253F88
:10379000FCE53F07E9F0B0F0263F3C45F9F0FC01BD
:1037A0008281882339F110920B02EFCF07E225EED8
:1037B00045EE68ED7CE5E6CF06E221EE40EE63EFF4
:1037C0007CE5E0CF07E225EE44EE64EF7CE5DACF5E
:1037D00006E221EE42EE65EF7CE5D4CF07E225EE6E
:1037E00046EE66EF7CE5CECF08E221E045EE69EDDE
:1037F0007CE5C8CF81E0C9CFCF93DF93EC01FB011B
:103800008281882309F419C1C230FCE5DF07C0F1C9
:10381000C6319CE5D90730F09E012A5F3C4529302E
:10382000310570F50E94D20C909322028093210200
:10383000C031ECE5DE0709F4CFC008F05BC0C8304A
:103840008CE5D80709F4B6C088F5C430ECE5DE078E
:1038500009F4A8C0C0F4C2308CE5D80709F49CC0B4
:10386000809121028260C330DC4509F498C08091C8
:103870002102909122020E94E00C0E94170780E032
:10388000DF91CF910895809121028061C630ECE5EF
:10389000DE0709F484C0809121028860C730DC45CE
:1038A00008F47DC080912102806279C0CC308CE523
:1038B000D80709F489C070F4809121028C60CA3065
:1038C000ECE5DE0709F46BC008F478C080912102B2
:1038D0008E7F65C0CE308CE5D80709F479C0809121
:1038E00021028B7FCF30DC4508F459C08091210242
:1038F0008F7E55C0CB3FECE5DE0709F457C030F5AD
:10390000C3318CE5D80709F46FC078F4C131ECE518
:10391000DE0709F465C0C231DC4509F0A8CF0E947A
:103920001707809121028F773AC0C5318CE5D807FF
:1039300009F462C008F476C0809122028160CA3F17
:10394000DC4509F094CF8093220291CFCF3FFCE574
:10395000DF0709F44DC088F4809122028D7FCD3FAE
:103960009CE5D90781F3809122028E7FCE3FDC4512
:1039700050F3809122028360E6CFC130FDE5DF077E
:1039800009F459C008F444C080E0C230DD4509F0B4
:103990006ECF0E94650D6BCF809121028160809374
:1039A000210265CF809121028460F9CF80912202AB
:1039B0008260C9CF809121028064F1CF0E941707F5
:1039C000809121028068EBCF809121028D7FE7CF2B
:1039D00080912102877FE3CF809121028F7DDFCF0D
:1039E000809121028F7BDBCF80912102837FD7CF13
:1039F000809122028C7FA7CF8091210282FB9927A0
:103A000090F921E0922790FB82F990FB83F9C7CFD0
:103A100080912202982F909591708E7F892B90FB38
:103A200081F991CF0E94170790912102892F97FB6E
:103A300087F98058B4CF81E0ACCF81E021CFCF931C
:103A4000DF93EB0186319C4511F50E94FC0B9A81B6
:103A5000992399F08A7A91E009F490E090930C020E
:103A6000811109C089E20E94B60B0E944C0C80E0D3
:103A7000DF91CF91089585E3F6CF80910C028111FB
:103A800004C089E20E94BD0BF0CF85E3FBCF81E04B
:103A9000EFCF90931202809311020895E0911102EA
:103AA000F0911202309721F00190F081E02D0994FD
:103AB00080E00895E0911102F0911202309721F018
:103AC0000280F381E02D09940895E0911102F091B4
:103AD0001202309739F022E0DC012C930480F5814A
:103AE000E02D0994089520910F02309110022817BB
:103AF000390771F09093100280930F02E091110248
:103B0000F0911202309721F00680F781E02D0994A0
:103B1000089520910D0230910E022817390771F097
:103B200090930E0280930D02E0911102F091120227
:103B3000309721F00084F185E02D099408959C01CF
:103B40002E5F3F4FAC01485F5F4F80E02417350781
:103B500009F40895F90191919F019923B9F38F5FB9
:103B6000F5CF662349F0FC0132960896219126177D
:103B700029F0E817F907D1F780E0089581E008956A
:103B80009C01FC0132969FEF80E04191461751F075
:103B90009F3F19F4411101C0982F8F5F8630A9F71C
:103BA0009F3F09F40895290F311D97FD3A95F901BA
:103BB00062830895FC01329608962191261303C072
:103BC000DF0111971C92E817F907B9F708950C94D3
:103BD000C01D0C94DA1D029626E0FC0111922A9574
:103BE000E9F708950895089508950C94F41D8091BF
:103BF0003802843049F10E94F51D80E00E94DC0308
:103C00001092130288E190E020E40FB6F894A89592
:103C1000809360000FBE2093600083B7817F846033
:103C200083BF83B7816083BF7894889583B78E7F85
:103C300083BF0FB6F894A895809160008861809347
:103C40006000109260000FBE089508950E94F31D59
:103C50000E949E100E94251E80E00E94501091E05C
:103C6000811101C090E0892F089508950C94351EAC
:103C70000E9417070E944E1D0E94DC030C94361E02
:103C80001F921FB61F9211248F939F93AF93BF93E0
:103C900080911302811113C0809130029091310202
:103CA000A0913202B09133024196A11DB11D8093C3
:103CB000300290933102A0933202B0933302BF914D
:103CC000AF919F918F911F901FBE1F90189582E01A
:103CD00084BD93E095BD9AEF97BD80936E000895E3
:103CE0002FB7F8948091300290913102A091320266
:103CF000B09133022FBF08952FB7F894609130022E
:103D00007091310280913202909133022FBF089559
:103D10009C014FB7F8948091300290913102A091AC
:103D20003202B09133024FBF821B930B08957894F7
:103D30001F921FB61F9211248F939F93AF93BF932F
:103D40008091300290913102A0913202B091330201
:103D50000196A11DB11D8093300290933102A09372
:103D60003202B0933302BF91AF919F918F911F9018
:103D70001FBE1F90189581E08093E00080E2809341
:103D8000D8001092C9008FE19EE40197F1F700C0BE
:103D9000000087E090EBDC018093410290934202A7
:103DA000A0934302B093440288E19CE00FB6F894DC
:103DB000A895809360000FBE90936000FFCF909312
:103DC000990180939801089580911F020895909120
:103DD0003802943029F58093140270931602609390
:103DE00015029093E9008FEF9091E800815095FDC6
:103DF00006C095ED9A95F1F700008111F5CF8091FD
:103E0000E80085FF0DC050E040E063E070E084E131
:103E100092E00E944D218091E8008E778093E80027
:103E20000895BC0184E00C94E71EBC0183E00C946F
:103E3000E71E9C0184E08093E9009FEF8091E800F9
:103E4000915085FD06C085ED8A95F1F7000091112E
:103E5000F5CF8091E80085FF0CC050E040E066E0BF
:103E600070E0C9010E944D218091E8008E77809317
:103E7000E8000895CF93DF93EC0181E08093E9009F
:103E80008FEF9091E800815095FD06C095ED9A95D1
:103E9000F1F700008111F5CF8091E80085FF14C093
:103EA00050E040E068E070E0CE010E944D2180913A
:103EB000E8008E778093E80088E0FE01A7E1B2E099
:103EC00001900D928A95E1F7DF91CF910895CF93FC
:103ED000FC01603221F580913802843001F5C091F7
:103EE000E900CF702091EC00922F917020FD90E8B6
:103EF000C92B82E08093E9008091E80080FF0CC02C
:103F000050E040E060E270E0CF010E944D218091DE
:103F1000E8008E778093E800CF70C093E900CF91DE
:103F2000089508950895089542E061EC81E00E94AB
:103F3000A42242E261EC84E00E94A42242E261EC0D
:103F400082E00E94A42242E260EC83E00C94A4226E
:103F500080913A02833009F45FC030F48130C1F1BE
:103F6000823009F49BC008958A3009F487C08B30F1
:103F700009F46DC0893009F04EC080913902813258
:103F800009F049C080913D0290913E02009719F0DE
:103F9000029709F040C08091E800877F8093E80095
:103FA0008091E80082FF33C08091F200823029F4D2
:103FB0008091F1008B7F813021F48091F10080931A
:103FC0001F028091E8008B778093E8000C94D82240
:103FD00080913902813AF9F48091E800877F8093DB
:103FE000E80080913D0290913E02892B61F468E0E7
:103FF00087E192E070E00E94EB218091E8008B77EE
:104000008093E800089560E090E080E0F3CF809135
:1040100038028111C5CF089580913902813AD9F7CC
:1040200080913D0290913E02892BA9F78091E80092
:10403000877F8093E8008091E80080FFFCCF80912B
:104040001A018093F1008091E8008E77BDCF8091B6
:104050003902813201F780913D0290913E02892B15
:10406000D1F68091E800877F8093E8000E94D822F3
:1040700080913B0280931A010C94170780913902BA
:10408000813249F68091E800877F8093E8000E94A2
:10409000D82280913C0280932002089580913902B9
:1040A000813A09F0B8CF8091E800877F8093E800DB
:1040B0008091E80080FFFCCF80912002C2CF84B7BE
:1040C000877F84BF0FB6F894A895809160008861BF
:1040D00080936000109260000FBE80E890E00FB601
:1040E000F89480936100909361000FBE0C94840D4E
:1040F0000E9428230E947B23E2EEF0E0808184600E
:10410000808378940E94D3250E94960D80E191E0EF
:104110000C94491DCF93DF93CDB7DEB7A0970FB6B0
:10412000F894DEBF0FBECDBF80913802853031F4E8
:1041300080913802853091F10E94381E0E94A00DB6
:1041400080913802843009F583E08093E900809102
:10415000E80082FF1AC08091E80090E085FF09C066
:1041600050E040E060E270E0CE0101960E949C21A8
:1041700091E08091E8008B778093E800992329F003
:1041800060E2CE0101960E942A19A0960FB6F8941B
:10419000DEBF0FBECDBFDF91CF9108950E94F71D06
:1041A00080913602882321F20E94261E882309F47A
:1041B000BFCF0E9437210E941707BACF0C94E0208E
:1041C000292F33272330310521F168F421303105BF
:1041D00009F443C02230310509F444C090E080E086
:1041E00030E020E026C02132310551F12232310584
:1041F000A9F76330710590F7FB01EE0FFF1FE5573C
:10420000FE4F2081318168577E4FFB01808190E015
:1042100010C099278130910581F0009729F002970D
:10422000E9F6E2E3F2E002C0E4E5F2E0849190E036
:104230009F01FA01318320830895ECE3F2E0F6CF89
:104240006330710558F6660F771FFB01EF56FE4F7E
:104250002081318189E090E0ECCF82E190E023EB96
:1042600032E0E7CF8BE590E028E532E0E2CF84E072
:1042700089BD86E089BD09B400FEFDCF8091D800DC
:104280008F7D8093D8008091E00082608093E00071
:104290008091E00081FDFCCF0895AF92BF92CF9254
:1042A000DF92FF920F931F93CF93DF936C01EB018B
:1042B0008A010E94F722F82E811123C001151105F1
:1042C00039F0F80180819181C81BD90BC80ED91E25
:1042D000B12CA12C2097A9F08091E80085FD22C087
:1042E0008091E8008E778093E80001151105A1F018
:1042F000F80180819181A80EB91EB182A08285E06B
:10430000F82E8F2DDF91CF911F910F91FF90DF90AD
:10431000CF90BF90AF9008950E94F7228823D1F2EA
:10432000F82EEFCFF60181916F018093F100219774
:10433000FFEFAF1ABF0ACECFAF92BF92CF92DF92FC
:10434000FF920F931F93CF93DF936C01EB018A01D0
:104350000E94F722F82E811123C00115110539F0B2
:10436000F80180819181C81BD90BC80ED91EB12CD0
:10437000A12C2097A9F08091E80085FD22C08091B2
:10438000E8008B778093E80001151105A1F0F80192
:1043900080819181A80EB91EB182A08285E0F82E9D
:1043A0008F2DDF91CF911F910F91FF90DF90CF90D4
:1043B000BF90AF9008950E94F7228823D1F2F82E83
:1043C000EFCF8091F100F60181936F012197FFEF0C
:1043D000AF1ABF0ACECFFC0180913F0290914002FC
:1043E00086179707A0F06115710529F49091E800F0
:1043F0009E779093E80090E06115710551F491115A
:1044000008C08091E80082FF32C080E00895BC01BE
:10441000F2CF809138028823B1F18530B1F18091DB
:10442000E80083FD2EC08091E80082FDEACF8091F4
:10443000E80080FFE1CF2091F20030E061157105C6
:1044400019F02830310558F091E02830310509F095
:1044500090E02091E8002E772093E800CDCF819165
:104460008093F100615071092F5F3F4FE7CF80913A
:104470003802882341F0853041F08091E80083FFC5
:10448000C0CF81E0089582E0089583E00895FC01A3
:1044900080913F029091400286179707A0F0611526
:1044A000710529F48091E8008E778093E80090E010
:1044B0006115710551F4911108C08091E80082FFE7
:1044C00033C080E00895BC01F2CF80913802882388
:1044D000B9F18530B9F18091E80083FD2FC080915A
:1044E000E80082FDEACF8091E80080FFE1CF2091D3
:1044F000F20030E06115710519F02830310558F0EF
:1045000091E02830310509F090E08091E8008E7745
:104510008093E800CDCF84918093F1003196615073
:1045200071092F5F3F4FE6CF80913802882341F019
:10453000853041F08091E80083FFBFCF81E008958E
:1045400082E0089583E00895982F953028F08F70C9
:104550008093E90081E008959093E900242F762F5D
:1045600050E0981731F07091EC002091ED005091DF
:10457000F00021FD02C09F5FE8CF3091EB003E7F4D
:104580003093EB003091ED003D7F3093ED003091A2
:10459000EB0031603093EB007093EC002093ED0062
:1045A0005093F0002091EE0027FDE5CF80E00895C4
:1045B0008091390287FF13C08091E80082FF06C016
:1045C0008091E8008B778093E80004C080913802E6
:1045D0008111F2CF0895809138028823D9F3809118
:1045E000E80080FFF8CF8091E8008E77ECCF209133
:1045F000E4003091E50095E6A9012091EC00822FBE
:10460000817020FF06C08091E80080FF06C080E036
:1046100008952091E80022FD1AC080913802882375
:1046200089F0853089F08091EB0085FD0FC02091E5
:10463000E4003091E50042175307F9F29150E1F69A
:1046400084E0089582E0089583E0089581E008956C
:104650000E9485230E948823E0EEF0E08081816043
:104660008083E8EDF0E080818F77808319BCE3E6FA
:10467000F0E08081816080831092370208950E946B
:1046800085230E9488238091D8008F778093D8005B
:104690008091D80080688093D8008091D8008F7D69
:1046A0008093D80084E089BD86E089BD09B400FE0E
:1046B000FDCF1092380210923402109236021092FE
:1046C000350242E060E080E00E94A4228091E10097
:1046D0008E7F8093E1008091E20081608093E20010
:1046E0008091E20088608093E2008091E0008E7FFC
:1046F0008093E0000895E3E6F0E080818E7F808380
:1047000081E0809337020C943F231092E2000895D9
:104710001092E10008951F920F920FB60F9211248C
:104720002F933F934F935F936F937F938F939F93B9
:10473000AF93BF93EF93FF938091E10082FF0BC093
:104740008091E20082FF07C08091E1008B7F80931F
:10475000E1000E94D2258091E10080FF19C0809184
:10476000E20080FF15C08091E2008E7F8093E2001E
:104770008091E20080618093E2008091D8008062A5
:104780008093D80019BC85E0809338020E94921F64
:104790008091E10084FF2BC08091E20084FF27C05C
:1047A00084E089BD86E089BD89B5982F917080FF2E
:1047B000FBCF8091D8008F7D8093D8008091E1005D
:1047C0008F7E8093E1008091E2008F7E8093E200F3
:1047D0008091E20081608093E2008091340288231E
:1047E00009F443C084E0809338020E94931F8091B3
:1047F000E10083FF29C08091E20083FF25C0809102
:10480000E100877F8093E10082E08093380210927C
:1048100034028091E1008E7F8093E1008091E2007C
:104820008E7F8093E2008091E20080618093E200BD
:1048300042E060E080E00E94A4228091F000886065
:104840008093F0000E94911FFF91EF91BF91AF9173
:104850009F918F917F916F915F914F913F912F9198
:104860000F900FBE0F901F9018958091E30087FD69
:1048700093E090933802B9CF1F920F920FB60F9228
:1048800011242F933F934F935F936F937F938F9355
:104890009F93AF93BF93CF93DF93EF93FF93D09109
:1048A000E900DF708091EC00C82FC17080FDC0E886
:1048B0001092E9008091F000877F8093F000789457
:1048C0000E9480241092E9008091F000886080931B
:1048D000F000CD2BCF70C093E900FF91EF91DF91F5
:1048E000CF91BF91AF919F918F917F916F915F9188
:1048F0004F913F912F910F900FBE0F901F901895E1
:104900001F93CF93DF93CDB7DEB7AA970FB6F89476
:10491000DEBF0FBECDBF89E392E02091F100FC0124
:104920002193CF01F2E081349F07B9F70E94A81FBD
:104930008091E80083FF1EC18091390290913A0274
:104940009A3008F017C1E92FF0E0EB53F94D0C94C1
:104950003026803899F0823809F00CC180913D02F0
:104960008F70853008F006C18093E9008091EB00DC
:1049700085FB882780F91092E90006C080913502F6
:1049800090913602911182609091E800977F909308
:10499000E8008093F1001092F1008091E8008E779A
:1049A000E5C0882309F4D3C0823009F0E3C08091C8
:1049B0003B028111D6C080913D028F702FEF280FEE
:1049C000243008F0D7C08093E9002091EB0020FF4D
:1049D000C8C0933031F48091EB0080628093EB008B
:1049E000C0C09091EB0090619093EB0021E030E02B
:1049F00001C0220F8A95EAF72093EA001092EA009C
:104A00008091EB008860EACF8111B4C010913B0225
:104A10001F778091E3008078812B8093E300809161
:104A2000E800877F8093E8000E94D8228091E80008
:104A300080FFFCCF8091E30080688093E30082E0F8
:104A4000111183E08093380295C08058823008F0BD
:104A500091C080913B0290913C028C3D23E09207F3
:104A6000A1F583E08A838AE289834FB7F894DE0157
:104A7000139620E03EE051E2E32FF0E05093570020
:104A8000E49120FF03C0E295EF703F5FEF708E2F3F
:104A900090E0EA30C0F0C7968D939D932F5F24314C
:104AA00059F74FBF8091E800877F8093E8006AE262
:104AB00070E0CE0101960E94EB218091E8008B7797
:104AC0008093E80057C0C096E7CF60913D02709197
:104AD0003E02AE014F5F5F4F0E94DE20BC01892B7A
:104AE00009F448C09091E800977F9093E80089818D
:104AF0009A810E944722E1CF8038E1F58091E80059
:104B0000877F8093E800809134028093F10045CF45
:104B1000811130C090913B02923060F58091E800A5
:104B2000877F8093E800909334020E94D82280917E
:104B30003402882311F084E005C08091E30087FDF2
:104B4000FACF81E0809338020E94941F13C08091B5
:104B50003B02813079F481E0933009F080E080936A
:104B600036021092E9008091E800877F8093E80088
:104B70000E94D8228091E80083FF0AC08091E8005B
:104B8000877F8093E8008091EB0080628093EB0048
:104B9000AA960FB6F894DEBF0FBECDBFDF91CF91BE
:104BA0001F9108950895CF93809138028823A1F032
:104BB000C091E900CF709091EC00892F817090FD39
:104BC00080E8C82B1092E9008091E80083FD0E94E4
:104BD0008024CF70C093E900CF910895002480FD18
:104BE000060E660F11F08695D1F7802D08950024EA
:104BF000552704C0080E591F880F991F009729F0E8
:104C000076956795B8F37105B9F7802D952F0895BE
:104C1000AA1BBB1B51E107C0AA1FBB1FA617B707E2
:104C200010F0A61BB70B881F991F5A95A9F78095FE
:104C30009095BC01CD01089597FB072E16F40094C2
:104C400007D077FD09D00E94082607FC05D03EF466
:104C5000909581959F4F0895709561957F4F089528
:104C6000EE0FFF1F0590F491E02D09946927962718
:104C700069277827872778270895FC0141505040FD
:104C800030F001900616D1F73197CF0108958827AB
:104C900099270895F999FECF92BD81BDF89A992779
:104CA00080B50895A6E1B0E044E050E00C9484267D
:104CB000A8E1B0E042E050E00C948426262FF99958
:104CC000FECF92BD81BDF89A019700B4021639F06B
:104CD0001FBA20BD0FB6F894FA9AF99A0FBE08953C
:104CE0000396272F0E945F260E945E26252F0E9492
:104CF0005F26242F0C945F260196272F0E945F26A3
:104D00000C945E26DC01CB01FC01F999FECF06C0B4
:104D1000F2BDE1BDF89A319600B40D924150504079
:104D2000B8F70895F894FFCF050505055D055D0505
:104D3000AF05CB0532053205D6053D064C064C06BF
:104D4000A80632053205B106260726072F072F07CA
:104D500031072F072F072F072607260736072F07AC
:104D60002F0736073B193F1961196D1978198319F7
:104D7000861989198C19D519D5198F1993199B1969
:104D8000A819B519B819BB19C819A924D124BA256D
:0E4D9000D124BA2504252525BA257C258825A1
:104D9E00DA012808641E140A321E00020002020103
:104DAE00E41E3A1F191F151F111F01E200E900EA48
:104DBE0000B500B600B700CD008301CC008A019289
:104DCE000194012102230224022502260227022A2F
:104DDE0002B300B4006F007000818283E200E9002C
:104DEE00EA00B500B600B700CD008301CC008A0101
:104DFE009201940121022302240225022602270297
:104E0E002A02B300B4006F00700081828300010299
:104E1E00020205050505050540227B6203C502E772
:084E2E00026A028302A30200E4
:00000001FF
