:100000000C9465010C94AC010C94AC010C94AC0103
:100010000C94AC010C94AC010C94AC010C94AC01AC
:100020000C94AC010C94AC010C94AC010C9409211F
:100030000C94BA210C94E21C0C94AC010C94AC010D
:100040000C94AC010C94AC010C94AC010C94391DD3
:100050000C94AC010C94AC010C94AC010C94AC016C
:100060000C94AC010C94AC010C94AC010C94AC015C
:100070000C94AC012D002E00635D00000000000018
:1000800000002A2B280000000000000000000000F3
:10009000000000000029000000002C1E3420212256
:1000A00024342627252E362D3738271E1F202122BF
:1000B000232425263333362E37381F040506070838
:1000C000090A0B0C0D0E0F10111213141516171828
:1000D000191A1B1C1D2F3130232D35040506070866
:1000E000090A0B0C0D0E0F10111213141516171808
:1000F000191A1B1C1D2F3130354C00000000000068
:1001000000000000000000000000000000000000EF
:1001100000000000000000000000000000007E0F52
:1001200000D4FFFFFFC700000078643214783C1E43
:1001300000010101010101010101020202020202AA
:10014000020202030303030303030304040404047D
:100150000404050505050506060606060707070744
:100160000708080808090909090A0A0A0B0B0B0CF9
:100170000C0C0D0D0D0E0E0E0F0F0F101011111196
:100180001212131314141515161617171818191917
:100190001A1A1B1B1C1D1D1E1E1F2020212222237C
:1001A0002424252626272829292A2B2C2D2D2E2FBD
:1001B00030313232333435363738393A3B3C3D3ED4
:1001C0003F404142434445464748494A4C4D4E4FC3
:1001D00050515354555658595A5B5D5E5F61626485
:1001E000656668696B6C6D6F7072737577787A7B12
:1001F0007D7E8082838587888A8C8E8F9193959669
:10020000989A9C9EA0A2A3A5A7A9ABADAFB1B3B588
:10021000B7BABCBEC0C2C4C6C9CBCDCFD1D4D6D864
:10022000DBDDDFE2E4E7E9EBEEF0F3F5F8FAFDFF02
:1002300008034400310050000000160350004C0039
:1002400049005000200057006F0072006B007300DF
:1002500000000403090409022200010100A0320980
:1002600004000001030101000921110100012240E5
:10027000000705810308000A1201000200000008BF
:100280005750010000000102000105010906A1010B
:10029000050719E029E71500250195087501810278
:1002A0009501750881010507190029FF150026FF32
:1002B0000095067508810005081901290595057541
:1002C000019102950175039101C011241FBECFEF6A
:1002D000D4E0DEBFCDBF04B603FE27C08091C502C7
:1002E0009091C602A091C702B091C8028730904B8E
:1002F000A740B04BD1F41092C5021092C6021092E2
:10030000C7021092C80214BE84B7877F84BF0FB69D
:10031000F894A895809160008861809360001092A5
:1003200060000FBEE0E0F8E3099512E0A0E0B1E064
:10033000ECE9F8E402C005900D92AE30B107D9F7B0
:1003400022E0AEE0B2E001C01D92A53CB207E1F7A9
:100350000E9483150C9424240C94000083369D4540
:1003600091F4FB018281882381F081E08093250252
:100370000E94121D90932402809323028091180200
:100380008F5F8093180281E008951092250281E02A
:1003900080932202809115028823A9F065E371E021
:1003A00089E192E00E94D523109218021092150262
:1003B0008091090190910A01009781F0019739F429
:1003C00064E371E00DC080911802893088F38FEFEB
:1003D0009FEF90930A0180930901D5CF6AE971E0FC
:1003E00089E192E00E94C123F2CFCF93DF93EC0129
:1003F00067E571E00E94CC23892B29F484E0DF912A
:10040000CF910C94A00866E771E0CE010E94CC2346
:10041000892B11F485E0F3CF6BE571E0CE010E94EA
:10042000CC23892B11F486E0EACF6CE271E0CE0197
:100430000E94CC23892B11F487E0E1CF6AE971E0B7
:10044000CE010E94CC23892B11F488E0D8CF60E93B
:1004500071E0CE010E94CC23892B11F489E0CFCF2B
:1004600068E971E0CE010E94CC23892B11F48AE067
:10047000C6CF65EA71E0CE010E94CC23892B11F42E
:100480008BE0BDCF6DE271E0CE010E94CC23892BC1
:1004900011F48CE0B4CF63E471E0CE010E94CC2370
:1004A000892B11F48DE0ABCF66E571E0CE010E949F
:1004B000CC23892B11F48EE0A2CF67EC71E0CE0142
:1004C0000E94CC23892B11F48FE099CF63E371E074
:1004D000CE010E94CC23892B11F480E190CF69E9F1
:1004E00071E0CE010E94CC23892B11F481E187CFEA
:1004F00062E371E0CE010E94CC23892B11F482E1EA
:100500007ECF6DE371E0CE010E94CC23892B11F4E4
:1005100083E175CF65E571E0CE010E94CC23892B84
:1005200011F484E16CCF6CE571E0CE010E94CC2324
:10053000892B11F485E163CF67E771E0CE010E945A
:10054000CC23892B11F486E15ACF64E371E0CE010C
:100550000E94CC23892B11F487E151CF62E671E030
:10056000CE010E94CC23892B11F488E148CF67E3A8
:1005700071E0CE010E94CC23892B11F489E13FCF99
:1005800060E571E0CE010E94CC23892B11F48AE151
:1005900036CF61E671E0CE010E94CC23892B11F4A5
:1005A0008BE12DCF6FE471E0CE010E94CC23892B2B
:1005B00011F48CE124CF6BE271E0CE010E94CC23D8
:1005C000892B11F48DE11BCF6EE171E0CE010E9409
:1005D000CC23892B11F48EE112CF64E271E0CE01BD
:1005E0000E94CC23892B11F48FE109CF60EC71E0DC
:1005F000CE010E94CC23892B11F480E200CF68ED5C
:1006000071E0CE010E94CC23892B11F481E2F7CE58
:100610006DE971E0CE010E94CC23892B11F482E2B6
:10062000EECE64EA71E0CE010E94CC23892B11F456
:1006300083E2E5CE65E771E0CE010E94CC23892BF1
:1006400011F484E2DCCE6AE271E0CE010E94CC2398
:10065000892B11F485E2D3CE66E971E0CE010E94C8
:10066000CC23892B11F486E2CACE60E371E0CE017F
:100670000E94CC23892B11F487E2C1CE66E371E09E
:10068000CE010E94CC23892B11F48EE2B8CE6CE30C
:1006900071E0CE010E94CC23892B59F481EE0E9497
:1006A00036088EE20E94A00881EEDF91CF910C9473
:1006B000610862E471E0CE010E94CC23892B11F421
:1006C0008DE29DCE68E471E0CE010E94CC23892B9F
:1006D00029F481EE0E94360885E2E4CF68EE71E0ED
:1006E000CE010E94CC23892B11F488E388CE6EE4DE
:1006F00071E0CE010E94CC23892B11F481E37FCEDF
:1007000064E571E0CE010E94CC23892B29F481EEAF
:100710000E94360881E3C6CF62E871E0CE010E94F4
:10072000CC23892B29F481EE0E94360886E2BACFC9
:1007300066EF71E0CE010E94CC23892B29F481EE73
:100740000E94360887E2AECF6AE571E0CE010E94D2
:10075000CC23892B29F481EE0E9436088FE2A2CFA8
:1007600060E671E0CE010E94CC23892B29F481EE52
:100770000E94360880E396CF6FE871E0CE010E94B8
:10078000CC23892B11F48FE23ACE6EE671E0CE01D4
:100790000E94CC23892B11F480E331CE66E671E010
:1007A000CE010E94CC23892B11F487E328CE6DE67D
:1007B00071E0CE010E94CC23892B11F486E31FCE79
:1007C00064E771E0CE010E94CC23892B29F481EEED
:1007D0000E94360883E366CF6BE771E0CE010E948A
:1007E000CC23892B11F483E30ACE61E871E0CE01BA
:1007F0000E94CC23892B29F481EE0E94360888E3DD
:1008000051CF68E871E0CE010E94CC23892B29F4F6
:1008100081EE0E9436088EE145CF6EE871E0CE0190
:100820000E94CC23892B29F481EE0E94360884E3B0
:1008300039CF65E971E0CE010E94CC23892B11F4F8
:1008400084E3DDCD62EB71E0CE010E94CC23892BE5
:1008500011F482E5D4CD6BEA71E0CE010E94CC2385
:10086000892B11F480E5CBCD6FEE71E0CE010E94B3
:10087000CC23892B11F481E5C2CD69EB71E0CE0167
:100880000E94CC23892B11F48FE4B9CD6CE971E07F
:10089000CE010E94CC23892B41F480EE0E943608C1
:1008A00086E00E94A00880EE00CF63EA71E0CE01EE
:1008B0000E94CC23892B29F480EE0E9436088BE11C
:1008C000F0CF6AEA71E0CE010E94CC23892B29F493
:1008D00080EE0E94360889E1E4CF61EB71E0CE0141
:1008E0000E94CC23892B29F480EE0E9436088DE1EA
:1008F000D8CF68EB71E0CE010E94CC23892B29F47C
:1009000080EE0E9436088CE1CCCF67ED71E0CE011D
:100910000E94CC23892B29F480EE0E94360886E1C0
:10092000C0CF68E671E0CE010E94CC23892B11F480
:1009300089E265CD67E971E0CE010E94CC23892B65
:1009400011F48CE25CCD61E371E0CE010E94CC2316
:10095000892B11F48AE253CD6DEF71E0CE010E9434
:10096000CC23892B11F488E24ACD6FEB71E0CE01E4
:100970000E94CC23892B11F48CE441CD6FE671E009
:10098000CE010E94CC23892BA1F4809112028823EE
:1009900061F085EE0E9461088091120291E0892742
:1009A00080931202DF91CF91089585EE0E94360860
:1009B000F3CF66EC71E0CE010E94CC23892B91F439
:1009C00080911102882351F084EE0E946108809189
:1009D000110291E0892780931102E4CF84EE0E94F6
:1009E0003608F5CF67E671E0CE010E94CC23892B53
:1009F00091F480911002882351F086EE0E946108E4
:100A00008091100291E0892780931002CBCF86EE6F
:100A10000E943608F5CF6CEC71E0CE010E94CC2329
:100A2000892BA9F48AEF90E0909308018093070145
:100A3000909306018093050128EE33E03093040182
:100A4000209303019093020180930101ABCF65EDE8
:100A500071E0CE010E94CC23892B99F486E990E0C5
:100A600090930801809307018AEF90E0909306012C
:100A70008093050190930401809303018DE790E03A
:100A8000E1CF6EED71E0CE010E94CC23892B39F4C9
:100A90008091000191E089278093000183CF67EE68
:100AA00071E0CE010E94CC23892B21F4DF91CF91FC
:100AB0000C9473186EEE71E0CE010E94CC23892B4A
:100AC00059F40E945B16843029F48AE0DF91CF91BB
:100AD0000C94681884E0FACF65EF71E0CE010E94B3
:100AE000CC23892B21F4DF91CF910C9493176CEFD9
:100AF00071E0CE010E94CC23892B21F4DF91CF91AC
:100B00000C94A21780E07BCCCF93DF9380912502D9
:100B1000882309F493C080912302909124020E94BB
:100B20002A1D4091090150910A012091070130913D
:100B300008018217930708F041C010920A01109231
:100B400009018091090190910A018417950791F09C
:100B50008130910509F445C08230910509F44BC0FC
:100B6000892B41F480910001882321F086E790E0F1
:100B70000E94E0070E94121D9093170280931602B4
:100B8000809115028823B9F080911302909114028C
:100B90000E942A1D20910101309102012817390776
:100BA00050F489E192E00E94F5010E94121D909399
:100BB000140280931302DF91CF9108956091050193
:100BC00070910601260F371F8217930738F481E0D2
:100BD00090E090930A0180930901B3CF82E090E006
:100BE000F8CF80910001882329F28AE20E94A008B0
:100BF00084E790E0BDCF8091000181110AC081E0BF
:100C0000809315020E94121D909314028093130288
:100C1000B1CF8AE20E94A00880911802815080938F
:100C20001802D0E0C0E0809118028C171D0639F33D
:100C300034F38AE20E94A0082196F5CF8091220227
:100C4000882309F4B8CF80911602909117020E9470
:100C50002A1D20910301309104012817390708F05B
:100C6000AACF8091000181111EC0809118028930A5
:100C700020F489E192E00E94F50165E371E089E1E9
:100C800092E00E94D523109218021092220293CF74
:100C90008AE20E94A0082196809118028C171D06F6
:100CA00009F0B4F7E2CFD0E0C0E0F6CF81E00895DC
:100CB0000C94AE0108950C945A061F93CF93DF93C2
:100CC00000D000D00F92CDB7DEB749835A836B8333
:100CD0003091260289819A8131111DC06623B9F0B5
:100CE0002223A9F00E949E0C182F682F89819A81D7
:100CF0000E94450C69817A81812F0F900F900F908F
:100D00000F900F90DF91CF911F910C94AB120E9426
:100D1000770C182FEFCF0E949E0C69817A81EDCF5E
:100D2000FC01262F408151816281738184810C9462
:100D30005D0681E00895CF93DF93EC0160E00E94AF
:100D40009006BE01DF91CF910C945B060E94AF1418
:100D50000E94EA070C94D4140C94D61408950E94AF
:100D6000EE0A0E94AE062FEF84E39CE02150804003
:100D70009040E1F700C000000C945D1D0F931F939D
:100D8000CF93DF938C0161E00E949006EC01B801E3
:100D90000E9458068823D9F1B801CE010E945A1A40
:100DA0008823A9F1B801CE010E94AC1A882379F1F9
:100DB000B801CE010E94CF1B882349F1B801CE01B2
:100DC0000E942319882319F1F8018281882361F098
:100DD000CB35FDE5DF0721F170F4C115ECE5DE0749
:100DE000A1F0CF3DDC45C9F0C801DF91CF911F9143
:100DF0000F910C945606CC358DE5D807A1F0CD3572
:100E0000DD4591F70E948510EFCF0E94AF0680E08C
:100E1000DF91CF911F910F9108950E94FC11F7CFA0
:100E20000E948E10E1CF0E949110DECFDF92EF92F0
:100E3000FF920F931F93CF93DF93E82FF0E0E658D4
:100E4000FF4FD490282F26952695269530E0F9015E
:100E5000E65EFE4F0491877010E0082E02C01595E3
:100E600007950A94E2F701701127F901E65FFE4F3A
:100E7000E490F12C082E02C0F594E7940A94E2F76E
:100E800091E0E922FF24F901E650FF4FC491D0E040
:100E900002C0D595C7958A95E2F7C170DD27011587
:100EA000110519F081EE0E943608E114F10419F0E1
:100EB00086EE0E9436088D2D0E94A008EF2819F0BA
:100EC00086EE0E946108012B19F081EE0E946108F4
:100ED000CD2B51F08CE2DF91CF911F910F91FF90BC
:100EE000EF90DF900C94A008DF91CF911F910F91AC
:100EF000FF90EF90DF900895FF920F931F93CF9391
:100F0000DF938C01F62EF8018491882309F452C0F6
:100F1000813009F04BC0E8012196FE0184918130B7
:100F200091F42196FE0184910E94A0088E010F5F2A
:100F30001F4F8F2D815038F3EFE9FFE03197F1F724
:100F400000C00000F7CF823039F4E8012296FE019C
:100F500084910E943608EACF833039F4E801229662
:100F6000FE0184910E946108E1CF8430F9F6E80126
:100F70002296FE01249190E080E0FE0131962053FC
:100F8000330B2A30310548F0019780F2EFE9FFE09A
:100F90003197F1F700C00000F7CF6AE070E00E94DF
:100FA0007523820F931F2491EF01E7CF0E9416074C
:100FB000E801BCCFDF91CF911F910F91FF90089571
:100FC00060E00C947C0708950C94E30781E0089599
:100FD0000C94E6070895CF93C82F0E94E4078C2F46
:100FE000CF910C94E807CF93DF93CDB7DEB72B9763
:100FF0000FB6F894DEBF0FBECDBF4F835887698709
:101000007A878B8761110E94B4101E821D8285E051
:10101000FE013796DE01119601900D928A95E1F757
:101020008C819D81892B89F449815A816B817C81D6
:101030008D819E810E94B00F2B960FB6F894DEBF73
:101040000FBECDBFDF91CF91089589819A81892309
:101050008F3F51F3CE0101960E9499068111E4CF92
:10106000EBCFFC01808191810C94E00CCF93C82FD1
:10107000882329F18CEF8C0F813AA0F46C2F80919A
:101080000B0190910C010E94531C882329F08C2F96
:101090000E9455100E94E4108C2F0E944E10CF9198
:1010A0000C94E41080E28C0F883048F4C77081E023
:1010B00001C0880FCA95EAF70E949710F0CFCF9130
:1010C0000895882329F19CEF980F913A20F40E940B
:1010D00055100C94E41090E2980F983050F48770FB
:1010E00091E001C0990F8A95EAF7892F0E949D101F
:1010F000F0CF9BE5980F933020F490E080E00C94C3
:10110000151C885A873120F490E080E00C942B1C49
:1011100008951F93CF93DF93182FEB010E94360899
:10112000209731F4812FDF91CF911F910C946108AA
:101130008FE99FE00197F1F700C000002197F0CF01
:1011400070E060E0893311F460E570E00C94890888
:10115000882321F00E9497100C94E41008958823AE
:1011600021F00E949D100C94E4100895BF92CF923C
:10117000DF92EF92FF920F931F93CF93DF936C0157
:10118000D62FC72FFC010281158112951F700E9476
:101190006C10E82E8823A1F0E02E002389F08C2F1C
:1011A000807F803429F080E28D0FE12C883040F080
:1011B00082E00E9435110E946C1091E0E82EE92631
:1011C000BC2EB2949FE0B922EB2DF0E0EA5DFB4D1E
:1011D0000C94AE231C2F1F70C07F11F01295107F4E
:1011E0000023A9F0112359F080E28D0F883010F010
:1011F000D11109C0812F0E9497100E94E4108D2FF9
:101200000E94360814C0812F0E94A710F6CF8D2FA0
:101210000E946108112359F080E28D0F883010F090
:10122000D1112CC0812F0E949D100E94E4102B2D03
:101230002850330B2430310520F40E94FE1B0E94FD
:10124000EB07EE2009F477C10E94681080FD73C19E
:10125000F60112820E9462100E94A90BC6010E9430
:10126000BC0A0E946210DF91CF911F910F91FF90F5
:10127000EF90DF90CF90BF900C94CA0B812F0E940B
:10128000AD10D3CFFC2FFF70FF2EC07FC03219F0FE
:10129000F29480EFF822DD2369F0D13049F1002388
:1012A00091F1112351F1F601858180FFA8CF8F7054
:1012B000858323C0002381F0111106C00E94C7104E
:1012C0008F290E94A808B3CF1130C1F70E94C71020
:1012D0008F290E94CD10ABCF111106C00E94DA10E9
:1012E0008F2D0E94AF08A3CF113009F4A0CFF6CF05
:1012F000002329F0163008F09ACF8F2DE2CF153059
:1013000008F095CFEDCF112359F3D93349F4FFEF0E
:1013100027EE33E0F15020403040E1F700C00000FC
:101320008D2F0E94610883CF8C2F837009F041C0FC
:1013300001117DCF4D2F429546954770440F440FC4
:101340000D2F0F7010E030E020E0042E04C0000FDD
:10135000111F221F331F0A94D2F760E070E0CB0107
:10136000D4FF0FC06FE070E080E090E004C0660F33
:10137000771F881F991F4A95D2F7609570958095C1
:101380009095C695C695C370602B712B822B932BBD
:10139000C23049F058F4C13019F00E945B0B47CFBE
:1013A0000E94490B44CF0E946D0B41CF0E94470B16
:1013B0003ECF8695002311F08C2F8170882309F48D
:1013C00036CF4D2F429546954770440F440F0D2F51
:1013D0000F7010E030E020E0042E04C0000F111F59
:1013E000221F331F0A94D2F760E070E0CB01D4FFD4
:1013F0000FC06FE070E080E090E004C0660F771FE0
:10140000881F991F4A95D2F76095709580959095A1
:10141000C695C695C370602B712B822B932BC2305F
:1014200049F058F4C13019F00E94200C00CF0E94FE
:101430000E0CFDCE0E94320CFACE0E94830BF7CE2A
:10144000CF70002329F08C2F0E94A90B8D2F39CF4C
:101450008D2F0E94AF088C2F0E94CA0BE8CED23F7E
:1014600089F160F4D03FC9F0D13F29F1002309F49C
:1014700042C01111C4CE8C2F8F7121C0D33F39F1DE
:10148000D43FA1F7002369F1CF718C2F0E94A90BE3
:1014900063E08C2F0E941A11CACE002341F0153050
:1014A00008F0C5CE8C2F8F710E94ED0BC0CE163088
:1014B00008F0BDCEF7CF8C2F8F71002369F20E9408
:1014C000A90BB5CE8C2F8F710023C9F3C5CF002394
:1014D00029F08C2F8F710E94940BA9CE0E948F0B44
:1014E000A6CE81E00E943511123008F4A0CE82E031
:1014F0000E9435119CCE112359F0D93309F010CF39
:101500008FEF97EEE3E081509040E040E1F706CFA7
:101510008C2F8F71A1CF4C2F4F706D2FC6010E9461
:10152000A7120E940E0D83CE4C2F4F706D2FC60157
:101530000E94AA127CCEDF91CF911F910F91FF9054
:10154000EF90DF90CF90BF9008950F931F93CF93AC
:10155000DF93EC01688179818A810E94EA0C8C0119
:101560000E94440C0E94460BB801CE01DF91CF913E
:101570001F910F910C94B608CF93DF93EC018B81F0
:101580009C81892B29F08881998189238F3F59F487
:10159000DF91CF910895CE010E94A50ACE01DF917F
:1015A000CF910C949B06CE010E94BE068111F3CF11
:1015B0000E946C10882361F38A81882349F382E0BA
:1015C000DF91CF910C9435110E94B4100E94C41089
:1015D0000C94E4100E945C100C94E40A0E94A41085
:1015E0000C94EA0AE92FE295EF70E250EE3070F4C5
:1015F000F0E0EA5CFB4D0C94AE23803F19F020F440
:10160000883E20F481E00895843FE1F380E008956E
:10161000883EC0F3813FD1F7F5CF93FB882780F94F
:101620000895FC01808191810E94E00C0C94F20AE3
:10163000CF93DF9300D000D00F92CDB7DEB70F90DD
:101640000F900F900F900F90DF91CF910895CF934F
:10165000DF9300D000D000D0CDB7DEB726960FB60E
:10166000F894DEBF0FBECDBFDF91CF9108950895EE
:101670000C94370B0E94380B609330027093310248
:1016800080933202909333020C94E40A08950C94F0
:101690003A0B0F931F930091300210913102209169
:1016A000320230913302602B712B822B932B1F91CE
:1016B0000F910C943A0B0F931F93009130021091ED
:1016C0003102209132023091330260237123822350
:1016D00093231F910F910C943A0B0F931F9300913A
:1016E0003002109131022091320230913302602792
:1016F0007127822793271F910F910C943A0B0C941A
:10170000370B0C947F0B0E94810B60932C0270931B
:101710002D0280932E0290932F020C94E40A60E035
:1017200070E0CB010C94830B0F931F9341E050E0CA
:1017300060E070E08A019B0104C0000F111F221FAE
:10174000331F8A95D2F7C901B8011F910F910C94EC
:10175000830B0F931F9341E050E060E070E004C002
:10176000440F551F661F771F8A95D2F780912C0270
:1017700090912D02A0912E02B0912F028A019B011F
:10178000082B192B2A2B3B2BC901B8011F910F9154
:101790000C94830B0F931F9341E050E060E070E0E6
:1017A00004C0440F551F661F771F8A95D2F7CB01DF
:1017B000BA01609570958095909500912C021091DA
:1017C0002D0220912E0230912F026023712382235B
:1017D00093231F910F910C94830B0F931F9341E060
:1017E00050E060E070E004C0440F551F661F771F93
:1017F0008A95D2F780912C0290912D02A0912E0211
:10180000B0912F028A019B01082719272A273B271D
:10181000C901B8011F910F910C94830B0F931F9373
:1018200000912C0210912D0220912E0230912F0256
:10183000602B712B822B932B1F910F910C94830B98
:101840000F931F9300912C0210912D0220912E02D4
:1018500030912F0260237123822393231F910F91D4
:101860000C94830B0F931F9300912C0210912D0267
:1018700020912E0230912F02602771278227932713
:101880001F910F910C94830B0895CF93DF93262F14
:10189000890F982F9770E1E001C0EE0F9A95EAF753
:1018A00086958695869590E065E070E00E947523A8
:1018B000DC01A95DBD4F50E040E0622F70E08D91EA
:1018C000ED0121979B01042E02C0369527950A94BD
:1018D000E2F72170219528272E23282728834F5FA0
:1018E0005F4F4530510559F7DF91CF910895890F2A
:1018F000A82FA77086958695869590E065E070E0A4
:101900000E947523FC01E95DFD4F50E040E080E05E
:10191000219130E00A2E02C0369527950A94E2F70D
:1019200021703327042E01C0220F0A94EAF7822B7C
:101930004F5F5F4F4530510559F70895BF92CF92E1
:10194000DF92EF92FF920F931F93CF93DF938C015F
:10195000C0902C02D0902D02E0902E02F0902F0229
:101960008091300290913102A0913202B091330205
:10197000C82AD92AEA2AFB2ACFE1D0E0BC2ED70117
:10198000C6010C2E04C0B695A795979587950A9425
:10199000D2F780FD0EC0219788F7B12C8B2DDF91F7
:1019A000CF911F910F91FF90EF90DF90CF90BF905C
:1019B0000895B8018C2F0E94B713019761F3EECF01
:1019C000CF93DF93EC010E949E0CBE01DF91CF917B
:1019D0000C94B7131F93CF93DF93EB0190912602E2
:1019E000992331F0CB01DF91CF911F910C94E00C42
:1019F000882379F0CB010E949E0C182F682FCE010E
:101A00000E94450CBE01812FDF91CF911F910C9454
:101A1000B713CB010E94770C182FF4CFEF92FF92EF
:101A20000F931F93CF93DF938C01892B81F0F12CBF
:101A3000EE24E394E8012196F8018491843770F450
:101A4000843008F05FC08130B1F08230A1F1DF91C5
:101A5000CF911F910F91FF90EF900895853709F472
:101A60004CC008F43DC09CE7980F903780F78F7703
:101A70000E94610849C00E5F1F4FFE01849190E2F1
:101A8000980F983060F48770FE2D01C0FF0F8A9583
:101A9000EAF78F2F0E94B7100E94E41002C00E9444
:101AA00036088F2D815030F2EFE9FFE03197F1F7E2
:101AB00000C00000F7CF0E5F1F4FFE01849190E23F
:101AC000980F983050F48770FE2D01C0FF0F8A9553
:101AD000EAF78F2F0E94BD10DFCF0E946108E1CF8F
:101AE0000E5F1F4FFE01C491C150D8F28FE99FE0F5
:101AF0000197F1F700C00000F7CF0E5F1F4FFE0106
:101B0000F490CFCF0E9436088E01CBCFCF93DF93D6
:101B1000C0913402809135028C1303C0DF91CF91C4
:101B20000895D0E0CE0166E070E00E947523FC01CC
:101B3000EA5CFD4F4081518162817381848195818E
:101B40000E94270B2196C770E5CF40916602509105
:101B50006702609168027091690280916A029091B7
:101B60006B020C94270B1F93CF93DF9380916B0232
:101B7000807FA1F480916802882381F02091340253
:101B8000B091350240916602A0916702C09169024E
:101B9000D0916A02142F1A23B21304C0DF91CF919F
:101BA0001F91089530E0209711F01F3F21F42F5F1F
:101BB0003F4F2770F1CFC90166E070E00E947523A6
:101BC000FC01EA5CFD4F81818A13F1CF808184138F
:101BD000EECF82818111EBCF838194818C1B9D0B91
:101BE000883C910520F780916B028F708061809313
:101BF0006B02C90166E070E00E947523FC01E55CA0
:101C0000FD4F90819F709061908386E692E00E94E4
:101C1000BC0ADF91CF911F910C94860DAF92BF92B9
:101C2000CF92DF92EF92FF920F931F93CF93DF93A8
:101C3000CDB7DEB761970FB6F894DEBF0FBECDBF4C
:101C40008C0185E0F801DE011D9601900D928A95C8
:101C5000E1F7F801E28086E6C82E82E0D82E609196
:101C6000690270916A026115710509F45DC1909174
:101C7000660230916702892F83238F3F09F454C194
:101C800040812181A380B480F0906802F501E61BB9
:101C9000F70BFF2009F4F8C080916B02582F507F9A
:101CA000E83CF10508F0B0C051117AC0FE2C3213A7
:101CB00023C0941321C0E1101FC08F7080618093F6
:101CC0006B020E94A50DC6010E94BC0A80916B02A6
:101CD000F80185838F2D61960FB6F894DEBF0FBE95
:101CE000CDBFDF91CF911F910F91FF90EF90DF90CB
:101CF000CF90BF90AF900895AB2829F0842F822316
:101D00008F3F09F02AC180E0F82FF170DF2EE091BB
:101D100034023091350280FD20C0EE20D9F280914E
:101D20006B02816080936B02F12CD4CFF0E0CF0185
:101D300066E070E00E947523DC01AA5CBD4F11963D
:101D40008C911197821307C08C91841304C0129652
:101D50008C91E812E2CF3196E770E313E7CF4D871D
:101D60002E878D859E850E94E00C292F22952F704D
:101D7000223050F0243078F49F7051F0F8019581B2
:101D8000907F31F4D12C0AC09F7011F08823D1F3D9
:101D9000805E8830B8F3C8010E94BC0AFD2C9ACF3F
:101DA000321306C0941304C0F801EE2009F488C071
:101DB000C8010E94110B882319F1EE2009F18091CE
:101DC0006B02803270F02091660230916702388792
:101DD0002F831986BB86AA868C87CE0107960E9420
:101DE000BC0A86E0F801A6E6B2E001900D928A9561
:101DF000E1F70E94B30D0E94A50DFF24F3946ACF72
:101E0000C8010E94BC0AF9CF511114C07A2DB98AB9
:101E1000A88A522F6E2D89890E94180B86E692E0BF
:101E20000E94BC0A86E0F60111928A95E9F70E94A9
:101E3000A50D7ACF32130FC094130DC0E1100BC063
:101E4000F8018583C8010E94BC0A86E0F601119260
:101E50008A95E9F73FCFC8010E94110B882381F2D0
:101E6000EE2071F280916B02803208F4BACF20919B
:101E70006602309167023A8329831B82BD82AC825D
:101E80008E83CE010196ABCFE83CF10508F03EC051
:101E9000FE2CEE2009F4B4CF32132AC0941328C0CC
:101EA00080916B0280FD1BC0982F907FC1F0F801DC
:101EB0008583903F31F0982F907F905F8F70892BB2
:101EC0008583C8010E94BC0A86E0F801A6E6B2E05C
:101ED00001900D928A95E1F70E94A50DFBCE86E058
:101EE000F801A6E6B2E001900D928A95E1F7F2CEF4
:101EF000C8010E94110B811174CF80916B02816027
:101F000080936B02C8010E94BC0AE4CE7A2DB98A84
:101F1000A88A522F6E2D89890E94180B86E0F6013F
:101F200011928A95E9F7D8CFEE2009F469CFC8015C
:101F30000E94110BF82E882309F462CF86E0F80185
:101F4000A6E6B2E001900D928A95E1F786E692E06E
:101F50000E9431080E94B30DBFCF81E08E25D4CE00
:101F6000CF93DF93CDB7DEB72C970FB6F894DEBFD3
:101F70000FBECDBF4F83588769877A878B879C8731
:101F8000CE0107960E940E0E8823D1F08A859B858C
:101F9000892B39F04F815885842F85238F3F09F095
:101FA00076C08091340290913502891349C02C96F5
:101FB0000FB6F894DEBF0FBECDBFDF91CF9108956D
:101FC00086E0FE013796DE01119601900D928A950A
:101FD000E1F78A859B85892B21F38F819885892359
:101FE0008F3FF9F28091350290E09C012F5F3F4FC7
:101FF00027703327409134024217130671F40E9470
:10200000EE0A109235021092340286E0E6E6F2E023
:10201000DF011D928A95E9F7C4CF66E070E00E9467
:102020007523DC01AA5CBD4F96E0FE01319601905C
:102030000D929A95E1F7209335020E94860DB1CF5B
:1020400090E066E070E00E9475238A5C9D4F0E94DC
:102050000E0E882309F4ABCF8091340290E066E045
:1020600070E00E947523FC01EA5CFD4F40815181C4
:1020700062817381848195810E94270B8091340253
:1020800090E0019687709927809334028ACF698502
:102090007A858B859C850E94270B83CF682F809142
:1020A0000B0190910C010C94891C682F80910B01FD
:1020B00090910C010C948B1C80910B0190910C0160
:1020C0000C948D1C80916C0285958595859508955D
:1020D00080916C028770089590916C02977081E0F6
:1020E00009F480E008959091A60292FB222720F93E
:1020F000281751F080FB92F99093A6028091A502D7
:102100009091A6020C94781108958091A60282FB0A
:10211000882780F991E089270C94731081E00C9452
:10212000731080E00C947310809178020895909160
:102130007802892B80937802089580959091780297
:1021400098239093780208951092780208959091C0
:102150007702892B8093770208958095909177027A
:1021600098239093770208951092770208959091A2
:102170007602892B8093760208958095909176025D
:102180009823909376020895109276020895809194
:102190006D02089508950C94CA109091A60292FDC4
:1021A00008C090916D02981721F080936D020C94F5
:1021B000CB10089580916D02882329F010926D0252
:1021C00080E00C94CB100895E0910B01F0910C018C
:1021D000809178028083E0910B01F0910C01808165
:1021E00090917702892B8083E0910B01F0910C0193
:1021F000808190917602892B808390916D02992342
:1022000081F0E0910B01F0910C018081892B80839A
:1022100080910B0190910C010E94411C81110E9440
:10222000DA1080910B0190910C010C940A1C089516
:102230000C9417119091A60292FD10C0982F990F3F
:10224000990F990F962B90936C020E94A90B809185
:102250006C028595859585950C9418110C94A90BA5
:1022600010926C0280E00C94181190916C02809591
:10227000892380936C02282F277039F4282F082E89
:10228000000C330B9217130621F49091A60292FFD3
:1022900007C08595859585950E94CA0B0C943011D1
:1022A00008956FEF7FEF90E080E00C940E2490E0B3
:1022B00080E00E94EA2321E0893E9E4F09F020E061
:1022C000822F089582E090E00C94DC2383E090E07C
:1022D0000C94DC23CF9384E090E00E94DC23C82F91
:1022E00082E290E00E94DC23982F8C2FCF910895FA
:1022F000CF93C92F682F84E090E00E94F0236C2FC9
:1023000082E290E0CF910C94F023AB01BC018FE00E
:1023100090E00C940224AB01BC0183E190E00C94AA
:10232000022460E070E0CB010C948B1160E070E05F
:10233000CB010E9485110C94911169EE7EEF90E023
:1023400080E00E940E2460E082E090E00E94F02392
:1023500060E083E090E00E94F0231092300210923F
:102360003102109232021092330260E084E090E079
:102370000E94F02360E082E290E00E94F02360E09F
:1023800085E090E00E94F02360E086E090E00E940B
:10239000F0236FEF87E090E00E94F02340E050E0F0
:1023A000BA0188E090E00E94022460E08DE090E0B5
:1023B0000E94F02340E050E0BA0188E190E00E94E2
:1023C000022460E087E190E00E94F02340E050E0CA
:1023D000BA018CE190E00E94022470E060E080E2AB
:1023E00090E00E940E2440E050E0BA0188E190E0C5
:1023F0000E9402240C9496110C949D11682F8EE07B
:1024000090E00C94F0230E941E1D60937F02709355
:102410008002809381029093820260937B0270938A
:102420007C0280937D0290937E0208950895089522
:102430000C94161208950C941A1285E994E10E94E6
:10244000811D0E9417120C94181281E008950C94BB
:102450002512089508950E9429120C942A120E94B0
:10246000091D0E941B150E947D180C941B120F93CE
:102470001F93CF93DF93CDB7DEB72A970FB6F894AB
:10248000DEBF0FBECDBF0E94261581110E94031230
:1024900080E00E94D814182F80917A02082F01271B
:1024A000811739F08091830281FD0E94DE1400FDC6
:1024B00028C08FEF89838A831B820E94121D81604E
:1024C000782F9D838C8349815A816B818D810E94F5
:1024D000F3070E94B0180E94FE1B909179028917A1
:1024E00059F10E94FE1B809379022A960FB6F89448
:1024F000DEBF0FBECDBFDF91CF911F910F910C9426
:10250000EB070E942712882381F01E821F82117020
:1025100018870E94121D8160782F9A8789874E81C3
:102520005F8168858A850E94F30780917A0291E035
:10253000892780937A02CDCF2A960FB6F894DEBF12
:102540000FBECDBFDF91CF911F910F91089590E005
:1025500080E008950895272F260F3327331FF901B0
:10256000E80FF11DEE0FFF1FE858FF4F8591949182
:102570000895FC01EE0FFF1FE65DFE4F85919491DB
:102580000895CF93DF930E94BB13EC01811521E5E1
:102590009207D0F5811530E5930708F098C08115B2
:1025A00040E29407F8F4C11581E0D807B8F4C03EC2
:1025B000D10588F4C03CD10508F07CC0C130D105FC
:1025C00069F0209759F0CE010497813A910530F0D7
:1025D000D0E0C0E003C0C83ED105D0F7CE01DF9106
:1025E000CF910895811520E4920708F06DC09F7087
:1025F000C11530E3D30708F460C0CE019927D3FF9B
:1026000060C0EC01D86CEACF811545E5940710F560
:10261000C11584E5D80708F093C0C11523E5D2079A
:1026200008F078C0C11532E5D30708F46EC0CE01BA
:102630008370992721E030E002C0220F331F8A9572
:10264000E2F7C695C695D0E0E5E0CC0FDD1FEA9530
:10265000E1F757C0811549E59407A8F4C11588E54D
:10266000D80708F072C0C11526E5D20708F0B0CF30
:102670008C2F0E945214C82FD0E0DC2FCC27CC27FF
:10268000DF71D062ABCF81153AE5930708F462C0E1
:1026900090568115904208F09BCF8D2F8F710E942C
:1026A000521490E0982F882788279F719C012C2B2B
:1026B000E901E7CFCE01805C91090E94B912EC01DB
:1026C0008DCFEC01D06C8ACFDF70D06A87CFA4E0C9
:1026D00096958795AA95E1F783702C2F26952695D8
:1026E000237030E0B5E0220F331FBA95E1F7382BA5
:1026F0008C2F8370C1E0D0E002C0CC0FDD1F8A9523
:10270000E2F7C22BD32BDC6869CFDC2FCC27C16F5B
:10271000D06A64CFCE018370992721E030E002C0F7
:10272000220F331F8A95E2F7C695C695D0E075E073
:10273000CC0FDD1F7A95E1F7C22BD32BDA684ECF91
:10274000DC2FCC27C46FD06A49CFDC2FCC27C06FD9
:10275000D06A44CF8F700E94521434E0D695C7954A
:102760003A95E1F7CF709C2FEC01D06937CF0E94EA
:10277000AB120C94C11282389105B1F1B0F48133DF
:10278000910509F475C048F48932910509F469C0CE
:102790008A32910509F473C008958533910509F4CF
:1027A00059C08933910501F10895833E9105A9F13E
:1027B00038F4803E9105F9F0823E910549F1089583
:1027C000863E9105A9F1873E9105C9F1843E9105A8
:1027D00019F52091A60221FF1FC08091A50284FD5A
:1027E00014C087EE90E008952091A5022370A1F017
:1027F00080EE90E008952091A50220FD47C0309121
:10280000A60230FF09C024FF44C090E080E004C06D
:102810002091A50222FDF7CF08952091A50222FD67
:102820003BC03091A60230FDE3CF24FFF5CFEDCFC2
:102830002091A50223FFF0CF24FDE7CFD2CF209136
:10284000A50223FD2CC03091A60231FFEECF84EE0D
:1028500090E008952091A50225FFDECF89E290E067
:1028600008952091A50225FFD7CF85E390E0089534
:102870002091A50226FFD0CF8AE290E00895209112
:10288000A50226FFC9CF81E390E0089589E390E097
:10289000089583EE90E0089582EE90E0089586EE2C
:1028A00090E008959091A50292FF06C0282F28710C
:1028B0002830F9F4877F846093FF06C0282F2871A1
:1028C0002831F1F4877E84612091A60220FF06C0A2
:1028D000382F38713830D9F4877F816021FF06C0E6
:1028E000282F28712831D1F4877E816194FD877E5D
:1028F0000895282F24712430F9F68B7F8860DCCF6F
:10290000282F2471243101F78B7E8861DDCF382F89
:102910003171313019F78E7F8860E0CF282F217117
:10292000213121F78E7E8861E1CF80E008950C94FB
:1029300051110E9426158FE39CE90197F1F700C021
:1029400000000E94261580E00E94D81480FF04C079
:102950000E9497140C945D1D08950C9499140E9484
:102960005711811102C00E94FC110E9462118093D4
:1029700083020E946A119093A6028093A5020E948E
:10298000AD140E946611682F70E090E080E00E9414
:10299000470B60912C0270912D0280912E02909134
:1029A0002F020C94810B08950C94D3140C9484057D
:1029B000E82FF0E0E855FD4F80810895089580EA02
:1029C0008A95F1F7089500C008950C94DF14F894E7
:1029D00027982F9A789408950E94E714F8945298B3
:1029E0005A9A78940895EF92FF921F93CF93DF93B2
:1029F0007C01162FF894279A2F9878940E94E3145C
:102A0000C9B1D0E0D595C795D595C795C095D09556
:102A10000E94E7146C2F6170812F0E94E514F7016A
:102A2000E10FF11DC170DD27C083DF91CF911F91B0
:102A3000FF90EF9008950E94EC141092A70210925C
:102A4000A80281E00E944C150C94A6061F93CF9318
:102A5000DF930F92CDB7DEB7198260E0CE01019609
:102A60000E94F3149091A702898111E0981301C08C
:102A700010E098138093A702212F41E068EA72E0EA
:102A800087EA92E00E944D150E94AC06812F0F90BC
:102A9000DF91CF911F9108950895FF920F931F9397
:102AA000CF93DF93F82E092F162FD72FC42F222371
:102AB00049F081E0809386020E94121D9093850266
:102AC00080938402809186028823A1F08091840201
:102AD000909185020E942A1D059760F0EF2DF02F3E
:102AE000A12FBD2FCE0FDF2FD11DEC17FD0741F415
:102AF00010928602DF91CF911F910F91FF90089560
:102B000081918D93F2CF0E94941C0E94761E0E94A8
:102B10008F1E0E94A11E0E942B12FBCFEF92FF92EC
:102B20000F931F93CF93DF93982F711111C04423FC
:102B300029F0E82FF0E0E05DFE4F9491692F792FA6
:102B4000892FDF91CF911F910F91FF90EF90089502
:102B5000262F30E0C72FD0E0E82FF0E0442321F00B
:102B6000E05DFE4FE491F0E0C90166E070E00E9494
:102B700075230FEF10E0B8010E948623DB01220FBE
:102B8000331FCB0165E570E00E947523281B390BCC
:102B9000E22EEE0CE20EC8018C1B9D0BBF010E94C1
:102BA0007523292FF12CC701BE010E947523492FDF
:102BB00050E0C801841B950BBF010E947523392F7B
:102BC000C8018E199F09BE010E947523492F50E04C
:102BD000C801841B950BBF010E947523892F7E2F8E
:102BE000A230B10589F038F4109759F0119781F0AF
:102BF000922F232F06C0A430B10569F080F01697FC
:102C0000B9F7692F822F9DCF9E2F722F282FF9CFD2
:102C10009E2F732FF6CF922F2E2F782FF2CF722F59
:102C20002E2F932FEECF41E00C948E1508950C9427
:102C30001316CF93DF93762FE901682F842F0E941C
:102C40001716798368838A83DF91CF9108958091E5
:102C5000A902982F9E7F29F4817082608093A90237
:102C600008958631E8F381708461F8CF88E090E0C0
:102C70000C94E423CF92DF92EF92FF926B017C01E0
:102C80000E942716B701A60188E090E0FF90EF9020
:102C9000DF90CF900C940224E9EAF2E083E0808395
:102CA00011828FEF8283838314826081718182819C
:102CB00093810C943A168091A90280FF02C08695F8
:102CC000089580E008959091AD02933018F49F5FCD
:102CD0009093AD02882351F06091A9027091AA02ED
:102CE0008091AB029091AC020C943A16089581E069
:102CF0000C9463169091AD02992319F09150909322
:102D0000AD02882351F06091A9027091AA028091CE
:102D1000AB029091AC020C943A16089581E00C94A9
:102D20007A1670E00C94C11930910E018091A902BD
:102D300080FF0CC080910D0190E063E070E00E9484
:102D40007523632F82559D4F0C94911620910F018E
:102D500040911001822F90E063E070E00E947523A3
:102D6000FC01E255FD4F241728F7118210821282D0
:102D70002F5F3396F8CFA82FB62F8091A90280FF3E
:102D800017C020910F0130911001822F90E063E075
:102D900070E00E947523FC01E255FD4F231710F0EF
:102DA0000C949416A183B08342832F5F3396F6CFA1
:102DB0000895CF93DF9300D00F92CDB7DEB79091F7
:102DC000A90290FF0AC09E012F5F3F4F0E94191673
:102DD0004B8169818A810E94BB160F900F900F90E2
:102DE000DF91CF910895CF93DF93EC01E9EAF2E010
:102DF000438162818C810E94D9168C818F5F8C8384
:102E0000DF91CF910895EF92FF920F931F93CF938D
:102E1000DF9300D00F92CDB7DEB7182FF62E042F18
:102E2000E22E8091A90280FF28C0E82FE695F0E00D
:102E3000ED5FFD4F908190938E028E7F823039F549
:102E40009E012F5F3F4F812F0E9419164B81698190
:102E50008A810E94BB161093AA02F092AB020093E3
:102E6000AC02EE2051F06091A9027091AA0280910B
:102E7000AB029091AC020E943A160F900F900F9007
:102E8000DF91CF911F910F91FF90EF9008959230B5
:102E900019F41091AA02DFCF9530E9F6FACFE9EAEA
:102EA000F2E09181282F4381628188E0890F0C94A0
:102EB000031781E00C944F17E9EAF2E09181282F83
:102EC0004381628188EF890F0C94031781E00C9491
:102ED0005C17E9EAF2E0628121E1620F08F46FEF2A
:102EE000282F438181810C94031781E00C9469178A
:102EF000E9EAF2E0628121E1621B08F460E0282F38
:102F0000438181810C94031781E00C947817E9EADE
:102F1000F2E0438121E1420F08F44FEF282F628154
:102F200081810C94031781E00C948717E9EAF2E0A1
:102F3000438121E1421B08F440E0282F6281818116
:102F40000C94031781E00C94961720E00C9403175F
:102F5000EF92FF921F93CF93DF93EC0110E0EE24EA
:102F6000EA94F12C30911101131770F00E9494161D
:102F70009A818C8190FF27C08F5F8C83DF91CF91E6
:102F80001F91FF90EF90089580910F01810F992775
:102F9000991F63E070E00E947523FC01E255FD4F2C
:102FA000632F70E0C7010E949A23812F0E946C2337
:102FB0009C819F014091AC026091AB02890F0E94FD
:102FC00019161F5FCFCF8150D8CFE9EAF2E0808198
:102FD0008E7F808360817181828193810E943A1605
:102FE00010928F022FEF80E792E0215080409040B6
:102FF000E1F700C000000C9494166091A902669558
:1030000070E041E050E082E191E00E94B423892B1E
:1030100019F481E080938F020E94121D9093880220
:103020008093870208959091A90290FF35C0917016
:10303000811128C092609093A902662351F060919B
:10304000A9027091AA028091AB029091AC020E94F9
:103050003A166091A902669570E041E050E082E185
:1030600091E00E94B423892BA1F010928F0281E09D
:1030700080938A024091AC026091AB028091AA02D7
:103080000C94A5178B3010F09461D5CF880F982B36
:10309000D2CF0E94FD17EBCF0895682F9091A9021F
:1030A000969581E0890F8B3008F081E00C9413181D
:1030B00081E00C944D18682F9091A90296958FEF9E
:1030C000890F09F48AE00C94131881E00C945B18C2
:1030D00061E00C941318E9EAF2E08081816080835A
:1030E00086950C9468188091A90280FD0C94E517D0
:1030F0000C946B1860E00C94131880918D02811170
:103100002EC00E945711811104C00E94FC110E9420
:103110004C160E9436166093A9027093AA028093FF
:10312000AB029093AC026E7F61F40E944C160E9439
:1031300036166093A9027093AA028093AB02909313
:10314000AC020E94271610928F028091A90280FF84
:1031500003C086950E947A1881E080938D020895BD
:103160000F931F93CF93DF9380918F02882309F4ED
:103170004BC080918E02E091A902E695E81BE09396
:103180008902823089F5F0E0E35DFE4FE491CE2FB5
:10319000D0E003EF16E180918A02882361F010925B
:1031A0008A020E94121D90938802809387021092D7
:1031B0008C0210928B020E94121DE0918702F09106
:1031C00088028E1B9F0B8F3F9F47F0F4CE0FDF1FAF
:1031D000D0938802C093870287E892E0F801DF91DC
:1031E000CF911F910F910994C0EDD7E006E116E150
:1031F000853089F6E695F0E0E65DFE4FE491CE2F4E
:10320000D0E008EA17E1C7CFDF91CF911F910F916E
:103210000895FA01811101C0FB010994CF93DF9356
:10322000C82FD62F0E945B168C1740F00E945B16A9
:103230008D1720F4DF91CF910C9458188C2FDF91CB
:10324000CF910C9468180F931F93CF938C01FB01BF
:10325000C281CC2309F493C00E94941082720B3C6B
:10326000FCE51F0709F475C060F5063CECE51E0798
:1032700009F45BC080F4043C9CE5190709F44BC0D9
:1032800008F04EC0033C1C4509F442C08C2FCF917E
:103290001F910F910895083C9CE5190709F44FC050
:1032A00008F448C0093CFCE51F0709F44DC042EA98
:1032B00057E163E977E10A3C1C4541F70E9409198F
:1032C00015C0003DECE51E0709F456C088F40D3C1E
:1032D0009CE5190709F447C008F440C00E3CFCE522
:1032E0001F0709F445C00F3C1C4581F6C0E0CECF56
:1032F000073D9CE5190740F46AE085E0023D1C4566
:10330000A8F70E940E19F2CF0E351D4579F3BECFF6
:103310000E947318EBCF45E658E168E578E1CECF1F
:1033200048E558E165E678E1C9CF46E657E169E549
:1033300077E1C4CF49E557E166E677E1BFCF44E8DE
:1033400057E165E777E1BACF45E757E164E877E110
:10335000B5CF43E957E162EA77E1B0CF4EE856E1F5
:1033600067E776E1ABCF47E756E16EE876E1A6CFB7
:1033700081E00E946818BACF64E082E0C2CFC1E069
:1033800085CF9C01CB013D9A48B14F7DE8B1E06209
:10339000FFB7F89463E070E00E947523820F931FDB
:1033A0008217930741F4FFBF8FE594E00197F1F78F
:1033B00000C000000895D9015D919D0168E0E8B961
:1033C000000000C057FF48B9550F000000C000C002
:1033D00000C048B900C06A9591F7E2CF0F931F93E0
:1033E000CF93DF93C42FD22FFC0182818823C9F0B1
:1033F000409392020E94121D90939102809390023A
:1034000080E28C0F883008F050C0C77081E001C0A6
:10341000880FCA95EAF7DF91CF911F910F910C9415
:10342000A80810919202141335C0809190029091D7
:1034300091020E942A1D883C910560F5C0E2CD0FE3
:103440001D17B9F080E2810F883040F4177081E0D9
:1034500001C0880F1A95EAF70E94AF08C83048F4F7
:1034600081E09D2F977001C0880F9A95EAF70E941E
:10347000A808802F0E94A008C830B8F4D77081E057
:1034800001C0880FDA95EAF7DF91CF911F910F9174
:103490000C94AF0880E28C0F883038F4C77081E05C
:1034A00001C0880FCA95EAF7EFCFDF91CF911F9146
:1034B0000F9108950F939C01CB01243F4CE53407F5
:1034C00059F1A8F4293DFCE53F0701F12A3D4CE5FF
:1034D0003407D1F1283D3C4591F406E221EE41EE5E
:1034E00068ED7CE50E94EE1980E00F910895263F7B
:1034F000FCE53F07E9F0B0F0273F3C45F9F0FC015F
:103500008281882339F110929202EFCF07E225EEF3
:1035100045EE69ED7CE5E6CF06E221EE40EE64EF94
:103520007CE5E0CF07E225EE44EE65EF7CE5DACFFF
:1035300006E221EE42EE66EF7CE5D4CF07E225EE0F
:1035400046EE67EF7CE5CECF08E221E045EE6AED7E
:103550007CE5C8CF81E0C9CFCF93DF93EC01FB01BD
:103560008281882309F419C1C230FCE5DF07C0F16C
:10357000C6319CE5D90730F09E012B5F3C452930D0
:10358000310570F50E946A119093A6028093A502FE
:10359000C031ECE5DE0709F4CFC008F05BC0C830ED
:1035A0008CE5D80709F4B6C088F5C430ECE5DE0731
:1035B00009F4A8C0C0F4C2308CE5D80709F49CC057
:1035C0008091A5028260C330DC4509F498C08091E7
:1035D000A5029091A6020E9478110E94EE0A80E056
:1035E000DF91CF9108958091A5028061C630ECE50E
:1035F000DE0709F484C08091A5028860C730DC45ED
:1036000008F47DC08091A502806279C0CC308CE541
:10361000D80709F489C070F48091A5028C60CA3083
:10362000ECE5DE0709F46BC008F478C08091A502D0
:103630008E7F65C0CE308CE5D80709F479C08091C3
:10364000A5028B7FCF30DC4508F459C08091A502DC
:103650008F7E55C0CC3FECE5DE0709F457C030F54E
:10366000C3318CE5D80709F46FC078F4C131ECE5BB
:10367000DE0709F465C0C231DC4509F0A8CF0E941D
:10368000EE0A8091A5028F773AC0C5318CE5D80744
:1036900009F462C008F476C08091A6028160CB3F35
:1036A000DC4509F094CF8093A60291CFC115FDE5CA
:1036B000DF0709F44DC088F48091A6028D7FCE3FCC
:1036C0009CE5D90781F38091A6028E7FCF3FDC4530
:1036D00050F38091A6028360E6CFC230FDE5DF079C
:1036E00009F459C008F444C080E0C330DD4509F056
:1036F0006ECF0E94FE116BCF8091A50281608093F6
:10370000A50265CF8091A5028460F9CF8091A602C1
:103710008260C9CF8091A5028064F1CF0E94EE0A39
:103720008091A5028068EBCF8091A5028D7FE7CFC5
:103730008091A502877FE3CF8091A5028F7DDFCFA7
:103740008091A5028F7BDBCF8091A502837FD7CFAD
:103750008091A6028C7FA7CF8091A50282FB99273A
:1037600090F921E0922790FB82F990FB83F9C7CF73
:103770008091A602982F909591708E7F892B90FB57
:1037800081F991CF0E94EE0A9091A502892F97FBB3
:1037900087F98058B4CF81E0ACCF81E021CFCF93BF
:1037A000DF93EB0186319C4511F50E9494109A81BC
:1037B000992399F08A7A91E009F490E0909393022A
:1037C000811109C089E20E944E100E94E41080E03D
:1037D000DF91CF91089585E3F6CF80919302811117
:1037E00004C089E20E945510F0CF85E3FBCF81E051
:1037F000EFCF90939902809398020895E0919802F8
:10380000F0919902309721F00190F081E02D099418
:1038100080E00895E0919802F0919902309721F0AC
:103820000280F381E02D0994089520919602309151
:1038300097022817390771F09093970280939602A8
:10384000E0919802F0919902309721F00680F7817B
:10385000E02D099408952091940230919502281743
:10386000390771F09093950280939402E091980249
:10387000F0919902309721F00084F185E02D0994B0
:1038800008959C012E5F3F4FAC01485F5F4F80E081
:103890002417350709F40895F90191919F0199239F
:1038A000B9F38F5FF5CF662349F0FC013296089695
:1038B0002191261729F0E817F907D1F780E008953C
:1038C00081E008959C01FC0132969FEF80E04191D8
:1038D000461751F09F3F19F4411101C0982F8F5F97
:1038E0008630A9F79F3F09F40895290F311D97FDF0
:1038F0003A95F90162830895FC0132960896219168
:10390000261303C0DF0111971C92E817F907B9F7D6
:1039100008950C94621C0C947C1C029626E0FC0119
:1039200011922A95E9F708950895089508950C9441
:10393000961C8091BC02843049F10E94971C80E063
:103940000E94EB0710929A0288E190E020E40FB603
:10395000F894A895809360000FBE2093600083B711
:10396000817F846083BF83B7816083BF78948895AB
:1039700083B78E7F83BF0FB6F894A89580916000BF
:10398000886180936000109260000FBE08950895D2
:103990000E94951C0E9426150E94C71C80E00E9470
:1039A000D81491E0811101C090E0892F0895089505
:1039B0000C94D71C0E94EE0A0E94FE1B0E94EB078B
:1039C0000C94D81C1F921FB61F9211248F939F93A3
:1039D000AF93BF9380919A02811113C08091B4027A
:1039E0009091B502A091B602B091B7024196A11D87
:1039F000B11D8093B4029093B502A093B602B09328
:103A0000B702BF91AF919F918F911F901FBE1F90E2
:103A1000189582E084BD93E095BD9AEF97BD8093A1
:103A20006E0008952FB7F8948091B4029091B5027A
:103A3000A091B602B091B7022FBF08952FB7F894A6
:103A40006091B4027091B5028091B6029091B70274
:103A50002FBF08959C014FB7F8948091B4029091C4
:103A6000B502A091B602B091B7024FBF821B930B73
:103A7000089578941F921FB61F9211248F939F93DD
:103A8000AF93BF938091B4029091B502A091B6021A
:103A9000B091B7020196A11DB11D8093B40290931D
:103AA000B502A093B602B093B702BF91AF919F91B8
:103AB0008F911F901FBE1F90189581E08093E000AA
:103AC00080E28093D8001092C9008FE19EE40197B4
:103AD000F1F700C0000087E090EBDC018093C502A5
:103AE0009093C602A093C702B093C80288E19CE0FD
:103AF0000FB6F894A895809360000FBE9093600075
:103B0000FFCF90930F0280930E0208958091A3023D
:103B100008950895CF93DF93EC0181E08093E9004D
:103B20008FEF9091E800815095FD06C095ED9A9534
:103B3000F1F700008111F5CF8091E80085FF14C0F6
:103B400050E040E068E070E0CE010E941A1F8091D2
:103B5000E8008E778093E80088E0FE01ABE9B2E0F0
:103B600001900D928A95E1F7DF91CF910895089524
:103B7000089508950895089542E061EC81E00C9461
:103B800022208091BE02833009F45DC030F4813080
:103B9000B1F1823009F499C008958A3009F485C0E2
:103BA0008B3009F46BC0893009F04CC08091BD02A4
:103BB000813209F047C08091C1029091C202892BE5
:103BC00009F040C08091E800877F8093E8008091F1
:103BD000E80082FF33C08091F200823029F48091A6
:103BE000F1008B7F813021F48091F1008093A3025A
:103BF0008091E8008B778093E8000C9456208091A8
:103C0000BD02813AF9F48091E800877F8093E80053
:103C10008091C1029091C202892B61F468E08BE926
:103C200092E070E00E94691F8091E8008B7780939A
:103C3000E800089560E090E080E0F3CF8091BC025E
:103C40008111C5CF08958091BD02813AD9F7809145
:103C5000C1029091C202892BA9F78091E800877F69
:103C60008093E8008091E80080FFFCCF80911D01E7
:103C70008093F1008091E8008E77BDCF8091BD02E6
:103C8000813201F78091C1029091C202892BD1F655
:103C90008091E800877F8093E8000E945620809101
:103CA000BF0280931D010C94EE0A8091BD02813207
:103CB00049F68091E800877F8093E8000E945620B3
:103CC0008091C0028093A40208958091BD02813A40
:103CD00009F0B8CF8091E800877F8093E800809159
:103CE000E80080FFFCCF8091A402C2CF84B7877F19
:103CF00084BF0FB6F894A895809160008861809386
:103D00006000109260000FBE80E890E00FB6F8945B
:103D100080936100909361000FBE0C941D120E946D
:103D2000A6200E94F920E2EEF0E08081846080838A
:103D300078940E9451230E942F1283E191E00C9409
:103D4000F91B8091BC02853031F48091BC02853032
:103D500021F00E94DA1C0C9437120E94991C809169
:103D6000BA02882391F30E94C81C882371F30E9431
:103D7000041F0E94EE0AE9CF0C94BE1E292F3327A0
:103D800023303105C9F058F42130310599F1223042
:103D90003105A9F190E080E030E020E01DC0213243
:103DA000310509F122323105A9F780E490E02AE8D3
:103DB00032E0672B79F710C099278130910581F0A7
:103DC000009729F0029731F7E0E3F2E002C0E2E564
:103DD000F2E0849190E09F01FA01318320830895FD
:103DE000EAE3F2E0F6CF89E090E028E632E0672BE4
:103DF00089F6F2CF82E190E028E732E0EDCF82E26F
:103E000090E026E532E0E8CF84E089BD86E089BD18
:103E100009B400FEFDCF8091D8008F7D8093D8003B
:103E20008091E00082608093E0008091E00081FD5D
:103E3000FCCF0895AF92BF92CF92DF92FF920F9383
:103E40001F93CF93DF936C01EB018A010E947520D1
:103E5000F82E811123C00115110539F0F801808178
:103E60009181C81BD90BC80ED91EB12CA12C20974B
:103E7000A9F08091E80085FD22C08091E8008E774E
:103E80008093E80001151105A1F0F801808191816E
:103E9000A80EB91EB182A08285E0F82E8F2DDF9189
:103EA000CF911F910F91FF90DF90CF90BF90AF9077
:103EB00008950E9475208823D1F2F82EEFCFF601E5
:103EC00081916F018093F1002197FFEFAF1ABF0A34
:103ED000CECFFC018091C3029091C4028617970750
:103EE000A0F06115710529F49091E8009E779093F8
:103EF000E80090E06115710551F4911108C08091BE
:103F0000E80082FF32C080E00895BC01F2CF8091CA
:103F1000BC028823B1F18530B1F18091E80083FDC6
:103F20002EC08091E80082FDEACF8091E80080FFFA
:103F3000E1CF2091F20030E06115710519F02830D1
:103F4000310558F091E02830310509F090E02091DA
:103F5000E8002E772093E800CDCF81918093F10087
:103F6000615071092F5F3F4FE7CF8091BC028823DA
:103F700041F0853041F08091E80083FFC0CF81E0BF
:103F8000089582E0089583E00895FC018091C302C2
:103F90009091C40286179707A0F06115710529F466
:103FA0008091E8008E778093E80090E061157105BC
:103FB00051F4911108C08091E80082FF33C080E085
:103FC0000895BC01F2CF8091BC028823B9F18530FD
:103FD000B9F18091E80083FD2FC08091E80082FD57
:103FE000EACF8091E80080FFE1CF2091F20030E03D
:103FF0006115710519F02830310558F091E028302D
:10400000310509F090E08091E8008E778093E80018
:10401000CDCF84918093F1003196615071092F5F6B
:104020003F4FE6CF8091BC02882341F0853041F0BC
:104030008091E80083FFBFCF81E0089582E008957A
:1040400083E00895982F953028F08F708093E900D1
:1040500081E008959093E900242F762F50E098177F
:1040600031F07091EC002091ED005091F00021FDB5
:1040700002C09F5FE8CF3091EB003E7F3093EB00B2
:104080003091ED003D7F3093ED003091EB003160D9
:104090003093EB007093EC002093ED005093F00010
:1040A0002091EE0027FDE5CF80E008958091BD02CC
:1040B00087FF13C08091E80082FF06C08091E8006E
:1040C0008B778093E80004C08091BC028111F2CF0D
:1040D00008958091BC028823D9F38091E80080FF85
:1040E000F8CF8091E8008E77ECCF2091E4003091FA
:1040F000E50095E6A9012091EC00822F817020FF58
:1041000006C08091E80080FF06C080E008952091FD
:10411000E80022FD1AC08091BC02882389F0853016
:1041200089F08091EB0085FD0FC02091E400309173
:10413000E50042175307F9F29150E1F684E0089543
:1041400082E0089583E0089581E008950E940321AC
:104150000E940621E0EEF0E0808181608083E8ED3E
:10416000F0E080818F77808319BCE3E6F0E0808106
:10417000816080831092BB0208950E9403210E94F7
:1041800006218091D8008F778093D8008091D80045
:1041900080688093D8008091D8008F7D8093D8006C
:1041A00084E089BD86E089BD09B400FEFDCF109290
:1041B000BC021092B8021092BA021092B90242E008
:1041C00060E080E00E9422208091E1008E7F809359
:1041D000E1008091E20081608093E2008091E20042
:1041E00088608093E2008091E0008E7F8093E00001
:1041F0000895E3E6F0E080818E7F808381E0809304
:10420000BB020C94BD201092E20008951092E100D0
:1042100008951F920F920FB60F9211242F933F9380
:104220004F935F936F937F938F939F93AF93BF93BE
:10423000EF93FF938091E10082FF0BC08091E20039
:1042400082FF07C08091E1008B7F8093E1000E9494
:1042500050238091E10080FF19C08091E20080FF2F
:1042600015C08091E2008E7F8093E2008091E20091
:1042700080618093E2008091D80080628093D800B2
:1042800019BC85E08093BC020E94BA1D8091E100B8
:1042900084FF2BC08091E20084FF27C084E089BDA9
:1042A00086E089BD89B5982F917080FFFBCF809102
:1042B000D8008F7D8093D8008091E1008F7E80931D
:1042C000E1008091E2008F7E8093E2008091E20025
:1042D00081608093E2008091B802882309F443C092
:1042E00084E08093BC020E94BB1D8091E10083FFAB
:1042F00029C08091E20083FF25C08091E100877F83
:104300008093E10082E08093BC021092B802809119
:10431000E1008E7F8093E1008091E2008E7F8093A8
:10432000E2008091E20080618093E20042E060E080
:1043300080E00E9422208091F00088608093F0004D
:104340000E94B91DFF91EF91BF91AF919F918F9105
:104350007F916F915F914F913F912F910F900FBE81
:104360000F901F9018958091E30087FD93E0909344
:10437000BC02B9CF1F920F920FB60F9211242F9348
:104380003F934F935F936F937F938F939F93AF93DD
:10439000BF93CF93DF93EF93FF93D091E900DF704A
:1043A0008091EC00C82FC17080FDC0E81092E90038
:1043B0008091F000877F8093F00078940E94FE2126
:1043C0001092E9008091F00088608093F000CD2B7E
:1043D000CF70C093E900FF91EF91DF91CF91BF9132
:1043E000AF919F918F917F916F915F914F913F918D
:1043F0002F910F900FBE0F901F9018951F93CF9382
:10440000DF93CDB7DEB7AA970FB6F894DEBF0FBE25
:10441000CDBF8DEB92E02091F100FC012193CF0103
:10442000F2E0853C9F07B9F70E94C11D8091E8002A
:1044300083FF1EC18091BD029091BE029A3008F0A8
:1044400017C1E92FF0E0EC5BFB4D0C94AE238038F4
:1044500099F0823809F00CC18091C1028F708530CB
:1044600008F006C18093E9008091EB0085FB882766
:1044700080F91092E90006C08091B9029091BA02C9
:10448000911182609091E800977F9093E80080936B
:10449000F1001092F1008091E8008E77E5C088234A
:1044A00009F4D3C0823009F0E3C08091BF028111CA
:1044B000D6C08091C1028F702FEF280F243008F0F2
:1044C000D7C08093E9002091EB0020FFC8C0933053
:1044D00031F48091EB0080628093EB00C0C090913A
:1044E000EB0090619093EB0021E030E001C0220FDF
:1044F0008A95EAF72093EA001092EA008091EB0097
:104500008860EACF8111B4C01091BF021F778091FB
:10451000E3008078812B8093E3008091E800877F1F
:104520008093E8000E9456208091E80080FFFCCF35
:104530008091E30080688093E30082E0111183E0C2
:104540008093BC0295C08058823008F091C0809161
:10455000BF029091C0028C3D23E09207A1F583E059
:104560008A838AE289834FB7F894DE01139620E0AC
:104570003EE051E2E32FF0E050935700E49120FF3A
:1045800003C0E295EF703F5FEF708E2F90E0EA304E
:10459000C0F0C7968D939D932F5F243159F74FBF7D
:1045A0008091E800877F8093E8006AE270E0CE01A6
:1045B00001960E94691F8091E8008B778093E80044
:1045C00057C0C096E7CF6091C1027091C202AE01A0
:1045D0004F5F5F4F0E94BC1EBC01892B09F448C08D
:1045E0009091E800977F9093E80089819A810E94DA
:1045F000C51FE1CF8038E1F58091E800877F809387
:10460000E8008091B8028093F10045CF811130C05D
:104610009091BF02923060F58091E800877F80938F
:10462000E8009093B8020E9456208091B802882337
:1046300011F084E005C08091E30087FDFACF81E0AE
:104640008093BC020E94BC1D13C08091BF028130C8
:1046500079F481E0933009F080E08093BA021092FF
:10466000E9008091E800877F8093E8000E9456204F
:104670008091E80083FF0AC08091E800877F8093E3
:10468000E8008091EB0080628093EB00AA960FB661
:10469000F894DEBF0FBECDBFDF91CF911F9108957B
:1046A0000895CF938091BC028823A1F0C091E900C6
:1046B000CF709091EC00892F817090FD80E8C82B1D
:1046C0001092E9008091E80083FD0E94FE21CF70E6
:1046D000C093E900CF910895002480FD060E660F77
:1046E00011F08695D1F7802D08950024552704C038
:1046F000080E591F880F991F009729F07695679526
:10470000B8F37105B9F7802D952F0895AA1BBB1B2F
:1047100051E107C0AA1FBB1FA617B70710F0A61BC1
:10472000B70B881F991F5A95A9F780959095BC01E2
:10473000CD01089597FB072E16F4009407D077FD5E
:1047400009D00E94862307FC05D03EF49095819500
:104750009F4F0895709561957F4F0895EE0FFF1F4D
:104760000590F491E02D0994FC014150504030F047
:1047700001900616D1F73197CF0108958827992720
:104780000895FB01DC010D900020E9F711970190DD
:104790000D920020E1F70895FB01DC018D9101905D
:1047A00080190110D9F3990B0895FB01DC010190E8
:1047B0000D920020E1F70895F999FECF92BD81BDD9
:1047C000F89A992780B50895A6E1B0E044E050E05A
:1047D0000C941624A8E1B0E042E050E00C941624BA
:1047E000262FF999FECF92BD81BDF89A019700B4AA
:1047F000021639F01FBA20BD0FB6F894FA9AF99A4A
:104800000FBE08950396272F0E94F1230E94F023E4
:10481000252F0E94F123242F0C94F1230196272F9A
:104820000E94F1230C94F023DC01CB01FC01F999E7
:10483000FECF06C0F2BDE1BDF89A319600B40D92EC
:1048400041505040B8F70895F894FFCFEA08EA08BD
:104850004209420917091709170917099409200A7B
:104860002F0A2F0A8B0A17091709940AFD0AFD0A55
:10487000060B060B080B060B060B060BFD0AFD0AC2
:104880000D0B060B060B0D0B27224F2238234F2250
:0C48900038238222A3223823FA220623B8
:10489C0001FA00E803FA00FA00FFFF6E02000200C2
:1048AC00020201861D8A1DB71D891DB81D012E2D02
:1048BC002D2D2D002E2E2D2D2D002D2D2D2E2E009F
:1048CC002D2D2D2D2D002D2E2E2E2D002D2E2D2D62
:1048DC002E002D2E2D2D2D002E2D2E2D2D002D2D7F
:1048EC002E2D2D002D2D2D2E2D002D2D2E2D2E006F
:1048FC002D2D2E2E2D002E2D2E2D2E2D002D2D2E30
:10490C002E2D2D002D2D2D2E2E2E002E2E2D2E2D1E
:10491C00002E2E2D2D2E2E002E2E2D2D2E002E2D3A
:10492C002E2E2D2E002E2D2D2D2D2E002D2E2E2EFD
:10493C002E2E002E2D2E2E2E2E002E2E2D2E2E2EE9
:10494C00002E2E2E2D2E2E002E2E2E2E2D2E002E07
:10495C002E2E2E2D2D002D2E2D2E2E002E2E2E2ECB
:10496C002E2E2E2E002E2E2E2E2E2E2E2D002D2EB9
:10497C002E2E2E2E2E2E002E2E2D2E2E2D002E2EA9
:10498C002D2E2D2E002E2E2D2D2E2D002E2E2D2D9E
:0E499C002D2E0000010202020505050505058D
:00000001FF
