:100000000C9455010C949C010C949C010C949C0143
:100010000C949C010C949C010C949C010C949C01EC
:100020000C949C010C949C010C949C010C94191F41
:100030000C94CA1F0C948A1A0C949C010C949C0179
:100040000C949C010C949C010C949C010C94E11A5E
:100050000C949C010C949C010C949C010C949C01AC
:100060000C949C010C949C010C949C010C949C019C
:100070000C949C010400643214783C1E00010101C0
:100080000101010101010202020202020202020355
:100090000303030303030304040404040404050525
:1000A00005050506060606060707070707080808E8
:1000B00008090909090A0A0A0B0B0B0C0C0C0D0D97
:1000C0000D0E0E0E0F0F0F1010111111121213132F
:1000D0001414151516161717181819191A1A1B1BA8
:1000E0001C1D1D1E1E1F2020212222232424252604
:1000F00026272829292A2B2C2D2D2E2F303132323C
:10010000333435363738393A3B3C3D3E3F40414247
:10011000434445464748494A4C4D4E4F505153542D
:10012000555658595A5B5D5E5F61626465666869E1
:100130006B6C6D6F7072737577787A7B7D7E808261
:10014000838587888A8C8E8F91939596989A9C9EAA
:10015000A0A2A3A5A7A9ABADAFB1B3B5B7BABCBEBA
:10016000C0C2C4C6C9CBCDCFD1D4D6D8DBDDDFE287
:10017000E4E7E9EBEEF0F3F5F8FAFDFF08034400DD
:10018000310050000000160350004C0049005000A0
:10019000200057006F0072006B0073000000040322
:1001A000090409023B00020100A032090400000119
:1001B000030101000921110100012240000705810E
:1001C0000308000A090401000103000000092111CD
:1001D000010001227B000705820320000A120100B2
:1001E0000200000008575001000000010200010554
:1001F000010902A10185020901A1000509190129CE
:1002000008150025019508750181020501093009CD
:10021000311581257F9502750881060938158125DC
:100220007F950175088106050C0A38021581257F26
:10023000950175088106C0C005010980A1018503EB
:1002400019012AB700150126B70095017510810024
:10025000C0050C0901A101850419012AA00215019C
:1002600026A002950175108100C005010906A101B3
:10027000050719E029E71500250195087501810298
:100280009501750881010507190029FF150026FF52
:100290000095067508810005081901290595057561
:1002A000019102950175039101C011241FBECFEF8A
:1002B000D4E0DEBFCDBF04B603FE27C08091390273
:1002C00090913A02A0913B02B0913C028730904B52
:1002D000A740B04BD1F41092390210923A0210921A
:1002E0003B0210923C0214BE84B7877F84BF0FB6D6
:1002F000F894A895809160008861809360001092C6
:1003000060000FBEE0E0F8E3099511E0A0E0B1E085
:10031000E6E8F4E402C005900D92A838B107D9F7D9
:1003200022E0A8E8B1E001C01D92A933B207E1F7CD
:100330000E9484100C9419220C94000081E008950E
:1003400081E008950C94A00108950C94A4011F93DA
:10035000CF93DF9300D000D00F92CDB7DEB74983A3
:100360005A836B8330918A0189819A8131111DC032
:100370006623B9F02223A9F00E947807182F682F6E
:1003800089819A810E941F0769817A81812F0F904C
:100390000F900F900F900F90DF91CF911F910C94C1
:1003A000870D0E945107182FEFCF0E9478076981AF
:1003B0007A81EDCFFC01262F4081518162817381CA
:1003C00084810C94A70181E00895CF93DF93EC0121
:1003D00060E00E94DA01BE01DF91CF910C94A5018B
:1003E0000E94AF0F0E9467020C94D40F0C94D70F99
:1003F00008950E94C8050E94F8012FEF84E39CE055
:10040000215080409040E1F700C000000C94051B93
:100410000F931F93CF93DF938C0161E00E94DA0169
:10042000EC01B8010E94A2018823D9F1B801CE01E4
:100430000E94F4178823A9F1B801CE010E94461842
:10044000882379F1B801CE010E946919882349F106
:10045000B801CE010E94BD16882319F1F8018281EE
:10046000882361F0CB35FDE5DF0721F170F4C1157C
:10047000ECE5DE07A1F0CF3DDC45C9F0C801DF9116
:10048000CF911F910F910C949E01CC358DE5D8072B
:10049000A1F0CD35DD4591F70E945F0BEFCF0E94B3
:1004A000F90180E0DF91CF911F910F9108950E9493
:1004B000D60CF7CF0E94680BE1CF0E946B0BDECF0A
:1004C00008950C94600281E008950C9463020895ED
:1004D000CF93C82F0E9461028C2FCF910C9465029C
:1004E000CF93DF93CDB7DEB72B970FB6F894DEBF6F
:1004F0000FBECDBF4F83588769877A878B8761117D
:100500000E948E0B1E821D8285E0FE013796DE0161
:10051000119601900D928A95E1F78C819D81892B2E
:1005200089F449815A816B817C818D819E810E94F1
:100530008A0A2B960FB6F894DEBF0FBECDBFDF91AF
:10054000CF91089589819A8189238F3F51F3CE01FC
:1005500001960E94E3018111E4CFEBCFFC01808181
:1005600091810C94BA07CF93C82F882309F447C010
:100570008CEF8C0F813AA0F46C2F80910001909148
:1005800001010E94FB19882329F08C2F0E942F0B58
:100590000E94BE0B8C2F0E94280BCF910C94BE0B97
:1005A00080E28C0F883048F4C77081E001C0880F6A
:1005B000CA95EAF70E94710BF0CFEBE5EC0FE33040
:1005C00040F4F0E0E75BFE4F808190E0CF910C9427
:1005D000BD19E8E5EC0FE73150F4F0E0EE0FFF1F36
:1005E000E55EFE4F80819181CF910C94D319CD3E71
:1005F00030F08C2F0E941611CF910C94E911CF91FD
:100600000895882361F19CEF980F913A20F40E949D
:100610002F0B0C94BE0B90E2980F983050F487701B
:1006200091E001C0990F8A95EAF7892F0E94770B14
:10063000F0CF9BE5980F933020F490E080E00C948D
:10064000BD1998E5980F973120F490E080E00C9464
:10065000D3198D3E20F00E9470110C94E911089579
:100660001F93CF93DF93182FEB010E94B3022097C3
:1006700031F4812FDF91CF911F910C9401038FE909
:100680009FE00197F1F700C000002197F0CF70E0E4
:1006900060E0893311F460E570E00C943003882346
:1006A00021F00E94710B0C94BE0B0895882321F059
:1006B0000E94770B0C94BE0B0895BF92CF92DF92ED
:1006C000EF92FF920F931F93CF93DF936C01D62F7E
:1006D000C72FFC011281058102950F700E94460B05
:1006E000E82E8823A1F0E12E112389F08C2F807F42
:1006F000803429F080E28D0FE12C883040F082E0D8
:100700000E940F0C0E94460B91E0E82EE926BC2EB9
:10071000B2949FE0B922EB2DF0E0E55EFD4D0C9424
:10072000BE210C2F0F70C07F11F00295007F1123A6
:10073000A9F0002359F080E28D0F883010F0D1111C
:1007400009C0802F0E94710B0E94BE0B8D2F0E944A
:10075000B30214C0802F0E94810BF6CF8D2F0E9410
:100760000103002359F080E28D0F883010F0D11181
:100770002CC0802F0E94770B0E94BE0B2B2D28507F
:10078000330B2430310520F40E9498190E9468022E
:10079000EE2009F49EC10E94420B80FD9AC1F60131
:1007A00012820E943C0B0E948306C6010E948A05A9
:1007B0000E943C0BDF91CF911F910F91FF90EF9022
:1007C000DF90CF90BF900C94A406802F0E94870BDF
:1007D000D3CFFC2FFF70FF2EC07FC03219F0F294F0
:1007E00080EFF822DD2369F0D13049F1112391F136
:1007F000002351F1F601858180FFA8CF8F7085839A
:1008000023C0112381F0011106C00E94A10B8F2982
:100810000E944F03B3CF0130C1F70E94A10B8F2973
:100820000E94A70BABCF011106C00E94B40B8F2D05
:100830000E945603A3CF013009F4A0CFF6CF1123B5
:1008400029F0063008F09ACF8F2DE2CF053008F05E
:1008500095CFEDCF002359F3D93349F4FFEF27EEBD
:1008600033E0F15020403040E1F700C000008D2F10
:100870000E94010383CF8C2F86958695837069F043
:10088000813009F07BCF8D2F9C2F9370111102C006
:1008900090E080E00E94D31971CF8D2F9C2F937030
:1008A000111102C090E080E00E94BD1967CF8D2F2A
:1008B000112329F00E9416110E94E9115FCF0E94B6
:1008C0007011FACF8C2F837009F041C0111156CFEF
:1008D0004D2F429546954770440F440F0D2F0F70D2
:1008E00010E030E020E0042E04C0000F111F221F92
:1008F000331F0A94D2F760E070E0CB01D4FF0FC041
:100900006FE070E080E090E004C0660F771F881F02
:10091000991F4A95D2F76095709580959095C695E8
:10092000C695C370602B712B822B932BC23049F07C
:1009300058F4C13019F00E94350620CF0E942306DA
:100940001DCF0E9447061ACF0E94210617CF869519
:10095000112311F08C2F8170882309F40FCF4D2FB4
:10096000429546954770440F440F0D2F0F7010E0CD
:1009700030E020E0042E04C0000F111F221F331F9F
:100980000A94D2F760E070E0CB01D4FF0FC06FE0B3
:1009900070E080E090E004C0660F771F881F991F09
:1009A0004A95D2F76095709580959095C695C695B5
:1009B000C370602B712B822B932BC23049F058F4FB
:1009C000C13019F00E94FA06D9CE0E94E806D6CEB0
:1009D0000E940C07D3CE0E945D06D0CECF701123AB
:1009E00029F08C2F0E9483068D2F12CF8D2F0E940D
:1009F00056038C2F0E94A406C1CED23F89F160F429
:100A0000D03FC9F0D13F29F1112309F442C00111AF
:100A10009DCE8C2F8F7121C0D33F39F1D43FA1F7E8
:100A2000112369F1CF718C2F0E94830663E08C2F14
:100A30000E94F40BA3CE112341F0053008F09ECEA6
:100A40008C2F8F710E94C70699CE063008F096CE83
:100A5000F7CF8C2F8F71112369F20E9483068ECEFF
:100A60008C2F8F711123C9F3C5CF112329F08C2F3F
:100A70008F710E946E0682CE0E9469067FCE81E051
:100A80000E940F0C023008F479CE82E00E940F0C15
:100A900075CE002359F0D93309F0E9CE8FEF97EEE8
:100AA000E3E081509040E040E1F7DFCE8C2F8F7182
:100AB000A1CF4C2F4F706D2FC6010E94830D0E9455
:100AC000E8075CCE4C2F4F706D2FC6010E94860D3B
:100AD00055CEDF91CF911F910F91FF90EF90DF9056
:100AE000CF90BF9008950F931F93CF93DF93EC01A6
:100AF000688179818A810E94C4078C010E941E0747
:100B00000E942006B801CE01DF91CF911F910F9175
:100B10000C945D03CF93DF93EC018B819C81892B37
:100B200029F08881998189238F3F59F4DF91CF91F2
:100B30000895CE010E947305CE01DF91CF910C94F0
:100B4000E501CE010E9408028111F3CF0E94460BFD
:100B5000882361F38A81882349F382E0DF91CF9172
:100B60000C940F0C90E080E00E94BD1990E080E0B2
:100B70000E94D3190E948E0B0E949E0B0E94BE0BF6
:100B80000E941A130C94E9110E94360B0C94B205C2
:100B90000E947E0B0C94C405E92FE295EF70E250A1
:100BA000EE3070F4F0E0E55DFD4D0C94BE21803F29
:100BB00019F020F4883E20F481E00895843FE1F3A9
:100BC00080E00895883EC0F3813FD1F7F5CF93FBD5
:100BD000882780F90895FC01808191810E94BA07DD
:100BE0000C94CC05CF93DF9300D000D00F92CDB7FB
:100BF000DEB70F900F900F900F900F90DF91CF9175
:100C00000895CF93DF9300D000D000D0CDB7DEB7EA
:100C100026960FB6F894DEBF0FBECDBFDF91CF9101
:100C2000089508950C9411060E9412066093940191
:100C30007093950180939601909397010C94B2055F
:100C400008950C9414060F931F9300919401109132
:100C500095012091960130919701602B712B822B89
:100C6000932B1F910F910C9414060F931F930091D7
:100C70009401109195012091960130919701602384
:100C80007123822393231F910F910C9414060F93C9
:100C90001F9300919401109195012091960130913C
:100CA000970160277127822793271F910F910C943A
:100CB00014060C9411060C9459060E945B0660936E
:100CC00090017093910180939201909393010C9401
:100CD000B20560E070E0CB010C945D060F931F93AA
:100CE00041E050E060E070E08A019B0104C0000F29
:100CF000111F221F331F8A95D2F7C901B8011F9116
:100D00000F910C945D060F931F9341E050E060E05B
:100D100070E004C0440F551F661F771F8A95D2F7F5
:100D20008091900190919101A0919201B0919301D5
:100D30008A019B01082B192B2A2B3B2BC901B801D7
:100D40001F910F910C945D060F931F9341E050E0AB
:100D500060E070E004C0440F551F661F771F8A953E
:100D6000D2F7CB01BA01609570958095909500916E
:100D70009001109191012091920130919301602393
:100D80007123822393231F910F910C945D060F937F
:100D90001F9341E050E060E070E004C0440F551F35
:100DA000661F771F8A95D2F78091900190919101EB
:100DB000A0919201B09193018A019B010827192704
:100DC0002A273B27C901B8011F910F910C945D069A
:100DD0000F931F9300919001109191012091920126
:100DE00030919301602B712B822B932B1F910F91CC
:100DF0000C945D060F931F93009190011091910147
:100E000020919201309193016023712382239323D7
:100E10001F910F910C945D060F931F930091900109
:100E200010919101209192013091930160277127D7
:100E3000822793271F910F910C945D060895CF93FD
:100E4000DF93262F890F982F9770E1E001C0EE0FF6
:100E50009A95EAF786958695869590E065E070E02C
:100E60000E948521DC01A557BE4F50E040E0622F73
:100E700070E08D91ED0121979B01042E02C0369503
:100E800027950A94E2F72170219528272E232827F9
:100E900028834F5F5F4F4530510559F7DF91CF9160
:100EA0000895890FA82FA77086958695869590E05E
:100EB00065E070E00E948521FC01E557FE4F50E09F
:100EC00040E080E0219130E00A2E02C0369527955F
:100ED0000A94E2F721703327042E01C0220F0A94EE
:100EE000EAF7822B4F5F5F4F4530510559F7089560
:100EF000BF92CF92DF92EF92FF920F931F93CF9307
:100F0000DF938C01C0909001D0909101E09092010C
:100F1000F09093018091940190919501A091960198
:100F2000B0919701C82AD92AEA2AFB2ACFE1D0E05A
:100F3000BC2ED701C6010C2E04C0B695A795979577
:100F400087950A94D2F780FD0EC0219788F7B12CBF
:100F50008B2DDF91CF911F910F91FF90EF90DF903C
:100F6000CF90BF900895B8018C2F0E94B70E0197C3
:100F700061F3EECFCF93DF93EC010E947807BE01BF
:100F8000DF91CF910C94B70E1F93CF93DF93EB01BA
:100F900090918A01992331F0CB01DF91CF911F917C
:100FA0000C94BA07882379F0CB010E947807182F98
:100FB000682FCE010E941F07BE01812FDF91CF91C4
:100FC0001F910C94B70ECB010E945107182FF4CF3C
:100FD000EF92FF920F931F93CF93DF938C01892B96
:100FE00081F0F12CEE24E394E8012196F80184913C
:100FF000843770F4843008F05FC08130B1F0823003
:10100000A1F1DF91CF911F910F91FF90EF90089583
:10101000853709F44CC008F43DC09CE7980F903721
:1010200080F78F770E94010349C00E5F1F4FFE01BA
:10103000849190E2980F983060F48770FE2D01C083
:10104000FF0F8A95EAF78F2F0E94910B0E94BE0B2B
:1010500002C00E94B3028F2D815030F2EFE9FFE011
:101060003197F1F700C00000F7CF0E5F1F4FFE0170
:10107000849190E2980F983050F48770FE2D01C053
:10108000FF0F8A95EAF78F2F0E94970BDFCF0E9400
:101090000103E1CF0E5F1F4FFE01C491C150D8F292
:1010A0008FE99FE00197F1F700C00000F7CF0E5FD6
:1010B0001F4FFE01F490CFCF0E94B3028E01CBCF21
:1010C000CF93DF93C0919801809199018C1303C055
:1010D000DF91CF910895D0E0CE0166E070E00E94EC
:1010E0008521FC01E656FE4F40815181628173816A
:1010F000848195810E9401062196C770E5CF4091B9
:10110000CA015091CB016091CC017091CD018091C9
:10111000CE019091CF010C9401061F93CF93DF93E2
:101120008091CF01807FA1F48091CC01882381F050
:1011300020919801B09199014091CA01A091CB01F1
:10114000C091CD01D091CE01142F1A23B21304C047
:10115000DF91CF911F91089530E0209711F01F3F4C
:1011600021F42F5F3F4F2770F1CFC90166E070E097
:101170000E948521FC01E656FE4F81818A13F1CF42
:1011800080818413EECF82818111EBCF83819481A2
:101190008C1B9D0B883C910520F78091CF018F70AF
:1011A00080618093CF01C90166E070E00E948521D3
:1011B000FC01E156FE4F90819F70906190838AEC14
:1011C00091E00E948A05DF91CF911F910C946008F5
:1011D000AF92BF92CF92DF92EF92FF920F931F9345
:1011E000CF93DF93CDB7DEB761970FB6F894DEBF2C
:1011F0000FBECDBF8C0185E0F801DE011D96019088
:101200000D928A95E1F7F801E2808AECC82E81E020
:10121000D82E6091CD017091CE016115710509F450
:101220005DC19091CA013091CB01892F83238F3FFB
:1012300009F454C140812181A380B480F090CC0195
:10124000F501E61BF70BFF2009F4F8C08091CF01F0
:10125000582F507FE83CF10508F0B0C051117AC01A
:10126000FE2C321323C0941321C0E1101FC08F70D5
:1012700080618093CF010E947F08C6010E948A0589
:101280008091CF01F80185838F2D61960FB6F89478
:10129000DEBF0FBECDBFDF91CF911F910F91FF90A9
:1012A000EF90DF90CF90BF90AF900895AB2829F0DA
:1012B000842F82238F3F09F02AC180E0F82FF1703C
:1012C000DF2EE09198013091990180FD20C0EE2041
:1012D000D9F28091CF0181608093CF01F12CD4CFDE
:1012E000F0E0CF0166E070E00E948521DC01A656A7
:1012F000BE4F11968C911197821307C08C91841365
:1013000004C012968C91E812E2CF3196E770E31395
:10131000E7CF4D872E878D859E850E94BA07292F9E
:1013200022952F70223050F0243078F49F7051F0C5
:10133000F8019581907F31F4D12C0AC09F7011F093
:101340008823D1F3805E8830B8F3C8010E948A05F3
:10135000FD2C9ACF321306C0941304C0F801EE207E
:1013600009F488C0C8010E94EB05882319F1EE201A
:1013700009F18091CF01803270F02091CA01309143
:10138000CB0138872F831986BB86AA868C87CE012E
:1013900007960E948A0586E0F801AAECB1E0019068
:1013A0000D928A95E1F70E948D080E947F08FF2424
:1013B000F3946ACFC8010E948A05F9CF511114C075
:1013C0007A2DB98AA88A522F6E2D89890E94F2053A
:1013D0008AEC91E00E948A0586E0F60111928A95D6
:1013E000E9F70E947F087ACF32130FC094130DC023
:1013F000E1100BC0F8018583C8010E948A0586E0D0
:10140000F60111928A95E9F73FCFC8010E94EB05DA
:10141000882381F2EE2071F28091CF01803208F4AE
:10142000BACF2091CA013091CB013A8329831B8224
:10143000BD82AC828E83CE010196ABCFE83CF10534
:1014400008F03EC0FE2CEE2009F4B4CF32132AC0BF
:10145000941328C08091CF0180FD1BC0982F907FEE
:10146000C1F0F8018583903F31F0982F907F905F15
:101470008F70892B8583C8010E948A0586E0F80158
:10148000AAECB1E001900D928A95E1F70E947F08E5
:10149000FBCE86E0F801AAECB1E001900D928A95AE
:1014A000E1F7F2CEC8010E94EB05811174CF809163
:1014B000CF0181608093CF01C8010E948A05E4CEEC
:1014C0007A2DB98AA88A522F6E2D89890E94F20539
:1014D00086E0F60111928A95E9F7D8CFEE2009F45B
:1014E00069CFC8010E94EB05F82E882309F462CF6A
:1014F00086E0F801AAECB1E001900D928A95E1F73F
:101500008AEC91E00E94AE020E948D08BFCF81E07C
:101510008E25D4CECF93DF93CDB7DEB72C970FB601
:10152000F894DEBF0FBECDBF4F83588769877A8797
:101530008B879C87CE0107960E94E8088823D1F00C
:101540008A859B85892B39F04F815885842F852387
:101550008F3F09F076C0809198019091990189138D
:1015600049C02C960FB6F894DEBF0FBECDBFDF91F9
:10157000CF91089586E0FE013796DE011196019025
:101580000D928A95E1F78A859B85892B21F38F81BE
:10159000988589238F3FF9F28091990190E09C0111
:1015A0002F5F3F4F27703327409198014217130652
:1015B00071F40E94C805109299011092980186E07A
:1015C000EAECF1E0DF011D928A95E9F7C4CF66E00D
:1015D00070E00E948521DC01A656BE4F96E0FE0118
:1015E000319601900D929A95E1F7209399010E940E
:1015F0006008B1CF90E066E070E00E9485218656D9
:101600009E4F0E94E808882309F4ABCF809198018F
:1016100090E066E070E00E948521FC01E656FE4FF6
:101620004081518162817381848195810E9401068C
:101630008091980190E00196877099278093980196
:101640008ACF69857A858B859C850E94010683CF28
:10165000682F80910001909101010C94311A682F3C
:1016600080910001909101010C94331A8091000146
:10167000909101010C94351A8091D0018595859542
:10168000859508958091D001877008959091D0013B
:10169000977081E009F480E0089590911A0292FB1E
:1016A000222720F9281751F080FB92F990931A0213
:1016B0008091190290911A020C94520C0895809115
:1016C0001A0282FB882780F991E089270C944D0B40
:1016D00081E00C944D0B80E00C944D0B8091DC016B
:1016E00008959091DC01892B8093DC010895809509
:1016F0009091DC0198239093DC0108951092DC0115
:1017000008959091DB01892B8093DB0108958095EA
:101710009091DB0198239093DB0108951092DB01F7
:1017200008959091DA01892B8093DA0108958095CC
:101730009091DA0198239093DA0108951092DA01DA
:1017400008958091D101089508950C94A40B90916F
:101750001A0292FD08C09091D101981721F0809350
:10176000D1010C94A50B08958091D101882329F013
:101770001092D10180E00C94A50B0895E091000136
:10178000F09101018091DC018083E0910001F091F2
:10179000010180819091DB01892B8083E091000120
:1017A000F091010180819091DA01892B80839091E1
:1017B000D101992381F0E0910001F0910101808134
:1017C000892B808380910001909101010E94E91989
:1017D00081110E94B40B80910001909101010C9441
:1017E000A41908950C94F10B90911A0292FD10C067
:1017F000982F990F990F990F962B9093D0010E94D3
:1018000083068091D0018595859585950C94F20B82
:101810000C9483061092D00180E00C94F20B90910E
:10182000D001809589238093D001282F277039F427
:10183000282F082E000C330B9217130621F49091D9
:101840001A0292FF07C08595859585950E94A4068A
:101850000C940A0C08956FEF7FEF90E080E00C94F9
:10186000032290E080E00E94DF2121E0893E9E4F2C
:1018700009F020E0822F089582E090E00C94D121BD
:1018800083E090E00C94D121CF9384E090E00E941B
:10189000D121C82F82E290E00E94D121982F8C2F75
:1018A000CF910895CF93C92F682F84E090E00E94D4
:1018B000E5216C2F82E290E0CF910C94E521AB0101
:1018C000BC018FE090E00C94F721AB01BC0183E1F7
:1018D00090E00C94F72160E070E0CB010C94650C73
:1018E00060E070E0CB010E945F0C0C946B0C69EE21
:1018F0007EEF90E080E00E94032260E082E090E0D2
:101900000E94E52160E083E090E00E94E5211092D2
:10191000940110929501109296011092970160E047
:1019200084E090E00E94E52160E082E290E00E9485
:10193000E52160E085E090E00E94E52160E086E03E
:1019400090E00E94E5216FEF87E090E00E94E521A2
:1019500040E050E0BA0188E090E00E94F72160E0AA
:101960008DE090E00E94E52140E050E0BA0188E17E
:1019700090E00E94F72160E087E190E00E94E5217D
:1019800040E050E0BA018CE190E00E94F72170E065
:1019900060E080E290E00E94032240E050E0BA0163
:1019A00088E190E00E94F7210C94700C0C94770C65
:1019B000682F8EE090E00C94E5210E94C61A609397
:1019C000E3017093E4018093E5019093E601609355
:1019D000DF017093E0018093E1019093E2010895AB
:1019E000089508950C94F00C08950C94F40C85E976
:1019F0009FE00E94291B0E94F10C0C94F20C81E0E4
:101A000008950C94FF0C089508950E94030D0C9402
:101A1000040D0E94B11A0E941C100E9417160C940B
:101A2000F50C0F931F93CF93DF93CDB7DEB72A97B3
:101A30000FB6F894DEBF0FBECDBF0E9427108111F4
:101A40000E94DD0C80E00E94D90F182F8091DE01EA
:101A5000082F0127811739F08091E70181FD0E944D
:101A6000DF0F00FD2AC08FEF89838A831B820E94CB
:101A7000BA1A8160782F9D838C8349815A816B814A
:101A80008D810E9470020E944A160E9404120E94D8
:101A900098199091DD01891759F10E949819809346
:101AA000DD012A960FB6F894DEBF0FBECDBFDF91E1
:101AB000CF911F910F910C9468020E94010D882311
:101AC00081F01E821F82117018870E94BA1A8160ED
:101AD000782F9A8789874E815F8168858A850E94E1
:101AE00070028091DE0191E089278093DE01CBCFE7
:101AF0002A960FB6F894DEBF0FBECDBFDF91CF910F
:101B00001F910F91089590E080E008950895272F88
:101B1000260F3327331FF901E80FF11DEE0FFF1FCA
:101B2000EC58FF4F859194910895FC01EE0FFF1F33
:101B3000EA58FF4F859194910895CF93DF930E94C7
:101B4000BB0EEC01811520E5920708F042C081151B
:101B500030E4930708F0BFC0883E910528F5803E29
:101B6000910508F0A0C0883A910588F4853A91055E
:101B700008F092C08130910509F495C0009709F4EE
:101B800092C0049708F08FC0D0E0C0E08CC08F3BBB
:101B9000910508F48CC0805C9109C03CD105A0F38C
:101BA0000E94950DEC017FC0811540E2940750F42E
:101BB000C11581E0D80708F076C0CD3ED10520F3ED
:101BC000D06571C0811520E3920708F07BC09F703B
:101BD000E7CF811535E5930770F5811544E5940746
:101BE00008F0ADC0C11582E5D80750F4C11521E554
:101BF000D20708F473C0DC2FCC27C16FD06A53C062
:101C00009C2F969596959E0123703327C115D34539
:101C100008F083C0C1E0D0E002C0CC0FDD1F2A95E0
:101C2000E2F7892F90E0E5E0880F991FEA95E1F748
:101C3000C82BD92B70C0C11589E5D807A8F4C115E8
:101C400028E5D20708F080C0C11536E5D30708F0B3
:101C50009BCF8C2F0E94520FC82FD0E0DC2FCC27B7
:101C6000CC27DF71D0621FC0C1154AE5D40708F444
:101C700070C0CE0190568115904208F085CF8D2F0F
:101C80008F710E94520F90E0982F882788279F71AC
:101C90009C012C2BE901E6CFC55AD0E0C658DE4F97
:101CA000C881D0E0D064CE01DF91CF910895C85AA9
:101CB000D0E0CC0FDD1FC45BDE4F0990D881C02D72
:101CC000D464F1CF9927D3FF03C0EC01D86CEBCFDC
:101CD000EC01D06CE8CFDF70D06AE5CFCE01A4E094
:101CE00096958795AA95E1F783702C2F26952695D2
:101CF000237030E0B5E0220F331FBA95E1F7382B9F
:101D00008C2F8370C1E0D0E002C0CC0FDD1F8A951C
:101D1000E2F7C22BD32BDC68C6CFC1E0D0E002C013
:101D2000CC0FDD1F2A95E2F7892F90E075E0880F30
:101D3000991F7A95E1F7C82BD92BDA68B4CFD82F41
:101D4000CC27C46FD06AAFCFDC2FCC27C06FD06A4E
:101D5000AACF8C2F8F700E94520F34E0D695C79572
:101D60003A95E1F7CF709C2FEC01D0699CCF0E948F
:101D7000870D0C949D0D82389105B1F1B0F481333B
:101D8000910509F475C048F48932910509F469C0D8
:101D90008A32910509F473C008958533910509F4D9
:101DA00059C08933910501F10895833E9105A9F148
:101DB00038F4803E9105F9F0823E910549F108958D
:101DC000863E9105A9F1873E9105C9F1843E9105B2
:101DD00019F520911A0221FF1FC08091190284FD7C
:101DE00014C087EE90E00895209119022370A1F0AD
:101DF00080EE90E008952091190220FD47C03091B7
:101E00001A0230FF09C024FF44C090E080E004C003
:101E10002091190222FDF7CF08952091190222FD89
:101E20003BC030911A0230FDE3CF24FFF5CFEDCF58
:101E30002091190223FFF0CF24FDE7CFD2CF2091CC
:101E4000190223FD2CC030911A0231FFEECF84EE2F
:101E500090E008952091190225FFDECF89E290E0FD
:101E600008952091190225FFD7CF85E390E00895CA
:101E70002091190226FFD0CF8AE290E008952091A8
:101E8000190226FFC9CF81E390E0089589E390E02D
:101E9000089583EE90E0089582EE90E0089586EE36
:101EA00090E008959091190292FF06C0282F2871A2
:101EB0002830F9F4877F846093FF06C0282F2871AB
:101EC0002831F1F4877E846120911A0220FF06C038
:101ED000382F38713830D9F4877F816021FF06C0F0
:101EE000282F28712831D1F4877E816194FD877E67
:101EF0000895282F24712430F9F68B7F8860DCCF79
:101F0000282F2471243101F78B7E8861DDCF382F93
:101F10003171313019F78E7F8860E0CF282F217121
:101F2000213121F78E7E8861E1CF80E008950C9405
:101F30002B0C0E9427108FE39CE90197F1F700C05A
:101F400000000E94271080E00E94D90F80FF04C08B
:101F50000E94970F0C94051B08950C94990F0E94F2
:101F6000310C811102C00E94D60C0E943C0C80935F
:101F7000E7010E94440C90931A02809319020E9478
:101F8000AD0F0E94400C682F70E090E080E00E944E
:101F90002106609190017091910180919201909140
:101FA00093010C945B0608950C94D30F08950C9440
:101FB000D60FE82FF0E0E45EFD4F8081089508958C
:101FC00080EA8A95F1F7089500C008950C94E00F17
:101FD000F89427982F9A789408950E94E80FF8941F
:101FE00052985A9A78940895EF92FF921F93CF9344
:101FF000DF937C01162FF894279A2F9878940E94EB
:10200000E40FC9B1D0E0D595C795D595C795C095D2
:10201000D0950E94E80F6C2F6170812F0E94E60F0F
:10202000F701E10FF11DC170DD27C083DF91CF9172
:102030001F91FF90EF9008950E94ED0F10921B02E8
:1020400010921C0281E00E944D100C94F0011F932D
:10205000CF93DF930F92CDB7DEB7198260E0CE0148
:1020600001960E94F40F90911B02898111E0981350
:1020700001C010E0981380931B02212F41E06CE116
:1020800072E08BE192E00E944E100E94F601812FD7
:102090000F90DF91CF911F9108950895FF920F93B4
:1020A0001F93CF93DF93F82E092F162FD72FC42F0E
:1020B000222349F081E08093EA010E94BA1A9093AA
:1020C000E9018093E8018091EA018823A1F08091E1
:1020D000E8019091E9010E94D21A059760F0EF2D76
:1020E000F02FA12FBD2FCE0FDF2FD11DEC17FD0735
:1020F00041F41092EA01DF91CF911F910F91FF906F
:10210000089581918D93F2CF0E943C1A0E94741C15
:102110000E948D1C0E949F1C0E94050DFBCF809188
:10212000F10180FF11C08091070190E065E070E04F
:102130000E9485219595879595958795803891057D
:10214000B0F50097B1F1089581FF0AC080910701B1
:1021500090E065E070E00E94852195958795EECF2F
:1021600082FF08C08091070190E065E070E00E9466
:102170008521E4CF8091F0018823B1F02091060100
:102180006091070170E0821710F0CB01EECF90E074
:102190000E94852165E070E00E948521622F70E039
:1021A0000E94AA21CB01CACF85E090E008958FE775
:1021B000089581E008958091F10180FF0CC0609145
:1021C000030170E0759567957595679561157105C3
:1021D00059F1862F089581FF06C06091030170E0D8
:1021E00075956795F3CF6091030170E082FD0CC097
:1021F0006091EF016623A9F0209102018091030113
:1022000090E0621730F0BC0160387105F8F28FE79A
:10221000089570E00E948521622F70E00E94AA213B
:10222000F3CF61E070E0D5CF81E008958D3E31F4C9
:102230000E948F1081958093F50108958E3E19F4C8
:102240000E948F10F8CF8F3E31F40E948F1081953D
:102250008093F4010895803F19F40E948F10F8CF05
:10226000893F29F40E94DB108093F60108958A3F8C
:1022700021F40E94DB108195F7CF8B3F31F40E944F
:10228000DB1081958093F70108958C3F19F40E942B
:10229000DB10F8CF9FE0980F983070F4815F990BB6
:1022A00021E030E001C0220F8A95EAF78091F30126
:1022B000822B8093F30108958D3F31F48091F101D9
:1022C00081608093F10108958E3F21F48091F101A6
:1022D0008260F7CF8F3FB9F78091F1018460F1CF31
:1022E0004091F4018D3E59F48091F50187FF0DC0B6
:1022F0001092F50141110BC01092F00108C08E3E02
:1023000081F48091F50118169CF3442381F08091AB
:10231000F6019091F701892B09F05AC01092EF0154
:1023200008958F3E49F447FFF0CF1092F401809159
:10233000F5018111ECCFE0CF803F19F41416ACF316
:10234000E4CF9091F601893F29F41916F4F6109222
:10235000F601DBCF8A3F19F497FFD7CFF8CF9091E2
:10236000F7018B3F29F497FFD0CF1092F701CDCF23
:102370008C3F19F41916CCF3C8CF9FE0980F983012
:1023800090F4815F990B21E030E0B90102C0660F43
:10239000771F8A95E2F7CB0180959091F30189230D
:1023A0008093F301B2CF8D3F31F48091F1018E7FA4
:1023B0008093F101AACF8E3F21F48091F1018D7FAE
:1023C000F7CF8F3F09F0A1CF8091F1018B7FF0CF44
:1023D00008950E94BA1A9C019091F4018091F50130
:1023E000982B21F03093EE012093ED019091F601AE
:1023F0008091F701982B21F03093EC012093EB01B1
:1024000082EF91E00C94AF19EF92FF920F931F931C
:10241000CF93DF9300D000D000D0CDB7DEB786E0F9
:10242000E2EFF1E0DE01119601900D928A95E1F75D
:10243000E090F401F090F5010091F6011091F701A0
:102440001092F4011092F5011092F6011092F7012A
:102450008E2D8F2991F08091ED019091EE010E94D7
:10246000D21AFC012091F001222309F43FC080918F
:1024700008018E171F0608F448C0802F812B91F0A9
:102480008091EB019091EC010E94D21AFC01209105
:10249000EF01222309F47CC0809104018E171F06EE
:1024A00008F485C08091F4019091F501892B9091F9
:1024B000F601892B9091F701892B11F00E94E91107
:1024C00086E0FE013196A2EFB1E001900D928A956F
:1024D000E1F726960FB6F894DEBF0FBECDBFDF91B1
:1024E000CF911F910F91FF90EF9008958091090176
:1024F00090E06AE070E00E9485218E179F0708F047
:10250000BCCF2F5F2093F00102C02F3FD1F7EE2008
:1025100051F00E948F106FEF1E140CF461E00E94C6
:102520007C218093F401FF2051F00E948F106FEF07
:102530001F140CF461E00E947C218093F5018091CE
:10254000F401882309F499CF2091F501222309F49D
:1025500094CF082E000C990B65EB70E00E9485214A
:10256000992371F09093F401822F220F990B65EB60
:1025700070E00E948521992339F09093F5017DCF79
:1025800081E08093F401F0CF81E08093F50175CF75
:102590008091050190E06AE070E00E9485218E172D
:1025A0009F0708F07FCF2F5F2093EF0102C02F3FDE
:1025B000D1F7002351F00E94DB106FEF10160CF4DE
:1025C00061E00E947C218093F601112351F00E946A
:1025D000DB106FEF11160CF461E00E947C218093F8
:1025E000F7018091F601882309F45CCF2091F7016F
:1025F000222309F457CF082E000C990B65EB70E0ED
:102600000E948521992371F09093F601822F220F69
:10261000990B65EB70E00E948521992339F0909326
:10262000F70140CF81E08093F601F0CF81E0809305
:10263000F70138CF86E0E2EFF1E0DF011D928A95E5
:10264000E9F71092F0011092EF011092F101089554
:10265000EF92FF920F931F93CF93DF93982F7111F7
:1026600011C0442329F0E82FF0E0E458FF4F949183
:10267000692F792F892FDF91CF911F910F91FF90B3
:10268000EF900895262F30E0C72FD0E0E82FF0E03C
:10269000442321F0E458FF4FE491F0E0C90166E0E3
:1026A00070E00E9485210FEF10E0B8010E94962192
:1026B000DB01220F331FCB0165E570E00E9485210D
:1026C000281B390BE22EEE0CE20EC8018C1B9D0B71
:1026D000BF010E948521292FF12CC701BE010E9454
:1026E0008521492F50E0C801841B950BBF010E9432
:1026F0008521392FC8018E199F09BE010E948521AD
:10270000492F50E0C801841B950BBF010E94852111
:10271000892F7E2FA230B10589F038F4109759F037
:10272000119781F0922F232F06C0A430B10569F0D4
:1027300080F01697B9F7692F822F9DCF9E2F722FA9
:10274000282FF9CF9E2F732FF6CF922F2E2F782F71
:10275000F2CF722F2E2F932FEECF41E00C9428133F
:1027600008950C94AD13CF93DF93762FE901682F72
:10277000842F0E94B113798368838A83DF91CF917C
:10278000089580911D02982F9E7F29F481708260A8
:1027900080931D0208958631E8F381708461F8CF3B
:1027A00088E090E00C94D921CF92DF92EF92FF92D3
:1027B0006B017C010E94C113B701A60188E090E083
:1027C000FF90EF90DF90CF900C94F721EDE1F2E0D5
:1027D00083E0808311828FEF828383831482608100
:1027E0007181828193810C94D41380911D0280FFAA
:1027F00002C08695089580E008959091210293305B
:1028000018F49F5F90932102882351F060911D027C
:1028100070911E0280911F02909120020C94D4139B
:10282000089581E00C94FD1390912102992319F0F1
:10283000915090932102882351F060911D02709174
:102840001E0280911F02909120020C94D4130895CF
:1028500081E00C94141470E00C945B1730910B0120
:1028600080911D0280FF0CC080910A0190E063E01E
:1028700070E00E948521632F8E5D9D4F0C942B1478
:1028800020910C0140910D01822F90E063E070E0F7
:102890000E948521FC01EE5DFD4F241728F711826F
:1028A000108212822F5F3396F8CFA82FB62F809117
:1028B0001D0280FF17C020910C0130910D01822F65
:1028C00090E063E070E00E948521FC01EE5DFD4F29
:1028D000231710F00C942E14A183B08342832F5F32
:1028E0003396F6CF0895CF93DF9300D00F92CDB7F4
:1028F000DEB790911D0290FF0AC09E012F5F3F4FEF
:102900000E94B3134B8169818A810E9455140F90F4
:102910000F900F90DF91CF910895CF93DF93EC014B
:10292000EDE1F2E0438162818C810E9473148C811D
:102930008F5F8C83DF91CF910895EF92FF920F9379
:102940001F93CF93DF9300D00F92CDB7DEB7182F30
:10295000F62E042FE22E80911D0280FF28C0E82F62
:10296000E695F0E0E358FE4F90819093FF018E7F53
:10297000823039F59E012F5F3F4F812F0E94B313A4
:102980004B8169818A810E94551410931E02F09236
:102990001F0200932002EE2051F060911D02709101
:1029A0001E0280911F02909120020E94D4130F906A
:1029B0000F900F90DF91CF911F910F91FF90EF90AB
:1029C0000895923019F410911E02DFCF9530E9F688
:1029D000FACFEDE1F2E09181282F4381628188E016
:1029E000890F0C949D1481E00C94E914EDE1F2E060
:1029F0009181282F4381628188EF890F0C949D1467
:102A000081E00C94F614EDE1F2E0628121E1620FC5
:102A100008F46FEF282F438181810C949D1481E08D
:102A20000C940315EDE1F2E0628121E1621B08F4F0
:102A300060E0282F438181810C949D1481E00C94E7
:102A40001215EDE1F2E0438121E1420F08F44FEF6E
:102A5000282F628181810C949D1481E00C942115B2
:102A6000EDE1F2E0438121E1421B08F440E0282F30
:102A7000628181810C949D1481E00C94301520E0DA
:102A80000C949D14EF92FF921F93CF93DF93EC0170
:102A900010E0EE24EA94F12C30910E01131770F03F
:102AA0000E942E149A818C8190FF27C08F5F8C83A7
:102AB000DF91CF911F91FF90EF90089580910C01CD
:102AC000810F9927991F63E070E00E948521FC0126
:102AD000EE5DFD4F632F70E0C7010E94AA21812F98
:102AE0000E947C219C819F014091200260911F02E5
:102AF000890F0E94B3131F5FCFCF8150D8CFEDE174
:102B0000F2E080818E7F80836081718182819381F8
:102B10000E94D413109200022FEF80E792E0215020
:102B200080409040E1F700C000000C942E146091AA
:102B30001D02669570E041E050E08FE091E00E9458
:102B4000C421892B19F481E0809300020E94BA1AF3
:102B50009093F9018093F801089590911D0290FFE0
:102B600035C09170811128C0926090931D02662338
:102B700051F060911D0270911E0280911F02909190
:102B800020020E94D41360911D02669570E041E01E
:102B900050E08FE091E00E94C421892BA1F01092B7
:102BA000000281E08093FB014091200260911F02AE
:102BB00080911E020C943F158B3010F09461D5CF9C
:102BC000880F982BD2CF0E949715EBCF0895682FCE
:102BD00090911D02969581E0890F8B3008F081E07D
:102BE0000C94AD1581E00C94E715682F90911D02AF
:102BF00096958FEF890F09F48AE00C94AD1581E06A
:102C00000C94F51561E00C94AD15EDE1F2E08081D6
:102C10008160808386950C94021680911D0280FD50
:102C20000C947F150C94051660E00C94AD15809102
:102C3000FE0181112EC00E94310C811104C00E943E
:102C4000D60C0E94E6130E94D01360931D0270936D
:102C50001E0280931F02909320026E7F61F40E94F7
:102C6000E6130E94D01360931D0270931E0280939E
:102C70001F02909320020E94C113109200028091C3
:102C80001D0280FF03C086950E94141681E0809388
:102C9000FE0108950F931F93CF93DF93809100025D
:102CA000882309F44BC08091FF01E0911D02E69555
:102CB000E81BE093FA01823089F5F0E0E758FF4F16
:102CC000E491CE2FD0E00DE814E18091FB01882340
:102CD00061F01092FB010E94BA1A9093F90180935F
:102CE000F8011092FD011092FC010E94BA1AE091C5
:102CF000F801F091F9018E1B9F0B8F3F9F47F0F475
:102D0000CE0FDF1FD093F901C093F80188EF91E057
:102D1000F801DF91CF911F910F910994C0EDD7E099
:102D200000EB13E1853089F6E695F0E0EA58FF4FB5
:102D3000E491CE2FD0E002E415E1C7CFDF91CF912F
:102D40001F910F910895FA01811101C0FB010994AF
:102D5000CF93DF93C82FD62F0E94F5138C1740F026
:102D60000E94F5138D1720F4DF91CF910C94F2158A
:102D70008C2FDF91CF910C9402160F931F93CF935A
:102D80008C01FB01C281CC2309F493C00E946E0B1D
:102D900082720B3CFCE51F0709F475C060F5063C28
:102DA000ECE51E0709F45BC080F4043C9CE51907C0
:102DB00009F44BC008F04EC0033C1C4509F442C066
:102DC0008C2FCF911F910F910895083C9CE5190716
:102DD00009F44FC008F448C0093CFCE51F0709F49A
:102DE0004DC04CE355E16DE275E10A3C1C4541F7ED
:102DF0000E94A31615C0003DECE51E0709F456C05D
:102E000088F40D3C9CE5190709F447C008F440C05C
:102E10000E3CFCE51F0709F445C00F3C1C4581F63C
:102E2000C0E0CECF073D9CE5190740F46AE085E09D
:102E3000023D1C45A8F70E94A816F2CF0E351D458D
:102E400079F3BECF0E940D16EBCF4FEF55E162EF45
:102E500075E1CECF42EF55E16FEF75E1C9CF40E0AC
:102E600055E163EF74E1C4CF43EF54E160E075E1F5
:102E7000BFCF4EE155E16FE075E1BACF4FE055E1CC
:102E80006EE175E1B5CF4DE255E16CE375E1B0CF90
:102E900048E254E161E174E1ABCF41E154E168E221
:102EA00074E1A6CF81E00E940216BACF64E082E00E
:102EB000C2CFC1E085CF9C01CB013D9A48B14F7D87
:102EC000E8B1E062FFB7F89463E070E00E9485210A
:102ED000820F931F8217930741F4FFBF8FE594E0A1
:102EE0000197F1F700C000000895D9015D919D019F
:102EF00068E0E8B9000000C057FF48B9550F00006E
:102F000000C000C000C048B900C06A9591F7E2CF88
:102F10000F931F93CF93DF93C42FD22FFC01828195
:102F20008823C9F0409303020E94BA1A90930202C8
:102F30008093010280E28C0F883008F050C0C77087
:102F400081E001C0880FCA95EAF7DF91CF911F9108
:102F50000F910C944F0310910302141335C080910C
:102F60000102909102020E94D21A883C910560F5FC
:102F7000C0E2CD0F1D17B9F080E2810F883040F418
:102F8000177081E001C0880F1A95EAF70E94560376
:102F9000C83048F481E09D2F977001C0880F9A9542
:102FA000EAF70E944F03802F0E944703C830B8F40D
:102FB000D77081E001C0880FDA95EAF7DF91CF91F1
:102FC0001F910F910C94560380E28C0F883038F4D7
:102FD000C77081E001C0880FCA95EAF7EFCFDF9193
:102FE000CF911F910F9108950F939C01CB01243F26
:102FF0004CE5340759F1A8F4293DFCE53F0701F100
:103000002A3D4CE53407D1F1283D3C4591F406E2D8
:1030100021EE41EE68ED7CE50E94881780E00F917B
:103020000895263FFCE53F07E9F0B0F0273F3C4517
:10303000F9F0FC018281882339F110920302EFCF6D
:1030400007E225EE45EE69ED7CE5E6CF06E221EEEE
:1030500040EE64EF7CE5E0CF07E225EE44EE65EF5D
:103060007CE5DACF06E221EE42EE66EF7CE5D4CFD6
:1030700007E225EE46EE67EF7CE5CECF08E221E0E1
:1030800045EE6AED7CE5C8CF81E0C9CFCF93DF93F1
:10309000EC01FB018281882309F419C1C230FCE5EF
:1030A000DF07C0F1C6319CE5D90730F09E012B5FE8
:1030B0003C452930310570F50E94440C90931A026A
:1030C00080931902C031ECE5DE0709F4CFC008F0A7
:1030D0005BC0C8308CE5D80709F4B6C088F5C430A9
:1030E000ECE5DE0709F4A8C0C0F4C2308CE5D807CF
:1030F00009F49CC0809119028260C330DC4509F458
:1031000098C08091190290911A020E94520C0E945C
:10311000C80580E0DF91CF91089580911902806108
:10312000C630ECE5DE0709F484C08091190288609E
:10313000C730DC4508F47DC080911902806279C0F7
:10314000CC308CE5D80709F489C070F4809119025D
:103150008C60CA30ECE5DE0709F46BC008F478C077
:10316000809119028E7F65C0CE308CE5D80709F4B6
:1031700079C0809119028B7FCF30DC4508F459C0AB
:10318000809119028F7E55C0CC3FECE5DE0709F433
:1031900057C030F5C3318CE5D80709F46FC078F417
:1031A000C131ECE5DE0709F465C0C231DC4509F048
:1031B000A8CF0E94C805809119028F773AC0C53107
:1031C0008CE5D80709F462C008F476C080911A0231
:1031D0008160CB3FDC4509F094CF80931A0291CFF8
:1031E000C115FDE5DF0709F44DC088F480911A028E
:1031F0008D7FCE3F9CE5D90781F380911A028E7FA7
:10320000CF3FDC4550F380911A028360E6CFC23095
:10321000FDE5DF0709F459C008F444C080E0C3307D
:10322000DD4509F06ECF0E94D80C6BCF809119025A
:1032300081608093190265CF809119028460F9CF73
:1032400080911A028260C9CF809119028064F1CF07
:103250000E94C805809119028068EBCF8091190205
:103260008D7FE7CF80911902877FE3CF809119028C
:103270008F7DDFCF809119028F7BDBCF8091190288
:10328000837FD7CF80911A028C7FA7CF80911902BC
:1032900082FB992790F921E0922790FB82F990FB1D
:1032A00083F9C7CF80911A02982F909591708E7FE5
:1032B000892B90FB81F991CF0E94C805909119024A
:1032C000892F97FB87F98058B4CF81E0ACCF81E09C
:1032D00021CFCF93DF93EB0186319C4511F50E94FE
:1032E0006E0B9A81992399F08A7A91E009F490E023
:1032F00090930402811109C089E20E94280B0E9468
:10330000BE0B80E0DF91CF91089585E3F6CF8091E9
:103310000402811104C089E20E942F0BF0CF85E3E3
:10332000FBCF81E0EFCF90930A02809309020895CA
:10333000E0910902F0910A02309721F00190F081AA
:10334000E02D099480E00895E0910902F0910A02CD
:10335000309721F00280F381E02D09940895E091E7
:103360000902F0910A02309739F022E0DC012C9337
:103370000480F581E02D0994089520910702309191
:1033800008022817390771F090930802809307020A
:10339000E0910902F0910A02309721F00680F7814E
:1033A000E02D099408952091050230910602281716
:1033B000390771F09093060280930502E0910902AB
:1033C000F0910A02309721F00084F185E02D0994F4
:1033D00008959C012E5F3F4FAC01485F5F4F80E036
:1033E0002417350709F40895F90191919F01992354
:1033F000B9F38F5FF5CF662349F0FC01329608964A
:103400002191261729F0E817F907D1F780E00895F0
:1034100081E008959C01FC0132969FEF80E041918C
:10342000461751F09F3F19F4411101C0982F8F5F4B
:103430008630A9F79F3F09F40895290F311D97FDA4
:103440003A95F90162830895FC013296089621911C
:10345000261303C0DF0111971C92E817F907B9F78B
:1034600008950C940A1A0C94241A029626E0FC0182
:1034700011922A95E9F708950895089508950C94F6
:103480003E1A80913002843049F10E943F1A80E058
:103490000E94680210920B0288E190E020E40FB6CF
:1034A000F894A895809360000FBE2093600083B7C6
:1034B000817F846083BF83B7816083BF7894889560
:1034C00083B78E7F83BF0FB6F894A8958091600074
:1034D000886180936000109260000FBE0895089587
:1034E0000E943D1A0E9427100E946F1A80E00E94DD
:1034F000D90F91E0811101C090E0892F08950895BE
:103500000C947F1A0E94C8050E9498190E946802B4
:103510000C94801A1F921FB61F9211248F939F93B1
:10352000AF93BF9380910B02811113C08091280249
:1035300090912902A0912A02B0912B024196A11DDF
:10354000B11D8093280290932902A0932A02B09380
:103550002B02BF91AF919F918F911F901FBE1F9023
:10356000189582E084BD93E095BD9AEF97BD809356
:103570006E0008952FB7F894809128029091290247
:10358000A0912A02B0912B022FBF08952FB7F89473
:10359000609128027091290280912A0290912B0259
:1035A0002FBF08959C014FB7F89480912802909105
:1035B0002902A0912A02B0912B024FBF821B930BCC
:1035C000089578941F921FB61F9211248F939F9392
:1035D000AF93BF938091280290912902A0912A0273
:1035E000B0912B020196A11DB11D809328029093EA
:1035F0002902A0932A02B0932B02BF91AF919F9111
:103600008F911F901FBE1F90189581E08093E0005E
:1036100080E28093D8001092C9008FE19EE4019768
:10362000F1F700C0000087E090EBDC0180933902E5
:1036300090933A02A0933B02B0933C0288E19CE055
:103640000FB6F894A895809360000FBE9093600029
:10365000FFCF90938901809388010895809117028C
:10366000089590913002943031F580930C0270935C
:103670000E0260930D0282E08093E9008FEF90913B
:10368000E800815095FD06C095ED9A95F1F7000090
:103690008111F5CF8091E80085FF0DC050E040E03A
:1036A00063E070E08CE092E00E942A1D8091E800C7
:1036B0008E778093E8000895BC0184E00C94311B60
:1036C000BC0183E00C94311B9C0182E08093E900F3
:1036D0009FEF8091E800915085FD06C085ED8A95A9
:1036E000F1F700009111F5CF8091E80085FF0CC043
:1036F00050E040E066E070E0C9010E942A1D809120
:10370000E8008E778093E8000895CF93DF93EC0173
:1037100081E08093E9008FEF9091E800815095FD62
:1037200006C095ED9A95F1F700008111F5CF8091D3
:10373000E80085FF14C050E040E068E070E0CE0192
:103740000E942A1D8091E8008E778093E80088E02F
:10375000FE01AFE0B2E001900D928A95E1F7DF91B2
:10376000CF91089508950895089542E061EC81E0B5
:103770000E94321E42E261EC82E00C94321E809183
:103780003202833009F45DC030F48130B1F182300F
:1037900009F499C008958A3009F485C08B3009F482
:1037A0006BC0893009F04CC080913102813209F040
:1037B00047C08091350290913602029708F040C0D0
:1037C0008091E800877F8093E8008091E80082FF85
:1037D00033C08091F200823029F48091F1008B7F18
:1037E000813021F48091F100809317028091E800EC
:1037F0008B778093E8000C94661E80913102813AA9
:10380000F9F48091E800877F8093E8008091350289
:1038100090913602892B61F468E08FE092E070E0CD
:103820000E94791D8091E8008B778093E8000895CD
:1038300060E090E080E0F3CF809130028111C5CF4D
:10384000089580913102813AD9F7809135029091A3
:103850003602892BA9F78091E800877F8093E800E2
:103860008091E80080FFFCCF80911A018093F100E5
:103870008091E8008E77BDCF80913102813201F7CF
:103880008091350290913602892BD1F68091E80023
:10389000877F8093E8000E94661E809133028093A8
:1038A0001A010C94C80580913102813249F6809149
:1038B000E800877F8093E8000E94661E80913402B2
:1038C00080931802089580913102813A09F0B8CFAF
:1038D0008091E800877F8093E8008091E80080FF76
:1038E000FCCF80911802C2CF84B7877F84BF0FB608
:1038F000F894A89580916000886180936000109290
:1039000060000FBE80E890E00FB6F89480936100ED
:10391000909361000FBE0C94F70C0E94B61E0E949B
:10392000091FE2EEF0E080818460808378940E9439
:1039300061210E94090D80E191E00C94931980911E
:103940003002853031F480913002853021F00E94C0
:10395000821A0C94110D0E94411A80912E02882324
:1039600091F30E94701A882371F30E94141D0E9423
:10397000C805E9CF0C94BC1C292F3327233031050F
:1039800019F168F42130310509F444C022303105C1
:1039900009F445C090E080E030E020E025C021320D
:1039A000310549F122323105A9F780E490E02AE699
:1039B00032E061157105C1F08BE790E02FEE31E048
:1039C0006130710589F0E6CF99278130910581F04A
:1039D000009729F00297F1F6ECE7F1E002C0EEE97A
:1039E000F1E0849190E09F01FA01318320830895F2
:1039F000E6E8F1E0F6CF89E090E024EB31E06115F4
:103A0000710591F389E090E02DEC31E061307105B2
:103A100059F3C0CF82E190E02DED31E0E5CF8BE3AB
:103A200090E022EA31E0E0CF84E089BD86E089BD04
:103A300009B400FEFDCF8091D8008F7D8093D8001F
:103A40008091E00082608093E0008091E00081FD41
:103A5000FCCF0895AF92BF92CF92DF92FF920F9367
:103A60001F93CF93DF936C01EB018A010E94851EA7
:103A7000F82E811123C00115110539F0F80180815C
:103A80009181C81BD90BC80ED91EB12CA12C20972F
:103A9000A9F08091E80085FD22C08091E8008E7732
:103AA0008093E80001151105A1F0F8018081918152
:103AB000A80EB91EB182A08285E0F82E8F2DDF916D
:103AC000CF911F910F91FF90DF90CF90BF90AF905B
:103AD00008950E94851E8823D1F2F82EEFCFF601BB
:103AE00081916F018093F1002197FFEFAF1ABF0A18
:103AF000CECFFC018091370290913802861797074C
:103B0000A0F06115710529F49091E8009E779093DB
:103B1000E80090E06115710551F4911108C08091A1
:103B2000E80082FF32C080E00895BC01F2CF8091AE
:103B300030028823B1F18530B1F18091E80083FD36
:103B40002EC08091E80082FDEACF8091E80080FFDE
:103B5000E1CF2091F20030E06115710519F02830B5
:103B6000310558F091E02830310509F090E02091BE
:103B7000E8002E772093E800CDCF81918093F1006B
:103B8000615071092F5F3F4FE7CF8091300288234A
:103B900041F0853041F08091E80083FFC0CF81E0A3
:103BA000089582E0089583E00895FC018091370232
:103BB0009091380286179707A0F06115710529F4D6
:103BC0008091E8008E778093E80090E061157105A0
:103BD00051F4911108C08091E80082FF33C080E069
:103BE0000895BC01F2CF809130028823B9F185306D
:103BF000B9F18091E80083FD2FC08091E80082FD3B
:103C0000EACF8091E80080FFE1CF2091F20030E020
:103C10006115710519F02830310558F091E0283010
:103C2000310509F090E08091E8008E778093E800FC
:103C3000CDCF84918093F1003196615071092F5F4F
:103C40003F4FE6CF80913002882341F0853041F02C
:103C50008091E80083FFBFCF81E0089582E008955E
:103C600083E00895982F953028F08F708093E900B5
:103C700081E008959093E900242F762F50E0981763
:103C800031F07091EC002091ED005091F00021FD99
:103C900002C09F5FE8CF3091EB003E7F3093EB0096
:103CA0003091ED003D7F3093ED003091EB003160BD
:103CB0003093EB007093EC002093ED005093F000F4
:103CC0002091EE0027FDE5CF80E00895809131023C
:103CD00087FF13C08091E80082FF06C08091E80052
:103CE0008B778093E80004C0809130028111F2CF7D
:103CF0000895809130028823D9F38091E80080FFF5
:103D0000F8CF8091E8008E77ECCF2091E4003091DD
:103D1000E50095E6A9012091EC00822F817020FF3B
:103D200006C08091E80080FF06C080E008952091E1
:103D3000E80022FD1AC080913002882389F0853086
:103D400089F08091EB0085FD0FC02091E400309157
:103D5000E50042175307F9F29150E1F684E0089527
:103D600082E0089583E0089581E008950E94131F82
:103D70000E94161FE0EEF0E0808181608083E8ED14
:103D8000F0E080818F77808319BCE3E6F0E08081EA
:103D90008160808310922F0208950E94131F0E9459
:103DA000161F8091D8008F778093D8008091D8001B
:103DB00080688093D8008091D8008F7D8093D80050
:103DC00084E089BD86E089BD09B400FEFDCF109274
:103DD000300210922C0210922E0210922D0242E01C
:103DE00060E080E00E94321E8091E1008E7F80932F
:103DF000E1008091E20081608093E2008091E20026
:103E000088608093E2008091E0008E7F8093E000E4
:103E10000895E3E6F0E080818E7F808381E08093E7
:103E20002F020C94CD1E1092E20008951092E10032
:103E300008951F920F920FB60F9211242F933F9364
:103E40004F935F936F937F938F939F93AF93BF93A2
:103E5000EF93FF938091E10082FF0BC08091E2001D
:103E600082FF07C08091E1008B7F8093E1000E9478
:103E700060218091E10080FF19C08091E20080FF05
:103E800015C08091E2008E7F8093E2008091E20075
:103E900080618093E2008091D80080628093D80096
:103EA00019BC85E0809330020E94B31B8091E10031
:103EB00084FF2BC08091E20084FF27C084E089BD8D
:103EC00086E089BD89B5982F917080FFFBCF8091E6
:103ED000D8008F7D8093D8008091E1008F7E809301
:103EE000E1008091E2008F7E8093E2008091E20009
:103EF00081608093E20080912C02882309F443C002
:103F000084E0809330020E94B41B8091E10083FF23
:103F100029C08091E20083FF25C08091E100877F66
:103F20008093E10082E08093300210922C02809115
:103F3000E1008E7F8093E1008091E2008E7F80938C
:103F4000E2008091E20080618093E20042E060E064
:103F500080E00E94321E8091F00088608093F00023
:103F60000E94B21BFF91EF91BF91AF919F918F91F2
:103F70007F916F915F914F913F912F910F900FBE65
:103F80000F901F9018958091E30087FD93E0909328
:103F90003002B9CF1F920F920FB60F9211242F93B8
:103FA0003F934F935F936F937F938F939F93AF93C1
:103FB000BF93CF93DF93EF93FF93D091E900DF702E
:103FC0008091EC00C82FC17080FDC0E81092E9001C
:103FD0008091F000877F8093F00078940E940E20FB
:103FE0001092E9008091F00088608093F000CD2B62
:103FF000CF70C093E900FF91EF91DF91CF91BF9116
:10400000AF919F918F917F916F915F914F913F9170
:104010002F910F900FBE0F901F9018951F93CF9365
:10402000DF93CDB7DEB7AA970FB6F894DEBF0FBE09
:10403000CDBF81E392E02091F100FC012193CF01FB
:10404000F2E089339F07B9F70E94BF1B8091E80017
:1040500083FF1EC180913102909132029A3008F0A4
:1040600017C1E92FF0E0E75CFD4D0C94BE218038CC
:1040700099F0823809F00CC1809135028F7085303B
:1040800008F006C18093E9008091EB0085FB88274A
:1040900080F91092E90006C080912D0290912E02C5
:1040A000911182609091E800977F9093E80080934F
:1040B000F1001092F1008091E8008E77E5C088232E
:1040C00009F4D3C0823009F0E3C08091330281113A
:1040D000D6C0809135028F702FEF280F243008F062
:1040E000D7C08093E9002091EB0020FFC8C0933037
:1040F00031F48091EB0080628093EB00C0C090911E
:10410000EB0090619093EB0021E030E001C0220FC2
:104110008A95EAF72093EA001092EA008091EB007A
:104120008860EACF8111B4C0109133021F7780916B
:10413000E3008078812B8093E3008091E800877F03
:104140008093E8000E94661E8091E80080FFFCCF0B
:104150008091E30080688093E30082E0111183E0A6
:104160008093300295C08058823008F091C08091D1
:104170003302909134028C3D23E09207A1F583E055
:104180008A838AE289834FB7F894DE01139620E090
:104190003EE051E2E32FF0E050935700E49120FF1E
:1041A00003C0E295EF703F5FEF708E2F90E0EA3032
:1041B000C0F0C7968D939D932F5F243159F74FBF61
:1041C0008091E800877F8093E8006AE270E0CE018A
:1041D00001960E94791D8091E8008B778093E8001A
:1041E00057C0C096E7CF6091350270913602AE019C
:1041F0004F5F5F4F0E94BA1CBC01892B09F448C075
:104200009091E800977F9093E80089819A810E94BD
:10421000D51DE1CF8038E1F58091E800877F80935C
:10422000E80080912C028093F10045CF811130C0CD
:1042300090913302923060F58091E800877F8093FF
:10424000E80090932C020E94661E80912C02882325
:1042500011F084E005C08091E30087FDFACF81E092
:10426000809330020E94B51B13C0809133028130CD
:1042700079F481E0933009F080E080932E0210926F
:10428000E9008091E800877F8093E8000E94661E25
:104290008091E80083FF0AC08091E800877F8093C7
:1042A000E8008091EB0080628093EB00AA960FB645
:1042B000F894DEBF0FBECDBFDF91CF911F9108955F
:1042C0000895CF93809130028823A1F0C091E90036
:1042D000CF709091EC00892F817090FD80E8C82B01
:1042E0001092E9008091E80083FD0E940E20CF70BB
:1042F000C093E900CF910895002480FD060E660F5B
:1043000011F08695D1F7802D08950024552704C01B
:10431000080E591F880F991F009729F07695679509
:10432000B8F37105B9F7802D952F0895AA1BBB1B13
:1043300051E107C0AA1FBB1FA617B70710F0A61BA5
:10434000B70B881F991F5A95A9F780959095BC01C6
:10435000CD01089597FB072E16F4009407D077FD42
:1043600009D00E94962107FC05D03EF490958195D6
:104370009F4F0895709561957F4F0895EE0FFF1F31
:104380000590F491E02D0994FC014150504030F02B
:1043900001900616D1F73197CF0108958827992704
:1043A0000895F999FECF92BD81BDF89A992780B5FD
:1043B0000895A6E1B0E044E050E00C940B22A8E19F
:1043C000B0E042E050E00C940B22262FF999FECF8A
:1043D00092BD81BDF89A019700B4021639F01FBA58
:1043E00020BD0FB6F894FA9AF99A0FBE0895039675
:1043F000272F0E94E6210E94E521252F0E94E62119
:10440000242F0C94E6210196272F0E94E6210C947C
:10441000E521DC01CB01FC01F999FECF06C0F2BD1C
:10442000E1BDF89A319600B40D9241505040B8F772
:104430000895F894FFCF91039103E903E9033B0446
:104440005704BE03BE036204EE04FD04FD045905D7
:10445000BE03BE036205D705D705E005E005E2050A
:10446000E005E005E005D705D705E705E005E0052F
:10447000E70537205F2048215F2048219220B320A4
:0644800048210A2116216B
:10448600D2012808641E140A321E0002000202012C
:104496002E1B851B641B601B5C1B01E200E900EA06
:1044A60000B500B600B700CD008301CC008A0192AA
:1044B6000194012102230224022502260227022A50
:1044C60002B300B4006F007000818283E200E9004D
:1044D600EA00B500B600B700CD008301CC008A0122
:1044E60092019401210223022402250226022702B8
:1044F6002A02B300B4006F007000818283000102BB
:0845060002020505050505058B
:00000001FF
