:100000000C9431020C9469020C9469020C946902FC
:100010000C9469020C9469020C9469020C946902B4
:100020000C9469020C9469020C9469020C94B0253A
:100030000C9461260C94DC200C9469020C946902E7
:100040000C9469020C9469020C9469020C9462216C
:100050000C9469020C9469020C9469020C94690274
:100060000C9469020C9469020C9469020C94690264
:100070000C9469022D002E00A75D00000000000016
:1000800000002A2B280000000000000000000000F3
:10009000000000000029000000002C1E3420212256
:1000A00024342627252E362D3738271E1F202122BF
:1000B000232425263333362E37381F040506070838
:1000C000090A0B0C0D0E0F10111213141516171828
:1000D000191A1B1C1D2F3130232D35040506070866
:1000E000090A0B0C0D0E0F10111213141516171808
:1000F000191A1B1C1D2F3130354C00000000000068
:1001000000000000000000000000000000000000EF
:1001100000000000000000000000000000007E0F52
:1001200000D4FFFFFFC700000078643214783C1E43
:100130001E140A052223252628292A2C2D2F303289
:10014000333536383A3B3D3E4042434547494A4CB9
:100150004E5051535557595A5C5E606264666869E7
:100160006B6D6F71737577797B7D7F8183858789EF
:100170008A8C8E90929496989A9C9E9FA1A3A5A7F4
:10018000A8AAACAEAFB1B3B4B6B8B9BBBCBEBFC120
:10019000C2C3C5C6C7C9CACBCCCDCED0D1D2D2D3AB
:1001A000D4D5D6D7D7D8D9D9DADADBDBDBDCDCDCBF
:1001B000DCDCDDDDDDDDDCDCDCDCDCDBDBDBDADA82
:1001C000D9D9D8D7D7D6D5D4D3D2D2D1D0CECDCCF9
:1001D000CBCAC9C7C6C5C3C2C1BFBEBCBBB9B8B60E
:1001E000B4B3B1AFAEACAAA8A7A5A3A19F9E9C9A99
:1001F00098969492908E8C8A89878583817F7D7B67
:1002000079777573716F6D6B6968666462605E5C47
:100210005A5957555351504E4C4A4947454342400D
:100220003E3D3B3A3836353332302F2D2C2A2928A3
:100230002625232200010101010101010101020221
:100240000202020202020203030303030303030484
:10025000040404040404050505050506060606064F
:10026000070707070708080808090909090A0A0A09
:100270000B0B0B0C0C0C0D0D0D0E0E0E0F0F0F10AB
:100280001011111112121313141415151616171735
:10029000181819191A1A1B1B1C1D1D1E1E1F2020A1
:1002A000212222232424252626272829292A2B2CEB
:1002B0002D2D2E2F30313232333435363738393A0E
:1002C0003B3C3D3E3F404142434445464748494A06
:1002D0004C4D4E4F50515354555658595A5B5D5ED4
:1002E0005F616264656668696B6C6D6F707273756F
:1002F00077787A7B7D7E8082838587888A8C8E8FD3
:1003000091939596989A9C9EA0A2A3A5A7A9ABAD00
:10031000AFB1B3B5B7BABCBEC0C2C4C6C9CBCDCFEE
:10032000D1D4D6D8DBDDDFE2E4E7E9EBEEF0F3F59C
:10033000F8FAFDFF080344003100500000001603E6
:1003400050004C0049005000200057006F00720020
:100350006B00730000000403090409023B00020162
:1003600000A032090400000103010100092111016C
:100370000001224000070581030800010904010073
:100380000103000000092111010001227B00070583
:1003900082032000011201000200000008575001F2
:1003A0000000000102000105010902A10185020906
:1003B00001A10005091901290815002501950875F5
:1003C0000181020501093009311581257F950275EA
:1003D00008810609381581257F9501750881060574
:1003E0000C0A38021581257F950175088106C0C069
:1003F00005010980A101850319012AB7001501260D
:10040000B700950175108100C0050C0901A1018597
:100410000419012AA002150126A002950175108178
:1004200000C005010906A101050719E029E715002B
:10043000250195087501810295017508810105075F
:10044000190029FF150026FF009506750881000593
:10045000081901290595057501910295017503910A
:1004600001C011241FBECFEFD4E0DEBFCDBF04B664
:1004700003FE18C08091610390916203A091630311
:10048000B09164038730904BA740B04B59F4109261
:100490006103109262031092630310926403E0E020
:1004A000F8E3099512E0A0E0B1E0E0EEF1E502C06A
:1004B00005900D92A239B107D9F723E0A2E9B2E085
:1004C00001C01D92A136B207E1F70E94B5160C9447
:1004D000D8280C940000873A9D4591F4FB01828155
:1004E000882381F081E08093A9020E943B219093B0
:1004F000A8028093A70280919C028F5F80939C0248
:1005000081E008951092A90281E08093A602809173
:1005100099028823A9F06BE371E08DE992E00E94D3
:10052000892810929C021092990280910901909161
:100530000A01009781F0019739F46AE371E00DC078
:1005400080919C02893088F38FEF9FEF90930A018E
:1005500080930901D5CF64E971E08DE992E00E94B2
:100560007528F2CFCF93DF93EC0167E571E00E942D
:100570008028892B29F484E0DF91CF910C94F20933
:1005800060E771E0CE010E948028892B11F485E09C
:10059000F3CF6DE072E0CE010E948028892B11F428
:1005A00086E0EACF62E371E0CE010E948028892BC9
:1005B00011F487E0E1CF64E971E0CE010E94802868
:1005C000892B11F488E0D8CF6AE871E0CE010E944F
:1005D0008028892B11F489E0CFCF62E971E0CE0148
:1005E0000E948028892B11F48AE0C6CF6FE971E060
:1005F000CE010E948028892B11F48BE0BDCF63E3EC
:1006000071E0CE010E948028892B11F48CE0B4CFD8
:1006100069E471E0CE010E948028892B11F48DE0FD
:10062000ABCF66E571E0CE010E948028892B11F4E2
:100630008EE0A2CF61EC71E0CE010E948028892B70
:1006400011F48FE099CF69E371E0CE010E94802818
:10065000892B11F480E190CF63E971E0CE010E9413
:100660008028892B11F481E187CF68E371E0CE0106
:100670000E948028892B11F482E17ECF63E471E02F
:10068000CE010E948028892B11F483E175CF65E5A6
:1006900071E0CE010E948028892B11F484E16CCF97
:1006A0006EE072E0CE010E948028892B11F485E172
:1006B00063CF61E771E0CE010E948028892B11F49D
:1006C00086E15ACF6AE371E0CE010E948028892B2F
:1006D00011F487E151CF67E072E0CE010E948028DB
:1006E000892B11F488E148CF6DE371E0CE010E94BF
:1006F0008028892B11F489E13FCF60E571E0CE01BC
:100700000E948028892B11F48AE136CF66E072E0DE
:10071000CE010E948028892B11F48BE12DCF6FE44C
:1007200071E0CE010E948028892B11F48CE124CF46
:1007300061E371E0CE010E948028892B11F48DE1E4
:100740001BCF6EEF71E0CE010E948028892B11F43F
:100750008EE112CF6AE271E0CE010E948028892BDF
:1007600011F48FE109CF6AE172E0CE010E94802886
:10077000892B11F480E200CF62ED71E0CE010E947E
:100780008028892B11F481E2F7CE67E971E0CE0170
:100790000E948028892B11F482E2EECE6EE971E08E
:1007A000CE010E948028892B11F483E2E5CE6FE60A
:1007B00071E0CE010E948028892B11F484E2DCCE06
:1007C00060E371E0CE010E948028892B11F485E25C
:1007D000D3CE60E971E0CE010E948028892B11F40C
:1007E00086E2CACE66E371E0CE010E948028892BA2
:1007F00011F487E2C1CE6CE371E0CE010E94802843
:10080000892B11F48EE2B8CE62E471E0CE010E9431
:100810008028892B59F481EE0E945E098EE20E94A5
:10082000F20981EEDF91CF910C94AC0968E471E09C
:10083000CE010E948028892B11F48DE29DCE60EFBD
:1008400071E0CE010E948028892B29F481EE0E945C
:100850005E0985E2E4CF62EE71E0CE010E9480285D
:10086000892B11F488E388CE6EE471E0CE010E94FA
:100870008028892B11F481E37FCE64E571E0CE01FD
:100880000E948028892B29F481EE0E945E0981E371
:10089000C6CF6CE771E0CE010E948028892B29F435
:1008A00081EE0E945E0986E2BACF6AE571E0CE0170
:1008B0000E948028892B29F481EE0E945E0987E23C
:1008C000AECF6CE072E0CE010E948028892B29F423
:1008D00081EE0E945E098FE2A2CF65E072E0CE0158
:1008E0000E948028892B29F481EE0E945E0980E312
:1008F00096CF69E871E0CE010E948028892B11F41F
:100900008FE23ACE68E671E0CE010E948028892B02
:1009100011F480E331CE60E671E0CE010E948028C0
:10092000892B11F487E328CE67E671E0CE010E949F
:100930008028892B11F486E31FCE6EE671E0CE018C
:100940000E948028892B29F481EE0E945E0983E3AE
:1009500066CF65E771E0CE010E948028892B11F4F3
:1009600083E30ACE6BE771E0CE010E948028892BD9
:1009700029F481EE0E945E0988E351CF62E871E0BC
:10098000CE010E948028892B29F481EE0E945E0905
:100990008EE145CF68E871E0CE010E948028892B66
:1009A00029F481EE0E945E0984E339CF6FE871E09B
:1009B000CE010E948028892B11F484E3DDCD6CEAFE
:1009C00071E0CE010E948028892B11F482E5D4CDFC
:1009D00065EA71E0CE010E948028892B11F480E540
:1009E000CBCD69EE71E0CE010E948028892B11F4F5
:1009F00081E5C2CD63E172E0CE010E948028892B9F
:100A000011F48FE4B9CD66E971E0CE010E9480282F
:100A1000892B41F480EE0E945E0986E00E94F20973
:100A200080EE00CF6DE971E0CE010E948028892B15
:100A300029F480EE0E945E098BE1F0CF64EA71E058
:100A4000CE010E948028892B29F480EE0E945E0945
:100A500089E1E4CF6BEA71E0CE010E948028892B06
:100A600029F480EE0E945E098DE1D8CF62EB71E03F
:100A7000CE010E948028892B29F480EE0E945E0915
:100A80008CE1CCCF61ED71E0CE010E948028892BF2
:100A900029F480EE0E945E0986E1C0CF62E671E033
:100AA000CE010E948028892B11F489E265CD61E98D
:100AB00071E0CE010E948028892B11F48CE25CCD7C
:100AC00067E371E0CE010E948028892B11F48AE24D
:100AD00053CD67EF71E0CE010E948028892B11F47D
:100AE00088E24ACD69EB71E0CE010E948028892B13
:100AF00011F48CE441CD69E671E0CE010E948028BA
:100B0000892BA1F480919602882361F085EE0E94E2
:100B1000AC098091960291E0892780939602DF913B
:100B2000CF91089585EE0E945E09F3CF60EC71E0ED
:100B3000CE010E948028892B91F480919502882310
:100B400051F084EE0E94AC098091950291E08927D2
:100B500080939502E4CF84EE0E945E09F5CF61E6B2
:100B600071E0CE010E948028892B91F4809194023B
:100B7000882351F086EE0E94AC098091940291E0A6
:100B8000892780939402CBCF86EE0E945E09F5CF31
:100B900066EC71E0CE010E948028892BA9F48AEFCF
:100BA00090E0909308018093070190930601809351
:100BB000050128EE33E03093040120930301909364
:100BC000020180930101ABCF6FEC71E0CE010E9476
:100BD0008028892B99F486E990E09093080180930E
:100BE00007018AEF90E090930601809305019093AE
:100BF0000401809303018DE790E0E1CF68ED71E09F
:100C0000CE010E948028892B39F48091000191E067
:100C100089278093000183CF61EE71E0CE010E94AD
:100C20008028892B21F4DF91CF910C94521C68EE1F
:100C300071E0CE010E948028892BD9F40E94211AEC
:100C4000813029F483E0DF91CF910C94471C0E94FE
:100C5000211A833011F485E0F6CF0E94211A8530E5
:100C600011F488E0F0CF0E94211A8830C9F48EE098
:100C7000EACF6FEE71E0CE010E948028892B91F4BB
:100C80000E94211A813099F30E94211A8E3049F373
:100C90000E94211A8830F9F20E94211A853091F2BF
:100CA00081E0D1CF66EF71E0CE010E948028892BD0
:100CB00021F4DF91CF910C94721B6DEF71E0CE01A6
:100CC0000E948028892B21F4DF91CF910C94811B05
:100CD00064E072E0CE010E948028892B21F4DF912C
:100CE000CF910C94381B6BE072E0CE010E948028FB
:100CF000892B21F4DF91CF910C94451B62E172E0C6
:100D0000CE010E948028892B21F4DF91CF910C9491
:100D1000541B69E172E0CE010E948028892B21F4E6
:100D2000DF91CF910C94631B80E026CCCF93DF93AF
:100D30008091A902882309F493C08091A702909121
:100D4000A8020E9453214091090150910A0120916B
:100D50000701309108018217930708F041C01092F3
:100D60000A01109209018091090190910A018417EA
:100D7000950791F08130910509F445C082309105C5
:100D800009F44BC0892B41F480910001882321F0A4
:100D900086E790E00E94F6080E943B2190939B0218
:100DA00080939A02809199028823B9F080919702EA
:100DB000909198020E9453212091010130910201EB
:100DC0002817390750F48DE992E00E94B2020E9480
:100DD0003B219093980280939702DF91CF910895E1
:100DE0006091050170910601260F371F8217930746
:100DF00038F481E090E090930A0180930901B3CF29
:100E000082E090E0F8CF80910001882329F28AE205
:100E10000E94F20984E790E0BDCF8091000181112A
:100E20000AC081E0809399020E943B21909398022E
:100E300080939702B1CF8AE20E94F20980919C02CE
:100E4000815080939C02D0E0C0E080919C028C177E
:100E50001D0639F334F38AE20E94F2092196F5CF98
:100E60008091A602882309F4B8CF80919A029091CC
:100E70009B020E9453212091030130910401281705
:100E8000390708F0AACF8091000181111EC080911E
:100E90009C02893020F48DE992E00E94B2026BE35B
:100EA00071E08DE992E00E94892810929C021092D4
:100EB000A60293CF8AE20E94F209219680919C02B9
:100EC0008C171D0609F0B4F7E2CFD0E0C0E0F6CFF2
:100ED00081E008950C946B0208950C946C071F93A5
:100EE000CF93DF9300D000D00F92CDB7DEB7498308
:100EF0005A836B833091AB0289819A8131111DC075
:100F00006623B9F02223A9F00E94310E182F682F12
:100F100089819A810E94D80D69817A81812F0F90F1
:100F20000F900F900F900F90DF91CF911F910C9425
:100F3000CF140E940A0E182FEFCF0E94310E698144
:100F40007A81EDCFFC01262F40815181628173812E
:100F500084810C946F0781E00895CF93DF93EC01B7
:100F600060E00E94A207BE01DF91CF910C946D0753
:100F70000C94FA150C94FC1508950E94850C0E949F
:100F8000BC072FEF84E39CE0215080409040E1F7C4
:100F900000C000000C9486210F931F93CF93DF9322
:100FA0008C0161E00E94A207EC01B8010E946A076F
:100FB0008823D9F1B801CE010E94AA1F8823A9F184
:100FC000B801CE010E94D71D882379F1B801CE0166
:100FD0000E94141F882349F1B801CE010E940D1D03
:100FE000882319F1F8018281882361F0CB35FDE572
:100FF000DF0721F170F4C115ECE5DE07A1F0CF3D6C
:10100000DC45C9F0C801DF91CF911F910F910C947D
:101010006807CC358DE5D807A1F0CD35DD4591F7D2
:101020000E947012EFCF0E94BD0780E0DF91CF9148
:101030001F910F9108950E942A13F7CF0E947912F1
:10104000E1CF0E947C12DECF0E94C6200C940909D9
:101050000E940C090C94CA20DF92EF92FF920F932A
:101060001F93CF93DF93E82FF0E0E658FF4FD49023
:10107000282F26952695269530E0F901E65EFE4F4D
:101080000491877010E0082E02C0159507950A9408
:10109000E2F701701127F901E65FFE4FE490F12CB1
:1010A000082E02C0F594E7940A94E2F791E0E92251
:1010B000FF24F901E650FF4FC491D0E002C0D5955E
:1010C000C7958A95E2F7C170DD270115110519F062
:1010D00081EE0E945E09E114F10419F086EE0E948F
:1010E0005E098D2D0E94F209EF2819F086EE0E940C
:1010F000AC09012B19F081EE0E94AC09CD2B51F007
:101100008CE2DF91CF911F910F91FF90EF90DF90D4
:101110000C94F209DF91CF911F910F91FF90EF9006
:10112000DF900895FF920F931F93CF93DF938C016D
:10113000F62EF8018491882309F452C0813009F019
:101140004BC0E8012196FE018491813091F42196F3
:10115000FE0184910E94F2098E010F5F1F4F8F2DB7
:10116000815038F3EFE9FFE03197F1F700C000005C
:10117000F7CF823039F4E8012296FE0184910E9473
:101180005E09EACF833039F4E8012296FE018491AA
:101190000E94AC09E1CF8430F9F6E8012296FE0105
:1011A000249190E080E0FE0131962053330B2A30E9
:1011B000310548F0019780F2EFE9FFE03197F1F750
:1011C00000C00000F7CF6AE070E00E941C28820F88
:1011D000931F2491EF01E7CF0E942C08E801BCCFB8
:1011E000DF91CF911F910F91FF90089560E00C94D3
:1011F000920808950C94F90881E008950C94FC0875
:101200000895CF93C82F0E94FA088C2FCF910C9489
:10121000FE0880E00C9401090E9406200C9401094C
:101220000E9406209091AA02981721F08093AA02AA
:101230000C9401090895CF93DF93CDB7DEB72B97B8
:101240000FB6F894DEBF0FBECDBF4F8358876987B6
:101250007A878B8761110E94BE111E821D8285E0F4
:10126000FE013796DE01119601900D928A95E1F705
:101270008C819D81892B89F449815A816B817C8184
:101280008D819E810E94DB102B960FB6F894DEBFF5
:101290000FBECDBFDF91CF91089589819A818923B7
:1012A0008F3F51F3CE0101960E94AB078111E4CF2D
:1012B000EBCFFC01808191810C94730ECF93C82FEA
:1012C000882309F447C08CEF8C0F813AA0F46C2F6F
:1012D00080910D0190910E010E946920882329F0D0
:1012E0008C2F0E9480110E94DE118C2F0E94791198
:1012F000CF910C94DE1180E28C0F883048F4C770D7
:1013000081E001C0880FCA95EAF70E94A111F0CFD1
:10131000EBE5EC0FE33040F4F0E0E25BFD4F808161
:1013200090E0CF910C942B20E8E5EC0FE73150F4DE
:10133000F0E0EE0FFF1FE05EFD4F80819181CF91C5
:101340000C944120CD3E30F08C2F0E944217CF915B
:101350000C941518CF910895882361F19CEF980F94
:10136000913A20F40E9480110C94DE1190E2980FC3
:10137000983050F4877091E001C0990F8A95EAF790
:10138000892F0E94A711F0CF9BE5980F933020F48E
:1013900090E080E00C942B2098E5980F973120F492
:1013A00090E080E00C9441208D3E20F00E949C173C
:1013B0000C94151808951F93CF93DF93182FEB010A
:1013C0000E945E09209731F4812FDF91CF911F9108
:1013D0000C94AC098FE99FE00197F1F700C0000081
:1013E0002197F0CF70E060E0893311F460E570E0A0
:1013F0000C94DB09882321F00E94A1110C94DE11CA
:101400000895882321F00E94A7110C94DE110895FD
:10141000BF92CF92DF92EF92FF920F931F93CF93E1
:10142000DF936C01D62FC72FFC011281F580F29457
:101430009FE0F9220E949711E82E8823B9F0E12E4F
:101440001123A1F08C2F807F803421F080E28D0F5A
:101450008830D0F08091420382FD16C082E00E9465
:101460003F120E94971191E0E82EE926BC2EB2941B
:101470008FE0B822FBE0FB1508F468C0EB2DF0E02C
:10148000E652F74D0C945528E12CF0CF0C2F0F703D
:10149000C07F11F00295007F112399F0002359F0CD
:1014A00080E28D0F883010F0D11107C0802F0E948C
:1014B000A1110E94DE118D2F41C0802F0E94B11119
:1014C000F8CF8D2F0E94AC09002309F43FC080E2C1
:1014D0008D0F883010F0D11104C0802F0E94A71109
:1014E00003C0802F0E94B7110E94DE112FC00C2F65
:1014F0000F70C07FC03211F00295007FDD2381F0B4
:10150000D13009F469C0112309F473C0FF2009F434
:1015100069C0F601858180FFCECF8F70858362C060
:101520008091420382FF38C0112359F0002329F033
:10153000802F0E94A1110E94DE1180E00E945E09AE
:1015400005C080E00E94AC090111C7CFEB2DE85027
:10155000FF0B349720F40E9406200E940109EE2020
:1015600009F472C10E94931180FD6EC1F6011282CE
:101570000E948D110E943C0DC6010E94450C0E94E4
:101580008D11DF91CF911F910F91FF90EF90DF9020
:10159000CF90BF900C945D0D112389F0F11006C01F
:1015A0000E94C111802B0E94FA09D0CF21E0F212D3
:1015B000F7CF0E94C111802B0E94C711C7CFF11035
:1015C00006C00E94D411802F0E94010ABFCF31E0D3
:1015D000F31609F4BBCFF5CF112331F085E08F1559
:1015E00008F4B4CF802FDFCF94E09F1508F4AECF7E
:1015F000EACFFF2041F3D93349F4FFEF27EE33E080
:10160000F15020403040E1F700C000008D2F0E94D3
:10161000AC099CCF8C2F86958695837069F08130BC
:1016200009F094CF8D2F9C2F9370111102C090E080
:1016300080E00E9441208ACF8D2F9C2F9370111142
:1016400002C090E080E00E942B2080CF8D2F1123DC
:1016500029F00E9442170E94151878CF0E949C170B
:10166000FACF8C2F837009F041C011116FCF4D2F2D
:10167000429546954770440F440F0D2F0F7010E0B0
:1016800030E020E0042E04C0000F111F221F331F82
:101690000A94D2F760E070E0CB01D4FF0FC06FE096
:1016A00070E080E090E004C0660F771F881F991FEC
:1016B0004A95D2F76095709580959095C695C69598
:1016C000C370602B712B822B932BC23049F058F4DE
:1016D000C13019F00E94EE0C39CF0E94DC0C36CFDD
:1016E0000E94000D33CF0E94DA0C30CF8695112373
:1016F00011F08C2F8170882309F428CF4D2F42954B
:1017000046954770440F440F0D2F0F7010E030E0E6
:1017100020E0042E04C0000F111F221F331F0A9463
:10172000D2F760E070E0CB01D4FF0FC06FE070E053
:1017300080E090E004C0660F771F881F991F4A95CC
:10174000D2F76095709580959095C695C695C370B3
:10175000602B712B822B932BC23049F058F4C1308F
:1017600019F00E94B30DF2CE0E94A10DEFCE0E949F
:10177000C50DECCE0E94160DE9CECF70112329F0D5
:101780008C2F0E943C0D8D2F0ECF8D2F0E94010AB1
:101790008C2F0E945D0DDACED23F51F160F4D03F24
:1017A000B9F0D13F81F0112309F449C0F11083CE83
:1017B0008C2F8F7121C0D33F11F1D43FA1F78091BD
:1017C000420382FF26C08C2F8F71112311F314C0A6
:1017D000112349F084E08F1508F4B8CE8C2F8F7157
:1017E0000E94800DB3CE95E09F1508F4AFCEF6CFE2
:1017F0008C2F8F711111CDCF0E943C0DA7CE1123DC
:1018000029F08C2F8F710E94270DA0CE0E94220DEF
:101810009DCE112349F0CF718C2F0E943C0D63E0C7
:101820008C2F0E94241292CE81E00E943F12E1E0B0
:10183000EF1508F08BCE82E00E943F1287CEF110A8
:10184000DACE8C2F8F71A5CFDF91CF911F910F91A1
:10185000FF90EF90DF90CF90BF9008950F931F936C
:10186000CF93DF93EC01688179818A810E947D0E9C
:101870008C010E94D70D0E94D90CB801CE01DF91D6
:10188000CF911F910F910C94080ACF93DF93EC0135
:101890008B819C81892B29F08881998189238F3FB5
:1018A00059F4DF91CF910895CE010E942E0CCE0104
:1018B000DF91CF910C94AD07CE010E94CC0781112E
:1018C000F3CF0E949711882361F38A81882349F31B
:1018D0008091420382FDE5CF82E0DF91CF910C94AD
:1018E0003F1290E080E00E942B2090E080E00E9478
:1018F00041200E94BE110E94DE110E9446190C94E4
:1019000015180E9487110C94710C0E94AE110C9452
:10191000810C92959F70963091F058F4925F9F7071
:10192000923058F4803F19F030F4883E30F481E072
:1019300008959A5FF4CF843FD1F380E00895883E04
:10194000B0F3813FD1F7F3CFFC01808191810E94F8
:10195000730E0C94890CCF93DF9300D000D00F92BC
:10196000CDB7DEB70F900F900F900F900F90DF91D3
:10197000CF910895CF93DF9300D000D000D0CDB7A2
:10198000DEB726960FB6F894DEBF0FBECDBFDF914F
:10199000CF91089508950C94CA0C0E94CB0C6093CB
:1019A000B5027093B6028093B7029093B8020C947C
:1019B000710C08950C94CD0C0F931F930091B502F8
:1019C0001091B6022091B7023091B802602B712BB2
:1019D000822B932B1F910F910C94CD0C0F931F937F
:1019E0000091B5021091B6022091B7023091B80271
:1019F00060237123822393231F910F910C94CD0CAC
:101A00000F931F930091B5021091B6022091B70277
:101A10003091B80260277127822793271F910F9179
:101A20000C94CD0C0C94CA0C0C94120D0E94140D45
:101A30006093B1027093B2028093B3029093B402A8
:101A40000C94710C60E070E0CB010C94160D0F93B8
:101A50001F9341E050E060E070E08A019B0104C008
:101A6000000F111F221F331F8A95D2F7C901B80139
:101A70001F910F910C94160D0F931F9341E050E0AE
:101A800060E070E004C0440F551F661F771F8A9501
:101A9000D2F78091B1029091B202A091B302B091BD
:101AA000B4028A019B01082B192B2A2B3B2BC9015D
:101AB000B8011F910F910C94160D0F931F9341E0E5
:101AC00050E060E070E004C0440F551F661F771FB0
:101AD0008A95D2F7CB01BA01609570958095909563
:101AE0000091B1021091B2022091B3023091B40280
:101AF00060237123822393231F910F910C94160D61
:101B00000F931F9341E050E060E070E004C0440F89
:101B1000551F661F771F8A95D2F78091B102909169
:101B2000B202A091B302B091B4028A019B010827CE
:101B300019272A273B27C901B8011F910F910C943F
:101B4000160D0F931F930091B1021091B2022091D4
:101B5000B3023091B402602B712B822B932B1F9117
:101B60000F910C94160D0F931F930091B1021091D9
:101B7000B2022091B3023091B40260237123822318
:101B800093231F910F910C94160D0F931F930091A7
:101B9000B1021091B2022091B3023091B4026027D9
:101BA0007127822793271F910F910C94160D08958A
:101BB000CF93DF93262F890F982F9770E1E001C014
:101BC000EE0F9A95EAF786958695869590E065E002
:101BD00070E00E941C28DC01A455BD4F50E040E09D
:101BE000622F70E08D91ED0121979B01042E02C0C0
:101BF000369527950A94E2F72170219528272E2300
:101C0000282728834F5F5F4F4530510559F7DF91F3
:101C1000CF910895890FA82FA770869586958695F0
:101C200090E065E070E00E941C28FC01E455FD4F47
:101C300050E040E080E0219130E00A2E02C036956D
:101C400027950A94E2F721703327042E01C0220F52
:101C50000A94EAF7822B4F5F5F4F4530510559F7E1
:101C60000895BF92CF92DF92EF92FF920F931F934E
:101C7000CF93DF938C01C090B102D090B202E0907C
:101C8000B302F090B4028091B5029091B602A09197
:101C9000B702B091B802C82AD92AEA2AFB2ACFE1B2
:101CA000D0E0BC2ED701C6010C2E04C0B695A79576
:101CB000979587950A94D2F780FD0EC0219788F7F3
:101CC000B12C8B2DDF91CF911F910F91FF90EF9051
:101CD000DF90CF90BF900895B8018C2F0E94DD1443
:101CE000019761F3EECFCF93DF93EC010E94310EA9
:101CF000BE01DF91CF910C94DD141F93CF93DF933E
:101D0000EB019091AB02992331F0CB01DF91CF91A0
:101D10001F910C94730E882379F0CB010E94310E31
:101D2000182F682FCE010E94D80DBE01812FDF91A0
:101D3000CF911F910C94DD14CB010E940A0E182F35
:101D4000F4CFCF93DF93C091B9028091BA028C1384
:101D500003C0DF91CF910895D0E0CE0166E070E03E
:101D60000E941C28FC01E554FD4F40815181628195
:101D70007381848195810E94BA0C2196C770E5CF4A
:101D80004091EB025091EC026091ED027091EE02F5
:101D90008091EF029091F0020C94BA0CFF920F9395
:101DA0001F93CF93DF938091F002807FC1F48091E5
:101DB000ED028823A1F02091B9020091BA0240916E
:101DC000EB021091EC02A091EE02B091EF02F42E22
:101DD000F122C0910B01D0910C01021306C0DF91DA
:101DE000CF911F910F91FF90089530E0109719F057
:101DF0008FEFF81204C02F5F3F4F2770EECFC9015D
:101E000066E070E00E941C28FC01E554FD4F8181D2
:101E10008113F1CF80818413EECF82818111EBCFCA
:101E2000838194818A1B9B0B8C179D0720F78091DF
:101E3000F0028F7080618093F002C90166E070E06B
:101E40000E941C28FC01E054FD4F90819F7090611E
:101E500090838BEE92E00E94450CDF91CF911F9111
:101E60000F91FF900C94A10EAF92BF92CF92DF9290
:101E7000EF92FF920F931F93CF93DF93CDB7DEB70F
:101E800061970FB6F894DEBF0FBECDBF8C0185E021
:101E9000F801DE011D9601900D928A95E1F7F80197
:101EA000E2808BEEC82E82E0D82E6091EE02709117
:101EB000EF026115710509F462C19091EB02309156
:101EC000EC02892F83238F3F09F459C1408121817E
:101ED000A380B480F090ED02F501E61BF70BBF0183
:101EE000E0910B01F0910C01FF2009F4F8C0809102
:101EF000F002582F507F6E177F0708F0B0C05111C5
:101F00007AC0FE2C321323C0941321C0E1101FC0ED
:101F10008F7080618093F0020E94C00EC6010E9403
:101F2000450C8091F002F80185838F2D61960FB6E4
:101F3000F894DEBF0FBECDBFDF91CF911F910F91FF
:101F4000FF90EF90DF90CF90BF90AF900895AB28B7
:101F500029F0842F82238F3F09F02AC180E0F82FD7
:101F6000F170DF2EE091B9023091BA0280FD20C0FD
:101F7000EE20D9F28091F00281608093F002F12C82
:101F8000D4CFF0E0CF0166E070E00E941C28DC01B5
:101F9000A554BD4F11968C911197821307C08C9157
:101FA000841304C012968C918E11E2CF3196E770A3
:101FB000E313E7CF4D872E878D859E850E94730E94
:101FC000292F22952F70223050F0243078F49F7002
:101FD00051F0F8019581907F31F4D12C0AC09F70A7
:101FE00011F08823D1F3805E8830B8F3C8010E94D5
:101FF000450CFD2C9ACF321306C0941304C0F8018F
:10200000EE2009F488C0C8010E94A40C882319F1AD
:10201000EE2009F18091F002803270F02091EB0205
:102020003091EC0238872F831986BB86AA868C876D
:10203000CE0107960E94450C86E0F801ABEEB2E0B7
:1020400001900D928A95E1F70E94CE0E0E94C00E7B
:10205000FF24F3946ACFC8010E94450CF9CF5111B7
:1020600014C07A2DB98AA88A522F6E2D89890E94B0
:10207000AB0C8BEE92E00E94450C86E0F6011192CB
:102080008A95E9F70E94C00E7ACF32130FC09413DD
:102090000DC0E1100BC0F8018583C8010E94450CFA
:1020A00086E0F60111928A95E9F73FCFC8010E94B8
:1020B000A40C882381F2EE2071F28091F00280322C
:1020C00008F4BACF2091EB023091EC023A832983D5
:1020D0001B82BD82AC828E83CE010196ABCF6E1780
:1020E0007F0708F03EC0FE2CEE2009F4B4CF321377
:1020F0002AC0941328C08091F00280FD1BC0982F45
:10210000907FC1F0F8018583903F31F0982F907F48
:10211000905F8F70892B8583C8010E94450C86E0F3
:10212000F801ABEEB2E001900D928A95E1F70E94C2
:10213000C00EFBCE86E0F801ABEEB2E001900D924E
:102140008A95E1F7F2CEC8010E94A40C811174CFE8
:102150008091F00281608093F002C8010E94450CDA
:10216000E4CE7A2DB98AA88A522F6E2D89890E94D1
:10217000AB0C86E0F60111928A95E9F7D8CFEE20F4
:1021800009F469CFC8010E94A40CF82E882309F431
:1021900062CF86E0F801ABEEB2E001900D928A9535
:1021A000E1F78BEE92E00E9459090E94CE0EBFCF5C
:1021B00081E08E25D4CECF93DF93CDB7DEB72C97B9
:1021C0000FB6F894DEBF0FBECDBF4F835887698727
:1021D0007A878B879C87CE0107960E94340F8823CD
:1021E000D1F08A859B85892B39F04F815885842FC2
:1021F00085238F3F09F076C08091B9029091BA0291
:10220000891349C02C960FB6F894DEBF0FBECDBF20
:10221000DF91CF91089586E0FE013796DE01119699
:1022200001900D928A95E1F78A859B85892B21F390
:102230008F81988589238F3FF9F28091BA0290E0CF
:102240009C012F5F3F4F277033274091B9024217FF
:10225000130671F40E94850C1092BA021092B90212
:1022600086E0EBEEF2E0DF011D928A95E9F7C4CF3C
:1022700066E070E00E941C28DC01A554BD4F96E08A
:10228000FE01319601900D929A95E1F72093BA02E2
:102290000E94A10EB1CF90E066E070E00E941C2881
:1022A00085549D4F0E94340F882309F4ABCF809151
:1022B000B90290E066E070E00E941C28FC01E55441
:1022C000FD4F4081518162817381848195810E949B
:1022D000BA0C8091B90290E001968770992780939B
:1022E000B9028ACF69857A858B859C850E94BA0C54
:1022F00083CF682F80910D0190910E010C949F2047
:10230000682F80910D0190910E010C94A120809175
:102310000D0190910E010C94A3208091F9028595F6
:102320008595859508958091F9028770089590911B
:10233000F902977081E009F480E008958091040328
:10234000089590910403892B809304030895809548
:10235000909104039823909304030895109204032A
:10236000089590910303892B80930303089580952A
:10237000909103039823909303030895109203030D
:1023800008958091FA02089508950C94C4119091D3
:10239000420392FD08C09091FA02981721F08093B1
:1023A000FA020C94C51108958091FA02882329F04D
:1023B0001092FA0280E00C94C5110895CF93DF9338
:1023C000E0910D01F0910E01809104038083E09172
:1023D0000D01F0910E01808190910303892B808380
:1023E0009091FA02992381F0E0910D01F0910E0194
:1023F0008081892B808380910D0190910E010E9434
:10240000572081110E94D411C0910D01D0910E016D
:1024100048E050E061EF72E0CE010E946828892B0D
:1024200069F088E0FE01A1EFB2E001900D928A957B
:10243000E1F7CE01DF91CF910C941220DF91CF9183
:10244000089508950C9421129091420392FD10C0BA
:10245000982F990F990F990F962B9093F9020E943C
:102460003C0D8091F9028595859585950C942212F5
:102470000C943C0D1092F90280E00C942212909181
:10248000F902809589238093F902282F277091F40F
:10249000282F082E000C330B9217130659F0909139
:1024A000420392FD07C08595859585950E945D0D37
:1024B0000C943A1208959091420392FB222720F93E
:1024C000281769F080FB92F99093420380914103B1
:1024D000909142030E94A61282E00C943F1208954C
:1024E0008091420382FB882780F991E089270C9430
:1024F0005B1281E00C945B1280E00C945B126FEF36
:102500007FEF90E080E00C94C22890E080E00E9491
:102510009E2821E0893E9E4F09F020E0822F0895F9
:1025200082E090E00C94902883E090E00C94902856
:10253000CF9384E090E00E949028C82F82E290E040
:102540000E949028982F8C2FCF910895CF93C92F58
:10255000682F84E090E00E94A4286C2F82E290E033
:10256000CF910C94A428AB01BC018FE090E00C94B7
:10257000B628AB01BC0183E190E00C94B62860E082
:1025800070E0CB010C94B91260E070E0CB010E94C6
:10259000B3120C94BF1269EE7EEF90E080E00E94CF
:1025A000C22860E082E090E00E94A42860E083E01E
:1025B00090E00E94A4281092B5021092B6021092E8
:1025C000B7021092B80260E084E090E00E94A42874
:1025D00060E082E290E00E94A42860E085E090E064
:1025E0000E94A42860E086E090E00E94A4286FEF9B
:1025F00087E090E00E94A42840E050E0BA0188E023
:1026000090E00E94B62860E08DE090E00E94A4284F
:1026100040E050E0BA0188E190E00E94B62860E016
:1026200087E190E00E94A42840E050E0BA018CE1EC
:1026300090E00E94B62870E060E080E290E00E94A6
:10264000C22840E050E0BA0188E190E00E94B6283C
:102650000C94C4120C94CB12682F8EE090E00C9472
:10266000A4280E94472160930A0370930B03809370
:102670000C0390930D0360930603709307038093FC
:102680000803909309030895089508950C94451341
:1026900008950C9448138BEB95E10E94FC1F0E9457
:1026A00044130C94461381E008950C945313089539
:1026B00008950E9457130C9458130E94D5150C943A
:1026C00000090E9432210E9441160E945D130E945F
:1026D0005C1C0C944913FF920F931F93CF93DF93CD
:1026E000CDB7DEB72A970FB6F894DEBF0FBECDBFC9
:1026F0000E944C16082F81110E94311380E00E9425
:10270000FE15182F80910503F82EF126811739F058
:1027100080910E0381FD0E940416F0FC20C08FEF13
:1027200089838A831B820E943B218160782F9D834D
:102730008C8349815A816B818D810E941B0981E0C4
:10274000011101C080E02A960FB6F894DEBF0FBEDB
:10275000CDBFDF91CF911F910F91FF9008950E94FF
:102760005513882381F01E821F82117018870E94E2
:102770003B218160782F9A8789874E815F816885A8
:102780008A850E941B098091050391E08927809327
:102790000503D5CF0E946B130E948F1C0E94301836
:1027A0000C941009CF93DF930E94E114EC01811582
:1027B00021E5920708F042C0811530E5930708F043
:1027C0009EC0883E910530F5803E910508F093C08B
:1027D000883A910588F4853A910508F085C08130E2
:1027E000910509F488C0009709F485C0049708F0A2
:1027F00082C0D0E0C0E07FC08F3B9105D0F7C85ABF
:10280000D0E0CC0FDD1FCF5ADD4F0990D881C02D0D
:10281000D46471C0811540E2940750F4C11581E081
:10282000D80708F068C0CD3ED10518F3D06563C065
:1028300081159044F0F2DF70D06A5DC0811535E5F6
:10284000930710F5811544E5940708F091C0C11570
:1028500083E5D80708F076C0C11522E5D20708F451
:102860006CC0CE018370992721E030E002C0220FB6
:10287000331F8A95E2F7C695C695D0E0E5E0CC0F08
:10288000DD1FEA95E1F755C0811539E59307A8F4F6
:10289000811548E5940708F070C0C11586E5D80792
:1028A00008F0A7CF8C2F0E947815C82FD0E0DC2F1E
:1028B000CC27CC27DF71D0621EC081152AE5920794
:1028C00008F460C090568115904208F092CF8D2F89
:1028D0008F710E94781590E0982F882788279F7124
:1028E0009C012C2BE901E7CFC55AD0E0C158DD4F40
:1028F000C881D0E0D064CE01DF91CF910895A4E0EB
:1029000096958795AA95E1F783702C2F26952695A5
:10291000237030E0B5E0220F331FBA95E1F7382B72
:102920008C2F8370C1E0D0E002C0CC0FDD1F8A95F0
:10293000E2F7C22BD32BDC68DECFDC2FCC27C16FB4
:10294000D06AD9CFCE018370992721E030E002C050
:10295000220F331F8A95E2F7C695C695D0E075E041
:10296000CC0FDD1F7A95E1F7C22BD32BDA68C3CFEA
:10297000D82FCC27C46FD06ABECFD82FCC27C06F3A
:10298000D06AB9CF8F700E94781534E0D695C7957C
:102990003A95E1F7CF709C2FEC01D069ACCF272F8F
:1029A000260F3327331FF901E80FF11DEE0FFF1F2C
:1029B000E858FF4F8591949108950E94CF140C948C
:1029C000D21382389105B1F1B0F48133910509F445
:1029D00075C048F48932910509F469C08A329105BD
:1029E00009F473C008958533910509F459C08933FA
:1029F000910501F10895833E9105A9F138F4803ED7
:102A00009105F9F0823E910549F10895863E9105C0
:102A1000A9F1873E9105C9F1843E910519F52091F0
:102A2000420321FF1FC08091410384FD14C087EE43
:102A300090E00895209141032370A1F080EE90E092
:102A400008952091410320FD47C03091420330FF9B
:102A500009C024FF44C090E080E004C020914103FD
:102A600022FDF7CF08952091410322FD3BC0309114
:102A7000420330FDE3CF24FFF5CFEDCF209141039A
:102A800023FFF0CF24FDE7CFD2CF2091410323FDD8
:102A90002CC03091420331FFEECF84EE90E00895D8
:102AA0002091410325FFDECF89E290E00895209137
:102AB000410325FFD7CF85E390E00895209141039E
:102AC00026FFD0CF8AE290E008952091410326FFAF
:102AD000C9CF81E390E0089589E390E0089583EE03
:102AE00090E0089582EE90E0089586EE90E00895DB
:102AF0009091410392FF06C0282F28712830F9F4E5
:102B0000877F846093FF06C0282F28712831F1F455
:102B1000877E84612091420320FF06C0382F3871E0
:102B20003830D9F4877F816021FF06C0282F2871B3
:102B30002831D1F4877E816194FD877E0895282F06
:102B400024712430F9F68B7F8860DCCF282F247124
:102B5000243101F78B7E8861DDCF382F3171313020
:102B600019F78E7F8860E0CF282F2171213121F75E
:102B70008E7E8861E1CF80E008950C947F120E94E0
:102B80004C168FE39CE90197F1F700C000000E940A
:102B90004C1680E00E94FE1580FF04C00E94BD1507
:102BA0000C94862108950C94BF150E948512811102
:102BB00002C00E942A130E94901280930E030E946A
:102BC000981290934203809341030E94D3150E9470
:102BD0009412682F70E090E080E00E94DA0C60911F
:102BE000B1027091B2028091B3029091B4020C9440
:102BF000140D08950C94F9150C949606E82FF0E046
:102C0000EC5BFC4F80810895089580EA8A95F1F786
:102C1000089500C008950C940516F89427982F9AEB
:102C2000789408950E940D16F89452985A9A7894C0
:102C30000895EF92FF921F93CF93DF937C01162F9D
:102C4000F894279A2F9878940E940916C9B1D0E079
:102C5000D595C795D595C795C095D0950E940D1669
:102C60006C2F6170812F0E940B16F701E10FF11D8F
:102C7000C170DD27C083DF91CF911F91FF90EF904E
:102C800008950E941216109244031092430381E0AB
:102C90000E9472160C94B8071F93CF93DF930F9284
:102CA000CDB7DEB7198260E0CE0101960E941916F9
:102CB00090914303898111E0981301C010E09813AB
:102CC00080934303212F41E064E473E083E493E0C5
:102CD0000E9473160E94BA07812F0F90DF91CF9147
:102CE0001F9108950895FF920F931F93CF93DF9341
:102CF000F82E092F162FD72FC42F222349F081E059
:102D0000809311030E943B219093100380930F0343
:102D1000809111038823A1F080910F0390911003FB
:102D20000E945321059760F0EF2DF02FA12FBD2FAA
:102D3000CE0FDF2FD11DEC17FD0741F410921103C8
:102D4000DF91CF911F910F91FF90089581918D9305
:102D5000F2CF0E9426230E9461130C9432230E941A
:102D600036230E94CA130C9450230E94DB200E9439
:102D70000D230E944B130E94A9160E94AF160E94B9
:102D80005913FBCF8091180380FF0DC0609114018F
:102D900070E0660F771F60387105A8F56115710541
:102DA000A1F1862F089581FF08C06091140170E0A1
:102DB000660F771F660F771FEECF6091140170E0EA
:102DC00082FD0BC0809117038823D1F0209113015D
:102DD0006091140170E0821730F043E0660F771FB6
:102DE0004A95E1F7D8CF90E00E941C2833E0880F85
:102DF000991F3A95E1F7622F70E00E944128CBCFEE
:102E000068E070E0CECF8FE7089581E0089580916B
:102E1000180380FF0CC06091100170E075956795F4
:102E2000759567956115710559F1862F089581FF94
:102E300006C06091100170E075956795F3CF6091C1
:102E4000100170E082FD0CC0609116036623A9F0AA
:102E500020910F018091100190E0621730F0BC01C9
:102E600060387105F8F28FE7089570E00E941C2821
:102E7000622F70E00E944128F3CF61E070E0D5CF6F
:102E800081E008958D3E31F40E94C21681958093B1
:102E90001C0308958E3E19F40E94C216F8CF8F3E8F
:102EA00031F40E94C216819580931B030895803FE0
:102EB00019F40E94C216F8CF893F29F40E9407171F
:102EC00080931D0308958A3F21F40E94071781957E
:102ED000F7CF8B3F31F40E940717819580931E0333
:102EE00008958C3F19F40E940717F8CF9FE0980FC0
:102EF000983070F4815F990B21E030E001C0220F1F
:102F00008A95EAF780911A03822B80931A03089519
:102F10008D3F31F4809118038160809318030895E8
:102F20008E3F21F4809118038260F7CF8F3FB9F76D
:102F3000809118038460F1CF40911B038D3E59F4BA
:102F400080911C0387FF0DC010921C0341110BC020
:102F50001092170308C08E3E81F480911C0318164E
:102F60009CF3442381F080911D0390911E03892BD3
:102F700009F05AC01092160308958F3E49F447FF96
:102F8000F0CF10921B0380911C038111ECCFE0CF96
:102F9000803F19F41416ACF3E4CF90911D03893FE0
:102FA00029F41916F4F610921D03DBCF8A3F19F4A9
:102FB00097FFD7CFF8CF90911E038B3F29F497FF4F
:102FC000D0CF10921E03CDCF8C3F19F41916CCF33D
:102FD000C8CF9FE0980F983090F4815F990B21E063
:102FE00030E0B90102C0660F771F8A95E2F7CB0186
:102FF000809590911A03892380931A03B2CF8D3F55
:1030000031F4809118038E7F80931803AACF8E3FEE
:1030100021F4809118038D7FF7CF8F3F09F0A1CF66
:10302000809118038B7FF0CF08950E943B219C0173
:1030300090911B0380911C03982B21F03093150372
:103040002093140390911D0380911E03982B21F06F
:10305000309313032093120389E193E00C941D2015
:10306000EF92FF920F931F93CF93DF9300D000D086
:1030700000D0CDB7DEB786E0E9E1F3E0DE011196DE
:1030800001900D928A95E1F7E0901B03F0901C03EC
:1030900000911D0310911E0310921B0310921C033C
:1030A00010921D0310921E038E2D8F2991F0809196
:1030B0001403909115030E945321FC0120911703E2
:1030C000222309F43FC0809115018E171F0608F4D2
:1030D00048C0802F812B91F08091120390911303AF
:1030E0000E945321FC0120911603222309F47CC085
:1030F000809111018E171F0608F485C080911B0373
:1031000090911C03892B90911D03892B90911E0394
:10311000892B11F00E94151886E0FE013196A9E175
:10312000B3E001900D928A95E1F726960FB6F894D8
:10313000DEBF0FBECDBFDF91CF911F910F91FF90EA
:10314000EF9008958091160190E06AE070E00E948F
:103150001C288E179F0708F0BCCF2F5F2093170302
:1031600002C02F3FD1F7EE2051F00E94C2166FEF40
:103170001E140CF461E00E94132880931B03FF20AF
:1031800051F00E94C2166FEF1F140CF461E00E9410
:10319000132880931C0380911B03882309F499CF83
:1031A00020911C03222309F494CF082E000C990BC4
:1031B00065EB70E00E941C28992371F090931B032B
:1031C000822F220F990B65EB70E00E941C28992337
:1031D00039F090931C037DCF81E080931B03F0CFE7
:1031E00081E080931C0375CF8091120190E06AE02A
:1031F00070E00E941C288E179F0708F07FCF2F5F7A
:103200002093160302C02F3FD1F7002351F00E94F4
:1032100007176FEF10160CF461E00E9413288093DB
:103220001D03112351F00E9407176FEF11160CF4C4
:1032300061E00E94132880931E0380911D03882360
:1032400009F45CCF20911E03222309F457CF082EE6
:10325000000C990B65EB70E00E941C28992371F01B
:1032600090931D03822F220F990B65EB70E00E9453
:103270001C28992339F090931E0340CF81E080935E
:103280001D03F0CF81E080931E0338CF86E0E9E193
:10329000F3E0DF011D928A95E9F71092170310926F
:1032A0001603109218030895EF92FF920F931F9345
:1032B000CF93DF93982F711111C0442329F0E82F89
:1032C000F0E0EC5CFD4F9491692F792F892FDF910D
:1032D000CF911F910F91FF90EF900895262F30E02E
:1032E000C72FD0E0E82FF0E0442321F0EC5CFD4F45
:1032F000E491F0E0C90166E070E00E941C280FEF45
:1033000010E0B8010E942D28DB01220F331FCB01F2
:1033100065E570E00E941C28281B390BE22EEE0C9C
:10332000E20EC8018C1B9D0BBF010E941C28292F97
:10333000F12CC701BE010E941C28492F50E0C80192
:10334000841B950BBF010E941C28392FC8018E19C0
:103350009F09BE010E941C28492F50E0C801841B10
:10336000950BBF010E941C28892F7E2FA230B1052A
:1033700089F038F4109759F0119781F0922F232F8C
:1033800006C0A430B10569F080F01697B9F7692F2F
:10339000822F9DCF9E2F722F282FF9CF9E2F732F14
:1033A000F6CF922F2E2F782FF2CF722F2E2F932F12
:1033B000EECF41E00C94541908950C94D919CF9391
:1033C000DF93762FE901682F842F0E94DD1979831E
:1033D00068838A83DF91CF91089580914503982F68
:1033E0009E7F29F4817082608093450308958E3119
:1033F000E8F381708C61F8CF88E090E00C94982815
:10340000CF92DF92EF92FF926B017C010E94ED1947
:10341000B701A60188E090E0FF90EF90DF90CF9099
:103420000C94B628E5E4F3E083E0808311828FEF0B
:1034300082838383148260817181828193810C9461
:10344000001A8091450380FF02C08695089580E0B0
:10345000089590914903933018F49F5F9093490326
:10346000882351F060914503709146038091470392
:10347000909148030C94001A089581E00C94291A45
:1034800090914903992319F091509093490388230F
:1034900051F06091450370914603809147039091EC
:1034A00048030C94001A089581E00C94401A70E0CF
:1034B0000C94AA1D309118018091450380FF0CC027
:1034C0008091170190E063E070E00E941C28632F58
:1034D000865B9C4F0C94571A2091190140911A0158
:1034E000822F90E063E070E00E941C28FC01E65B04
:1034F000FC4F241728F71182108212822F5F339617
:10350000F8CFA82FB62F8091450380FF17C02091D8
:10351000190130911A01822F90E063E070E00E945F
:103520001C28FC01E65BFC4F231710F00C945A1A80
:10353000A183B08342832F5F3396F6CF0895CF9354
:10354000DF9300D00F92CDB7DEB79091450390FF87
:103550000AC09E012F5F3F4F0E94DF194B81698196
:103560008A810E94811A0F900F900F90DF91CF9166
:103570000895CF93DF93EC01EC81F0E0EC5CFE4F1B
:103580004491E5E4F3E0628181810E949F1A8C817D
:103590008F5F8C83DF91CF910895CF93DF93EC0100
:1035A000E5E4F3E0438162818C810E949F1A8C8163
:1035B0008F5F8C83DF91CF910895EF92FF920F93ED
:1035C0001F93CF93DF9300D00F92CDB7DEB7082FB4
:1035D000F62E142FE22E8091450380FF28C0E82F9D
:1035E000E695F0E0EE57FD4F9081909326038E7F95
:1035F000823039F59E012F5F3F4F802F0E94DF19E7
:103600004B8169818A810E94811A00934603F0925E
:10361000470310934803EE2051F0609145037091E9
:10362000460380914703909148030E94001A0F902F
:103630000F900F90DF91CF911F910F91FF90EF901E
:103640000895923019F410914803DFCF963019F4A1
:1036500000914603DACF9930C1F6FACFE5E4F3E002
:103660009181282F4381628188E0890F0C94DD1AB3
:1036700081E00C942E1BE5E4F3E09181282F438137
:10368000628188EF890F0C94DD1A81E00C943B1B5A
:10369000E5E4F3E0628121E1620F08F46FEF282F87
:1036A000438181810C94DD1A81E00C94481BE5E490
:1036B000F3E0628121E1621B08F460E0282F43817E
:1036C00081810C94DD1A81E00C94571BE5E4F3E052
:1036D000438121E1420F08F44FEF282F628181815D
:1036E0000C94DD1A81E00C94661BE5E4F3E0438161
:1036F00021E1421B08F440E0282F628181810C9473
:10370000DD1A81E00C94751B20E00C94DD1AEF9219
:10371000FF921F93CF93DF93EC0110E0EE24EA9425
:10372000F12C30911B01131770F00E945A1A9A81E4
:103730008C8190FF27C08F5F8C83DF91CF911F9189
:10374000FF90EF90089580911901810F9927991F9B
:1037500063E070E00E941C28FC01E65BFC4F632FD5
:1037600070E0C7010E944128812F0E9413289C818C
:103770009F014091480360914703890F0E94DF1920
:103780001F5FCFCF8150D8CFE5E4F3E080818E7FFB
:10379000808360817181828193810E94001A1092DE
:1037A00027032FEF80E792E0215080409040E1F71F
:1037B00000C000000C945A1A60914503669570E0B1
:1037C00041E050E08CE191E00E945B28892B19F4E4
:1037D00081E0809327030E943B21909320038093F4
:1037E0001F0308959091450390FF35C0917081119A
:1037F00028C0926090934503662351F06091450381
:103800007091460380914703909148030E94001AEB
:1038100060914503669570E041E050E08CE191E0F5
:103820000E945B28892BA1F01092270381E08093EE
:1038300022034091480360914703809146030C9412
:10384000841B8F3010F09C61D5CF880F982BD2CF7E
:103850000E94DC1BEBCF0895682F9091450396954D
:1038600081E0890F8F3008F081E00C94F21B81E039
:103870000C942C1C682F9091450396958FEF890F1F
:1038800009F48EE00C94F21B81E00C943A1C61E088
:103890000C94F21BE5E4F3E08081816080838695DF
:1038A0000C94471C8091450380FD0C94C41B0C9420
:1038B0004A1C60E00C94F21B8091250381112EC0FC
:1038C0000E948512811104C00E942A130E94121ABC
:1038D0000E94FC196093450370934603809347034D
:1038E000909348036E7F61F40E94121A0E94FC19A3
:1038F0006093450370934603809347039093480376
:103900000E94ED19109227038091450380FF03C0A8
:1039100086950E94591C81E08093250308950F939A
:103920001F93CF93DF9380912703882309F456C018
:1039300080912603E0914503E695E81BE09321037F
:10394000823089F5F0E0E05DFE4FE491CE2FD0E0CB
:1039500009EB1AE180912203882361F0109222037F
:103960000E943B219093200380931F031092240315
:10397000109223030E943B21E0911F03F09120034A
:103980008E1B9F0B8F3F9F4748F5CE0FDF1FD093B5
:103990002003C0931F038FE193E0F801DF91CF91E3
:1039A0001F910F910994863049F4F0E0E35DFE4FDA
:1039B000E491CE2FD0E00DEC1AE1CCCFC0EDD7E0F2
:1039C0000CED19E1893031F6E695F0E0E65DFE4F49
:1039D000E491CE2FD0E007E81BE1BCCFDF91CF917F
:1039E0001F910F910895FA01811101C0FB01099403
:1039F000CF93DF93C82FD62F0E94211A8C1740F047
:103A00000E94211A8D1720F4DF91CF910C94371C5E
:103A10008C2FDF91CF910C94471C1F93CF93DF9392
:103A2000EC01FB011281111155C00E949E1182729E
:103A3000CB3CFCE5DF0709F477C048F5C63CECE574
:103A4000DE0709F45DC068F4C43C9CE5D90709F4BD
:103A50004DC008F050C0C33CDC4509F444C011E03F
:103A600039C0C83C9CE5D90709F454C008F44DC0DE
:103A7000C93CFCE5DF0709F452C041E85BE162E7BD
:103A80007BE1CA3CDC4559F70E94F31C23C0C03DD2
:103A9000ECE5DE0709F45BC0A0F4CD3C9CE5D9075A
:103AA00009F44CC008F445C0CE3CFCE5DF0709F43E
:103AB0004AC0CF3CDC4599F665E082E00E94F81CE4
:103AC00009C0C73D9CE5D90750F46EE089E0C23DCE
:103AD000DC45A0F3812FDF91CF911F910895CE3562
:103AE000DD45C1F3BCCF0E94521CF4CF44E45CE13D
:103AF00067E37CE1C9CF47E35CE164E47CE1C4CFE8
:103B000045E45BE168E37BE1BFCF48E35BE165E46B
:103B10007BE1BACF43E65BE164E57BE1B5CF44E509
:103B20005BE163E67BE1B0CF42E75BE161E87BE12B
:103B3000ABCF44E55AE16DE37AE1A6CF4DE35AE11C
:103B400064E57AE1A1CF81E00E94471CC3CF68E021
:103B500086E0B4CF9C01CB013D9A48B14F7DE8B1DE
:103B6000E062FFB7F89463E070E00E941C28820FC7
:103B7000931F8217930741F4FFBF8FE594E00197ED
:103B8000F1F700C000000895D9015D919D0168E042
:103B9000E8B9000000C057FF48B9550F000000C049
:103BA00000C000C048B900C06A9591F7E2CFCF933A
:103BB000DF93EC01FB018281882309F433C1C43017
:103BC000FDE5DF07C0F5CB3F9CE5D90730F49E014A
:103BD00022503C4524313105B0F50E949812909353
:103BE000420380934103C1318CE5D80709F4EEC04C
:103BF00008F069C0C930ECE5DE0709F4D5C0C8F5A6
:103C0000C5308CE5D80709F4C7C000F5C330ECE532
:103C1000DE0709F4B9C008F0BBC0C230DC4509F4C6
:103C2000ADC080914103909142030E94A6120E9470
:103C3000850C80E008C0C236EDE5DE0771F2C63AB9
:103C4000FDE5DF0751F2DF91CF91089580914103A7
:103C50008062C7309CE5D90709F493C08091410385
:103C60008061C830DC4508F48CC0809141038064D9
:103C700088C0809141038B7FCD30FCE5DF0709F4DC
:103C800080C098F4809141038E7FCB309CE5D907AA
:103C900009F477C0809141038C60CC30DC4508F496
:103CA00070C0809141038D7F6CC0809141038F7EF5
:103CB000CF30FCE5DF0709F464C008F47BC08091D5
:103CC00041038F7D5EC0CE3F9CE5D90709F47AC0E1
:103CD00050F5C531FCE5DF0709F486C098F4809102
:103CE0004103837FC3319CE5D90709F44AC008F436
:103CF00071C00E94850C90914103892F97FB87F931
:103D000080583FC0CC3FFCE5DF0709F449C008F00C
:103D100055C0809142038160CB3FDC4509F081CFE3
:103D2000809342037ECFC230EDE5DE0709F468C020
:103D3000A8F4C1158DE5D80709F452C0809142035B
:103D40008360C130DD4560F380914203982F9095E8
:103D500091708E7F892B90FB81F9E2CFC236EDE521
:103D6000DE0709F451C0C63AFDE5DF0709F453C088
:103D7000C330DD4509F055CF80E043C08091410359
:103D80008160809341034DCF809141038260F9CFE0
:103D9000809141038460F5CF809141038860F1CF29
:103DA000809142038260BCCF0E94850C80914103C8
:103DB0008068E7CF80914103877FE3CF8091420302
:103DC0008E7FAECF809142038D7FAACF8091410339
:103DD0008F7BD7CF0E94850C809141038F77D1CF05
:103DE000809142038C7F9CCF8091410382FB992775
:103DF00090F921E0922790FB82F990FB83F9C1CFE3
:103E000081E00E942C130DCF90914103892F8F7E6A
:103E100094FF8061B6CF90914103892F8E7F90FFF0
:103E20008160AFCF81E00FCFCF93DF93EB0186317D
:103E30009C4511F50E949E119A81992399F08A7AE6
:103E400091E009F490E090932803811109C089E280
:103E50000E9479110E94DE1180E0DF91CF910895D8
:103E600085E3F6CF80912803811104C089E20E9486
:103E70008011F0CF85E3FBCF81E0EFCF0F931F934D
:103E8000CF93DF93C42FD22FFC0182818823C9F006
:103E900040932B030E943B2190932A038093290394
:103EA00080E28C0F883008F050C0C77081E001C0FC
:103EB000880FCA95EAF7DF91CF911F910F910C946B
:103EC000FA0910912B03141335C0809129039091A6
:103ED0002A030E945321883C910560F5C0E2CD0F72
:103EE0001D17B9F080E2810F883040F4177081E02F
:103EF00001C0880F1A95EAF70E94010AC83048F4F9
:103F000081E09D2F977001C0880F9A95EAF70E9473
:103F1000FA09802F0E94F209C830B8F4D77081E006
:103F200001C0880FDA95EAF7DF91CF911F910F91C9
:103F30000C94010A80E28C0F883038F4C77081E05D
:103F400001C0880FCA95EAF7EFCFDF91CF911F919B
:103F50000F9108950F939C01CB01243F4CE534074A
:103F600059F1A8F4293DFCE53F0701F12A3D4CE554
:103F70003407D1F1283D3C4591F406E221EE41EEB3
:103F800068ED7CE50E943E1F80E00F910895263F7A
:103F9000FCE53F07E9F0B0F0273F3C45F9F0FC01B4
:103FA0008281882339F110922B03EFCF07E225EEAF
:103FB00045EE69ED7CE5E6CF06E221EE40EE64EFEA
:103FC0007CE5E0CF07E225EE44EE65EF7CE5DACF55
:103FD00006E221EE42EE66EF7CE5D4CF07E225EE65
:103FE00046EE67EF7CE5CECF08E221E045EE6AEDD4
:103FF0007CE5C8CF81E0C9CF909393028093920271
:10400000089590933103809330030895E091300335
:10401000F0913103309721F00190F081E02D099467
:1040200080E00895E0913003F0913103309721F062
:104030000280F381E02D09940895E0913003F0911E
:104040003103309739F022E0DC012C930480F581B4
:10405000E02D0994089520912E0330912F03281705
:10406000390771F090932F0380932E03E091300372
:10407000F0913103309721F00680F781E02D09940B
:10408000089520912C0330912D032817390771F0E2
:1040900090932D0380932C03E0913003F091310332
:1040A000309721F00084F185E02D099408959C015A
:1040B0002E5F3F4FAC01485F5F4F80E0241735070C
:1040C00009F40895F90191919F019923B9F38F5F44
:1040D000F5CF662349F0FC01329608962191261708
:1040E00029F0E817F907D1F780E0089581E00895F5
:1040F0009C01FC0132969FEF80E04191461751F000
:104100009F3F19F4411101C0982F8F5F8630A9F7A6
:104110009F3F09F40895290F311D97FD3A95F90144
:1041200062830895FC01329608962191261303C0FC
:10413000DF0111971C92E817F907B9F708950C945D
:1041400078200C949220029626E0FC0111922A9588
:10415000E9F7089508950C94AA20811105C081E023
:10416000809332030C94AB2082E0FACF83E08093FB
:1041700032030C94AB200C94AD2081E08093320389
:104180000C94AB200C94BD20089508950C94C52088
:10419000089508950C94C4200E94C8200E944C16D3
:1041A0000E94C92080E00E94FE1591E0811101C0AB
:1041B00090E0892F089508951F921FB61F92112431
:1041C0008F939F93AF93BF9380913303811113C05B
:1041D0008091500390915103A0915203B0915303E9
:1041E0004196A11DB11D8093500390935103A0935C
:1041F0005203B0935303BF91AF919F918F911F9042
:104200001FBE1F90189580915803843031F10E9491
:1042100024081092330388E190E020E40FB6F8946C
:10422000A895809360000FBE2093600083B7817FC4
:10423000846083BF83B7816083BF7894889583B798
:104240008E7F83BF0FB6F894A89580916000886137
:1042500080936000109260000FBE08950E94850C4C
:104260000C94280882E084BD93E095BD9AEF97BD39
:1042700080936E0008952FB7F89480915003909129
:104280005103A0915203B09153032FBF08952FB74C
:10429000F894609150037091510380915203909172
:1042A00053032FBF08959C014FB7F894809150039A
:1042B00090915103A0915203B09153034FBF821BC1
:1042C000930B089578941F921FB61F9211248F9319
:1042D0009F93AF93BF938091500390915103A0910E
:1042E0005203B09153030196A11DB11D8093500359
:1042F00090935103A0935203B0935303BF91AF9196
:104300009F918F911F901FBE1F90189581E0809301
:10431000E00080E28093D8001092C9008FE19EE413
:104320000197F1F700C0000087E090EBDC0180937B
:10433000610390936203A0936303B093640388E1E5
:104340009CE00FB6F894A895809360000FBE909300
:104350006000FFCF80913F03089508959C0182E0A3
:104360008093E9009FEF8091E800915085FD06C0A1
:1043700085ED8A95F1F700009111F5CF8091E80065
:1043800085FF0CC050E040E066E070E0C9010E948B
:10439000C1238091E8008E778093E8000895CF9341
:1043A000DF93EC0181E08093E9008FEF9091E800CA
:1043B000815095FD06C095ED9A95F1F700008111A9
:1043C000F5CF8091E80085FF14C050E040E068E040
:1043D00070E0CE010E94C1238091E8008E77809327
:1043E000E80088E0FE01A7E3B3E001900D928A9512
:1043F000E1F7DF91CF9108958093340370933603F2
:104400006093350380915803843001F582E08093F6
:10441000E9008FEF9091E800815095FD06C095ED81
:104420009A95F1F700008111F5CF8091E80085FFA2
:104430000DC050E040E063E070E084E393E00E9450
:10444000C1238091E8008E778093E8000895BC0135
:1044500084E00C94FC21BC0183E00C94FC210C94BE
:10446000BD206091540381E0611101C080E00C9493
:10447000B6209091580381E0943009F080E060917B
:1044800054030C94BB2042E061EC81E00E94C924FB
:1044900042E261EC82E00E94C9249091580381E0DD
:1044A000943009F080E0609154030C94AD20809129
:1044B0005A03833009F45EC030F48130B9F18230A0
:1044C00009F49AC008958A3009F486C08B3009F443
:1044D0006CC0893009F04DC080915903813209F0D8
:1044E00048C080915D0390915E03029708F041C03F
:1044F0008091E800877F8093E8008091E80082FF48
:1045000034C08091F200823031F48091F10081302A
:1045100011F0863021F48091F10080933F03809167
:10452000E8008B778093E8000C94FD248091590378
:10453000813AF9F48091E800877F8093E8008091C8
:104540005D0390915E03892B61F468E087E393E05B
:1045500070E00E9410248091E8008B778093E8003F
:10456000089560E090E080E0F3CF809158038111DE
:10457000C4CF089580915903813AD9F780915D03A2
:1045800090915E03892BA9F78091E800877F809343
:10459000E8008091E80080FFFCCF809129018093A2
:1045A000F1008091E8008E77BDCF80915903813270
:1045B00001F780915D0390915E03892BD1F6809184
:1045C000E800877F8093E8000E94FD2480915B03D0
:1045D000809329010C94850C80915903813249F60E
:1045E0008091E800877F8093E8000E94FD248091FD
:1045F0005C0380934003089580915903813A09F048
:10460000B8CF8091E800877F8093E8008091E80030
:1046100080FFFCCF80914003C2CF84B7877F84BFE7
:104620000FB6F894A895809160008861809360002F
:10463000109260000FBE80E890E00FB6F89480936F
:104640006100909361000FBE0C94C2200E944D2522
:104650000E94A025E2EEF0E080818460808378945F
:104660000C94F8278DE191E00C940120809158037F
:104670008530A9F480915803853011F00C942E21D7
:104680000E940321809156038823A1F30E94CC202D
:10469000882381F30E94AB230E94850CEBCF089501
:1046A00008950C945323292F33272330310519F112
:1046B00068F42130310509F444C02230310509F491
:1046C00045C090E080E030E020E025C02132310597
:1046D00049F122323105A9F780E490E022E234E08A
:1046E00061157105C1F08BE790E027EA33E0613096
:1046F000710589F0E6CF99278130910581F0009707
:1047000029F00297F1F6E4E3F3E002C0E6E5F3E016
:10471000849190E09F01FA01318320830895EEE3B4
:10472000F3E0F6CF89E090E02CE633E06115710507
:1047300091F389E090E025E833E06130710559F3A9
:10474000C0CF82E190E025E933E0E5CF8BE390E054
:104750002AE533E0E0CF84E089BD86E089BD09B475
:1047600000FEFDCF8091D8008F7D8093D80080918E
:10477000E00082608093E0008091E00081FDFCCF4A
:104780000895AF92BF92CF92DF92FF920F931F9343
:10479000CF93DF936C01EB018A010E941C25F82E58
:1047A000811123C00115110539F0F8018081918133
:1047B000C81BD90BC80ED91EB12CA12C2097A9F06B
:1047C0008091E80085FD22C08091E8008E7780937B
:1047D000E80001151105A1F0F80180819181A80E72
:1047E000B91EB182A08285E0F82E8F2DDF91CF9186
:1047F0001F910F91FF90DF90CF90BF90AF900895E1
:104800000E941C258823D1F2F82EEFCFF60181916A
:104810006F018093F1002197FFEFAF1ABF0ACECF4F
:10482000FC0180915F039091600386179707A0F0C9
:104830006115710529F49091E8009E779093E80046
:1048400090E06115710551F4911108C08091E80064
:1048500082FF32C080E00895BC01F2CF80915803FE
:104860008823B1F18530B1F18091E80083FD2EC03D
:104870008091E80082FDEACF8091E80080FFE1CFDF
:104880002091F20030E06115710519F028303105F2
:1048900058F091E02830310509F090E02091E800CF
:1048A0002E772093E800CDCF81918093F100615065
:1048B00071092F5F3F4FE7CF80915803882341F064
:1048C000853041F08091E80083FFC0CF81E00895FA
:1048D00082E0089583E00895FC0180915F03909148
:1048E000600386179707A0F06115710529F4809180
:1048F000E8008E778093E80090E06115710551F42F
:10490000911108C08091E80082FF33C080E00895D3
:10491000BC01F2CF809158038823B9F18530B9F1F9
:104920008091E80083FD2FC08091E80082FDEACFEE
:104930008091E80080FFE1CF2091F20030E0611526
:10494000710519F02830310558F091E02830310513
:1049500009F090E08091E8008E778093E800CDCF59
:1049600084918093F1003196615071092F5F3F4F20
:10497000E6CF80915803882341F0853041F0809143
:10498000E80083FFBFCF81E0089582E0089583E0CF
:104990000895982F953028F08F708093E90081E07A
:1049A00008959093E900242F762F50E0981731F066
:1049B0007091EC002091ED005091F00021FD02C0BB
:1049C0009F5FE8CF3091EB003E7F3093EB0030915A
:1049D000ED003D7F3093ED003091EB00316030937E
:1049E000EB007093EC002093ED005093F0002091C9
:1049F000EE0027FDE5CF80E008958091590387FF01
:104A000013C08091E80082FF06C08091E8008B7798
:104A10008093E80004C0809158038111F2CF08957B
:104A2000809158038823D9F38091E80080FFF8CF64
:104A30008091E8008E77ECCF2091E4003091E50082
:104A400095E6A9012091EC00822F817020FF06C01D
:104A50008091E80080FF06C080E008952091E80082
:104A600022FD1AC080915803882389F0853089F08F
:104A70008091EB0085FD0FC02091E4003091E500AE
:104A800042175307F9F29150E1F684E0089582E06D
:104A9000089583E0089581E008950E94AA250E9468
:104AA000AD25E0EEF0E0808181608083E8EDF0E00C
:104AB00080818F77808319BCE3E6F0E0808181609C
:104AC00080831092570308950E94AA250E94AD2565
:104AD0008091D8008F778093D8008091D80080682B
:104AE0008093D8008091D8008F7D8093D80084E097
:104AF00089BD86E089BD09B400FEFDCF1092580340
:104B000010925403109256031092550342E060E055
:104B100080E00E94C9248091E1008E7F8093E100B3
:104B20008091E20081608093E2008091E2008860E1
:104B30008093E2008091E0008E7F8093E0000895F2
:104B4000E3E6F0E080818E7F808381E080935703ED
:104B50000C9464251092E20008951092E1000895EB
:104B60001F920F920FB60F9211242F933F934F93E2
:104B70005F936F937F938F939F93AF93BF93EF93C5
:104B8000FF938091E10082FF0BC08091E20082FFE1
:104B900007C08091E1008B7F8093E1000E94F7279E
:104BA0008091E10080FF19C08091E20080FF15C074
:104BB0008091E2008E7F8093E2008091E20080612C
:104BC0008093E2008091D80080628093D80019BC65
:104BD00085E0809358030E9431228091E10084FF98
:104BE0002BC08091E20084FF27C084E089BD86E06D
:104BF00089BD89B5982F917080FFFBCF8091D80037
:104C00008F7D8093D8008091E1008F7E8093E100BA
:104C10008091E2008F7E8093E2008091E2008160CB
:104C20008093E20080915403882309F443C084E018
:104C3000809358030E9439228091E10083FF29C0AC
:104C40008091E20083FF25C08091E100877F8093FF
:104C5000E10082E080935803109254038091E100B8
:104C60008E7F8093E1008091E2008E7F8093E2004E
:104C70008091E20080618093E20042E060E080E0A9
:104C80000E94C9248091F00088608093F0000E9407
:104C90002F22FF91EF91BF91AF919F918F917F91C3
:104CA0006F915F914F913F912F910F900FBE0F9099
:104CB0001F9018958091E30087FD93E0909358032F
:104CC000B9CF1F920F920FB60F9211242F933F93DB
:104CD0004F935F936F937F938F939F93AF93BF9304
:104CE000CF93DF93EF93FF93D091E900DF70809132
:104CF000EC00C82FC17080FDC0E81092E9008091DF
:104D0000F000877F8093F00078940E94A52610928F
:104D1000E9008091F00088608093F000CD2BCF7087
:104D2000C093E900FF91EF91DF91CF91BF91AF91D7
:104D30009F918F917F916F915F914F913F912F91B3
:104D40000F900FBE0F901F9018951F93CF93DF9376
:104D5000CDB7DEB7AA970FB6F894DEBF0FBECDBFB2
:104D600089E593E02091F100FC012193CF01F3E06C
:104D700081369F07B9F70E9457228091E80083FF90
:104D80001EC18091590390915A039A3008F017C1BF
:104D9000E92FF0E0EA51F74D0C945528803899F04E
:104DA000823809F00CC180915D038F70853008F066
:104DB00006C18093E9008091EB0085FB882780F98C
:104DC0001092E90006C0809155039091560391110D
:104DD00082609091E800977F9093E8008093F100C3
:104DE0001092F1008091E8008E77E5C0882309F4E5
:104DF000D3C0823009F0E3C080915B038111D6C03B
:104E000080915D038F702FEF280F243008F0D7C0FA
:104E10008093E9002091EB0020FFC8C0933031F46B
:104E20008091EB0080628093EB00C0C09091EB001A
:104E300090619093EB0021E030E001C0220F8A9551
:104E4000EAF72093EA001092EA008091EB00886074
:104E5000EACF8111B4C010915B031F778091E3000A
:104E60008078812B8093E3008091E800877F809396
:104E7000E8000E94FD248091E80080FFFCCF809133
:104E8000E30080688093E30082E0111183E0809367
:104E9000580395C08058823008F091C080915B0320
:104EA00090915C038C3D23E09207A1F583E08A8317
:104EB0008AE289834FB7F894DE01139620E03EE042
:104EC00051E2E32FF0E050935700E49120FF03C03C
:104ED000E295EF703F5FEF708E2F90E0EA30C0F008
:104EE000C7968D939D932F5F243159F74FBF8091C3
:104EF000E800877F8093E8006AE270E0CE010196C7
:104F00000E9410248091E8008B778093E80057C0BE
:104F1000C096E7CF60915D0370915E03AE014F5F75
:104F20005F4F0E945123BC01892B09F448C0909126
:104F3000E800977F9093E80089819A810E946C2411
:104F4000E1CF8038E1F58091E800877F8093E80029
:104F5000809154038093F10045CF811130C090912E
:104F60005B03923060F58091E800877F8093E800D2
:104F7000909354030E94FD2480915403882311F0E0
:104F800084E005C08091E30087FDFACF81E0809343
:104F900058030E94432213C080915B03813079F44F
:104FA00081E0933009F080E0809356031092E9008D
:104FB0008091E800877F8093E8000E94FD24809123
:104FC000E80083FF0AC08091E800877F8093E800B3
:104FD0008091EB0080628093EB00AA960FB6F89464
:104FE000DEBF0FBECDBFDF91CF911F910895089511
:104FF000CF93809158038823A1F0C091E900CF702E
:105000009091EC00892F817090FD80E8C82B109260
:10501000E9008091E80083FD0E94A526CF70C0932F
:10502000E900CF910895002480FD060E660F11F06F
:105030008695D1F7802D08950024552704C0080EC9
:10504000591F880F991F009729F076956795B8F337
:105050007105B9F7802D952F0895AA1BBB1B51E14F
:1050600007C0AA1FBB1FA617B70710F0A61BB70BD8
:10507000881F991F5A95A9F780959095BC01CD017D
:10508000089597FB072E16F4009407D077FD09D0FA
:105090000E942D2807FC05D03EF4909581959F4FE6
:1050A0000895709561957F4F0895EE0FFF1F05904D
:1050B000F491E02D0994FC014150504030F00190F2
:1050C0000616D1F73197CF010895882799270895BB
:1050D000FB01DC0104C08D910190801921F4415045
:1050E0005040C8F7881B990B0895FB01DC010D9017
:1050F0000020E9F7119701900D920020E1F7089543
:10510000FB01DC018D91019080190110D9F3990BFD
:105110000895FB01DC0101900D920020E1F7089554
:10512000F999FECF92BD81BDF89A992780B508956F
:10513000A6E1B0E044E050E00C94CA28A8E1B0E059
:1051400042E050E00C94CA28262FF999FECF92BD78
:1051500081BDF89A019700B4021639F01FBA20BD3C
:105160000FB6F894FA9AF99A0FBE08950396272F6E
:105170000E94A5280E94A428252F0E94A528242F3C
:105180000C94A5280196272F0E94A5280C94A428EA
:10519000DC01CB01FC01F999FECF06C0F2BDE1BDF7
:1051A000F89A319600B40D9241505040B8F70895E6
:1051B000F894FFCF460A460A770A770A0A0B260BAD
:1051C000A60AA60A310BBD0BCC0BCC0BCE26F626BD
:1051D000DF27F626DF2729274A27DF27A127AD2744
:1051E00001FA00E803FA00FA00FFFFC800FB0228FA
:1051F0000850011E0A1401000200020201AA21CF78
:1052000021AE212B222722AD21012E2E2D2D2D0066
:105210002D2D2D2E2E002D2D2D2D2D002D2E2E2E13
:105220002D002D2E2D2D2E002D2E2D2D2D002D2D32
:105230002E2D2D002D2D2D2E2D002E2D2D2E2D0021
:105240002E2D2E2D2E2D002D2D2E2E2D2D002D2DE3
:105250002D2E2E2E002E2E2D2E2D002E2E2D2D2ECF
:105260002E002E2E2D2D2E002E2D2E2E2D2E002EEC
:105270002D2D2D2D2E002D2E2E2E2E2E002E2D2EB0
:105280002E2E2E002E2E2D2E2E2E002E2E2E2D2E9C
:105290002E002E2E2E2E2D2E002E2E2E2E2D2D00BB
:1052A0002D2E2D2E2E002E2E2E2E2E2E2E2E002E7C
:1052B0002E2E2E2E2E2E2D002D2E2E2E2E2E2E2E3E
:1052C000002E2E2D2E2E2D002E2E2D2E2D2E002E8C
:1052D0002E2D2E2D2D002E2E2D2D2D2E002E2E2D51
:1052E0002D2D2D002E2D2D2E2E2D002E2D2D2E2D43
:1052F0002E002D2E2E2E2D2E002D2E2E2E2D2D005D
:10530000E200E900EA00B500B600B700CD00830175
:10531000CC008A0192019401210223022402250279
:10532000260227022A02B300B4006F0070008182B7
:1053300083E200E900EA00B500B600B700CD0083C3
:1053400001CC008A0192019401210223022402254A
:1053500002260227022A02B300B4006F0070008107
:1053600082830001020202020606060909090909F0
:02537000090032
:00000001FF
