:100000000C946B020C94A3020C94A3020C94A30214
:100010000C94A3020C94A3020C94A3020C94A302CC
:100020000C94A3020C94A3020C94A3020C946B25D1
:100030000C9427250C9439260C94A3020C94A3024B
:100040000C94A3020C94A3020C94A3020C94152606
:100050000C94A3020C94A3020C94A3020C94A3028C
:100060000C94A3020C94A3020C94A3020C94A3027C
:100070000C94A30205010902A10185020901A10056
:10008000050919012905150025019505750181024C
:100090009501750381010501093009311581257F1D
:1000A00095027508810609381581257F9501750827
:1000B0008106050C0A38021581257F950175088196
:1000C00006C0C005010980A101850319012AB700F6
:1000D000150126B700950175108100C0050C0901B6
:1000E000A101850419012AA002150126A00295018B
:1000F00075108100C005010906A1018506050719D3
:10010000E029E71500250195087501810205071909
:100110000029EF1500250195F075018102050819E8
:10012000012905950575019102950175039101C09D
:100130000660FF0961A1010962150026FF009520F4
:10014000750881020963150026FF00952075089146
:1001500002C005010906A101050719E029E71500FC
:100160002501950875018102950175088101050732
:10017000190029FF150026FF009506750881000566
:1001800008190129059505750191029501750391DD
:1001900001C0FD377A585A000004E6D6B446020082
:1001A000210116000000742FE5A3E0009F00865D8A
:1001B000003D8889C65436C3174FE4D21B7F3F46A3
:1001C0000123A262F14142485BAF01162AE5A7D3A1
:1001D0007C4B2F42E9CD245931D6E0BB4D25B2D31B
:1001E000F6B1868262CDE3C92C1C1237278CB9FC8C
:1001F0008038AA74A79E9E6458BE5D442E687D66B2
:10020000D123CD656540288BA944E0875AE01E655F
:10021000076B4A882BA999B32460A8C1C0FCC4A16C
:100220009BDC1A9A240F0E54A7888F7A4FB8A4CB60
:10023000196C6B2C3193000000008EBB08C688C57A
:1002400066A50001A201A0010000BA3E48E6B1C4C3
:1002500067FB020000000004595A01000100010080
:100260000100010001000100010001000100010086
:100270000100010001006203590C8B0C0000020018
:1002800002005E03590C8B0C0000030001006303A5
:10029000590C8B0C0000040002004803590C8B0C15
:1002A0008E05050001006403590C8B0C000006004C
:1002B00002004A03590C8B0C000007000200600387
:1002C000590C8B0C0000080001006503590C8B0CC5
:1002D0000000090002004C03590C8B0C69050A0050
:1002E00002004E03590C8B0C69050B0002005003F1
:1002F000590C8B0C69050C0002005203590C8B0C35
:1003000069050D0002005403590C8B0C69050E00A1
:1003100002005603590C8B0C69050F0002005803AC
:10032000590C8B0C6905100002005A03590C8B0CF8
:100330006905110002005C03590C8B0C6905120061
:1003400002006603590C8B0C0000130002006803C6
:10035000590C8B0C0000140001006A03590C8B0C23
:100360000000150000000000ED041B13000009024E
:100370005B00030100A0FA09040000010301010071
:100380000921110100012240000705810308000135
:1003900009040100020300000009211101000122EB
:1003A0002200070582032000010705030320000146
:1003B00009040200010300000009211101000122CB
:1003C000BC000705840320000112010002000000A8
:1003D00008575042330000010203011C03760069F4
:1003E0000061006C003A00660036003400630032A1
:1003F0000062003300630000000E03330062006FF0
:10040000006100720064000000160350004C0049B7
:10041000005000200057006F0072006B0073000056
:1004200000040309040000000000000000000000B8
:1004300000000000000000000000000000000000BC
:100440000000000000000000007E0F00D4FFFFFF4E
:10045000C70000007800000000000000002A2B28E0
:10046000000000000000000000000000000000008C
:1004700029000000002C1E342021222434262725A8
:100480002E362D3738271E1F2021222324252633E0
:1004900033362E37381F0405060708090A0B0C0DE2
:1004A0000E0F101112131415161718191A1B1C1DF4
:1004B0002F3130232D350405060708090A0B0C0DD2
:1004C0000E0F101112131415161718191A1B1C1DD4
:1004D0002F3130354C0011241FBECFEFD4E0DEBFEA
:1004E000CDBF04B603FE18C08091C8039091C90324
:1004F000A091CA03B091CB038730904BA740B04B7B
:1005000059F41092C8031092C9031092CA031092B2
:10051000CB03E0E0F8E3099523E0A6E6B1E001C0F3
:100520001D92A83CB207E1F711E0A0E0B1E0E8EECF
:10053000FDE502C005900D92A636B107D9F70E94DD
:1005400060260C94A02E0C9400002091E4003091C1
:10055000E50095E6A9012091EC00822F817020FF33
:1005600006C08091E80080FF06C080E008952091D9
:10057000E80022FD1AC08091C503882389F08530E8
:1005800089F08091EB0085FD0FC02091E40030914F
:10059000E50042175307F9F29150E1F684E008951F
:1005A00082E0089583E0089581E00895EF92FF923C
:1005B0000F931F93CF937C018B010E94A502C82F3C
:1005C000811117C08091E80085FD0BC08091E80083
:1005D0008E778093E8000E94A502882399F3C82FA4
:1005E00008C0F70181917F018093F100015011094A
:1005F00049F78C2FCF911F910F91FF90EF900895A5
:10060000CF932091C5032430F9F4C091E900CF7055
:100610003091EC00232F217030FD20E8C22B22E026
:100620002093E9002091E80020FF0BC050E040E05B
:1006300060E270E00E94D6028091E8008E7780939D
:10064000E800CF70C093E900CF9108958091BD0379
:1006500087FF13C08091E80082FF06C08091E80008
:100660008B778093E80004C08091C5038111F2CF9D
:1006700008958091C5038823D9F38091E80080FF15
:10068000F8CF8091E8008E77ECCF982F9093E90017
:10069000242F762F50E0891731F07091EC002091D3
:1006A000ED005091F00021FD07C09F5F953071F77C
:1006B0008093E90081E008953091EB003E7F309314
:1006C000EB003091ED003D7F3093ED003091EB0079
:1006D00031603093EB007093EC002093ED00509369
:1006E000F0002091EE0027FDE0CF80E00895FC01AE
:1006F000CB012091C3033091C4032617370790F034
:10070000009729F42091E8002E772093E80040E03C
:10071000009751F4411108C08091E80082FF30C079
:1007200080E00895C901F3CF2091C5032223A1F1F0
:100730002530A1F12091E80023FD2CC02091E80094
:1007400022FDEACF2091E80020FFE2CF2091F200C5
:1007500030E0009719F02830310558F041E028309A
:10076000310509F040E02091E8002E772093E80061
:10077000CFCF41914093F10001972F5F3F4FE9CFD9
:100780008091C503882341F0853041F08091E800D5
:1007900083FFC2CF81E0089582E0089583E0089549
:1007A00008958091990308959C014FB7F894809122
:1007B0008F0390919003A0919103B09192034FBF4A
:1007C000821B930B0895A4E0B0E0E9EEF3E00C94F3
:1007D000F92D8FB7F89420918F03309190034091B9
:1007E00091035091920329833A834B835C838FBF9B
:1007F00069817A818B819C812496E2E00C94152E8C
:100800002FB7F89480918F0390919003A09191035A
:10081000B09192032FBF08959C0180911801882305
:10082000C1F08091930387FF14C0E62FE695E6950B
:10083000E695603FF8F4E20FF32FF11D677021E0B9
:1008400030E001C0220F6A95EAF78281822B828311
:100850000895F90132968FEF90E04191641751F0BD
:100860008F3F19F4411101C0892F9F5F9630A9F77E
:100870008F3F09F40895280F311D87FD3A95F9013E
:100880006283089520918C0330918D0328173907D6
:1008900071F090938D0380938C03E0918A03F09123
:1008A0008B03309721F00084F185E02D09950895A0
:1008B00020918803309189032817390771F09093AC
:1008C000890380938803E0918A03F0918B0330972A
:1008D00021F00680F781E02D09950895E0918A03C3
:1008E000F0918B03309729F00190F081E02D09956C
:1008F000089580E00895CF93DF93D82FC92F4091BA
:1009000078035091790360917A0370917B032FB73C
:10091000F89480918F0390919003A0919103B091EE
:1009200092032FBF841B950BA60BB70B843F9140FE
:10093000A105B10518F58091780390917903A091F4
:100940007A03B0917B038093740390937503A09313
:100950007603B093770384EF91E0A0E0B0E080935A
:10096000700390937103A0937203B0937303D093B9
:100970007F03C0938003DF91CF9108950E94E3032A
:100980006093740370937503809376039093770359
:1009900082E390E0A0E0B0E0E2CFFC018481862316
:1009A00051F482818823B9F06823908593FF05C0B4
:1009B00081E061110FC080E00895282F2F7082958B
:1009C0008F70282B962F9F7062956F70692B81E036
:1009D0002613F1CF089581E0FDCFB0E0A0E0E3EF72
:1009E000F4E00C94EF2D4B018FEF9FEF4430510555
:1009F00008F46AC04091930341FB882780F990E096
:100A0000880F991F42FB002700F910E0000F111F0B
:100A1000000F111F802B912B40FBAA24A0F8B12CB2
:100A2000A82AB92A43FB882780F9C82FE0E0DE2FE7
:100A300053E0CC0FDD1F5A95E1F7CA29DB2944FBAF
:100A4000AA27A0F9B0E064E0AA0FBB1F6A95E1F7FE
:100A5000AC2BBD2B45FBEE27E0F9F0E075E0EE0F87
:100A6000FF1F7A95E1F7EA2BFB2B46FB222720F9A3
:100A700030E0A6E0220F331FAA95E1F72E2B3F2B83
:100A800047FB442740F950E05695542F442757958B
:100A90004795242B352B80919403982F9170D92E54
:100AA000C22ED32A86958170F82EFF0CE12CCE2819
:100AB000DF280D2C000CEE08FF08F401C082D18263
:100AC000E282F38290E080E0CDB7DEB7ECE00C94F8
:100AD0000B2EE8E4F3E0848195812AE030E0B9014F
:100AE0000E94B42D60931401868180931301828546
:100AF0008093120184858093110186859785B901C1
:100B00000E94B42D60931001808980930F01828927
:100B100080930E01848980930D010895809148038C
:100B20009091490390931601809315010895E6E290
:100B3000F2E090E080E06CE874E243EB54E22FEFE7
:100B400033E277836683518740873387228795878F
:100B5000848701963E968830910599F7089581150E
:100B60002CE5920741F42091210330912203232B9D
:100B700011F490E080E008950E940004209110029A
:100B800030911102232B21F080930C0290930D02DF
:100B90002091120230911302232B21F080930A023C
:100BA00090930B02E0918A03F0918B03309749F008
:100BB00082E080930E020480F581E02D8EE092E0C9
:100BC0000995089590911002803F59F48091110287
:100BD00087FF0DC01092110291110BC010920802F4
:100BE00008C0813F81F48091110218169CF399236B
:100BF00081F08091120290911302892B09F064C058
:100C0000109207020895823F49F497FFF0CF1092A7
:100C10001002809111028111ECCFE0CF833F19F4D3
:100C20001916ACF3E4CF20911202893F29F4121671
:100C3000F4F610921202DBCF8A3F19F427FFD7CFC8
:100C4000F8CF209113028B3F29F427FFD0CF1092C9
:100C50001302CDCF8C3F19F41216CCF3C8CF843FCA
:100C600031F480910F028E7F80930F02C0CF853FB9
:100C700021F480910F028D7FF7CF863F21F4809180
:100C80000F028B7FF1CF873F21F480910F02877F86
:100C9000EBCF883F21F480910F028F7EE5CF8D3F0F
:100CA00031F4809109028E7F80930902A0CF8E3F9C
:100CB00021F4809109028D7FF7CF8F3F09F097CF04
:100CC000809109028B7FF0CF08958091090280FF07
:100CD0000CC060910E0170E07595679575956795EC
:100CE0006115710559F1862F089581FF06C0609145
:100CF0000E0170E075956795F3CF60910E0170E07D
:100D000082FD0CC0609107026623A9F020910D01BD
:100D100080910E0190E0621730F0BC0160387105DF
:100D2000F8F28FE7089570E00E94A32D622F70E023
:100D30000E94C82DF3CF61E070E0D5CF81E0089527
:100D400080910902209150033091510380FF13C01C
:100D50008091120190E0B9010E94A32D9C0136956B
:100D600027953695279520383105A0F521153105B1
:100D700099F1822F089581FF0AC08091120190E0BD
:100D8000B9010E94A32D9C0136952795ECCF82FFD7
:100D900008C08091120190E0B9010E94A32D9C012E
:100DA000E2CF809108028823F1F240911101609115
:100DB000120170E0841710F0C901EFCF90E00E949B
:100DC000A32DB9010E94A32D642F70E00E94B42DC1
:100DD0009B01C9CF8FE7089581E00895803F31F4EA
:100DE0000E94A0068195809311020895813F19F415
:100DF0000E94A006F8CF823F31F40E94A0068195A0
:100E0000809310020895833F19F40E94A006F8CF42
:100E1000893F29F40E9465068093120208958A3F53
:100E200021F40E9465068195F7CF8B3F31F40E9433
:100E3000650681958093130208958C3F19F40E94F2
:100E40006506F8CF843F31F480910F028160809372
:100E50000F020895853F21F480910F028260F7CF41
:100E6000863F21F480910F028460F1CF873F21F407
:100E700080910F028860EBCF883F21F480910F02B0
:100E80008061E5CF8D3F31F48091090281608093CC
:100E9000090208958E3F21F4809109028260F7CF04
:100EA0008F3FB9F7809109028460F1CF80E0089507
:100EB0009091930392FF06C0282F28712830F9F4EF
:100EC000877F846093FF06C0282F28712831F1F4B2
:100ED000877E84612091940320FF06C0382F3871EB
:100EE0003830D9F4877F816021FF06C0282F287110
:100EF0002831D1F4877E816194FD877E0895282F63
:100F000024712430F9F68B7F8860DCCF282F247180
:100F1000243101F78B7E8861DDCF382F317131307C
:100F200019F78E7F8860E0CF282F2171213121F7BA
:100F30008E7E8861E1CFCF93DF93EC01803E9105F7
:100F400009F467C058F58133910509F4AFC090F4F6
:100F50008932910509F49FC08A9709F4AEC0C13067
:100F6000D10509F469C0CE010497813A910508F0D2
:100F70005CC062C08933910509F43FC08238910595
:100F8000E1F1C59709F482C0C83AD10508F09CC0C8
:100F9000C53AD10520F3A497D0644EC0843E910594
:100FA00009F459C070F4823E910509F441C0833EB2
:100FB000910509F445C0CE01805E91090897A8F516
:100FC0003BC0863E910509F451C0873E910509F466
:100FD00052C0811522E5920708F0AAC0811531E5BB
:100FE000930708F0FFC08F3F910511F008F07BC018
:100FF000803F910548F2D0651FC0809193038370B4
:1010000009F024C18091940383FF16C0C9E2D0E0A7
:1010100013C08091930380FD46C09091940390FF8C
:101020000BC0C3EED0E084FF07C0D0E0C0E004C036
:101030008091930382FDF5CFCE01DF91CF9108958A
:101040008091930382FDFFC09091940390FDFEC0B8
:1010500084FFF2CFEACF8091940381FFEDCF80919E
:101060009303C7EED0E084FDE0CFE6CF80919303F9
:1010700083FDF7CFE1CF8091930383FDEAC0909188
:10108000940391FFE5CFC4EED0E0D6CF80919303D7
:1010900085FFD2CFBBCF8091930385FDDDC08091CA
:1010A000940383FFC9CFC9E3D0E0C6CF80919303F7
:1010B00086FFC2CFCAE2D0E0BFCF8091930386FF04
:1010C000BBCFC1E3D0E0B8CFCF3BD10508F073CFA1
:1010D000C85AD0E0CC0FDD1FCA5DDE4F0990D88121
:1010E000C02DD464A9CF811540E5940758F481152B
:1010F00050E4950708F073C09A9581159F4108F454
:101100009BCF93CF282F26952695237030E0B5E00E
:10111000220F331FBA95E1F78370C1E0D0E002C01F
:10112000CC0FDD1F8A95E2F7C22BD32BDD6884CF6D
:10113000811536E5930760F5811545E5940708F0BC
:101140006AC0811554E59507F0F4982F9695969509
:101150009E0123703327C115D34508F048C0C1E074
:10116000D0E0AE0102C0440F551F2A95E2F79A0164
:10117000C92FD0E0A5E0CC0FDD1FAA95E1F7C42B65
:10118000D32BDC6859CFD82FCC27C46FD06A54CF6B
:1011900081155AE5950788F4C11589E5D80708F047
:1011A00044C0CE0198558F3F910511F008F03DCF16
:1011B000DC2FCC27C06FD06A3FCF9056811590426C
:1011C00008F033CF8D2F8F710E94580790E0982F31
:1011D000882788279F719C012C2BE90124C0DF7090
:1011E000D06A2ACFD82FCC27C16FD06A25CFC1E0D3
:1011F000D0E0AE0102C0440F551F2A95E2F79A01D4
:10120000C92FD0E065E0CC0FDD1F6A95E1F7C42B54
:10121000D32BDA6811CF0E945807C82FD0E0DC2FFB
:10122000CC27CC27DF71D06207CF8C2F8F700E9424
:10123000580734E0D695C7953A95E1F7CF70DC2F83
:10124000C82FD069F9CEC2EED0E0F6CEC0EED0E025
:10125000F3CEC6EED0E0F0CEC5E3D0E0EDCE809187
:10126000EE01882331F01092EE011092ED01109200
:10127000EC010895CF93C82F8091940382FF0CC096
:101280008091EE018C1741F00E9400049093ED01D3
:101290008093EC01C093EE01CF910895982F909523
:1012A0008091C60389238093C6030895982F909553
:1012B0008091270389238093270308959091270322
:1012C000982B9093270308951092CB011092CA0196
:1012D0001092C901089580914A0390914B03892B84
:1012E00091F00E9400042091EC013091ED01AC01DD
:1012F000421B530B9A0181E040914A0350914B03EA
:101300002417350708F480E0817008959091180142
:101310009923E1F09091930397FF18C0E82FE69589
:10132000E695E695803FF0F4F0E0E859FE4F8770CF
:1013300021E030E0A90102C0440F551F8A95E2F771
:10134000CA0180959281892382830895EAE6F1E0BB
:101350009191891303C0DF0111971C9251E0E0378E
:10136000F507B1F70895CF93A82FB62F2091C801A4
:10137000C09197012C1303C080E0CF91089530E015
:10138000C90166E070E00E94A32DFC01E856FE4F03
:1013900081818B1306C080818A1303C082818413EC
:1013A00004C02F5F3F4F2770E5CF81E0E6CF452B8C
:1013B00039F0682381E06F3F09F080E08170089583
:1013C00081E0FCCF8091C80190919701981301C0F2
:1013D00008958F5F8770FACF682F892F91111CC0F5
:1013E0006330D8F4EEE8F1E050E040E0219130E0E5
:1013F000062E02C0369527950A94E2F7217033270E
:10140000042E01C0220F0A94EAF7822B4F5F5F4F30
:101410004330510559F7089580E00895911121C096
:101420008330F8F421E001C0220F8A95EAF7EEE854
:10143000F1E050E040E070E03191DF011197CB0125
:10144000042E02C0969587950A94E2F781708195E3
:101450008327822383278C934F5F5F4F433051054F
:1014600059F70895282F92959F70963091F060F467
:10147000925F9F70923030F481E0203F81F030F431
:10148000283E30F080E008959A5FF3CF243FD1F7F3
:10149000089581E0283EE0F3213FA1F7F9CF0895B8
:1014A0009C019A9581159F4150F5D901AA27B170E9
:1014B000F901EE27F270B90166277470A90144277B
:1014C000587034FF0EC080E1AB2B09F480E0EF2BA5
:1014D00009F08062672B09F08064452B89F08068F1
:1014E000089581E0AB2B09F480E0EF2B09F08260D6
:1014F000672B09F08460452B19F08860089580E01F
:101500000895809395037093970360939603809159
:10151000C5038430F9F48093E9008FEF9091E800DF
:10152000815095FD06C095ED9A95F1F70000811167
:10153000F5CF8091E80085FF0DC050E040E063E00A
:1015400070E085E993E00E94D6028091E8008E77F2
:101550008093E8000895BC0184E00E94810A089508
:10156000BC0183E00E94810A089524E02093E900F1
:101570002FEF3091E800215035FD06C035ED3A954A
:10158000F1F700002111F5CF2091E80025FF0BC0F5
:1015900050E040E066E070E00E94D6028091E800F2
:1015A0008E778093E8000895CF93DF93D82FC92FCB
:1015B000809118018823C1F18091930387FF34C083
:1015C00060E284E08093E9008FEF9091E800815021
:1015D00095FD06C095ED9A95F1F700008111F5CFC4
:1015E0008091E80085FF1DC08091180170E050E0F7
:1015F00040E0811104C050E040E068E070E08D2FD1
:101600009C2F0E94D6028091E8008E778093E8009C
:1016100080E2ED2FFC2FAAE9B3E001900D928A95AC
:10162000E1F7DF91CF91089568E081E0CBCF81E0D1
:101630008093E00080E28093D8001092C9008FE18F
:101640009EE40197F1F700C0000087E090EBDC0119
:101650008093C8039093C903A093CA03B093CB03AC
:1016600088E19CE00FB6F894A895809360000FBEC7
:1016700090936000FFCF9C012150310908F4089538
:101680008FE99FE00197F1F700C00000F5CF0F93BD
:101690001F93CF93DF9308E413E0CFE3D0E0CE01B4
:1016A0000E94562EF80181938F012196C336D105F1
:1016B000B1F7CCE7D2E0FE0185919491009711F04B
:1016C000FC0109952C96F3E0C837DF07A1F7DF91FD
:1016D000CF911F910F9108950F931F93CF93DF9395
:1016E000843018F5611121C04330F8F490E066E0D1
:1016F00070E00E94A32D50E0440F551F8C01040F91
:10170000151FC80187960E94562EC82FD0E0DC2FE7
:10171000CC27C80188960E94562E9E01282BC9010D
:10172000DF91CF911F910F91089590E080E0F8CF65
:10173000462F2091250330912603232B99F4703FE7
:1017400039F4603F79F48091230390912403089544
:10175000843040F4711106C0633020F460E00E94D0
:101760006C0B089580E090E00895B0E0A0E0EBEB12
:10177000FBE00C94F42D7C010091C7038091EF01F4
:10178000082BC7E0D0E010E0DC2EC8010C2E02C010
:10179000959587950A94E2F780FD09C02197A0F7F7
:1017A000D12C8D2DCDB7DEB7E7E00C94102EB7010C
:1017B0008C2F0E94980B0E949B07019779F3F1CF21
:1017C000CF93DF93D82FC92F0E94B50B6D2F7C2F9D
:1017D0000E94980B0E949B07DF91CF910895CF93B1
:1017E000DF93EC014B815C81698188810E94D7097C
:1017F000811109C0888199810E94E00B0E94320A00
:10180000DF91CF91089580E0FBCFA5E0B0E0EBE061
:10181000FCE00C94F82D49835A8389819A816623D0
:1018200099F0222389F00E94B50B182F682F898127
:101830009A810E940E0A69817A81812F0E94980BF9
:101840002596E3E00C94142E0E94EC09182FF3CF98
:10185000FC01262F408151816281738184810E9425
:10186000050C089583E290E00E94562E843189F49D
:1018700084E290E00E94562E843D59F485E290E087
:101880000E94562E91E0873709F090E0892F8170F1
:10189000089580E0FCCFCF9384E090E00E94562E24
:1018A000C82F82E290E00E94562E982F8C2FCF9165
:1018B00008959C01CB01BA01F901329645915491EA
:1018C0006417750748F0F9013496659174910E9488
:1018D000362E90E080E008958FEF9FEF08950F93EC
:1018E0001F93CF93DF9308E413E0CFE3D0E0CE0162
:1018F0000E94562EF80161918F01681719F0CE01F0
:101900000E94642E2196C336D10589F7DF91CF91CD
:101910001F910F9108959C01DA010296FC014591F7
:101920005491FC0185919491A817B90758F0F901D9
:101930003496859194910E94362E0E946F0C90E00F
:1019400080E008958FEF9FEF0895CF93DF93C3E07A
:10195000D1E060E0CE010E94642E2196C11584E0A2
:10196000D807B9F7DF91CF9108951F93CF93DF93F5
:10197000122F8430C8F4611117C04330A8F490E0EE
:1019800066E070E00E94A32D50E0440F551FEC016B
:10199000C40FD51F632FCE0187960E94642E612F3E
:1019A000CE0188960E94642EDF91CF911F910895F9
:1019B000CF93C82F6FEF811164E183E290E00E9422
:1019C000642E6FEFC11164ED84E290E00E94642EFA
:1019D0006FEFC11167E785E290E00E94642ECF911E
:1019E0000895CF93682FC92F84E090E00E94642E61
:1019F0006C2F82E290E00E94642ECF910895362FE2
:101A0000272F883088F490E06AE070E00E94A32DD0
:101A1000BC016D597F4F4AE050E0832F922F0E9406
:101A2000462E90E080E008958FEF9FEF0895AAE0A2
:101A3000B0E0EDE1FDE00C94F92D9C0197558F3F4E
:101A4000910509F070F4BE016F5F7F4F822F0E94F5
:101A5000FF0C892B31F489859A852A96E2E00C9453
:101A6000152E8091600390916103F7CFAAE0B0E05A
:101A7000ECE3FDE00C94EF2D09EA12E087E9C82EB3
:101A800082E0D82E93EBE92EF12C26E0922E36E957
:101A9000A32E32E0B32E88248394D6010D931D9398
:101AA0006D014AE050E0B701CE0101960E94462E3A
:101AB000F8013996DF01892D1D928A95E9F7898110
:101AC0009A81D80111969C938E938F8112968C9354
:101AD00012978D8113968C931397888514968C9307
:101AE0001497898515968C9315978B819C811796F1
:101AF0009C938E93169718961C9218978A8587FF49
:101B00003CC01E961C921E921D9780FF03C0D801F8
:101B100018968C9281FF04C0F8019085926090879E
:101B200082FF07C0D80118969C9118979460189668
:101B30009C9383FF04C0F80190859860908784FF90
:101B400007C0D80118969C911897906118969C939D
:101B500085FF04C0F801808580628087015F1F4F88
:101B6000FAE0EF0EF11C83E0E81681E0F80609F0D8
:101B700094CF2A96ECE00C940B2EF801B686A5863D
:101B8000C4CFE4E5F1E041E030E021912F3F89F05E
:101B9000A22FA295AF70B0E090968C9190E02F703C
:101BA00002C0959587952A95E2F780FD2AC0842F7B
:101BB000382B440F81E0E735F80739F78091F401BD
:101BC000831709F13093F40181E08093F2010E94C0
:101BD00000049093F1018093F0018091F0019091C5
:101BE000F1010E94D403059790F08091F401909147
:101BF0000602981771F08093060281E01092F201BC
:101C0000089580E0D5CF8091F2018111E6CF80E088
:101C1000089580E0F3CFCF93809127039091C6037E
:101C2000892B809368018091EE01882329F18091AE
:101C30004A0390914B03892B29F00E946B09811173
:101C40000E942F09809168019091EE01892B809369
:101C5000680180911801882309F447C0809193039B
:101C600087FF43C08EE1EAE6F1E090E0815008F0A2
:101C70003EC091110E942F09C0917C03C0958091B4
:101C80006801C82380917D03C82BC093680140E29E
:101C900050E06CEC71E088E691E00E94292E892BDF
:101CA00011F180E2E8E6F1E0ACECB1E001900D92D8
:101CB0008A95E1F7E0918A03F0918B03309799F0D0
:101CC00080911801882349F08091930387FF05C014
:101CD000C093690186E0809368010280F381E02D62
:101CE00088E691E00995CF91089586E0BCCF2191D7
:101CF000222309F4BBCF9F5FB9CFCF93DF93EC01D1
:101D0000EA85FB85309719F06C857D8509958B8177
:101D10000E944E098C810E9456090E940B0E86E09B
:101D2000FE0111928A95E9F7DF91CF910895CF9343
:101D3000DF93EC018D8181FD15C082608D838091E0
:101D4000C6039B81892B8093C6038C810E945E0908
:101D50000E940B0EE885F985309721F06C857D8512
:101D6000CE01099510928703109286038D8180FD24
:101D700003C0CE010E947D0EDF91CF910895809126
:101D80001701877F8093170182E00E944E0980919E
:101D9000170184FF06C08F7E8093170182E00E94A6
:101DA0005E098091170185FF06C08F7D8093170122
:101DB00080E20E945E090E940B0E089590E080E090
:101DC0000E94580490E080E00E9442041092C603F2
:101DD0000E940B0E86E0EEE0F2E0DF011D928A9594
:101DE000E9F71092080210920702109209020E946D
:101DF000BC0508958093C7030E94DE0E089580916C
:101E0000C703982F9670963021F488600E94FA0ECE
:101E10000895877FFBCF21E030E001C0220F8A9533
:101E2000EAF720958091C70382230E94FA0E089555
:101E30009091CB01809589238093CB01282F277027
:101E400091F4282F082E000C330B9217130659F02B
:101E50009091940392FF07C08595859585950E9482
:101E60000B0F0E94640908959091940392FB22271E
:101E700020F9281769F080FB92F9909394038091E0
:101E80009303909194030E94F10C82E00E94180F3A
:101E9000089521E030E001C0220F8A95EAF7809191
:101EA000C703822B0E94FA0E0895962F2091940367
:101EB00022FF10C0682F660F660F660F692B6093B4
:101EC000CB010E94490F0E9400049093CA018093A5
:101ED000C90108950E94490F08958093EF010E945F
:101EE000DE0E08951092270380911801EAE6F1E0D2
:101EF000882361F08091930387FF08C08EE1DF01A2
:101F00001D928A95E9F70E94DE0E089586E0F7CFCC
:101F1000AAE2B0E0EEE8FFE00C94F82D8DEB93E040
:101F2000FC0101962091F100208323E0853C92077B
:101F3000B9F78091BE03893009F456C0C8F48230E5
:101F400009F4B1C0833009F480C0813071F180910F
:101F5000E80083FF8FC28091BD039091BE039A3049
:101F600008F088C2E92FF0E0EE55F14D0C94DC2D1D
:101F70008A3009F487C08B3051F78091BD038132DC
:101F800031F78091C1039091C203892B01F78091B1
:101F9000E800877F8093E8000E9426038091BF03BA
:101FA000809318010E94720FD2CF8091BD03813AB5
:101FB00071F68091E800877F8093E8008091C103EB
:101FC0009091C203892B61F460E28AE993E070E0AA
:101FD0000E9477038091E8008B778093E800B7CF69
:101FE00060E090E080E0F3CF8091BD03813209F0A2
:101FF000AECF8091C1039091C2038D7F892B09F0F0
:10200000A6CF8091E800877F8093E8008091E80068
:1020100082FF16C08091F200823031F48091F1008D
:10202000813011F0863021F48091F1008093990382
:102030008091E8008B778093E8000E94260387CF89
:102040008091C5038111E2CF82CF8091BD03813A97
:1020500009F07DCF8091C1039091C203892B09F0D3
:1020600076CF8091E800877F8093E8008091E80038
:1020700080FFFCCF809118018093F1008091E800EF
:102080008E77D9CF8091BD03813209F060CF8091E6
:10209000E800877F8093E8000E9426038091C003B8
:1020A0008093980354CF8091BD03813A09F04FCFBC
:1020B0008091E800877F8093E8008091E80080FFAE
:1020C000FCCF80919803D8CF803899F0823809F0FE
:1020D000D1C18091C1038F70853008F0CBC180934E
:1020E000E9008091EB0085FB882780F91092E900D8
:1020F00006C08091BA039091BB03911182609091C8
:10210000E800977F9093E8008093F1001092F1002F
:102110008091E8008E77AAC1882309F498C18230A3
:1021200009F0A8C18091BF0381119BC18091C103B7
:102130008F702FEF280F243008F09CC18093E900A6
:102140002091EB0020FF8DC1933031F48091EB00A2
:1021500080628093EB0085C19091EB009061909339
:10216000EB0021E030E001C0220F8A95EAF72093CE
:10217000EA001092EA008091EB008860EACF8111BA
:1021800079C11091BF031F778091E3008078812B84
:102190008093E3008091E800877F8093E8000E94AD
:1021A00026038091E80080FFFCCF8091E3008068E7
:1021B0008093E30082E0111183E08093C5035AC14C
:1021C0008058823008F056C14091BF035091C0033F
:1021D0004C3D83E05807A1F583E08A838AE2898336
:1021E0004FB7F894DE01139620E03EE051E2E32F72
:1021F000F0E050935700E49120FF03C0E295EF70A8
:102200003F5FEF708E2F90E0EA30C0F0C7968D935D
:102210009D932F5F243159F74FBF8091E800877F4E
:102220008093E8006AE270E0CE0101960E94770395
:102230008091E8008B778093E8001CC1C096E7CFBF
:102240008091C1039091C203252F3327233031059C
:1022500009F44AC078F52130310509F486C08BE5D0
:1022600090E0EEE6F3E02230310509F003C1209161
:10227000E800277F2093E8002091C3033091C40336
:102280008217930708F49C0140E02115310509F0FD
:1022900071C041116FC08091E80082FDC9CF80916B
:1022A000C503882329F2853019F28091E80083FF65
:1022B000F2CFBECF2132310509F448C022323105B8
:1022C00009F0D8C08330910508F0D4C0FC01EE0FAE
:1022D000FF1FE65AFE4F0190F081E02D895A9E4F74
:1022E000DC018C9190E026C0CA019927423031F17F
:1022F0008330910568F40097B1F0019709F0BAC0F6
:10230000E9E0F4E0E4918E2F90E0E9E0F4E012C01F
:10231000039709F0AFC0EBEDF3E0E4918E2F90E06E
:10232000EBEDF3E007C0E1E2F4E0E4918E2F90E002
:10233000E1E2F4E0009709F49DC099CFE9EFF3E002
:10234000E4918E2F90E0E9EFF3E0F4CF8330910534
:1023500008F090C0880F991FFC01E05AFE4F0190D1
:10236000F081E02D89E090E082CF82E190E0E9EC1D
:10237000F3E07DCF8091C503882309F459CF8530E0
:1023800009F456CF8091E80083FD52CF8091E80098
:1023900082FD81CF8091E80080FF77CF8091F200AD
:1023A00090E02115310519F08830910550F041E099
:1023B000089709F040E08091E8008E778093E8006C
:1023C00064CF44914093F100319621503109019638
:1023D000E8CF803809F04EC08091E800877F809375
:1023E000E8008091BC038093F10092CE811142C03D
:1023F0001091BF031230F0F58091E800877F809341
:10240000E8001093BC030E942603112311F084E01E
:1024100005C08091E30087FDFACF81E08093C5037A
:1024200042E061EC81E00E94450342E261EC84E01D
:102430000E94450342E261EC82E00E94450342E2D1
:1024400060EC83E00E9445038091C50313C0809136
:10245000BF03813079F481E0933009F080E080930C
:10246000BB031092E9008091E800877F8093E80029
:102470000E9426038091E80083FF0AC08091E80053
:10248000877F8093E8008091EB0080628093EB006F
:10249000AA96E3E00C94142EE8E4F3E0128E138E77
:1024A0008FEA90E09183808325E0248F88E893E190
:1024B000938382838AE090E09583848344E150E0B3
:1024C0005783468348E050E051874087938782874F
:1024D0006EE170E0758764879787868780E590E076
:1024E000918B808B538B428B48E250E0558B448B11
:1024F00042E350E0578B468B48EC50E0518F408FC1
:10250000158E178E168E91A380A322A30E946F0CA6
:102510000E94720F1092940310929303E4E9F3E087
:1025200080818460808380919303909194030E94C2
:10253000F10C0E94470B0895A4E1B0E0E2EAF2E159
:102540000C94EF2D809021039090220381E090E085
:1025500090932203809321038AE5A82E82E0B82E6F
:10256000F12CE12C650110E0F60125913491412F09
:1025700060E08E2D0E94B50C82E0C80ED11C1F5F5A
:10258000133091F7EFEFEE1AFE0AF6E0AF0EB11C32
:1025900084E0E816F10431F70E944C121A82198285
:1025A0001C821B821E821D8218861F8288EC90E08E
:1025B0009A87898703E610E04AE050E0B801CE012F
:1025C00001960E94882E065F1F4F033B1105A1F75D
:1025D0007E01EBE0EE0EF11C89E0F70111928A9585
:1025E000E9F78FEF9FEF988B8F8787E08C8B4AE01E
:1025F00050E0B801C7010E94882E065F1F4F0330CC
:10260000F1E01F07A1F790922203809221036496C4
:10261000ECE00C940B2E80E00E94D80C60E086E287
:1026200090E00E94642E0E949C120E94A50C81E002
:102630000E94D80C0895CF92DF92EF92FF92FB0197
:102640008FEF9FEF4430510508F47FC0C080D180E8
:10265000E280F3800E94720FD701C601B695A7955C
:10266000979587958170282F220FD701C601817019
:102670009927AA27BB27822BB701A60132E07695BE
:102680006795579547953A95D1F74170440F440F98
:10269000842BB701A601E3E076956795579547959A
:1026A000EA95D1F74170440F440F440F842BB701D2
:1026B000A601F4E07695679557954795FA95D1F779
:1026C00041704295407F842BB701A601A5E0769525
:1026D000679557954795AA95D1F741704295440F54
:1026E000407E842BB701A601B6E076956795579595
:1026F0004795BA95D1F741704295440F440F407CFD
:10270000842BB701A60197E0769567955795479575
:102710009A95D1F7479544274795842B8093930347
:10272000D1FA882780F9880F9D2D9170892B90917F
:1027300094039C7F892B80939403809193039091C1
:1027400094030E94F10C90E080E0FF90EF90DF9006
:10275000CF9008950E94720F2FEF84E39CE02150E8
:1027600080409040E1F700C0000088E19CE00FB697
:10277000F894A895809360000FBE90936000FFCFFF
:10278000882321F00E944E090E940B0E0895882391
:1027900039F09091C603892B8093C6030E940B0EDB
:1027A0000895882321F00E9456090E940B0E089577
:1027B000882321F00E945E090E940B0E0895882351
:1027C00079F19CEF980F913A28F40E9486090E94B3
:1027D0000B0E089590E2980F983050F4877091E0B6
:1027E00001C0990F8A95EAF7892F0E945609EFCF09
:1027F0009BE5980F933028F490E080E00E94580405
:10280000089598E5980F973128F490E080E00E94B1
:1028100042040895803F20F00E94E2050E94BC051A
:102820000895FF920F931F93CF93DF93F82E00919B
:102830008103109182030115110509F449C010921A
:10284000800310927F0310927C0310927D03D801C5
:102850001696CD91DC91CE019A9581159F4108F491
:10286000D07ED1E0C11101C0D0E0D8011996ED9120
:10287000FC911A97309731F01B966D917C9180E016
:102880000995D823DD2339F08CEF8C0F813A30F590
:102890008C2F0E948609FF2099F0E0918103F0912E
:1028A0008203808584FD0CC080917E03882341F0E3
:1028B000808191819C0121503109203B3D45A0F050
:1028C0000E940B0E109282031092810310927E03DD
:1028D000C801CDB7DEB7E5E00C94122E0E940B0EB6
:1028E0008C2F0E94DF13D7CF0E947B04E9CFCF93B8
:1028F000DF93EC010E94DF13CE010E94500A9E017B
:10290000205E31092830310510F0CD2B29F40E94CA
:10291000D113DF91CF9108950E94C013FACFCF93C6
:10292000C82F8823C9F18CEF8C0F813AB8F58091BC
:102930001801882301F18091930387FF1CC0EC2FBD
:10294000E695E695E695F0E0E859FE4F828190E045
:102950004C2F477021E030E002C0220F331F4A9510
:10296000E2F782239323892B81F08C2F0E94860922
:102970000E940B0E0AC0EAE6F1E080E791E02191A7
:10298000C21799F38E179F07D1F76C2F88E691E055
:102990000E940C040E940B0ECF91089580E28C0FD0
:1029A000883048F4C77081E001C0880FCA95EAF703
:1029B0000E945E09EFCF8BE58C0F833038F42C2F0B
:1029C0002452330BC9010E945804E6CFE8E5EC0F0E
:1029D000E73150F4F0E0EE0FFF1FEA5DFE4F80811B
:1029E00091810E944204D8CFC03FB0F28C2F0E9448
:1029F000EE060E94BC05D0CF0F931F93CF93C82F34
:102A00000091680310916903893321F000916603F6
:102A1000109167038C2F0E948F140115110539F452
:102A20008C2F0E94DF13CF911F910F9108958FE992
:102A30009FE00197F1F700C0000001501109EDCFB0
:102A4000B0E0A0E0E6E2F5E10C94F22DEC01288183
:102A5000222309F490C02130D1F599818A819130E7
:102A600021F422960E94FC1405C0923029F422968B
:102A70000E948F142196EBCF933021F422960E946E
:102A8000DF13F8CF943011F02196F4CF229650E066
:102A900040E0FE013196682F6053770B9B016A304E
:102AA000710550F04150510928F38FE99FE00197DB
:102AB000F1F700C00000F6CFCA016AE070E00E94A2
:102AC000A32DA901480F591F8981EF01E2CFE22F01
:102AD000F0E0EB5AFB4FB490822F86958695869551
:102AE00090E0FC01EB5BFB4FE4902770F12C022E91
:102AF00002C0F594E7940A94E2F731E0E322FF2460
:102B0000FC01EB5CFB4FC490D12C022E02C0D5948B
:102B1000C7940A94E2F761E0C622DD24FC01EB5D74
:102B2000FB4F049110E002C0159507952A95E2F736
:102B300001701127E114F10419F081EE0E948F1445
:102B4000C114D10419F086EE0E948F148B2D0E94BF
:102B5000FC14C114D10419F086EE0E94DF13E114B5
:102B6000F10419F081EE0E94DF130115110509F43B
:102B700081CF8CE277CFCDB7DEB7E9E00C940E2E93
:102B8000B0E0A0E0E6ECF5E10C94F12D7C01B62E6E
:102B9000172FC42FA22EFC0182818823A9F0409315
:102BA00085030E9400049093840380938303C7707D
:102BB00081E001C0880FCA95EAF70E94D813CDB70B
:102BC000DEB7EAE00C940D2ED0918503D41336C005
:102BD00080918303909184030E94D4036C01B70118
:102BE0008B2D912F0E94170DC816D90638F5C0E21B
:102BF000CA0DDA15A1F0D77011E0812F01C0880F3E
:102C0000DA95EAF70E94D113C83048F48A2D87700C
:102C100001C0110F8A95EAF7812F0E94D813802FE7
:102C20000E94FC14C83058F62A2D277081E001C09C
:102C3000880F2A95EAF70E94D113C1CFC77081E0AF
:102C400001C0880FCA95EAF7F6CFCF93DF93EC0166
:102C50000E94500A9E01205E31092830310510F093
:102C6000209741F40E94D8138C2F0E948F14DF917B
:102C7000CF9108950E94C713F7CF662329F02091C2
:102C8000C60322602093C6039C013056211540E202
:102C9000340720F0305E2115304108F499270E9456
:102CA00025160895B0E0A0E0E8E5F6E10C94F42DD7
:102CB000EC018B01D42E8091170182FF89C0E09036
:102CC0006E03F0906F03EC16FD0619F0209709F0E3
:102CD0007FC0809117018B7F80931701C1E081FD38
:102CE00010C080916C0390916D039801281B390BE3
:102CF000C1E080911501909116012817390708F459
:102D0000C0E0C17080911701C0FB81F98093170169
:102D1000F70183E0F695E7958A95E1F7EE71FF27D5
:102D2000E85DFC4F20813181A7014F70552781E07C
:102D300090E002C0880F991F4A95E2F7CC2309F46E
:102D400042C0822B932B918380838091270381FF44
:102D500008C08091170180618093170182E00E9472
:102D600056098091270385FF08C080911701806272
:102D70008093170180E20E9456096C2FC7010E94C0
:102D80003D16DD2031F08091630385FF02C086FF90
:102D900038C080916603909167030E943B0B80913D
:102DA0006E0390916F039C013056211540E2340769
:102DB00020F0305E2115304108F499270E947714E5
:102DC0000E94BF0E1AC08095909582239323BBCF9B
:102DD000CE019056811520E2920720F0905E811579
:102DE0009041A0F4CE0199270E94771480916E0340
:102DF00090916F038C179D0719F310936D03009347
:102E00006C03CDB7DEB7E7E00C94102ECE01ECCF0B
:102E100068EE7EEF90E080E00E94822E60E082E02B
:102E200090E00E94642E60E083E090E00E94642EB7
:102E30001092EF0160E084E090E00E94642E64E074
:102E400082E290E00E94642E60E085E090E00E94C3
:102E5000642E60E086E090E00E94642E6FEF87E0D1
:102E600090E00E94642E40E050E0BA0188E090E0DB
:102E70000E94762E60E08DE090E00E94642E40E09B
:102E800050E0BA0188E190E00E94762E60E087E190
:102E900090E00E94642E40E050E0BA018CE190E0A6
:102EA0000E94762E70E060E080E290E00E94822E28
:102EB00040E050E0BA0188E190E00E94762E80E088
:102EC0000E94D80C0E940B1340E050E0BA018FE042
:102ED00090E00E94762E40E050E0BA0183E190E05D
:102EE0000E94762E0895A7E0B0E0E9E7F7E10C94A0
:102EF000E92D7C01DC0113964D915C91149711969C
:102F00006C9111978C910E94D7098111F6C061E0F4
:102F1000C7010E94280C8C01F70182818823F9F0F7
:102F200080918603909187030097C9F008171907CD
:102F3000B1F099276EE070E00E94A32D9C01FC0186
:102F4000E55DFD4F808184608083C9018A5D9D4F6E
:102F5000DC010D931C930E94970E1092C603F7019B
:102F60008281882311F40C940E20C80182519F4560
:102F7000409710F00C9402208FEF93E00E94562EA1
:102F80008111ACC06EEED62ED00E03E011E0D11050
:102F90003CC08091190190911A01A0911B01B09140
:102FA0001C0189839A83AB83BC8368012FEFC21A0B
:102FB000D20AC8010E94562E89831A82882309F4F6
:102FC0008DC0813009F07FC0580142E0A40EB11CD1
:102FD000C6010E94562EC82E8A83882309F47EC01B
:102FE000C5010E94562ED82E8FEF8C0D8330D8F459
:102FF000580153E0A50EB11CDB82DD2021F0CE018B
:1030000001960E9420158501D0CF0115F4E01F071D
:1030100009F464C0C8010E94562E811101C0DA94DF
:103020000F5F1F4FB4CF8BEF8C0D833030F5C8018D
:103030000396DB825C01DD2031F35801A4E0AA0E87
:10304000B11C0E94562E8C838823E9F28B819C81CF
:103050008130BFEF9B0710F0982F8827E6E0CE164F
:1030600031F0F7E0CF1631F00E947924CCCF0E94E6
:103070005324C9CF0E94DA23C6CF24E0C212C3CFA3
:10308000580144E0A40EB11CC80103960E94562EBC
:10309000DD2021F1882311F18150990B6FEF70E051
:1030A0000E94A32DAD2DA150BB0B9D01280F391FF0
:1030B0002150310908F4A7CFEFE9FFE03197F1F78C
:1030C00000C00000F5CFCE0101960E9420155601E8
:1030D0009ACF81E00E94490F0E94FF0E8091CB01A0
:1030E000877059F0F7018281882339F08091940329
:1030F00082FF03C082E00E94180F2796E2E10C9441
:10310000052E81E00E940B0FE7CF82E0FBCF8230DB
:1031100009F0C2C78091200290912102892B09F405
:10312000BBC7C6016EE070E00E94A32D9C01FC01AC
:10313000E55DFD4F80818E7F8083C9018A5D9D4F53
:103140000E94970EA9C781E080930001C7CF8091AC
:103150000001882309F45AC6480120EE821A91081A
:103160002090EE0180918B01282A80912703282A44
:1031700048E08416910408F086C098012770332730
:1031800081E090E001C0880F2A95EAF7332009F426
:1031900077C0282AD7018D919C910E94EC0921E0EB
:1031A00030E0390102C0660C771C8A95E2F7E091A5
:1031B0008103F0918203FF83EE8340908801509059
:1031C00089011D822D81E22FF0E0EE0FFF1FE956ED
:1031D000FD4FC080D180C114D10409F47DC62110F7
:1031E00005C0D60112968C91811189C0F6018381A8
:1031F00090E086219721892B09F481C08085982F42
:10320000977009F487E0F8E08F16910408F055C034
:10321000332009F44EC086958170882309F46FC06D
:10322000D601AD90BC900A151B0519F4332009F4A2
:1032300066C0EE81FF81CE16DF0609F460C0D601BC
:103240001D96ED91FC91309721F08081882309F43F
:1032500056C0622DC6010E94CD04882309F44FC0D8
:103260000A151B0509F06BC70115110509F46CC798
:1032700031106CC7A414B50409F041C0312C66C7E5
:103280008095282287CF332009F40FC61093890137
:10329000009388010E94E30360937803709379039D
:1032A00080937A0390937B031092800310927F03A4
:1032B00071CF82FB882780F9B0CF332001F1817074
:1032C000ACCF0E94DF1361C70497813A910558F48F
:1032D0006A2D88E691E00E940C04332009F496C51B
:1032E0000E940B0EFBCE0E940B0E8FE39CE9019710
:1032F000F1F700C000008A2D0E948F14EECF9D814F
:103300009F5F9D835FCFFC012081318102171307EE
:1033100009F075C5311075C510927E0380E00E94DA
:10332000111474C5902F812FBBC5C5016EE070E0EC
:103330000E94A32DFC01EA5DFD4F858181FFE0C560
:10334000C6010E947D0EDCC58091170181608093CB
:10335000170103C6809117018E7F809317010E9489
:10336000BF0EFBC5809117018F7E013E110531F024
:10337000053E1105E1F4809117018F7D80931701BF
:103380008091170180FFF8C5D70112968C91083201
:10339000110540F50E31110508F075C09801245053
:1033A00031092A31310580F18111E2C5E5C5C80135
:1033B00090568115B0E29B0720F0905E81159041F8
:1033C000F8F68091170182FFD7C58091650381FDD2
:1033D000D3C52BEF31E040E0B50190E080E00E94E2
:1033E0005216CAC50933110558F40D32110518F4E7
:1033F0000B321105C9F69091630392FDD5CF08C039
:1034000004361105C1F3D0CF9091630394FDCCCF66
:10341000882309F4ABC08091EE0190912703892B9A
:103420008D7FB1F110926F0310926E038091630350
:1034300081FD2EC0F80133E0F695E7953A95E1F766
:10344000EE71FF27E85DFC4F98012F70332781E074
:1034500090E002C0880F991F2A95E2F78095909519
:1034600020813181822393239183808360E0C8018E
:103470000E943D168091EE018D7F0E943A0982E004
:103480000E94180F2BCE9091630393FD8DCFC0CF78
:1034900086E0F701ABEFB1E001900D928A95E1F77C
:1034A0001092FD011092FF011092FE0180916E03B7
:1034B00090916F0308171907D1F52091630325FF39
:1034C00036C03091170131FF02C026FF30C0209175
:1034D0006C0330916D036501C21AD30AB7010E94D3
:1034E000170DC816D90618F58091270381FF08C06B
:1034F0008091170180618093170182E00E94560934
:103500008091270385FF08C0809117018062809316
:10351000170180E20E94560960911701669561705B
:1035200080916E0390916F030E943D16D7CD8091DC
:10353000EE01D0902703D82AD1FADD24D0F88D7F70
:103540000E943A0910936F0300936E03B0926D03CB
:10355000A0926C038D2D880F8460D0901701BD2D33
:10356000B97FDB2ED82AD092170189CF970140E08E
:10357000B501C8010E945216B1CD053F8CE5180770
:1035800021F1063F9CE5190731F1043FACE51A072C
:1035900009F008C507E225EE44EE64EF7CE505C0BE
:1035A00006E221EE41EE67ED7CE5C7010E94C01501
:1035B00095CD07E225EE45EE68ED7CE5F6CF06E217
:1035C00021EE40EE63EF7CE5F0CF06E221EE42EE25
:1035D00065EF7CE5EACF07E225EE46EE66EF7CE597
:1035E000E4CF08E221E045EE69ED7CE5DECFC801DD
:1035F0008A5F9C45099708F4ECC406314CE5140732
:1036000009F46FC580E00B35ADE51A0709F464C114
:1036100008F056C10E3DECE51E0709F46DC181E0CE
:103620000A35FDE51F0709F457C101151C4509F4CA
:1036300056C1D70112968C911297CD90DC908823B9
:1036400009F45DC1C6010E94B50B182F682FC60191
:103650000E940E0AB601812F0E94980B0E949B07C0
:10366000182F092F782EF701D280C580C2942FE041
:10367000C2228091CB018770C1F0AD2CDD20B1F06A
:10368000892F807F803421F080E2810F883068F0BC
:103690008091940382FF09C082E00E94180F8091FC
:1036A000CB018770AA24A3948111A12C802F82952D
:1036B0008F70882E912C8C3008F09DC1F401E45558
:1036C000F14D0C94DC2D053A8DE5180709F481C401
:1036D000C8018D5A9D45039708F47BC4073A1D45E0
:1036E00009F0A7CF0E94AA13F801E350FC4580918E
:1036F00093038160E331F10568F5E854F14D0C94D2
:10370000DC2D0330BDE51B0780F40A3FECE51E0706
:1037100008F46FC4F801EB5FFC45E830F10508F0F0
:103720003FC0E553F14D0C94DC2D0D3AFDE51F072C
:1037300029F198F401364DE5140709F4B0C09091D1
:103740009303892F8E7F90FF8160053A5DE5150711
:1037500009F04FC4809393034CC40E3A8DE51807CB
:1037600009F444C00F3A9DE5190709F042C490914D
:103770009403892F877F93FF886003C0809194030F
:1037800088608093940335C4809193038260E2CF74
:10379000809193038460DECF809193038860DACFB9
:1037A000809194038160EDCF809194038260E9CF92
:1037B000809193038061CECF809193038062CACFC2
:1037C000809193038064C6CF0E94720F809193030F
:1037D0008068C0CF809193038C60BCCF80919403AC
:1037E0008360CFCF809193038E7FB4CF8091940379
:1037F000877FC7CF809193038D7FACCF8091930358
:103800008B7FA8CF80919303877FA4CF809194036F
:103810008E7FB7CF809194038D7FB3CF8091930338
:103820008F7E98CF809193038F7D94CF8091930367
:103830008F7B90CF0E94720F809193038F778ACFF6
:1038400080919303837F86CF809194038C7F99CF5F
:103850008091930382FB992790F921E0922790FBB6
:1038600082F990FB83F976CF80919403982F9095FD
:1038700091708E7F892B90FB81F983CF0E94720F0C
:1038800090919303892F97FB87F9805863CF61E06C
:103890008EE090E00E94642EACC360E0F9CF90917E
:1038A0009303892F8F7E94FF806154CF80918A018A
:1038B000811104C089E20E94860912CD85E3FBCF05
:1038C0000C354DE5140709F009CF8091940382FB74
:1038D000882780F991E089270E94340FAACE0E94A0
:1038E000720F8FEF94E3ACE081509040A040E1F77D
:1038F00000C000000E94170B0E940817F3CEC601FB
:103900000E94EC09182FA6CEF02FFF70BF2E802F3B
:10391000807F19F0B29490EFB922DD20A9F0BB208E
:1039200059F080E2810F883010F0711007C08B2DA4
:103930000E945E090E940B0E812F5BC08091C6031E
:10394000B82AB092C603F6CF812F0E94DF13BB20A6
:1039500009F451C080E2810F883010F0711004C06A
:103960008B2D0E94560903C08B2D0E944E090E9488
:103970000B0E41C0202F2F70B22E802F807F8032FF
:1039800019F0B29480EFB822772029F141E0741643
:1039900009F4AFC0DD2009F4B8C0CC2009F480C020
:1039A00020E0D7014C9111965C91119712966C9181
:1039B000129713967C91139714968C910E94050C84
:1039C0008091650381FDB8CFF701858180FFB4CF79
:1039D0008F70858365C08091940382FD41C0DD2096
:1039E000C9F1BB2029F08B2D0E945E090E940B0EAD
:1039F00080E00E948F1448E0841A910854E08516F4
:103A0000910410F40E946E04812F902F0E94320ABC
:103A10008111CFC110928D0110928C01AA20A9F0C2
:103A20008091CB0180FD11C0F701128285958595AB
:103A300085950E94490FC7010E9473178091CB01A1
:103A40008595859585950E940B0F60E0C7010E94C2
:103A5000280C53CB80E00E94DF13BB2061F280CFA3
:103A6000DD2011F1C11004C08091EE018B2919C035
:103A700051E0C51206C08091EE018B290E943A09DF
:103A8000BACF80916403823078F3C812EDCF0E94E0
:103A90002F0990918B018B2D892B891380938B019A
:103AA0008B2D0E94D813A7CFC11003C00E942F09ED
:103AB00017C08091640391E0C91216C0823008F4E7
:103AC0009ACF809127038B2109F495CF0E942F096B
:103AD00090918B018B2D80958923891380938B0185
:103AE0008B2D0E94D11387CF823000F3C812DECF16
:103AF00082CF80916A03DD2021F08C1508F47BCF02
:103B0000CFCFC81608F077CFEBCFCC2049F3F9E33D
:103B10007F1247C180916803909169030E943B0B1B
:103B2000812F0E94DF1367CF802F86958695837043
:103B300069F0813009F05FCF812F902F9370D11001
:103B400002C090E080E00E94420455CF812F902F68
:103B50009370D11002C090E080E00E9458044BCFD7
:103B6000812FDD2029F00E94EE060E94BC0543CF84
:103B70000E94E205FACF802F837099F5D1103BCFD8
:103B8000412F429546954770440F440F812F8F7007
:103B9000042E01C0880F0A94EAF7212F207114FF28
:103BA00007C02FE030E001C0220F4A95EAF72095C8
:103BB000302F369536953370323071F0333051F006
:103BC0004091EF01313029F0822B84230E946D0F48
:103BD00012CF842B822BFACF282B8091EF018227E2
:103BE000F5CF8695DD2011F0802F8170882309F4B0
:103BF00002CF412F429546954770440F440F812FC5
:103C00008F70042E01C0880F0A94EAF7212F2071CB
:103C100014FF07C02FE030E001C0220F4A95EAF7F9
:103C20002095302F369536953370323071F0333021
:103C300051F04091C703313029F0822B84230E9438
:103C4000FA0ED9CE842B822BFACF282B8091C70372
:103C50008227F5CF202F2F70B22EDD2029F0822F62
:103C60000E94490F812F1DCF812F0E94D1138B2DD0
:103C70000E940B0FC0CE812F42EF7416B1F1471591
:103C800070F050EF7516D1F091EF791691F0DD20BC
:103C900009F482C0C11050CE802F8F712AC0A3EFCB
:103CA0007A1651F1B4EF7B12F2CF8091940382FD2A
:103CB0002FC0802F8F71DD20D9F21BC080916A0345
:103CC000DD2079F0C81608F096CE202F2F7181E004
:103CD00090E001C0880F2A95EAF79091C7038927E1
:103CE000AECF8C1508F487CEF0CF802F8F71D11016
:103CF000BFCF0E94490F7FCE80E0DD2009F49FCF27
:103D000081E0902F9F7101C0880F9A95EAF797CFB5
:103D100080916403823040F1DD20D1F09091CB019D
:103D20009770943041F40E946409802F8F710E9433
:103D30000B0FA12C60CEC816E0F7E02FEF71BE2E5E
:103D40008E2F0E94490F63E08B2D0E94550FF1CFFB
:103D5000C81630F00E94640964E0802F8F71F5CF9F
:103D600081E00E94180FE5CFDD2059F0F02FFF71A0
:103D7000BF2E8F2F0E94490F63E08B2D0E94550F9D
:103D80003ACE81E00E94180F21E02C1508F033CEC6
:103D900082E00E94180F2FCECC2041F0893309F425
:103DA000B9CE8091660390916703B8CE802F8F7152
:103DB0005FCFDD2019F0C1102DCE30CEC1102ACE3C
:103DC00020E0D7014C9111965C91119712966C915D
:103DD000129713967C91139714968C910E94050C60
:103DE0008091650383FF16CE80918C0190918D01A7
:103DF000029709F00FCE812F0E94FC140BCE3320C6
:103E000029F0DC0118968C9185FF88CAC801975566
:103E10008F3F910511F008F073C05801BB24C50114
:103E20006EE070E00E94A32DFC01AC014A5D5D4F85
:103E30006A01D70112968C91E55DFD4F908180FB60
:103E400090F99083882309F470CA0E94000490932B
:103E5000FA018093F901F60182818F5F828380915C
:103E6000C60390912703892B83838091EE0184837D
:103E70000680F781E02D309731F0D6011C966D91C8
:103E80007C91C6010995C5016EE070E00E94A32DEA
:103E9000FC01EA5DFD4F858181FF44CA90E080E02E
:103EA00090938603809387032BC080918801909123
:103EB00089010817190781F410928901109288016D
:103EC000109278031092790310927A0310927B0378
:103ED0001092800310927F0380918103909182035E
:103EE000009709F493CFA8E08A16910408F00BCA52
:103EF000622D0E94CD04811103C081E00E94111443
:103F00008091630380FF38C00E9400045C01F701C8
:103F10008281882309F426CA8091170182FF08C094
:103F20002BEF31E040E0B50190E080E00E945216B6
:103F30000B31FCE51F0709F407CA0C312CE5120709
:103F400009F408CA90911701892F8E7F90FF816034
:103F50000A314CE5140709F400CAC80190568115CE
:103F600050E2950728F0905E8115904108F008CA4C
:103F700010926F0310926E03033FECE51E0709F4E5
:103F80001ECB08F0FACA083D2CE5120709F411CB44
:103F9000093D4CE5140709F424CB073D5CE5150702
:103FA00009F4FECAF7013281332309F495C0109257
:103FB00085030136FDE51F0761F008F084CB06316B
:103FC0004CE5140708F013CB02305CE5150708F444
:103FD0002CCB0E944B0C9093940380939303063157
:103FE0009CE5190708F08DCB0230ACE51A0708F004
:103FF0007BCB80919303909194030E94F10C0E94DB
:10400000720F6CC80031BFE51B0709F462C80131AB
:10401000EFE51E0709F040C082E05CC80031FFE513
:104020001F0709F46EC801312FE5120709F46DC8A6
:10403000680127E5D21A4FEFC416D10409F060F5E4
:104040006CE172E08C2D0E94FF0C892B29F5C601D2
:104050006EE070E00E94A32DFC01EA5DFD4F8281BD
:10406000813009F054C880911C0290911D02892B67
:1040700099F080911E0290911F02892B69F0809126
:104080002002909121022091220230912302822B62
:10409000932B892B09F445C8D70112963C90332005
:1040A00009F455C80F35BDE51B0709F44CC80036A7
:1040B000EDE51E0751F00E35FDE51F0709F047C875
:1040C00080910001882309F43EC81092000180E02D
:1040D0000E9411140C946E1806315CE5150709F066
:1040E000A8CA80912703982F9A7A2091620320FF13
:1040F00004C0482F447409F090E021FF04C0482F09
:10410000417109F090E022FF04C0482F487809F07F
:1041100090E023FF03C0827209F090E0332309F49A
:10412000C5CB81E0911101C080E080938A0169E2F2
:10413000911165E388E691E00E940C04D1C8A114B6
:10414000B10409F097C8312CB12CA12C80E00E9459
:104150001114D0928203C092810381E080937E0388
:10416000D60115968C9180937C0331100EC0AB283C
:1041700061F0F601808191819C0124503109213A3E
:10418000310508F09EC80E948609D6011696AD90AA
:10419000BC90C5019A9581159F4110F4E0EEBE22B6
:1041A00077247394C5010197803B9D4508F0712CDD
:1041B000D6011996ED91FC911A97309731F01B9624
:1041C0006D917C9181E009957822772079F0F60154
:1041D000868197810E94500A80937D03C501F8E093
:1041E0008F16910408F070C80E947B040E940B0E89
:1041F00074C8EF92FF920F931F93CF93DF93809138
:104200009601807F31F480919301C091C8018111A2
:1042100007C0CDB7DEB7E6E00C94112E2196C7702B
:10422000809197018C17A9F310919101009192014F
:10423000E0909401F0909501A701602F812F0E94DA
:10424000D709D0E08111EACFCE0166E070E00E948C
:10425000A32DFC01E856FE4F81818013DFCF8081C2
:104260008113DCCF82818111D9CF038114810E1992
:104270001F0960E081E991E00E94280C61E971E08A
:104280000E94170D0817190748F6809196018F7044
:10429000806180939601CE0166E070E00E94A32DBC
:1042A000FC01E356FE4F90819F709061908381E9FD
:1042B00091E00E9473170E94E209ABCFABE0B0E03F
:1042C000E4E6F1E20C94EC2D8C0185E0F801DE01CE
:1042D000179601900D928A95E1F7D8015C9011969E
:1042E0006C9011971296EC9012971396CD90DC90EB
:1042F00060E081E991E00E94280C81E9A82E81E02C
:10430000B82E8090940190909501A4016091920143
:10431000809191010E94D70981115DC1F0909301B4
:10432000F601E819F9094F0160E0FF2009F40BC11B
:10433000C5010E94280CB5010E94170D70909601CE
:104340008816990608F0DAC04091940150919501C1
:10435000B0909101A0909201872D807F6A2D09F085
:1043600085C08B2D0E94D709FE2C81111DC0D8015C
:1043700011968C9111978A1117C08C918B1114C0D2
:10438000E11012C0872D8F7080618093960181E9C2
:1043900091E00E94731780919601F80185838F2D1B
:1043A0002B96EFE00C94082EA601662D852D0E9419
:1043B000D709D82E21E02E25811120E020FF18C03A
:1043C0004E2D662D852D0E94B309882389F080919A
:1043D000650380FF0DC081E991E00E94731786E0BC
:1043E000E1E9F1E0DF011D928A95E9F7F12CD7CFE1
:1043F00081E08E25D11080E0B82FB170DB2E80FFD8
:104400002CC04E2D662D852D0E94B309C82E81111A
:1044100024C05F8268868F8198850E94E00B292FD7
:1044200022952F70903248F0225F2F70223068F072
:10443000C8010E947317CD2C0EC09F7011F0882305
:1044400051F0805E883038F0F3CF9F70D1F3F801DF
:104450009581907FB1F7FC2CA2CFEE2009F49FCF7D
:1044600080919601816080939601C0CF8B2D0E9430
:10447000D709811119C0D80111968C9111978A1111
:1044800013C08C918B1110C0E1100EC015967C9258
:10449000C8010E94731786E0F801A1E9B1E001901C
:1044A0000D928A95E1F77BCFC8010E94EF0B88231C
:1044B00009F1EE20F9F080919601803270F02091A0
:1044C0009101309192013A8329831B82DD82CC8253
:1044D0008E83CE0101960E94731786E0F801A1E950
:1044E000B1E001900D928A95E1F70E94F920FF2436
:1044F000F39455CFC8010E947317F9CF872D807FA1
:1045000009F469CF909091018090920140919401BB
:1045100050919501682D892D0E94D7098111C4CF32
:10452000F80181818811C0CF80818911BDCFE11050
:10453000BBCF7582C8010E94731786E0D5011D921A
:104540008A95E9F72CCF81E991E00E94280C61E976
:1045500071E00E94170D8816990678F7FE2CEE2060
:1045600049F2E0909101D0909201409194015091D4
:1045700095016D2D8E2D0E94D70981111EC0F80165
:1045800081818D111AC080818E1117C080916503C1
:1045900082FD81CF8091960180FD7DCF982F907F05
:1045A00009F479CF8583903F09F472CF982F907FDB
:1045B000905F8F70892B85836BCFC8010E94EF0BB2
:1045C00081118BCF80919601816080939601C80103
:1045D0000E947317E4CEEE2009F48CCFC8010E942C
:1045E000EF0BF82E882309F485CF86E0F801A1E9C6
:1045F000B1E001900D928A95E1F78091910190913F
:1046000092010E94E00B0E94F920C9CECF92DF9266
:10461000FF920F931F93CF93DF93CDB7DEB76797CA
:104620000FB6F894DEBF0FBECDBF142F4B8B052FF6
:104630005C8BF62E6D8B7E8B8F8BCE88DF88A601F0
:10464000602F812F0E94D709811109C080918C01B0
:1046500090918D01019690938D0180938C01F110C2
:104660001092C6031A8A8091940382FF1EC0809123
:104670004A0390914B03892BC1F00E9400042091C2
:10468000C9013091CA01821B930B20914A033091DA
:104690004B038217930720F08091CB0182FF86C0E5
:1046A0000E946B0981110E942F091D870E87FF86CA
:1046B000D98AC88A86E0FE013D96DE0117960190F0
:1046C0000D928A95E1F7CE0107960E945E21811135
:1046D00037C086E0FE013796DE01119601900D92FB
:1046E0008A95E1F7DF80F8840A851B85A8016F2D84
:1046F0008D2D0E94D709811123C08091970190E0F0
:104700009C012F5F3F4F277033274091C80142170C
:10471000130651F1D982FA821D830C8366E070E0A2
:104720000E94A32DDC01A856BE4F86E0FE01319603
:1047300001900D928A95E1F7209397010E94E2097A
:104740008091C8019091970189131CC067960FB69C
:10475000F894DEBF0FBECDBFDF91CF911F910F91B7
:10476000FF90DF90CF9008950E94720F10929701F2
:104770001092C80186E0E1E9F1E0DF011D928A951F
:10478000E9F7DECF90E066E070E00E94A32D885646
:104790009E4F0E945E218823C9F28091C80190E05B
:1047A0000196877099278093C801CACF82E00E9442
:1047B000180F76CFA5E0B0E0E0EEF3E20C94F92D0F
:1047C0009093240380932303811520E2920730F411
:1047D0000E9477142596E2E00C94152E80EF8983D1
:1047E0008A831B820E9400048160782F9D838C83C2
:1047F00049815A816B818D810E940623EBCF0F93F3
:104800001F93CF93DF938C01EB016CE172E08C2F4F
:104810000E94FF0C892BA1F480916603909167039D
:104820000E943B0BDD27CC5EDD4F8881F8011282B0
:1048300018828330F1F048F4813059F0823081F0F1
:10484000DF91CF911F910F9108958430B9F0853099
:10485000B9F780911C0290911D02009789F306C060
:1048600080911E0290911F02009799F30E94DA2313
:10487000E7CF8091200290912102F6CF8091220211
:1048800090912302009791F720911C0230911D0214
:1048900080911E0290911F0221153105F1F20097BF
:1048A00029F7C901E3CFA5E0B0E0E9E5F4E20C9413
:1048B000F92D9093240380932303811520E292071E
:1048C00030F40E9425162596E2E00C94152E80EF18
:1048D00089838A8381E08B830E9400048160782F22
:1048E0009D838C8349815A816B818D810E9406232F
:1048F000EACFCF93DF93D82FC92F0E945324809102
:104900006603909167030E943B0B8D2F9C2F0E94A2
:10491000DA23DF91CF9108950F931F93CF93DF9305
:104920008C01862F6CE172E00E94FF0C892BB1F4A0
:10493000C0911C02D0911D02209781F0F801828164
:10494000833051F4CE010E947924CE010E94792453
:10495000CE010E94792402C08430D0F7DF91CF913C
:104960001F910F9108950F931F93CF93DF938C01A5
:10497000EB016CE172E08C2F0E94FF0C892B09F097
:104980005CC0FE01FF27D80112968C911297EC5E55
:10499000FD4F8130B9F415969C9192FF02C080833F
:1049A0000AC090FFFCCF82E0808380911E0290912C
:1049B0001F020097B9F480911C0290911D0200978C
:1049C000E1F110C08230B9F515968C9182FD28C0B6
:1049D00080FD0BC083E080838091200290912102B2
:1049E000009701F10E94532428C084E080838091C5
:1049F0002202909123020097A9F780911C029091C6
:104A00001D020097F9F00E94792480911E02909176
:104A10001F02009739F780911C0290911D02E2CF8E
:104A200085E0808380911C0290911D02009729F0FF
:104A30000E947924F0CF86E08083DF91CF911F918F
:104A40000F91089580911E0290911F02B8CF1F927E
:104A50000F920FB60F9211242F933F934F935F93B2
:104A60006F937F938F939F93AF93BF93CF93DF9376
:104A7000EF93FF93D091E900DF708091EC00C82F95
:104A8000C17080FDC0E81092E9008091F000877F3E
:104A90008093F00078940E94880F1092E900809132
:104AA000F00088608093F000CD2BCF70C093E900B8
:104AB000FF91EF91DF91CF91BF91AF919F918F9136
:104AC0007F916F915F914F913F912F910F900FBE0A
:104AD0000F901F9018951F920F920FB60F921124EE
:104AE0002F933F934F935F936F937F938F939F93F6
:104AF000AF93BF93EF93FF938091E10082FF09C0D2
:104B00008091E20082FF05C08091E1008B7F80935D
:104B1000E1008091E10080FF17C08091E20080FFFA
:104B200013C08091E2008E7F8093E2008091E200CA
:104B300080618093E2008091D80080628093D800E9
:104B400019BC85E08093C5038091E10084FF29C0F2
:104B50008091E20084FF25C084E089BD86E089BDA4
:104B600009B400FEFDCF8091D8008F7D8093D800DE
:104B70008091E1008F7E8093E1008091E2008F7E42
:104B80008093E2008091E20081608093E200809156
:104B9000BC03882309F441C084E08093C50380915D
:104BA000C5038091E10083FF27C08091E20083FF6D
:104BB00023C08091E100877F8093E10082E08093B1
:104BC000C5031092BC038091E1008E7F8093E100C9
:104BD0008091E2008E7F8093E2008091E20080610C
:104BE0008093E20042E060E080E00E944503809113
:104BF000F00088608093F000FF91EF91BF91AF913A
:104C00009F918F917F916F915F914F913F912F91E4
:104C10000F900FBE0F901F9018958091E30087FDB5
:104C200002C081E0BACF83E0B8CF78941F921FB65C
:104C30001F9211248F939F93AF93BF9380918F0303
:104C400090919003A0919103B09192030196A11DC0
:104C5000B11D80938F0390939003A0939103B09321
:104C60009203BF91AF919F918F911F901FBE1F9094
:104C700018951F921FB61F9211248F939F93AF9385
:104C8000BF9380918E03811113C080918F03909107
:104C90009003A0919103B09192034196A11DB11D83
:104CA00080938F0390939003A0939103B09392030A
:104CB000BF91AF919F918F911F901FBE1F9018952C
:104CC000CDB7DEB7E3970FB6F894DEBF0FBECDBF0A
:104CD00084B7877F84BF0FB6F894A8958091600051
:104CE000886180936000109260000FBE80E890E0C1
:104CF0000FB6F89480936100909361000FBE86E533
:104D000097E090936701809366010E9497050E9447
:104D1000360D0E94470B1092E2001092E100809144
:104D2000E00081608093E0008091D8008F778093CD
:104D3000D80019BC80916300816080936300109259
:104D4000F301809163008E7F8093630081E0809304
:104D5000F3011092E2001092E1008091D8008F7769
:104D60008093D8008091D80080688093D80080918B
:104D7000D8008F7D8093D80084E089BD86E089BD0E
:104D800089B5282F21702BAB80FFFACF1092C50375
:104D90001092BC031092BB031092BA0342E060E091
:104DA00080E00E9445038091E1008E7F8093E100C6
:104DB0008091E20081608093E2008091E20088604F
:104DC0008093E2008091E0008E7F8093E0008091EC
:104DD000E20084608093E20078948091C503882388
:104DE000A1F01091E9001F709091EC00892F817063
:104DF00090FD80E8182B1092E9008091E80083FD77
:104E00000E94880F1F701093E90082E084BD93E038
:104E100095BD9AEF97BD80936E000E94320C811170
:104E200002C00E940B13A4E5B1E047E551E061E048
:104E300070E08D918F3F91F0E82FE295EF70F0E0F8
:104E400011A18F709B0101C0220F8A95EAF7922F62
:104E50009095912391A382A1822B82A34A175B078D
:104E600041F7109206021092F40190E080E00E9457
:104E70005E2E883E9E4F21F40E94320C811102C0AA
:104E80000E94081782E090E00E94562E8093F7015E
:104E90000E944B0C90939403809393030E94C10D46
:104EA0008FE39CE90197F1F700C000000E94C10D5B
:104EB0008091060280FF08C06FEF7FEF90E080E0F6
:104EC0000E94822E0E94170B83E090E00E94562ED3
:104ED0000E946D0F81E091E090938B0380938A0391
:104EE000F8E16F2E712C8E010F5F1F4FDE011496BB
:104EF000BCA7ABA7FE013D96FEA7EDA78091C50319
:104F000074E0E72EE6E0FE2E853009F494C10E949D
:104F1000C10DC090F801F0900602CF1096C10E941A
:104F200000047C018091F5019091F601E816F906E4
:104F3000A1F08FEF89838A831B820E940004816025
:104F4000782F9D838C8349815A816B818D810E944A
:104F50000623F092F601E092F50180917F03909193
:104F60008003892B09F43EC040917403509175036E
:104F700060917603709177032FB7F89480918F0337
:104F800090919003A0919103B09192032FBF841B45
:104F9000950BA60BB70B4091700350917103609174
:104FA00072037091730384179507A607B707D0F0B3
:104FB00080917F03909180030E94251610928003B8
:104FC00010927F031092740310927503109276036F
:104FD0001092770310927003109271031092720373
:104FE00010927303C0908603D0908703C114D1043C
:104FF00061F18091F9019091FA010E94D4037C0142
:1050000086E0D8011D928A95E9F7B801C6010E9491
:10501000170D8E159F05C8F42091860330918703E4
:105020003327C9016EE070E00E94A32DFC01E55D0D
:10503000FD4F808182FD09C0C9016EE070E00E94D1
:10504000A32D8A5D9D4F0E94970E8091630380FF80
:105050001EC08091170182FF1AC00E940004BC018B
:1050600080916C0390916D039B01281B390B8091FB
:105070001501909116012817390748F02BEF31E000
:1050800041E080916E0390916F030E94521686E07A
:10509000EEE0F2E0D80101900D928A95E1F71092CE
:1050A00010021092110210921202109213028B81C0
:1050B0009C81892B91F080910C0290910D020E94AD
:1050C000D403FC0120910802222309F4E3C080915B
:1050D00013018E171F0608F4ECC08D819E81892B69
:1050E00091F080910A0290910B020E94D403FC017E
:1050F00020910702222309F421C180910F018E170C
:105100001F0608F42AC146E050E0B8018EE092E0A4
:105110000E94292E892B61F4809110029091110236
:10512000892B90911202892B90911302892B11F0F7
:105130000E94BC0586E0F801AEE0B2E001900D925D
:105140008A95E1F70E946E0490910102891721F07F
:10515000809301020E94E3038091C503843009F02B
:10516000CDCE83E08093E9008091E80082FFC6CE37
:105170008091E80090E085FF0AC00E94A50260E2ED
:10518000E62EF12C6801882309F436C19BA9809191
:10519000E8008B778093E800992309F4AFCEE09084
:1051A0002503F0902603E981E114F10409F432C1EA
:1051B000EE3F09F054C18A81833020F0855083305E
:1051C00008F04DC1EA81EE3008F049C1F0E0ED523F
:1051D000F14D0C94DC2D8091C503843011F11092B7
:1051E0008E03F0E40FB6F894A895609260000FBEAD
:1051F000F093600083B7817F846083BF83B7816051
:1052000083BF7894889583B78E7F83BF0FB6F89459
:10521000A895809160008861809360001092600082
:105220000FBE8091BB03882331F00E94C10D809195
:105230000602811133C48091C503853009F4CBCFB8
:105240000E94720F0E946E0462CECF24E12CDD24F6
:10525000D3948C2D8D21A1F0E9821A8291E08F2DBB
:105260008D2109F490E09B830E9400048160782FD7
:105270009D838C8349815A816B818D810E94062395
:10528000E394DD0C23E0E212E4CFF092F8010E94F7
:10529000E30363CE8091140190E06AE070E00E9425
:1052A000A32D8E179F0708F018CF2F5F20930802B9
:1052B00002C02F3FD1F7FB80FF2051F00E94A006D3
:1052C0006FEF1F140CF461E00E949A2D809310027E
:1052D000FC80FF2051F00E94A0066FEF1F140CF419
:1052E00061E00E949A2D8093110280911002882320
:1052F00009F4F3CE20911102222309F4EECE082EF8
:10530000000C990B65EB70E00E94A32D992371F0BE
:1053100090931002822F220F990B65EB70E00E9490
:10532000A32D992339F090931102D7CE81E0809379
:105330001002F0CF81E080931102CFCE8091100156
:1053400090E06AE070E00E94A32D8E179F0708F09E
:10535000DACE2F5F2093070202C02F3FD1F7FD80E6
:10536000FF2051F00E9465066FEF1F140CF461E0FE
:105370000E949A2D80931202FE80FF2051F00E941D
:1053800065066FEF1F140CF461E00E949A2D809364
:10539000130280911202882309F4B5CE20911302E2
:1053A000222309F4B0CE082E000C990B65EB70E0B7
:1053B0000E94A32D992371F090931202822F220F45
:1053C000990B65EB70E00E94A32D992339F090931F
:1053D000130299CE81E080931202F0CF81E0809396
:1053E000130291CE8091F100F60181936F01F1E0FB
:1053F000EF1AF10809F4CACE8091E80085FDF2CFDA
:105400008091E8008B778093E8000E94A5028823B2
:1054100099F3BCCEE43150F4EE2359F0E150E3317E
:1054200040F4F0E0EF51F14D0C94DC2DEE3F09F427
:10543000C9CE8FEF58C31A8289E08B8310C08A814E
:10544000823009F46FC3833071F0813091F70E948C
:10545000E3030E94E22D6B837C838D839E83C801CE
:105460000E9400034BCD8091210390912203892B50
:10547000B1F380910602E1CF8A818230D1F68B812F
:105480009C81AD81BE818FA798ABA9ABBAABBC01A3
:10549000CD010E94E22D86E290E00E94642EDFCFD3
:1054A0004C816B818A810E946C0B982789279827F1
:1054B0009E838D83D4CF2D813E81322723273227AF
:1054C0004C816B818A810E94B50CC9CF0E949C12CD
:1054D000C6CF80E18A83C3CF82E08A838DEFADCFD0
:1054E0008C81A82EB12C8D3108F0B9CFEA80FB80D9
:1054F000FE24EF24FE246801A00EB11EC7018D5FBB
:105500009E4FCA14DB0409F4AACFADEFEA16A2E05D
:10551000FA0658F40E94562EF6018483BFEFEB1A68
:10552000FB0AEFEFCE1ADE0AE9CFD60114961C92E1
:10553000F5CF8091210390912203892B09F48FCF1D
:105540008C81A82EB12C8D3108F089CFEA80FB80A8
:10555000FE24EF24FE246801A00EB11EC7018D5F5A
:105560009E4FAC14BD0409F47ACFFDEFEF16F2E0C4
:10557000FF0628F4D60114966C910E94642EBFEFAA
:10558000CB1ADB0AEFEFEE1AFE0AE8CF0E94A50C59
:1055900066CF84E09FCF8C81A82EB12C8D3108F08E
:1055A0005ECFEA80FB80FE24EF24FE246801A00E7B
:1055B000B11EC7018796CA14DB0409F450CFF8E185
:1055C000EF16F10460F40E94562ED60114968C93C7
:1055D000FFEFEF1AFF0A2FEFC21AD20AEACFF60145
:1055E0001482F6CF8C81C82ED12C8D3108F037CFA4
:1055F000EA80FB80FE24EF24FE2438E1E316F10468
:1056000008F02DCFC3018E199F098C159D0508F454
:1056100026CF270147E2440E511C8091210390912F
:10562000220316012E0C3F1C892BB1F06801C70123
:105630008796E214F30409F412CFA8E1EA16F10404
:1056400020F4F60164810E94642EFFEFCF1ADF0A76
:105650002FEFE21AF20AEBCF570181E0A822BB2418
:10566000E0FE0DC0C70186960E94562E9D818927B7
:105670009827892781159C4511F48FEF8D8346016A
:1056800020FE1AC0B1E08B1A9108E5E0F0E0EC0FC3
:10569000FD1FE80DF91DF8ABEFA7C2018C0D9D1D94
:1056A0000E94562EAFA5B8A99C9181159C4521F466
:1056B0008FEFEFA5F8A98083F801EA0DFB1D2FEF0E
:1056C000A814B90408F0B2CF9481858181159C4556
:1056D00011F42483258342E0A40EB11C3296F0CF4E
:1056E0008091210390912203892B09F4B8CEC8013F
:1056F0000E9400033FEF41EE84E031504040804083
:10570000E1F700C00000DECB88E0EDE1F1E0DE0172
:10571000919601900D928A95E1F784E1ADA5BEA521
:105720001D928A95E9F785E089831A821B821C8283
:1057300088E0FE01B196DE01159601900D928A95E2
:10574000E1F78DCE88EC89831A821B821C8287CE7A
:105750008C81682F70E0762F66278B81860F972FBC
:10576000911D092E000CAA0BBB0B55E0880F991F49
:10577000AA1FBB1F5A95D1F7AC01BD01405E5F4F18
:105780006F4F7F4F803EEFEF9E07AE07BE0708F0DA
:1057900066CE883C9105A105B10508F060CE493C74
:1057A00051056105710520F048EC50E060E070E0C3
:1057B000481B590BBC016E567E4FC8010E94202E1B
:1057C0004ECE4AE150E06FEF70E0CE0107960E94A6
:1057D0003F2E809121038983EA821B8281E08C83A2
:1057E0001D8282E08E833BCE81E090E09093260381
:1057F0008093250382E390E0909305028093040256
:105800000E940004909303028093020228CEEF28A6
:1058100051F1F090060280910202909103020E94E1
:10582000D4038536910540F1F2FE26C0F1FE24C076
:105830000E9400049093030280930202809104026C
:105840009091050201979093050280930402892BA1
:1058500051F4109226031092250381E090E090937A
:105860002203809321038091210389838091250362
:105870008A8380910402E1CD82E390E09093050257
:1058800080930402F0CF1092220310922103E7CDFF
:10589000EB80FC8040E250E06FEF70E0C8010E94B6
:1058A0003F2E22E732E090E080E0AC014E5F5F4F98
:1058B0004132510508F0D3CDF90165917491E61696
:1058C000F70630F4800F911FDC016D937C93CA01C1
:1058D000245F3F4FB3E02E363B0739F7C0CD2B8115
:1058E0003C8182E792E0FC014591549124173507F1
:1058F00009F4EAC00C96E3E08E369E07A1F799CD35
:105900008B819C8132E7E32E32E0F32EF701259163
:1059100034912817390709F4E8C0FCE0EF0EF11CB8
:105920002EE6E21623E0F20689F7CC24CA94DC2C9A
:10593000F7C00E944C1293CD8B81823009F453C082
:1059400060F4811138C08DE1ABA5BCA51D928A958C
:10595000E9F788E089831A8270CD853009F47DC02B
:10596000863009F07CCDFC808AE0FE013596DE01B0
:10597000919601900D928A95E1F78BA19CA10E94CE
:10598000AF059CA38BA3B7E08FEFBF1580F08F2DE1
:1059900090E06AE070E00E94A32DBC016D547F4F3F
:1059A0004AE050E0CE0181960E94882E80E08983F3
:1059B0000E94360D54CD8C819AE0D92E7E01B1E241
:1059C000EB0EF11CF7012D2D11922A95E9F7B70185
:1059D0000E94FF0C8983F701DE01129601900D925F
:1059E000DA94E1F73CCDFC808AE0FE013596DE01D9
:1059F000919601900D928A95E1F789A19AA10E9452
:105A0000AF059AA389A38BA19CA10E94AF059CA37B
:105A10008BA38DA19EA10E94AF059EA38DA38FA1F4
:105A200098A50E94AF0598A78FA337E08FEF3F1589
:105A300080F08F2D90E06AE070E00E94A32DBC0101
:105A40006D597F4F4AE050E0CE0181960E94882E2A
:105A500080E089830E94970502CD8C81FE01B1967A
:105A60009AE0DF011D929A95E9F78830A8F490E05A
:105A70006AE070E00E94A32DBC016D547F4F4AE0A4
:105A800050E0CF010E94462E80E089838AE0FE012B
:105A9000B196DE01129651CE8FEFF7CFE9BCF9BC7B
:105AA00009B400FEFDCF8091D8008F7D8093D8008F
:105AB0008091E00082608093E0008091E00081FDB1
:105AC000FCCF0E94720FB7CBFC0136962591349122
:105AD0002115310509F4ADCC4FE150E0BE016E5FF8
