:100000000C940B010C9452010C9452010C9452016B
:100010000C9452010C9452010C9452010C94520114
:100020000C9452010C9452010C9452010C943D1BFF
:100030000C94EE1B0C9416170C9452010C94520164
:100040000C9452010C9452010C9452010C946D17B3
:100050000C9452010C9452010C9452010C945201D4
:100060000C9452010C9452010C9452010C945201C4
:100070000C9452010400643214783C1E000101010A
:100080000101010101010202020202020202020355
:100090000303030303030304040404040404050525
:1000A00005050506060606060707070707080808E8
:1000B00008090909090A0A0A0B0B0B0C0C0C0D0D97
:1000C0000D0E0E0E0F0F0F1010111111121213132F
:1000D0001414151516161717181819191A1A1B1BA8
:1000E0001C1D1D1E1E1F2020212222232424252604
:1000F00026272829292A2B2C2D2D2E2F303132323C
:10010000333435363738393A3B3C3D3E3F40414247
:10011000434445464748494A4C4D4E4F505153542D
:10012000555658595A5B5D5E5F61626465666869E1
:100130006B6C6D6F7072737577787A7B7D7E808261
:10014000838587888A8C8E8F91939596989A9C9EAA
:10015000A0A2A3A5A7A9ABADAFB1B3B5B7BABCBEBA
:10016000C0C2C4C6C9CBCDCFD1D4D6D8DBDDDFE287
:10017000E4E7E9EBEEF0F3F5F8FAFDFF08034400DD
:10018000310050000000160350004C0049005000A0
:10019000200057006F0072006B0073000000040322
:1001A000090409022200010100A032090400000133
:1001B000030101000921110100012240000705810E
:1001C0000308000A12010002000000085750010055
:1001D00000000102000105010906A101050719E05F
:1001E00029E715002501950875018102950175081B
:1001F00081010507190029FF150026FF00950675E6
:1002000008810005081901290595057501910295D8
:100210000175039101C011241FBECFEFD4E0DEBFF2
:10022000CDBF04B603FE27C08091BF019091C001ED
:10023000A091C101B091C2018730904BA740B04B53
:10024000D1F41092BF011092C0011092C10110921E
:10025000C20114BE84B7877F84BF0FB6F894A895F7
:1002600080916000886180936000109260000FBEF2
:10027000E0E0F8E3099511E0A0E0B1E0EEECFCE38A
:1002800002C005900D92AE31B107D9F721E0AEE181
:10029000B1E001C01D92AF3BB207E1F70E94B70F7A
:1002A0000C943D1E0C94000081E0089581E00895B7
:1002B0000C94560108950C945A011F93CF93DF9329
:1002C00000D000D00F92CDB7DEB749835A836B833D
:1002D0003091200189819A8131111DC06623B9F0C6
:1002E0002223A9F00E94D106182F682F89819A81B4
:1002F0000E94780669817A81812F0F900F900F906C
:100300000F900F90DF91CF911F910C94DE0C0E9403
:10031000AA06182FEFCF0E94D10669817A81EDCF0E
:10032000FC01262F408151816281738184810C946C
:100330005D0181E00895CF93DF93EC0160E00E94BE
:100340009001BE01DF91CF910C945B010E94E20EFF
:100350000E941D020C94070F0C940A0F08950E942E
:1003600021050E94AE012FEF84E39CE021508040E4
:100370009040E1F700C000000C9491170F931F9379
:10038000CF93DF938C0161E00E949001EC01B801F2
:100390000E9458018823D9F1B801CE010E948E1421
:1003A0008823A9F1B801CE010E94E014882379F1D5
:1003B000B801CE010E940316882349F1B801CE018D
:1003C0000E945713882319F1F8018281882361F074
:1003D000CB35FDE5DF0721F170F4C115ECE5DE0753
:1003E000A1F0CF3DDC45C9F0C801DF91CF911F914D
:1003F0000F910C945401CC358DE5D807A1F0CD3583
:10040000DD4591F70E94B80AEFCF0E94AF0180E06E
:10041000DF91CF911F910F9108950E942F0CF7CF7C
:100420000E94C10AE1CF0E94C40ADECF08950C9455
:10043000160281E008950C9419020895CF93C82FF5
:100440000E9417028C2FCF910C941B02CF93DF9345
:10045000CDB7DEB72B970FB6F894DEBF0FBECDBF7A
:100460004F83588769877A878B8761110E94E70AD3
:100470001E821D8285E0FE013796DE0111960190F5
:100480000D928A95E1F78C819D81892B89F44981B0
:100490005A816B817C818D819E810E94E3092B961C
:1004A0000FB6F894DEBF0FBECDBFDF91CF91089598
:1004B00089819A8189238F3F51F3CE0101960E9451
:1004C00099018111E4CFEBCFFC01808191810C94E3
:1004D0001307CF93C82F882329F18CEF8C0F813A13
:1004E000A0F46C2F80910001909101010E94871669
:1004F000882329F08C2F0E94880A0E94170B8C2FCA
:100500000E94810ACF910C94170B80E28C0F8830E7
:1005100048F4C77081E001C0880FCA95EAF70E94CD
:10052000CA0AF0CFCF910895882329F19CEF980F44
:10053000913A20F40E94880A0C94170B90E2980FCD
:10054000983050F4877091E001C0990F8A95EAF7CE
:10055000892F0E94D00AF0CF9BE5980F933020F4AA
:1005600090E080E00C944916885A873120F490E09E
:1005700080E00C945F1608951F93CF93DF93182F9C
:10058000EB010E946902209731F4812FDF91CF9116
:100590001F910C9494028FE99FE00197F1F700C03E
:1005A00000002197F0CF70E060E0893311F460E53E
:1005B00070E00C94BC02882321F00E94CA0A0C94BB
:1005C000170B0895882321F00E94D00A0C94170B72
:1005D0000895BF92CF92DF92EF92FF920F931F93F5
:1005E000CF93DF936C01D62FC72FFC0102811581B9
:1005F00012951F700E949F0AE82E8823A1F0E02E1A
:10060000002389F08C2F807F803429F080E28D0FC9
:10061000E12C883040F082E00E94680B0E949F0A23
:1006200091E0E82EE926BC2EB2949FE0B922EB2D92
:10063000F0E0E15CF14E0C94E21D1C2F1F70C07FB6
:1006400011F01295107F0023A9F0112359F080E2D8
:100650008D0F883010F0D11109C0812F0E94CA0A75
:100660000E94170B8D2F0E94690214C0812F0E94D7
:10067000DA0AF6CF8D2F0E949402112359F080E2FE
:100680008D0F883010F0D1112CC0812F0E94D00A1C
:100690000E94170B2B2D2850330B2430310520F4EA
:1006A0000E9432160E941E02EE2009F477C10E94B9
:1006B0009B0A80FD73C1F60112820E94950A0E9476
:1006C000DC05C6010E94EF040E94950ADF91CF91DC
:1006D0001F910F91FF90EF90DF90CF90BF900C94FF
:1006E000FD05812F0E94E00AD3CFFC2FFF70FF2E63
:1006F000C07FC03219F0F29480EFF822DD2369F058
:10070000D13049F1002391F1112351F1F601858196
:1007100080FFA8CF8F70858323C0002381F0111143
:1007200006C00E94FA0A8F290E94DB02B3CF113063
:10073000C1F70E94FA0A8F290E94000BABCF11115A
:1007400006C00E940D0B8F2D0E94E202A3CF113034
:1007500009F4A0CFF6CF002329F0163008F09ACF85
:100760008F2DE2CF153008F095CFEDCF112359F33F
:10077000D93349F4FFEF27EE33E0F1502040304009
:10078000E1F700C000008D2F0E94940283CF8C2FD0
:10079000837009F041C001117DCF4D2F42954695E0
:1007A0004770440F440F0D2F0F7010E030E020E031
:1007B000042E04C0000F111F221F331F0A94D2F70A
:1007C00060E070E0CB01D4FF0FC06FE070E080E02C
:1007D00090E004C0660F771F881F991F4A95D2F7D3
:1007E0006095709580959095C695C695C370602B61
:1007F000712B822B932BC23049F058F4C13019F081
:100800000E948E0547CF0E947C0544CF0E94A00520
:1008100041CF0E947A053ECF8695002311F08C2FA0
:100820008170882309F436CF4D2F42954695477045
:10083000440F440F0D2F0F7010E030E020E0042E25
:1008400004C0000F111F221F331F0A94D2F760E06B
:1008500070E0CB01D4FF0FC06FE070E080E090E06B
:1008600004C0660F771F881F991F4A95D2F76095BD
:10087000709580959095C695C695C370602B712B29
:10088000822B932BC23049F058F4C13019F00E94EA
:10089000530600CF0E944106FDCE0E946506FACEA7
:1008A0000E94B605F7CECF70002329F08C2F0E944E
:1008B000DC058D2F39CF8D2F0E94E2028C2F0E94F4
:1008C000FD05E8CED23F89F160F4D03FC9F0D13FB9
:1008D00029F1002309F442C01111C4CE8C2F8F716D
:1008E00021C0D33F39F1D43FA1F7002369F1CF7183
:1008F0008C2F0E94DC0563E08C2F0E944D0BCACE2A
:10090000002341F0153008F0C5CE8C2F8F710E9466
:100910002006C0CE163008F0BDCEF7CF8C2F8F71D9
:10092000002369F20E94DC05B5CE8C2F8F71002365
:10093000C9F3C5CF002329F08C2F8F710E94C70502
:10094000A9CE0E94C205A6CE81E00E94680B12309B
:1009500008F4A0CE82E00E94680B9CCE112359F0CF
:10096000D93309F010CF8FEF97EEE3E0815090403C
:10097000E040E1F706CF8C2F8F71A1CF4C2F4F7045
:100980006D2FC6010E94DA0C0E94410783CE4C2FC6
:100990004F706D2FC6010E94DD0C7CCEDF91CF9190
:1009A0001F910F91FF90EF90DF90CF90BF9008952F
:1009B0000F931F93CF93DF93EC01688179818A8134
:1009C0000E941D078C010E9477060E947905B801DC
:1009D000CE01DF91CF911F910F910C94E902CF933B
:1009E000DF93EC018B819C81892B29F0888199818F
:1009F00089238F3F59F4DF91CF910895CE010E9452
:100A0000D804CE01DF91CF910C949B01CE010E94BE
:100A1000BE018111F3CF0E949F0A882361F38A816E
:100A2000882349F382E0DF91CF910C94680B0E94F8
:100A3000E70A0E94F70A0C94170B0E948F0A0C9485
:100A400017050E94D70A0C941D05E92FE295EF7057
:100A5000E250EE3070F4F0E0E15BF14E0C94E21DF8
:100A6000803F19F020F4883E20F481E00895843F0F
:100A7000E1F380E00895883EC0F3813FD1F7F5CFE0
:100A800093FB882780F90895FC01808191810E9461
:100A900013070C942505CF93DF9300D000D00F925D
:100AA000CDB7DEB70F900F900F900F900F90DF91A2
:100AB000CF910895CF93DF9300D000D000D0CDB771
:100AC000DEB726960FB6F894DEBF0FBECDBFDF911E
:100AD000CF91089508950C946A050E946B05609368
:100AE0002A0170932B0180932C0190932D010C947B
:100AF000170508950C946D050F931F9300912A011B
:100B000010912B0120912C0130912D01602B712B24
:100B1000822B932B1F910F910C946D050F931F93B4
:100B200000912A0110912B0120912C0130912D016F
:100B300060237123822393231F910F910C946D05E1
:100B40000F931F9300912A0110912B0120912C01EA
:100B500030912D0160277127822793271F910F91D4
:100B60000C946D050C946A050C94B2050E94B405B2
:100B700060932601709327018093280190932901A7
:100B80000C94170560E070E0CB010C94B6050F9350
:100B90001F9341E050E060E070E08A019B0104C0D7
:100BA000000F111F221F331F8A95D2F7C901B80108
:100BB0001F910F910C94B6050F931F9341E050E0E5
:100BC00060E070E004C0440F551F661F771F8A95D0
:100BD000D2F78091260190912701A0912801B09130
:100BE00029018A019B01082B192B2A2B3B2BC901B8
:100BF000B8011F910F910C94B6050F931F9341E01C
:100C000050E060E070E004C0440F551F661F771F7E
:100C10008A95D2F7CB01BA01609570958095909531
:100C2000009126011091270120912801309129017E
:100C300060237123822393231F910F910C94B60597
:100C40000F931F9341E050E060E070E004C0440F58
:100C5000551F661F771F8A95D2F7809126019091C4
:100C60002701A0912801B09129018A019B01082741
:100C700019272A273B27C901B8011F910F910C940E
:100C8000B6050F931F930091260110912701209123
:100C9000280130912901602B712B822B932B1F91FE
:100CA0000F910C94B6050F931F930091260110919C
:100CB000270120912801309129016023712382238B
:100CC00093231F910F910C94B6050F931F930091DE
:100CD00026011091270120912801309129016027D8
:100CE0007127822793271F910F910C94B6050895C1
:100CF000CF93DF93262F890F982F9770E1E001C0E3
:100D0000EE0F9A95EAF786958695869590E065E0D0
:100D100070E00E94A91DDC01AF5DBE4F50E040E0D5
:100D2000622F70E08D91ED0121979B01042E02C08E
:100D3000369527950A94E2F72170219528272E23CE
:100D4000282728834F5F5F4F4530510559F7DF91C2
:100D5000CF910895890FA82FA770869586958695BF
:100D600090E065E070E00E94A91DFC01EF5DFE4F80
:100D700050E040E080E0219130E00A2E02C036953C
:100D800027950A94E2F721703327042E01C0220F21
:100D90000A94EAF7822B4F5F5F4F4530510559F7B0
:100DA0000895BF92CF92DF92EF92FF920F931F931D
:100DB000CF93DF938C01C0902601D0902701E09063
:100DC0002801F090290180912A0190912B01A09196
:100DD0002C01B0912D01C82AD92AEA2AFB2ACFE199
:100DE000D0E0BC2ED701C6010C2E04C0B695A79545
:100DF000979587950A94D2F780FD0EC0219788F7C2
:100E0000B12C8B2DDF91CF911F910F91FF90EF901F
:100E1000DF90CF90BF900895B8018C2F0E94EA0D0B
:100E2000019761F3EECFCF93DF93EC010E94D106DF
:100E3000BE01DF91CF910C94EA0D1F93CF93DF9306
:100E4000EB0190912001992331F0CB01DF91CF91FB
:100E50001F910C941307882379F0CB010E94D106CF
:100E6000182F682FCE010E947806BE01812FDF91D6
:100E7000CF911F910C94EA0DCB010E94AA06182F66
:100E8000F4CFEF92FF920F931F93CF93DF938C01D8
:100E9000892B81F0F12CEE24E394E8012196F801EE
:100EA0008491843770F4843008F05FC08130B1F0F1
:100EB0008230A1F1DF91CF911F910F91FF90EF90C0
:100EC0000895853709F44CC008F43DC09CE7980F9D
:100ED000903780F78F770E94940249C00E5F1F4FB2
:100EE000FE01849190E2980F983060F48770FE2D97
:100EF00001C0FF0F8A95EAF78F2F0E94EA0A0E942D
:100F0000170B02C00E9469028F2D815030F2EFE969
:100F1000FFE03197F1F700C00000F7CF0E5F1F4FE1
:100F2000FE01849190E2980F983050F48770FE2D66
:100F300001C0FF0F8A95EAF78F2F0E94F00ADFCFDA
:100F40000E949402E1CF0E5F1F4FFE01C491C15079
:100F5000D8F28FE99FE00197F1F700C00000F7CFCA
:100F60000E5F1F4FFE01F490CFCF0E9469028E01E9
:100F7000CBCFCF93DF93C0912E0180912F018C13A3
:100F800003C0DF91CF910895D0E0CE0166E070E01C
:100F90000E94A91DFC01E05DFE4F408151816281EC
:100FA0007381848195810E945A052196C770E5CF8F
:100FB0004091600150916101609162017091630103
:100FC00080916401909165010C945A051F93CF9311
:100FD000DF9380916501807FA1F480916201882375
:100FE00081F020912E01B0912F0140916001A091DC
:100FF0006101C0916301D0916401142F1A23B213CF
:1010000004C0DF91CF911F91089530E0209711F037
:101010001F3F21F42F5F3F4F2770F1CFC90166E0DA
:1010200070E00E94A91DFC01E05DFE4F81818A13E2
:10103000F1CF80818413EECF82818111EBCF838148
:1010400094818C1B9D0B883C910520F78091650154
:101050008F70806180936501C90166E070E00E9435
:10106000A91DFC01EB5CFE4F90819F709061908305
:1010700080E691E00E94EF04DF91CF911F910C94E4
:10108000B907AF92BF92CF92DF92EF92FF920F9388
:101090001F93CF93DF93CDB7DEB761970FB6F89468
:1010A000DEBF0FBECDBF8C0185E0F801DE011D96CD
:1010B00001900D928A95E1F7F801E28080E6C82E52
:1010C00081E0D82E60916301709164016115710512
:1010D00009F45DC19091600130916101892F8323F2
:1010E0008F3F09F454C140812181A380B480F090E6
:1010F0006201F501E61BF70BFF2009F4F8C08091AF
:101100006501582F507FE83CF10508F0B0C051113F
:101110007AC0FE2C321323C0941321C0E1101FC0EB
:101120008F708061809365010E94D807C6010E947C
:10113000EF0480916501F80185838F2D61960FB6CC
:10114000F894DEBF0FBECDBFDF91CF911F910F91FD
:10115000FF90EF90DF90CF90BF90AF900895AB28B5
:1011600029F0842F82238F3F09F02AC180E0F82FD5
:10117000F170DF2EE0912E0130912F0180FD20C013
:10118000EE20D9F280916501816080936501F12C98
:10119000D4CFF0E0CF0166E070E00E94A91DDC0131
:1011A000A05DBE4F11968C911197821307C08C9150
:1011B000841304C012968C91E812E2CF3196E77046
:1011C000E313E7CF4D872E878D859E850E941307F9
:1011D000292F22952F70223050F0243078F49F7000
:1011E00051F0F8019581907F31F4D12C0AC09F70A5
:1011F00011F08823D1F3805E8830B8F3C8010E94D3
:10120000EF04FD2C9ACF321306C0941304C0F801EA
:10121000EE2009F488C0C8010E944405882319F112
:10122000EE2009F180916501803270F0209160011B
:101230003091610138872F831986BB86AA868C87F7
:10124000CE0107960E94EF0486E0F801A0E6B1E027
:1012500001900D928A95E1F70E94E6070E94D80757
:10126000FF24F3946ACFC8010E94EF04F9CF511113
:1012700014C07A2DB98AA88A522F6E2D89890E94AE
:101280004B0580E691E00E94EF0486E0F6011192A2
:101290008A95E9F70E94D8077ACF32130FC09413CA
:1012A0000DC0E1100BC0F8018583C8010E94EF0456
:1012B00086E0F60111928A95E9F73FCFC8010E94B6
:1012C0004405882381F2EE2071F28091650180321D
:1012D00008F4BACF20916001309161013A832983EB
:1012E0001B82BD82AC828E83CE010196ABCFE83CDF
:1012F000F10508F03EC0FE2CEE2009F4B4CF321305
:101300002AC0941328C08091650180FD1BC0982FCE
:10131000907FC1F0F8018583903F31F0982F907F46
:10132000905F8F70892B8583C8010E94EF0486E04F
:10133000F801A0E6B1E001900D928A95E1F70E94D4
:10134000D807FBCE86E0F801A0E6B1E001900D924F
:101350008A95E1F7F2CEC8010E944405811174CF4D
:1013600080916501816080936501C8010E94EF044E
:10137000E4CE7A2DB98AA88A522F6E2D89890E94CF
:101380004B0586E0F60111928A95E9F7D8CFEE2059
:1013900009F469CFC8010E944405F82E882309F496
:1013A00062CF86E0F801A0E6B1E001900D928A9547
:1013B000E1F780E691E00E9464020E94E607BFCF59
:1013C00081E08E25D4CECF93DF93CDB7DEB72C97B7
:1013D0000FB6F894DEBF0FBECDBF4F835887698725
:1013E0007A878B879C87CE0107960E9441088823C5
:1013F000D1F08A859B85892B39F04F815885842FC0
:1014000085238F3F09F076C080912E0190912F01A6
:10141000891349C02C960FB6F894DEBF0FBECDBF1E
:10142000DF91CF91089586E0FE013796DE01119697
:1014300001900D928A95E1F78A859B85892B21F38E
:101440008F81988589238F3FF9F280912F0190E059
:101450009C012F5F3F4F2770332740912E01421789
:10146000130671F40E94210510922F0110922E0193
:1014700086E0E0E6F1E0DF011D928A95E9F7C4CF4E
:1014800066E070E00E94A91DDC01A05DBE4F96E001
:10149000FE01319601900D929A95E1F720932F016C
:1014A0000E94B907B1CF90E066E070E00E94A91DEC
:1014B000805D9E4F0E944108882309F4ABCF809144
:1014C0002E0190E066E070E00E94A91DFC01E05D45
:1014D000FE4F4081518162817381848195810E9498
:1014E0005A0580912E0190E001968770992780938C
:1014F0002E018ACF69857A858B859C850E945A0545
:1015000083CF682F80910001909101010C94BD164A
:10151000682F80910001909101010C94BF16809179
:101520000001909101010C94C1168091660185958E
:1015300085958595089580916601877008959091AD
:101540006601977081E009F480E008959091A00110
:1015500092FB222720F9281751F080FB92F99093F3
:10156000A00180919F019091A0010C94AB0B089574
:101570008091A00182FB882780F991E089270C9453
:10158000A60A81E00C94A60A80E00C94A60A809139
:101590007201089590917201892B809372010895D0
:1015A0008095909172019823909372010895109202
:1015B0007201089590917101892B809371010895B2
:1015C00080959091710198239093710108951092E4
:1015D0007101089590917001892B80937001089595
:1015E00080959091700198239093700108951092C6
:1015F0007001089580916701089508950C94FD0A83
:101600009091A00192FD08C090916701981721F078
:10161000809367010C94FE0A0895809167018823E6
:1016200029F01092670180E00C94FE0A0895E09181
:101630000001F0910101809172018083E09100012D
:10164000F0910101808190917101892B8083E0915B
:101650000001F0910101808190917001892B8083BC
:1016600090916701992381F0E0910001F0910101CF
:101670008081892B808380910001909101010E94DB
:10168000751681110E940D0B80910001909101014E
:101690000C943E1608950C944A0B9091A00192FD73
:1016A00010C0982F990F990F990F962B9093660160
:1016B0000E94DC05809166018595859585950C9441
:1016C0004B0B0C94DC051092660180E00C944B0BE4
:1016D000909166018095892380936601282F277059
:1016E00039F4282F082E000C330B9217130621F41F
:1016F0009091A00192FF07C08595859585950E94E0
:10170000FD050C94630B08956FEF7FEF90E080E090
:101710000C94271E90E080E00E94031E21E0893E89
:101720009E4F09F020E0822F089582E090E00C9413
:10173000F51D83E090E00C94F51DCF9384E090E0DC
:101740000E94F51DC82F82E290E00E94F51D982F9F
:101750008C2FCF910895CF93C92F682F84E090E00C
:101760000E94091E6C2F82E290E0CF910C94091E1A
:10177000AB01BC018FE090E00C941B1EAB01BC01DF
:1017800083E190E00C941B1E60E070E0CB010C94B0
:10179000BE0B60E070E0CB010E94B80B0C94C40B50
:1017A00069EE7EEF90E080E00E94271E60E082E01C
:1017B00090E00E94091E60E083E090E00E94091E14
:1017C00010922A0110922B0110922C0110922D01DF
:1017D00060E084E090E00E94091E60E082E290E018
:1017E0000E94091E60E085E090E00E94091E60E012
:1017F00086E090E00E94091E6FEF87E090E00E9473
:10180000091E40E050E0BA0188E090E00E941B1EF3
:1018100060E08DE090E00E94091E40E050E0BA01D7
:1018200088E190E00E941B1E60E087E190E00E944A
:10183000091E40E050E0BA018CE190E00E941B1EBE
:1018400070E060E080E290E00E94271E40E050E0FF
:10185000BA0188E190E00E941B1E0C94C90B0C9405
:10186000D00B682F8EE090E00C94091E0E94521756
:101870006093790170937A0180937B0190937C014E
:10188000609375017093760180937701909378014E
:101890000895089508950C94490C08950C944D0CE6
:1018A00088EC9EE00E94B5170E944A0C0C944B0CE9
:1018B00081E008950C94580C089508950E945C0CE2
:1018C0000C945D0C0E943D170E944F0F0E94B112B4
:1018D0000C944E0C0F931F93CF93DF93CDB7DEB7CD
:1018E0002A970FB6F894DEBF0FBECDBF0E945A0FE5
:1018F00081110E94360C80E00E940C0F182F8091FD
:101900007401082F0127811739F080917D0181FD35
:101910000E94120F00FD28C08FEF89838A831B82EB
:101920000E9446178160782F9D838C8349815A815C
:101930006B818D810E9426020E94E4120E94321661
:1019400090917301891759F10E94321680937301A7
:101950002A960FB6F894DEBF0FBECDBFDF91CF91B0
:101960001F910F910C941E020E945A0C882381F043
:101970001E821F82117018870E9446178160782F7F
:101980009A8789874E815F8168858A850E942602B1
:101990008091740191E0892780937401CDCF2A96BC
:1019A0000FB6F894DEBF0FBECDBFDF91CF911F9170
:1019B0000F91089590E080E008950895272F260F55
:1019C0003327331FF901E80FF11DEE0FFF1FEC580D
:1019D000FF4F859194910895FC01EE0FFF1FEA5887
:1019E000FF4F859194910895CF93DF930E94EE0D60
:1019F000EC01811521E59207D0F5811530E59307BB
:101A000008F098C0811540E29407F8F4C11581E010
:101A1000D807B8F4C03ED10588F4C03CD10508F021
:101A20007CC0C130D10569F0209759F0CE010497F0
:101A3000813A910530F0D0E0C0E003C0C83ED10546
:101A4000D0F7CE01DF91CF910895811520E4920760
:101A500008F06DC09F70C11530E3D30708F460C073
:101A6000CE019927D3FF60C0EC01D86CEACF811575
:101A700045E5940710F5C11584E5D80708F093C033
:101A8000C11523E5D20708F078C0C11532E5D307A8
:101A900008F46EC0CE018370992721E030E002C0C7
:101AA000220F331F8A95E2F7C695C695D0E0E5E090
:101AB000CC0FDD1FEA95E1F757C0811549E5940782
:101AC000A8F4C11588E5D80708F072C0C11526E54D
:101AD000D20708F0B0CF8C2F0E94850EC82FD0E01F
:101AE000DC2FCC27CC27DF71D062ABCF81153AE554
:101AF000930708F462C090568115904208F09BCF7E
:101B00008D2F8F710E94850E90E0982F882788274F
:101B10009F719C012C2BE901E7CFCE01805C9109DC
:101B20000E94EC0CEC018DCFEC01D06C8ACFDF7001
:101B3000D06A87CFA4E096958795AA95E1F7837040
:101B40002C2F26952695237030E0B5E0220F331F09
:101B5000BA95E1F7382B8C2F8370C1E0D0E002C03A
:101B6000CC0FDD1F8A95E2F7C22BD32BDC6869CF3F
:101B7000DC2FCC27C16FD06A64CFCE018370992748
:101B800021E030E002C0220F331F8A95E2F7C695AC
:101B9000C695D0E075E0CC0FDD1F7A95E1F7C22B3A
:101BA000D32BDA684ECFDC2FCC27C46FD06A49CF55
:101BB000DC2FCC27C06FD06A44CF8F700E94850E77
:101BC00034E0D695C7953A95E1F7CF709C2FEC019C
:101BD000D06937CF0E94DE0C0C94F40C823891054A
:101BE000B1F1B0F48133910509F475C048F489323C
:101BF000910509F469C08A32910509F473C008950A
:101C00008533910509F459C08933910501F108958F
:101C1000833E9105A9F138F4803E9105F9F0823EAA
:101C2000910549F10895863E9105A9F1873E9105F8
:101C3000C9F1843E910519F52091A00121FF1FC033
:101C400080919F0184FD14C087EE90E0089520915B
:101C50009F012370A1F080EE90E0089520919F01F4
:101C600020FD47C03091A00130FF09C024FF44C0CF
:101C700090E080E004C020919F0122FDF7CF0895FD
:101C800020919F0122FD3BC03091A00130FDE3CFA8
:101C900024FFF5CFEDCF20919F0123FFF0CF24FD4E
:101CA000E7CFD2CF20919F0123FD2CC03091A0011E
:101CB00031FFEECF84EE90E0089520919F0125FF43
:101CC000DECF89E290E0089520919F0125FFD7CFD4
:101CD00085E390E0089520919F0126FFD0CF8AE20E
:101CE00090E0089520919F0126FFC9CF81E390E005
:101CF000089589E390E0089583EE90E0089582EEE0
:101D000090E0089586EE90E0089590919F0192FFF3
:101D100006C0282F28712830F9F4877F846093FF4C
:101D200006C0282F28712831F1F4877E8461209124
:101D3000A00120FF06C0382F38713830D9F4877FD2
:101D4000816021FF06C0282F28712831D1F4877EB9
:101D5000816194FD877E0895282F24712430F9F63F
:101D60008B7F8860DCCF282F2471243101F78B7E94
:101D70008861DDCF382F3171313019F78E7F88605F
:101D8000E0CF282F2171213121F78E7E8861E1CFAC
:101D900080E008950C94840B0E945A0F8FE39CE915
:101DA0000197F1F700C000000E945A0F80E00E94E6
:101DB0000C0F80FF04C00E94CA0E0C949117089566
:101DC0000C94CC0E0E948A0B811102C00E942F0C31
:101DD0000E94950B80937D010E949D0B9093A00122
:101DE00080939F010E94E00E0E94990B682F70E083
:101DF00090E080E00E947A056091260170912701B1
:101E000080912801909129010C94B40508950C94B7
:101E1000060F08950C94090FE82FF0E0EE55FE4FE1
:101E200080810895089580EA8A95F1F7089500C0A9
:101E300008950C94130FF89427982F9A7894089586
:101E40000E941B0FF89452985A9A78940895EF9232
:101E5000FF921F93CF93DF937C01162FF894279A5C
:101E60002F9878940E94170FC9B1D0E0D595C795E7
:101E7000D595C795C095D0950E941B0F6C2F6170AA
:101E8000812F0E94190FF701E10FF11DC170DD27AD
:101E9000C083DF91CF911F91FF90EF9008950E9432
:101EA000200F1092A1011092A20181E00E94800FE8
:101EB0000C94A6011F93CF93DF930F92CDB7DEB79B
:101EC000198260E0CE0101960E94270F9091A10136
:101ED000898111E0981301C010E098138093A1014B
:101EE000212F41E062EA71E081EA91E00E94810FD6
:101EF0000E94AC01812F0F90DF91CF911F91089527
:101F00000895FF920F931F93CF93DF93F82E092F1D
:101F1000162FD72FC42F222349F081E08093800110
:101F20000E94461790937F0180937E0180918001EB
:101F30008823A1F080917E0190917F010E945E171D
:101F4000059760F0EF2DF02FA12FBD2FCE0FDF2FC3
:101F5000D11DEC17FD0741F410928001DF91CF9164
:101F60001F910F91FF90089581918D93F2CF0E9460
:101F7000C8160E94AA180E94C3180E94D5180E9471
:101F80005E0CFBCFEF92FF920F931F93CF93DF93E3
:101F9000982F711111C0442329F0E82FF0E0E45884
:101FA000FF4F9491692F792F892FDF91CF911F9146
:101FB0000F91FF90EF900895262F30E0C72FD0E0CB
:101FC000E82FF0E0442321F0E458FF4FE491F0E0E3
:101FD000C90166E070E00E94A91D0FEF10E0B80192
:101FE0000E94BA1DDB01220F331FCB0165E570E0B3
:101FF0000E94A91D281B390BE22EEE0CE20EC8012F
:102000008C1B9D0BBF010E94A91D292FF12CC7011C
:10201000BE010E94A91D492F50E0C801841B950BE9
:10202000BF010E94A91D392FC8018E199F09BE0149
:102030000E94A91D492F50E0C801841B950BBF01C8
:102040000E94A91D892F7E2FA230B10589F038F496
:10205000109759F0119781F0922F232F06C0A430CA
:10206000B10569F080F01697B9F7692F822F9DCFDF
:102070009E2F722F282FF9CF9E2F732FF6CF922FDE
:102080002E2F782FF2CF722F2E2F932FEECF41E0ED
:102090000C94C20F08950C944710CF93DF93762FC2
:1020A000E901682F842F0E944B10798368838A830B
:1020B000DF91CF9108958091A301982F9E7F29F4FD
:1020C000817082608093A30108958631E8F3817066
:1020D0008461F8CF88E090E00C94FD1DCF92DF92F0
:1020E000EF92FF926B017C010E945B10B701A60189
:1020F00088E090E0FF90EF90DF90CF900C941B1E53
:10210000E3EAF1E083E0808311828FEF82838383AF
:10211000148260817181828193810C946E10809110
:10212000A30180FF02C08695089580E008959091F4
:10213000A701933018F49F5F9093A701882351F073
:102140006091A3017091A4018091A5019091A601D5
:102150000C946E10089581E00C9497109091A70153
:10216000992319F091509093A701882351F0609121
:10217000A3017091A4018091A5019091A6010C94F6
:102180006E10089581E00C94AE1070E00C94F5137D
:10219000309103018091A30180FF0CC08091020166
:1021A00090E063E070E00E94A91D632F88559E4F68
:1021B0000C94C5102091040140910501822F90E0FC
:1021C00063E070E00E94A91DFC01E855FE4F241752
:1021D00028F71182108212822F5F3396F8CFA82F32
:1021E000B62F8091A30180FF17C020910401309188
:1021F0000501822F90E063E070E00E94A91DFC01C0
:10220000E855FE4F231710F00C94C810A183B0833B
:1022100042832F5F3396F6CF0895CF93DF9300D09C
:102220000F92CDB7DEB79091A30190FF0AC09E0137
:102230002F5F3F4F0E944D104B8169818A810E9420
:10224000EF100F900F900F90DF91CF910895CF93E3
:10225000DF93EC01E3EAF1E0438162818C810E942B
:102260000D118C818F5F8C83DF91CF910895EF9258
:10227000FF920F931F93CF93DF9300D00F92CDB7B0
:10228000DEB7182FF62E042FE22E8091A30180FFD7
:1022900028C0E82FE695F0E0ED5EFE4F9081909328
:1022A00088018E7F823039F59E012F5F3F4F812F4D
:1022B0000E944D104B8169818A810E94EF1010931A
:1022C000A401F092A5010093A601EE2051F06091C7
:1022D000A3017091A4018091A5019091A6010E9493
:1022E0006E100F900F900F90DF91CF911F910F9173
:1022F000FF90EF900895923019F41091A401DFCF70
:102300009530E9F6FACFE3EAF1E09181282F438195
:10231000628188E0890F0C94371181E00C9483115D
:10232000E3EAF1E09181282F4381628188EF890FF0
:102330000C94371181E00C949011E3EAF1E0628192
:1023400021E1620F08F46FEF282F438181810C9403
:10235000371181E00C949D11E3EAF1E0628121E103
:10236000621B08F460E0282F438181810C943711AF
:1023700081E00C94AC11E3EAF1E0438121E1420FEA
:1023800008F44FEF282F628181810C94371181E08E
:102390000C94BB11E3EAF1E0438121E1421B08F414
:1023A00040E0282F628181810C94371181E00C94E8
:1023B000CA1120E00C943711EF92FF921F93CF9334
:1023C000DF93EC0110E0EE24EA94F12C3091060149
:1023D000131770F00E94C8109A818C8190FF27C05B
:1023E0008F5F8C83DF91CF911F91FF90EF900895C5
:1023F00080910401810F9927991F63E070E00E948A
:10240000A91DFC01E855FE4F632F70E0C7010E9433
:10241000CE1D812F0E94A01D9C819F014091A6018D
:102420006091A501890F0E944D101F5FCFCF815091
:10243000D8CFE3EAF1E080818E7F80836081718173
:10244000828193810E946E10109289012FEF80E7A4
:1024500092E0215080409040E1F700C000000C94D1
:10246000C8106091A301669570E041E050E087E0FC
:1024700091E00E94E81D892B19F481E08093890185
:102480000E94461790938201809381010895909154
:10249000A30190FF35C09170811128C09260909384
:1024A000A301662351F06091A3017091A401809172
:1024B000A5019091A6010E946E106091A3016695FE
:1024C00070E041E050E087E091E00E94E81D892B38
:1024D000A1F01092890181E0809384014091A601CE
:1024E0006091A5018091A4010C94D9118B3010F05A
:1024F0009461D5CF880F982BD2CF0E943112EBCFA9
:102500000895682F9091A301969581E0890F8B30F3
:1025100008F081E00C94471281E00C948112682F3E
:102520009091A30196958FEF890F09F48AE00C949E
:10253000471281E00C948F1261E00C944712E3EA99
:10254000F1E080818160808386950C949C1280915B
:10255000A30180FD0C9419120C949F1260E00C945E
:1025600047128091870181112EC00E948A0B811130
:1025700004C00E942F0C0E9480100E946A10609379
:10258000A3017093A4018093A5019093A6016E7F8F
:1025900061F40E9480100E946A106093A3017093FE
:1025A000A4018093A5019093A6010E945B10109254
:1025B00089018091A30180FF03C086950E94AE121D
:1025C00081E08093870108950F931F93CF93DF934A
:1025D00080918901882309F44BC080918801E091A2
:1025E000A301E695E81BE0938301823089F5F0E0D2
:1025F000E758FF4FE491CE2FD0E007E211E1809140
:102600008401882361F0109284010E944617909300
:1026100082018093810110928601109285010E94AF
:102620004617E0918101F09182018E1B9F0B8F3F35
:102630009F47F0F4CE0FDF1FD0938201C09381013A
:1026400081E891E0F801DF91CF911F910F910994FA
:10265000C0EDD7E00AE410E1853089F6E695F0E0B8
:10266000EA58FF4FE491CE2FD0E00CED11E1C7CF37
:10267000DF91CF911F910F910895FA01811101C04F
:10268000FB010994CF93DF93C82FD62F0E948F10A0
:102690008C1740F00E948F108D1720F4DF91CF919E
:1026A0000C948C128C2FDF91CF910C949C120F9371
:1026B0001F93CF938C01FB01C281CC2309F493C0FB
:1026C0000E94C70A82720B3CFCE51F0709F475C023
:1026D00060F5063CECE51E0709F45BC080F4043CA1
:1026E0009CE5190709F44BC008F04EC0033C1C459B
:1026F00009F442C08C2FCF911F910F910895083C8F
:102700009CE5190709F44FC008F448C0093CFCE5F2
:102710001F0709F44DC046ED51E167EC71E10A3C39
:102720001C4541F70E943D1315C0003DECE51E0716
:1027300009F456C088F40D3C9CE5190709F447C01C
:1027400008F440C00E3CFCE51F0709F445C00F3CEF
:102750001C4581F6C0E0CECF073D9CE5190740F44B
:102760006AE085E0023D1C45A8F70E944213F2CFC3
:102770000E351D4579F3BECF0E94A712EBCF49E974
:1027800052E16CE872E1CECF4CE852E169E972E1C6
:10279000C9CF4AE951E16DE871E1C4CF4DE851E19B
:1027A0006AE971E1BFCF48EB51E169EA71E1BACF63
:1027B00049EA51E168EB71E1B5CF47EC51E166EDD3
:1027C00071E1B0CF42EC50E16BEA70E1ABCF4BEA84
:1027D00050E162EC70E1A6CF81E00E949C12BACF7A
:1027E00064E082E0C2CFC1E085CF9C01CB013D9A7D
:1027F00048B14F7DE8B1E062FFB7F89463E070E064
:102800000E94A91D820F931F8217930741F4FFBFF7
:102810008FE594E00197F1F700C000000895D90119
:102820005D919D0168E0E8B9000000C057FF48B91C
:10283000550F000000C000C000C048B900C06A9534
:1028400091F7E2CF0F931F93CF93DF93C42FD22F33
:10285000FC0182818823C9F040938C010E944617B5
:1028600090938B0180938A0180E28C0F883008F06E
:1028700050C0C77081E001C0880FCA95EAF7DF91A8
:10288000CF911F910F910C94DB0210918C011413C6
:1028900035C080918A0190918B010E945E17883C1F
:1028A000910560F5C0E2CD0F1D17B9F080E2810FF0
:1028B000883040F4177081E001C0880F1A95EAF75C
:1028C0000E94E202C83048F481E09D2F977001C059
:1028D000880F9A95EAF70E94DB02802F0E94D302AC
:1028E000C830B8F4D77081E001C0880FDA95EAF7F4
:1028F000DF91CF911F910F910C94E20280E28C0F37
:10290000883038F4C77081E001C0880FCA95EAF7B3
:10291000EFCFDF91CF911F910F9108950F939C01FD
:10292000CB01243F4CE5340759F1A8F4293DFCE5DF
:102930003F0701F12A3D4CE53407D1F1283D3C45E4
:1029400091F406E221EE41EE68ED7CE50E9422144E
:1029500080E00F910895263FFCE53F07E9F0B0F0D5
:10296000273F3C45F9F0FC018281882339F1109220
:102970008C01EFCF07E225EE45EE69ED7CE5E6CF71
:1029800006E221EE40EE64EF7CE5E0CF07E225EEC3
:1029900044EE65EF7CE5DACF06E221EE42EE66EF2B
:1029A0007CE5D4CF07E225EE46EE67EF7CE5CECF9F
:1029B00008E221E045EE6AED7CE5C8CF81E0C9CFB1
:1029C000CF93DF93EC01FB018281882309F419C1C5
:1029D000C230FCE5DF07C0F1C6319CE5D90730F015
:1029E0009E012B5F3C452930310570F50E949D0BFF
:1029F0009093A00180939F01C031ECE5DE0709F4BC
:102A0000CFC008F05BC0C8308CE5D80709F4B6C069
:102A100088F5C430ECE5DE0709F4A8C0C0F4C23084
:102A20008CE5D80709F49CC080919F018260C33077
:102A3000DC4509F498C080919F019091A0010E940B
:102A4000AB0B0E94210580E0DF91CF91089580912A
:102A50009F018061C630ECE5DE0709F484C08091F7
:102A60009F018860C730DC4508F47DC080919F01DC
:102A7000806279C0CC308CE5D80709F489C070F445
:102A800080919F018C60CA30ECE5DE0709F46BC0D1
:102A900008F478C080919F018E7F65C0CE308CE5B0
:102AA000D80709F479C080919F018B7FCF30DC4536
:102AB00008F459C080919F018F7E55C0CC3FECE552
:102AC000DE0709F457C030F5C3318CE5D80709F4A7
:102AD0006FC078F4C131ECE5DE0709F465C0C2319E
:102AE000DC4509F0A8CF0E94210580919F018F77D6
:102AF0003AC0C5318CE5D80709F462C008F476C045
:102B00008091A0018160CB3FDC4509F094CF809398
:102B1000A00191CFC115FDE5DF0709F44DC088F490
:102B20008091A0018D7FCE3F9CE5D90781F38091F4
:102B3000A0018E7FCF3FDC4550F38091A0018360E0
:102B4000E6CFC230FDE5DF0709F459C008F444C000
:102B500080E0C330DD4509F06ECF0E94310C6BCFB1
:102B600080919F01816080939F0165CF80919F013B
:102B70008460F9CF8091A0018260C9CF80919F01CC
:102B80008064F1CF0E94210580919F018068EBCF86
:102B900080919F018D7FE7CF80919F01877FE3CF59
:102BA00080919F018F7DDFCF80919F018F7BDBCF55
:102BB00080919F01837FD7CF8091A0018C7FA7CF89
:102BC00080919F0182FB992790F921E0922790FB49
:102BD00082F990FB83F9C7CF8091A001982F90953F
:102BE00091708E7F892B90FB81F991CF0E942105F6
:102BF00090919F01892F97FB87F98058B4CF81E08E
:102C0000ACCF81E021CFCF93DF93EB0186319C45A0
:102C100011F50E94C70A9A81992399F08A7A91E066
:102C200009F490E090938D01811109C089E20E941E
:102C3000810A0E94170B80E0DF91CF91089585E310
:102C4000F6CF80918D01811104C089E20E94880A2B
:102C5000F0CF85E3FBCF81E0EFCF9093930180939A
:102C600092010895E0919201F0919301309721F043
:102C70000190F081E02D099480E00895E0919201A7
:102C8000F0919301309721F00280F381E02D0994B7
:102C9000089520919001309191012817390771F022
:102CA0009093910180939001E0919201F0919301B2
:102CB000309721F00680F781E02D09940895209146
:102CC0008E0130918F012817390771F090938F0191
:102CD00080938E01E0919201F0919301309721F061
:102CE0000084F185E02D099408959C012E5F3F4FEB
:102CF000AC01485F5F4F80E02417350709F4089561
:102D0000F90191919F019923B9F38F5FF5CF662364
:102D100049F0FC01329608962191261729F0E81710
:102D2000F907D1F780E0089581E008959C01FC0146
:102D300032969FEF80E04191461751F09F3F19F482
:102D4000411101C0982F8F5F8630A9F79F3F09F48A
:102D50000895290F311D97FD3A95F9016283089571
:102D6000FC01329608962191261303C0DF011197CA
:102D70001C92E817F907B9F708950C9496160C946D
:102D8000B016029626E0FC0111922A95E9F7089503
:102D90000895089508950C94CA168091B601843060
:102DA00049F10E94CB1680E00E941E02109294010D
:102DB00088E190E020E40FB6F894A8958093600035
:102DC0000FBE2093600083B7817F846083BF83B789
:102DD000816083BF7894889583B78E7F83BF0FB659
:102DE000F894A895809160008861809360001092AB
:102DF00060000FBE089508950E94C9160E945A0FE0
:102E00000E94FB1680E00E940C0F91E0811101C02E
:102E100090E0892F089508950C940B170E942105C6
:102E20000E9432160E941E020C940C171F921FB6AD
:102E30001F9211248F939F93AF93BF93809194011E
:102E4000811113C08091AE019091AF01A091B001AA
:102E5000B091B1014196A11DB11D8093AE01909337
:102E6000AF01A093B001B093B101BF91AF919F9119
:102E70008F911F901FBE1F90189582E084BD93E034
:102E800095BD9AEF97BD80936E0008952FB7F89483
:102E90008091AE019091AF01A091B001B091B101CC
:102EA0002FBF08952FB7F8946091AE017091AF01D4
:102EB0008091B0019091B1012FBF08959C014FB74F
:102EC000F8948091AE019091AF01A091B001B091C2
:102ED000B1014FBF821B930B089578941F921FB6C8
:102EE0001F9211248F939F93AF93BF938091AE0154
:102EF0009091AF01A091B001B091B1010196A11DD7
:102F0000B11D8093AE019093AF01A093B001B09337
:102F1000B101BF91AF919F918F911F901FBE1F90E4
:102F2000189581E08093E00080E28093D8001092B1
:102F3000C9008FE19EE40197F1F700C0000087E02F
:102F400090EBDC018093BF019093C001A093C1017D
:102F5000B093C20188E19CE00FB6F894A8958093E5
:102F600060000FBE90936000FFCF90931F0180938D
:102F70001E01089580919D0108950895CF93DF93D8
:102F8000EC0181E08093E9008FEF9091E80081509F
:102F900095FD06C095ED9A95F1F700008111F5CFEA
:102FA0008091E80085FF14C050E040E068E070E0E8
:102FB000CE010E944E198091E8008E778093E80040
:102FC00088E0FE01A5E9B1E001900D928A95E1F754
:102FD000DF91CF9108950895089508950895089573
:102FE00042E061EC81E00C94561A8091B801833084
:102FF00009F45DC030F48130B1F1823009F499C038
:1030000008958A3009F485C08B3009F46BC089308B
:1030100009F04CC08091B701813209F047C080911E
:10302000BB019091BC01892B09F040C08091E80060
:10303000877F8093E8008091E80082FF33C0809111
:10304000F200823029F48091F1008B7F813021F4ED
:103050008091F10080939D018091E8008B778093AF
:10306000E8000C948A1A8091B701813AF9F48091B2
:10307000E800877F8093E8008091BB019091BC01BC
:10308000892B61F468E085E991E070E00E949D1968
:103090008091E8008B778093E800089560E090E0ED
:1030A00080E0F3CF8091B6018111C5CF0895809162
:1030B000B701813AD9F78091BB019091BC01892B6E
:1030C000A9F78091E800877F8093E8008091E8006D
:1030D00080FFFCCF809112018093F1008091E80085
:1030E0008E77BDCF8091B701813201F78091BB010E
:1030F0009091BC01892BD1F68091E800877F809365
:10310000E8000E948A1A8091B901809312010C9400
:1031100021058091B701813249F68091E800877FCF
:103120008093E8000E948A1A8091BA0180939E01E0
:1031300008958091B701813A09F0B8CF8091E800F5
:10314000877F8093E8008091E80080FFFCCF80912A
:103150009E01C2CF84B7877F84BF0FB6F894A8952D
:1031600080916000886180936000109260000FBEC3
:1031700080E890E00FB6F89480936100909361002E
:103180000FBE0C94500C0E94DA1A0E942D1BE2EE26
:10319000F0E080818460808378940E94851D0E9485
:1031A000620C88E091E00C942D168091B601853078
:1031B00031F48091B601853021F00E940E170C94F5
:1031C0006A0C0E94CD168091B401882391F30E946D
:1031D000FC16882371F30E9438190E942105E9CF5B
:1031E0000C94F218292F332723303105C9F058F4F5
:1031F0002130310599F122303105A9F190E080E0CC
:1032000030E020E01DC02132310509F122323105C4
:10321000A9F780E490E026ED31E0672B79F710C044
:1032200099278130910581F0009729F0029731F7B5
:10323000ECE7F1E002C0EEE9F1E0849190E09F015B
:10324000FA01318320830895E6E8F1E0F6CF89E0C2
:1032500090E024EB31E0672B89F6F2CF82E190E039
:1032600024EC31E0EDCF82E290E022EA31E0E8CFD9
:1032700084E089BD86E089BD09B400FEFDCF809160
:10328000D8008F7D8093D8008091E0008260809389
:10329000E0008091E00081FDFCCF0895AF92BF92E5
:1032A000CF92DF92FF920F931F93CF93DF936C0126
:1032B000EB018A010E94A91AF82E811123C0011581
:1032C000110539F0F80180819181C81BD90BC80E16
:1032D000D91EB12CA12C2097A9F08091E80085FD82
:1032E00022C08091E8008E778093E80001151105D7
:1032F000A1F0F80180819181A80EB91EB182A0824F
:1033000085E0F82E8F2DDF91CF911F910F91FF90C7
:10331000DF90CF90BF90AF9008950E94A91A8823A4
:10332000D1F2F82EEFCFF60181916F018093F10079
:103330002197FFEFAF1ABF0ACECFFC018091BD01EC
:103340009091BE0186179707A0F06115710529F4C9
:103350009091E8009E779093E80090E061157105E8
:1033600051F4911108C08091E80082FF32C080E0E2
:103370000895BC01F2CF8091B6018823B1F1853068
:10338000B1F18091E80083FD2EC08091E80082FDBC
:10339000EACF8091E80080FFE1CF2091F20030E099
:1033A0006115710519F02830310558F091E0283089
:1033B000310509F090E02091E8002E772093E80095
:1033C000CDCF81918093F100615071092F5F3F4F04
:1033D000E7CF8091B601882341F0853041F080919C
:1033E000E80083FFC0CF81E0089582E0089583E084
:1033F0000895FC018091BD019091BE018617970749
:10340000A0F06115710529F48091E8008E77809312
:10341000E80090E06115710551F4911108C08091A8
:10342000E80082FF33C080E00895BC01F2CF8091B4
:10343000B6018823B9F18530B9F18091E80083FDA8
:103440002FC08091E80082FDEACF8091E80080FFE4
:10345000E1CF2091F20030E06115710519F02830BC
:10346000310558F091E02830310509F090E0809165
:10347000E8008E778093E800CDCF84918093F100AF
:103480003196615071092F5F3F4FE6CF8091B601B1
:10349000882341F0853041F08091E80083FFBFCF61
:1034A00081E0089582E0089583E00895982F953093
:1034B00028F08F708093E90081E008959093E900EF
:1034C000242F762F50E0981731F07091EC00209166
:1034D000ED005091F00021FD02C09F5FE8CF3091D8
:1034E000EB003E7F3093EB003091ED003D7F309359
:1034F000ED003091EB0031603093EB007093EC0005
:103500002093ED005093F0002091EE0027FDE5CFD1
:1035100080E008958091B70187FF13C08091E80093
:1035200082FF06C08091E8008B778093E80004C09A
:103530008091B6018111F2CF08958091B601882360
:10354000D9F38091E80080FFF8CF8091E8008E7772
:10355000ECCF2091E4003091E50095E6A90120919F
:10356000EC00822F817020FF06C08091E80080FF70
:1035700006C080E008952091E80022FD1AC08091E5
:10358000B601882389F0853089F08091EB0085FDB4
:103590000FC02091E4003091E50042175307F9F283
:1035A0009150E1F684E0089582E0089583E0089563
:1035B00081E008950E94371B0E943A1BE0EEF0E084
:1035C000808181608083E8EDF0E080818F77808367
:1035D00019BCE3E6F0E08081816080831092B50140
:1035E00008950E94371B0E943A1B8091D8008F7764
:1035F0008093D8008091D80080688093D800809113
:10360000D8008F7D8093D80084E089BD86E089BD95
:1036100009B400FEFDCF1092B6011092B2011092D3
:10362000B4011092B30142E060E080E00E94561ABB
:103630008091E1008E7F8093E1008091E2008160C3
:103640008093E2008091E20088608093E2008091A4
:10365000E0008E7F8093E0000895E3E6F0E0808153
:103660008E7F808381E08093B5010C94F11A1092D3
:10367000E20008951092E10008951F920F920FB694
:103680000F9211242F933F934F935F936F937F93E8
:103690008F939F93AF93BF93EF93FF938091E1003C
:1036A00082FF0BC08091E20082FF07C08091E100A1
:1036B0008B7F8093E1000E94841D8091E10080FF58
:1036C00019C08091E20080FF15C08091E2008E7FDA
:1036D0008093E2008091E20080618093E20080911B
:1036E000D80080628093D80019BC85E08093B60131
:1036F0000E94EE178091E10084FF2BC08091E200D0
:1037000084FF27C084E089BD86E089BD89B5982FF4
:10371000917080FFFBCF8091D8008F7D8093D8007F
:103720008091E1008F7E8093E1008091E2008F7EA6
:103730008093E2008091E20081608093E2008091BA
:10374000B201882309F443C084E08093B6010E944B
:10375000EF178091E10083FF29C08091E20083FF91
:1037600025C08091E100877F8093E10082E0809313
:10377000B6011092B2018091E1008E7F8093E1004A
:103780008091E2008E7F8093E2008091E200806170
:103790008093E20042E060E080E00E94561A80914F
:1037A000F00088608093F0000E94ED17FF91EF9188
:1037B000BF91AF919F918F917F916F915F914F9149
:1037C0003F912F910F900FBE0F901F9018958091F1
:1037D000E30087FD93E09093B601B9CF1F920F925B
:1037E0000FB60F9211242F933F934F935F936F93D4
:1037F0007F938F939F93AF93BF93CF93DF93EF9379
:10380000FF93D091E900DF708091EC00C82FC17068
:1038100080FDC0E81092E9008091F000877F8093DE
:10382000F00078940E94321C1092E9008091F00020
:1038300088608093F000CD2BCF70C093E900FF919A
:10384000EF91DF91CF91BF91AF919F918F917F9138
:103850006F915F914F913F912F910F900FBE0F90FD
:103860001F9018951F93CF93DF93CDB7DEB7AA971C
:103870000FB6F894DEBF0FBECDBF87EB91E020916D
:10388000F100FC012193CF01F1E08F3B9F07B9F7D5
:103890000E94F5178091E80083FF1EC18091B70157
:1038A0009091B8019A3008F017C1E92FF0E0E35A7F
:1038B000F14E0C94E21D803899F0823809F00CC169
:1038C0008091BB018F70853008F006C18093E900BC
:1038D0008091EB0085FB882780F91092E90006C0F3
:1038E0008091B3019091B401911182609091E800B0
:1038F000977F9093E8008093F1001092F1008091FF
:10390000E8008E77E5C0882309F4D3C0823009F03F
:10391000E3C08091B9018111D6C08091BB018F7045
:103920002FEF280F243008F0D7C08093E9002091B2
:10393000EB0020FFC8C0933031F48091EB0080622F
:103940008093EB00C0C09091EB0090619093EB00EE
:1039500021E030E001C0220F8A95EAF72093EA00C7
:103960001092EA008091EB008860EACF8111B4C028
:103970001091B9011F778091E3008078812B8093AB
:10398000E3008091E800877F8093E8000E948A1A14
:103990008091E80080FFFCCF8091E30080688093F5
:1039A000E30082E0111183E08093B60195C0805856
:1039B000823008F091C08091B9019091BA018C3D9C
:1039C00023E09207A1F583E08A838AE289834FB7D7
:1039D000F894DE01139620E03EE051E2E32FF0E0A0
:1039E00050935700E49120FF03C0E295EF703F5FD2
:1039F000EF708E2F90E0EA30C0F0C7968D939D93C4
:103A00002F5F243159F74FBF8091E800877F809363
:103A1000E8006AE270E0CE0101960E949D19809153
:103A2000E8008B778093E80057C0C096E7CF60919D
:103A3000BB017091BC01AE014F5F5F4F0E94F01857
:103A4000BC01892B09F448C09091E800977F9093BE
:103A5000E80089819A810E94F919E1CF8038E1F567
:103A60008091E800877F8093E8008091B201809385
:103A7000F10045CF811130C09091B901923060F5CD
:103A80008091E800877F8093E8009093B2010E94C4
:103A90008A1A8091B201882311F084E005C08091D8
:103AA000E30087FDFACF81E08093B6010E94F01712
:103AB00013C08091B901813079F481E0933009F02D
:103AC00080E08093B4011092E9008091E800877F44
:103AD0008093E8000E948A1A8091E80083FF0AC060
:103AE0008091E800877F8093E8008091EB008062FE
:103AF0008093EB00AA960FB6F894DEBF0FBECDBF41
:103B0000DF91CF911F9108950895CF938091B601D1
:103B10008823A1F0C091E900CF709091EC00892F2B
:103B2000817090FD80E8C82B1092E9008091E80038
:103B300083FD0E94321CCF70C093E900CF9108959D
:103B4000002480FD060E660F11F08695D1F7802DBA
:103B500008950024552704C0080E591F880F991F87
:103B6000009729F076956795B8F37105B9F7802D20
:103B7000952F0895AA1BBB1B51E107C0AA1FBB1FAD
:103B8000A617B70710F0A61BB70B881F991F5A95E9
:103B9000A9F780959095BC01CD01089597FB072E5C
:103BA00016F4009407D077FD09D00E94BA1D07FCD7
:103BB00005D03EF4909581959F4F0895709561953D
:103BC0007F4F0895EE0FFF1F0590F491E02D0994AB
:103BD000FC014150504030F001900616D1F731976A
:103BE000CF010895882799270895F999FECF92BDAE
:103BF00081BDF89A992780B50895A6E1B0E044E028
:103C000050E00C942F1EA8E1B0E042E050E00C948C
:103C10002F1E262FF999FECF92BD81BDF89A0197EC
:103C200000B4021639F01FBA20BD0FB6F894FA9A04
:103C3000F99A0FBE08950396272F0E940A1E0E942C
:103C4000091E252F0E940A1E242F0C940A1E01967D
:103C5000272F0E940A1E0C94091EDC01CB01FC01D7
:103C6000F999FECF06C0F2BDE1BDF89A319600B4D5
:103C70000D9241505040B8F70895F894FFCF1D03BE
:103C80001D03750375034A034A034A034A03C70326
:103C9000530462046204BE044A034A03C7043005A5
:103CA0003005390539053B05390539053905300534
:103CB000300540053905390540055B1C831C6C1D2A
:0E3CC000831C6C1DB61CD71C6C1D2E1D3A1DDE
:103CCE006801000200020201BA17BE17EB17BD17FA
:0E3CDE00EC17010001020202050505050505AF
:00000001FF
