:100000000C9476030C94AE030C94AE030C94AE03E4
:100010000C94AE030C94AE030C94AE030C94AE039C
:100020000C94AE030C94AE030C94FC1C0C94B81C02
:100030000C94F91D0C94AE030C94AE030C94AE0317
:100040000C94AE030C94AE030C94AE030C94AE036C
:100050000C94AE030C94D51D0C94AE030C94AE031B
:100060000C94AE030C94AE030C94AE030C94AE034C
:100070000C94AE030C94AE030C94AE030C94AE033C
:100080000C94AE030C94AE030C94AE030C94AE032C
:100090000C94AE030C94AE0300000000A800000016
:1000A00020783378290000003A003B003C003D00F6
:1000B0003E003F0040004100420043004400450034
:1000C000460047004800000001000000000000005A
:1000D0000000000000002878277801000000680078
:1000E00069006A006B006C006D006E006F007000AC
:1000F00045007200730001000100010000000000D3
:10010000000000005300540055005600227821786A
:1001100035001E001F0020002100220023002400C3
:100120002500260027002D002E002A0049004A0045
:100130004B0053005400550056005F006000610002
:1001400057002B782C782B0014001A00080015009B
:1001500017001C0018000C00120013002F003000C4
:1001600031004C004D004E005F0060006100570000
:100170005C005D005E0000002D782E7839000400E0
:100180001600070009000A000B000D000E000F000A
:1001900033003400000028000000000000005C0074
:1001A0005D005E00000059005A005B0058002F7887
:1001B0003078E1001D001B00060019000500110049
:1001C00010003600370038000000E5000000000095
:1001D0005200000059005A005B0058006200000005
:1001E0006300000031783278E000E300E2000000B4
:1001F00000002C41000000000000E200E7000000C9
:100200006500E400500051004F00620000006300F0
:1002100000000000000001000000010001000100DA
:1002200000000100010001000100010001000100C7
:1002300001000100010001000100010001000100B6
:1002400000000100000000000000000000000000AD
:100250000100010001000000010001000100010097
:100260000100010001000100010001000100010086
:10027000010001000100000000000000000001007A
:100280000100010001000100010001000100010066
:100290000100010001000100010001000100010056
:1002A0000100010001000100010001000100010046
:1002B0000100010001000100010001000100010036
:1002C0000100010001000100010001000100010026
:1002D0000100010001000100010001000100010016
:1002E0000100010001000100010001000100010006
:1002F00000000100010001000100010001000100F7
:1003000001000100010001000100010001000000E6
:1003100001000000000000000100010001000000D9
:1003200001000100010001000100010001000100C5
:1003300001000100010001000100010001000100B5
:1003400001000000010000000000010000000100A9
:100350000100010001000100000001000000010097
:100360000100010001000100000000000100000088
:100370000000000001000100000001000100010078
:10038000010001000100000001000000A900AA0016
:10039000BD00BE0023782478257826781E0F05003E
:1003A000047F3F1F643214643214783C1E1E140A0A
:1003B0000500010101010101010101020202020225
:1003C00002020202030303030303030304040404FD
:1003D00004040405050505050606060606070707C5
:1003E000070708080808090909090A0A0A0B0B0B7C
:1003F0000C0C0C0D0D0D0E0E0E0F0F0F1010111119
:10040000111212131314141515161617171818199C
:10041000191A1A1B1B1C1D1D1E1E1F202021222203
:10042000232424252626272829292A2B2C2D2D2E46
:100430002F30313232333435363738393A3B3C3D60
:100440003E3F404142434445464748494A4C4D4E51
:100450004F50515354555658595A5B5D5E5F616217
:1004600064656668696B6C6D6F7072737577787AA6
:100470007B7D7E8082838587888A8C8E8F91939501
:1004800096989A9C9EA0A2A3A5A7A9ABADAFB1B325
:10049000B5B7BABCBEC0C2C4C6C9CBCDCFD1D4D605
:1004A000D8DBDDDFE2E4E7E9EBEEF0F3F5F8FAFDA7
:1004B000FFFFAA7F55402223252628292A2C2D2FED
:1004C0003032333536383A3B3D3E4042434547496A
:1004D0004A4C4E5051535557595A5C5E606264669F
:1004E00068696B6D6F71737577797B7D7F818385AB
:1004F00087898A8C8E90929496989A9C9E9FA1A3AD
:10050000A5A7A8AAACAEAFB1B3B4B6B8B9BBBCBED0
:10051000BFC1C2C3C5C6C7C9CACBCCCDCED0D1D24C
:10052000D2D3D4D5D6D7D7D8D9D9DADADBDBDBDC4E
:10053000DCDCDCDCDDDDDDDDDCDCDCDCDCDBDBDBFA
:10054000DADAD9D9D8D7D7D6D5D4D3D2D2D1D0CE5A
:10055000CDCCCBCAC9C7C6C5C3C2C1BFBEBCBBB95F
:10056000B8B6B4B3B1AFAEACAAA8A7A5A3A19F9EDD
:100570009C9A98969492908E8C8A89878583817FA5
:100580007D7B79777573716F6D6B69686664626086
:100590005E5C5A5957555351504E4C4A4947454352
:1005A00042403E3D3B3A3836353332302F2D2C2AEF
:1005B00029282625232205010902A1018502090116
:1005C000A1000509190129081500250195087501E3
:1005D00081020501093009311581257F95027508D1
:1005E000810609381581257F950175088106050C5E
:1005F0000A38021581257F950175088106C0C0055E
:10060000010980A101850319012AB700150126B748
:1006100000950175108100C0050C0901A101850438
:1006200019012AA002150126A0029501751081006A
:10063000C005010906A101050719E029E7150025F4
:100640000195087501810295017508810105071959
:100650000029FF150026FF00950675088100050892
:1006600019012905950575019102950175039101FF
:10067000C009023B00020100A0FA090400000103C6
:100680000101000921110100012240000705810339
:100690000800010904010001030000000921110103
:1006A0000001227B000705820320000112010002E5
:1006B0000000000857507476000101020001100389
:1006C000560069006B0074006F0072007900000032
:1006D000160350004C0049005000200057006F00E6
:1006E00072006B00730000000403090411241FBE94
:1006F000CFEFD0E1DEBFCDBF04B603FE18C08091BE
:10070000DC079091DD07A091DE07B091DF0787300D
:10071000904BA740B04B59F41092DC071092DD07C4
:100720001092DE071092DF07E0E0F8E7099527E076
:10073000A6EBB1E001C01D92AC3DB207E1F711E0BC
:10074000A0E0B1E0EEEAF9E402C005900D92A63B0C
:10075000B107D9F70E94201E0C9481240C9400004C
:10076000E8EDF0E080818C7F80831092E2001092AF
:10077000DA001092E100A0EEB0E08C9181608C93E1
:1007800080818F77808319BCA7EDB0E08C918E7F3C
:100790008C9380818F7E80831092C2070895209170
:1007A000E4003091E50095E6A9012091EC00822F4C
:1007B000817020FF06C08091E80080FF06C080E0C5
:1007C00008952091E80022FD1AC08091CF07882368
:1007D00089F0853089F08091EB0085FD0FC0209174
:1007E000E4003091E50042175307F9F29150E1F629
:1007F00084E0089582E0089583E0089581E00895FB
:100800008091D10787FF13C08091E80082FF06C066
:100810008091E8008B778093E80004C08091CF0737
:100820008111F2CF08958091CF078823D9F3809169
:10083000E80080FFF8CF8091E8008E77ECCF982F0A
:100840009093E900242F762F50E0891731F07091B2
:10085000EC002091ED005091F00021FD07C09F5F5A
:10086000973071F78093E90081E008953091EB00B3
:100870003E7F3093EB003091ED003D7F3093ED00F3
:100880003091EB0031603093EB007093EC002093DB
:10089000ED005093F0002091EE0027FDE0CF80E0C6
:1008A0000895B0E0A0E0E7E5F4E00C943323C8ED50
:1008B000D0E088818F7E8883E7EDF0E080818160E1
:1008C000808381E08093C20788818C7F888302EED9
:1008D00010E0D8011C921092DA0081EEC82ED12CC3
:1008E000D6011C9288818F7788838881806888836D
:1008F00088818F7D888380818068808319BC109275
:10090000CF071092D0071092CE071092CD0790EE2D
:10091000E92EF12CF70180818B7F808388818160B3
:10092000888342E060E080E00E941F04D6018C9141
:100930008E7F8C93F80180818160808380818860C4
:100940008083D7018C918E7F8C938881806188838E
:10095000CDB7DEB7E8E00C944F23FC018091D707B8
:100960009091D80786179707A0F06115710529F4B3
:100970009091E8009E779093E80090E061157105F2
:1009800051F4911108C08091E80082FF33C080E0EB
:100990000895BC01F2CF8091CF078823B9F185304B
:1009A000B9F18091E80083FD2FC08091E80082FDBD
:1009B000EACF8091E80080FFE1CF2091F2003091F2
:1009C000F3006115710519F02830310558F091E0F8
:1009D0002830310509F090E02091E8002E7720932F
:1009E000E800CCCF81918093F100615071092F5FB5
:1009F0003F4FE7CF8091CF07882341F0853041F00A
:100A00008091E80083FFBFCF81E0089582E00895E0
:100A100083E008958091C40708959C014FB7F8942E
:100A20008091BE079091BF07A091C007B091C10708
:100A30004FBF821B930B08952FB7F8948091BE0788
:100A40009091BF07A091C007B091C1072FBF089533
:100A50009C01FC0132969FEF80E04191461751F0D6
:100A60009F3F19F4411101C0982F8F5F8630A9F77D
:100A70009F3F09F40895290F311D97FD3A95F9011B
:100A800062830895A3E0B0E0E8E4F5E00C94392334
:100A90002091BB073091BC0728173907A1F090932C
:100AA000BC078093BB07E091B907F091BA07309774
:100AB00051F024E029839B838A830680F781E02D0F
:100AC000CE01019609952396E2E00C945523A3E00C
:100AD000B0E0EDE6F5E00C9439232091B7073091B2
:100AE000B80728173907A1F09093B8078093B70784
:100AF000E091B907F091BA07309751F023E02983CC
:100B00009B838A830680F781E02DCE0101960995AB
:100B10002396E2E00C945523E091B907F091BA07CF
:100B2000309729F00190F081E02D0995089580E03B
:100B30000895FA01811101C0FB01099508950895F6
:100B40008091B207982F9E7F61F4817082608093BC
:100B5000B2078091B507873918F086E98093B50709
:100B600008958635B0F381708465F1CFAF92BF925E
:100B7000DF92EF92FF920F931F93CF93DF93182F83
:100B8000062FE901473908F046E9E42FF0E0EF5479
:100B9000FC4F011110C0E4915E2F4E2F4983E88372
:100BA0005A83DF91CF911F910F91FF90EF90DF90CB
:100BB000BF90AF900895202F30E04491D42EE42EC2
:100BC000F12C56E0159FC0011124EFEFF0E0BF01BA
:100BD0000E94EC22812F90E0880F991F55E5569FC7
:100BE000D001579FB00D11248A1B9B0B982F990F92
:100BF000890F5F01A21AB30AAE9CD001AF9CB00D61
:100C0000BE9CB00D11245B2F089F80011124012F81
:100C100011275F01A01AB10AAE9C8001AF9C100D94
:100C2000BE9C100D11245F01A81AB108A29EC0013C
:100C3000A39E900DB29E900D1124892F9927E81B39
:100C4000F90BEE9DC001EF9D900DFE9D900D1124BE
:100C5000E92F62307105A1F050F46115710509F4B6
:100C60009DCF6130710581F0EB2F512F97CF64300C
:100C7000710569F080F06630710509F48FCFF4CF0B
:100C8000E42F4B2F592F8ACFE42F412F87CFEB2F03
:100C9000542F492F83CF4B2F5D2DE12F7FCF0E9403
:100CA0001C059C019091DB028091DC02982B21F0C5
:100CB0003093D8022093D7029091DD028091DE021A
:100CC000982B21F03093D6022093D502E091B907FA
:100CD000F091BA07309749F082E08093D9020480FE
:100CE000F581E02D89ED92E0099508958091D40277
:100CF00080FD16C081FD16C082FD16C08091D30212
:100D00008823A1F0883280F428E0829FC00111245A
:100D100068E270E00E940023862F672B39F0089567
:100D200082E0089584E0089588E0089581E00895C0
:100D30008091D40280FD14C081FD14C082FD16C0D4
:100D40008091D202882381F08E3180F420E5829F49
:100D5000C00111246EE170E00E940023862F0895E7
:100D600084E1089588E2089588E0089580E5089573
:100D700080E00895F894E82FE295EF70F0E031A15B
:100D8000282F2F7081E090E001C0880F2A95EAF7A4
:100D9000982F9095932391A392A1892B82A3789465
:100DA000089590918E0292FF06C0282F2871283056
:100DB000F9F4877F846093FF06C0282F28712831BB
:100DC000F1F4877E846120918F0220FF06C0382FC6
:100DD00038713830D9F4877F816021FF06C0282F11
:100DE00028712831D1F4877E816194FD877E089532
:100DF000282F24712430F9F68B7F8860DCCF282FD0
:100E00002471243101F78B7E8861DDCF382F317159
:100E1000313019F78E7F8860E0CF282F2171213182
:100E200021F78E7E8861E1CF82389105B9F1B0F467
:100E30008133910509F47DC048F48932910509F4A4
:100E40006DC08A32910509F47BC008958533910500
:100E500009F45FC08933910509F10895833E910536
:100E6000D9F138F4803E910529F1823E910579F15E
:100E70000895863E9105D9F1873E910509F43EC05B
:100E8000843E910541F520918F0221FF24C080917D
:100E90008E0284FD19C087EE90E0089520918E02A5
:100EA000237009F05AC020918F0223FF14C089E2F9
:100EB00090E0089520918E0220FD38C030918F027D
:100EC00030FF09C024FF43C090E080E008952091E6
:100ED0008E0222FDF7CF089520918E0222FD3AC0A6
:100EE00030918F0230FD39C024FFF5CFEDCF209136
:100EF0008E0223FFF0CF24FDE7CFCDCF20918E02CD
:100F000023FD2EC030918F0231FFEECF84EE90E0B2
:100F1000089520918E0225FFDECFC9CF20918E0249
:100F200025FD21C020918F0223FFD5CF89E390E0DA
:100F3000D2CF20918E0226FFCECF8AE290E0089594
:100F400020918E0226FFC7CF81E390E0089583EEC3
:100F500090E0089582EE90E0089580EE90E008958C
:100F600086EE90E0089585E390E00895E62F972FB0
:100F70007730C8F46B3108F03EC0823008F03EC0D4
:100F800070E02BE1929F600D711D1124FB019DEB20
:100F9000899FE00DF11D1124EE0FFF1FE856FF4F52
:100FA0008591949108957D3F91F4623020F58230CF
:100FB00028F5682F70E0660F771FE60FF72FF11DF9
:100FC000EE0FFF1FEE0FFF1FE457FC4FE9CF7C3FF2
:100FD00091F4623080F4823088F4682F70E0660FFC
:100FE000771FE60FF72FF11DEE0FFF1FEE0FFF1F0C
:100FF000E257FC4FD5CF80E090E0089581E0FCCF30
:101000001F93CF93DF930E941407EC01C11580E575
:10101000D807F0F5C11580E4D80708F09CC0C03EA1
:10102000D10520F5CD3CD10508F082C0C83AD105E4
:1010300078F4C53AD10508F073C0C130D10519F173
:10104000209709F1C430D105F0F4D0E0C0E01BC016
:10105000C13CD105D0F7C85AD0E0CC0FDD1FC25E2D
:10106000DE4F0990D881C02DD4640DC0C11580E237
:10107000D80708F0D1C0C11581E0D80708F05AC0E0
:10108000C83ED10510F7CE01DF91CF911F91089591
:10109000C03682E5D80718F5C03482E5D80708F0D5
:1010A0006BC0C03282E5D80708F05FC0C11582E589
:1010B000D80708F497C02C2F2695269580E2289F04
:1010C000900111248C2F8370C1E0D0E002C0CC0FBE
:1010D000DD1F8A95E2F7C22BD32BDD68D4CFC03A4F
:1010E00082E5D80760F4C03882E5D80708F459C013
:1010F000CF71D0E0DC2FCC27C46FD06AC4CFC03C06
:1011000082E5D80708F462C0C03E82E5D80708F03F
:101110009CCFDC2FCC27CC27DF71C06FD06AB3CF38
:10112000C55AD0E0C55EDE4FC881D0E0D064ABCFF9
:10113000D065A9CF8D2F0E94D106182FCE019927F7
:101140000E941407C12FD0E0DC2FCC27CC27DF7101
:10115000C82BD92B98CFCE0199270E941407CC27F2
:10116000DF70C82BD92BD06A8ECFCF71D0E0DC2FA7
:10117000CC27C16FD06A87CF2C2F26952695277054
:1011800080E2289F900111248C2F8370C1E0D0E071
:1011900002C0CC0FDD1F8A95E2F7C22BD32BDC688F
:1011A00072CF2C2F26952695277080E2289F9001DC
:1011B00011248C2F8370C1E0D0E002C0CC0FDD1F62
:1011C0008A95E2F7C22BD32BDA685DCF8C2F8F7113
:1011D0000E94D106C82FD0E0DC2FCC27CC27DF71AE
:1011E000D06251CF8C2F8F710E94D10655E0D695D9
:1011F000C7955A95E1F7CF70D0E0DC2FCC27282F88
:1012000030E084FF05C044E0220F331F4A95E1F728
:10121000C22BD32BD06937CF8D2F8F710E94D1066F
:10122000182FCE0199270E941407C12FD0E0DC2F80
:10123000CC27CC27DF71C82BD92BD2CF8091680265
:101240008111109268020895809590916702982309
:1012500090936702089520915C0290912B0256E0D2
:10126000291302C080E0089530E0529FF001539F9F
:10127000F00D1124E45DFD4F7181761306C070817D
:10128000781303C07281741304C02F5F3F4F27701F
:10129000E7CF81E0089580915C0290912B02981332
:1012A00001C008958F5F8770FACFB0E0A0E0EBE552
:1012B000F9E00C9432237C0100918C0210918D0294
:1012C0008091690290916A02082B192BCFE0D0E03F
:1012D000CC24C394D12CBC2EC6010C2E02C0880F86
:1012E000991F0A94E2F780239123892B49F42197CF
:1012F00090F7B12C8B2DCDB7DEB7E9E00C944E23DF
:10130000B7018C2F0E94B6070E940008019779F35D
:10131000F1CFCF93DF93EC010E945509BE010E94EB
:10132000B6070E940008DF91CF910895A82FA770FB
:1013300023E0969587952A95E1F7880F991F880FE6
:10134000991FFB01E80FF91F50E040E080E0219178
:1013500030E00A2E02C0369527950A94E2F72170F4
:101360003327042E01C0220F0A94EAF7822B4F5F25
:101370005F4F4430510559F70895292F973068F48D
:101380008B3190F490E065EC71E03BE1239F800DA0
:10139000911D11240E94960908952C5F223020F49B
:1013A00061EC71E090E0F6CF80E00895262F277081
:1013B00091E001C0990F2A95EAF723E076956795A9
:1013C0002A95E1F7660F771F660F771FFA01E60F80
:1013D000F71F50E040E0682F70E08191DF01119726
:1013E0009B01042E02C0369527950A94E2F72170DE
:1013F00021952827292328272C934F5F5F4F4430BE
:10140000510559F70895282F862F973070F42B3106
:1014100058F4622F70E02BE1929F600D711D112432
:1014200045EC51E00E94D60908959C5F9230E0F7A8
:10143000622F70E041EC51E0F5CF90938D028093E4
:101440008C02089521E030E002C0220F331F8A95FC
:10145000E2F72095309580918C0290918D02822345
:1014600093230E941D0A089590915D02809589231F
:1014700080935D02282F277091F4282F082E000CEE
:10148000330B9217130659F090918F0292FF07C009
:101490008595859585950E94220A10925D02089592
:1014A00021E030E002C0220F331F8A95E2F78091DD
:1014B0008C0290918D02822B932B0E941D0A08951D
:1014C00090936A02809369020895FC01838194815C
:1014D000892B29F08081918189238F3F51F480E00D
:1014E0000895843FE1F717C0883EA8F0813FB9F71F
:1014F00012C0808191810E94890992959F709630D7
:1015000099F358F4925F9F70923048F7803F19F03A
:1015100040F7883E20F781E008959A5FF4CF662374
:1015200009F45DC08D3C41F40E949806819580933A
:10153000DC020E944F0608958E3C19F40E94980622
:10154000F6CF8F3C31F40E94980681958093DB02A0
:10155000F0CF803D19F40E949806F8CF893D29F418
:101560000E9476068093DD02E4CF8A3D21F40E943A
:1015700076068195F7CF8B3D31F40E9476068195F2
:101580008093DE02D6CF8C3D19F40E947606F8CF08
:101590009FE2980F983070F4815D990B21E030E064
:1015A00001C0220F8A95EAF78091DA02822B80939C
:1015B000DA02BFCF8D3D31F48091D40281608093F7
:1015C000D402B7CF8E3D21F48091D4028260F7CF50
:1015D0008F3D09F0AECF8091D4028460F0CF40916E
:1015E000DB028D3C59F48091DC0287FF0DC0109224
:1015F000DC0241110BC01092D20208C08E3C81F473
:101600008091DC0218169CF3442381F08091DD0266
:101610009091DE02892B09F08CCF1092D30289CFF2
:101620008F3C49F447FFF0CF1092DB028091DC023F
:101630008111ECCFE0CF803D19F41416ACF3E4CF68
:101640009091DD02893D29F41916F4F61092DD021D
:10165000DBCF8A3D19F497FFD7CFF8CF9091DE0208
:101660008B3D29F497FFD0CF1092DE02CDCF8C3D79
:1016700019F41916CCF3C8CF9FE2980F983090F464
:10168000815D990B21E030E0B90102C0660F771F40
:101690008A95E2F7CB0180959091DA0289238093B5
:1016A000DA02B2CF8D3D31F48091D4028E7F8093E7
:1016B000D402AACF8E3D21F48091D4028D7FF7CF42
:1016C0008F3D09F0A1CF8091D4028B7FF0CF0F9393
:1016D0001F93CF93DF938B01EA019091CF07943052
:1016E00061F58093E9008FEF9091E800815095FDBE
:1016F00006C095ED9A95F1F700008111F5CF809124
:10170000E80085FF1AC00E94CF03811111C08091AB
:10171000E80085FD06C08091E8008E778093E800A0
:10172000F2CFF80181918F018093F100219779F731
:101730008091E8008E778093E800DF91CF911F9130
:101740000F91089543E050E0BC0182E00E94670BD6
:10175000089546E050E0BC0182E00E94670B0895C6
:10176000CF93DF93EC0148E050E0BC0181E00E94A0
:10177000670B88E0FE01A5ECB7E001900D928A9519
:10178000E1F7DF91CF91089581E08093E00080E25E
:101790008093D8001092C9008FE19EE40197F1F781
:1017A00000C0000087E090EBDC018093DC079093A1
:1017B000DD07A093DE07B093DF0788E19CE00FB65A
:1017C000F894A895809360000FBE90936000FFCFBF
:1017D0008091B20780FD0AC0EAEEF2E01182108229
:1017E0001282339654E0E53BF507C1F76C9A3EB19F
:1017F0003F7E2EB120614FB7F8948AEE92E0FC0153
:101800005191CF0168E02EB9000000C057FF3EB9EA
:10181000550F000000C000C000C03EB900C06A956E
:1018200091F7F4E0853B9F0751F74FBF8FE594E0B8
:101830000197F1F700C000000895EF92FF920F9317
:101840001F93CF93DF938C01CAEED2E0F12CE12CF1
:10185000F80194816091B4078091B307FCE4EF161E
:10186000F104ECF49923E9F09E014091B5070E9440
:10187000B6052FEFE21AF20A239689E9E816F10479
:1018800039F70E94E80BF801848190E0019681709D
:1018900099278483CDB7DEB7E6E00C9451239923D2
:1018A00019F39E0140E0E3CFB0E0A0E0EAE5FCE000
:1018B0000C942F23EC014C81042F10E09801D801E7
:1018C0000E9472249B01AC010E943D244B015C01EB
:1018D000E0E2F0E0E01BF10BA5E5B0E0AC019B011C
:1018E0000E943D246B017C019F01DF010E941A23AD
:1018F0009B01AC010E9448249B01AC01280D391DBD
:101900004A1D5B1DC701B6010E945024F22E822F92
:1019100090E039E23F1598F143E0249F90011124B3
:1019200035952795122F10959AEEC92E92E0D92E53
:1019300000E085E5E82EEF188E2D01FD8F2D960134
:10194000412F6091B4070E94B6050F5F53E0C50EAA
:10195000D11C093989F70E94E80B9C8181E0992309
:1019600019F0903219F48FEF8093190180911901C9
:10197000890F8C83CDB7DEB7ECE00C944B2325E5C3
:1019800030E0A901481B590BCA019A01220F331FED
:10199000280F391F37FFC4CF2F5F3F4FC1CF0F93A1
:1019A0001F93CF93DF93CAEED2E0FE011182108223
:1019B0001282339684E0E53BF807C1F710E000E0BF
:1019C0008091E802082E000C990B081719077CF18A
:1019D00080911801082E000C990B801791073CF19B
:1019E0009E014091B5076091B4078091B3070E94B2
:1019F000B6050F5F1F4F23960939110509F70E949D
:101A0000E80B809117019091E802980F9093E802FB
:101A100090911801980F9093180119161CF0819558
:101A200080931701DF91CF911F910F910895198233
:101A300018821A82DECFB0E0A0E0E1E2FDE00C9473
:101A40003323FC018281DD24DA9480FD02C0DD2491
:101A5000D3940AEE12E0D0E0C0E0F80111821082C7
:101A6000128294E0E92EF12CC12C8091E7028C0DBA
:101A700087FD8756082E000C990B8C179D0791F453
:101A80008091B5078E9DA0018F9D500D1124559515
:101A900047955595479598016091B4078091B30794
:101AA0000E94B605CD0CF1E0EF1AF108F1F621968F
:101AB0000D5F1F4FC939D10581F60E94E80B809157
:101AC000E70291E0D9120CC0811108C088E9809327
:101AD000E702CDB7DEB7E8E00C944F238150F7CF93
:101AE00090E00196BE010E940023F1CFEF92FF9299
:101AF0001F93CF93DF93EC018AEEE82E82E0F82E5D
:101B000010E08C8197014091B5076091B407810F77
:101B10000E94B6051F5F83E0E80EF11C193989F7B2
:101B20000E94E80B9A818C8190FF08C08F5F8C83A4
:101B3000DF91CF911F91FF90EF9008958150F7CFE3
:101B40009091B20790FF0CC0EAEEF2E081836083CF
:101B50004283339694E0E53BF907C1F70E94E80B16
:101B60000895A3E0B0E0E7EBFDE00C9437238C018F
:101B70008091E90281110AC09E012F5F3F4F46E923
:101B80006FEF0E94B6058A818093E902F8016481B3
:101B9000613069F08091E90240E0662361F040E045
:101BA000623011F44091E90280E060E004C060918D
:101BB000E90240E080E00E94A00DF801848190E0FD
:101BC000019663E070E00E94002384832396E4E0A2
:101BD0000C945323A3E0B0E0E0EFFDE00C94392334
:101BE0009091B20790FF0AC09E012F5F3F4F0E9465
:101BF000B6054B8169818A810E94A00D2396E2E09F
:101C00000C945523CF93DF93EC01E2EBF7E0438193
:101C100062818C810E94EA0D8C818F5F8C83DF91C1
:101C2000CF910895CF93DF93EC01EC81F0E0EA547B
:101C3000FB4F4491E2EBF7E0628181810E94EA0D63
:101C40008C818F5F8C83DF91CF910895B0E0A0E00D
:101C5000ECE2FEE00C942B23FC016280448081E0E6
:101C60008483E6EBF4E07490E5E3F5E0E491009121
:101C7000B5070695015810E0000F111F012F11271D
:101C8000C5EBD4E02AEEC22E22E0D22E32EB832E18
:101C900037E0932EAA24AA94B12C55245A94E7191C
:101CA000EE2EF12C82E0861530F08091B307888308
:101CB0008091B4078983411016C01B821A82960155
:101CC0004A81698188810E94B605259683E0C80E05
:101CD000D11C8C169D0631F70E94E80BCDB7DEB7FC
:101CE000E0E10C9447238B818823E9F081508B83BA
:101CF000859DC00111246C8170E00E94EC22FB01E3
:101D0000FF27EA54FB4F8491E82FE719E59DC001B6
:101D10001124B7010E94EC228091B507689FB001A1
:101D200011247A83CCCF0E94AC23B5010E940023FA
:101D30008017910724F682E0861588F40E94AC2370
:101D4000B5010E94002388830E94AC232091B40730
:101D50002695622F70E00E940023280F29831A82A3
:101D60008091B507893C20F088EC8C838B83A7CFCA
:101D70008431D8F784E1F9CFCF92DF92EF92FF92CE
:101D80006B017C010E94A005B701A60188E090E0EC
:101D90000E94FC23FF90EF90DF90CF900895A3E086
:101DA000B0E0E5EDFEE00C942C23F82E762EE42E28
:101DB000622E9091B20790FF29C0E92FE695AE2FD1
:101DC000B0E0A657BE4F8C918093E5029E7F923083
:101DD00009F59E012F5F3F4F8F2D0E94B6054B8165
:101DE00069818A810E94A00DF092B3077092B407B6
:101DF000E092B507662051F06091B2077091B30789
:101E00008091B4079091B5070E94BC0E2396EFE035
:101E10000C944823823019F4E090B507E5CF863062
:101E200019F4F090B307E0CF8930D9F38931E1F6A6
:101E3000E9518E2F8170582EE695F0E0EF54FB4F5C
:101E4000E4910E2F10E08AEEC82E82E0D82EB12C3D
:101E5000A12C99E9892E912CC501B4010E94EC2294
:101E60008F2D511013C0860F96014E2D672D0E94A5
:101E7000B605A00EB11E83E0C80ED11C85EBC816B6
:101E800084E0D80649F70E94E80BAECF861BECCF62
:101E9000E2EBF7E0438121E1421B08F440E021E05E
:101EA000628181810E94CF0E0895E2EBF7E04381C9
:101EB00021E1420F08F44FEF21E0628181810E940D
:101EC000CF0E0895E2EBF7E0628121E1621B08F496
:101ED00060E021E0438181810E94CF0E0895E2EB12
:101EE000F7E0628121E1620F08F46FEF21E04381A6
:101EF00081810E94CF0E0895E2EBF7E0818121E01D
:101F00004381628188500E94CF0E0895E2EBF7E092
:101F1000818121E043816281885F0E94CF0E089514
:101F20008091B607882319F081508093B60760919D
:101F3000B2077091B3078091B4079091B5070E94E2
:101F4000BC0E08958091B607833018F48F5F80939C
:101F5000B6076091B2077091B3078091B407909172
:101F6000B5070E94BC0E08959091B20790FF2CC057
:101F7000917081112AC092609093B207662351F04C
:101F80006091B2077091B3078091B4079091B50743
:101F90000E94BC0E6091B207669570E04BE050E085
:101FA0008CE091E00E94BC23892BB1F01092E602F4
:101FB00081E08093E20220E04091B5076091B40790
:101FC0008091B3070E94CF0E08958B3210F0946574
:101FD000D3CF880F982BD0CF81E08093E6020E9468
:101FE0001C059093E0028093DF02E2CF8091B2075C
:101FF0008695815009F48AE261E00E94B40F089549
:102000008091B20786958F5F8B3208F081E061E0A6
:102010000E94B40F08959091B20790FF08C0969562
:10202000981728F0961718F40E940010089561E0A0
:102030000E94B40F0895E2EBF7E083E08083118201
:102040008FEF828386E9838314826081718182812C
:1020500093810E94BC0E0895809167029091660260
:10206000892B8093B80190916802992391F0892B74
:102070008093B80120E08AEB91E0FC013191CF011F
:1020800031112F5FF1E0803C9F07B9F721110E94C9
:102090001E0948E050E06EE572E088EB91E00E9496
:1020A000C923892BA9F088E0E8EBF1E0AEE5B2E0C6
:1020B00001900D928A95E1F7E091B907F091BA0786
:1020C000309731F00280F381E02D88EB91E00995A3
:1020D0000895882321F00E9424090E942C1008955D
:1020E000882339F090916702982B909367020E94A1
:1020F0002C1008958823D1F19CEF980F913A78F431
:10210000EAEBF1E09191891303C0DF0111971C9272
:1021100091E0E03CF907B1F70E942C10089590E29D
:10212000980F983050F4877091E001C0990F8A950C
:10213000EAF7892F0E942409EFCF9BE5980F93308F
:1021400028F490E080E00E946705089598E5980FD4
:102150009B3128F490E080E00E944205089593E3CB
:10216000980F933118F460E00E948F0A0895CF937E
:10217000C82F8823B1F08CEF8C0F813A00F5EAEB81
:10218000F1E080EC91E0DF012D91C21761F08A1738
:102190009B07D1F76C2F88EB91E00E9428050E94E5
:1021A0002C10CF9108952191C21303C0DF01119724
:1021B0001C928E179F07B9F70E942C10EBCF80E27C
:1021C0008C0F883068F4C77021E030E001C0220F26
:1021D000CA95EAF780916702822B80936702DFCF6E
:1021E000EBE5EC0FE33040F4F0E0E55EFE4F80817C
:1021F00090E00E946705D5CFE8E5EC0FEB3150F495
:10220000F0E0EE0FFF1FE25EFE4F808191810E94A1
:102210004205C7CF83E38C0F833118F661E08C2F22
:102220000E948F0ABECF0F931F93CF93DF93C62FC9
:10223000D42F022FFC0182818823A9F06093DB0751
:102240000E941C059093DA078093D907C77081E03C
:1022500001C0880FCA95EAF70E947010DF91CF91F4
:102260001F910F9108958091DB07681335C080910D
:10227000D9079091DA070E940D05883C910560F519
:1022800010E21D0FCD17B9F080E28C0F883040F4BA
:10229000C77081E001C0880FCA95EAF70E946910F3
:1022A000183048F481E09D2F977001C0880F9A95EF
:1022B000EAF70E947010802F0E94B710802F0E94B2
:1022C0007A10183058F6D77081E001C0880FDA957F
:1022D000EAF70E946910C2CFC77081E001C0880F81
:1022E000CA95EAF7F6CF90918F0292FB222720F948
:1022F000281779F080FB92F990938F0260918E02FB
:1023000070918F0284E090E00E94082482E00E9495
:10231000340A0895CF9310926702C6E0EAEBF1E029
:10232000DF018C2F1D928A95E9F790E080E00E94F2
:10233000670590E080E00E944205109266020E94CC
:102340002C10E9EDF2E0DF011D92CA95E9F7109239
:10235000D2021092D3021092D4020E944F06CF9163
:102360000895AAE2B0E0E7EBF1E10C94382381EDA7
:1023700097E02091F100FC012193CF01F7E0893D26
:102380009F07B9F78091D207833009F470C0B8F481
:10239000813009F447C0823009F4B1C08091E8006F
:1023A00083FF7EC28091D1079091D2079A3008F0C6
:1023B00077C2E92FF0E0ED57FB4D0C9414238A30DF
:1023C00009F48CC08B3009F46FC0893039F78091E3
:1023D000D107813219F78091D5079091D6070297DE
:1023E000E8F68091E800877F8093E8008091E8001C
:1023F00082FF38C08091F2009091F300029731F48F
:102400008091F100813011F0863021F48091F1004B
:102410008093C4078091E8008B778093E8000E9446
:102420000004BCCF8091D107813A09F0B7CF8091E9
:10243000E800877F8093E8008091D5079091D607C8
:10244000892B61F468E085EC97E070E00E94AD04B0
:102450008091E8008B778093E800A0CF60E090E067
:1024600080E0F3CF8091CF078111C0CF97CF8091CB
:10247000D107813A09F092CF8091D5079091D60784
:10248000892B09F08BCF8091E800877F8093E8004B
:102490008091E80080FFFCCF80911A018093F100C9
:1024A0008091E8008E77B9CF8091D107813209F011
:1024B00075CF8091D5079091D607892B09F06ECF03
:1024C0008091E800877F8093E8000E94000480915B
:1024D000D30780931A010E948A1160CF8091D1079F
:1024E000813209F05BCF8091E800877F8093E8001C
:1024F0000E9400048091D4078093C3074FCF80913E
:10250000D107813A09F04ACF8091E800877F809314
:10251000E8008091E80080FFFCCF8091C307BECF28
:10252000803899F0823809F0BBC18091D5078F704F
:10253000873008F0B5C18093E9008091EB0085FBFE
:10254000882780F91092E90006C08091CD0790910C
:10255000CE07911182609091E800977F9093E800F8
:102560008093F1001092F1008091E8008E7794C181
:10257000882309F482C1823009F092C18091D30787
:10258000811185C18091D5078F702FEF280F2630DC
:1025900008F086C18093E9002091EB0020FF77C10D
:1025A000933031F48091EB0080628093EB006FC137
:1025B0009091EB0090619093EB0021E030E001C03E
:1025C000220F8A95EAF72093EA001092EA008091A0
:1025D000EB008860EACF811163C11091D3071F77A8
:1025E0008091E3008078812B8093E3008091E80064
:1025F000877F8093E8000E9400048091E80080FFBC
:10260000FCCF8091E30080688093E30082E01111A9
:1026100083E08093CF0744C18058823008F040C1E6
:102620008091D3079091D4078C3D23E09207A1F5C8
:1026300083E08A838AE289834FB7F894DE01139698
:1026400020E03EE051E2E32FF0E050935700E491A8
:1026500020FF03C0E295EF703F5FEF708E2F90E098
:10266000EA30C0F0C7968D939D932F5F243159F7C0
:102670004FBF8091E800877F8093E8006AE270E0B6
:10268000CE0101960E94AD048091E8008B77809383
:10269000E80006C1C096E7CF4091D5075091D60714
:1026A000292F33272330310509F444C078F5213030
:1026B000310509F46FC08BE390E0E1E7F6E02230EA
:1026C000310509F0EDC02091E800277F2093E80054
:1026D0002091D7073091D8078217930708F49C01FF
:1026E00040E02115310509F064C0411162C08091BC
:1026F000E80082FDC9CF8091CF07882329F2853079
:1027000019F28091E80083FFF2CFBECF213231056C
:10271000A9F12232310509F0C3C04115510509F470
:1027200043C04130510509F0BBC08BE790E0E6EBB8
:10273000F5E0C9CF992781309105C1F0009759F094
:10274000029709F0ADC0EEEBF6E0E4918E2F90E039
:10275000EEEBF6E007C0E8EEF6E0E4918E2F90E0B5
:10276000E8EEF6E0009709F49BC0ADCFE0EDF6E0AF
:10277000E4918E2F90E0E0EDF6E0F4CF41155105A5
:1027800071F04130510509F08BC089E090E0ECE92F
:10279000F6E099CF82E190E0ECEAF6E094CF89E0B0
:1027A00090E0E3E8F6E08FCF80E490E0E1E3F6E04C
:1027B0008ACF8091CF07882309F466CF853009F44A
:1027C00063CF8091E80083FD5FCF8091E80082FDB8
:1027D0008ECF8091E80080FF84CF8091F2009091AD
:1027E000F3002115310519F08830910550F041E0D2
:1027F000089709F040E08091E8008E778093E80028
:1028000070CF44914093F1003196215031090196E7
:10281000E8CF803809F044C08091E800877F80933A
:10282000E8008091D0078093F1009ECE811138C0DE
:102830001091D3071230A0F58091E800877F809334
:10284000E8001093D0070E940004112311F084E0E7
:1028500005C08091E30087FDFACF81E08093CF0728
:1028600042E061EC81E00E941F0442E261EC82E000
:102870000E941F048091CF0713C08091D30781303D
:1028800079F481E0933009F080E08093CE071092D4
:10289000E9008091E800877F8093E8000E940004AF
:1028A0008091E80083FF0AC08091E800877F8093D1
:1028B000E8008091EB0080628093EB00AA96E3E051
:1028C0000C9454230E948A112FEF84E39CE0215042
:1028D00080409040E1F700C0000088E19CE00FB626
:1028E000F894A895809360000FBE90936000FFCF8E
:1028F0004F925F926F927F92AF92BF92CF92DF9290
:10290000EF92FF920F931F93CF93DF93CDB7DEB774
:102910006C970FB6F894DEBF0FBECDBF8E010F5F70
:102920001F4F8CE1F80111928A95E9F794E5E92EA1
:1029300091E0F92E6801AA24A394B12CF7018191AA
:102940007F018F3F09F452C0F894E82FE295EF70B1
:10295000F0E021A18F70A50102C0440F551F8A9598
:10296000E2F7CA01922F982B91A392A18095892317
:1029700082A3789400C0EBE5F1E041E050E060E034
:1029800070E0412C512C320181918F3F89F0A82FAA
:10299000A295AF70B0E090962C9130E08F7002C09D
:1029A000359527958A95E2F7DB01CA0120FF03C020
:1029B00080E090E0DC01482A592A6A2A7B2A440FE9
:1029C000551F661F771F81E0E637F807E9F6F70124
:1029D000319780818F3F11F00E94BA06E0EAEA95B4
:1029E000F1F7F6014082518262827382F4E0CF0EE9
:1029F000D11C4BE5E41641E0F40609F09FCF4CE111
:102A000050E0B80180E792E00E94C923892B81F150
:102A10008CE1F801A0E7B2E001900D928A95E1F710
:102A200081E080936F020E941C0590936E02809358
:102A30006D0280916D0290916E020E940D050597C6
:102A4000D8F04CE150E060E772E081E992E00E944A
:102A5000C923892B39F18CE1E0E7F2E0A1E9B2E08A
:102A600001900D928A95E1F781E010926F0205C006
:102A700080916F028111DDCF80E06C960FB6F894E3
:102A8000DEBF0FBECDBFDF91CF911F910F91FF90A1
:102A9000EF90DF90CF90BF90AF907F906F905F905E
:102AA0004F90089580E0E1CF67EE7EEF90E080E008
:102AB0000E94082460E082E090E00E94EA2360E047
:102AC00083E090E00E94EA2310926A021092690269
:102AD00060E074E184E090E00E94082460E086E019
:102AE00090E00E94EA236FEF87E090E00E94EA23E3
:102AF00040E050E0BA0188E090E00E94FC2360E0F2
:102B00008DE090E00E94EA2340E050E0BA0188E1C5
:102B100090E00E94FC2360E087E190E00E94EA23BD
:102B200040E050E0BA018CE190E00E94FC2370E0AC
:102B300060E080E290E00E94082440E050E0BA01AA
:102B400088E190E00E94FC2340E050E0BA018FE071
:102B500090E00E94FC2340E050E0BA0183E190E065
:102B60000E94FC230895A5E0B0E0E9EBF5E10C94A8
:102B70002F237C01FC0183819481892B31F080819A
:102B8000918189238F3F09F02AC42596ECE00C94AB
:102B90004B230E945509182F682F89819A810E9422
:102BA000030A69817A81812F0E94B6078C01FC019A
:102BB000E851FC47E730F10588F5E357FB4D0C94ED
:102BC000142326E241EE61EEC7010E9413118091A9
:102BD0005D028770D1F2F70182818823B1F2809182
:102BE0008F0282FFD2CF82E00E94340ACECF27E24A
:102BF00045EE65EEE9CF26E241EE60EEE5CF27E255
:102C000045EE64EEE1CF26E241EE62EEDDCF27E253
:102C100045EE66EED9CF28E241E0EBCFF7018281A5
:102C2000882309F403C41092DB07C80190578397E7
:102C300008F0E6C384E090E00E94E42390938F02C2
:102C400080938E02F801E150F047E232F10520F462
:102C5000EC56FB4D0C94142380918E02816080937E
:102C60008E0295C080918F02886080938F028FC002
:102C700080918E028260F3CF80918E028460EFCFCC
:102C800080918E028860EBCF80918F028160EDCFC2
:102C900080918F028260E9CF80918E028061DFCFC8
:102CA00080918E028062DBCF80918E028064D7CFCC
:102CB0000E948A1180918E028068D1CF80918E020D
:102CC0008C60CDCF80918F028360CFCF80918E02B8
:102CD0008E7FC5CF80918F02877FC7CF80918E0274
:102CE0008D7FBDCF80918E028B7FB9CF80918E0278
:102CF000877FB5CF80918F028E7FB7CF80918F0273
:102D00008D7FB3CF80918E028F7EA9CF80918E026E
:102D10008F7DA5CF80918E028F7BA1CF0E948A11DB
:102D200080918E028F779BCF80918E02837F97CF89
:102D300080918F028C7F99CF80918E0282FB9927A0
:102D400090F921E0922790FB82F990FB83F987CFDD
:102D500080918F02982F909591708E7F892B90FB98
:102D600081F983CF90918E02892F8F7B96FF8064AB
:102D700076CF0E948A1190918E02892F97FB87F956
:102D800080586DCF61E08EE090E00E94EA23609170
:102D90008E0270918F0284E090E00E9408240E94CD
:102DA0008A1115CF60E0EFCF90918E02892F8F7E30
:102DB00094FF806154CF90918E02892F8E7F90FF77
:102DC00081604DCF90918F02892F877F93FF88601C
:102DD0004CCF8091C00181110FC089E2EAEBF1E094
:102DE00020EC31E09191891303C0DF0111971C920F
:102DF0002E173F07B9F717C385E3F0CF8091B207CD
:102E000080FF12C08E7F8093B2076091B2077091ED
:102E1000B3078091B4079091B5070E94BC0E109241
:102E2000E6020E94E80BD3CE81608093B20761E096
:102E300086950E94B40FCBCE46EF5FE060E070E174
:102E40000E949905C4CE40E050E166EF7FE0F8CFE4
:102E50004CE75FE066E87FE0F3CF46E85FE06CE7D1
:102E60007FE0EECF42E65FE06FE67FE0E9CF4FE63E
:102E70005FE062E67FE0E4CF48E45FE065E57FE0A5
:102E8000DFCF45E55FE068E47FE0DACF40E95FE06F
:102E900062EA7FE0D5CF42EA5FE060E97FE0D0CF31
:102EA00061E081E0C6CF65E082E00E940B108FCE2A
:102EB00068E086E0FACF6EE089E0F7CF64E18FE06A
:102EC000F4CF67E185E1F1CF61E088E1B2CF62E262
:102ED00089E1EBCF61E083E2ACCF6AE285E2E5CF46
:102EE0000E948A11FFEF24E33CE0F1502040304083
:102EF000E1F700C000000E94C40B6FEF7FEF90E08D
:102F000080E00E9408240E94621480918F0282FB5C
:102F1000882780F991E089270E947311F701828147
:102F200000811181882309F449C0C8010E94550914
:102F3000D82E682FC8010E94030AB8018D2D0E9467
:102F4000B6070E9400088C01882EF701A2809580A8
:102F500092943FE0932280915D028770F1F0CA2C39
:102F6000AA20E1F0812F807F803451F080E2800F31
:102F7000883098F0911004C0812F807E803269F0F3
:102F800080918F0282FF09C082E00E94340A809102
:102F90005D028770CC24C3948111C12CB12EB294F0
:102FA0002FE0B222FBE0FB1508F474C0EB2DF0E03B
:102FB000EA54FB4D0C94142380E0AECFC8010E946C
:102FC000BD09D82EBACF212F2F70D22E107F19F025
:102FD000D29490EFD922AA20B9F0DD2069F080E2E6
:102FE000800F883010F0811009C080916702D82AC4
:102FF000D09267020E942C10802F4AC080916602F6
:10300000D82AD0926602F6CF802F0E947A10DD2057
:1030100009F440C0005E083010F0811004C08D2D0E
:103020000E94240906C0D09480916602D822D092D2
:1030300066020E942C102EC0312F3F70D32E107FBD
:10304000103219F0D29480EFD822882089F081E0E4
:10305000881609F47CC0AA2009F486C0992009F4D6
:103060007CC0F701858180FFC7CF8F70858375C0D5
:1030700020918F0222FD43C0AA20D9F1DD2039F032
:1030800080916702D82AD09267020E942C1080E0BB
:103090000E94B710EB2DE850FF0B349710F40E94FC
:1030A0008C05CC20A9F080915D0280FD11C0F70154
:1030B00012828595859585950E94500AC7010E94C8
:1030C000B31580915D028595859585950E94220AAC
:1030D00085E0F701DE01119601900D928A95E1F7E6
:1030E00009811A81C8010E94BD09B8010E94B60772
:1030F0004CCD80E00E947A10DD2061F290CFAA20B2
:10310000A1F090916802892F8D29911003C00E942F
:103110007010C0CFE1E09E12FACF22FFBBCF98170C
:1031200009F4B8CF80936802B5CF911006C00E9411
:103130001E098D2D0E946910ADCFF1E09F1609F494
:10314000A9CF8D2D0E9469100E941E09A3CFAA202D
:1031500031F025E0291508F49DCF8D2DD8CF34E02E
:10316000391508F497CFE5CF992019F3F9E38F12B9
:103170002FC12FEF37EE83E0215030408040E1F740
:1031800000C0000025C1812F86958695837061F06F
:10319000813009F07FCFC8019370A11002C080E098
:1031A00090E00E94420576CFC8019370A11002C042
:1031B00080E090E00E9467056DCF6A2D802F0E940D
:1031C0008F0A68CF812F837009F03FC0A11062CFB2
:1031D000402F429546954770440F440F802F8F70C3
:1031E00090E0042E02C0880F991F0A94E2F730E0A5
:1031F00020E004FF09C02FE030E002C0220F331F9F
:103200004A95E2F720953095169516951370123071
:1032100099F078F44091690250916A02113039F0C6
:10322000822B932B842395230E94600A33CF842B17
:10323000952B822B932BF8CF822B932B2091690215
:1032400030916A0282279327EFCF8695AA2011F04A
:10325000812F8170882309F41DCF402F4295469518
:103260004770440F440F802F8F7090E0042E02C0EF
:10327000880F991F0A94E2F730E020E004FF09C0AC
:103280002FE030E002C0220F331F4A95E2F720956D
:103290003095169516951370123099F078F4409188
:1032A0008C0250918D02113039F0822B932B8423A4
:1032B00095230E941D0AEECE842B952B822B932BF7
:1032C000F8CF822B932B20918C0230918D02822794
:1032D0009327EFCF1F70AA2029F0812F0E94500A58
:1032E000802F15CF802F0E946910812F0E94220A03
:1032F000D1CE802F92EF891699F1981570F0E0EFFA
:103300008E16D1F0F1EF8F1691F0AA2009F45BC070
:10331000911072CE812F8F7127C023EF821639F161
:1033200034EF8312F2CF80918F0282FD2EC0812F65
:103330008F71AA20D9F218C0AA2069F084E08915FB
:1033400008F4A8CE1F7181E090E002C0880F991F99
:103350001A95E2F7B8CF95E0991508F49BCEF2CF15
:10336000812F8F71A110C2CF0E94500A93CE90E09E
:1033700080E0AA2009F49DCF1F7181E090E002C097
:10338000880F991F1A95E2F794CFAA2089F01F7130
:10339000812F0E94500A80918F0282FF07C0E8E0CF
:1033A0001E9FC0011124836080935D02812FDCCFBA
:1033B00081E00E94340AF1E0F91508F06BCE82E05A
:1033C0000E94340A67CE992039F0893309F4D1CEAE
:1033D000802F0E947A105ECE812F8F7187CF85E07B
:1033E000DE01119601900D928A95E1F7F701228195
:1033F00089819A812111CDCB0E94BD09182FD1CB93
:103400000631FCE71F0729F5809167028A7A91E06F
:1034100009F490E09093C00169E2811165E388EBC3
:1034200091E00E9428050E942C10D1CB06312CE798
:10343000120709F4CECC809167028272F801E05243
:10344000F847E531F10508F069CDEE53FB4D0C94DA
:10345000142303303CE7130709F44FCD50F4011552
:103460009CE7190709F43CCD01301C4709F44BCD0A
:1034700055CD0B35FCE71F0709F49ECD0C352CE725
:10348000120709F442CD0A351C4709F047CD81E007
:1034900043CD1F93CF93DF9380912A02807F09F061
:1034A0004BC080912702882309F446C080915C02BA
:1034B000C0912B0240912502509126026091280272
:1034C00070912902D42FD52316E0C817A9F190E0F6
:1034D00061157105A9F1DF3F99F1189FF001199F5E
:1034E000F00D1124DF01A45DBD4F11962C911197B1
:1034F000251326C02C91241323C012962C911297C9
:1035000021111EC013962D913C91261B370B283C90
:103510003105B0F480912A028F70806180932A0275
:10352000EF5CFD4F80818F708061808385E292E047
:103530000E94B3150E944B09DF91CF911F9108950E
:1035400001968770C2CFA1E1B0E0E9EAFAE10C94FC
:103550002F238C0185E0F801DE011D9601900D926C
:103560008A95E1F7F801E28085E2882E82E0982EC4
:1035700040912802509129024115510509F430C1AA
:103580009091250220912602892F82238F3F09F4F2
:1035900027C1D080C180A380B480F0902702B501FC
:1035A000641B750BFF2009F4E7C080912A02382FB5
:1035B000307F683C710508F0ABC0311178C0FE2C3B
:1035C0002C1114C09D1112C0E11010C08F708061C9
:1035D00080932A02C4010E94B31580912A02F80147
:1035E00085838F2D6196ECE00C944B23A114B104DC
:1035F000C9F18D2D8C218F3FA9F181E08E2580FFAF
:1036000005C04E2D6C2D8D2D0E942B09A114B104E7
:1036100059F18D2D8C218F3F39F181E08E25F82FC6
:10362000F170BF2E80FF39C04E2D6C2D8D2D0E9464
:103630002B09A82E811131C0DD86CE868D859E8511
:103640000E948909292F22952F70243078F49F70C9
:103650002230A8F09923B9F0F8019581907F99F470
:10366000FA2CBFCF80E0CBCF80E0D9CF2A5F2F707C
:10367000223068F0C8010E94B315AB2CF1CF99231A
:1036800011F0882369F3805E883050F3F3CF803FD8
:1036900038F3815F833070F7E3CFEE2009F4A1CFD8
:1036A00080912A02816080932A02F12C9ACF2C11FA
:1036B00005C09D1103C0EE2009F477C0C8010E9427
:1036C000650A882309F1EE20F9F080912A02803200
:1036D00070F0209125023091260238872F831986B9
:1036E000BB86AA868C87CE0107960E94B31586E01A
:1036F000F801A5E2B2E001900D928A95E1F70E94EF
:10370000491AFF24F3946DCFC8010E94B315F9CF75
:1037100031110AC085E292E00E94B31586E0F401FF
:1037200011928A95E9F7C1CF2C110EC09D110CC0E2
:10373000E1100AC08583C8010E94B31586E0F40138
:1037400011928A95E9F74DCFC8010E94650A882336
:10375000D9F2EE20C9F280912A02803240F2209103
:103760002502309126023A8329831B82BD82AC82D6
:103770008E83CE010196B9CF683C7105F8F6FE2C18
:10378000EE2011F22C111EC09D111CC080912A0246
:1037900080FD0FC0982F907F61F08583903F31F0BE
:1037A000982F907F905F8F70892B8583C8010E942E
:1037B000B31586E0F801A5E2B2E001900D928A957A
:1037C000E1F70FCFC8010E94650A811190CF809167
:1037D0002A02816080932A02C8010E94B31501CF9A
:1037E000EE2009F491CFC8010E94650AF82E8823C3
:1037F00009F48ACF86E0F801A5E2B2E001900D92CB
:103800008A95E1F780912502909126020E9489090C
:103810000E94491AE6CEA7E1B0E0E1E1FCE10C9498
:1038200038234B8B5C8B6D8B7E8B8F8B6111109251
:1038300066021A8A198A85E0FE017396DE011D96DA
:1038400001900D928A95E1F786E0FE013D96DE013A
:10385000179601900D928A95E1F7CE0107960E9486
:10386000A31A882359F016E080915C0290912B02F4
:10387000891343C06796E3E00C94542386E0FE016D
:103880003796DE01119601900D928A95E1F78A85AF
:103890009B85892B41F38F81988589238F3F19F36D
:1038A00020912B0230E0C901019687709927409141
:1038B0005C024817190671F40E948A1110922B02BB
:1038C00010925C0286E0E5E2F2E0DF011D928A954B
:1038D000E9F7C9CF96E0929FD001939FB00D1124D4
:1038E000A45DBD4FFE01319601900D929A95E1F7CE
:1038F00080932B020E944B09B6CF819FC0011124F7
:10390000845D9D4F0E94A31A882309F4B3CF809150
:103910005C0290E001968770992780935C02A4CFA7
:10392000A5E0B0E0E6E9FCE10C9437230E941C0519
:103930008C0180916B0290916C0280179107A1F02D
:103940008FEF89838A831B820E941C058160782FF8
:103950009D838C8349815A816B818D810E940B1CD0
:1039600010936C0200936B022596E4E00C945323B1
:103970001F920F920FB60F9211242F933F934F93E4
:103980005F936F937F938F939F93AF93BF93CF93E7
:10399000DF93EF93FF93D091E900DF708091EC000B
:1039A000C82FC17080FDC0E81092E9008091F0003E
:1039B000877F8093F00078940E94B1111092E90003
:1039C0008091F00088608093F000CD2BCF70C09381
:1039D000E900FF91EF91DF91CF91BF91AF919F915E
:1039E0008F917F916F915F914F913F912F910F90A8
:1039F0000FBE0F901F9018951F920F920FB60F9247
:103A000011242F933F934F935F936F937F938F93E3
:103A10009F93AF93BF93EF93FF938091E10082FF59
:103A200009C08091E20082FF05C08091E1008B7F98
:103A30008093E1008091DA0080FF24C08091D8005B
:103A400080FF20C08091DA008E7F8093DA00809121
:103A5000D90080FF9DC088E189BD8AE189BD09B494
:103A600000FEFDCF81E08093CF078091C2078111D6
:103A700009C00E94B0030E9451048091E20084605A
:103A80008093E2008091E10080FF17C08091E20006
:103A900080FF13C08091E2008E7F8093E2008091CE
:103AA000E20080618093E2008091D8008062809380
:103AB000D80019BC85E08093CF078091E10084FF96
:103AC0002BC08091E20084FF27C088E189BD8AE194
:103AD00089BD89B5982F917080FFFBCF8091D80068
:103AE0008F7D8093D8008091E1008F7E8093E100EC
:103AF0008091E2008F7E8093E2008091E2008160FD
:103B00008093E2008091D007882309F447C084E0C5
:103B10008093CF078091CF078091E10083FF27C07A
:103B20008091E20083FF23C08091E100877F809332
:103B3000E10082E08093CF071092D0078091E100EE
:103B40008E7F8093E1008091E2008E7F8093E2007F
:103B50008091E20080618093E20042E060E080E0DA
:103B60000E941F048091F00088608093F000FF9114
:103B7000EF91BF91AF919F918F917F916F915F91E5
:103B80004F913F912F910F900FBE0F901F9018955E
:103B900019BC1092CF071092C20774CF8091E30036
:103BA00087FD93E09093CF07B5CF78941F921FB60F
:103BB0001F9211248F939F93AF93BF938091BE0761
:103BC0009091BF07A091C007B091C1070196A11DB8
:103BD000B11D8093BE079093BF07A093C007B09319
:103BE000C107BF91AF919F918F911F901FBE1F90F2
:103BF00018951F921FB61F9211248F939F93AF9316
:103C0000BF938091BD07811113C08091BE07909131
:103C1000BF07A091C007B091C1074196A11DB11D7A
:103C20008093BE079093BF07A093C007B093C107CE
:103C3000BF91AF919F918F911F901FBE1F901895BC
:103C4000CDB7DEB7A3970FB6F894DEBF0FBECDBFDA
:103C500085B7806885BF85B7806885BF84B7877F53
:103C600084BF0FB6F894A895809160008861809316
:103C70006000109260000FBE80E890E00FB6F894EC
:103C800080936100909361000FBE88EB96E0909363
:103C9000B7018093B6010E94B0030E945104809145
:103CA000E20084608093E20078948091CF078823BB
:103CB000A1F01091E9001F709091EC00892F8170A4
:103CC00090FD80E8182B1092E9008091E80083FDB8
:103CD0000E94B1111F701093E90082E084BD93E04F
:103CE00095BD9AEF97BD80936E008093CE0258E801
:103CF000A52E51E0B52E46E851E08A01950161E01C
:103D000070E0D9018D919D01E82FE295EF70F0E010
:103D1000D1A08F707B0101C0EE0C8A95EAF79E2D31
:103D200090959D2191A382A18E2982A3F801819172
:103D30008F01E82FE295EF70F0E0D1A08F707B014A
:103D400001C0EE0C8A95EAF79E2D90959D2191A3D6
:103D500082A18E2982A3AA58B14099F68FE891E0FA
:103D60000197F1F700C000001091CE026FEC72E0F5
:103D7000FB018E2F861B811708F45BC004E511E060
:103D80004BE5E42E41E0F42EF80181918F018F3F45
:103D900011F00E94BA06E016F106B1F70BE511E04A
:103DA00036E7E32E31E0F32ED8018D918D018F3F60
:103DB00011F00E94BA06E016F106B1F78CE1E1E9D4
:103DC000F2E0DF01282F1D922A95E9F7E0E7F2E003
:103DD000DF011D928A95E9F790E080E00E94E423DC
:103DE000873E9E4F11F00E94541582E090E00E94A1
:103DF000D6238093AD0284E090E00E94E423909368
:103E00008F0280938E020E947814EFE3FCE93197D1
:103E1000F1F700C000000E9478148091910284FFA5
:103E200031C06FEF7FEF90E080E00E9408240E9495
:103E3000C40BD5012D915D01822F82958F7090E08A
:103E4000DC0190968C9190E02F7002C0959587953B
:103E50002A95E2F78170DA019D91AD01292F229513
:103E60002F7030E0D90190962C9130E09F7002C005
:103E7000359527959A95E2F790E020FD92E0892B01
:103E8000819377CF83E090E00E94D62390E00E9458
:103E9000600A80919002811136C090E080E00E941B
:103EA000E423873E9E4F21F00E9454150E941B1070
:103EB00088E090E00E94DE236093B2077093B3071E
:103EC0008093B4079093B5076E7F71F40E941B1026
:103ED00088E090E00E94DE236093B2077093B307FE
:103EE0008093B4079093B5070E94A0051092E60254
:103EF0008091B20780FF04C060E086950E94B40FF5
:103F000081E08093900284E091E09093BA078093DF
:103F1000B90724E0222E312C8091CF0708E11AE165
:103F2000853009F4C0C00E947814AEEAB2E0B9A3AB
:103F3000A8A3E1E9F2E0FBA3EAA38AEC92E0DF01A7
:103F4000EEEAF2E001911191219131914D915D9153
:103F50006D917D918E179F0709F4AFC00417150767
:103F60002607370779F310E0AAA1BBA1CD90DD9019
:103F7000ED90FD90BBA3AAA3E8A1F9A141905190B7
:103F800061907190F9A3E8A34C145D046E047F0462
:103F9000E1F14C245D246E247F2400E0812C912CDF
:103FA00054018394D301C20188219921AA21BB2104
:103FB000892B8A2B8B2BD9F00B8F1C8F21E0D701FB
:103FC000C60188219921AA21BB21892B8A2B8B2B01
:103FD00009F420E02D8F0E941C058160782F9F8FAF
:103FE0008E8F4B8D5C8D6D8D8F8D0E940B1C0F5FA6
:103FF000880C991CAA1CBB1C0B31A1F6E8A1F9A1E5
:104000003497C082D182E282F3821F5F173009F0B9
:10401000ABCF8FB7F8944091BE075091BF07609126
:10402000C0077091C1078FBF50C08091CF07843007
:1040300021F11092BD0788E190E0A0E40FB6F8945A
:10404000A895809360000FBEA093600083B7817F26
:10405000846083BF83B7816083BF7894889583B77A
:104060008E7F83BF0FB6F894A89580916000886119
:1040700080936000109260000FBE8091CE0788236D
:1040800091F00E947814E1E9F2E081919191A1917F
:10409000B191892B8A2B8B2B09F072C28DEA92E0A9
:1040A0008E179F0791F78091CF07853009F4BDCF18
:1040B0000E948A110E948C0536CF04171507260727
:1040C000370709F050CF0E94901C8091E6028823A8
:1040D000D1F18091E502E091B207E695E81BE0930B
:1040E000E102823009F02FC1F0E0E355FC4FE4918A
:1040F0000E2F10E0B2E1EB2EBEE0FB2E8091E2022B
:10410000882361F01092E2020E941C059093E00265
:104110008093DF021092E4021092E3020E941C05D9
:10412000E091DF02F091E0028E1B9F0B8F3F9F47D3
:1041300050F4E00FF11FF093E002E093DF028FED07
:1041400092E0F7010995D12CC12C8DEFB82EAA244D
:10415000A3949CEF992E8091CE02D81608F45FC1EB
:10416000CC2059F08FB7F8944091BE075091BF070B
:104170006091C0077091C1078FBF86E0E9EDF2E062
:10418000DE01119601900D928A95E1F71092DB0203
:104190001092DC021092DD021092DE028B819C8173
:1041A000892B09F44AC08091D7029091D8020E94CD
:1041B0000D059C019091D202992309F4FCC125318F
:1041C0003105D8F19F3F19F09F5F9093D2021B8178
:1041D000112359F00E9498069FEF11160CF491E0FC
:1041E000899F802D11248093DB021C81112359F0BB
:1041F0000E9498069FEF11160CF491E0899F802D84
:1042000011248093DC023091DB023323B1F0209142
:10421000DC02222391F045EB3403C00111249923E1
:1042200009F49EC19093DB0245EB24039001112415
:10423000332309F499C13093DC028D819E81892B4F
:1042400009F44AC08091D5029091D6020E940D05D2
:104250009C019091D302992309F4A8C1213531051D
:10426000D8F19F3F19F09F5F9093D3021D811123D6
:1042700059F00E9476069FEF11160CF491E0899F89
:10428000802D11248093DD021E81112359F00E949C
:1042900076069FEF11160CF491E0899F802D112472
:1042A0008093DE023091DD023323B1F02091DE02F3
:1042B000222391F045EB3403C0011124992309F422
:1042C00057C19093DD0245EB240390011124332361
:1042D00009F452C13093DE0246E050E0BE016F5F48
:1042E0007F4F89ED92E00E94C923892B61F4809170
:1042F000DB029091DC02892B9091DD02892B909159
:10430000DE02892B11F00E944F0686E0FE013196F5
:10431000A9EDB2E001900D928A95E1F70E948C051B
:104320009091D102891709F4F7CD8093D1028FB70C
:10433000F8944091BE075091BF076091C0077091FB
:10434000C1078FBFE9CD863059F4F0E0E655FC4F48
:10435000E4910E2F10E0A2E0EA2EAEE0FA2ECECECF
:10436000893061F4E695F0E0E955FC4FE4910E2FB9
:1043700010E0F6E7EF2EFDE0FF2EC0CE8F3061F4A7
:10438000E695F0E0EC55FC4FE4910E2F10E0EBE1E8
:10439000EE2EEDE0FE2EB2CE853159F4F0E0EF5571
:1043A000FC4FE4910E2F10E07FECE72E7CE0F72E1F
:1043B000A5CE08E210E044E5E42E4CE0F42E88316E
:1043C00009F49CCE833249F4EFE9F3E005911491AE
:1043D00061EBE62E6DE0F62E91CE04EF11E03DE1AB
:1043E000E32E3CE0F32E843209F488CE00ED17E092
:1043F0002FE9E22E25E0F22E853209F07FCE8E2FB6
:1044000063E00E94E022E92FF0E0E456FC4FE491E3
:104410000E2F10E056E2E52E5EE0F52E6FCEED2C6D
:10442000F12CF701E857FE4F8081E82FE295EF70FD
:10443000F0E0E0A1F0E08F7002C0F595E7958A9575
:10444000E2F7E170D701AA57BE4F2C91A22FA29597
:10445000AF70B0E090968C9190E02F7002C095956F
:1044600087952A95E2F780FD79C080E08E2BD701F1
:10447000A153BD4FEC919E2F9370891709F46CC026
:10448000EE0FEE0FE82BEC93EF70F0E0EA58FE4FE2
:10449000870104531D4F8081D8019C91890F8C9313
:1044A00020E084302CF1F701E653FD4F80818F5FCF
:1044B00080830E941C05D98A9A8AAB8A8160782FF2
:1044C0009D8B8C8B4D2D5CEF61E08D890E940B1CC8
:1044D0000E941C05DE8A9F8A188E8160782F9A8F31
:1044E000898F4D2D5CEF60E08A8D0E940B1C21E0CE
:1044F000F80180818D3F2CF5F701E653FD4F808157
:10450000815080830E941C05DF82B886A986816065
:10451000782F9B878A874D2D5DEF61E08B850E9408
:104520000B1C0E941C05DC86BD861E868160782FD0
:10453000988B8F874D2D5DEF60E088890E940B1C62
:1045400021E0D8018C91082E000C990BB1010E943A
:104550000023F8018083C22AD394FDCD82E086CF68
:1045600081E08093DB0260CE81E08093DC0265CE47
:1045700081E08093DD02A7CE81E08093DE02ACCEA5
:1045800009BD19BD09B400FEFDCF8091D8008F7D13
:104590008093D8008091E00082608093E000809159
:1045A000E00081FDFCCF0E948A117DCD2B303105CA
:1045B00008F059CE91CE2B30310508F005CE3DCE16
:1045C000991B79E004C0991F961708F0961B881F65
:1045D0007A95C9F780950895AA1BBB1B51E107C0C6
:1045E000AA1FBB1FA617B70710F0A61BB70B881F83
:1045F000991F5A95A9F780959095BC01CD01089512
:1046000097FB072E16F4009407D077FD09D00E947F
:10461000EC2207FC05D03EF4909581959F4F0895BC
:10462000709561957F4F0895EE0FFF1F0590F491EF
:10463000E02D09940E947224332312F48A1B9B0BF1
:104640000C9424230E947224B7FF0895821B930BBD
:1046500008952F923F924F925F926F927F928F9226
:104660009F92AF92BF92CF92DF92EF92FF920F9301
:104670001F93CF93DF93CDB7DEB7CA1BDB0B0FB60B
:10468000F894DEBF0FBECDBF09942A8839884888C8
:104690005F846E847D848C849B84AA84B984C8845E
:1046A000DF80EE80FD800C811B81AA81B981CE0F55
:1046B000D11D0FB6F894DEBF0FBECDBFED0108953A
:1046C0008F929F92AF92BF92CF92DF92EF92FF9222
:1046D000CF93DF93EC01688179818A819B81611599
:1046E00071058105910521F464E279ED8BE597E090
:1046F0002DE133EF41E050E00E941E2449015A01B0
:104700009B01AC01A7EAB1E40E943D246B017C014E
:10471000ACEEB4EFA50194010E944B24DC01CB0167
:104720008C0D9D1DAE1DBF1DB7FF03C00197A109D4
:10473000B04888839983AA83BB839F77DF91CF9109
:10474000FF90EF90DF90CF90BF90AF909F908F90B1
:1047500008950E946023089580E091E00E94602304
:104760000895B0E0A0E08093000190930101A09330
:104770000201B09303010895FC014150504030F014
:1047800001900616D1F73197CF0108958827992710
:104790000895FB01DC0104C08D910190801921F482
:1047A00041505040C8F7881B990B0895F999FECFE6
:1047B00092BD81BDF89A992780B50895A6E1B0E031
:1047C00044E050E00C941024A8E1B0E042E050E056
:1047D0000C941024262FF999FECF92BD81BDF89A32
:1047E000019700B4021639F01FBA20BD0FB6F89435
:1047F000FA9AF99A0FBE08950396272F0E94EB2389
:104800000E94EA23252F0E94EB23242F0C94EB23F4
:104810000196272F0E94EB230C94EA23DC01CB01A5
:10482000FC01F999FECF06C0F2BDE1BDF89A3196C0
:1048300000B40D9241505040B8F70895052E97FBF3
:104840001EF400940E94352457FD07D00E94502486
:1048500007FC03D04EF40C943524509540953095C8
:1048600021953F4F4F4F5F4F0895909580957095DC
:1048700061957F4F8F4F9F4F08950E947224A59F8F
:10488000900DB49F900DA49F800D911D112408954B
:10489000B7FF0C943D240E943D24821B930B089586
:1048A000A1E21A2EAA1BBB1BFD010DC0AA1FBB1F34
:1048B000EE1FFF1FA217B307E407F50720F0A21BA6
:1048C000B30BE40BF50B661F771F881F991F1A9413
:1048D00069F760957095809590959B01AC01BD013D
:1048E000CF010895A29FB001B39FC001A39F700D97
:1048F000811D1124911DB29F700D811D1124911DE8
:104900000895F894FFCF9012B8125014B8125014B2
:10491000EB120C13501409141614FB15FF15E115B6
:10492000F715031607160B166616DB166E163816E5
:104930003C1672164016761682164C16D416501671
:10494000861654168A16B21658168E16B9165E16A4
:1049500094169C1644167A1648167E1662169816F9
:10496000A816C216D21632166A16E216E317E31715
:104970001C181C18C318DD184A184A18E2186A19BE
:1049800079197919FE161C17231728172D173217B6
:1049900037173C17411746174B175017531758171F
:0E49A0005B175E176117641767176A176D17AC
:1049AE00010000000A05B00BA90BA20B01191A1B7E
:1049BE001C1D1E1F20212201020101818283E200A3
:1049CE00E900EA00B500B600B700CD008301CC00C7
:1049DE008A01920194012102230224022502260259
:1049EE0027022A02B300B4006F0070009F01CB01B2
:1049FE009F02A00230C5F2F3F4F5F6F1F0F7009045
:104A0E0091929394959697C0C16061626364656656
:104A1E0067070603020100FF0100010000FFFF000F
:104A2E0000010001FF00C605C704000102020202D8
:104A3E000606060909090909090F0F0F0F0F0F15B1
:104A4E0015151819191919191919191919232425B0
:064A5E0025252525250099
:00000001FF
