:100000000C9486030C94BE030C94BE030C94BE03A4
:100010000C94BE030C94BE030C94BE030C94BE035C
:100020000C94BE030C94BE030C94901D0C944C1DB8
:100030000C948D1E0C94BE030C94BE030C94BE0352
:100040000C94BE030C94BE030C94BE030C94BE032C
:100050000C94BE030C94691E0C94BE030C94BE0356
:100060000C94BE030C94BE030C94BE030C94BE030C
:100070000C94BE030C94BE030C94BE030C94BE03FC
:100080000C94BE030C94BE030C94BE030C94BE03EC
:100090000C94BE030C94BE03240155FFFF3B015595
:1000A000FFFFFF000000005F0155FFFFFF000000A1
:1000B000000000A80000000000207833782900002C
:1000C000003A003B003C003D003E003F0040004144
:1000D000004200430044004500460047004800003D
:1000E00000270100000000000000000000000024C4
:1000F00078237801000000680069006A006B006CDA
:10010000006D006E006F007000450072007300010A
:100110000001000100000000000000000053005436
:1001200000550056002678257835001E001F002057
:100130000021002200230024002500260027002D96
:10014000002E002A0049004A004B0053005400557D
:100150000056005F006000610057002B782C782B60
:100160000014001A000800150017001C0018000CED
:1001700000120013002F00300031004C004D004EE3
:10018000005F006000610057005C005D005E0000E1
:10019000002D782E78390004001600070009000AA7
:1001A000000B000D000E000F00330034000000288B
:1001B000000000000000005C005D005E00000059CF
:1001C000005A005B0058002F783078E1001D001BBA
:1001D0000006001900050011001000360037003835
:1001E000000000E500000000005200000059005A25
:1001F000005B0058006200000063000000317832AC
:1002000078E000E300E200000000002C4100000064
:10021000000000E200E70000006500E4005000512B
:10022000004F0062000000630000000000007C003E
:1002300000000001000100010000000100010001B8
:1002400000010001000100010001000100010001A6
:100250000001000100010001000000017C0000001D
:10026000000000000000000000010001000100008B
:100270000001000100010001000100010001000176
:100280000001000100010001000100010001000067
:100290000000000000000001000100010001000159
:1002A0000001000100010001000100010001000146
:1002B0000001000100010001000100010001000136
:1002C0000001000100010001000100010001000126
:1002D0000001000100010001000100010001000116
:1002E0000001000100010001000100010001000106
:1002F00000010001000100010001000100010001F6
:1003000000010001000100010000000100010001E6
:1003100000010001000100010001000100010001D5
:1003200000010001000100000001000000000000C9
:1003300000010001000100000001000100010001B6
:1003400000010001000100010001000100010001A5
:100350000001000100010001000100000001000097
:100360000000000100000001000100010001000187
:100370000000000100000001000100010001000177
:10038000000000000001000000000000000100016A
:100390000000000100010001000100010001000057
:1003A0000001000000AA00A9002D012E01287827D5
:1003B0007822782178A700980000001E0F0500041D
:1003C0007F3F1F643214643214783C1E1E140A05E9
:1003D0000001010101010101010102020202020208
:1003E00002020203030303030303030404040404DB
:1003F00004040505050505060606060607070707A2
:100400000708080808090909090A0A0A0B0B0B0C56
:100410000C0C0D0D0D0E0E0E0F0F0F1010111111F3
:100420001212131314141515161617171818191974
:100430001A1A1B1B1C1D1D1E1E1F202021222223D9
:100440002424252626272829292A2B2C2D2D2E2F1A
:1004500030313232333435363738393A3B3C3D3E31
:100460003F404142434445464748494A4C4D4E4F20
:1004700050515354555658595A5B5D5E5F616264E2
:10048000656668696B6C6D6F7072737577787A7B6F
:100490007D7E8082838587888A8C8E8F91939596C6
:1004A000989A9C9EA0A2A3A5A7A9ABADAFB1B3B5E6
:1004B000B7BABCBEC0C2C4C6C9CBCDCFD1D4D6D8C2
:1004C000DBDDDFE2E4E7E9EBEEF0F3F5F8FAFDFF60
:1004D000FFAA7F55402223252628292A2C2D2F309C
:1004E00032333536383A3B3D3E4042434547494A30
:1004F0004C4E5051535557595A5C5E606264666861
:10050000696B6D6F71737577797B7D7F818385876B
:10051000898A8C8E90929496989A9C9E9FA1A3A56E
:10052000A7A8AAACAEAFB1B3B4B6B8B9BBBCBEBF96
:10053000C1C2C3C5C6C7C9CACBCCCDCED0D1D2D219
:10054000D3D4D5D6D7D7D8D9D9DADADBDBDBDCDC24
:10055000DCDCDCDDDDDDDDDCDCDCDCDCDBDBDBDADC
:10056000DAD9D9D8D7D7D6D5D4D3D2D2D1D0CECD47
:10057000CCCBCAC9C7C6C5C3C2C1BFBEBCBBB9B854
:10058000B6B4B3B1AFAEACAAA8A7A5A3A19F9E9CD9
:100590009A98969492908E8C8A89878583817F7DA4
:1005A0007B79777573716F6D6B6968666462605E85
:1005B0005C5A5957555351504E4C4A49474543424E
:1005C000403E3D3B3A3836353332302F2D2C2A29E8
:1005D000282625232205010902A10185020901A17E
:1005E00000050919012908150025019508750181E3
:1005F000020501093009311581257F9502750881B1
:100600000609381581257F950175088106050C0AB4
:1006100038021581257F950175088106C0C0050146
:100620000980A101850319012AB700150126B70029
:10063000950175108100C0050C0901A101850419FF
:10064000012AA002150126A002950175108100C0A3
:1006500005010906A101050719E029E71500250193
:10066000950875018102950175088101050719003A
:1006700029FF150026FF0095067508810005081959
:10068000012905950575019102950175039101C038
:1006900009023B00020100A0FA0904000001030165
:1006A0000100092111010001224000070581030812
:1006B00000010904010001030000000921110100EB
:1006C00001227B00070582032000011201000200C5
:1006D0000000085750747600010102000110035613
:1006E0000069006B0074006F007200790000001652
:1006F0000350004C0049005000200057006F00726A
:10070000006B0073000000040309040011241FBEE5
:10071000CFEFD0E1DEBFCDBF04B603FE18C080919D
:10072000E0079091E107A091E207B091E3078730DD
:10073000904BA740B04B59F41092E0071092E1079C
:100740001092E2071092E307E0E0F8E7099527E04E
:10075000A6EBB1E001C01D92A03EB207E1F711E0A7
:10076000A0E0B1E0ECE1FBE402C005900D92A63BF5
:10077000B107D9F70E94B41E0C9438250C940000E0
:10078000E8EDF0E080818C7F80831092E20010928F
:10079000DA001092E100A0EEB0E08C9181608C93C1
:1007A00080818F77808319BCA7EDB0E08C918E7F1C
:1007B0008C9380818F7E80831092C607089520914C
:1007C000E4003091E50095E6A9012091EC00822F2C
:1007D000817020FF06C08091E80080FF06C080E0A5
:1007E00008952091E80022FD1AC08091D307882344
:1007F00089F0853089F08091EB0085FD0FC0209154
:10080000E4003091E50042175307F9F29150E1F608
:1008100084E0089582E0089583E0089581E00895DA
:100820008091D50787FF13C08091E80082FF06C042
:100830008091E8008B778093E80004C08091D30713
:100840008111F2CF08958091D3078823D9F3809145
:10085000E80080FFF8CF8091E8008E77ECCF982FEA
:100860009093E900242F762F50E0891731F0709192
:10087000EC002091ED005091F00021FD07C09F5F3A
:10088000973071F78093E90081E008953091EB0093
:100890003E7F3093EB003091ED003D7F3093ED00D3
:1008A0003091EB0031603093EB007093EC002093BB
:1008B000ED005093F0002091EE0027FDE0CF80E0A6
:1008C0000895B0E0A0E0E7E6F4E00C94E123C8ED81
:1008D000D0E088818F7E8883E7EDF0E080818160C1
:1008E000808381E08093C60788818C7F888302EEB5
:1008F00010E0D8011C921092DA0081EEC82ED12CA3
:10090000D6011C9288818F7788838881806888834C
:1009100088818F7D888380818068808319BC109254
:10092000D3071092D4071092D2071092D10790EEFD
:10093000E92EF12CF70180818B7F80838881816093
:10094000888342E060E080E00E942F04D6018C9111
:100950008E7F8C93F80180818160808380818860A4
:100960008083D7018C918E7F8C938881806188836E
:10097000CDB7DEB7E8E00C94FD23FC018091DB07E6
:100980009091DC0786179707A0F06115710529F48F
:100990009091E8009E779093E80090E061157105D2
:1009A00051F4911108C08091E80082FF33C080E0CB
:1009B0000895BC01F2CF8091D3078823B9F1853027
:1009C000B9F18091E80083FD2FC08091E80082FD9D
:1009D000EACF8091E80080FFE1CF2091F2003091D2
:1009E000F3006115710519F02830310558F091E0D8
:1009F0002830310509F090E02091E8002E7720930F
:100A0000E800CCCF81918093F100615071092F5F94
:100A10003F4FE7CF8091D307882341F0853041F0E5
:100A20008091E80083FFBFCF81E0089582E00895C0
:100A300083E008958091C80708959C014FB7F8940A
:100A40008091C2079091C307A091C407B091C507D8
:100A50004FBF821B930B08952FB7F8948091C20764
:100A60009091C307A091C407B091C5072FBF089507
:100A70009C01FC0132969FEF80E04191461751F0B6
:100A80009F3F19F4411101C0982F8F5F8630A9F75D
:100A90009F3F09F40895290F311D97FD3A95F901FB
:100AA00062830895A3E0B0E0E8E5F5E00C94E72365
:100AB0002091BF073091C00728173907A1F0909304
:100AC000C0078093BF07E091BD07F091BE07309744
:100AD00051F024E029839B838A830680F781E02DEF
:100AE000CE01019609952396E2E00C940324A3E03D
:100AF000B0E0EDE7F5E00C94E7232091BB073091DF
:100B0000BC0728173907A1F09093BC078093BB0757
:100B1000E091BD07F091BE07309751F023E02983A3
:100B20009B838A830680F781E02DCE01019609958B
:100B30002396E2E00C940324E091BD07F091BE07F8
:100B4000309729F00190F081E02D0995089580E01B
:100B50000895FA01811101C0FB01099508950895D6
:100B60008091B607982F9E7F61F481708260809398
:100B7000B6078091B907873918F086E98093B907DD
:100B800008958635B0F381708465F1CFAF92BF923E
:100B9000DF92EF92FF920F931F93CF93DF93182F63
:100BA000062FE901473908F046E9E42FF0E0E05369
:100BB000FC4F011110C0E4915E2F4E2F4983E88352
:100BC0005A83DF91CF911F910F91FF90EF90DF90AB
:100BD000BF90AF900895202F30E04491D42EE42EA2
:100BE000F12C56E0159FC0011124EFEFF0E0BF019A
:100BF0000E949A23812F90E0880F991F55E5569FF8
:100C0000D001579FB00D11248A1B9B0B982F990F71
:100C1000890F5F01A21AB30AAE9CD001AF9CB00D40
:100C2000BE9CB00D11245B2F089F80011124012F61
:100C300011275F01A01AB10AAE9C8001AF9C100D74
:100C4000BE9C100D11245F01A81AB108A29EC0011C
:100C5000A39E900DB29E900D1124892F9927E81B19
:100C6000F90BEE9DC001EF9D900DFE9D900D11249E
:100C7000E92F62307105A1F050F46115710509F496
:100C80009DCF6130710581F0EB2F512F97CF6430EC
:100C9000710569F080F06630710509F48FCFF4CFEB
:100CA000E42F4B2F592F8ACFE42F412F87CFEB2FE3
:100CB000542F492F83CF4B2F5D2DE12F7FCF0E94E3
:100CC0002C059C019091DC028091DD02982B21F093
:100CD0003093D9022093D8029091DE028091DF02F6
:100CE000982B21F03093D7022093D602E091BD07D4
:100CF000F091BE07309749F082E08093DA020480D9
:100D0000F581E02D8AED92E0099508958091D50254
:100D100080FD16C081FD16C082FD16C08091D402F0
:100D20008823A1F0883280F428E0829FC00111243A
:100D300068E270E00E94AE23862F672B39F0089599
:100D400082E0089584E0089588E0089581E00895A0
:100D50008091D50280FD14C081FD14C082FD16C0B3
:100D60008091D302882381F08E3180F420E5829F28
:100D7000C00111246EE170E00E94AE23862F089519
:100D800084E1089588E2089588E0089580E5089553
:100D900080E00895F894E82FE295EF70F0E031A13B
:100DA000282F2F7081E090E001C0880F2A95EAF784
:100DB000982F9095932391A392A1892B82A3789445
:100DC000089590918E0292FF06C0282F2871283036
:100DD000F9F4877F846093FF06C0282F287128319B
:100DE000F1F4877E846120918F0220FF06C0382FA6
:100DF00038713830D9F4877F816021FF06C0282FF1
:100E000028712831D1F4877E816194FD877E089511
:100E1000282F24712430F9F68B7F8860DCCF282FAF
:100E20002471243101F78B7E8861DDCF382F317139
:100E3000313019F78E7F8860E0CF282F2171213162
:100E400021F78E7E8861E1CF82389105B9F1B0F447
:100E50008133910509F47DC048F48932910509F484
:100E60006DC08A32910509F47BC0089585339105E0
:100E700009F45FC08933910509F10895833E910516
:100E8000D9F138F4803E910529F1823E910579F13E
:100E90000895863E9105D9F1873E910509F43EC03B
:100EA000843E910541F520918F0221FF24C080915D
:100EB0008E0284FD19C087EE90E0089520918E0285
:100EC000237009F05AC020918F0223FF14C089E2D9
:100ED00090E0089520918E0220FD38C030918F025D
:100EE00030FF09C024FF43C090E080E008952091C6
:100EF0008E0222FDF7CF089520918E0222FD3AC086
:100F000030918F0230FD39C024FFF5CFEDCF209115
:100F10008E0223FFF0CF24FDE7CFCDCF20918E02AC
:100F200023FD2EC030918F0231FFEECF84EE90E092
:100F3000089520918E0225FFDECFC9CF20918E0229
:100F400025FD21C020918F0223FFD5CF89E390E0BA
:100F5000D2CF20918E0226FFCECF8AE290E0089574
:100F600020918E0226FFC7CF81E390E0089583EEA3
:100F700090E0089582EE90E0089580EE90E008956C
:100F800086EE90E0089585E390E00895E62F972F90
:100F90007730C8F46B3108F03EC0823008F03EC0B4
:100FA00070E02BE1929F600D711D1124FB019DEB00
:100FB000899FE00DF11D1124EE0FFF1FEF54FF4F2D
:100FC0008591949108957D3F91F4623020F58230AF
:100FD00028F5682F70E0660F771FE60FF72FF11DD9
:100FE000EE0FFF1FEE0FFF1FEB55FC4FE9CF7C3FCD
:100FF00091F4623080F4823088F4682F70E0660FDC
:10100000771FE60FF72FF11DEE0FFF1FEE0FFF1FEB
:10101000E955FC4FD5CF80E090E0089581E0FCCF0A
:101020001F93CF93DF930E942407EC01C11580E545
:10103000D807F0F5C11580E4D80708F09CC0C03E81
:10104000D10520F5CD3CD10508F082C0C83AD105C4
:1010500078F4C53AD10508F073C0C130D10519F153
:10106000209709F1C430D105F0F4D0E0C0E01BC0F6
:10107000C13CD105D0F7C85AD0E0CC0FDD1FC25E0D
:10108000DE4F0990D881C02DD4640DC0C11580E217
:10109000D80708F0D1C0C11581E0D80708F05AC0C0
:1010A000C83ED10510F7CE01DF91CF911F91089571
:1010B000C03682E5D80718F5C03482E5D80708F0B5
:1010C0006BC0C03282E5D80708F05FC0C11582E569
:1010D000D80708F497C02C2F2695269580E2289FE4
:1010E000900111248C2F8370C1E0D0E002C0CC0F9E
:1010F000DD1F8A95E2F7C22BD32BDD68D4CFC03A2F
:1011000082E5D80760F4C03882E5D80708F459C0F2
:10111000CF71D0E0DC2FCC27C46FD06AC4CFC03CE5
:1011200082E5D80708F462C0C03E82E5D80708F01F
:101130009CCFDC2FCC27CC27DF71C06FD06AB3CF18
:10114000C55AD0E0C55EDE4FC881D0E0D064ABCFD9
:10115000D065A9CF8D2F0E94E106182FCE019927C7
:101160000E942407C12FD0E0DC2FCC27CC27DF71D1
:10117000C82BD92B98CFCE0199270E942407CC27C2
:10118000DF70C82BD92BD06A8ECFCF71D0E0DC2F87
:10119000CC27C16FD06A87CF2C2F26952695277034
:1011A00080E2289F900111248C2F8370C1E0D0E051
:1011B00002C0CC0FDD1F8A95E2F7C22BD32BDC686F
:1011C00072CF2C2F26952695277080E2289F9001BC
:1011D00011248C2F8370C1E0D0E002C0CC0FDD1F42
:1011E0008A95E2F7C22BD32BDA685DCF8C2F8F71F3
:1011F0000E94E106C82FD0E0DC2FCC27CC27DF717E
:10120000D06251CF8C2F8F710E94E10655E0D695A8
:10121000C7955A95E1F7CF70D0E0DC2FCC27282F67
:1012200030E084FF05C044E0220F331F4A95E1F708
:10123000C22BD32BD06937CF8D2F8F710E94E1063F
:10124000182FCE0199270E942407C12FD0E0DC2F50
:10125000CC27CC27DF71C82BD92BD2CF8091680245
:1012600081111092680208958095909167029823E9
:1012700090936702089520915C0290912B0256E0B2
:10128000291302C080E0089530E0529FF001539F7F
:10129000F00D1124E45DFD4F7181761306C070815D
:1012A000781303C07281741304C02F5F3F4F2770FF
:1012B000E7CF81E0089580915C0290912B02981312
:1012C00001C008958F5F8770FACFB0E0A0E0EBE631
:1012D000F9E00C94E0237C0100918C0210918D02C6
:1012E0008091690290916A02082B192BCFE0D0E01F
:1012F000CC24C394D12CBC2EC6010C2E02C0880F66
:10130000991F0A94E2F780239123892B49F42197AE
:1013100090F7B12C8B2DCDB7DEB7E9E00C94FC2310
:10132000B7018C2F0E94C6070E941008019779F31D
:10133000F1CFCF93DF93EC010E946509BE010E94BB
:10134000C6070E941008DF91CF910895A82FA770BB
:1013500023E0969587952A95E1F7880F991F880FC6
:10136000991FFB01E80FF91F50E040E080E0219158
:1013700030E00A2E02C0369527950A94E2F72170D4
:101380003327042E01C0220F0A94EAF7822B4F5F05
:101390005F4F4430510559F70895292F973068F46D
:1013A0008B3190F490E065EC71E03BE1239F800D80
:1013B000911D11240E94A60908952C5F223020F46B
:1013C00061EC71E090E0F6CF80E00895262F277061
:1013D00091E001C0990F2A95EAF723E07695679589
:1013E0002A95E1F7660F771F660F771FFA01E60F60
:1013F000F71F50E040E0682F70E08191DF01119706
:101400009B01042E02C0369527950A94E2F72170BD
:1014100021952827292328272C934F5F5F4F44309D
:10142000510559F70895282F862F973070F42B31E6
:1014300058F4622F70E02BE1929F600D711D112412
:1014400045EC51E00E94E60908959C5F9230E0F778
:10145000622F70E041EC51E0F5CF90938D028093C4
:101460008C02089521E030E002C0220F331F8A95DC
:10147000E2F72095309580918C0290918D02822325
:1014800093230E942D0A089590915D0280958923EF
:1014900080935D02282F277091F4282F082E000CCE
:1014A000330B9217130659F090918F0292FF07C0E9
:1014B0008595859585950E94320A10925D02089562
:1014C00021E030E002C0220F331F8A95E2F78091BD
:1014D0008C0290918D02822B932B0E942D0A0895ED
:1014E00090936A02809369020895FC01838194813C
:1014F000892B29F08081918189238F3F51F480E0ED
:101500000895843FE1F717C0883EA8F0813FB9F7FE
:1015100012C0808191810E94990992959F709630A6
:1015200099F358F4925F9F70923048F7803F19F01A
:1015300040F7883E20F781E008959A5FF4CF662354
:1015400009F45DC08D3C41F40E94A806819580930A
:10155000DD020E945F0608958E3C19F40E94A806E1
:10156000F6CF8F3C31F40E94A80681958093DC026F
:10157000F0CF803D19F40E94A806F8CF893D29F4E8
:101580000E9486068093DE02E4CF8A3D21F40E9409
:1015900086068195F7CF8B3D31F40E9486068195B2
:1015A0008093DF02D6CF8C3D19F40E948606F8CFD7
:1015B0009FE2980F983070F4815D990B21E030E044
:1015C00001C0220F8A95EAF78091DB02822B80937B
:1015D000DB02BFCF8D3D31F48091D50281608093D5
:1015E000D502B7CF8E3D21F48091D5028260F7CF2E
:1015F0008F3D09F0AECF8091D5028460F0CF40914D
:10160000DC028D3C59F48091DD0287FF0DC0109201
:10161000DD0241110BC01092D30208C08E3C81F450
:101620008091DD0218169CF3442381F08091DE0244
:101630009091DF02892B09F08CCF1092D40289CFD0
:101640008F3C49F447FFF0CF1092DC028091DD021D
:101650008111ECCFE0CF803D19F41416ACF3E4CF48
:101660009091DE02893D29F41916F4F61092DE02FB
:10167000DBCF8A3D19F497FFD7CFF8CF9091DF02E7
:101680008B3D29F497FFD0CF1092DF02CDCF8C3D58
:1016900019F41916CCF3C8CF9FE2980F983090F444
:1016A000815D990B21E030E0B90102C0660F771F20
:1016B0008A95E2F7CB0180959091DB028923809394
:1016C000DB02B2CF8D3D31F48091D5028E7F8093C5
:1016D000D502AACF8E3D21F48091D5028D7FF7CF20
:1016E0008F3D09F0A1CF8091D5028B7FF0CF282FBD
:1016F00021709091E80281FF0FC091609093E80201
:1017000081E08093CA028091E802222339F082604E
:101710008093E80281E008959E7FF0CF8D7FF8CF1F
:101720000F931F93CF93DF938B01EA019091D3071F
:10173000943061F58093E9008FEF9091E80081503B
:1017400095FD06C095ED9A95F1F700008111F5CF52
:101750008091E80085FF1AC00E94DF03811111C04B
:101760008091E80085FD06C08091E8008E77809327
:10177000E800F2CFF80181918F018093F100219769
:1017800079F78091E8008E778093E800DF91CF9120
:101790001F910F91089543E050E0BC0182E00E9448
:1017A000900B089546E050E0BC0182E00E94900B4F
:1017B0000895CF93DF93EC0148E050E0BC0181E055
:1017C0000E94900B88E0FE01A9ECB7E001900D9219
:1017D0008A95E1F7DF91CF91089581E08093E00051
:1017E00080E28093D8001092C9008FE19EE40197B7
:1017F000F1F700C0000087E090EBDC018093E00788
:101800009093E107A093E207B093E30788E19CE09F
:101810000FB6F894A895809360000FBE9093600077
:10182000FFCFA5E0B0E0E7E1FCE00C94DA23809183
:10183000B60780FD0AC0EEEEF2E01182108212823D
:10184000339624E0E93BF207C1F78090E9029090DB
:10185000EA028114910409F457C080FF55C0D12CCD
:10186000C12C66246394712C53E0552E8091E802BC
:1018700093010C2C01C0220F0A94EAF7822309F489
:101880003BC0F601EE0FFF1FE80DF91DE590F49047
:10189000E114F104C9F145E050E0B701CE01019631
:1018A0000E946A2409810F3F39F18A81800F9927AC
:1018B000991F8A39910514F089E990E05C01AA0C1E
:1018C000BB1C8A0D9B1DFC01E251FD4F5F01059D74
:1018D0008001112402511D4F0A151B0520F0F5E06F
:1018E000EF0EF11CD8CF98014D816C818B810E9445
:1018F000C6050D5F1F4FF0CF2FEFC21AD20A38E096
:10190000C316D10409F0B2CF6C9A3EB13F7E2EB11E
:1019100020614FB7F8948EEE92E0FC015191CF0117
:1019200068E02EB9000000C057FF3EB9550F000017
:1019300000C000C000C03EB900C06A9591F7F4E055
:10194000893B9F0751F74FBF8FE594E00197F1F76F
:1019500000C000002596EFE00C94F623B0E0A0E074
:10196000E4EBFCE00C94D923FC016280448081E02C
:101970008483E5EDF4E07490E4E5F5E0E491009112
:10198000B9070695015810E0000F111F012F11270C
:10199000C9EBD4E02EEEC22E22E0D22E36EB832EFF
:1019A00037E0932EAA24AA94B12C55245A94E7190F
:1019B000EE2EF12C82E0861530F08091B7078883F7
:1019C0008091B8078983411016C01B821A82960144
:1019D0004A81698188810E94C605259683E0C80EE8
:1019E000D11C8C169D0631F70E94110CCDB7DEB7C5
:1019F000E0E10C94F5238B818823E9F081508B83FF
:101A0000859DC00111246C8170E00E949A23FB0126
:101A1000FF27EB52FB4F8491E82FE719E59DC001AA
:101A20001124B7010E949A238091B907689FB001E1
:101A300011247A83CCCF0E945A24B5010E94AE2390
:101A40008017910724F682E0861588F40E945A24B4
:101A5000B5010E94AE2388830E945A242091B807C2
:101A60002695622F70E00E94AE23280F29831A82E8
:101A70008091B907893C20F088EC8C838B83A7CFB9
:101A80008431D8F784E1F9CFEF92FF920F931F933F
:101A9000CF93DF938C01CEEED2E0F12CE12CF80154
:101AA00094816091B8078091B707FCE4EF16F104C8
:101AB000ECF49923E9F09E014091B9070E94C60514
:101AC0002FEFE21AF20A239689E9E816F10439F7B2
:101AD0000E94110CF801848190E001968170992791
:101AE0008483CDB7DEB7E6E00C94FF23992319F386
:101AF0009E0140E0E3CFB0E0A0E0E1E8FDE00C941F
:101B0000DD23EC014C81042F10E09801D8010E94E4
:101B100029259B01AC010E94F4244B015C01E0E209
:101B2000F0E0E01BF10BA5E5B0E0AC019B010E94E9
:101B3000F4246B017C019F01DF010E94C8239B01FB
:101B4000AC010E94FF249B01AC01280D391D4A1DE8
:101B50005B1DC701B6010E940725F22E822F90E07F
:101B600039E23F1598F143E0249F90011124359507
:101B70002795122F10959EEEC92E92E0D92E00E0E7
:101B800085E5E82EEF188E2D01FD8F2D9601412F52
:101B90006091B8070E94C6050F5F53E0C50ED11CC7
:101BA000093989F70E94110C9C8181E0992319F071
:101BB000903219F48FEF8093190180911901890FE8
:101BC0008C83CDB7DEB7ECE00C94F92325E530E04B
:101BD000A901481B590BCA019A01220F331F280F74
:101BE000391F37FFC4CF2F5F3F4FC1CF0F931F93D4
:101BF000CF93DF93CEEED2E0FE01118210821282EB
:101C0000339684E0E93BF807C1F710E000E08091EB
:101C1000EC02082E000C990B081719077CF1809133
:101C20001801082E000C990B801791073CF19E01BA
:101C30004091B9076091B8078091B7070E94C60527
:101C40000F5F1F4F23960939110509F70E94110CE8
:101C5000809117019091EC02980F9093EC02909173
:101C60001801980F9093180119161CF08195809314
:101C70001701DF91CF911F910F910895198218825A
:101C80001A82DECFB0E0A0E0E8E4FEE00C94E123AD
:101C9000FC018281DD24DA9480FD02C0DD24D3942E
:101CA0000EEE12E0D0E0C0E0F80111821082128244
:101CB00094E0E92EF12CC12C8091EB028C0D87FD74
:101CC0008756082E000C990B8C179D0791F4809174
:101CD000B9078E9DA0018F9D500D112455954795F4
:101CE0005595479598016091B8078091B7070E9474
:101CF000C605CD0CF1E0EF1AF108F1F621960D5F63
:101D00001F4FC939D10581F60E94110C8091EB0259
:101D100091E0D9120CC0811108C088E98093EB02D0
:101D2000CDB7DEB7E8E00C94FD238150F7CF90E00B
:101D30000196BE010E94AE23F1CFEF92FF921F9356
:101D4000CF93DF93EC018EEEE82E82E0F82E10E0C8
:101D50008C8197014091B9076091B807810F0E946B
:101D6000C6051F5F83E0E80EF11C193989F70E9450
:101D7000110C9A818C8190FF08C08F5F8C83DF915A
:101D8000CF911F91FF90EF9008958150F7CF9091E0
:101D9000B60790FF0CC0EEEEF2E0818360834283D1
:101DA000339694E0E93BF907C1F70E94110C0895BE
:101DB000A3E0B0E0EEEDFEE00C94E5238C01809111
:101DC000ED0281110AC09E012F5F3F4F46E96FEF80
:101DD0000E94C6058A818093ED02F801648161301A
:101DE00069F08091ED0240E0662361F040E06230EE
:101DF00011F44091ED0280E060E004C06091ED02DA
:101E000040E080E00E94C70EF801848190E00196D6
:101E100063E070E00E94AE2384832396E4E00C9498
:101E20000124A3E0B0E0E7E1FFE00C94E723909108
:101E3000B60790FF0AC09E012F5F3F4F0E94C60564
:101E40004B8169818A810E94C70E2396E2E00C943F
:101E50000324CF93DF93EC01E6EBF7E0438162814B
:101E60008C810E94110F8C818F5F8C83DF91CF91C9
:101E70000895CF93DF93EC01EC81F0E0EB52FB4F40
:101E80004491E6EBF7E0628181810E94110F8C8121
:101E90008F5F8C83DF91CF910895CF92DF92EF9285
:101EA000FF926B017C010E94B005B701A60188E09A
:101EB00090E00E94B324FF90EF90DF90CF900895C0
:101EC000A3E0B0E0E6E6FFE00C94DA23F82E762EED
:101ED000E42E622E9091B60790FF29C0E92FE69577
:101EE000AE2FB0E0A657BE4F8C918093E6029E7F46
:101EF000923009F59E012F5F3F4F8F2D0E94C6053E
:101F00004B8169818A810E94C70EF092B707709257
:101F1000B807E092B907662051F06091B60770915A
:101F2000B7078091B8079091B9070E944D0F23968B
:101F3000EFE00C94F623823019F4E090B907E5CF76
:101F4000863019F4F090B707E0CF8930D9F38931A2
:101F5000E1F6E9518E2F8170582EE695F0E0E053BE
:101F6000FB4FE4910E2F10E08EEEC82E82E0D82EAB
:101F7000B12CA12C99E9892E912CC501B4010E94A4
:101F80009A238F2D511013C0860F96014E2D672D69
:101F90000E94C605A00EB11E83E0C80ED11C89EBBD
:101FA000C81684E0D80649F70E94110CAECF861BF4
:101FB000ECCFE6EBF7E0438121E1421B08F440E07F
:101FC00021E0628181810E94600F0895E6EBF7E0D5
:101FD000438121E1420F08F44FEF21E062818181CA
:101FE0000E94600F0895E6EBF7E0628121E1621B39
:101FF00008F460E021E0438181810E94600F089530
:10200000E6EBF7E0628121E1620F08F46FEF21E077
:10201000438181810E94600F0895E6EBF7E08181A2
:1020200021E04381628188500E94600F0895E6EBB1
:10203000F7E0818121E043816281885F0E94600F27
:1020400008958091BA07882319F081508093BA07C8
:102050006091B6077091B7078091B8079091B90762
:102060000E944D0F08958091BA07833018F48F5F56
:102070008093BA076091B6077091B7078091B8074F
:102080009091B9070E944D0F08959091B60790FF67
:102090002CC0917081112AC092609093B60766237C
:1020A00051F06091B6077091B7078091B807909191
:1020B000B9070E944D0F6091B607669570E04BE03E
:1020C00050E08CE091E00E947324892BB1F01092D3
:1020D000E70281E08093E30220E04091B90760913C
:1020E000B8078091B7070E94600F08958B3210F0F7
:1020F0009465D3CF880F982BD0CF81E08093E702EF
:102100000E942C059093E1028093E002E2CF80913F
:10211000B6078695815009F48AE261E00E94451075
:1021200008958091B60786958F5F8B3208F081E025
:1021300061E00E94451008959091B60790FF08C095
:102140009695981728F0961718F40E949110089504
:1021500061E00E9445100895E6EBF7E08FE480838C
:102160008EEB81838FEF828386E983831482608183
:102170007181828193810E944D0F08958091670241
:1021800090916602892B8093B801909168029923FF
:1021900091F0892B8093B80120E08AEB91E0FC015B
:1021A0003191CF0131112F5FF1E0803C9F07B9F7EA
:1021B00021110E942E0948E050E06EE572E088EBA4
:1021C00091E00E948024892BA9F088E0E8EBF1E0FF
:1021D000AEE5B2E001900D928A95E1F7E091BD077E
:1021E000F091BE07309731F00280F381E02D88EB4B
:1021F00091E009950895882321F00E9434090E94F6
:10220000BE100895882339F090916702982B90931F
:1022100067020E94BE1008958823D1F19CEF980FA9
:10222000913A78F4EAEBF1E09191891303C0DF0170
:1022300011971C9291E0E03CF907B1F70E94BE10A3
:10224000089590E2980F983050F4877091E001C0A3
:10225000990F8A95EAF7892F0E943409EFCF9BE501
:10226000980F933028F490E080E00E94770508955D
:1022700098E5980F9B3128F490E080E00E94520589
:10228000089593E3980F933118F460E00E949F0A39
:102290000895CF93C82F8823B1F08CEF8C0F813A2B
:1022A00000F5EAEBF1E080EC91E0DF012D91C2173F
:1022B00061F08A179B07D1F76C2F88EB91E00E94A1
:1022C00038050E94BE10CF9108952191C21303C01A
:1022D000DF0111971C928E179F07B9F70E94BE105D
:1022E000EBCF80E28C0F883068F4C77021E030E0DB
:1022F00001C0220FCA95EAF780916702822B809372
:102300006702DFCFEBE5EC0FE33040F4F0E0E55E91
:10231000FE4F808190E00E947705D5CFE8E5EC0F75
:10232000EB3150F4F0E0EE0FFF1FE25EFE4F8081D4
:1023300091810E945205C7CF83E38C0F833118F639
:1023400061E08C2F0E949F0ABECF0F931F93CF9303
:10235000DF93C62FD42F022FFC0182818823A9F09E
:102360006093DF070E942C059093DE078093DD07C2
:10237000C77081E001C0880FCA95EAF70E94021178
:10238000DF91CF911F910F9108958091DF0768131E
:1023900035C08091DD079091DE070E941D05883CC5
:1023A000910560F510E21D0FCD17B9F080E28C0F9A
:1023B000883040F4C77081E001C0880FCA95EAF701
:1023C0000E94FB10183048F481E09D2F977001C0E7
:1023D000880F9A95EAF70E940211802F0E944911F6
:1023E000802F0E940C11183058F6D77081E001C080
:1023F000880FDA95EAF70E94FB10C2CFC77081E020
:1024000001C0880FCA95EAF7F6CF90918F0292FB30
:10241000222720F9281779F080FB92F990938F02F8
:1024200060918E0270918F0284E090E00E94BF2440
:1024300082E00E94440A0895CF9310926702C6E09A
:10244000EAEBF1E0DF018C2F1D928A95E9F790E02D
:1024500080E00E94770590E080E00E945205109293
:1024600066020E94BE10EAEDF2E0DF011D92CA95FD
:10247000E9F71092D3021092D4021092D5020E9472
:102480005F06CF910895AAE2B0E0E9E4F2E10C948E
:10249000E62385ED97E02091F100FC012193CF0127
:1024A000F7E08D3D9F07B9F78091D607833009F497
:1024B00070C0B8F4813009F447C0823009F4B1C06B
:1024C0008091E80083FF7EC28091D5079091D60766
:1024D0009A3008F077C2E92FF0E0E65CFA4D0C94F0
:1024E000C2238A3009F48CC08B3009F46FC0893064
:1024F00039F78091D507813219F78091D9079091EA
:10250000DA070297E8F68091E800877F8093E80079
:102510008091E80082FF38C08091F2009091F30032
:10252000029731F48091F100813011F0863021F46E
:102530008091F1008093C8078091E8008B778093A9
:10254000E8000E941004BCCF8091D507813A09F0C1
:10255000B7CF8091E800877F8093E8008091D9070A
:102560009091DA07892B61F468E089EC97E070E0DC
:102570000E94BD048091E8008B778093E800A0CF93
:1025800060E090E080E0F3CF8091D3078111C0CF6D
:1025900097CF8091D507813A09F092CF8091D907E2
:1025A0009091DA07892B09F08BCF8091E800877F23
:1025B0008093E8008091E80080FFFCCF80911A01B1
:1025C0008093F1008091E8008E77B9CF8091D50794
:1025D000813209F075CF8091D9079091DA07892B64
:1025E00009F06ECF8091E800877F8093E8000E9419
:1025F00010048091D70780931A010E941C1260CFAB
:102600008091D507813209F05BCF8091E800877F08
:102610008093E8000E9410048091D8078093C70738
:102620004FCF8091D507813A09F04ACF8091E800D9
:10263000877F8093E8008091E80080FFFCCF809145
:10264000C707BECF803899F0823809F0BBC18091AE
:10265000D9078F70873008F0B5C18093E900809169
:10266000EB0085FB882780F91092E90006C0809175
:10267000D1079091D207911182609091E800977FE5
:102680009093E8008093F1001092F1008091E800AF
:102690008E7794C1882309F482C1823009F092C1F7
:1026A0008091D707811185C18091D9078F702FEF55
:1026B000280F263008F086C18093E9002091EB00B6
:1026C00020FF77C1933031F48091EB0080628093DA
:1026D000EB006FC19091EB0090619093EB0021E0D3
:1026E00030E001C0220F8A95EAF72093EA001092A9
:1026F000EA008091EB008860EACF811163C11091FC
:10270000D7071F778091E3008078812B8093E300C7
:102710008091E800877F8093E8000E9410048091F8
:10272000E80080FFFCCF8091E30080688093E300A5
:1027300082E0111183E08093D30744C18058823036
:1027400008F040C18091D7079091D8078C3D23E0D5
:102750009207A1F583E08A838AE289834FB7F894D0
:10276000DE01139620E03EE051E2E32FF0E05093CB
:102770005700E49120FF03C0E295EF703F5FEF70D8
:102780008E2F90E0EA30C0F0C7968D939D932F5F17
:10279000243159F74FBF8091E800877F8093E8008C
:1027A0006AE270E0CE0101960E94BD048091E800CB
:1027B0008B778093E80006C1C096E7CF4091D90798
:1027C0005091DA07292F33272330310509F444C00B
:1027D00078F52130310509F46FC08BE390E0E0E932
:1027E000F6E02230310509F0EDC02091E800277FA6
:1027F0002093E8002091DB073091DC0782179307D4
:1028000008F49C0140E02115310509F064C0411134
:1028100062C08091E80082FDC9CF8091D3078823F0
:1028200029F2853019F28091E80083FFF2CFBECF04
:1028300021323105A9F12232310509F0C3C0411519
:10284000510509F443C04130510509F0BBC08BE785
:1028500090E0E5EDF5E0C9CF992781309105C1F011
:10286000009759F0029709F0ADC0EDEDF6E0E49164
:102870008E2F90E0EDEDF6E007C0E7E0F7E0E491A1
:102880008E2F90E0E7E0F7E0009709F49BC0ADCF12
:10289000EFEEF6E0E4918E2F90E0EFEEF6E0F4CF6D
:1028A0004115510571F04130510509F08BC089E0A7
:1028B00090E0EBEBF6E099CF82E190E0EBECF6E014
:1028C00094CF89E090E0E2EAF6E08FCF80E490E0F8
:1028D000E0E5F6E08ACF8091D307882309F466CF3C
:1028E000853009F463CF8091E80083FD5FCF80914C
:1028F000E80082FD8ECF8091E80080FF84CF809138
:10290000F2009091F3002115310519F088309105FE
:1029100050F041E0089709F040E08091E8008E77A0
:102920008093E80070CF44914093F100319621509C
:1029300031090196E8CF803809F044C08091E80061
:10294000877F8093E8008091D4078093F1009ECE2A
:10295000811138C01091D7071230A0F58091E8009E
:10296000877F8093E8001093D4070E9410041123FE
:1029700011F084E005C08091E30087FDFACF81E08B
:102980008093D30742E061EC81E00E942F0442E291
:1029900061EC82E00E942F048091D30713C08091E4
:1029A000D707813079F481E0933009F080E080939B
:1029B000D2071092E9008091E800877F8093E800B9
:1029C0000E9410048091E80083FF0AC08091E80013
:1029D000877F8093E8008091EB0080628093EB001A
:1029E000AA96E3E00C9402240E941C122FEF84E3C9
:1029F0009CE0215080409040E1F700C0000088E159
:102A00009CE00FB6F894A895809360000FBE909359
:102A10006000FFCF4F925F926F927F92AF92BF9212
:102A2000CF92DF92EF92FF920F931F93CF93DF939A
:102A3000CDB7DEB76C970FB6F894DEBF0FBECDBF33
:102A40008E010F5F1F4F8CE1F80111928A95E9F713
:102A500094E5E92E91E0F92E6801AA24A394B12C03
:102A6000F70181917F018F3F09F452C0F894E82F5C
:102A7000E295EF70F0E021A18F70A50102C0440F34
:102A8000551F8A95E2F7CA01922F982B91A392A124
:102A90008095892382A3789400C0EBE5F1E041E0C2
:102AA00050E060E070E0412C512C320181918F3F69
:102AB00089F0A82FA295AF70B0E090962C9130E0ED
:102AC0008F7002C0359527958A95E2F7DB01CA0120
:102AD00020FF03C080E090E0DC01482A592A6A2ADE
:102AE0007B2A440F551F661F771F81E0E637F807E2
:102AF000E9F6F701319780818F3F11F00E94CA06F5
:102B0000E0EAEA95F1F7F60140825182628273822F
:102B1000F4E0CF0ED11C4BE5E41641E0F40609F0D9
:102B20009FCF4CE150E0B80180E792E00E94802402
:102B3000892B81F18CE1F801A0E7B2E001900D92C0
:102B40008A95E1F781E080936F020E942C059093B3
:102B50006E0280936D0280916D0290916E020E94D0
:102B60001D050597D8F04CE150E060E772E081E97F
:102B700092E00E948024892B39F18CE1E0E7F2E0B9
:102B8000A1E9B2E001900D928A95E1F781E01092FF
:102B90006F0205C080916F028111DDCF80E06C96DD
:102BA0000FB6F894DEBF0FBECDBFDF91CF911F915E
:102BB0000F91FF90EF90DF90CF90BF90AF907F90FC
:102BC0006F905F904F90089580E0E1CF67EE7EEFC9
:102BD00090E080E00E94BF2460E082E090E00E94EC
:102BE000A12460E083E090E00E94A12410926A0298
:102BF0001092690260E074E184E090E00E94BF24DA
:102C000060E086E090E00E94A1246FEF87E090E012
:102C10000E94A12440E050E0BA0188E090E00E94C8
:102C2000B32460E08DE090E00E94A12440E050E0F9
:102C3000BA0188E190E00E94B32460E087E190E06F
:102C40000E94A12440E050E0BA018CE190E00E9493
:102C5000B32470E060E080E290E00E94BF2440E096
:102C600050E0BA0188E190E00E94B32440E050E0D7
:102C7000BA018FE090E00E94B32440E050E0BA0136
:102C800083E190E00E94B3240895A5E0B0E0EBE476
:102C9000F6E10C94DD237C01FC0183819481892B76
:102CA00031F08081918189238F3F09F02CC42596D2
:102CB000ECE00C94F9230E946509182F682F898194
:102CC0009A810E94130A69817A81812F0E94C60726
:102CD0008C01FC01E851FC47E730F10588F5EC5B1D
:102CE000FA4D0C94C22326E241EE61EEC7010E9428
:102CF000A51180915D028770D1F2F701828188234E
:102D0000B1F280918F0282FFD2CF82E00E94440A0A
:102D1000CECF27E245EE65EEE9CF26E241EE60EE4A
:102D2000E5CF27E245EE64EEE1CF26E241EE62EE2A
:102D3000DDCF27E245EE66EED9CF28E241E0EBCFCA
:102D4000F7018281882309F405C41092DF07C801C6
:102D50009057839708F0E8C384E090E00E949B249A
:102D600090938F0280938E02F801E150F047E23297
:102D7000F10520F4E55BFA4D0C94C22380918E029C
:102D8000816080938E0295C080918F0288608093CD
:102D90008F028FC080918E028260F3CF80918E026D
:102DA0008460EFCF80918E028860EBCF80918F029C
:102DB0008160EDCF80918F028260E9CF80918E0299
:102DC0008061DFCF80918E028062DBCF80918E02A6
:102DD0008064D7CF0E941C1280918E028068D1CF70
:102DE00080918E028C60CDCF80918F028360CFCF97
:102DF00080918E028E7FC5CF80918F02877FC7CF53
:102E000080918E028D7FBDCF80918E028B7FB9CF56
:102E100080918E02877FB5CF80918F028E7FB7CF52
:102E200080918F028D7FB3CF80918E028F7EA9CF4C
:102E300080918E028F7DA5CF80918E028F7BA1CF56
:102E40000E941C1280918E028F779BCF80918E0200
:102E5000837F97CF80918F028C7F99CF80918E0254
:102E600082FB992790F921E0922790FB82F990FB51
:102E700083F987CF80918F02982F909591708E7FE4
:102E8000892B90FB81F983CF90918E02892F8F7BC4
:102E900096FF806476CF0E941C1290918E02892F3B
:102EA00097FB87F980586DCF61E08EE090E00E943B
:102EB000A12460918E0270918F0284E090E00E94C4
:102EC000BF240E941C1215CF60E0EFCF90918E02BC
:102ED000892F8F7E94FF806154CF90918E02892F2D
:102EE0008E7F90FF81604DCF90918F02892F877FD9
:102EF00093FF88604CCF8091C00181110FC089E29F
:102F0000EAEBF1E020EC31E09191891303C0DF019D
:102F100011971C922E173F07B9F719C385E3F0CF1D
:102F20008091B60780FF12C08E7F8093B6076091B4
:102F3000B6077091B7078091B8079091B9070E94C2
:102F40004D0F1092E7020E94110CD3CE8160809346
:102F5000B60761E086950E944510CBCE47E850E168
:102F600061E970E10E94A905C4CE41E950E167E83A
:102F700070E1F8CF4DE050E167E170E1F3CF47E158
:102F800050E16DE070E1EECF43EF5FE060E070E1B3
:102F9000E9CF40E050E163EF7FE0E4CF49ED5FE04F
:102FA00066EE7FE0DFCF46EE5FE069ED7FE0DACFEF
:102FB00041E250E163E370E1D5CF43E350E161E2E8
:102FC00070E1D0CF61E081E0C6CF65E082E00E9491
:102FD0009C108FCE68E086E0FACF6EE089E0F7CFF4
:102FE00064E18FE0F4CF67E185E1F1CF61E088E152
:102FF000B2CF62E289E1EBCF61E083E2ACCF6AE27B
:1030000085E2E5CF0E941C12FFEF24E33CE0F15083
:1030100020403040E1F700C000000E94ED0B6FEF50
:103020007FEF90E080E00E94BF240E94F414809122
:103030008F0282FB882780F991E089270E94051280
:10304000F701828100811181882309F449C0C801F8
:103050000E946509D82E682FC8010E94130AB80182
:103060008D2D0E94C6070E9410088C01882EF70142
:10307000A280958092943FE0932280915D028770B8
:10308000F1F0CA2CAA20E1F0812F807F803451F02A
:1030900080E2800F883098F0911004C0812F807EEC
:1030A000803269F080918F0282FF09C082E00E9425
:1030B000440A80915D028770CC24C3948111C12C95
:1030C000B12EB2942FE0B222FBE0FB1508F474C0DD
:1030D000EB2DF0E0E359FA4D0C94C22380E0AECF23
:1030E000C8010E94CD09D82EBACF212F2F70D22E21
:1030F000107F19F0D29490EFD922AA20B9F0DD20E8
:1031000069F080E2800F883010F0811009C0809152
:103110006702D82AD09267020E94BE10802F4AC050
:1031200080916602D82AD0926602F6CF802F0E9444
:103130000C11DD2009F440C0005E083010F0811051
:1031400004C08D2D0E94340906C0D094809166027F
:10315000D822D09266020E94BE102EC0312F3F703E
:10316000D32E107F103219F0D29480EFD82288200D
:1031700089F081E0881609F47EC0AA2009F488C08D
:10318000992009F47EC0F701858180FFC7CF8F7039
:10319000858377C020918F0222FD45C0AA20E9F1E6
:1031A000DD2039F080916702D82AD09267020E9410
:1031B000BE1080E00E944911EB2DE850FF0B3497C0
:1031C00020F40E949C050E94770BCC20A9F08091EE
:1031D0005D0280FD11C0F701128285958595859568
:1031E0000E94600AC7010E94451680915D02859584
:1031F000859585950E94320A85E0F701DE011196DA
:1032000001900D928A95E1F709811A81C8010E9407
:10321000CD09B8010E94C6074ACD80E00E940C117A
:10322000DD2051F28ECFAA20A1F0909168028D2D61
:10323000892B911003C00E940211BECFE1E09E12C3
:10324000FACF22FFB9CF891709F4B6CF809368026D
:10325000B3CF911006C00E942E098D2D0E94FB1045
:10326000ABCFF1E09F1609F4A7CF8D2D0E94FB1084
:103270000E942E09A1CFAA2031F025E0291508F4DB
:103280009BCF8D2DD8CF34E0391508F495CFE5CFFD
:10329000992019F3F9E38F122FC12FEF37EE83E056
:1032A000215030408040E1F700C0000025C1812F4F
:1032B00086958695837061F0813009F07DCFC801D5
:1032C0009370A11002C080E090E00E94520574CF7C
:1032D000C8019370A11002C080E090E00E947705C1
:1032E0006BCF6A2D802F0E949F0A66CF812F83703B
:1032F00009F03FC0A11060CF402F4295469547701E
:10330000440F440F802F8F7090E0042E02C0880F6E
:10331000991F0A94E2F730E020E004FF09C02FE093
:1033200030E002C0220F331F4A95E2F72095309516
:10333000169516951370123099F078F44091690241
:1033400050916A02113039F0822B932B84239523FC
:103350000E94700A31CF842B952B822B932BF8CFB0
:10336000822B932B2091690230916A028227932746
:10337000EFCF8695AA2011F0812F8170882309F460
:103380001BCF402F429546954770440F440F802F26
:103390008F7090E0042E02C0880F991F0A94E2F704
:1033A00030E020E004FF09C02FE030E002C0220F2F
:1033B000331F4A95E2F720953095169516951370B0
:1033C000123099F078F440918C0250918D021130B6
:1033D00039F0822B932B842395230E942D0AECCE67
:1033E000842B952B822B932BF8CF822B932B209120
:1033F0008C0230918D0282279327EFCF1F70AA2075
:1034000029F0812F0E94600A802F15CF802F0E9403
:10341000FB10812F0E94320ACFCE802F92EF8916A7
:1034200099F1981570F0E0EF8E16D1F0F1EF8F164C
:1034300091F0AA2009F45BC0911070CE812F8F719A
:1034400027C023EF821639F134EF8312F2CF809137
:103450008F0282FD2EC0812F8F71AA20D9F218C051
:10346000AA2069F084E0891508F4A6CE1F7181E0D6
:1034700090E002C0880F991F1A95E2F7B8CF95E047
:10348000991508F499CEF2CF812F8F71A110C2CF78
:103490000E94600A91CE90E080E0AA2009F49DCFBE
:1034A0001F7181E090E002C0880F991F1A95E2F722
:1034B00094CFAA2089F01F71812F0E94600A809109
:1034C0008F0282FF07C0E8E01E9FC00111248360C5
:1034D00080935D02812FDCCF81E00E94440AF1E0FD
:1034E000F91508F069CE82E00E94440A65CE992061
:1034F00039F0893309F4D1CE802F0E940C115CCEB3
:10350000812F8F7187CF85E0DE01119601900D929A
:103510008A95E1F7F701228189819A812111CBCB2C
:103520000E94CD09182FCFCB0631FCE71F0729F5E4
:10353000809167028A7A91E009F490E09093C0014B
:1035400069E2811165E388EB91E00E9438050E94F1
:10355000BE10CFCB06312CE7120709F4CCCC8091FA
:1035600067028272F801E052F847E531F10508F090
:1035700067CDE758FA4D0C94C22303303CE713079C
:1035800009F44DCD50F401159CE7190709F43ACD23
:1035900001301C4709F449CD53CD0B35FCE71F071B
:1035A00009F49CCD0C352CE7120709F440CD0A35FF
:1035B0001C4709F045CD81E041CD1F93CF93DF93A8
:1035C00080912A02807F09F04BC0809127028823D6
:1035D00009F446C080915C02C0912B024091250203
:1035E000509126026091280270912902D42FD52390
:1035F00016E0C817A9F190E061157105A9F1DF3F48
:1036000099F1189FF001199FF00D1124DF01A45DBD
:10361000BD4F11962C911197251326C02C91241380
:1036200023C012962C91129721111EC013962D9132
:103630003C91261B370B283C3105B0F480912A02BF
:103640008F70806180932A02EF5CFD4F80818F70C4
:103650008061808385E292E00E9445160E945B09AA
:10366000DF91CF911F91089501968770C2CFA1E19C
:10367000B0E0EDE3FBE10C94DD238C0185E0F80183
:10368000DE011D9601900D928A95E1F7F801E28026
:1036900085E2882E82E0982E4091280250912902DE
:1036A0004115510509F430C190912502209126025F
:1036B000892F82238F3F09F427C1D080C180A38046
:1036C000B480F0902702B501641B750BFF2009F44C
:1036D000E7C080912A02382F307F683C710508F0DE
:1036E000ABC0311178C0FE2C2C1114C09D1112C03A
:1036F000E11010C08F70806180932A02C4010E9483
:10370000451680912A02F80185838F2D6196ECE0A1
:103710000C94F923A114B104C9F18D2D8C218F3F94
:10372000A9F181E08E2580FF05C04E2D6C2D8D2DD9
:103730000E943B09A114B10459F18D2D8C218F3FBA
:1037400039F181E08E25F82FF170BF2E80FF39C04E
:103750004E2D6C2D8D2D0E943B09A82E811131C05C
:10376000DD86CE868D859E850E949909292F22951A
:103770002F70243078F49F702230A8F09923B9F08C
:10378000F8019581907F99F4FA2CBFCF80E0CBCFE0
:1037900080E0D9CF2A5F2F70223068F0C8010E94E4
:1037A0004516AB2CF1CF992311F0882369F3805E85
:1037B000883050F3F3CF803F38F3815F833070F768
:1037C000E3CFEE2009F4A1CF80912A02816080939B
:1037D0002A02F12C9ACF2C1105C09D1103C0EE20B6
:1037E00009F477C0C8010E94750A882309F1EE2008
:1037F000F9F080912A02803270F0209125023091F8
:10380000260238872F831986BB86AA868C87CE012D
:1038100007960E94451686E0F801A5E2B2E0019005
:103820000D928A95E1F70E94DD1AFF24F3946DCF83
:10383000C8010E944516F9CF31110AC085E292E015
:103840000E94451686E0F40111928A95E9F7C1CFEE
:103850002C110EC09D110CC0E1100AC08583C80157
:103860000E94451686E0F40111928A95E9F74DCF42
:10387000C8010E94750A8823D9F2EE20C9F280910E
:103880002A02803240F220912502309126023A83AA
:1038900029831B82BD82AC828E83CE010196B9CF73
:1038A000683C7105F8F6FE2CEE2011F22C111EC0BA
:1038B0009D111CC080912A0280FD0FC0982F907F1F
:1038C00061F08583903F31F0982F907F905F8F70EB
:1038D000892B8583C8010E94451686E0F801A5E280
:1038E000B2E001900D928A95E1F70FCFC8010E94D6
:1038F000750A811190CF80912A02816080932A02FB
:10390000C8010E94451601CFEE2009F491CFC801ED
:103910000E94750AF82E882309F48ACF86E0F80100
:10392000A5E2B2E001900D928A95E1F7809125021F
:10393000909126020E9499090E94DD1AE6CEA7E125
:10394000B0E0E5EAFCE10C94E6234B8B5C8B6D8BDD
:103950007E8B8F8B6111109266021A8A198A85E01C
:10396000FE017396DE011D9601900D928A95E1F796
:1039700086E0FE013D96DE01179601900D928A9534
:10398000E1F7CE0107960E94371B882359F016E015
:1039900080915C0290912B02891343C06796E3E00B
:1039A0000C94022486E0FE013796DE011196019008
:1039B0000D928A95E1F78A859B85892B41F38F814A
:1039C000988589238F3F19F320912B0230E0C9019C
:1039D00001968770992740915C024817190671F487
:1039E0000E941C1210922B0210925C0286E0E5E20B
:1039F000F2E0DF011D928A95E9F7C9CF96E0929F28
:103A0000D001939FB00D1124A45DBD4FFE013196EE
:103A100001900D929A95E1F780932B020E945B0929
:103A2000B6CF819FC0011124845D9D4F0E94371B3A
:103A3000882309F4B3CF80915C0290E001968770EF
:103A4000992780935C02A4CFA5E0B0E0EAE2FDE113
:103A50000C94E5230E942C058C0180916B029091BF
:103A60006C0280179107A1F08FEF89838A831B82F4
:103A70000E942C058160782F9D838C8349815A8117
:103A80006B818D810E949F1C10936C0200936B02CE
:103A90002596E4E00C9401241F920F920FB60F922A
:103AA00011242F933F934F935F936F937F938F9343
:103AB0009F93AF93BF93CF93DF93EF93FF93D091F7
:103AC000E900DF708091EC00C82FC17080FDC0E874
:103AD0001092E9008091F000877F8093F000789445
:103AE0000E9443121092E9008091F0008860809358
:103AF000F000CD2BCF70C093E900FF91EF91DF91E3
:103B0000CF91BF91AF919F918F917F916F915F9175
:103B10004F913F912F910F900FBE0F901F901895CE
:103B20001F920F920FB60F9211242F933F934F9332
:103B30005F936F937F938F939F93AF93BF93EF9315
:103B4000FF938091E10082FF09C08091E20082FF33
:103B500005C08091E1008B7F8093E1008091DA00C5
:103B600080FF24C08091D80080FF20C08091DA00BF
:103B70008E7F8093DA008091D90080FF9DC088E11C
:103B800089BD8AE189BD09B400FEFDCF81E0809343
:103B9000D3078091C607811109C00E94C0030E940B
:103BA00061048091E20084608093E2008091E100F2
:103BB00080FF17C08091E20080FF13C08091E20077
:103BC0008E7F8093E2008091E20080618093E2002A
:103BD0008091D80080628093D80019BC85E08093E2
:103BE000D3078091E10084FF2BC08091E20084FF25
:103BF00027C088E189BD8AE189BD89B5982F917078
:103C000080FFFBCF8091D8008F7D8093D80080917A
:103C1000E1008F7E8093E1008091E2008F7E8093AF
:103C2000E2008091E20081608093E2008091D407FD
:103C3000882309F447C084E08093D3078091D30799
:103C40008091E10083FF27C08091E20083FF23C0C1
:103C50008091E100877F8093E10082E08093D30729
:103C60001092D4078091E1008E7F8093E1008091D3
:103C7000E2008E7F8093E2008091E2008061809379
:103C8000E20042E060E080E00E942F048091F000BA
:103C900088608093F000FF91EF91BF91AF919F9169
:103CA0008F917F916F915F914F913F912F910F90E5
:103CB0000FBE0F901F90189519BC1092D307109249
:103CC000C60774CF8091E30087FD93E09093D307FC
:103CD000B5CF78941F921FB61F9211248F939F9394
:103CE000AF93BF938091C2079091C307A091C4077F
:103CF000B091C5070196A11DB11D8093C207909395
:103D0000C307A093C407B093C507BF91AF919F911C
:103D10008F911F901FBE1F9018951F921FB61F9264
:103D200011248F939F93AF93BF938091C10781110B
:103D300013C08091C2079091C307A091C407B091AE
:103D4000C5074196A11DB11D8093C2079093C3077B
:103D5000A093C407B093C507BF91AF919F918F9176
:103D60001F901FBE1F901895CDB7DEB7A3970FB653
:103D7000F894DEBF0FBECDBF85B7806885BF85B71D
:103D8000806885BF84B7877F84BF0FB6F894A895F5
:103D900080916000886180936000109260000FBE87
:103DA00080E890E00FB6F8948093610090936100F2
:103DB0000FBE88EC96E09093B7018093B6010E9405
:103DC000C0030E9461048091E20084608093E2005D
:103DD00078948091D3078823A1F01091E9001F7097
:103DE0009091EC00892F817090FD80E8182B109243
:103DF000E9008091E80083FD0E9443121F70109338
:103E0000E90082E084BD93E095BD9AEF97BD809371
:103E10006E008093CF0248E851E066E8A62E61E08C
:103E2000B62E85019A0161E070E0D9018D919D0166
:103E3000E82FE295EF70F0E0D1A08F707B0101C018
:103E4000EE0C8A95EAF79E2D90959D2191A382A173
:103E50008E2982A3F80181918F01E82FE295EF70FE
:103E6000F0E0D1A08F707B0101C0EE0C8A95EAF7DB
:103E70009E2D90959D2191A382A18E2982A3AA585F
:103E8000B14099F68FE891E00197F1F700C000008A
:103E90001091CF0260ED72E0FB018E2F861B81171F
:103EA00008F458C004E511E0F80181918F018F3FBB
:103EB00011F00E94CA06F1E00B351F07A9F70BE5C8
:103EC00011E036E7E32E31E0F32ED8018D918D011C
:103ED0008F3F11F00E94CA06E016F106B1F78CE19F
:103EE000E1E9F2E0DF01282F1D922A95E9F7E0E7EA
:103EF000F2E0DF011D928A95E9F790E080E00E94F0
:103F00009B24873E9E4F11F00E94E61582E090E0D0
:103F10000E948D248093AD0284E090E00E949B2457
:103F200090938F0280938E020E940A15EFE3FCE9C2
:103F30003197F1F700C000000E940A1580919102AC
:103F400081FF31C06FEF7FEF90E080E00E94BF24DF
:103F50000E94ED0BDA012D91AD01822F82958F70B9
:103F600090E0DC0190968C9190E02F7002C09595C6
:103F700087952A95E2F78170D5019D915D01292FE2
:103F800022952F7030E0D90190962C9130E09F70EF
:103F900002C0359527959A95E2F790E020FD92E0D2
:103FA000892B81937ACF83E090E00E948D2490E06A
:103FB0000E94700A80919002811136C090E080E0EA
:103FC0000E949B24873E9E4F21F00E94E6150E948E
:103FD000AC1088E090E00E9495246093B60770933F
:103FE000B7078093B8079093B9076E7F71F40E946A
:103FF000AC1088E090E00E9495246093B60770931F
:10400000B7078093B8079093B9070E94B005109244
:10401000E7028091B60780FF04C060E086950E94A9
:10402000451081E08093900285EB93E09093EA0243
:104030008093E90284E091E09093BE078093BD07EE
:1040400024E0222E312C8091D30708E11AE185303B
:1040500009F4C3C00E940A15AEEAB2E0B9A3A8A34E
:10406000E1E9F2E0FBA3EAA38AEC92E0DF01EEEAE9
:10407000F2E001911191219131914D915D916D91FC
:104080007D918E179F0709F4B4C004171507260702
:10409000370779F310E0AAA1BBA1CD90DD90ED9098
:1040A000FD90BBA3AAA3E8A1F9A141905190619012
:1040B0007190F9A3E8A34C145D046E047F04E1F150
:1040C0004C245D246E247F2400E0812C912C54012B
:1040D0008394D301C20188219921AA21BB21892B74
:1040E0008A2B8B2BD9F00B8F1C8F21E0D701C601B7
:1040F00088219921AA21BB21892B8A2B8B2B09F49A
:1041000020E02D8F0E942C058160782F9F8F8E8F4D
:104110004B8D5C8D6D8D8F8D0E949F1C0F5F880C69
:10412000991CAA1CBB1C0B31A1F6E8A1F9A134977C
:10413000C082D182E282F3821F5F173009F0ABCFD9
:104140008FB7F8944091C2075091C3076091C4079C
:104150007091C5078FBF55C08091D307843039F166
:1041600080E00E94770B1092C10788E190E0A0E404
:104170000FB6F894A895809360000FBEA0936000DE
:1041800083B7817F846083BF83B7816083BF789466
:10419000889583B78E7F83BF0FB6F894A8958091DA
:1041A0006000886180936000109260000FBE809173
:1041B000D207882391F00E940A15E1E9F2E081918B
:1041C0009191A191B191892B8A2B8B2B09F086C2F9
:1041D0008DEA92E08E179F0791F78091D307853083
:1041E00009F4BACF0E941C120E949C050E94770B12
:1041F00031CF041715072607370709F04BCF0E9468
:10420000241D8091E7028823D1F18091E602E0919C
:10421000B607E695E81BE093E202823009F041C15F
:10422000F0E0E453FC4FE4910E2F10E0B9E3EB2EE5
:10423000BFE0FB2E8091E302882361F01092E3023D
:104240000E942C059093E1028093E0021092E50217
:104250001092E4020E942C05E091E002F091E1024C
:104260008E1B9F0B8F3F9F4750F4E00FF11FF09381
:10427000E102E093E00280EE92E0F701099580917F
:10428000CA02882361F01092CA028091E70281116C
:1042900006C08091B60760E086950E944510D12C3B
:1042A000C12C8DEFB82EAA24A3949CEF992E809157
:1042B000CF02D81608F461C1CC2059F08FB7F8941A
:1042C0004091C2075091C3076091C4077091C50720
:1042D0008FBF86E0EAEDF2E0DE01119601900D92CB
:1042E0008A95E1F71092DC021092DD021092DE0254
:1042F0001092DF028B819C81892B09F44AC0809146
:10430000D8029091D9020E941D059C019091D30280
:10431000992309F4FEC125313105D8F19F3F19F0E9
:104320009F5F9093D3021B81112359F00E94A8062E
:104330009FEF11160CF491E0899F802D112480933A
:10434000DC021C81112359F00E94A8069FEF111670
:104350000CF491E0899F802D11248093DD0230912F
:10436000DC023323B1F02091DD02222391F045EBF2
:104370003403C0011124992309F4A0C19093DC02F5
:1043800045EB240390011124332309F49BC130939E
:10439000DD028D819E81892B09F44AC08091D6026D
:1043A0009091D7020E941D059C019091D4029923FF
:1043B00009F4AAC121353105D8F19F3F19F09F5F5B
:1043C0009093D4021D81112359F00E9486069FEF1D
:1043D00011160CF491E0899F802D11248093DE0248
:1043E0001E81112359F00E9486069FEF11160CF4CE
:1043F00091E0899F802D11248093DF023091DE02AD
:104400003323B1F02091DF02222391F045EB3403F6
:10441000C0011124992309F459C19093DE0245EBA0
:10442000240390011124332309F454C13093DF0293
:1044300046E050E0BE016F5F7F4F8AED92E00E9440
:104440008024892B61F48091DC029091DD02892B1C
:104450009091DE02892B9091DF02892B11F00E944E
:104460005F0686E0FE013196AAEDB2E001900D9262
:104470008A95E1F70E949C059091D202891709F470
:10448000E2CD8093D2029FB7F8944091C207509139
:10449000C3076091C4077091C5079FBF0E94770B47
:1044A000D2CD863059F4F0E0E753FC4FE4910E2F63
:1044B00010E0A9E2EA2EAFE0FA2EBCCE893061F41A
:1044C000E695F0E0EA53FC4FE4910E2F10E0FDE991
:1044D000EF2EFEE0FF2EAECE8F3061F4E695F0E0D9
:1044E000ED53FC4FE4910E2F10E0E2E4EE2EEEE0EF
:1044F000FE2EA0CE853159F4F0E0E054FC4FE4915B
:104500000E2F10E076EFE72E7DE0F72E93CE08E237
:1045100010E04BE7E42E4DE0F42E883109F48ACE0A
:10452000833249F4EEEBF3E00591149168EDE62E49
:104530006EE0F62E7FCE04EF11E034E4E32E3DE092
:10454000F32E843209F476CE00ED17E02FEAE22E46
:1045500025E0F22E853209F06DCE8E2F63E00E94A9
:104560008E23E92FF0E0E554FC4FE4910E2F10E08C
:104570005EEAE52E5CE0F52E5DCEED2CF12CF70128
:10458000E857FE4F8081E82FE295EF70F0E0E0A160
:10459000F0E08F7002C0F595E7958A95E2F7E1703B
:1045A000D701AA57BE4F2C91A22FA295AF70B0E0B1
:1045B00090968C9190E02F7002C0959587952A95E2
:1045C000E2F780FD79C080E08E2BD701A053BD4F6C
:1045D000EC919E2F9370891709F46CC0EE0FEE0FCB
:1045E000E82BEC93EF70F0E0EA58FE4F870103539D
:1045F0001D4F8081D8019C91890F8C9320E08430DD
:104600002CF1F701E553FD4F80818F5F80830E947D
:104610002C05D98A9A8AAB8A8160782F9D8B8C8BE6
:104620004D2D5CEF61E08D890E949F1C0E942C053E
:10463000DE8A9F8A188E8160782F9A8F898F4D2D00
:104640005CEF60E08A8D0E949F1C21E0F801808170
:104650008D3F2CF5F701E553FD4F8081815080831C
:104660000E942C05DF82B886A9868160782F9B87FF
:104670008A874D2D5DEF61E08B850E949F1C0E9413
:104680002C05DC86BD861E868160782F988B8F87EF
:104690004D2D5DEF60E088890E949F1C21E0D801CC
:1046A0008C91082E000C990BB1010E94AE23F801E9
:1046B0008083C22AD394FBCD82E086CF81E08093B1
:1046C000DC025ECE81E08093DD0263CE81E08093E8
:1046D000DE02A5CE81E08093DF02AACE09BD19BD1E
:1046E00009B400FEFDCF8091D8008F7D8093D80063
:1046F0008091E00082608093E0008091E00081FD85
:10470000FCCF0E941C1269CD2B30310508F057CE2A
:104710008FCE2B30310508F003CE3BCE991B79E0CC
:1047200004C0991F961708F0961B881F7A95C9F741
:1047300080950895AA1BBB1B51E107C0AA1FBB1F90
:10474000A617B70710F0A61BB70B881F991F5A951D
:10475000A9F780959095BC01CD01089597FB072E90
:1047600016F4009407D077FD09D00E949A2307FC25
:1047700005D03EF4909581959F4F08957095619571
:104780007F4F0895EE0FFF1F0590F491E02D0994DF
:104790000E942925332312F48A1B9B0B0C94D223ED
:1047A0000E942925B7FF0895821B930B08952F922D
:1047B0003F924F925F926F927F928F929F92AF92B1
:1047C000BF92CF92DF92EF92FF920F931F93CF93FE
:1047D000DF93CDB7DEB7CA1BDB0B0FB6F894DEBF95
:1047E0000FBECDBF09942A88398848885F846E84BB
:1047F0007D848C849B84AA84B984C884DF80EE8005
:10480000FD800C811B81AA81B981CE0FD11D0FB60D
:10481000F894DEBF0FBECDBFED0108958F929F9239
:10482000AF92BF92CF92DF92EF92FF92CF93DF933E
:10483000EC01688179818A819B816115710581050F
:10484000910521F464E279ED8BE597E02DE133EFFA
:1048500041E050E00E94D52449015A019B01AC017E
:10486000A7EAB1E40E94F4246B017C01ACEEB4EF42
:10487000A50194010E940225DC01CB018C0D9D1D38
:10488000AE1DBF1DB7FF03C00197A109B0488883C3
:104890009983AA83BB839F77DF91CF91FF90EF909D
:1048A000DF90CF90BF90AF909F908F9008950E941F
:1048B0000E24089580E091E00E940E240895B0E057
:1048C000A0E08093000190930101A0930201B093B6
:1048D00003010895FB01DC0102C005900D924150D7
:1048E0005040D8F70895FC014150504030F00190FD
:1048F0000616D1F73197CF01089588279927089593
:10490000FB01DC0104C08D910190801921F441501C
:104910005040C8F7881B990B0895F999FECF92BDB6
:1049200081BDF89A992780B50895A6E1B0E044E0EA
:1049300050E00C94C724A8E1B0E042E050E00C94B1
:10494000C724262FF999FECF92BD81BDF89A019711
:1049500000B4021639F01FBA20BD0FB6F894FA9AC7
:10496000F99A0FBE08950396272F0E94A2240E9451
:10497000A124252F0E94A224242F0C94A224019666
:10498000272F0E94A2240C94A124DC01CB01FC015E
:10499000F999FECF06C0F2BDE1BDF89A319600B498
:1049A0000D9241505040B8F70895052E97FB1EF424
:1049B00000940E94EC2457FD07D00E94072507FCB5
:1049C00003D04EF40C94EC245095409530952195ED
:1049D0003F4F4F4F5F4F089590958095709561952B
:1049E0007F4F8F4F9F4F08950E942925A59F900DBF
:1049F000B49F900DA49F800D911D11240895B7FFC1
:104A00000C94F4240E94F424821B930B0895A1E2D9
:104A10001A2EAA1BBB1BFD010DC0AA1FBB1FEE1F38
:104A2000FF1FA217B307E407F50720F0A21BB30B83
:104A3000E40BF50B661F771F881F991F1A9469F7FF
:104A400060957095809590959B01AC01BD01CF015B
:104A50000895A29FB001B39FC001A39F700D811D57
:104A60001124911DB29F700D811D1124911D089577
:104A7000F894FFCF22134A13E2144A13E2147D1371
:104A80009E13E2149B14A8148D16911673168916A2
:104A9000951699169D16F8166D170017CA16CE169C
:104AA0000417D21608171417DE166617E216181721
:104AB000E6161C174417EA1620174B17F016261790
:104AC0002E17D6160C17DA161017F4162A173A17DF
:104AD00054176417C416FC16741775187518AE1899
:104AE000AE1857197119DC18DC187619FE190D1A51
:104AF0000D1A9017AE17B517BA17BF17C417C917F5
:104B0000CE17D317D817DD17E217E517EA17ED17F9
:0C4B1000F017F317F617F917FC17FF1742
:104B1C00010000001A05D90BD20BCB0B01191A1B83
:104B2C001C1D1E1F20212201020101818283E20033
:104B3C00E900EA00B500B600B700CD008301CC0057
:104B4C008A019201940121022302240225022602E9
:104B5C0027022A02B300B4006F0070009F01CB0142
:104B6C009F02A00230C5F2F3F4F5F6F1F0F70090D5
:104B7C0091929394959697C0C160616263646566E7
:104B8C0067070603020100FF0100010000FFFF00A0
:104B9C0000010001FF00C605C70400010202020269
:104BAC000606060909090909090F0F0F0F0F0F1542
:104BBC001515181919191919191919191923242541
:064BCC002525252525002A
:00000001FF
