:100000000C949D050C94D5050C94D5050C94D50540
:100010000C94D5050C94D5050C94D5050C94D505F8
:100020000C94D5050C94D5050C946A340C942634A4
:100030000C9467350C94D5050C94D5050C94D50516
:100040000C94D5050C94D5050C94D5050C94D505C8
:100050000C94D5050C9443350C94D5050C94D5051A
:100060000C94D5050C94D5050C94D5050C94D505A8
:100070000C94D5050C94D5050C94D5050C94D50598
:100080000C94D5050C94D5050C94D5050C94D50588
:100090000C94D5050C94D505240155FFFF3B015563
:1000A000FFFFFF000000005F0155FFFFFF000000A1
:1000B0000005010902A10185020901A10005091934
:1000C0000129051500250195057501810295017528
:1000D0000381010501093009311581257F950275DC
:1000E00008810609381581257F9501750881060567
:1000F0000C0A38021581257F950175088106C0C05C
:1001000005010980A101850319012AB700150126FF
:10011000B700950175108100C0050C0901A101858A
:100120000419012AA002150126A00295017510816B
:1001300000C00660FF0961A1010962150026FF00E9
:100140009520750881020963150026FF009520752A
:10015000089102C005010906A101050719E029E778
:100160001500250195087501810295017508810129
:100170000507190029FF150026FF0095067508815F
:10018000000508190129059505750191029501756C
:10019000039101C0A700980000001E0F0500047F16
:1001A0003F1F643214643214783C1E1E140A05FD8D
:1001B000377A585A000004E6D6B4460200210116E8
:1001C000000000742FE5A3E006F301DC5D003D882C
:1001D00089C65436C3174FE4E7EBCF24098A3CCBDA
:1001E000E6D2B1BB80A11B276D0E77E43C87AFF34D
:1001F00055913D992E164E8AAE1FE2527EFA226E1E
:10020000FAAC422C748C421A0E1473EAF0B499289A
:1002100061371E3D040635E7EEA1CBBEB1CA95C9D4
:1002200075207BC93732B8F476FC173EE3F63DA261
:10023000B09E4B4AFA6F6894C6D80B79DDD7588CBC
:100240008BE29EADCADEA508D94A77F6A05B7DBADF
:10025000C53C585E756EA549113781E6586DF34768
:10026000F990A213EDB1C44224B61F1B8BD4FEDA61
:10027000774607B363AC7FD92B71E1EC2AD13AC939
:10028000F423FA6959B770466F2ABB95D889DAFA10
:10029000198023B4EB508190F37BFEA411E55A2E14
:1002A0000D82A881B5C8BE32CAD69E0E1126A820DE
:1002B000F2AC899BAFA0FA9B0EC28698585A2BCB02
:1002C000C31D4466F7907D138D4EAA8D835D58053E
:1002D000E1DCF44B28CA81D686D218CCBE80A1B806
:1002E000EFD84A41C77D54793D9484E1EE2AC62770
:1002F000B9149CD403C6452B8326F9992635184397
:10030000A79917D7EA309912E1FC173C20E7D239B8
:10031000476A686E7C072473186244422A198A92DD
:1003200025AB7363E03F9CCDB2BD9517E6DB3ED5B0
:100330004CAB4B605312612F3244F4AD33819F8D2F
:10034000FAAFFF251E57DB4353D8C429A64F9FAAF7
:100350004D21FB59D0E4871BDFE38F89FFF1208F0C
:100360001D30B01D3A6A4DC731A1FD5397A128DE5B
:100370002E6EBF5835954963AB296B3754C64F7EF7
:10038000E4E2329A0AC6ADEFF7143589446EEBFB0E
:10039000AEC809FED4FB446CDA63B430737582577F
:1003A00039FB55FB2BBB01C1C16400F49A904E147C
:1003B0004562FE0001F803F40D0000DA27E87CB185
:1003C000C467FB020000000004595A00010101014A
:1003D0000101010101020202020202020202030300
:1003E00003030303030304040404040404050505D0
:1003F0000505060606060607070707070808080892
:10040000090909090A0A0A0B0B0B0C0C0C0D0D0D3E
:100410000E0E0E0F0F0F10101111111212131314D4
:1004200014151516161717181819191A1A1B1B1C4C
:100430001D1D1E1E1F2020212222232424252626A6
:10044000272829292A2B2C2D2D2E2F3031323233DB
:100450003435363738393A3B3C3D3E3F40414243E4
:100460004445464748494A4C4D4E4F5051535455C8
:100470005658595A5B5D5E5F616264656668696B78
:100480006C6D6F7072737577787A7B7D7E808283F6
:100490008587888A8C8E8F91939596989A9C9EA03A
:1004A000A2A3A5A7A9ABADAFB1B3B5B7BABCBEC047
:1004B000C2C4C6C9CBCDCFD1D4D6D8DBDDDFE2E410
:1004C000E7E9EBEEF0F3F5F8FAFDFFFFAA7F554000
:1004D0002223252628292A2C2D2F30323335363851
:1004E0003A3B3D3E4042434547494A4C4E505153AA
:1004F0005557595A5C5E6062646668696B6D6F71CE
:10050000737577797B7D7F81838587898A8C8E90CF
:10051000929496989A9C9E9FA1A3A5A7A8AAACAED8
:10052000AFB1B3B4B6B8B9BBBCBEBFC1C2C3C5C618
:10053000C7C9CACBCCCDCED0D1D2D2D3D4D5D6D7C1
:10054000D7D8D9D9DADADBDBDBDCDCDCDCDCDDDDFF
:10055000DDDDDCDCDCDCDCDBDBDBDADAD9D9D8D7EF
:10056000D7D6D5D4D3D2D2D1D0CECDCCCBCAC9C791
:10057000C6C5C3C2C1BFBEBCBBB9B8B6B4B3B1AFC8
:10058000AEACAAA8A7A5A3A19F9E9C9A9896949268
:10059000908E8C8A89878583817F7D7B797775733F
:1005A000716F6D6B6968666462605E5C5A5957551D
:1005B0005351504E4C4A4947454342403E3D3B3AD9
:1005C0003836353332302F2D2C2A29282625232260
:1005D000AA00A9002D012E01CA5CC95CC45CC35CE1
:1005E0000000A80000000000C25CD55C29000000EB
:1005F0003A003B003C003D003E003F00400041000F
:100600004200430044004500460047004800000007
:100610002701000000000000000000000000C65C90
:10062000C55C01000000680069006A006B006C0096
:100630006D006E006F0070004500720073000100D5
:100640000100010000000000000000005300540001
:1006500055005600C85CC75C35001E001F00200016
:1006600021002200230024002500260027002D0061
:100670002E002A0049004A004B0053005400550048
:1006800056005F00600061005700CD5CCE5C2B001F
:1006900014001A000800150017001C0018000C00B8
:1006A000120013002F00300031004C004D004E00AE
:1006B0005F006000610057005C005D005E000000AC
:1006C000CF5CD05C390004001600070009000A0066
:1006D0000B000D000E000F00330034000000280056
:1006E0000000000000005C005D005E00000059009A
:1006F0005A005B005800D15CD25CE1001D001B0079
:1007000006001900050011001000360037003800FF
:100710000000E500000000005200000059005A00EF
:100720005B0058006200000063000000D35CD45CF2
:10073000E000E300E200000000002C4100000000A7
:100740000000E200E70000006500E40050005100F6
:100750004F0062000000630000000000005C000029
:100760000000010001000100000001000100010083
:100770000100010001000100010001000100010071
:1007800001000100010001000000A75D0000000061
:100790000000000000000000010001000100000056
:1007A0000100010001000100010001000100010041
:1007B0000100010001000100010001000100000032
:1007C0000000000000000100010001000100010024
:1007D0000100010001000100010001000100010011
:1007E0000100010001000100010001000100010001
:1007F00001000100010001000100010001000100F1
:1008000001000100010001000100010001000100E0
:1008100001000100010001000100010001000100D0
:1008200001000100010001000100010001000100C0
:1008300001000100010001000000010001000100B1
:1008400001000100010001000100010001000100A0
:100850000100010001000000010000000000000094
:100860000100010001000000010001000100010081
:100870000100010001000100010001000100010070
:100880000100010001000100010000000100000062
:100890000000010000000100010001000100010052
:1008A0000000010000000100010001000100010042
:1008B0000000000001000000000000000100010035
:1008C0000000010001000100010001000100000022
:1008D0000100000001000100D30A5411871100003B
:1008E00002000200CF0A541187110000030001002A
:1008F000D40A54118711000004000200B90A5411EF
:1009000087115B0905000100D50A54118711000009
:1009100006000200BB0A5411871100000700020004
:10092000D10A54118711000008000100D60A5411A1
:100930008711000009000200BD0A54118711360911
:100940000A000200BF0A5411871136090B00020089
:10095000C10A5411871136090C000200C30A541150
:10096000871136090D000200C50A54118711360996
:100970000E000200C70A5411871136090F00020049
:10098000C90A54118711360910000200CB0A54110C
:100990008711360911000200CD0A5411871136095A
:1009A00012000200D70A5411871100001300020040
:1009B000D90A54118711000014000100DB0A5411F8
:1009C00087110000150000000000BC081D1E00007B
:1009D00009025B00030100A0FA0904000001030101
:1009E00001000921110100012240000705810308CF
:1009F00000010904010002030000000921110100A7
:100A000001222200070582032000010705030320BD
:100A10000001090402000103000000092111010086
:100A20000122810007058403200001120100020059
:100A3000000008575074760001010203011C037680
:100A400000690061006C003A006600360034006303
:100A5000003200620033006300000010035600699A
:100A6000006B0074006F00720079000000160350E4
:100A7000004C0049005000200057006F0072006BCE
:100A800000730000000403090400000000000000DF
:100A90000000000000000000000000000000000056
:100AA000000000000000000000000000007E0F00B9
:100AB000D4FFFFFFC7000000780000000000000026
:100AC000002A2B28000000000000000000000000A9
:100AD0000000000029000000002C1E3420212224E8
:100AE000342627252E362D3738271E1F2021222376
:100AF0002425263333362E37381F04050607080908
:100B00000A0B0C0D0E0F10111213141516171819CD
:100B10001A1B1C1D2F3130232D350405060708092B
:100B20000A0B0C0D0E0F10111213141516171819AD
:100B30001A1B1C1D2F3130354C0011241FBECFEF66
:100B4000D0E1DEBFCDBF04B603FE18C08091000C1B
:100B50009091010CA091020CB091030C8730904B46
:100B6000A740B04B59F41092000C1092010C109257
:100B7000020C1092030CE0E0F8E709952CE0A6EDDA
:100B8000B1E001C01D92A030B207E1F711E0A0E092
:100B9000B1E0E2E1F5E802C005900D92A63DB10793
:100BA000D9F70E948E350C945C420C940000E8ED5D
:100BB000F0E080818C7F80831092E2001092DA0056
:100BC0001092E100A0EEB0E08C9181608C93808166
:100BD0008F77808319BCA7EDB0E08C918E7F8C93CA
:100BE00080818F7E80831092E70B08952091E4002E
:100BF0003091E50095E6A9012091EC00822F8170EB
:100C000020FF06C08091E80080FF06C080E00895C4
:100C10002091E80022FD1AC08091FD0B882389F005
:100C2000853089F08091EB0085FD0FC02091E400B4
:100C30003091E50042175307F9F29150E1F684E054
:100C4000089582E0089583E0089581E00895EF9289
:100C5000FF920F931F93CF937C018B010E94F605A7
:100C6000C82F811117C08091E80085FD0BC08091CD
:100C7000E8008E778093E8000E94F605882399F3B8
:100C8000C82F08C0F70181917F018093F1000150C6
:100C9000110949F78C2FCF911F910F91FF90EF9081
:100CA0000895CF93FC018091FD0B843001F5C09134
:100CB000E900CF702091EC00922F917020FD90E818
:100CC000C92B82E08093E9008091E80080FF0CC08E
:100CD00050E040E060E270E0CF010E942706809182
:100CE000E8008E778093E800CF70C093E900CF9141
:100CF00008958091F50B87FF13C08091E80082FF73
:100D000006C08091E8008B778093E80004C0809152
:100D1000FD0B8111F2CF08958091FD0B8823D9F34B
:100D20008091E80080FFF8CF8091E8008E77ECCFCB
:100D3000982F9093E900242F762F50E0891731F0F7
:100D40007091EC002091ED005091F00021FD07C062
:100D50009F5F973071F78093E90081E008953091AB
:100D6000EB003E7F3093EB003091ED003D7F309300
:100D7000ED003091EB0031603093EB007093EC00AC
:100D80002093ED005093F0002091EE0027FDE0CF7E
:100D900080E00895B0E0A0E0E0EDF6E00C94DD40E6
:100DA000C8EDD0E088818F7E8883E7EDF0E0808118
:100DB0008160808381E08093E70B88818C7F8883CA
:100DC00002EE10E0D8011C921092DA0081EEC82EDB
:100DD000D12CD6011C9288818F7788838881806886
:100DE000888388818F7D888380818068808319BC17
:100DF0001092FD0B1092F40B1092F30B1092F20B69
:100E000090EEE92EF12CF70180818B7F8083888121
:100E10008160888342E060E080E00E949806D6010D
:100E20008C918E7F8C93F80180818160808380819A
:100E300088608083D7018C918E7F8C9388818061BC
:100E40008883CDB7DEB7E8E00C94F940FC018091CF
:100E5000FB0B9091FC0B86179707A0F061157105AD
:100E600029F49091E8009E779093E80090E0611556
:100E7000710551F4911108C08091E80082FF33C0E0
:100E800080E00895BC01F2CF8091FD0B8823B9F179
:100E90008530B9F18091E80083FD2FC08091E80092
:100EA00082FDEACF8091E80080FFE1CF2091F2003F
:100EB0003091F3006115710519F02830310558F0B3
:100EC00091E02830310509F090E02091E8002E777C
:100ED0002093E800CCCF81918093F100615071099B
:100EE0002F5F3F4FE7CF8091FD0B882341F0853086
:100EF00041F08091E80083FFBFCF81E0089582E058
:100F0000089583E0089508958091E90B08959C0168
:100F10004FB7F8948091E00B9091E10BA091E20B18
:100F2000B091E30B4FBF821B930B08952FB7F8943A
:100F30006091E00B7091E10B8091E20B9091E30BDB
:100F40002FBF08952FB7F8948091E00B9091E10B9B
:100F5000A091E20BB091E30B2FBF08959C01FC011F
:100F600032969FEF80E04191461751F09F3F19F470
:100F7000411101C0982F8F5F8630A9F79F3F09F478
:100F80000895290F311D97FD3A95F901628308955F
:100F90002091DD0B3091DE0B2817390771F090930B
:100FA000DE0B8093DD0BE091DB0BF091DC0B3097D7
:100FB00021F00084F185E02D099508952091D90B49
:100FC0003091DA0B2817390771F09093DA0B809380
:100FD000D90BE091DB0BF091DC0B309721F0068010
:100FE000F781E02D09950895E091DB0BF091DC0B82
:100FF000309729F00190F081E02D0995089580E067
:101000000895CF93DF93EC014091C90B5091CA0B27
:101010006091CB0B7091CC0B2FB7F8948091E00BC3
:101020009091E10BA091E20BB091E30B2FBF841BD9
:10103000950BA60BB70B843F9140A105B10518F5A0
:101040008091C90B9091CA0BA091CB0BB091CC0BA6
:101050008093C50B9093C60BA093C70BB093C80B9E
:1010600084EF91E0A0E0B0E08093C10B9093C20BBD
:10107000A093C30BB093C40BD093D10BC093D00BF0
:10108000DF91CF9108950E9496076093C50B7093EE
:10109000C60B8093C70B9093C80B82E390E0A0E04F
:1010A000B0E0E2CFFC018481862351F49281992340
:1010B000B9F06923808583FF05C081E061110FC00D
:1010C00080E00895892F8F7092959F70982B862FBE
:1010D0008F7062956F70682B81E09613F1CF089541
:1010E00081E0FDCF452B39F0682381E06F3F09F0A7
:1010F00080E08170089581E0FCCFDC016091BD0B40
:101100008091BE0B962F891301C00895292F30E0DE
:10111000F901EE0FFF1FEB54F44F408151814A1744
:101120005B07A1F487E08A9FA0018B9F500D1124DB
:101130004B5B544F81E0FA0184839613E6CF2F5F17
:101140003F4F237033272093BD0B08952F5F3F4FF0
:10115000922F9370D8CF1092E20A1092E10AE5E440
:10116000FBE08581811102C01482168237968BE0E4
:10117000E53BF807B1F70895B0E0A0E0E2ECF8E055
:101180000C94DB408FEF9FEF4430510508F469C0A9
:101190004091960A41FB882780F990E0880F991FBB
:1011A00042FB002700F910E0000F111F000F111F74
:1011B000802B912B40FBCC24C0F8D12C8C299D296D
:1011C00043FB222720F9C22FE0E0DE2F53E0CC0FB3
:1011D000DD1F5A95E1F78C2B9D2B44FBAA27A0F924
:1011E000B0E0E4E0AA0FBB1FEA95E1F78A2B9B2B46
:1011F00045FBEE27E0F9F0E0A5E0EE0FFF1FAA9512
:10120000E1F78E2B9F2B46FB222720F930E0B6E03A
:10121000220F331FBA95E1F7822B932B47FB22272E
:1012200020F930E03695322F222737952795822BEB
:10123000932B2091970A322F3170F32EE82EF92A42
:1012400026952170B22EBB0CA82EBF28C501BB0C61
:10125000AA0BBB0BFB0180839183A283B38390E035
:1012600080E0CDB7DEB7EAE00C94F740E9EBFAE0B6
:10127000848195812AE030E0B9010E948F4060931B
:1012800026018681809325018285809324018485AF
:101290008093230186859785B9010E948F406093D2
:1012A0002201808980932101828980932001848991
:1012B00080931F0108958091B90A9091BA0A909382
:1012C0002801809327010895EDEFF7E090E080E09A
:1012D0006FE773E346EA53E324EF32E377836683F1
:1012E00051874087338722879587848701963E966A
:1012F0008031910599F7089581152CE5920741F405
:101300002091900A3091910A232B11F490E080E013
:101310000895FA01811101C0FB010995089508950E
:101320008091DE07982F9E7F61F4817082608093A8
:10133000DE078091E107873918F086E98093E1079D
:1013400008958635B0F381708465F1CFAF92BF9276
:10135000DF92EF92FF920F931F93CF93DF93182F9B
:10136000062FE901473908F046E9E42FF0E0E5539C
:10137000FC4F011110C0E4915E2F4E2F4983E8838A
:101380005A83DF91CF911F910F91FF90EF90DF90E3
:10139000BF90AF900895202F30E04491D42EE42EDA
:1013A000F12C56E0159FC0011124EFEFF0E0BF01D2
:1013B0000E948F40812F90E0880F991F55E5569F1E
:1013C000D001579FB00D11248A1B9B0B982F990FAA
:1013D000890F5F01A21AB30AAE9CD001AF9CB00D79
:1013E000BE9CB00D11245B2F089F80011124012F9A
:1013F00011275F01A01AB10AAE9C8001AF9C100DAD
:10140000BE9C100D11245F01A81AB108A29EC00154
:10141000A39E900DB29E900D1124892F9927E81B51
:10142000F90BEE9DC001EF9D900DFE9D900D1124D6
:10143000E92F62307105A1F050F46115710509F4CE
:101440009DCF6130710581F0EB2F512F97CF643024
:10145000710569F080F06630710509F48FCFF4CF23
:10146000E42F4B2F592F8ACFE42F412F87CFEB2F1B
:10147000542F492F83CF4B2F5D2DE12F7FCF0E941B
:10148000A2079C019091040380910503982B21F001
:10149000309301032093000390910603809107038A
:1014A000982B21F03093FF022093FE02E091DB0B9A
:1014B000F091DC0B309749F082E0809302030480C6
:1014C000F581E02D82E093E0099508959091040361
:1014D000803F59F48091050387FF0DC010920503EA
:1014E00091110BC01092FC0208C0813F81F48091E1
:1014F000050318169CF3992381F0809106039091BF
:101500000703892B09F064C01092FB020895823F03
:1015100049F497FFF0CF10920403809105038111E5
:10152000ECCFE0CF833F19F41916ACF3E4CF209150
:101530000603893F29F41216F4F610920603DBCF56
:101540008A3F19F427FFD7CFF8CF209107038B3FAD
:1015500029F427FFD0CF10920703CDCF8C3F19F489
:101560001216CCF3C8CF843F31F4809103038E7FF1
:1015700080930303C0CF853F21F4809103038D7FC7
:10158000F7CF863F21F4809103038B7FF1CF873F14
:1015900021F480910303877FEBCF883F21F4809172
:1015A00003038F7EE5CF8D3F31F48091FD028E7F66
:1015B0008093FD02A0CF8E3F21F48091FD028D7FAC
:1015C000F7CF8F3F09F097CF8091FD028B7FF0CF4F
:1015D00008958091FD0280FF0CC06091200170E0B1
:1015E00075956795759567956115710549F1862F14
:1015F000089581FF06C06091200170E075956795A0
:10160000F3CF6091200182FD0BC09091FB029923E2
:10161000A1F060911F0180912001961738F0682F8A
:1016200070E06038710500F38FE70895899FC0016D
:10163000112470E00E94A340F4CF61E070E0D7CFA6
:1016400081E008958091FD026091C10A7091C20A03
:1016500080FF16C020912401269FC001279F900D76
:101660001124BC017695679576956795603871056C
:1016700008F043C06115710509F441C0862F089533
:1016800081FF0BC020912401269FC001279F900D50
:101690001124BC0176956795E9CF82FF09C080913E
:1016A00024019B01829FB001839F700D1124DECF26
:1016B0002091FC022223D1F29091230180912401F8
:1016C000482F50E0291748F0CB01849FB001859F37
:1016D000700D949F700D1124C9CF289F9001112483
:1016E000269FA001279F500D369F500D1124692F72
:1016F00070E0CA010E948F40B9CF8FE7089581E062
:101700000895803F31F40E94220B81958093050358
:101710000895813F19F40E94220BF8CF823F31F4E3
:101720000E94220B8195809304030895833F19F44E
:101730000E94220BF8CF893F29F40E94E90A809386
:10174000060308958A3F21F40E94E90A8195F7CFA4
:101750008B3F31F40E94E90A819580930703089535
:101760008C3F19F40E94E90AF8CF843F31F480914C
:1017700003038160809303030895853F21F48091E2
:1017800003038260F7CF863F21F4809103038460D6
:10179000F1CF873F21F4809103038860EBCF883F2E
:1017A00021F4809103038061E5CF8D3F31F4809176
:1017B000FD0281608093FD0208958E3F21F48091A7
:1017C000FD028260F7CF8F3FB9F78091FD02846000
:1017D000F1CF80E00895F894E82FE295EF70F0E003
:1017E00031A1282F2F7081E090E001C0880F2A9549
:1017F000EAF7982F9095932391A392A1892B82A326
:10180000789408959091960A92FF06C0282F287127
:101810002830F9F4877F846093FF06C0282F287151
:101820002831F1F4877E84612091970A20FF06C059
:10183000382F38713830D9F4877F816021FF06C096
:10184000282F28712831D1F4877E816194FD877E0D
:101850000895282F24712430F9F68B7F8860DCCF1F
:10186000282F2471243101F78B7E8861DDCF382F3A
:101870003171313019F78E7F8860E0CF282F2171C8
:10188000213121F78E7E8861E1CFCF93DF93EC0188
:1018900082389105B1F108F040C08133910509F417
:1018A0009DC048F58932910509F48DC08A9709F4E5
:1018B0009CC0C11521E5D20708F0C3C0C11530E5B1
:1018C000D30708F01EC1C83ED10508F0A3C0C13E31
:1018D000D10588F5C83AD10508F08EC0C53AD105C2
:1018E00008F007C1C130D10531F1209721F1C43092
:1018F000D10508F545C08533910509F45FC0C99746
:10190000C1F68091960A837009F044C18091970ACC
:1019100083FF11C0C9E2D0E00EC0833E910599F16A
:1019200070F4803E910501F1823E910511F680919F
:10193000960A82FD21C0CE01DF91CF910895863EA7
:10194000910561F1873E910571F1843E910509F0A1
:10195000B0CF8091970A81FFEECF8091960AC7EEB3
:10196000D0E084FD0DC0E7CF8091960A80FD33C0A2
:101970009091970A90FFDFCFC3EED0E084FFDBCFDA
:10198000D0E0C0E0D8CF8091960A82FD00C190914E
:10199000970A90FDFFC084FFCECFF2CF8091960AC8
:1019A00083FDDDCFC8CF8091960A83FDF6C090916C
:1019B000970A91FFF0CFC4EED0E0BDCF8091960A98
:1019C00085FFB9CFA7CF8091960A85FDE9C08091A8
:1019D000970A83FFB0CFC9E3D0E0ADCF8091960ADC
:1019E00086FFA9CFCAE2D0E0A6CF8091960A86FFF3
:1019F000A2CFC1E3D0E09FCFCF3BD10508F6C85AB4
:101A0000D0E0CC0FDD1FC95CDE4F0990D881C02D1E
:101A1000D46491CFC11540E2D40758F4C11581E0D8
:101A2000D80708F088CFC03FD10508F4A9CFD0650A
:101A300082CFC11520E4D20708F4A2CFDF70D06AAC
:101A40007ACFC11535E5D30718F5C11544E5D4079C
:101A500008F085C0C11583E5D80708F06CC0C11532
:101A600022E5D20708F462C0CE018370992721E0F5
:101A700030E002C0220F331F8A95E2F7C695C69563
:101A800080E2C89FE0011124C22BD32BDC6853CF26
:101A9000C11539E5D307A8F4C11548E5D40708F006
:101AA00063C0C11586E5D80708F06ACF8C2F0E9465
:101AB000020CC82FD0E0DC2FCC27CC27DF71D062FE
:101AC0003ACFC1152AE5D20708F453C0CE0190568B
:101AD0008115904208F054CF8D2F8F710E94020C17
:101AE00090E0982F882788279F719C012C2BE90173
:101AF000E6CFC55AD0E0CC5CDE4FC881D0E0D064E0
:101B00001ACF2C2F26952695237040E2249F900112
:101B100011248C2F8370C1E0D0E002C0CC0FDD1FF8
:101B20008A95E2F7C22BD32BDD6805CFDC2FCC27BB
:101B3000C16FD06A00CFCE018370992721E030E0D9
:101B400002C0220F331F8A95E2F7C695C69540E280
:101B5000C49FE0011124C22BD32BDA68ECCEDC2F1A
:101B6000CC27C46FD06AE7CEDC2FCC27C06FD06AF9
:101B7000E2CE8C2F8F700E94020C34E0D695C79570
:101B80003A95E1F7CF709C2FEC01D069D4CEC2EE2C
:101B9000D0E0D1CEC0EED0E0CECEC6EED0E0CBCEFF
:101BA000C5E3D0E0C8CE80918802882331F010923E
:101BB000880210928702109286020895CF93C82F50
:101BC0008091970A82FF0CC0809188028C1741F0A7
:101BD0000E94A2079093870280938602C093880296
:101BE000CF91089580959091FF0B98239093FF0BD0
:101BF000089580959091980A98239093980A089553
:101C00009091980A892B8093980A089510927D02EA
:101C100010927C0210927B0208958091BB0A9091F1
:101C2000BC0A892B89F00E94A2072091860230917C
:101C30008702AC01421B530B81E02091BB0A30911B
:101C4000BC0A4217530708F480E081700895EAED5A
:101C5000F1E09191891303C0DF0111971C9291E08B
:101C6000E03EF907B1F7089520917A029091390288
:101C7000291302C080E0089530E0F90153E0EE0F2F
:101C8000FF1F5A95E1F7E65CFD4F5181561306C0E0
:101C90005081581303C05281541304C02F5F3F4F2B
:101CA0002770E6CF81E0089580917A029091390201
:101CB000981301C008958F5F8770FACFA82FA7707F
:101CC00023E0969587952A95E1F7FC01EE0FFF1F1B
:101CD000E80FF91FE60FF71F50E040E080E0219188
:101CE00030E00A2E02C0369527950A94E2F721705B
:101CF0003327042E01C0220F0A94EAF7822B4F5F8C
:101D00005F4F4330510559F70895903FC9F0973020
:101D100080F48B31A8F4282F30E069EE71E0A9013E
:101D2000EBE19E9F400D511D1124CA010E945E0EE1
:101D300008959C5F923020F466EE71E090E0F6CF5B
:101D400080E00895262F277091E001C0990F2A9511
:101D5000EAF723E0769567952A95E1F7FB01EE0F08
:101D6000FF1FE60FF71FE40FF51F50E040E0682F5C
:101D700070E08191DF0111979B01042E02C036951E
:101D800027950A94E2F721702195282729232827EF
:101D90002C934F5F5F4F4330510559F70895282F1B
:101DA000862F903F79F0973070F42B3158F4622FE2
:101DB00070E02BE1929F600D711D112449EE51E0FE
:101DC0000E94A20E08959C5F9230E0F7622F70E0AF
:101DD00046EE51E0F5CF92959F70963091F058F411
:101DE000925F9F70923058F4803F19F030F4883E33
:101DF00030F481E008959A5FF4CF843FD1F380E01E
:101E00000895883EB0F3813FD1F7F3CF9C013A9516
:101E100021153F4150F5FC01EE27F170BC0166270A
:101E20007270AC01442754709C012227387094FFD3
:101E30000EC080E1EF2B09F480E0672B09F080628F
:101E4000452B09F08064232B89F08068089581E098
:101E5000EF2B09F480E0672B09F08260452B09F035
:101E60008460232B19F08860089580E008958093A2
:101E7000E40B7093E60B6093E50B8091FD0B8430CF
:101E8000F9F48093E9008FEF9091E800815095FD7F
:101E900006C095ED9A95F1F700008111F5CF80917C
:101EA000E80085FF0DC050E040E063E070E084EEA4
:101EB0009BE00E9427068091E8008E778093E800DF
:101EC0000895BC0184E00E94370F0895BC0183E0AF
:101ED0000E94370F08959C0184E08093E9009FEFF2
:101EE0008091E800915085FD06C085ED8A95F1F757
:101EF00000009111F5CF8091E80085FF0CC050E003
:101F000040E066E070E0C9010E9427068091E80089
:101F10008E778093E8000895CF93DF93EC0181E002
:101F20008093E9008FEF9091E800815095FD06C005
:101F300095ED9A95F1F700008111F5CF8091E800B9
:101F400085FF14C050E040E068E070E0CE010E94E0
:101F500027068091E8008E778093E80088E0FE01F4
:101F6000AAEEBBE001900D928A95E1F7DF91CF9147
:101F7000089581E08093E00080E28093D800109281
:101F8000C9008FE19EE40197F1F700C0000087E0EF
:101F900090EBDC018093000C9093010CA093020C59
:101FA000B093030C88E19CE00FB6F894A895809359
:101FB00060000FBE90936000FFCF019708F4089572
:101FC000EFE9FFE03197F1F700C00000F6CF0F9383
:101FD0001F93CF93DF9309EB1AE0CBE2D3E0CE015E
:101FE0000E94A941F80181938F012196CF34F3E03B
:101FF000DF07A9F7CEEDD8E0FE0185919491009717
:1020000011F0FC0109952C96F9E0CA3DDF07A1F714
:10201000DF91CF911F910F910895FF920F931F931E
:10202000CF93DF93F42E823070F5623060F528E0B4
:10203000829F8001112434E0639FB0011124060FB8
:10204000171F055E1C4F82E090E0442311F090E0E2
:1020500080E0800F911F0E94A941C82FD0E0DC2FA3
:10206000CC2783E090E0FF2011F081E090E0800F2A
:10207000911F0E94A9419E01282BC901CDB7DEB74F
:10208000E5E00C94FC4090E080E0F8CF0F931F93C4
:10209000CF93DF93823050F5673040F54B3130F508
:1020A000C42FD0E0CC0FDD1F26E3629FC00DD11DF1
:1020B00011242AE731E0829FA001839F500D112453
:1020C000C40FD51FCE0187960E94A941082F10E0AA
:1020D000102F0027CE0188960E94A9419801282B35
:1020E000C901DF91CF911F910F91089590E080E099
:1020F000F8CF2091940A3091950A232BC9F4703FB0
:1021000039F4603FA9F48091920A9091930A08955E
:10211000823070F4773038F46B3150F4462F672FEB
:102120000E94461008957D3F31F441E0623040F056
:1021300090E080E008957C3FD9F76230C8F740E036
:102140000E940D100895CF92DF92FF920F931F937C
:10215000CF93DF936C010091FE0B80918902082BD5
:10216000C7E0D0E010E0FC2EC8010C2E02C095950F
:1021700087950A94E2F780FD0CC02197A0F7F12C17
:102180008F2DDF91CF911F910F91FF90DF90CF9016
:102190000895B6018C2F0E9479100E94450C01977A
:1021A00061F3EECFCF93DF93EC010E94A310BE0149
:1021B0000E9479100E94450CDF91CF910895CF9332
:1021C000DF93EC014B815C81698188810E947208F8
:1021D000811110C08E819F81009739F00E94450CBB
:1021E0000E94EB0EDF91CF910895888199810E9422
:1021F000D210F6CF80E0F6CFA5E0B0E0E2E0F1E16A
:102200000C94E24049835A8389819A81662399F02C
:10221000222389F00E94A310182F682F89819A81A8
:102220000E94CF0E69817A81812F0E9479102596B4
:10223000E3E00C94FE400E94850E182FF3CFFC01C2
:10224000262F86819781009739F4408151816281E0
:10225000738184810E94FC10089583E290E00E94C3
:10226000A9418F3789F484E290E00E94A941833F1D
:1022700059F485E290E00E94A94191E08E3A09F07C
:1022800090E0892F8170089580E0FCCFCF9384E0A7
:1022900090E00E94A941C82F82E290E00E94A941EB
:1022A000982F8C2FCF910895DB01FC013296259158
:1022B00034914217530758F0FC013496659174919C
:1022C000A901CD010E94894190E080E008958FEF3F
:1022D0009FEF08950F931F93CF93DF9309EB1AE0BD
:1022E000CBE2D3E0CE010E94A941F80161918F01B8
:1022F000681719F0CE010E94BD412196CF34F3E05A
:10230000DF0781F7DF91CF911F910F910895DA01D7
:102310009C012E5F3F4FF90145915491F9012591A0
:102320003491A217B30758F0FC013496859194912B
:102330000E9489410E946A1190E080E008958FEF29
:102340009FEF0895CF93DF93CFE2D5E060E0CE0119
:102350000E94BD412196C11588E0D807B9F7DF91E9
:10236000CF9108950F931F93CF93DF93142F022FD4
:10237000823020F5623010F598E0899FE001112449
:1023800084E0689FB0011124C60FD71FC55EDC4FE3
:1023900082E090E0442311F090E080E0632F8C0F06
:1023A0009D1F0E94BD4183E090E0112311F081E068
:1023B00090E0602F8C0F9D1F0E94BD41DF91CF9157
:1023C0001F910F9108951F93CF93DF93122F8230A7
:1023D00000F56730F0F44B31E0F4C42FD0E0CC0FBF
:1023E000DD1F96E3699FC00DD11D11246AE771E0DE
:1023F000869FA001879F500D1124C40FD51F632F06
:10240000CE0187960E94BD41612FCE0188960E9421
:10241000BD41DF91CF911F910895CF93C82F6FEFEA
:1024200081116FE783E290E00E94BD416FEFC1111F
:1024300063EF84E290E00E94BD416FEFC1116EEA4C
:1024400085E290E00E94BD41CF910895CF93C92FBE
:10245000682F84E090E00E94BD416C2F82E290E002
:102460000E94BD41CF9108959B01803170F49AE0A4
:10247000899FB0011124615B7C4F4AE050E0C901A3
:102480000E94994190E080E008958FEF9FEF0895BA
:10249000AAE0B0E0EEE4F2E10C94E3409C01375591
:1024A0002F3F310509F068F4BE016F5F7F4F0E9436
:1024B0003412892B31F489859A852A96E2E00C94AE
:1024C000FF408091D10A9091D20AF7CFAAE0B0E004
:1024D000ECE6F2E10C94D94000EA19E08EE7C82E50
:1024E00089E0D82E9FE8E92E94E0F92E27E0922E7D
:1024F0003DE7A32E39E0B32E88248394D6010D93B3
:102500001D936D014AE050E0B701CE0101960E9493
:102510009941F8013896DF01892D1D928A95E9F7D6
:1025200089819A81D80111969C938E938F811296FE
:102530008C9312978D8113968C931397888514969C
:102540008C931497898515968C9315978B819C8114
:1025500017969C938E93169718961C9218978A85B7
:1025600087FF3CC01E961C921E921D9780FF03C0E1
:10257000D80118968C9281FF04C0F8019085926072
:10258000908782FF07C0D80118969C911897946095
:1025900018969C9383FF04C0F801908598609087FB
:1025A00084FF07C0D80118969C91189790611896DF
:1025B0009C9385FF04C0F801808580628087015F5D
:1025C0001F4FFAE0EF0EF11C8FE2E81685E0F806E7
:1025D00009F094CF2A96ECE00C94F540F801B68609
:1025E000A586C4CFAAE0B0E0E8EFF2E10C94DD40AC
:1025F000EDEDF8E080EADF011D928A95E9F7E5E468
:10260000FBE080E7DF011D928A95E9F78DEDC82E8A
:1026100088E0D82E7F010FEE13E0F701D182C0824F
:102620004AE050E0B801CE0101960E94994188E04D
:10263000FE013196D60101900D928A95E1F78985C8
:102640009A85D70113969C938E931297BAE0CB0E7E
:10265000D11CE7E0EE0EF11C065F1F4F0F38F4E0CF
:102660001F07D9F62A96E8E00C94F940A5E0B0E0FF
:10267000ECE3F3E10C94D6408091DE0780FD0AC0C4
:10268000E6E1F3E0118210821282339624E0E13E0B
:10269000F207C1F780901103909012038114910406
:1026A00009F457C080FF55C0D12CC12C6624639417
:1026B000712C53E0552E8091100393010C2C01C016
:1026C000220F0A94EAF7822309F43BC0F601EE0FC9
:1026D000FF1FE80DF91DE590F490E114F104C9F134
:1026E00045E050E0B701CE0101960E9466410981A4
:1026F0000F3F39F18A81800F9927991F8A399105F7
:1027000014F089E990E05C01AA0CBB1C8A0D9B1DAA
:10271000FC01EA5EFC4F5F01059D800111240A5E09
:102720001C4F0A151B0520F0F5E0EF0EF11CD8CF69
:1027300098014D816C818B810E94A6090D5F1F4F0E
:10274000F0CF2FEFC21AD20A38E0C316D10409F035
:10275000B2CF6C9A3EB13F7E2EB120614FB7F89454
:1027600086E193E0FC015191CF0168E02EB90000B1
:1027700000C057FF3EB9550F000000C000C000C0A8
:102780003EB900C06A9591F7F4E0813E9F0751F78A
:102790004FBF8FE594E00197F1F700C00000259648
:1027A000EFE00C94F240B0E0A0E0E9EDF3E10C942E
:1027B000D540FC016280448081E08483E0EDF4E058
:1027C0007490EFE4F5E0E491C1EED4E036E1E32E5D
:1027D00033E0F32E4EEDC42E47E0D42E52E0A52E6A
:1027E000BB24B39488248A94912C55245A94E719D5
:1027F0000E2F10E082E0861530F08091DF0788838D
:102800008091E0078983411016C01B821A829701CC
:102810004A81698188810E94A609259683E0E80E95
:10282000F11CCC16DD0631F70E943613CDB7DEB7AA
:10283000E0E10C94F1408B818823E9F081508B8397
:10284000859DC00111246C8170E00E948F40FB01C6
:10285000FF27E053FB4F8491E82FE719E59DC00166
:102860001124B8010E948F408091E107689FB00158
:1028700011247A83CCCF0E9456412091E1072695FE
:1028800021582A9DA0012B9D500D1124452F55271D
:10289000841795070CF0BBCF82E0861588F40E9460
:1028A0005641B4010E94A34088830E945641209162
:1028B000E0072695622F70E00E94A340280F29832D
:1028C0001A828091E107893C20F088EC8C838B830D
:1028D0009ECF8431D8F784E1F9CFEF92FF920F9326
:1028E0001F93CF93DF938C01C6E1D3E0F12CE12C51
:1028F000F80194816091E0078091DF07FCE4EF1616
:10290000F104ECF49923E9F09E014091E1070E9463
:10291000A6092FEFE21AF20A239689E9E816F104D4
:1029200039F70E943613F801848190E00196817096
:1029300099278483CDB7DEB7E6E00C94FB4099235A
:1029400019F39E0140E0E3CFB0E0A0E0EAEAF4E151
:102950000C94D940EC014C81042F10E09801D8016F
:102960000E944D429B01AC010E9418424B015C0148
:10297000E0E2F0E0E01BF10BA5E5B0E0AC019B016B
:102980000E9418426B017C019F01DF010E94C4403C
:102990009B01AC010E9423429B01AC01280D391D13
:1029A0004A1D5B1DC701B6010E942B42F22E822FE9
:1029B00090E039E23F1598F143E0249F9001112403
:1029C00035952795122F109596E1C92E93E0D92EB3
:1029D00000E085E5E82EEF188E2D01FD8F2D960184
:1029E000412F6091E0070E94A6090F5F53E0C50EDA
:1029F000D11C093989F70E9436139C8181E0992303
:102A000019F0903219F48FEF80931E0180911E010E
:102A1000890F8C83CDB7DEB7ECE00C94F54025E54B
:102A200030E0A901481B590BCA019A01220F331F3C
:102A3000280F391F37FFC4CF2F5F3F4FC1CF0F93F0
:102A40001F93CF93DF93C6E1D3E0FE011182108282
:102A50001282339684E0E13EF807C1F710E000E00F
:102A600080911403082E000C990B081719077CF1AC
:102A700080911D01082E000C990B801791073CF1E5
:102A80009E014091E1076091E0078091DF070E947D
:102A9000A6090F5F1F4F23960939110509F70E94F8
:102AA000361380911C0190911403980F9093140396
:102AB00090911D01980F90931D0119161CF081959E
:102AC00080931C01DF91CF911F910F91089519827E
:102AD00018821A82DECFB0E0A0E0E1E7F5E10C94C5
:102AE000DD40FC018281DD24DA9480FD02C0DD241A
:102AF000D39406E113E0D0E0C0E0F8011182108227
:102B0000128294E0E92EF12CC12C809113038C0DDC
:102B100087FD8756082E000C990B8C179D0791F4A2
:102B20008091E1078E9DA0018F9D500D1124559538
:102B300047955595479598016091E0078091DF078B
:102B40000E94A609CD0CF1E0EF1AF108F1F62196EA
:102B50000D5F1F4FC939D10581F60E943613809150
:102B6000130391E0D9120CC0811108C088E9809349
:102B70001303CDB7DEB7E8E00C94F9408150F7CFEE
:102B800090E00196BE010E94A340F1CFEF92FF9228
:102B90001F93CF93DF93EC0186E1E82E83E0F82EBC
:102BA00010E08C8197014091E1076091E007810F6F
:102BB0000E94A6091F5F83E0E80EF11C193989F70E
:102BC0000E9436139A818C8190FF08C08F5F8C839E
:102BD000DF91CF911F91FF90EF9008958150F7CF33
:102BE0009091DE0790FF0CC0E6E1F3E08183608303
:102BF0004283339694E0E13EF907C1F70E94361311
:102C00000895A3E0B0E0E7E0F6E10C94E1408C0128
:102C10008091150381110AC09E012F5F3F4F46E945
:102C20006FEF0E94A6098A8180931503F8016481E1
:102C3000613069F08091150340E0662361F040E067
:102C4000623011F44091150380E060E004C06091AF
:102C5000150340E080E00E94F015F801848190E0C7
:102C6000019663E070E00E94A34084832396E4E031
:102C70000C94FD40A3E0B0E0E0E4F6E10C94E34006
:102C80009091DE0790FF0AC09E012F5F3F4F0E9488
:102C9000A6094B8169818A810E94F0152396E2E0A2
:102CA0000C94FF40CF93DF93EC01EEEDF7E043810E
:102CB00062818C810E943A168C818F5F8C83DF91B8
:102CC000CF910895CF93DF93EC01EC81F0E0E053D6
:102CD000FB4F4491EEEDF7E0628181810E943A164C
:102CE0008C818F5F8C83DF91CF910895CF92DF929B
:102CF000EF92FF926B017C010E949009B701A6013F
:102D000088E090E00E94CF41FF90EF90DF90CF905D
:102D10000895A3E0B0E0EFE8F6E10C94D640F82E79
:102D2000762EE42E622E9091DE0790FF29C0E92FC7
:102D3000E695AE2FB0E0A556BE4F8C9180930E0362
:102D40009E7F923009F59E012F5F3F4F8F2D0E948D
:102D5000A6094B8169818A810E94F015F092DF07F4
:102D60007092E007E092E107662051F06091DE0783
:102D70007091DF078091E0079091E1070E9476163D
:102D80002396EFE00C94F240823019F4E090E107D2
:102D9000E5CF863019F4F090DF07E0CF8930D9F322
:102DA0008931E1F6E9518E2F8170582EE695F0E0D9
:102DB000E553FB4FE4910E2F10E086E1C82E83E02F
:102DC000D82EB12CA12C99E9892E912CC501B401E2
:102DD0000E948F408F2D511013C0860F96014E2DEB
:102DE000672D0E94A609A00EB11E83E0C80ED11C5B
:102DF00081EEC81684E0D80649F70E943613AECF9C
:102E0000861BECCFEEEDF7E0438121E1421B08F495
:102E100040E021E0628181810E9489160895EEEDF3
:102E2000F7E0438121E1420F08F44FEF21E0628196
:102E300081810E9489160895EEEDF7E0628121E11B
:102E4000621B08F460E021E0438181810E948916C1
:102E50000895EEEDF7E0628121E1620F08F46FEF73
:102E600021E0438181810E9489160895EEEDF7E00B
:102E7000818121E04381628188500E9489160895F2
:102E8000EEEDF7E0818121E043816281885F0E945D
:102E9000891608958091E207882319F08150809364
:102EA000E2076091DE077091DF078091E007909163
:102EB000E1070E94761608958091E207833018F4A6
:102EC0008F5F8093E2076091DE077091DF0780914A
:102ED000E0079091E1070E94761608959091DE0731
:102EE00090FF2CC0917081112AC092609093DE07F0
:102EF000662351F06091DE077091DF078091E00753
:102F00009091E1070E9476166091DE07669570E069
:102F10004BE050E081E191E00E946F41892BB1F0DC
:102F200010920F0381E080930B0320E04091E107B2
:102F30006091E0078091DF070E94891608958B3227
:102F400010F09465D3CF880F982BD0CF81E0809379
:102F50000F030E94A2079093090380930803E2CF16
:102F600021E030E0A90102C0440F551F8A95E2F725
:102F7000CA0120911003662371F0822B8093100305
:102F800080910F03811106C08091DE0760E0869575
:102F90000E946E17089580958223F0CFCF93C82F9B
:102FA000C17081FB662760F980E00E94B0176C2F2A
:102FB00081E00E94B017CF9108958091DE07869539
:102FC000815009F48AE261E00E946E1708958091B1
:102FD000DE0786958F5F8B3208F081E061E00E940A
:102FE0006E1708959091DE0790FF08C09695981788
:102FF00028F0961718F40E94E717089561E00E94E0
:103000006E170895EEEDF7E083E0808311828FEF75
:10301000828386E9838314826081718182819381B6
:103020000E94761608954F925F926F927F92AF92B0
:10303000BF92CF92DF92EF92FF920F931F93CF93A5
:10304000DF93CDB7DEB76C970FB6F894DEBF0FBE37
:10305000CDBF8E010F5F1F4F8CE1F80111928A9551
:10306000E9F795E6E92E91E0F92E6801AA24A394E8
:10307000B12CF70181917F018F3F09F452C0F89480
:10308000E82FE295EF70F0E021A18F70A50102C05A
:10309000440F551F8A95E2F7CA01922F982B91A3EE
:1030A00092A18095892382A3789400C0ECE6F1E098
:1030B00041E050E060E070E0412C512C3201819100
:1030C0008F3F89F0A82FA295AF70B0E090962C9119
:1030D00030E08F7002C0359527958A95E2F7DB01C5
:1030E000CA0120FF03C080E090E0DC01482A592A91
:1030F0006A2A7B2A440F551F661F771F81E0E73835
:10310000F807E9F6F701319780818F3F11F00E94AF
:10311000EB0BE0EAEA95F1F7F60140825182628218
:103120007382F4E0CF0ED11C4CE6E41641E0F406C5
:1031300009F09FCF4CE150E0B8018DE892E00E9489
:103140007C41892B81F18CE1F801ADE8B2E001907E
:103150000D928A95E1F781E080938C020E94A2078C
:1031600090938B0280938A0280918A0290918B02C5
:103170000E9487070597D8F04CE150E06DE872E0B7
:103180008FED92E00E947C41892B39F18CE1EDE8D2
:10319000F2E0AFEDB2E001900D928A95E1F781E0A7
:1031A00010928C0205C080918C028111DDCF80E0ED
:1031B0006C960FB6F894DEBF0FBECDBFDF91CF91F6
:1031C0001F910F91FF90EF90DF90CF90BF90AF9045
:1031D0007F906F905F904F90089580E0E1CF809155
:1031E000980A9091FF0B892B8093D80180918802D7
:1031F000882309F18091BB0A9091BC0A892B29F0A0
:103200000E940D0E81110E94D30D8091D8019091E2
:103210008802892B8093D80120E08AED91E0FC019F
:103220003191CF0131112F5FF1E0803E9F07B9F757
:1032300021110E94D30D8091CD0B80959091D801E2
:1032400089239091CE0B892B8093D80148E050E0E0
:103250006EE772E088ED91E00E947C41892BA9F035
:1032600088E0E8EDF1E0AEE7B2E001900D928A95DA
:10327000E1F7E091DB0BF091DC0B309731F002804D
:10328000F381E02D88ED91E009950895CF93DF93C8
:10329000EC01EA85FB85309719F06C857D850995F1
:1032A0008B810E94F20D8C810E94F90D0E94EF1813
:1032B00086E0FE0111928A95E9F7DF91CF9108959A
:1032C000CF93DF93EC018D8181FD15C082608D83EA
:1032D0008091FF0B9B81892B8093FF0B8C810E9437
:1032E000000E0E94EF18E885F985309721F06C8573
:1032F0007D85CE0109951092D80B1092D70B8D8148
:1033000080FD03C0CE010E944619DF91CF91089540
:1033100080912901877F8093290182E00E94F20D2C
:103320008091290184FF06C08F7E8093290182E06D
:103330000E94000E8091290185FF06C08F7D809339
:10334000290180E20E94000E0E94EF18089590E08B
:1033500080E00E94DE0790E080E00E94C8071092A3
:10336000FF0B0E94EF1886E0E2E0F3E0DF011D9220
:103370008A95E9F71092FC021092FB021092FD026E
:103380000E943F0A08958093FE0B0E94A71908959A
:103390008091FE0B982F9670963021F488600E94E1
:1033A000C3190895877FFBCF21E030E001C0220FD1
:1033B0008A95EAF720958091FE0B82230E94C3191B
:1033C000089590917D028095892380937D02282F16
:1033D000277091F4282F082E000C330B9217130638
:1033E00059F09091970A92FF07C08595859585952C
:1033F0000E94D4190E94060E08959091970A92FB9C
:10340000222720F9281769F080FB92F99093970AF8
:103410008091960A9091970A0E94261282E00E945B
:10342000E119089521E030E001C0220F8A95EAF702
:103430008091FE0B822B0E94C31908959091970AE8
:1034400092FF10C098E0899F90011124622B609335
:103450007D020E94121A0E94A20790937C02809320
:103460007B0208950E94121A0895809389020E9497
:10347000A71908951092980AEAEDF1E086E0DF01BD
:103480001D928A95E9F70E94A7190895AAE2B0E073
:10349000ECE4FAE10C94E24085EF9BE02091F1002E
:1034A000DC012D93CD01BBE08D3F9B07B9F78091E7
:1034B000F60B833009F472C0B8F4813009F449C0C6
:1034C000823009F4B3C08091E80083FF96C28091F6
:1034D000F50B9091F60B9A3008F08FC2E92FF0E0CF
:1034E000E25AFD4B0C94B7408A3009F48EC08B3001
:1034F00009F471C0893039F78091F50B813219F7E1
:103500008091F90B9091FA0B009711F00297D9F680
:103510008091E800877F8093E8008091E80082FF37
:1035200038C08091F2009091F300029731F48091BD
:10353000F100813011F0863021F48091F100809308
:10354000E90B8091E8008B778093E8000E94790670
:10355000BACF8091F50B813A09F0B5CF8091E800A0
:10356000877F8093E8008091F90B9091FA0B892B6B
:1035700061F468E08AEE9BE070E00E94260780918B
:10358000E8008B778093E8009ECF60E090E080E0D9
:10359000F3CF8091FD0B8111C0CF95CF8091F50BBA
:1035A000813A09F090CF8091F90B9091FA0B892B19
:1035B00009F089CF8091E800877F8093E8008091AF
:1035C000E80080FFFCCF80912B018093F100809177
:1035D000E8008E77B9CF8091F50B813209F073CF77
:1035E0008091F90B9091FA0B892B09F06CCF8091A7
:1035F000E800877F8093E8000E9479068091F70BAE
:1036000080932B010E943A1A5ECF8091F50B813294
:1036100009F059CF8091E800877F8093E8000E94ED
:1036200079068091F80B8093E80B4DCF8091F50BD4
:10363000813A09F048CF8091E800877F8093E800C5
:103640008091E80080FFFCCF8091E80BBECF8038EE
:1036500099F0823809F0D1C18091F90B8F708730D1
:1036600008F0CBC18093E9008091EB0085FB8827AF
:1036700080F91092E90006C08091F20B9091F30B53
:10368000911182609091E800977F9093E800809379
:10369000F1001092F1008091E8008E77AAC1882392
:1036A00009F498C1823009F0A8C18091F70B81110B
:1036B0009BC18091F90B8F702FEF280F263008F0F7
:1036C0009CC18093E9002091EB0020FF8DC19330D5
:1036D00031F48091EB0080628093EB0085C1909182
:1036E000EB0090619093EB0021E030E001C0220FED
:1036F0008A95EAF72093EA001092EA008091EB00A5
:103700008860EACF811179C11091F70B1F77809102
:10371000E3008078812B8093E3008091E800877F2D
:103720008093E8000E9479068091E80080FFFCCF3A
:103730008091E30080688093E30082E0111183E0D0
:103740008093FD0B5AC18058823008F056C12091F9
:10375000F70B3091F80B2C3DE3E03E07A1F583E039
:103760008A838AE289834FB7F894DE01139620E0BA
:103770003EE051E2E32FF0E050935700E49120FF48
:1037800003C0E295EF703F5FEF708E2F90E0EA305C
:10379000C0F0C7968D939D932F5F243159F74FBF8B
:1037A0008091E800877F8093E8006AE270E0CE01B4
:1037B00001960E9426078091E8008B778093E800AD
:1037C0001CC1C096E7CF8091F90B9091FA0B432F63
:1037D00055274330510509F44AC078F54130510569
:1037E00009F485C08BE590E0E0EDF9E04230510549
:1037F00009F003C12091E800277F2093E800209181
:10380000FB0B3091FC0B8217930708F49C0140E0FE
:103810002115310509F070C041116EC08091E8009A
:1038200082FDC9CF8091FD0B882329F2853019F2E2
:103830008091E80083FFF2CFBECF4132510509F4F9
:1038400047C04232510509F0D8C08330910508F0D5
:10385000D4C0FC01EE0FFF1FE753FE4F0190F08133
:10386000E02D8A539E4FDC018C9190E01DC03327E0
:1038700021303105E9F02115310579F0223031058B
:10388000F9F02330310509F0B8C0EDE3FAE0E49136
:103890008E2F90E0EDE3FAE007C0E5E8FAE0E4916E
:1038A0008E2F90E0E5E8FAE0009709F4A6C0A2CFD9
:1038B000EDE6FAE0E4918E2F90E0EDE6FAE0F4CF49
:1038C000EBE5FAE0E4918E2F90E0EBE5FAE0ECCF47
:1038D0008330910508F091C0880F991FFC01E153D6
:1038E000FE4F0190F081E02D89E090E083CF82E1EE
:1038F00090E0EBE2FAE07ECF8091FD0B882309F4A3
:103900005ACF853009F457CF8091E80083FD53CF1B
:103910008091E80082FD82CF8091E80080FF78CF1F
:103920008091F2009091F3002115310519F0883053
:10393000910550F041E0089709F040E08091E800DF
:103940008E778093E80064CF44914093F1003196E4
:10395000215031090196E8CF803809F04EC080919E
:10396000E800877F8093E8008091F40B8093F1005A
:1039700092CE811142C01091F70B1230F0F5809178
:10398000E800877F8093E8001093F40B0E9479068B
:10399000112311F084E005C08091E30087FDFACF88
:1039A00081E08093FD0B42E061EC81E00E9498068B
:1039B00042E261EC84E00E94980642E261EC82E01F
:1039C0000E94980642E260EC83E00E949806809193
:1039D000FD0B13C08091F70B813079F481E09330B7
:1039E00009F080E08093F30B1092E9008091E800E9
:1039F000877F8093E8000E9479068091E80083FF2A
:103A00000AC08091E800877F8093E8008091EB00F6
:103A100080628093EB00AA96E3E00C94FE40E9EB11
:103A2000FAE0128E138E8FEA90E09183808325E076
:103A3000248F88E893E1938382838AE090E09583E2
:103A4000848344E150E05783468348E050E0518747
:103A50004087938782876EE170E0758764879787D8
:103A6000868780E590E0918B808B538B428B48E278
:103A700050E0558B448B42E350E0578B468B48EC2B
:103A800050E0518F408F158E178E168E91A380A314
:103A900022A30E946A110E943A1A1092970A109269
:103AA000960AE7E9FAE08081846080838091960A33
:103AB0009091970A0E9426120E94E70F0895AEE1A6
:103AC000B0E0E5E6FDE10C94D640A090900AB090FD
:103AD000910A81E090E09093910A8093900A80EDA2
:103AE000882E85E0982E90EEC92E95E0D92E10E014
:103AF000760100E015C0F30125913491452D602F2A
:103B0000812F0E94E31182E0680E711C5394EBE157
:103B10005E12F1CFF6E3EF0EF11C0F5F073019F0E4
:103B20003701512CE8CF740100E0F7012591349161
:103B300041E0602F812F0E94B211F701329625914A
:103B4000349140E0602F812F0E94B21184E0E80E92
:103B5000F11C013059F4E8E08E0E911CF6E8CF1A02
:103B6000FEEFDF0A113021F011E0C2CF01E0DDCF1E
:103B70000E940F1D1A8219821C821B821E821D82C6
:103B800018861F8288EC90E09A8789870FE413E0FB
:103B90004AE050E0B801CE0101960E94E141065F83
:103BA0001F4F0F3E83E0180799F77E01EBE0EE0E02
:103BB000F11C8AE0F70111928A95E9F74AE050E09A
:103BC000B801C7010E94E141065F1F4F0F38F4E0C2
:103BD0001F07A1F77E0185E1E80EF11C8AE0F701DD
:103BE00011928A95E9F78FEF9FEF9A8F898F87E07F
:103BF0008E8F4AE050E0B801C7010E94E141065FA4
:103C00001F4F0F32F5E01F07A1F7B092910AA09263
:103C1000900A6E96EFE00C94F24080E00E940D1244
:103C200060E086E290E00E94BD410E945F1D0E941C
:103C3000A21181E00E940D120895CF92DF92EF92BF
:103C4000FF928FEF9FEF4430510508F46AC0FB01EB
:103C5000C080D180E280F3800E943A1A8091960A57
:103C6000C0FA80F9B701A6017695679557954795F3
:103C700040FB81F9B701A60122E07695679557953B
:103C800047952A95D1F740FB82F9B701A60133E0A9
:103C900076956795579547953A95D1F740FB83F907
:103CA000B701A601E4E07695679557954795EA95A3
:103CB000D1F740FB84F9B701A601F5E07695679549
:103CC00057954795FA95D1F740FB85F9B701A601BD
:103CD000A6E07695679557954795AA95D1F740FB4D
:103CE00086F9B701A601B7E0769567955795479590
:103CF000BA95D1F740FB87F98093960A8091970A8D
:103D0000D0FA80F9D1FACC24C0F8C0FA81F98093B6
:103D1000970A8091960A9091970A0E94261290E045
:103D200080E0FF90EF90DF90CF9008950E943A1AC4
:103D30002FEF84E39CE0215080409040E1F700C0E9
:103D4000000088E19CE00FB6F894A895809360008D
:103D50000FBE90936000FFCF882321F00E94F20DE8
:103D60000E94EF180895882339F09091FF0B982B4B
:103D70009093FF0B0E94EF180895882321F00E9472
:103D8000F90D0E94EF180895882321F00E94000E7B
:103D90000E94EF180895882379F19CEF980F913ACB
:103DA00028F40E94270E0E94EF18089590E2980FC1
:103DB000983050F4877091E001C0990F8A95EAF726
:103DC000892F0E94F90DEFCF9BE5980F933028F4CF
:103DD00090E080E00E94DE07089598E5980F973103
:103DE00028F490E080E00E94C8070895803F20F00A
:103DF0000E94660A0E943F0A0895FF920F931F9344
:103E0000CF93DF93F82E0091D20B1091D30B0115B5
:103E1000110509F449C01092D10B1092D00B1092E9
:103E2000CD0B1092CE0BD8011696CD91DC919E0150
:103E30003A9521153F4108F4D07ED1E0C11101C06F
:103E4000D0E0D8011996ED91FC911A97309731F096
:103E50001B966D917C9180E00995D823DD2339F084
:103E60008CEF8C0F813A30F58C2F0E94270EFF20AB
:103E700099F0E091D20BF091D30B808584FD0CC0BA
:103E80008091CF0B882341F0808191819C0121504A
:103E90003109203B3D45A0F00E94EF181092D30B52
:103EA0001092D20B1092CF0BC801CDB7DEB7E5E070
:103EB0000C94FC400E94EF188C2F0E94CB1ED7CF91
:103EC0000E940108E9CFCF93DF93EC010E94CB1E43
:103ED000CE010E94060F9E01205E31092830310577
:103EE00010F0CD2B29F40E94BD1EDF91CF910895D3
:103EF0000E94AC1EFACFCF93C82F8823A1F08CEF7D
:103F00008C0F813A90F4EAEDF1E08191C817E1F16C
:103F100081E0E03EF807C9F76C2F88ED91E00E9440
:103F2000AE070E94EF18CF91089580E28C0F883081
:103F300048F4C77081E001C0880FCA95EAF70E9473
:103F4000000EEFCFEBE5EC0FE33040F4F0E0EC5C7B
:103F5000FE4F808190E00E94DE07E5CFE8E5EC0FA0
:103F6000E73150F4F0E0EE0FFF1FE95CFE4F808177
:103F700091810E94C807D7CFC03FA8F28C2F0E9422
:103F8000810B0E943F0ACFCF8C2F0E94270E0E94E8
:103F9000EF18C2CF1F93CF93DF93182FC091D90A88
:103FA000D091DA0A893321F0C091D70AD091D80A8A
:103FB000812F0E947B1F209739F4812F0E94CB1EF6
:103FC000DF91CF911F9108958FE99FE00197F1F75D
:103FD00000C000002197EFCFB0E0A0E0E2EFFFE1EA
:103FE0000C94DB40EC018AE0A82E2881222309F4FE
:103FF0008FC02130C9F599818A81913021F42296B0
:104000000E94CA1F05C0923029F422960E947B1F8D
:104010002196EBCF933021F422960E94CB1EF8CF4D
:10402000943011F02196F4CF229630E020E0AE01DA
:104030004F5F5F4F8053990B8A30910550F02150AC
:10404000310930F38FE99FE00197F1F700C00000DC
:10405000F6CFA29EB001A39E700D11249C01260FE5
:10406000371F8981EA01E3CFE22FF0E0E754F54FF3
:10407000B490822F86958695869590E0FC01E75551
:10408000F54FE4902770F12C022E02C0F594E794CE
:104090000A94E2F731E0E322FF24FC01E756F54FF2
:1040A000C490D12C022E02C0D594C7940A94E2F792
:1040B00031E0C322DD24FC01E757F54F049110E005
:1040C00002C0159507952A95E2F701701127E114B2
:1040D000F10419F081EE0E947B1FC114D10419F084
:1040E00086EE0E947B1F8B2D0E94CA1FC114D10433
:1040F00019F086EE0E94CB1EE114F10419F081EE56
:104100000E94CB1E0115110509F482CF8CE278CFF5
:10411000CDB7DEB7EAE00C94F740B0E0A0E0E3E909
:10412000F0E20C94DB407C015B01C42FD22FFC0138
:1041300082818823A9F04093D60B0E94A207909316
:10414000D50B8093D40BC77081E001C0880FCA954E
:10415000EAF70E94C41ECDB7DEB7EAE00C94F74040
:104160001091D60B141338C08091D40B9091D50BBD
:104170000E9487076C01B701C5010E944812C8164A
:10418000D90650F5C0E2CD0F1D17C1F080E2810FB6
:10419000883048F4177081E0012E01C0880F0A941E
:1041A000EAF70E94BD1EC83048F481E09D2F977049
:1041B00001C0880F9A95EAF70E94C41E802F0E94C2
:1041C000CA1FC83040F6D77081E001C0880FDA9569
:1041D000EAF70E94BD1EBFCFC77081E001C0880F03
:1041E000CA95EAF7F6CFCF93DF93EC010E94060F52
:1041F0009E01205E31092830310510F0209741F4EE
:104200000E94C41E8C2F0E947B1FDF91CF910895C6
:104210000E94B31EF7CF662329F02091FF0B226086
:104220002093FF0B9C013056211540E2340720F00B
:10423000305E2115304108F499270E94F32008953B
:10424000B0E0A0E0E6E2F1E20C94DE407C018B01FC
:10425000D42E8091290182FF8CC0C091DF0AD091B9
:10426000E00ACE15DF0521F0E114F10409F081C068
:10427000809129018B7F8093290181FD73C08091FA
:10428000DD0A9091DE0AA801481B590B81E02091BC
:104290002701309128014217530708F480E081700C
:1042A000F82E80912901F0FA81F980932901FE010D
:1042B00083E0F695E7958A95E1F7EE71FF27E756DB
:1042C000F54F20813181AE014F70552781E090E09C
:1042D00002C0880F991F4A95E2F7FF2009F444C0F5
:1042E000822B932B918380838091980A81FF08C051
:1042F0008091290180618093290182E00E94F90D5B
:104300008091980A85FF08C080912901806280937E
:10431000290180E20E94F90D6F2DCE010E940B2130
:10432000DD2031F08091D40A85FF02C086FF3BC0BA
:104330008091D70A9091D80A0E94DD0F8091DF0A00
:104340009091E00A9C013056211540E2340720F09C
:10435000305E2115304108F499270E94631F0E94A6
:1043600088191DC081E09BCF80959095822393236F
:10437000B9CFC701992797013056211540E234077C
:1043800028F0305E2115304108F0C7010E94631FFC
:104390008091DF0A9091E00A8E159F0501F310933A
:1043A000DE0A0093DD0ACDB7DEB7E7E00C94FA40F1
:1043B00068EE7EEF90E080E00E94DB4160E082E00A
:1043C00090E00E94BD4160E083E090E00E94BD412A
:1043D0001092890260E084E090E00E94BD4164E0B8
:1043E00082E290E00E94BD4160E085E090E00E94A2
:1043F000BD4160E086E090E00E94BD416FEF87E044
:1044000090E00E94BD4140E050E0BA0188E090E0B9
:104410000E94CF4160E08DE090E00E94BD4140E00D
:1044200050E0BA0188E190E00E94CF4160E087E16E
:1044300090E00E94BD4140E050E0BA018CE190E084
:104440000E94CF4170E060E080E290E00E94DB419A
:1044500040E050E0BA0188E190E00E94CF4180E066
:104460000E940D120E940D1E40E050E0BA018FE044
:1044700090E00E94CF4140E050E0BA0183E190E03B
:104480000E94CF410895A7E0B0E0E9E4F2E20C9485
:10449000D3407C01DC0113964D915C9114971196E9
:1044A0006C9111978C910E9472088111EEC061E0AD
:1044B000C7010E941F118C01F70182818823E1F05E
:1044C0008091D70B9091D80B0097B1F0081719077E
:1044D00099F0FEE08F9FC0011124FC01EE5FF74FC1
:1044E0002081246020838350984FDC010D931C931E
:1044F0000E9460191092FF0BF7018281882311F44A
:104500000C94CA2BC80182519F45409710F00C941F
:10451000BC2B8FEF97E00E94A9418111A6C07EEECF
:10452000D72ED00E0FE215E0D11036C019821A82B4
:104530001B821C8299249A9468012FEFC21AD20A16
:10454000C8010E94A94189831A82882309F48DC079
:10455000813009F07FC0580132E0A30EB11CC601C2
:104560000E94A941C82E8A83882309F47EC0C50110
:104570000E94A941D82E8FEF8C0D8330D8F45801BA
:1045800043E0A40EB11CDB82DD2021F0CE010196B8
:104590000E94EC1F8501D0CF0115F8E01F0709F438
:1045A00064C0C8010E94A941811101C0DA940F5F63
:1045B0001F4FBACF8BEF8C0D833030F5C8010396B7
:1045C000DB825C01DD2031F3580154E0A50EB11C03
:1045D0000E94A9418C838823E9F28B819C818130E0
:1045E000AFEF9A0710F0982F8827B6E0CB1631F07E
:1045F000E7E0CE1631F00E946E33CCCF0E944833F4
:10460000C9CF0E94CF32C6CFF4E0CF12C3CF58013A
:1046100024E0A20EB11CC80103960E94A941DD202E
:1046200021F1882311F18150990B989E9001999E58
:10463000300D11244D2D4150550BCA01820F931F8F
:10464000019708F4A7CFAFE9BFE01197F1F700C0D9
:104650000000F6CFCE0101960E94EC1F56019ACFC2
:1046600081E00E94121A0E94C81980917D02877011
:1046700061F0D70112968C91882339F08091970AC6
:1046800082FF03C082E00E94E1192796E2E10C94C8
:10469000EF4081E00E94D419E6CF82E0FBCF823068
:1046A00011F00C940C2C8091F7079091F807892B4E
:1046B00011F40C940C2C2EE02C9DC0012D9D900D1E
:1046C0001124FC01EE5FF74F20812E7F2083835061
:1046D000984F0E9460190C940C2C81E08093040187
:1046E000C4CF80910401882309F471C7480120EEEA
:1046F000821A9108409088028091E301482A8091B3
:10470000980A482A38E08316910408F08AC0980174
:104710002770332781E090E001C0880F2A95EAF7DF
:10472000552009F47BC0482AD7018D919C910E94A5
:10473000850E21E030E0F90102C0EE0FFF1F8A95DF
:10474000E2F7FF83EE832090D20B3090D30B609082
:10475000E0017090E1011D822D81E22FF0E0EE0F6B
:10476000FF1FE258F64FC080D180C114D10409F474
:1047700092C7411005C0D60112968C9181118EC04E
:10478000F601838190E02E813F8182239323892B40
:1047900009F484C08085982F977009F487E038E089
:1047A0008316910408F057C0552009F450C086952F
:1047B0008170882309F472C0D601AD90BC900A15AF
:1047C0001B0519F4552009F469C0C214D30409F477
:1047D00065C0D6011D96ED91FC91309721F0808146
:1047E000882309F45BC0642DC6010E945208882307
:1047F00009F454C00A151B0511F00C948D2C0115F9
:10480000110511F40C94932C51100C94952CA614B2
:10481000B70409F043C0512C0C94952C8095482284
:1048200083CF552009F420C71093E1010093E001E4
:104830000E9496076093C90B7093CA0B8093CB0BB1
:104840009093CC0B1092D10B1092D00B6DCF82FBBA
:10485000882780F9AECF552009F18170AACF0E9438
:10486000CB1E0C94B42C0497813A910558F46A2D10
:1048700088ED91E00E94AE07552009F4A8C60E9479
:10488000EF18F3CE0E94EF188FE39CE90197F1F740
:1048900000C000008A2D0E947B1FEECF9D819F5F8C
:1048A0009D835ACFFC01208131810217130709F043
:1048B00087C6511087C61092CF0B80E00E94FD1E64
:1048C00086C6902F812FCBC6F901858181FFF7C65F
:1048D000C9010E944619F3C6809129018160809325
:1048E00029011BC7809129018E7F809329010E9495
:1048F000881913C7809129018F7E013E110531F07F
:10490000053E1105C9F4809129018F7D809329010D
:104910008091290180FF10C7D70112968C9108322F
:10492000110528F50E31110508F072C0043011058B
:1049300080F58111FDC600C7C8019056811540E27F
:10494000940720F0905E8115904110F78091290125
:1049500082FFF2C68091D60A81FDEEC62BEC32E0D2
:1049600040E0B60190E080E00E942021E5C60933D6
:10497000110558F40D32110518F40B321105C9F662
:104980009091D40A92FDD5CF08C004361105C1F329
:10499000D0CF9091D40A94FDCCCF882309F4A8C03D
:1049A000809188029091980A892B8D7FB1F11092A5
:1049B000E00A1092DF0A8091D40A81FD2EC0F8012E
:1049C00043E0F695E7954A95E1F7EE71FF27E75644
:1049D000F54F98012F70332781E090E002C0880FD7
:1049E000991F2A95E2F78095909520813181822345
:1049F00093239183808360E0C8010E940B21809102
:104A000088028D7F0E94DE0D82E00E94E1192DCE8A
:104A10009091D40A93FD8DCFC0CF88E0F701ABEC25
:104A2000B2E001900D928A95E1F71092CD021092BA
:104A3000CF021092CE028091DF0A9091E00A08170F
:104A40001907D1F52091D40A25FF36C030912901EC
:104A500031FF02C026FF30C02091DD0A3091DE0A0E
:104A60005601A21AB30AB7010E944812A816B90645
:104A700018F58091980A81FF08C080912901806112
:104A80008093290182E00E94F90D8091980A85FFA8
:104A900008C08091290180628093290180E20E94F0
:104AA000F90D60912901669561708091DF0A9091FE
:104AB000E00A0E940B21D9CD809188029091980A3A
:104AC000982B2091290191FB21F9209329018D7FB9
:104AD0000E94DE0D1093E00A0093DF0AD092DE0AF6
:104AE000C092DD0A809129018460809329018CCFD6
:104AF000970140E0B601C8010E942021B6CD053FD4
:104B00004CE5140709F463C008F45BC0063F8CE56C
:104B1000180709F462C0D70112963C91332309F4B7
:104B20009FC61092D60B0330BDE51B0708F061C08D
:104B30000A3FECE51E0730F4C80182509C454497BB
:104B400008F062C00E9446119093970A8093960ADB
:104B500002315CE5150709F47FC108F0CFC00930C8
:104B60009CE5190709F456C108F099C00530BCE569
:104B70001B0709F443C108F080C00330FCE51F07A0
:104B800009F434C108F036C18091960A8160023080
:104B90003CE5130709F4AFC08091960A9091970AFB
:104BA0000E9426120E943A1A60CD07E225EE45EED9
:104BB00068ED7CE5DCC506E221EE40EE63EF7CE5C6
:104BC000D6C507E225EE44EE64EF7CE5D0C506E2EB
:104BD00021EE42EE65EF7CE5CAC507E225EE46EE22
:104BE00066EF7CE5C4C508E221E045EE69ED7CE5B1
:104BF000BEC5053AFDE51F0709F4A4CFC0F501368F
:104C00004DE5140709F49ECF06315CE5150709F060
:104C100024C28091980A982F9A7A2091D30A20FF73
:104C200004C0482F447409F090E021FF04C0482FCD
:104C3000417109F090E022FF04C0482F487809F044
:104C400090E023FF03C0827209F090E0332309F45F
:104C50002DC181E0911101C080E08093E20169E201
:104C6000911165E388ED91E00E94AE0708CEC8017E
:104C70008D5A9D45039740F665CF8091960A8062D4
:104C800007304CE51407B9F18091960A806108302D
:104C90005CE5150780F18091960A80642CC00D3088
:104CA0008CE5180709F4C0C090F48091960A8E7FB5
:104CB0000B30ACE51A07F9F08091960A8C600C3045
:104CC000BCE51B07C0F08091960A8D7F14C00F30A1
:104CD000ECE51E0709F4B8C008F4AAC000312CE5C1
:104CE000120709F4B5C08091960A8F7B01313CE52B
:104CF000130709F051CF8093960A4ECF0F3F4CE532
:104D0000140709F4B3C0A8F50A3F8CE5180709F4A5
:104D100079C0C0F40431ACE51A0709F4B5C008F451
:104D2000A1C00531ECE51E0709F036CF8091960A47
:104D300082FB992790F921E0922790FB82F990FB62
:104D400083F9D9CF0C3FFCE51F0709F475C008F4BF
:104D50005DC00D3F3CE5130709F472C08091970ACE
:104D600083600E3F4CE5140709F016CF8093970A35
:104D700013CF01365DE5150709F491C090F40130B9
:104D80009DE5190709F489C008F474C060E0023099
:104D9000BDE51B0709F000CF8EE090E00E94BD4109
:104DA000FBCE0D3AEDE51E07E9F060F49091960A0E
:104DB000892F8E7F90FF8160053A2DE5120709F457
:104DC0009ACFEACE0E3A3DE5130751F10F3A4DE581
:104DD000140709F0E1CE9091970A892F877F93FFFE
:104DE0008860C4CF8091970A8860C0CF8091960A6E
:104DF000826081CF8091960A84607DCF8091960AEF
:104E0000886079CF8091970A8160B0CF8091970AAE
:104E10008260ACCF0E943A1A8091960A80686BCF6C
:104E20008091970A877FA2CF8091960A8B7F63CF6C
:104E30008091960A877F5FCF8091970A8E7F96CF69
:104E40008091970A8D7F92CF8091960A8F7E53CF63
:104E50008091960A8F7D4FCF0E943A1A8091960AD0
:104E60008F7749CF8091960A837F45CF8091970AAB
:104E70008C7F7CCF8091970A982F909591708E7F30
:104E8000892B90FB81F972CF0E943A1A9091960A71
:104E9000892F97FB87F980582ECF61E07DCF9091C5
:104EA000960A892F8F7E94FF806125CF8091E20141
:104EB000811104C089E20E94270EE1CC85E3FBCF7B
:104EC000043C4CE5140709F495C0053C5CE5150766
:104ED00009F0E8C446E357E160E477E114C0093C17
:104EE0009CE5190709F495C088F4073CBCE51B074D
:104EF00009F48AC049E257E16CE177E1083CECE54E
:104F00001E0709F0CFC40E948909AFCB0A3CFCE51B
:104F10001F0709F483C04AE457E16CE577E10B3CD5
:104F20002CE5120781F3BEC4013D3CE5130709F4EB
:104F300088C0B0F40E3C5CE5150709F47CC008F4A9
:104F400077C00F3C9CE5190709F478C06EE089E052
:104F5000003DACE51A0709F0A5C40E94F21785CB05
:104F6000043DBCE51B0709F472C078F4023DFCE582
:104F70001F0709F469C061E088E1033D2CE51207D1
:104F800009F090C40E946E1770CB053D3CE51307F5
:104F900009F460C06AE285E20D351007F1F282C4BF
:104FA0008091DE0780FF1BC08E7F8093DE076091BB
:104FB000DE077091DF078091E0079091E1070E9482
:104FC000761610920F035FEF80E792E05150804019
:104FD0009040E1F700C000000E94361346CB81608C
:104FE0008093DE0761E08695CDCF4DED57E167EE0A
:104FF00077E189CF47EE57E16DED77E184CF40E46B
:1050000057E166E377E17FCF4CE157E169E277E171
:105010007ACF42E057E16FE077E175CF4FE057E19B
:1050200062E077E170CF4CE557E16AE477E16BCF5E
:1050300061E081E0A7CF65E082E08FCF68E086E0A5
:105040008CCF64E18FE089CF67E185E186CF62E2B2
:1050500089E183CF61E083E295CF0A35ADE51A0798
:1050600071F158F40115ECE51E0791F00E3D1C4559
:1050700009F018C40E94D82109C00C352DE512078B
:10508000A1F0F8F0073A1D4509F00CC40E94961EE5
:105090000E943A1A5FEF84E39CE0515080409040B8
:1050A000E1F700C000000E94B90F8091970A82FBCF
:1050B000882780F991E089270E94FD19F3C381E0D8
:1050C000FBCF80E0F9CF828100811181882369F0D4
:1050D000C8010E94A310D82E682FC8010E94CF0ECD
:1050E000B8018D2D0E947910E3C3C8010E94850E7E
:1050F000D82EF6CF202F2F70B22E802F807F19F060
:10510000B29490EFB922DD20A9F0BB2059F080E2E3
:10511000810F883010F0111107C08B2D0E94000EF6
:105120000E94EF18812F5AC08091FF0BB82AB092CD
:10513000FF0BF6CF812F0E94CB1EBB2009F450C07D
:1051400080E2810F883010F0111104C08B2D0E9475
:10515000F90D03C08B2D0E94F20D0E94EF1840C084
:10516000302F3F70B32E802F807F803219F0B294A1
:1051700080EFB822112321F1113009F4B0C0DD20F5
:1051800009F4B9C0CC2009F481C020E0D7014C91CA
:1051900011965C91119712966C91129713967C91CF
:1051A000139714968C910E94FC108091D60A81FD71
:1051B000B9CFF701858180FFB5CF8F70858366C039
:1051C0008091970A82FD42C0DD20D1F1BB2029F0F9
:1051D0008B2D0E94000E0E94EF1880E00E947B1F22
:1051E000A92DA850BB0B149720F40E94F4070E942D
:1051F000CE17812F902F0E94EB0E8111C2C1109209
:10520000E5011092E401AA20B1F080917D0280FDB9
:1052100012C0D70112961C928595859585950E949E
:10522000121AC7010E94432280917D0285958595BF
:1052300085950E94D41960E0C7010E941F1125CAFC
:1052400080E00E94CB1EBB2059F280CFDD2011F1FF
:10525000C11004C0809188028B2919C041E0C4129A
:1052600006C0809188028B290E94DE0DB9CF809103
:10527000D50A823078F3C812EDCF0E94D30D9091F9
:10528000E3018B2D892B89138093E3018B2D0E94E1
:10529000C41EA6CFC11003C00E94D30D17C08091B9
:1052A000D50A51E0C51216C0823008F499CF80911A
:1052B000980A8B2109F494CF0E94D30D9091E301B9
:1052C0008B2D8095892389138093E3018B2D0E9478
:1052D000BD1E86CF823000F3C812DECF81CF809111
:1052E000DB0ADD2021F08C1508F47ACFCFCFC81669
:1052F00008F076CFEBCFCC2049F38091D90A90917A
:10530000DA0A193321F08091D70A9091D80A0E94C5
:10531000DD0F812F0E94CB1E63CF802F869586954F
:10532000837069F0813009F05BCF812F902F9370EB
:10533000D11002C090E080E00E94C80751CF812FB9
:10534000902F9370D11002C090E080E00E94DE07A1
:1053500047CF812FDD2029F00E94810B0E943F0A58
:105360003FCF0E94660AFACF802F837091F5D1104B
:1053700037CF412F429546954770440F440F812FF8
:105380008F70042E01C0880F0A94EAF7212F207134
:1053900014FF07C02FE030E001C0220F4A95EAF762
:1053A0002095302F369536953370323069F050F4B1
:1053B00040918902313029F0822B84230E94351AD2
:1053C0000FCF842B822BFACF282B80918902822742
:1053D000F5CF8695DD2011F0802F8170882309F4A8
:1053E000FFCE412F429546954770440F440F812FC1
:1053F0008F70042E01C0880F0A94EAF7212F2071C4
:1054000014FF07C02FE030E001C0220F4A95EAF7F1
:105410002095302F369536953370323069F050F440
:105420004091FE0B313029F0822B84230E94C31956
:10543000D7CE842B822BFACF282B8091FE0B82278C
:10544000F5CFF02FFF70BF2EDD2029F08F2F0E94A7
:10545000121A812F1CCF812F0E94BD1E8B2D0E94FE
:10546000D419BECE123F89F160F4103FB9F0113F5C
:1054700081F0DD2009F480C0C11054CE802F8F71DF
:1054800028C0133F49F1143FA1F78091970A82FD8C
:105490002FC0802F8F71DD2011F31BC08091DB0A9C
:1054A000DD2079F0C81608F09BCE202F2F7181E007
:1054B00090E001C0880F2A95EAF79091FE0B8927AA
:1054C000B5CF8C1508F48CCEF0CF802F8F71D11012
:1054D000C6CF0E94121A84CE80E0DD2009F4A6CF48
:1054E00081E0902F9F7101C0880F9A95EAF79ECFB7
:1054F0008091D50A823040F1DD20D1F090917D027B
:105500009770943041F40E94060E802F8F710E9494
:10551000D419A12C65CEC816E0F7202F2F71B22E1A
:10552000822F0E94121A63E08B2D0E941E1AF1CF67
:10553000C81630F00E94060E64E0802F8F71F5CF00
:1055400081E00E94E119E5CFDD2059F0302F3F7155
:10555000B32E832F0E94121A63E08B2D0E941E1A15
:105560003FCE81E00E94E11941E04C1508F038CEB1
:1055700082E00E94E11934CEC110BFCE802F8F711E
:105580006ECFDD2019F0C1103ACE3DCEC11037CE1E
:1055900020E0F701408151816281738184810E9402
:1055A000FC108091D60A83FF2ACE8091E40190916D
:1055B000E501029709F023CE812F0E94CA1F1FCE5A
:1055C000552029F0DC0118968C9185FF76C9C80119
:1055D00097558F3F910511F008F071C05801BB2419
:1055E000BEE00B9FF00111249F012350384F690149
:1055F000D70112968C91EE5FF74F908180FB90F966
:105600009083882309F460C90E94A2079093CA027C
:105610008093C902F60182818F5F82838091FF0BA4
:105620009091980A892B83838091880284830680D5
:10563000F781E02D309731F0D6011C966D917C9169
:10564000C60109958EE08A9DF0018B9DF00D112415
:10565000E350F84F858181FF34C990E080E090935A
:10566000D70B8093D80B2BC08091E0019091E10182
:105670000817190781F41092E1011092E0011092CD
:10568000C90B1092CA0B1092CB0B1092CC0B10923C
:10569000D10B1092D00B8091D20B9091D30B00972D
:1056A00009F495CFA8E08A16910408F0FBC8642D90
:1056B0000E945208811103C081E00E94FD1E80916A
:1056C000D40A80FF39C00E94A2076C01D70112964C
:1056D0008C91882309F40EC98091290182FF08C0AA
:1056E0002BEC32E040E0B60190E080E00E94202107
:1056F0000B31BCE51B0709F4EFC80C31ECE51E07C4
:1057000009F4F0C890912901892F8E7F90FF816064
:105710000A31FCE51F0709F4E8C8C8019056811555
:1057200020E2920728F0905E8115904108F0F0C8C1
:105730001092E00A1092DF0A033FBCE51B0709F450
:105740003ACA08F0DCC9083DFCE51F0709F42DCA78
:10575000093D2CE5120709F446CA073D3CE513074D
:1057600009F0D9C906E221EE41EE67ED7CE5C701FB
:105770000E948D200C9435230031FFE51F0711F4A2
:105780000C94302301312FE5120709F045C082E067
:105790000C94312300313FE5130711F40C94492395
:1057A00001314FE5140711F40C944D236801E7E52E
:1057B000DE1AFFEFCF16D10409F070F563EF77E042
:1057C0008C2D0E943412892B39F58EE08C9DF001CE
:1057D0008D9DF00D1124E350F84F8281813011F03E
:1057E0000C944F238091F3079091F407892BA1F03B
:1057F0008091F5079091F607892B71F08091F7075A
:105800009091F8072091F9073091FA07822B932B9A
:10581000892B11F40C945B23D70112965C905520D0
:1058200011F40C9471230F35BDE51B0711F40C9492
:105830006D230036EDE51E0761F00E35FDE51F070F
:1058400011F00C94712380910401882311F40C94BD
:105850006D231092040180E00E94FD1E0C943523FC
:1058600006315CE5150709F4D4C98091980A827263
:105870000C3C9CE5190709F4D6CB08F055CB063C47
:10588000BCE51B0709F4BBCB08F029CB033CFCE5C6
:105890001F0709F4AACB08F013CB023C3CE5130721
:1058A00009F47ECBF70186819781009709F40BCC30
:1058B0000E94450C182F092FF701D280C580C29491
:1058C0003FE0C32280917D028770C1F0AD2CDD20C6
:1058D000B1F0892F807F803421F080E2810F883001
:1058E00068F08091970A82FF09C082E00E94E11966
:1058F00080917D028770AA24A3948111A12C902EFF
:1059000092942FE09222FBE0F91508F469CCE92D7E
:10591000F0E0E859FD4B0C94B740A114B10411F02C
:105920000C940724512CB12CA12C80E00E94FD1E68
:10593000D092D30BC092D20B81E08093CF0BF601B3
:1059400085818093CD0B51100FC0AB2869F0F60113
:10595000808191819C0124503109213A310510F058
:105960000C942F240E94270ED6011696AD90BC9061
:10597000C5019A9581159F4110F4E0EEBE2277246F
:105980007394C5010197803B9D4508F0712CD601A9
:105990001996ED91FC911A97309731F01B966D9105
:1059A0007C9181E009957822772081F0F60186814B
:1059B00097810E94060F8093CE0BC501F8E08F16E9
:1059C000910410F00C9433240E9401080E94EF18F7
:1059D0000C943C24B0E0A0E0E0EFFCE20C94DD404D
:1059E00080913602807F31F480913302C0917A0237
:1059F000811107C0CDB7DEB7E8E00C94F9402196DD
:105A0000C770809139028C17A9F3F0903102E090B1
:105A10003202C0903402D0903502A6016E2D8F2D37
:105A20000E947208D0E08111EACF8E0183E0000F5E
:105A3000111F8A95E1F7F801E65CFD4F81818E1117
:105A4000DECF80818F11DBCF82818111D8CFE380BF
:105A5000F480EC18FD0860E081E392E00E941F11E1
:105A600061E372E00E944812E816F90640F6809160
:105A700036028F70806180933602F801E15CFD4F41
:105A800080818F708061808381E392E00E94432255
:105A90000E94540EAFCFA5E1B0E0E1E5FDE20C9429
:105AA000D6408C0185E0F801DE01519601900D92FF
:105AB0008A95E1F7D8015C9011966C901197129637
:105AC000EC9012971396CD90DC9060E081E392E029
:105AD0000E941F1181E3A82E82E0B82E809034022C
