:100000000C94C9050C9401060C9401060C9401068D
:100010000C9401060C9401060C9401060C94010644
:100020000C9401060C9401060C9497340C945334F0
:100030000C9494350C9401060C9401060C94010662
:100040000C9401060C9401060C9401060C94010614
:100050000C9401060C9470350C9401060C94010666
:100060000C9401060C9401060C9401060C940106F4
:100070000C9401060C9401060C9401060C940106E4
:100080000C9401060C9401060C9401060C940106D4
:100090000C9401060C9401062401AAFFFF2503AA73
:1000A000FFFF3F04AAFFFF5A03AAFFFF6F04AAFF46
:1000B000FF8602AAFFFF3B01AAFFFF3C03AAFFFF46
:1000C0005604AAFFFF6C03AAFFFF8204AAFFFF9554
:1000D00002AAFFFFFF000000005F01AAFFFF490A1C
:1000E000AAFFFF6009AAFFFF7807AAFFFFFF000031
:1000F000000005010902A10185020901A10005090D
:100100001901290515002501950575018102950143
:10011000750381010501093009311581257F95029B
:100120007508810609381581257F950175088106B6
:10013000050C0A38021581257F950175088106C0D6
:10014000C005010980A101850319012AB700150125
:1001500026B700950175108100C0050C0901A101A9
:10016000850419012AA002150126A0029501751027
:100170008100C00660FF0961A1010962150026FF28
:10018000009520750881020963150026FF0095205F
:1001900075089102C005010906A101050719E029AA
:1001A000E715002501950875018102950175088103
:1001B000010507190029FF150026FF00950675089F
:1001C0008100050819012905950575019102950120
:1001D00075039101C0D900980000001E0F050004AE
:1001E0007F3F1F643214643214783C1E1E140A05CB
:1001F000FD377A585A000004E6D6B44602002101C1
:1002000016000000742FE5A3E0076A01F35D003DCE
:100210008889C65436C3174FE4E7EBCF24098A3CDC
:10022000CBE6D2B1BB80A11B276D0E77E43C87AF34
:10023000F355913D992E164E8AAE1FE2527EFA2258
:100240006EFAAC422C748C421A0E1473EAF0B49914
:100250002861371E3D040635E7EEA1CBBEB1CA9535
:10026000C975207BC93732B8F476FC173EE3F63DFA
:10027000A2B09E4B4AFA6F6894C6D80B79DDD75866
:100280008C8BE29EA3871809336F7216507B3199CD
:100290000765822B8AB69206A7F18563524416CB76
:1002A000B6717318D851C9474F55E6B7FBE0AD7327
:1002B0005D424D45F76200681C0042F6B7D7C9FBA6
:1002C000BEDECA5A02B20F54D7A82B581ABD899C59
:1002D0008F57DA0570ACAAD61FF49A0F531924DF92
:1002E000A3B53B5F600AD0CE7C3086F669198B28B7
:1002F0009588C9E56F6E515BCA857159A108D48193
:10030000A617ABD86BC1891A80F1AECB0DCC1DF20C
:10031000952D17FE632F0151C9B3E9B7C409DEA2B9
:10032000B0199EEC61A766E25B50CD26E5D60526A6
:10033000F56D3175F6C259143A0A2AAFAFF9925ADF
:10034000A5E4F2F27262F77BA67D5344BA0CCBCEE1
:10035000731E2F60B77498B10247F27979348EB565
:10036000274A9130029009431E9EDC2CD5336F7FC3
:10037000FDA5E96A13F62D576584D74D768B72ED8E
:10038000113A2D29B42D6459B7565671111434D829
:100390001C59B5BA23D9BD47AB8B33C806D2371821
:1003A000EDDCF2B339EA7CD0DB1611EF4297E1596C
:1003B000ACCCBEFFC0D413AD77A2460C27C9699B55
:1003C00055C291293E7036095FB7066AC0E1B5761D
:1003D000031DC982B00DCBBCCDB6FCB9D669AD92B8
:1003E000BEEDBEBDFC4867C6BC677F6293388BDF3D
:1003F0000DF5BB78DF0B489E7F1140AED972E44704
:100400003E000000EAAA78ECCCEF6A2C00018F04D1
:10041000EB0E0000233FD3D2B1C467FB0200000003
:100420000004595A00010101010101010101020208
:100430000202020202020203030303030303030492
:10044000040404040404050505050506060606065D
:10045000070707070708080808090909090A0A0A17
:100460000B0B0B0C0C0C0D0D0D0E0E0E0F0F0F10B9
:100470001011111112121313141415151616171743
:10048000181819191A1A1B1B1C1D1D1E1E1F2020AF
:10049000212222232424252626272829292A2B2CF9
:1004A0002D2D2E2F30313232333435363738393A1C
:1004B0003B3C3D3E3F404142434445464748494A14
:1004C0004C4D4E4F50515354555658595A5B5D5EE2
:1004D0005F616264656668696B6C6D6F707273757D
:1004E00077787A7B7D7E8082838587888A8C8E8FE1
:1004F00091939596989A9C9EA0A2A3A5A7A9ABAD0F
:10050000AFB1B3B5B7BABCBEC0C2C4C6C9CBCDCFFC
:10051000D1D4D6D8DBDDDFE2E4E7E9EBEEF0F3F5AA
:10052000F8FAFDFFFFAA7F55402223252628292A15
:100530002C2D2F3032333536383A3B3D3E40424346
:100540004547494A4C4E5051535557595A5C5E6085
:1005500062646668696B6D6F71737577797B7D7F97
:1005600081838587898A8C8E90929496989A9C9E96
:100570009FA1A3A5A7A8AAACAEAFB1B3B4B6B8B9B2
:10058000BBBCBEBFC1C2C3C5C6C7C9CACBCCCDCE1A
:10059000D0D1D2D2D3D4D5D6D7D7D8D9D9DADADBFD
:1005A000DBDBDCDCDCDCDCDDDDDDDDDCDCDCDCDC89
:1005B000DBDBDBDADAD9D9D8D7D7D6D5D4D3D2D2C8
:1005C000D1D0CECDCCCBCAC9C7C6C5C3C2C1BFBEB0
:1005D000BCBBB9B8B6B4B3B1AFAEACAAA8A7A5A31B
:1005E000A19F9E9C9A98969492908E8C8A898785DA
:1005F00083817F7D7B79777573716F6D6B696866B9
:100600006462605E5C5A5957555351504E4C4A498A
:1006100047454342403E3D3B3A3836353332302F32
:100620002D2C2A292826252322AA00A9002D012EB7
:1006300001CA5CC95CC45CC35C0000A80000000087
:1006400000C25CD55C290000003A003B003C003D44
:10065000003E003F0040004100420043004400458E
:10066000004600470048000000270100000000008D
:1006700000000000000000C65CC55C0100000068CE
:100680000069006A006B006C006D006E006F007006
:10069000004500720073000100010001000000002D
:1006A00000000000005300540055005600C85CC70D
:1006B0005C35001E001F00200021002200230024C2
:1006C000002500260027002D002E002A0049004AA0
:1006D000004B0053005400550056005F006000615D
:1006E000005700CD5CCE5C2B0014001A00080015EA
:1006F0000017001C0018000C00120013002F00301F
:100700000031004C004D004E005F0060006100575A
:10071000005C005D005E000000CF5CD05C3900042E
:10072000001600070009000A000B000D000E000F64
:100730000033003400000028000000000000005CCE
:10074000005D005E00000059005A005B005800D1B7
:100750005CD25CE1001D001B0006001900050011C1
:100760000010003600370038000000E500000000EF
:10077000005200000059005A005B0058006200005F
:100780000063000000D35CD45CE000E300E2000002
:100790000000002C41000000000000E200E7000023
:1007A000006500E400500051004F0062000000634B
:1007B0000000000000005C000000000100010001DA
:1007C0000000000100010001000100010001000122
:1007D0000001000100010001000100010001000111
:1007E000000000A75D000000000000000000000005
:1007F00000010001000100000001000100010001F2
:1008000000010001000100010001000100010001E0
:1008100000010001000100000000000000000001D4
:1008200000010001000100010001000100010001C0
:1008300000010001000100010001000100010001B0
:1008400000010001000100010001000100010001A0
:100850000001000100010001000100010001000190
:100860000001000100010001000100010001000180
:100870000001000100010001000100010001000170
:100880000001000100010001000100010001000160
:100890000000000100010001000100010001000151
:1008A0000001000100010001000100010001000041
:1008B0000001000000000000000100010001000034
:1008C0000001000100010001000100010001000120
:1008D0000001000100010001000100010001000110
:1008E0000001000000010000000000010000000104
:1008F00000010001000100010000000100000001F2
:1009000000010001000100010000000000010000E2
:1009100000000000000100010000000100010001D2
:1009200000010001000100000001000000010001C1
:1009300000D30A8011B311000002000200CF0A8028
:1009400011B311000003000100D40A8011B311009B
:100950000004000200B90A8011B3118709050001E3
:1009600000D50A8011B311000006000200BB0A8006
:1009700011B311000007000200D10A8011B3110069
:100980000008000100D60A8011B31100000900021E
:1009900000BD0A8011B31162090A000200BF0A807B
:1009A00011B31162090B000200C10A8011B3116278
:1009B000090C000200C30A8011B31162090D000284
:1009C00000C50A8011B31162090E000200C70A8037
:1009D00011B31162090F000200C90A8011B311623C
:1009E0000910000200CB0A8011B311620911000244
:1009F00000CD0A8011B311620912000200D70A80EB
:100A000011B311000013000200D90A8011B31100C4
:100A10000014000100DB0A8011B311000015000072
:100A2000000000E8084A1E000009025B0003010004
:100A3000A0FA0904000001030101000921110100CD
:100A4000012240000705810308000109040100029A
:100A50000300000009211101000122220007058284
:100A6000032000010705030320000109040200011F
:100A70000300000009211101000122810007058403
:100A80000320000112010002000000085750747694
:100A90000001010203011C037600690061006C0083
:100AA0003A00660036003400630032006200330012
:100AB000630000001003560069006B0074006F00B3
:100AC000720079000000160350004C0049005000ED
:100AD000200057006F0072006B00730000000403D9
:100AE00009040000000000000000000000000000F9
:100AF00000000000000000000000000000000000F6
:100B00000000000000007E0F00D4FFFFFFC70000C0
:100B1000007800000000000000002A2B28000000E0
:100B2000000000000000000000000000002900009C
:100B300000002C1E3420212224342627252E362D79
:100B40003738271E1F202122232425263333362E13
:100B500037381F0405060708090A0B0C0D0E0F1085
:100B60001112131415161718191A1B1C1D2F3130CA
:100B7000232D350405060708090A0B0C0D0E0F106E
:100B80001112131415161718191A1B1C1D2F3130AA
:100B9000354C11241FBECFEFD0E1DEBFCDBF04B670
:100BA00003FE18C08091000C9091010CA091020CE2
:100BB000B091030C8730904BA740B04B59F4109282
:100BC000000C1092010C1092020C1092030CE0E049
:100BD000F8E709952CE0A6EDB1E001C01D92A03028
:100BE000B207E1F711E0A0E0B1E0ECE6F5E802C001
:100BF00005900D92A63DB107D9F70E94BB350C9424
:100C000089420C940000E8EDF0E080818C7F8083C5
:100C10001092E2001092DA001092E100A0EEB0E033
:100C20008C9181608C9380818F77808319BCA7ED34
:100C3000B0E08C918E7F8C9380818F7E8083109228
:100C4000E70B08952091E4003091E50095E6A901B5
:100C50002091EC00822F817020FF06C08091E80077
:100C600080FF06C080E008952091E80022FD1AC0B0
:100C70008091FD0B882389F0853089F08091EB000D
:100C800085FD0FC02091E4003091E5004217530725
:100C9000F9F29150E1F684E0089582E0089583E04E
:100CA000089581E00895EF92FF920F931F93CF93E1
:100CB0007C018B010E942206C82F811117C08091F0
:100CC000E80085FD0BC08091E8008E778093E800F6
:100CD0000E942206882399F3C82F08C0F70181914A
:100CE0007F018093F1000150110949F78C2FCF91BA
:100CF0001F910F91FF90EF900895CF93FC01809189
:100D0000FD0B843001F5C091E900CF702091EC001B
:100D1000922F917020FD90E8C92B82E08093E9002A
:100D20008091E80080FF0CC050E040E060E270E09D
:100D3000CF010E9453068091E8008E778093E800EF
:100D4000CF70C093E900CF9108958091F50B87FF94
:100D500013C08091E80082FF06C08091E8008B7785
:100D60008093E80004C08091FD0B8111F2CF0895BB
:100D70008091FD0B8823D9F38091E80080FFF8CFA4
:100D80008091E8008E77ECCF982F9093E900242F84
:100D9000762F50E0891731F07091EC002091ED0032
:100DA0005091F00021FD07C09F5F973071F780934D
:100DB000E90081E008953091EB003E7F3093EB0035
:100DC0003091ED003D7F3093ED003091EB003160CC
:100DD0003093EB007093EC002093ED005093F00003
:100DE0002091EE0027FDE0CF80E00895B0E0A0E084
:100DF000ECEFF6E00C940A41C8EDD0E088818F7EDC
:100E00008883E7EDF0E080818160808381E08093DA
:100E1000E70B88818C7F888302EE10E0D8011C925A
:100E20001092DA0081EEC82ED12CD6011C92888156
:100E30008F77888388818068888388818F7D888385
:100E400080818068808319BC1092FD0B1092F40B96
:100E50001092F30B1092F20B90EEE92EF12CF701A9
:100E600080818B7F808388818160888342E060E01D
:100E700080E00E94C406D6018C918E7F8C93F8018D
:100E8000808181608083808188608083D7018C919C
:100E90008E7F8C93888180618883CDB7DEB7E8E050
:100EA0000C942641FC018091FB0B9091FC0B861762
:100EB0009707A0F06115710529F49091E8009E77DD
:100EC0009093E80090E06115710551F4911108C00C
:100ED0008091E80082FF33C080E00895BC01F2CF2A
:100EE0008091FD0B8823B9F18530B9F18091E8003C
:100EF00083FD2FC08091E80082FDEACF8091E80059
:100F000080FFE1CF2091F2003091F300611571056F
:100F100019F02830310558F091E02830310509F0FA
:100F200090E02091E8002E772093E800CCCF8191CB
:100F30008093F100615071092F5F3F4FE7CF80919F
:100F4000FD0B882341F0853041F08091E80083FF5C
:100F5000BFCF81E0089582E0089583E00895089569
:100F60008091E90B08959C014FB7F8948091E00BB4
:100F70009091E10BA091E20BB091E30B4FBF821B6C
:100F8000930B08952FB7F8946091E00B7091E10BEB
:100F90008091E20B9091E30B2FBF08952FB7F89447
:100FA0008091E00B9091E10BA091E20BB091E30BEB
:100FB0002FBF08959C01FC0132969FEF80E0419184
:100FC000461751F09F3F19F4411101C0982F8F5FD0
:100FD0008630A9F79F3F09F40895290F311D97FD29
:100FE0003A95F901628308952091DD0B3091DE0B73
:100FF0002817390771F09093DE0B8093DD0BE09199
:10100000DB0BF091DC0B309721F00084F185E02DB3
:10101000099508952091D90B3091DA0B28173907DB
:1010200071F09093DA0B8093D90BE091DB0BF09188
:10103000DC0B309721F00680F781E02D09950895AB
:10104000E091DB0BF091DC0B309729F00190F081FF
:10105000E02D0995089580E00895CF93DF93EC018A
:101060004091C90B5091CA0B6091CB0B7091CC0B86
:101070002FB7F8948091E00B9091E10BA091E20BD7
:10108000B091E30B2FBF841B950BA60BB70B843FCE
:101090009140A105B10518F58091C90B9091CA0B3B
:1010A000A091CB0BB091CC0B8093C50B9093C60B4A
:1010B000A093C70BB093C80B84EF91E0A0E0B0E021
:1010C0008093C10B9093C20BA093C30BB093C40B3E
:1010D000D093D10BC093D00BDF91CF9108950E9494
:1010E000C2076093C50B7093C60B8093C70B909398
:1010F000C80B82E390E0A0E0B0E0E2CFFC01848185
:10110000862351F492819923B9F06923808583FF66
:1011100005C081E061110FC080E00895892F8F70B4
:1011200092959F70982B862F8F7062956F70682BA9
:1011300081E09613F1CF089581E0FDCF452B39F082
:10114000682381E06F3F09F080E08170089581E0BD
:10115000FCCFDC016091BD0B8091BE0B962F8913F3
:1011600001C00895292F30E0F901EE0FFF1FEB5465
:10117000F44F408151814A175B07A1F487E08A9FB1
:10118000A0018B9F500D11244B5B544F81E0FA015D
:1011900084839613E6CF2F5F3F4F2370332720932E
:1011A000BD0B08952F5F3F4F922F9370D8CF1092B1
:1011B000E20A1092E10AE5E4FBE08581811102C0B8
:1011C0001482168237968BE0E53BF807B1F7089555
:1011D000B0E0A0E0EEEEF8E00C9408418FEF9FEF56
:1011E0004430510508F469C04091960A41FB8827B4
:1011F00080F990E0880F991F42FB002700F910E06A
:10120000000F111F000F111F802B912B40FBCC24CE
:10121000C0F8D12C8C299D2943FB222720F9C22F0D
:10122000E0E0DE2F53E0CC0FDD1F5A95E1F78C2B69
:101230009D2B44FBAA27A0F9B0E0E4E0AA0FBB1F56
:10124000EA95E1F78A2B9B2B45FBEE27E0F9F0E0CE
:10125000A5E0EE0FFF1FAA95E1F78E2B9F2B46FB13
:10126000222720F930E0B6E0220F331FBA95E1F7CC
:10127000822B932B47FB222720F930E03695322F23
:10128000222737952795822B932B2091970A322F6F
:101290003170F32EE82EF92A26952170B22EBB0C60
:1012A000A82EBF28C501BB0CAA0BBB0BFB0180837A
:1012B0009183A283B38390E080E0CDB7DEB7EAE00C
:1012C0000C942441E9EBFAE0848195812AE030E036
:1012D000B9010E94BC40609326018681809325015C
:1012E0008285809324018485809323018685978558
:1012F000B9010E94BC406093220180898093210142
:10130000828980932001848980931F0108958091B0
:10131000B90A9091BA0A9093280180932701089501
:10132000EDEFF7E090E080E06CEA73E343ED53E328
:1013300021E233E3778366835187408733872287AF
:101340009587848701963E968031910599F7089597
:1013500081152CE5920741F42091900A3091910A71
:10136000232B11F490E080E00895FA01811101C06F
:10137000FB010995089508958091DE07982F9E7FBF
:1013800061F4817082608093DE078091E107873984
:1013900018F086E98093E10708958635B0F38170EF
:1013A0008465F1CFAF92BF92DF92EF92FF920F93DD
:1013B0001F93CF93DF93182F062FE901473908F0C9
:1013C00046E9E42FF0E0EC5DFB4F011110C0E49121
:1013D0005E2F4E2F4983E8835A83DF91CF911F916F
:1013E0000F91FF90EF90DF90BF90AF900895202F66
:1013F00030E04491D42EE42EF12C56E0159FC0012C
:101400001124EFEFF0E0BF010E94BC40812F90E07B
:10141000880F991F55E5569FD001579FB00D112495
:101420008A1B9B0B982F990F890F5F01A21AB30A91
:10143000AE9CD001AF9CB00DBE9CB00D11245B2FB3
:10144000089F80011124012F11275F01A01AB10A02
:10145000AE9C8001AF9C100DBE9C100D11245F014D
:10146000A81AB108A29EC001A39E900DB29E900D35
:101470001124892F9927E81BF90BEE9DC001EF9DE0
:10148000900DFE9D900D1124E92F62307105A1F0A1
:1014900050F46115710509F49DCF6130710581F03B
:1014A000EB2F512F97CF6430710569F080F06630D3
:1014B000710509F48FCFF4CFE42F4B2F592F8ACF2A
:1014C000E42F412F87CFEB2F542F492F83CF4B2F62
:1014D0005D2DE12F7FCF0E94CE079C0190910403E8
:1014E00080910503982B21F0309301032093000392
:1014F0009091060380910703982B21F03093FF020F
:101500002093FE02E091DB0BF091DC0B309749F069
:1015100082E0809302030480F581E02D82E093E075
:101520000995089590910403803F59F48091050333
:1015300087FF0DC01092050391110BC01092FC02A1
:1015400008C0813F81F48091050318169CF399230C
:1015500081F08091060390910703892B09F064C004
:101560001092FB020895823F49F497FFF0CF10924A
:101570000403809105038111ECCFE0CF833F19F480
:101580001916ACF3E4CF20910603893F29F4121613
:10159000F4F610920603DBCF8A3F19F427FFD7CF6A
:1015A000F8CF209107038B3F29F427FFD0CF10926B
:1015B0000703CDCF8C3F19F41216CCF3C8CF843F6C
:1015C00031F4809103038E7F80930303C0CF853F66
:1015D00021F4809103038D7FF7CF863F21F4809122
:1015E00003038B7FF1CF873F21F480910303877F33
:1015F000EBCF883F21F4809103038F7EE5CF8D3FB1
:1016000031F48091FD028E7F8093FD02A0CF8E3F4A
:1016100021F48091FD028D7FF7CF8F3F09F097CFA6
:101620008091FD028B7FF0CF08958091FD0280FFB5
:101630000CC06091200170E0759567957595679570
:101640006115710549F1862F089581FF06C06091EB
:10165000200170E075956795F3CF6091200182FDC0
:101660000BC09091FB029923A1F060911F01809122
:101670002001961738F0682F70E06038710500F38C
:101680008FE70895899FC001112470E00E94D04027
:10169000F4CF61E070E0D7CF81E008958091FD0242
:1016A0006091C10A7091C20A80FF16C02091240186
:1016B000269FC001279F900D1124BC017695679548
:1016C000769567956038710508F043C0611571051E
:1016D00009F441C0862F089581FF0BC02091240199
:1016E000269FC001279F900D1124BC017695679518
:1016F000E9CF82FF09C0809124019B01829FB00144
:10170000839F700D1124DECF2091FC022223D1F2A1
:101710009091230180912401482F50E0291748F02F
:10172000CB01849FB001859F700D949F700D112493
:10173000C9CF289F90011124269FA001279F500DFB
:10174000369F500D1124692F70E0CA010E94BC40E1
:10175000B9CF8FE7089581E00895803F31F40E946A
:101760004E0B8195809305030895813F19F40E94E3
:101770004E0BF8CF823F31F40E944E0B819580933F
:1017800004030895833F19F40E944E0BF8CF893F5C
:1017900029F40E94150B8093060308958A3F21F4D3
:1017A0000E94150B8195F7CF8B3F31F40E94150BEA
:1017B00081958093070308958C3F19F40E94150BBF
:1017C000F8CF843F31F48091030381608093030359
:1017D0000895853F21F4809103038260F7CF863F0F
:1017E00021F4809103038460F1CF873F21F480913D
:1017F00003038860EBCF883F21F48091030380616D
:10180000E5CF8D3F31F48091FD0281608093FD0230
:1018100008958E3F21F48091FD028260F7CF8F3FC3
:10182000B9F78091FD028460F1CF80E00895F894CB
:10183000E82FE295EF70F0E031A1282F2F7081E0C2
:1018400090E001C0880F2A95EAF7982F909593238E
:1018500091A392A1892B82A3789408959091960ADE
:1018600092FF06C0282F28712830F9F4877F846002
:1018700093FF06C0282F28712831F1F4877E8461F8
:101880002091970A20FF06C0382F38713830D9F4DC
:10189000877F816021FF06C0282F28712831D1F46D
:1018A000877E816194FD877E0895282F24712430DE
:1018B000F9F68B7F8860DCCF282F2471243101F763
:1018C0008B7E8861DDCF382F3171313019F78E7FF3
:1018D0008860E0CF282F2171213121F78E7E886129
:1018E000E1CFCF93DF93EC0182389105B1F108F09D
:1018F00040C08133910509F49DC048F589329105B6
:1019000009F48DC08A9709F49CC0C11521E5D2075E
:1019100008F0C3C0C11530E5D30708F01EC1C83EAA
:10192000D10508F0A3C0C13ED10588F5C83AD1055C
:1019300008F08EC0C53AD10508F007C1C130D10505
:1019400031F1209721F1C430D10508F545C0853328
:10195000910509F45FC0C997C1F68091960A83701A
:1019600009F044C18091970A83FF11C0C9E2D0E019
:101970000EC0833E910599F170F4803E910501F10E
:10198000823E910511F68091960A82FD21C0CE011A
:10199000DF91CF910895863E910561F1873E9105D3
:1019A00071F1843E910509F0B0CF8091970A81FFD3
:1019B000EECF8091960AC7EED0E084FD0DC0E7CF50
:1019C0008091960A80FD33C09091970A90FFDFCFF7
:1019D000C3EED0E084FFDBCFD0E0C0E0D8CF809171
:1019E000960A82FD00C19091970A90FDFFC084FF86
:1019F000CECFF2CF8091960A83FDDDCFC8CF809104
:101A0000960A83FDF6C09091970A91FFF0CFC4EE3D
:101A1000D0E0BDCF8091960A85FFB9CFA7CF809146
:101A2000960A85FDE9C08091970A83FFB0CFC9E38C
:101A3000D0E0ADCF8091960A86FFA9CFCAE2D0E070
:101A4000A6CF8091960A86FFA2CFC1E3D0E09FCFB8
:101A5000CF3BD10508F6C85AD0E0CC0FDD1FC95CDA
:101A6000DE4F0990D881C02DD46491CFC11540E2DA
:101A7000D40758F4C11581E0D80708F088CFC03FDB
:101A8000D10508F4A9CFD06582CFC11520E4D207D3
:101A900008F4A2CFDF70D06A7ACFC11535E5D3073D
:101AA00018F5C11544E5D40708F085C0C11583E5D4
:101AB000D80708F06CC0C11522E5D20708F462C04F
:101AC000CE018370992721E030E002C0220F331F3E
:101AD0008A95E2F7C695C69580E2C89FE001112479
:101AE000C22BD32BDC6853CFC11539E5D307A8F43B
:101AF000C11548E5D40708F063C0C11586E5D807CD
:101B000008F06ACF8C2F0E942E0CC82FD0E0DC2F5B
:101B1000CC27CC27DF71D0623ACFC1152AE5D20796
:101B200008F453C0CE0190568115904208F054CF6E
:101B30008D2F8F710E942E0C90E0982F8827882778
:101B40009F719C012C2BE901E6CFC55AD0E0CC5CFB
:101B5000DE4FC881D0E0D0641ACF2C2F2695269571
:101B6000237040E2249F900111248C2F8370C1E0E8
:101B7000D0E002C0CC0FDD1F8A95E2F7C22BD32B39
:101B8000DD6805CFDC2FCC27C16FD06A00CFCE0136
:101B90008370992721E030E002C0220F331F8A951D
:101BA000E2F7C695C69540E2C49FE0011124C22B1E
:101BB000D32BDA68ECCEDC2FCC27C46FD06AE7CE0B
:101BC000DC2FCC27C06FD06AE2CE8C2F8F700E94A2
:101BD0002E0C34E0D695C7953A95E1F7CF709C2F3F
:101BE000EC01D069D4CEC2EED0E0D1CEC0EED0E0D0
:101BF000CECEC6EED0E0CBCEC5E3D0E0C8CE80914D
:101C00008802882331F01092880210928702109285
:101C100086020895CF93C82F8091970A82FF0CC047
:101C2000809188028C1741F00E94CE079093870222
:101C300080938602C0938802CF91089580959091F9
:101C4000FF0B98239093FF0B089580959091980A2D
:101C500098239093980A08959091980A892B8093DD
:101C6000980A089510927D0210927C0210927B02D5
:101C700008958091BB0A9091BC0A892B89F00E943B
:101C8000CE072091860230918702AC01421B530B94
:101C900081E02091BB0A3091BC0A4217530708F437
:101CA00080E081700895EAEDF1E09191891303C01D
:101CB000DF0111971C9291E0E03EF907B1F708951A
:101CC00020917A0290913902291302C080E0089590
:101CD00030E0F90153E0EE0FFF1F5A95E1F7E65CA3
:101CE000FD4F5181561306C05081581303C05281D5
:101CF000541304C02F5F3F4F2770E6CF81E0089553
:101D000080917A0290913902981301C008958F5FF3
:101D10008770FACFA82FA77023E0969587952A950C
:101D2000E1F7FC01EE0FFF1FE80FF91FE60FF71FA9
:101D300050E040E080E0219130E00A2E02C036956C
:101D400027950A94E2F721703327042E01C0220F51
:101D50000A94EAF7822B4F5F5F4F4330510559F7E2
:101D60000895903FC9F0973080F48B31A8F4282F64
:101D700030E069EE71E0A901EBE19E9F400D511D3D
:101D80001124CA010E948A0E08959C5F923020F4AB
:101D900066EE71E090E0F6CF80E00895262F277080
:101DA00091E001C0990F2A95EAF723E076956795AF
:101DB0002A95E1F7FB01EE0FFF1FE60FF71FE40F77
:101DC000F51F50E040E0682F70E08191DF0111972E
:101DD0009B01042E02C0369527950A94E2F72170E4
:101DE00021952827292328272C934F5F5F4F4330C5
:101DF000510559F70895282F862F903F79F0973095
:101E000070F42B3158F4622F70E02BE1929F600D3B
:101E1000711D112449EE51E00E94CE0E08959C5F81
:101E20009230E0F7622F70E046EE51E0F5CF9295E8
:101E30009F70963091F058F4925F9F70923058F4F2
:101E4000803F19F030F4883E30F481E008959A5FC5
:101E5000F4CF843FD1F380E00895883EB0F3813F12
:101E6000D1F7F3CF9C013A9521153F4150F5FC0184
:101E7000EE27F170BC0166277270AC0144275470E4
:101E80009C012227387094FF0EC080E1EF2B09F4EB
:101E900080E0672B09F08062452B09F08064232BDA
:101EA00089F08068089581E0EF2B09F480E0672BCA
:101EB00009F08260452B09F08460232B19F08860BB
:101EC000089580E008958093E40B7093E60B60938F
:101ED000E50B8091FD0B8430F9F48093E9008FEFDE
:101EE0009091E800815095FD06C095ED9A95F1F727
:101EF00000008111F5CF8091E80085FF0DC050E012
:101F000040E063E070E084EE9BE00E945306809125
:101F1000E8008E778093E8000895BC0184E00E9479
:101F2000630F0895BC0183E00E94630F08959C0134
:101F300084E08093E9009FEF8091E800915085FD57
:101F400006C085ED8A95F1F700009111F5CF8091DB
:101F5000E80085FF0CC050E040E066E070E0C90199
:101F60000E9453068091E8008E778093E8000895E0
:101F7000CF93DF93EC0181E08093E9008FEF9091A4
:101F8000E800815095FD06C095ED9A95F1F70000A7
:101F90008111F5CF8091E80085FF14C050E040E04A
:101FA00068E070E0CE010E9453068091E8008E77D1
:101FB0008093E80088E0FE01AAEEBBE001900D925C
:101FC0008A95E1F7DF91CF91089581E08093E00059
:101FD00080E28093D8001092C9008FE19EE40197BF
:101FE000F1F700C0000087E090EBDC018093000C6B
:101FF0009093010CA093020CB093030C88E19CE039
:102000000FB6F894A895809360000FBE909360007F
:10201000FFCF019708F40895EFE9FFE03197F1F75A
:1020200000C00000F6CF0F931F93CF93DF9309EB0F
:102030001AE0CBE2D3E0CE010E94D641F8018193B1
:102040008F012196CF34F3E0DF07A9F7C7E3D9E08A
:10205000FE0185919491009711F0FC0109952C9651
:10206000FAE0C333DF07A1F7DF91CF911F910F9102
:102070000895FF920F931F93CF93DF93F42E823036
:1020800070F5623060F528E0829F8001112434E011
:10209000639FB0011124060F171F055E1C4F82E0DD
:1020A00090E0442311F090E080E0800F911F0E94A7
:1020B000D641C82FD0E0DC2FCC2783E090E0FF2072
:1020C00011F081E090E0800F911F0E94D6419E01A7
:1020D000282BC901CDB7DEB7E5E00C94294190E08B
:1020E00080E0F8CF0F931F93CF93DF93823050F5AA
:1020F000673040F54B3130F5C42FD0E0CC0FDD1FF9
:1021000026E3629FC00DD11D11242AE731E0829F92
:10211000A001839F500D1124C40FD51FCE018796B7
:102120000E94D641082F10E0102F0027CE0188967C
:102130000E94D6419801282BC901DF91CF911F91B0
:102140000F91089590E080E0F8CF2091940A3091AB
:10215000950A232BC9F4703F39F4603FA9F48091AC
:10216000920A9091930A0895823070F4773038F48F
:102170006B3150F4462F672F0E94721008957D3FF7
:1021800031F441E0623040F090E080E008957C3F1F
:10219000D9F76230C8F740E00E9439100895CF9215
:1021A000DF92FF920F931F93CF93DF936C01009107
:1021B000FE0B80918902082BC7E0D0E010E0FC2ED6
:1021C000C8010C2E02C0959587950A94E2F780FD10
:1021D0000CC02197A0F7F12C8F2DDF91CF911F918B
:1021E0000F91FF90DF90CF900895B6018C2F0E9441
:1021F000A5100E94710C019761F3EECFCF93DF938E
:10220000EC010E94CF10BE010E94A5100E94710C2B
:10221000DF91CF910895CF93DF93EC014B815C81E7
:10222000698188810E949E08811110C08E819F81E2
:10223000009739F00E94710C0E94170FDF91CF9127
:102240000895888199810E94FE10F6CF80E0F6CF34
:10225000A5E0B0E0EEE2F1E10C940F4149835A832E
:1022600089819A81662399F0222389F00E94CF10F8
:10227000182F682F89819A810E94FB0E69817A81CB
:10228000812F0E94A5102596E3E00C942B410E941B
:10229000B10E182FF3CFFC01262F8681978100976E
:1022A00039F4408151816281738184810E942811B7
:1022B000089583E290E00E94D641833289F484E25B
:1022C00090E00E94D6418E3259F485E290E00E945F
:1022D000D64191E0833409F090E0892F8170089510
:1022E00080E0FCCFCF9384E090E00E94D641C82FDD
:1022F00082E290E00E94D641982F8C2FCF910895D2
:10230000DB01FC013296259134914217530758F0B6
:10231000FC01349665917491A901CD010E94B641EA
:1023200090E080E008958FEF9FEF08950F931F9343
:10233000CF93DF9309EB1AE0CBE2D3E0CE010E940A
:10234000D641F80161918F01681719F0CE010E9402
:10235000EA412196CF34F3E0DF0781F7DF91CF9197
:102360001F910F910895DA019C012E5F3F4FF901F3
:1023700045915491F90125913491A217B30758F072
:10238000FC013496859194910E94B6410E94961169
:1023900090E080E008958FEF9FEF0895CF93DF9353
:1023A000CFE2D5E060E0CE010E94EA412196C1155E
:1023B00088E0D807B9F7DF91CF9108950F931F9365
:1023C000CF93DF93142F022F823020F5623010F567
:1023D00098E0899FE001112484E0689FB0011124F6
:1023E000C60FD71FC55EDC4F82E090E0442311F09A
:1023F00090E080E0632F8C0F9D1F0E94EA4183E0F4
:1024000090E0112311F081E090E0602F8C0F9D1F70
:102410000E94EA41DF91CF911F910F9108951F9380
:10242000CF93DF93122F823000F56730F0F44B31F9
:10243000E0F4C42FD0E0CC0FDD1F96E3699FC00D00
:10244000D11D11246AE771E0869FA001879F500D7E
:102450001124C40FD51F632FCE0187960E94EA4135
:10246000612FCE0188960E94EA41DF91CF911F91A2
:102470000895CF93C82F6FEF811163E283E290E05C
:102480000E94EA416FEFC1116EE284E290E00E9487
:10249000EA416FEFC11163E485E290E00E94EA41F6
:1024A000CF910895CF93C92F682F84E090E00E94C8
:1024B000EA416C2F82E290E00E94EA41CF910895B8
:1024C0009B01803170F49AE0899FB0011124615B17
:1024D0007C4F4AE050E0C9010E94C64190E080E094
:1024E00008958FEF9FEF0895AAE0B0E0EAE7F2E1E8
:1024F0000C9410419C0137552F3F310509F068F4C9
:10250000BE016F5F7F4F0E946012892B31F4898575
:102510009A852A96E2E00C942C418091D10A909100
:10252000D20AF7CFAAE0B0E0E8E9F2E10C94064164
:1025300000EA19E08EE7C82E89E0D82E9FE8E92E40
:1025400094E0F92E27E0922E3DE7A32E39E0B32E3A
:1025500088248394D6010D931D936D014AE050E0C9
:10256000B701CE0101960E94C641F8013896DF01FD
:10257000892D1D928A95E9F789819A81D801119652
:102580009C938E938F8112968C9312978D811396C4
:102590008C931397888514968C9314978985159638
:1025A0008C9315978B819C8117969C938E9316978D
:1025B00018961C9218978A8587FF3CC01E961C921D
:1025C0001E921D9780FF03C0D80118968C9281FF40
:1025D00004C0F80190859260908782FF07C0D801FF
:1025E00018969C911897946018969C9383FF04C04A
:1025F000F80190859860908784FF07C0D8011896ED
:102600009C911897906118969C9385FF04C0F801DF
:10261000808580628087015F1F4FFAE0EF0EF11C1A
:102620008FE2E81685E0F80609F094CF2A96ECE0F0
:102630000C942241F801B686A586C4CFAAE0B0E08A
:10264000E4E2F3E10C940A41EDEDF8E080EADF0109
:102650001D928A95E9F7E5E4FBE080E7DF011D9232
:102660008A95E9F78DEDC82E88E0D82E7F010FEE10
:1026700013E0F701D182C0824AE050E0B801CE01F8
:1026800001960E94C64188E0FE013196D601019074
:102690000D928A95E1F789859A85D70113969C93C7
:1026A0008E931297BAE0CB0ED11CE7E0EE0EF11C30
:1026B000065F1F4F0F38F4E01F07D9F62A96E8E0AF
:1026C0000C942641A5E0B0E0E8E6F3E10C94034168
:1026D0008091DE0780FD0AC0E6E1F3E011821082FE
:1026E0001282339624E0E13EF207C1F78090110395
:1026F000909012038114910409F457C080FF55C0D3
:10270000D12CC12C66246394712C53E0552E8091FA
:10271000100393010C2C01C0220F0A94EAF78223C4
:1027200009F43BC0F601EE0FFF1FE80DF91DE5901F
:10273000F490E114F104C9F145E050E0B701CE0195
:1027400001960E94934109810F3F39F18A81800FE0
:102750009927991F8A39910514F089E990E05C0165
:10276000AA0CBB1C8A0D9B1DFC01EA5EFC4F5F019D
:10277000059D800111240A5E1C4F0A151B0520F0DF
:10278000F5E0EF0EF11CD8CF98014D816C818B8163
:102790000E94D2090D5F1F4FF0CF2FEFC21AD20A4D
:1027A00038E0C316D10409F0B2CF6C9A3EB13F7E37
:1027B0002EB120614FB7F89486E193E0FC0151916E
:1027C000CF0168E02EB9000000C057FF3EB9550F99
:1027D000000000C000C000C03EB900C06A9591F77B
:1027E000F4E0813E9F0751F74FBF8FE594E00197DA
:1027F000F1F700C000002596EFE00C941F41B0E017
:10280000A0E0E5E0F4E10C940241FC016280448028
:1028100081E08483E9E2F5E07490E8EAF5E0E49190
:10282000C1EED4E036E1E32E33E0F32E4EEDC42EBC
:1028300047E0D42E52E0A52EBB24B39488248A947A
:10284000912C55245A94E7190E2F10E082E086153A
:1028500030F08091DF0788838091E0078983411001
:1028600016C01B821A8297014A81698188810E9461
:10287000D209259683E0E80EF11CCC16DD0631F76F
:102880000E946213CDB7DEB7E0E10C941E418B814C
:102890008823E9F081508B83859DC00111246C81D0
:1028A00070E00E94BC40FB01FF27E75DFA4F849176
:1028B000E82FE719E59DC0011124B8010E94BC4032
:1028C0008091E107689FB00111247A83CCCF0E94E8
:1028D00083412091E107269521582A9DA0012B9D37
:1028E000500D1124452F5527841795070CF0BBCFA9
:1028F00082E0861588F40E948341B4010E94D04092
:1029000088830E9483412091E0072695622F70E022
:102910000E94D040280F29831A828091E107893CC8
:1029200020F088EC8C838B839ECF8431D8F784E1B0
:10293000F9CFEF92FF920F931F93CF93DF938C0108
:10294000C6E1D3E0F12CE12CF80194816091E0071D
:102950008091DF07FCE4EF16F104ECF49923E9F031
:102960009E014091E1070E94D2092FEFE21AF20A7C
:10297000239689E9E816F10439F70E946213F801F9
:10298000848190E00196817099278483CDB7DEB76A
:10299000E6E00C942841992319F39E0140E0E3CF2F
:1029A000B0E0A0E0E6EDF4E10C940641EC014C81CE
:1029B000042F10E09801D8010E947A429B01AC01DB
:1029C0000E9445424B015C01E0E2F0E0E01BF10BAC
:1029D000A5E5B0E0AC019B010E9445426B017C0182
:1029E0009F01DF010E94F1409B01AC010E94504217
:1029F0009B01AC01280D391D4A1D5B1DC701B601A5
:102A00000E945842F22E822F90E039E23F1598F151
:102A100043E0249F9001112435952795122F10959E
:102A200096E1C92E93E0D92E00E085E5E82EEF1857
:102A30008E2D01FD8F2D9601412F6091E0070E94A0
:102A4000D2090F5F53E0C50ED11C093989F70E94E6
:102A500062139C8181E0992319F0903219F48FEF71
:102A600080931E0180911E01890F8C83CDB7DEB744
:102A7000ECE00C94224125E530E0A901481B590BFC
:102A8000CA019A01220F331F280F391F37FFC4CF05
:102A90002F5F3F4FC1CF0F931F93CF93DF93C6E1BB
:102AA000D3E0FE01118210821282339684E0E13E6F
:102AB000F807C1F710E000E080911403082E000C25
:102AC000990B081719077CF180911D01082E000C45
:102AD000990B801791073CF19E014091E1076091AD
:102AE000E0078091DF070E94D2090F5F1F4F2396F6
:102AF0000939110509F70E94621380911C01909118
:102B00001403980F9093140390911D01980F9093C4
:102B10001D0119161CF0819580931C01DF91CF9146
:102B20001F910F910895198218821A82DECFB0E0AA
:102B3000A0E0EDE9F5E10C940A41FC018281DD247D
:102B4000DA9480FD02C0DD24D39406E113E0D0E0E6
:102B5000C0E0F80111821082128294E0E92EF12C7B
:102B6000C12C809113038C0D87FD8756082E000C15
:102B7000990B8C179D0791F48091E1078E9DA00120
:102B80008F9D500D11245595479555954795980162
:102B90006091E0078091DF070E94D209CD0CF1E03F
:102BA000EF1AF108F1F621960D5F1F4FC939D105D3
:102BB00081F60E9462138091130391E0D9120CC038
:102BC000811108C088E980931303CDB7DEB7E8E030
:102BD0000C9426418150F7CF90E00196BE010E94EF
:102BE000D040F1CFEF92FF921F93CF93DF93EC0190
:102BF00086E1E82E83E0F82E10E08C819701409169
:102C0000E1076091E007810F0E94D2091F5F83E016
:102C1000E80EF11C193989F70E9462139A818C81A0
:102C200090FF08C08F5F8C83DF91CF911F91FF9041
:102C3000EF9008958150F7CF9091DE0790FF0CC080
:102C4000E6E1F3E0818360834283339694E0E13EE2
:102C5000F907C1F70E9462130895A3E0B0E0E3E32F
:102C6000F6E10C940E418C018091150381110AC08C
:102C70009E012F5F3F4F46E96FEF0E94D2098A8184
:102C800080931503F8016481613069F08091150328
:102C900040E0662361F040E0623011F4409115039A
:102CA00080E060E004C06091150340E080E00E9495
:102CB0001C16F801848190E0019663E070E00E94A8
:102CC000D04084832396E4E00C942A41A3E0B0E052
:102CD000ECE6F6E10C9410419091DE0790FF0AC0FB
:102CE0009E012F5F3F4F0E94D2094B8169818A81EB
:102CF0000E941C162396E2E00C942C41CF93DF93A4
:102D0000EC01EEEDF7E0438162818C810E94661652
:102D10008C818F5F8C83DF91CF910895CF93DF9368
:102D2000EC01EC81F0E0E75DFA4F4491EEEDF7E065
:102D3000628181810E9466168C818F5F8C83DF9116
:102D4000CF910895CF92DF92EF92FF926B017C01B9
:102D50000E94BC09B701A60188E090E00E94FC41F6
:102D6000FF90EF90DF90CF900895A3E0B0E0EBEB01
:102D7000F6E10C940341F82E762EE42E622E90910B
:102D8000DE0790FF29C0E92FE695AE2FB0E0A556EB
:102D9000BE4F8C9180930E039E7F923009F59E0169
:102DA0002F5F3F4F8F2D0E94D2094B8169818A810D
:102DB0000E941C16F092DF077092E007E092E10794
:102DC000662051F06091DE077091DF078091E00787
:102DD0009091E1070E94A2162396EFE00C941F4108
:102DE000823019F4E090E107E5CF863019F4F090D5
:102DF000DF07E0CF8930D9F38931E1F6E9518E2F31
:102E00008170582EE695F0E0EC5DFA4FE4910E2FBC
:102E100010E086E1C82E83E0D82EB12CA12C99E9D0
:102E2000892E912CC501B4010E94BC408F2D5110F8
:102E300013C0860F96014E2D672D0E94D209A00E59
:102E4000B11E83E0C80ED11C81EEC81684E0D806FE
:102E500049F70E946213AECF861BECCFEEEDF7E090
:102E6000438121E1421B08F440E021E0628181813D
:102E70000E94B5160895EEEDF7E0438121E1420F7F
:102E800008F44FEF21E0628181810E94B516089518
:102E9000EEEDF7E0628121E1621B08F460E021E0E1
:102EA000438181810E94B5160895EEEDF7E06281BD
:102EB00021E1620F08F46FEF21E0438181810E94DC
:102EC000B5160895EEEDF7E0818121E0438162813E
:102ED00088500E94B5160895EEEDF7E0818121E05B
:102EE00043816281885F0E94B51608958091E20750
:102EF000882319F081508093E2076091DE0770917A
:102F0000DF078091E0079091E1070E94A2160895E3
:102F10008091E207833018F48F5F8093E20760911D
:102F2000DE077091DF078091E0079091E1070E9432
:102F3000A21608959091DE0790FF2CC09170811128
:102F40002AC092609093DE07662351F06091DE07FD
:102F50007091DF078091E0079091E1070E94A2162F
:102F60006091DE07669570E04BE050E081E191E012
:102F70000E949C41892BB1F010920F0381E0809355
:102F80000B0320E04091E1076091E0078091DF07AB
:102F90000E94B51608958B3210F09465D3CF880F38
:102FA000982BD0CF81E080930F030E94CE0790939F
:102FB000090380930803E2CF21E030E0A90102C0B9
:102FC000440F551F8A95E2F7CA012091100366232A
:102FD00071F0822B8093100380910F03811106C042
:102FE0008091DE0760E086950E949A17089580958B
:102FF0008223F0CFCF93C82FC17081FB662760F981
:1030000080E00E94DC176C2F81E00E94DC17CF91DA
:1030100008958091DE078695815009F48AE261E087
:103020000E949A1708958091DE0786958F5F8B32F4
:1030300008F081E061E00E949A1708959091DE0700
:1030400090FF08C09695981728F0961718F40E94DC
:103050001318089561E00E949A170895EEEDF7E0C5
:103060008FE480838EEB81838FEF828386E9838375
:10307000148260817181828193810E94A2160895D9
:103080004F925F926F927F92AF92BF92CF92DF92F8
:10309000EF92FF920F931F93CF93DF93CDB7DEB7DD
:1030A0006C970FB6F894DEBF0FBECDBF8E010F5FD9
:1030B0001F4F8CE1F80111928A95E9F795E6E92E08
:1030C00091E0F92E6801AA24A394B12CF701819113
:1030D0007F018F3F09F452C0F894E82FE295EF701A
:1030E000F0E021A18F70A50102C0440F551F8A9501
:1030F000E2F7CA01922F982B91A392A18095892380
:1031000082A3789400C0ECE6F1E041E050E060E09A
:1031100070E0412C512C320181918F3F89F0A82F12
:10312000A295AF70B0E090962C9130E08F7002C005
:10313000359527958A95E2F7DB01CA0120FF03C088
:1031400080E090E0DC01482A592A6A2A7B2A440F51
:10315000551F661F771F81E0E738F807E9F6F7018A
:10316000319780818F3F11F00E94170CE0EAEA95B9
:10317000F1F7F6014082518262827382F4E0CF0E51
:10318000D11C4CE6E41641E0F40609F09FCF4CE177
:1031900050E0B8018DE892E00E94A941892B81F1AD
:1031A0008CE1F801ADE8B2E001900D928A95E1F76B
:1031B00081E080938C020E94CE0790938B028093D3
:1031C0008A0280918A0290918B020E94B307059730
:1031D000D8F04CE150E06DE872E08FED92E00E9493
:1031E000A941892B39F18CE1EDE8F2E0AFEDB2E0D5
:1031F00001900D928A95E1F781E010928C0205C052
:1032000080918C028111DDCF80E06C960FB6F8942E
:10321000DEBF0FBECDBFDF91CF911F910F91FF9009
:10322000EF90DF90CF90BF90AF907F906F905F90C6
:103230004F90089580E0E1CF8091980A9091FF0B24
:10324000892B8093D80180918802882309F180918D
:10325000BB0A9091BC0A892B29F00E94390E81117A
:103260000E94FF0D8091D80190918802892B809354
:10327000D80120E08AED91E0FC013191CF013111BC
:103280002F5FF1E0803E9F07B9F721110E94FF0DEB
:103290008091CD0B80959091D80189239091CE0B90
:1032A000892B8093D80148E050E06EE772E088ED0A
:1032B00091E00E94A941892BA9F088E0E8EDF1E0B6
:1032C000AEE7B2E001900D928A95E1F7E091DB0B59
:1032D000F091DC0B309731F00280F381E02D88ED26
:1032E00091E009950895CF93DF93EC01EA85FB8582
:1032F000309719F06C857D8509958B810E941E0E93
:103300008C810E94250E0E941C1986E0FE011192FC
:103310008A95E9F7DF91CF910895CF93DF93EC0180
:103320008D8181FD15C082608D838091FF0B9B8113
:10333000892B8093FF0B8C810E942C0E0E941C19FC
:10334000E885F985309721F06C857D85CE0109955A
:103350001092D80B1092D70B8D8180FD03C0CE0147
:103360000E947319DF91CF91089580912901877F81
:103370008093290182E00E941E0E8091290184FF22
:1033800006C08F7E8093290182E00E942C0E8091DE
:10339000290185FF06C08F7D8093290180E20E946C
:1033A0002C0E0E941C19089590E080E00E940A08EB
:1033B00090E080E00E94F4071092FF0B0E941C191D
:1033C00086E0E2E0F3E0DF011D928A95E9F71092D2
:1033D000FC021092FB021092FD020E946B0A0895FB
:1033E0008093FE0B0E94D41908958091FE0B982FB4
:1033F0009670963021F488600E94F0190895877FB6
:10340000FBCF21E030E001C0220F8A95EAF720953A
:103410008091FE0B82230E94F019089590917D0205
:103420008095892380937D02282F277091F4282F7F
:10343000082E000C330B9217130659F09091970A3F
:1034400092FF07C08595859585950E94011A0E9477
:10345000320E08959091970A92FB222720F928179F
:1034600069F080FB92F99093970A8091960A909167
:10347000970A0E94521282E00E940E1A089521E0DB
:1034800030E001C0220F8A95EAF78091FE0B822B73
:103490000E94F01908959091970A92FF10C098E049
:1034A000899F90011124622B60937D020E943F1A34
:1034B0000E94CE0790937C0280937B0208950E9425
:1034C0003F1A0895809389020E94D419089510929A
:1034D000980AEAEDF1E086E0DF011D928A95E9F7AE
:1034E0000E94D4190895AAE2B0E0E9E7FAE10C9449
:1034F0000F4185EF9BE02091F100DC012D93CD0180
:10350000BBE08D3F9B07B9F78091F60B833009F440
:1035100072C0B8F4813009F449C0823009F4B3C0F4
:103520008091E80083FF96C28091F50B9091F60B95
:103530009A3008F08FC2E92FF0E0E557FD4B0C946C
:10354000E4408A3009F48EC08B3009F471C08930B0
:1035500039F78091F50B813219F78091F90B909131
:10356000FA0B009711F00297D9F68091E800877F57
:103570008093E8008091E80082FF38C08091F200DB
:103580009091F300029731F48091F100813011F0B5
:10359000863021F48091F1008093E90B8091E8005E
:1035A0008B778093E8000E94A506BACF8091F50B37
:1035B000813A09F0B5CF8091E800877F8093E800D9
:1035C0008091F90B9091FA0B892B61F468E08AEEF7
:1035D0009BE070E00E9452078091E8008B77809317
:1035E000E8009ECF60E090E080E0F3CF8091FD0B9B
:1035F0008111C0CF95CF8091F50B813A09F090CF22
:103600008091F90B9091FA0B892B09F089CF809169
:10361000E800877F8093E8008091E80080FFFCCF7E
:1036200080912B018093F1008091E8008E77B9CFD3
:103630008091F50B813209F073CF8091F90B909155
:10364000FA0B892B09F06CCF8091E800877F80937B
:10365000E8000E94A5068091F70B80932B010E9441
:10366000671A5ECF8091F50B813209F059CF8091B6
:10367000E800877F8093E8000E94A5068091F80B00
:103680008093E80B4DCF8091F50B813A09F048CF3C
:103690008091E800877F8093E8008091E80080FFB8
:1036A000FCCF8091E80BBECF803899F0823809F0CA
:1036B000D1C18091F90B8F70873008F0CBC1809316
:1036C000E9008091EB0085FB882780F91092E900E2
:1036D00006C08091F20B9091F30B91118260909152
:1036E000E800977F9093E8008093F1001092F1003A
:1036F0008091E8008E77AAC1882309F498C18230AE
:1037000009F0A8C18091F70B81119BC18091F90B41
:103710008F702FEF280F263008F09CC18093E900AE
:103720002091EB0020FF8DC1933031F48091EB00AC
:1037300080628093EB0085C19091EB009061909343
:10374000EB0021E030E001C0220F8A95EAF72093D8
:10375000EA001092EA008091EB008860EACF8111C4
:1037600079C11091F70B1F778091E3008078812B4E
:103770008093E3008091E800877F8093E8000E94B7
:10378000A5068091E80080FFFCCF8091E30080686F
:103790008093E30082E0111183E08093FD0B5AC116
:1037A0008058823008F056C12091F70B3091F80B09
:1037B0002C3DE3E03E07A1F583E08A838AE289831A
:1037C0004FB7F894DE01139620E03EE051E2E32F7C
:1037D000F0E050935700E49120FF03C0E295EF70B2
:1037E0003F5FEF708E2F90E0EA30C0F0C7968D9368
:1037F0009D932F5F243159F74FBF8091E800877F59
:103800008093E8006AE270E0CE0101960E945207C0
:103810008091E8008B778093E8001CC1C096E7CFC9
:103820008091F90B9091FA0B432F552743305105A6
:1038300009F44AC078F54130510509F485C08BE59B
:1038400090E0E9E2FAE04230510509F003C120912D
:10385000E800277F2093E8002091FB0B3091FC0BC0
:103860008217930708F49C0140E02115310509F007
:1038700070C041116EC08091E80082FDC9CF809177
:10388000FD0B882329F2853019F28091E80083FF2F
:10389000F2CFBECF4132510509F447C04232510543
:1038A00009F0D8C08330910508F0D4C0FC01EE0FB8
:1038B000FF1FE753FE4F0190F081E02D8A539E4F8A
:1038C000DC018C9190E01DC0332721303105E9F0F7
:1038D0002115310579F022303105F9F02330310519
:1038E00009F0B8C0E6E9FAE0E4918E2F90E0E6E94D
:1038F000FAE007C0EEEDFAE0E4918E2F90E0EEEDF5
:10390000FAE0009709F4A6C0A2CFE6ECFAE0E49151
:103910008E2F90E0E6ECFAE0F4CFE4EBFAE0E491ED
:103920008E2F90E0E4EBFAE0ECCF8330910508F0C5
:1039300091C0880F991FFC01E153FE4F0190F08167
:10394000E02D89E090E083CF82E190E0E4E8FAE0C6
:103950007ECF8091FD0B882309F45ACF853009F47E
:1039600057CF8091E80083FD53CF8091E80082FD1E
:1039700082CF8091E80080FF78CF8091F200909113
:10398000F3002115310519F08830910550F041E020
:10399000089709F040E08091E8008E778093E80076
:1039A00064CF44914093F100319621503109019642
:1039B000E8CF803809F04EC08091E800877F80937F
:1039C000E8008091F40B8093F10092CE811142C007
:1039D0001091F70B1230F0F58091E800877F80930B
:1039E000E8001093F40B0E94A506112311F084E067
:1039F00005C08091E30087FDFACF81E08093FD0B45
:103A000042E061EC81E00E94C40642E261EC84E0A5
:103A10000E94C40642E261EC82E00E94C40642E2D7
:103A200060EC83E00E94C4068091FD0B13C080917E
:103A3000F70B813079F481E0933009F080E08093D6
:103A4000F30B1092E9008091E800877F8093E800F3
:103A50000E94A5068091E80083FF0AC08091E800DB
:103A6000877F8093E8008091EB0080628093EB0079
:103A7000AA96E3E00C942B41E9EBFAE0128E138E48
:103A80008FEA90E09183808325E0248F88E893E19A
:103A9000938382838AE090E09583848344E150E0BD
:103AA0005783468348E050E0518740879387828759
:103AB0006EE170E0758764879787868780E590E080
:103AC000918B808B538B428B48E250E0558B448B1B
:103AD00042E350E0578B468B48EC50E0518F408FCB
:103AE000158E178E168E91A380A322A30E94961185
:103AF0000E94671A1092970A1092960AE7E9FAE074
:103B00008081846080838091960A9091970A0E94B8
:103B100052120E9413100895AEE1B0E0E2E9FDE117
:103B20000C940341A090900AB090910A81E090E03B
:103B30009093910A8093900A89E2882E86E0982ECD
:103B400099E3C92E96E0D92E10E0760100E015C069
:103B5000F30125913491452D602F812F0E940F1282
:103B600082E0680E711C5394EBE15E12F1CFF6E334
:103B7000EF0EF11C0F5F073019F03701512CE8CF21
:103B8000740100E0F7012591349141E0602F812F0D
:103B90000E94DE11F70132962591349140E0602FAA
:103BA000812F0E94DE1184E0E80EF11C013059F4EF
:103BB000E8E08E0E911CF6E8CF1AFEEFDF0A113016
:103BC00021F011E0C2CF01E0DDCF0E943C1D1A823E
:103BD00019821C821B821E821D8218861F8288EC1D
:103BE00090E09A8789870FE413E04AE050E0B8013B
:103BF000CE0101960E940E42065F1F4F0F3E83E0EA
:103C0000180799F77E01EBE0EE0EF11C8AE0F70150
:103C100011928A95E9F74AE050E0B801C7010E9485
:103C20000E42065F1F4F0F38F4E01F07A1F77E0119
:103C300085E1E80EF11C8AE0F70111928A95E9F717
:103C40008FEF9FEF9A8F898F87E08E8F4AE050E049
:103C5000B801C7010E940E42065F1F4F0F32F5E008
:103C60001F07A1F7B092910AA092900A6E96EFE01A
:103C70000C941F4180E00E94391260E086E290E0DF
:103C80000E94EA410E948C1D0E94CE1181E00E9498
:103C900039120895CF92DF92EF92FF928FEF9FEF4C
:103CA0004430510508F46AC0FB01C080D180E28035
:103CB000F3800E94671A8091960AC0FA80F9B701D2
:103CC000A601769567955795479540FB81F9B70111
:103CD000A60122E076956795579547952A95D1F7E5
:103CE00040FB82F9B701A60133E0769567955795B9
:103CF00047953A95D1F740FB83F9B701A601E4E077
:103D00007695679557954795EA95D1F740FB84F9E5
:103D1000B701A601F5E07695679557954795FA9511
:103D2000D1F740FB85F9B701A601A6E07695679526
:103D300057954795AA95D1F740FB86F9B701A6019B
:103D4000B7E07695679557954795BA95D1F740FBBB
:103D500087F98093960A8091970AD0FA80F9D1FA70
:103D6000CC24C0F8C0FA81F98093970A8091960A12
:103D70009091970A0E94521290E080E0FF90EF909D
:103D8000DF90CF9008950E94671A2FEF84E39CE0A4
:103D9000215080409040E1F700C0000088E19CE0A5
:103DA0000FB6F894A895809360000FBE90936000C2
:103DB000FFCF882321F00E941E0E0E941C19089537
:103DC000882339F09091FF0B982B9093FF0B0E9462
:103DD0001C190895882321F00E94250E0E941C19A9
:103DE0000895882321F00E942C0E0E941C1908952A
:103DF000882379F19CEF980F913A28F40E94530E92
:103E00000E941C19089590E2980F983050F4877022
:103E100091E001C0990F8A95EAF7892F0E94250E3B
:103E2000EFCF9BE5980F933028F490E080E00E945C
:103E30000A08089598E5980F973128F490E080E0FB
:103E40000E94F4070895803F20F00E94920A0E9489
:103E50006B0A0895FF920F931F93CF93DF93F82E71
:103E60000091D20B1091D30B0115110509F449C033
:103E70001092D10B1092D00B1092CD0B1092CE0B52
:103E8000D8011696CD91DC919E013A9521153F41BE
:103E900008F4D07ED1E0C11101C0D0E0D80119965C
:103EA000ED91FC911A97309731F01B966D917C91B2
:103EB00080E00995D823DD2339F08CEF8C0F813A0F
:103EC00030F58C2F0E94530EFF2099F0E091D20B19
:103ED000F091D30B808584FD0CC08091CF0B88239B
:103EE00041F0808191819C0121503109203B3D4569
:103EF000A0F00E941C191092D30B1092D20B1092BA
:103F0000CF0BC801CDB7DEB7E5E00C9429410E9484
:103F10001C198C2F0E94F81ED7CF0E942D08E9CFC4
:103F2000CF93DF93EC010E94F81ECE010E94320F66
:103F30009E01205E31092830310510F0CD2B29F487
:103F40000E94EA1EDF91CF9108950E94D91EFACFF8
:103F5000CF93C82F8823A1F08CEF8C0F813A90F477
:103F6000EAEDF1E08191C817E1F181E0E03EF80768
:103F7000C9F76C2F88ED91E00E94DA070E941C19A6
:103F8000CF91089580E28C0F883048F4C77081E0AB
:103F900001C0880FCA95EAF70E942C0EEFCFEBE51F
:103FA000EC0FE33040F4F0E0EC5CFE4F808190E0F9
:103FB0000E940A08E5CFE8E5EC0FE73150F4F0E0A5
:103FC000EE0FFF1FE95CFE4F808191810E94F40794
:103FD000D7CFC03FA8F28C2F0E94AD0B0E946B0A76
:103FE000CFCF8C2F0E94530E0E941C19C2CF1F935B
:103FF000CF93DF93182FC091D90AD091DA0A893371
:1040000021F0C091D70AD091D80A812F0E94A81F11
:10401000209739F4812F0E94F81EDF91CF911F91D4
:1040200008958FE99FE00197F1F700C00000219704
:10403000EFCFB0E0A0E0EFE1F0E20C940841EC013A
:104040008AE0A82E2881222309F48FC02130C9F5E7
:1040500099818A81913021F422960E94F71F05C030
:10406000923029F422960E94A81F2196EBCF93301C
:1040700021F422960E94F81EF8CF943011F0219678
:10408000F4CF229630E020E0AE014F5F5F4F8053C7
:10409000990B8A30910550F02150310930F38FE9A6
:1040A0009FE00197F1F700C00000F6CFA29EB0019B
:1040B000A39E700D11249C01260F371F8981EA01F0
:1040C000E3CFE22FF0E0EE5EF44FB490822F8695BE
:1040D0008695869590E0FC01EE5FF44FE4902770A2
:1040E000F12C022E02C0F594E7940A94E2F731E035
:1040F000E322FF24FC01EE50F54FC490D12C022E98
:1041000002C0D594C7940A94E2F731E0C322DD24BB
:10411000FC01EE51F54F049110E002C01595079592
:104120002A95E2F701701127E114F10419F081EEEC
:104130000E94A81FC114D10419F086EE0E94A81F86
:104140008B2D0E94F71FC114D10419F086EE0E9436
:10415000F81EE114F10419F081EE0E94F81E011519
:10416000110509F482CF8CE278CFCDB7DEB7EAE053
:104170000C942441B0E0A0E0E0ECF0E20C940841A3
:104180007C015B01C42FD22FFC0182818823A9F01E
:104190004093D60B0E94CE079093D50B8093D40BFF
:1041A000C77081E001C0880FCA95EAF70E94F11E2E
:1041B000CDB7DEB7EAE00C9424411091D60B14136E
:1041C00038C08091D40B9091D50B0E94B3076C013D
:1041D000B701C5010E947412C816D90650F5C0E295
:1041E000CD0F1D17C1F080E2810F883048F41770A1
:1041F00081E0012E01C0880F0A94EAF70E94EA1EAE
:10420000C83048F481E09D2F977001C0880F9A95BF
:10421000EAF70E94F11E802F0E94F71FC83040F677
:10422000D77081E001C0880FDA95EAF70E94EA1E94
:10423000BFCFC77081E001C0880FCA95EAF7F6CFFB
:10424000CF93DF93EC010E94320F9E01205E310973
:104250002830310510F0209741F40E94F11E8C2F78
:104260000E94A81FDF91CF9108950E94E01EF7CF12
:10427000662329F02091FF0B22602093FF0B9C0105
:104280003056211540E2340720F0305E21153041D0
:1042900008F499270E9420210895B0E0A0E0E3E50A
:1042A000F1E20C940B417C018B01D42E8091290109
:1042B00082FF8CC0C091DF0AD091E00ACE15DF05E5
:1042C00021F0E114F10409F081C0809129018B7F74
:1042D0008093290181FD73C08091DD0A9091DE0AEF
:1042E000A801481B590B81E020912701309128013A
:1042F0004217530708F480E08170F82E809129015D
:10430000F0FA81F980932901FE0183E0F695E795A3
:104310008A95E1F7EE71FF27E756F54F208131814D
:10432000AE014F70552781E090E002C0880F991FC1
:104330004A95E2F7FF2009F444C0822B932B918326
:1043400080838091980A81FF08C080912901806153
:104350008093290182E00E94250E8091980A85FFB2
:1043600008C08091290180628093290180E20E9427
:10437000250E6F2DCE010E943821DD2031F0809175
:10438000D40A85FF02C086FF3BC08091D70A909176
:10439000D80A0E9409108091DF0A9091E00A9C01DE
:1043A0003056211540E2340720F0305E21153041AF
:1043B00008F499270E94901F0E94B5191DC081E042
:1043C0009BCF8095909582239323B9CFC7019927DE
:1043D00097013056211540E2340728F0305E211550
:1043E000304108F0C7010E94901F8091DF0A909130
:1043F000E00A8E159F0501F31093DE0A0093DD0A93
:10440000CDB7DEB7E7E00C94274168EE7EEF90E091
:1044100080E00E94084260E082E090E00E94EA4171
:1044200060E083E090E00E94EA411092890260E03F
:1044300084E090E00E94EA4164E082E290E00E9421
:10444000EA4160E085E090E00E94EA4160E086E0B9
:1044500090E00E94EA416FEF87E090E00E94EA411D
:1044600040E050E0BA0188E090E00E94FC4160E04A
:104470008DE090E00E94EA4140E050E0BA0188E11E
:1044800090E00E94FC4160E087E190E00E94EA41F8
:1044900040E050E0BA018CE190E00E94FC4170E005
:1044A00060E080E290E00E94084240E050E0BA0103
:1044B00088E190E00E94FC4180E00E9439120E9455
:1044C0003A1E40E050E0BA018FE090E00E94FC41CB
:1044D00040E050E0BA0183E190E00E94FC41089581
:1044E000A7E0B0E0E6E7F2E20C9400417C01DC01D9
:1044F00013964D915C91149711966C9111978C9134
:104500000E949E088111EEC061E0C7010E944B111C
:104510008C01F70182818823E1F08091D70B909183
:10452000D80B0097B1F00817190799F0FEE08F9F9C
:10453000C0011124FC01EE5FF74F2081246020832D
:104540008350984FDC010D931C930E948D1910929B
:10455000FF0BF7018281882311F40C94F72BC8011B
:1045600082519F45409710F00C94E92B8FEF97E014
:104570000E94D6418111A6C07EEED72ED00E0FE24A
:1045800015E0D11036C019821A821B821C82992430
:104590009A9468012FEFC21AD20AC8010E94D6412C
:1045A00089831A82882309F48DC0813009F07FC085
:1045B000580132E0A30EB11CC6010E94D641C82E9C
:1045C0008A83882309F47EC0C5010E94D641D82E73
:1045D0008FEF8C0D8330D8F4580143E0A40EB11C4A
:1045E000DB82DD2021F0CE0101960E941920850199
:1045F000D0CF0115F8E01F0709F464C0C8010E947C
:10460000D641811101C0DA940F5F1F4FBACF8BEFF3
:104610008C0D833030F5C8010396DB825C01DD2010
:1046200031F3580154E0A50EB11C0E94D6418C8391
:104630008823E9F28B819C818130AFEF9A0710F0DB
:10464000982F8827B6E0CB1631F0E7E0CE1631F090
:104650000E949B33CCCF0E947533C9CF0E94FC329D
:10466000C6CFF4E0CF12C3CF580124E0A20EB11C94
:10467000C80103960E94D641DD2021F1882311F163
:104680008150990B989E9001999E300D11244D2DCB
:104690004150550BCA01820F931F019708F4A7CF11
:1046A000AFE9BFE01197F1F700C00000F6CFCE01EF
:1046B00001960E94192056019ACF81E00E943F1A6C
:1046C0000E94F51980917D02877061F0D7011296E2
:1046D0008C91882339F08091970A82FF03C082E091
:1046E0000E940E1A2796E2E10C941C4181E00E9480
:1046F000011AE6CF82E0FBCF823011F00C94392C06
:104700008091F7079091F807892B11F40C94392CBC
:104710002EE02C9DC0012D9D900D1124FC01EE5F1B
:10472000F74F20812E7F20838350984F0E948D1950
:104730000C94392C81E080930401C4CF8091040152
:10474000882309F471C7480120EE821A910840902D
:1047500088028091E301482A8091980A482A38E02B
:104760008316910408F08AC098012770332781E0EE
:1047700090E001C0880F2A95EAF7552009F47BC024
:10478000482AD7018D919C910E94B10E21E030E022
:10479000F90102C0EE0FFF1F8A95E2F7FF83EE8357
:1047A0002090D20B3090D30B6090E0017090E1012B
:1047B0001D822D81E22FF0E0EE0FFF1FE258F64F31
:1047C000C080D180C114D10409F492C7411005C042
:1047D000D60112968C9181118EC0F601838190E0F2
:1047E0002E813F8182239323892B09F484C0808505
:1047F000982F977009F487E038E08316910408F049
:1048000057C0552009F450C086958170882309F45B
:1048100072C0D601AD90BC900A151B0519F4552045
:1048200009F469C0C214D30409F465C0D6011D9609
:10483000ED91FC91309721F08081882309F45BC0D1
:10484000642DC6010E947E08882309F454C00A150D
:104850001B0511F00C94BA2C0115110511F40C94E0
:10486000C02C51100C94C22CA614B70409F043C0FC
:10487000512C0C94C22C8095482283CF552009F4EA
:1048800020C71093E1010093E0010E94C2076093EA
:10489000C90B7093CA0B8093CB0B9093CC0B1092E7
:1048A000D10B1092D00B6DCF82FB882780F9AECF51
:1048B000552009F18170AACF0E94F81E0C94E12CBA
:1048C0000497813A910558F46A2D88ED91E00E9491
:1048D000DA07552009F4A8C60E941C19F3CE0E94DD
:1048E0001C198FE39CE90197F1F700C000008A2DA5
:1048F0000E94A81FEECF9D819F5F9D835ACFFC0130
:10490000208131810217130709F087C6511087C62D
:104910001092CF0B80E00E942A1F86C6902F812F15
:10492000CBC6F901858181FFF7C6C9010E947319C1
:10493000F3C6809129018160809329011BC7809172
:1049400029018E7F809329010E94B51913C7809198
:1049500029018F7E013E110531F0053E1105C9F494
:10496000809129018F7D809329018091290180FF09
:1049700010C7D70112968C910832110528F50E3117
:10498000110508F072C00430110580F58111FDC6D3
:1049900000C7C8019056811540E2940720F0905E50
:1049A0008115904110F78091290182FFF2C6809114
:1049B000D60A81FDEEC62BEC32E040E0B60190E075
:1049C00080E00E944D21E5C60933110558F40D32EF
:1049D000110518F40B321105C9F69091D40A92FD15
:1049E000D5CF08C004361105C1F3D0CF9091D40AB9
:1049F00094FDCCCF882309F4A8C0809188029091BF
:104A0000980A892B8D7FB1F11092E00A1092DF0A8B
:104A10008091D40A81FD2EC0F80143E0F695E79518
:104A20004A95E1F7EE71FF27E756F54F98012F7091
:104A3000332781E090E002C0880F991F2A95E2F7A2
:104A40008095909520813181822393239183808367
:104A500060E0C8010E943821809188028D7F0E9409
:104A60000A0E82E00E940E1A2DCE9091D40A93FD78
:104A70008DCFC0CF88E0F701ABECB2E001900D9292
:104A80008A95E1F71092CD021092CF021092CE02D9
:104A90008091DF0A9091E00A08171907D1F520915B
:104AA000D40A25FF36C03091290131FF02C026FF0C
:104AB00030C02091DD0A3091DE0A5601A21AB30AF5
:104AC000B7010E947412A816B90618F58091980AC9
:104AD00081FF08C08091290180618093290182E0D3
:104AE0000E94250E8091980A85FF08C080912901B7
:104AF00080628093290180E20E94250E6091290145
:104B0000669561708091DF0A9091E00A0E943821D9
:104B1000D9CD809188029091980A982B20912901F3
:104B200091FB21F9209329018D7F0E940A0E109399
:104B3000E00A0093DF0AD092DE0AC092DD0A80917B
:104B400029018460809329018CCF970140E0B60150
:104B5000C8010E944D21B6CD053F4CE5140709F46C
:104B600063C008F45BC0063F8CE5180709F462C017
:104B7000D70112963C91332309F49FC61092D60BAD
:104B80000330BDE51B0708F061C00A3FECE51E07D6
:104B900030F4C80182509C45449708F062C00E94DE
:104BA00072119093970A8093960A02315CE515077B
:104BB00009F47FC108F0CFC009309CE5190709F45A
:104BC00056C108F099C00530BCE51B0709F443C184
:104BD00008F080C00330FCE51F0709F434C108F079
:104BE00036C18091960A816002303CE5130709F4D2
:104BF000AFC08091960A9091970A0E9452120E942B
:104C0000671A60CD07E225EE45EE68ED7CE5DCC570
:104C100006E221EE40EE63EF7CE5D6C507E225EE25
:104C200044EE64EF7CE5D0C506E221EE42EE65EF8E
:104C30007CE5CAC507E225EE46EE66EF7CE5C4C515
:104C400008E221E045EE69ED7CE5BEC5053AFDE5EB
:104C50001F0709F4A4CFC0F501364DE5140709F488
:104C60009ECF06315CE5150709F024C28091980AB1
:104C7000982F9A7A2091D30A20FF04C0482F4474B9
:104C800009F090E021FF04C0482F417109F090E045
:104C900022FF04C0482F487809F090E023FF03C0AA
:104CA000827209F090E0332309F42DC181E0911163
:104CB00001C080E08093E20169E2911165E388ED33
:104CC00091E00E94DA0708CEC8018D5A9D450397EE
:104CD00040F665CF8091960A806207304CE5140754
:104CE000B9F18091960A806108305CE5150780F182
:104CF0008091960A80642CC00D308CE5180709F469
:104D0000C0C090F48091960A8E7F0B30ACE51A07F4
:104D1000F9F08091960A8C600C30BCE51B07C0F05E
:104D20008091960A8D7F14C00F30ECE51E0709F4C0
:104D3000B8C008F4AAC000312CE5120709F4B5C0C8
:104D40008091960A8F7B01313CE5130709F051CF22
:104D50008093960A4ECF0F3F4CE5140709F4B3C079
:104D6000A8F50A3F8CE5180709F479C0C0F40431AE
:104D7000ACE51A0709F4B5C008F4A1C00531ECE5AB
:104D80001E0709F036CF8091960A82FB992790F989
:104D900021E0922790FB82F990FB83F9D9CF0C3F59
:104DA000FCE51F0709F475C008F45DC00D3F3CE544
:104DB000130709F472C08091970A83600E3F4CE597
:104DC000140709F016CF8093970A13CF01365DE5DB
:104DD000150709F491C090F401309DE5190709F415
:104DE00089C008F474C060E00230BDE51B0709F01B
:104DF00000CF8EE090E00E94EA41FBCE0D3AEDE557
:104E00001E07E9F060F49091960A892F8E7F90FF3B
:104E10008160053A2DE5120709F49ACFEACE0E3AE1
:104E20003DE5130751F10F3A4DE5140709F0E1CEC6
:104E30009091970A892F877F93FF8860C4CF8091D4
:104E4000970A8860C0CF8091960A826081CF809156
:104E5000960A84607DCF8091960A886079CF809190
:104E6000970A8160B0CF8091970A8260ACCF0E9490
:104E7000671A8091960A80686BCF8091970A877F26
:104E8000A2CF8091960A8B7F63CF8091960A877F0D
:104E90005FCF8091970A8E7F96CF8091970A8D7F02
:104EA00092CF8091960A8F7E53CF8091960A8F7D04
:104EB0004FCF0E94671A8091960A8F7749CF8091D1
:104EC000960A837F45CF8091970A8C7F7CCF809113
:104ED000970A982F909591708E7F892B90FB81F97E
:104EE00072CF0E94671A9091960A892F97FB87F9D3
:104EF00080582ECF61E07DCF9091960A892F8F7ECA
:104F000094FF806125CF8091E201811104C089E284
:104F10000E94530EE1CC85E3FBCF043C4CE5140723
:104F200009F495C0053C5CE5150709F0E8C442E6C4
:104F300057E16CE677E114C0093C9CE5190709F4D8
:104F400095C088F4073CBCE51B0709F48AC045E519
:104F500057E168E477E1083CECE51E0709F0CFC4AF
:104F60000E94B509AFCB0A3CFCE51F0709F483C0DA
:104F700046E757E168E877E10B3C2CE5120781F33F
:104F8000BEC4013D3CE5130709F488C0B0F40E3CF3
:104F90005CE5150709F47CC008F477C00F3C9CE57C
:104FA000190709F478C06EE089E0003DACE51A0706
:104FB00009F0A5C40E941E1885CB043DBCE51B0763
:104FC00009F472C078F4023DFCE51F0709F469C0DA
:104FD00061E088E1033D2CE5120709F090C40E94CE
:104FE0009A1770CB053D3CE5130709F460C06AE2EF
:104FF00085E20D351007F1F282C48091DE0780FF53
:105000001BC08E7F8093DE076091DE077091DF0703
:105010008091E0079091E1070E94A21610920F0381
:105020005FEF80E792E0515080409040E1F700C090
:1050300000000E94621346CB81608093DE0761E02E
:105040008695CDCF49E058E163E178E189CF43E12E
:1050500058E169E078E184CF4CE657E162E677E118
:105060007FCF48E457E165E577E17ACF4EE257E13B
:105070006BE377E175CF4BE357E16EE277E170CFF9
:1050800048E857E166E777E16BCF61E081E0A7CFC1
:1050900065E082E08FCF68E086E08CCF64E18FE04E
:1050A00089CF67E185E186CF62E289E183CF61E064
:1050B00083E295CF0A35ADE51A0771F158F4011571
:1050C000ECE51E0791F00E3D1C4509F018C40E9446
:1050D000052209C00C352DE51207A1F0F8F0073ABA
:1050E0001D4509F00CC40E94C31E0E94671A5FEFA1
:1050F00084E39CE0515080409040E1F700C0000004
:105100000E94E50F8091970A82FB882780F991E041
:1051100089270E942A1AF3C381E0FBCF80E0F9CFF0
:10512000828100811181882369F0C8010E94CF101B
:10513000D82E682FC8010E94FB0EB8018D2D0E9449
:10514000A510E3C3C8010E94B10ED82EF6CF202FC0
:105150002F70B22E802F807F19F0B29490EFB92279
:10516000DD20A9F0BB2059F080E2810F883010F0DB
:10517000111107C08B2D0E942C0E0E941C19812F2B
:105180005AC08091FF0BB82AB092FF0BF6CF812F47
:105190000E94F81EBB2009F450C080E2810F8830C5
:1051A00010F0111104C08B2D0E94250E03C08B2D11
:1051B0000E941E0E0E941C1940C0302F3F70B32E5B
:1051C000802F807F803219F0B29480EFB8221123B3
:1051D00021F1113009F4B0C0DD2009F4B9C0CC20B0
:1051E00009F481C020E0D7014C9111965C91119790
:1051F00012966C91129713967C91139714968C913A
:105200000E9428118091D60A81FDB9CFF7018581CE
:1052100080FFB5CF8F70858366C08091970A82FD2D
:1052200042C0DD20D1F1BB2029F08B2D0E942C0E35
:105230000E941C1980E00E94A81FA92DA850BB0B3A
:10524000149720F40E9420080E94FA17812F902FB3
:105250000E94170F8111C2C11092E5011092E40162
:10526000AA20B1F080917D0280FD12C0D701129674
:105270001C928595859585950E943F1AC7010E94CD
:10528000702280917D028595859585950E94011AF1
:1052900060E0C7010E944B1125CA80E00E94F81E01
:1052A000BB2059F280CFDD2011F1C11004C08091E4
:1052B00088028B2919C041E0C41206C0809188027F
:1052C0008B290E940A0EB9CF8091D50A823078F3DB
:1052D000C812EDCF0E94FF0D9091E3018B2D892B19
:1052E00089138093E3018B2D0E94F11EA6CFC1107C
:1052F00003C00E94FF0D17C08091D50A51E0C5126E
:1053000016C0823008F499CF8091980A8B2109F455
:1053100094CF0E94FF0D9091E3018B2D80958923FE
:1053200089138093E3018B2D0E94EA1E86CF823081
:1053300000F3C812DECF81CF8091DB0ADD2021F09F
:105340008C1508F47ACFCFCFC81608F076CFEBCF04
:10535000CC2049F38091D90A9091DA0A193321F0CF
:105360008091D70A9091D80A0E940910812F0E943B
:10537000F81E63CF802F86958695837069F0813003
:1053800009F05BCF812F902F9370D11002C090E075
:1053900080E00E94F40751CF812F902F9370D1109D
:1053A00002C090E080E00E940A0847CF812FDD20F4
:1053B00029F00E94AD0B0E946B0A3FCF0E94920A17
:1053C000FACF802F837091F5D11037CF412F4295BE
:1053D00046954770440F440F812F8F70042E01C0F3
:1053E000880F0A94EAF7212F207114FF07C02FE0DD
:1053F00030E001C0220F4A95EAF72095302F36950C
:1054000036953370323069F050F440918902313072
:1054100029F0822B84230E94621A0FCF842B822BC7
:10542000FACF282B809189028227F5CF8695DD203F
:1054300011F0802F8170882309F4FFCE412F42950F
:1054400046954770440F440F812F8F70042E01C082
:10545000880F0A94EAF7212F207114FF07C02FE06C
:1054600030E001C0220F4A95EAF72095302F36959B
:1054700036953370323069F050F44091FE0B313084
:1054800029F0822B84230E94F019D7CE842B822B03
:10549000FACF282B8091FE0B8227F5CFF02FFF70DB
:1054A000BF2EDD2029F08F2F0E943F1A812F1CCFA5
:1054B000812F0E94EA1E8B2D0E94011ABECE123F40
:1054C00089F160F4103FB9F0113F81F0DD2009F45B
:1054D00080C0C11054CE802F8F7128C0133F49F176
:1054E000143FA1F78091970A82FD2FC0802F8F7102
:1054F000DD2011F31BC08091DB0ADD2079F0C81696
:1055000008F09BCE202F2F7181E090E001C0880F22
:105510002A95EAF79091FE0B8927B5CF8C1508F4F0
:105520008CCEF0CF802F8F71D110C6CF0E943F1A42
:1055300084CE80E0DD2009F4A6CF81E0902F9F711A
:1055400001C0880F9A95EAF79ECF8091D50A8230E4
:1055500040F1DD20D1F090917D029770943041F4BC
:105560000E94320E802F8F710E94011AA12C65CEED
:10557000C816E0F7202F2F71B22E822F0E943F1AFB
:1055800063E08B2D0E944B1AF1CFC81630F00E94B9
:10559000320E64E0802F8F71F5CF81E00E940E1AE9
:1055A000E5CFDD2059F0302F3F71B32E832F0E94BD
:1055B0003F1A63E08B2D0E944B1A3FCE81E00E9480
:1055C0000E1A41E04C1508F038CE82E00E940E1A07
:1055D00034CEC110BFCE802F8F716ECFDD2019F079
:1055E000C1103ACE3DCEC11037CE20E0F701408148
:1055F00051816281738184810E9428118091D60A31
:1056000083FF2ACE8091E4019091E501029709F091
:1056100023CE812F0E94F71F1FCE552029F0DC01D9
:1056200018968C9185FF76C9C80197558F3F9105D3
:1056300011F008F071C05801BB24BEE00B9FF001CF
:1056400011249F012350384F6901D70112968C9184
:10565000EE5FF74F908180FB90F99083882309F4E7
:1056600060C90E94CE079093CA028093C902F601D6
:1056700082818F5F82838091FF0B9091980A892BA2
:1056800083838091880284830680F781E02D3097A0
:1056900031F0D6011C966D917C91C60109958EE082
:1056A0008A9DF0018B9DF00D1124E350F84F858108
:1056B00081FF34C990E080E09093D70B8093D80BA2
:1056C0002BC08091E0019091E1010817190781F446
:1056D0001092E1011092E0011092C90B1092CA0BD6
:1056E0001092CB0B1092CC0B1092D10B1092D00BCE
:1056F0008091D20B9091D30B009709F495CFA8E03D
:105700008A16910408F0FBC8642D0E947E0881115E
:1057100003C081E00E942A1F8091D40A80FF39C013
:105720000E94CE076C01D70112968C91882309F450
:105730000EC98091290182FF08C02BEC32E040E0C5
:10574000B60190E080E00E944D210B31BCE51B07C3
:1057500009F4EFC80C31ECE51E0709F4F0C890918C
:105760002901892F8E7F90FF81600A31FCE51F0798
:1057700009F4E8C8C8019056811520E2920728F084
:10578000905E8115904108F0F0C81092E00A1092E6
:10579000DF0A033FBCE51B0709F43ACA08F0DCC97D
:1057A000083DFCE51F0709F42DCA093D2CE5120749
:1057B00009F446CA073D3CE5130709F0D9C906E2DA
:1057C00021EE41EE67ED7CE5C7010E94BA200C9402
:1057D00062230031FFE51F0711F40C945D230131B2
:1057E0002FE5120709F045C082E00C945E230031DA
:1057F0003FE5130711F40C94762301314FE51407AC
:1058000011F40C947A236801E7E5DE1AFFEFCF1656
:10581000D10409F070F563EF77E08C2D0E946012DF
:10582000892B39F58EE08C9DF0018D9DF00D1124B2
:10583000E350F84F8281813011F00C947C238091E9
:10584000F3079091F407892BA1F08091F5079091CF
:10585000F607892B71F08091F7079091F807209156
:10586000F9073091FA07822B932B892B11F40C94B2
:105870008823D70112965C90552011F40C949E2336
:105880000F35BDE51B0711F40C949A230036EDE5A6
:105890001E0761F00E35FDE51F0711F00C949E23E5
:1058A00080910401882311F40C949A23109204012E
:1058B00080E00E942A1F0C94622306315CE51507E4
:1058C00009F4D4C98091980A82720C3C9CE51907AE
:1058D00009F4D6CB08F055CB063CBCE51B0709F410
:1058E000BBCB08F029CB033CFCE51F0709F4AACB8E
:1058F00008F013CB023C3CE5130709F47ECBF7011B
:1059000086819781009709F40BCC0E94710C182FA7
:10591000092FF701D280C580C2943FE0C322809155
:105920007D028770C1F0AD2CDD20B1F0892F807F22
:10593000803421F080E2810F883068F08091970AEE
:1059400082FF09C082E00E940E1A80917D0287705A
:10595000AA24A3948111A12C902E92942FE092223C
:10596000FBE0F91508F469CCE92DF0E0EB56FD4BAE
:105970000C94E440A114B10411F00C943424512C83
:10598000B12CA12C80E00E942A1FD092D30BC09290
:10599000D20B81E08093CF0BF60185818093CD0BF4
:1059A00051100FC0AB2869F0F601808191819C01F4
:1059B00024503109213A310510F00C945C240E94E6
:1059C000530ED6011696AD90BC90C5019A958115DF
:1059D0009F4110F4E0EEBE2277247394C501019735
:1059E000803B9D4508F0712CD6011996ED91FC91F4
:1059F0001A97309731F01B966D917C9181E0099553
:105A00007822772081F0F601868197810E94320FFB
:105A10008093CE0BC501F8E08F16910410F00C9422
:105A200060240E942D080E941C190C946924B0E087
:105A3000A0E0EDE1FDE20C940A4180913602807F06
:105A400031F480913302C0917A02811107C0CDB741
:105A5000DEB7E8E00C9426412196C77080913902A8
:105A60008C17A9F3F0903102E0903202C09034021A
:105A7000D0903502A6016E2D8F2D0E949E08D0E099
:105A80008111EACF8E0183E0000F111F8A95E1F7A3
:105A9000F801E65CFD4F81818E11DECF80818F1190
:105AA000DBCF82818111D8CFE380F480EC18FD0830
:105AB00060E081E392E00E944B1161E372E00E949A
:105AC0007412E816F90640F6809136028F708061F4
:105AD00080933602F801E15CFD4F80818F70806118
