:100000000C945E020C94A5020C94A5020C94A5021B
:100010000C94A5020C94A5020C94A5020C94A502C4
:100020000C94A5020C94A5020C9497210C946B22BD
:100030000C943D1C0C94A5020C94A5020C94A502F2
:100040000C94A5020C94A5020C94A5020C94A50294
:100050000C94A5020C94941C0C94A5020C94A5027B
:100060000C94A5020C94A5020C94A5020C94A50274
:100070000C94A5020C94A5020C94A5020C94A50264
:100080000C94A5020C94A5020C94A5020C94A50254
:100090000C94A5020C94A5020C94A5020C94A50244
:1000A0000C94A5020C94A5020C94A5023F003A0002
:1000B000670054005500560040003B005F006000A0
:1000C0006100570041003C005C005D005E000000E4
:1000D00042003D0059005A005B00580043003E00BA
:1000E0006200000063000000010001000100010047
:1000F00001000100010001000100010001000100F8
:1001000001000100010001000100000001000100E8
:1001100001000100010001000100010001000000D8
:1001200001000000010001000100010001000100C8
:1001300001000100010001000100010001000100B7
:1001400001000100010000000100010001000100A8
:100150000100010001000100010000000100000099
:100160000100010001000100010001000100010087
:100170000100010001000100010001000100010077
:100180000100000001000100010001000100010068
:10019000010001000100000001000000000000005B
:1001A000000000002A2B28000000000000000000D2
:1001B0000000000000000029000000002C1E342078
:1001C000212224342627252E362D3738271E1F209E
:1001D0002122232425263333362E37381F040506E3
:1001E0000708090A0B0C0D0E0F1011121314151627
:1001F0001718191A1B1C1D2F3130232D3504050625
:100200000708090A0B0C0D0E0F1011121314151606
:100210001718191A1B1C1D2F3130354C0000000017
:1002200000000000000000000000000000000000CE
:1002300000000000000000000000000000000000BE
:100240007E0F00D4FFFFFFC700000078000101010E
:100250000101010101010202020202020202020383
:100260000303030303030304040404040404050553
:100270000505050606060606070707070708080816
:1002800008090909090A0A0A0B0B0B0C0C0C0D0DC5
:100290000D0E0E0E0F0F0F1010111111121213135D
:1002A0001414151516161717181819191A1A1B1BD6
:1002B0001C1D1D1E1E1F2020212222232424252632
:1002C00026272829292A2B2C2D2D2E2F303132326A
:1002D000333435363738393A3B3C3D3E3F40414276
:1002E000434445464748494A4C4D4E4F505153545C
:1002F000555658595A5B5D5E5F6162646566686910
:100300006B6C6D6F7072737577787A7B7D7E80828F
:10031000838587888A8C8E8F91939596989A9C9ED8
:10032000A0A2A3A5A7A9ABADAFB1B3B5B7BABCBEE8
:10033000C0C2C4C6C9CBCDCFD1D4D6D8DBDDDFE2B5
:10034000E4E7E9EBEEF0F3F5F8FAFDFF16034300FE
:1003500061006A0061006C00650073007100750047
:1003600065000000160350004C00490050002000BA
:1003700057006F0072006B00730000000403090453
:1003800009025B00030100A0FA0904000001030157
:100390000100092111010001224000070581030825
:1003A000000A0904010002030000000921110100F4
:1003B0000122220007058203200001070503032014
:1003C00000010904020001030000000921110100DD
:1003D00001226D000705840320000A1201000200BB
:1003E000000008575027000000010200010660FFCE
:1003F0000961A1010962150026FF00952075088199
:10040000020963150026FF00952075089102C005BA
:10041000010980A101850319012AB700150126B73A
:1004200000950175108100C0050C0901A10185042A
:1004300019012AA002150126A0029501751081005C
:10044000C005010906A1018505050719E029E71581
:100450000025019508750181020507190029EF158E
:1004600000250195F07501810205081901290595FE
:100470000575019102950175039101C005010906F9
:10048000A101050719E029E7150025019508750167
:1004900081029501750881010507190029FF1500E2
:1004A00026FF0095067508810005081901290595A4
:1004B0000575019102950175039101C011241FBEBC
:1004C000CFEFDAE0DEBFCDBF04B603FE27C08091D8
:1004D000B6029091B702A091B802B091B9028730EC
:1004E000904BA740B04BD1F41092B6021092B702D5
:1004F0001092B8021092B90214BE84B7877F84BFED
:100500000FB6F894A8958091600088618093600090
:10051000109260000FBEE0E0F8E3099511E0A0E062
:10052000B1E0E0EAF9E402C005900D92A039B1070C
:10053000D9F722E0A0E9B1E001C01D92A63BB207C5
:10054000E1F70E9421120C9493240C94000081E0A6
:10055000089581E008950C94A90208950C94AD02C9
:100560001F93CF93DF9300D000D00F92CDB7DEB7AB
:1005700049835A836B833091920189819A81311129
:100580001DC06623B9F02223A9F00E948E08182FFF
:10059000682F89819A810E94370869817A81812F29
:1005A0000F900F900F900F900F90DF91CF911F91B0
:1005B0000C9401180E946508182FEFCF0E948E0836
:1005C00069817A81EDCFFC01262F408151816281C2
:1005D000738184810C94B00281E00895CF93DF93FE
:1005E000EC0160E00E94E302BE01DF91CF910C9428
:1005F000AE02E1E0F0E0DF0102C0AA0FBB1F6A9586
:10060000E2F7BD01DF0102C0AA0FBB1F4A95E2F766
:100610006A2B01C0EE0F2A95EAF7962F98239613BE
:1006200002C08E2B0895E0958E230895242F462F27
:10063000682F80919F010E94F9020C94F4070E9498
:10064000BB100E946E040C94D6100C94D91008951F
:100650000E948C070E9427032FEF84E39CE0215027
:1006600080409040E1F700C000000C94B81C0F934C
:100670001F93CF93DF938C0161E00E94E302EC01B2
:10068000B8010E94EA15882309F441C0B801CE01DF
:100690000E94AB028823D9F1B801CE010E9438191B
:1006A0008823A9F1B801CE010E948A19882379F123
:1006B000B801CE010E94AD1A882349F1B801CE01DC
:1006C0000E94EB14882319F1F8018281882361F0DC
:1006D000CA35FDE5DF0721F170F4C115ECE5DE0751
:1006E000A1F0CE3DDC45C9F0C801DF91CF911F914B
:1006F0000F910C94A702CB358DE5D807A1F0CC352E
:10070000DD4591F70E94560CEFCF0E94280380E050
:10071000DF91CF911F910F9108950E94CC0DF7CFDB
:100720000E945F0CE1CF0E94620CDECFDF92EF925D
:10073000FF920F931F93CF93DF93E82FF0E0E456DF
:10074000FE4FD490282F26952695269530E0F90166
:10075000E45CFD4F0491877010E0082E02C01595EF
:1007600007950A94E2F701701127F901E45DFD4F46
:10077000E490F12C082E02C0F594E7940A94E2F775
:1007800091E0E922FF24F901E45EFD4FC491D0E03D
:1007900002C0D595C7958A95E2F7C170DD2701158E
:1007A000110519F081EE0E94BA04E114F10419F068
:1007B00086EE0E94BA048D2D0E943F05EF2819F0A5
:1007C00086EE0E940005012B19F081EE0E940005C3
:1007D000CD2B51F08CE2DF91CF911F910F91FF90C3
:1007E000EF90DF900C943F05DF91CF911F910F9117
:1007F000FF90EF90DF900895EF92FF920F931F9379
:10080000CF93DF93EC01162F0AE08881882309F447
:1008100054C0813009F04EC08981813099F47E0145
:1008200022E0E20EF11C8A810E943F05E701219639
:10083000812F815050F3EFE9FFE03197F1F700C0CD
:100840000000F7CF823041F47E0182E0E80EF11C17
:100850008A810E94BA04EACF833041F47E01E2E04B
:10086000EE0EF11C8A810E940005E0CF843011F069
:100870002196DDCF2A81229690E080E0AE014F5F85
:100880005F4F2053330B2A30310548F0019778F23F
:10089000EFE9FFE03197F1F700C00000F7CF089FC4
:1008A000B001099F700D1124C901860F971F29817E
:1008B000EA01E4CF0E949603BACFDF91CF911F9156
:1008C0000F91FF90EF90089560E00C94FC03089561
:1008D0000C94670481E008950C946A040895CF9302
:1008E000C82F0E9468048C2FCF910C946C04CF9376
:1008F000DF93CDB7DEB72B970FB6F894DEBF0FBEF0
:10090000CDBF4F83588769877A878B8761110E9493
:10091000850C1E821D8285E0FE013796DE01119650
:1009200001900D928A95E1F78C819D81892B89F444
:1009300049815A816B817C818D819E810E94850BCA
:100940002B960FB6F894DEBF0FBECDBFDF91CF91CF
:10095000089589819A8189238F3F51F3CE010196B1
:100960000E94EC028111E4CFEBCFFC0180819181E8
:100970000C94BB08CF93C82F882309F43FC08CEF99
:100980008C0F813AA0F46C2F8091000190910101AD
:100990000E94421B882329F08C2F0E94260C0E9463
:1009A000B50C8C2F0E941F0CCF910C94B50C80E2DB
:1009B0008C0F883048F4C77081E001C0880FCA9559
:1009C000EAF70E94680CF0CFEBE5EC0FE33040F45F
:1009D000F0E0E05CFE4F808190E0CF910C94021B30
:1009E000C85AC73158F4EC2FF0E0EE0FFF1FEE5E4F
:1009F000FE4F80819181CF910C94181BCF91089567
:100A0000882329F19CEF980F913A20F40E94260C3C
:100A10000C94B50C90E2980F983050F4877091E0E8
:100A200001C0990F8A95EAF7892F0E946E0CF0CFCA
:100A30009BE5980F933020F490E080E00C94021B2B
:100A4000885A873120F490E080E00C94181B0895B8
:100A50001F93CF93DF93182FEB010E94BA042097C6
:100A600031F4812FDF91CF911F910C9400058FE914
:100A70009FE00197F1F700C000002197F0CF70E0F0
:100A800060E0893311F460E570E00C942805882358
:100A900021F00E94680C0C94B50C0895882321F075
:100AA0000E946E0C0C94B50C0895BF92CF92DF9209
:100AB000EF92FF920F931F93CF93DF936C01D62F8A
:100AC000C72FFC011281058102950F700E943D0C19
:100AD000E82E8823A1F0E12E112389F08C2F807F4E
:100AE000803429F080E28D0FE12C883040F082E0E4
:100AF0000E94060D0E943D0C91E0E82EE926BC2ED6
:100B0000B2949FE0B922EB2DF0E0EB56FB4D0C9434
:100B100031240C2F0F70C07F11F00295007F11233C
:100B2000A9F0002359F080E28D0F883010F0D11128
:100B300009C0802F0E94680C0E94B50C8D2F0E9466
:100B4000BA0414C0802F0E94780CF6CF8D2F0E941B
:100B50000005002359F080E28D0F883010F0D1118C
:100B60002CC0802F0E946E0C0E94B50C2B2D28509B
:100B7000330B2430310520F40E94DC1A0E946F04EC
:100B8000EE2009F46EC10E94390C80FD6AC1F601A5
:100B900012820E94330C0E940508C6010E9452076F
:100BA0000E94330CDF91CF911F910F91FF90EF9036
:100BB000DF90CF90BF900C941008802F0E947E0C85
:100BC000D3CFFC2FFF70FF2EC07FC03219F0F294FC
:100BD00080EFF822DD2369F0D13049F1112391F142
:100BE000002351F1F601858180FFA8CF8F708583A6
:100BF00023C0112381F0011106C00E94980C8F2997
:100C00000E944705B3CF0130C1F70E94980C8F298D
:100C10000E949E0CABCF011106C00E94AB0C8F2D21
:100C20000E944E05A3CF013009F4A0CFF6CF1123C7
:100C300029F0063008F09ACF8F2DE2CF053008F06A
:100C400095CFEDCF002359F3D93349F4FFEF27EEC9
:100C500033E0F15020403040E1F700C000008D2F1C
:100C60000E94000583CF8C2F86958695837069F04E
:100C7000813009F07BCF8D2F9C2F9370111102C012
:100C800090E080E00E94181B71CF8D2F9C2F9370F5
:100C9000111102C090E080E00E94021B67CF8C2FF0
:100CA000837079F5111162CF4D2F429546954770AB
:100CB000440F440F8D2F8F70042E01C0880F0A94AB
:100CC000EAF72D2F2071D4FF07C02FE030E001C0DC
:100CD000220F4A95EAF72095C695C695C370822BD8
:100CE000C23049F058F4C13019F00E94E6073ECFF7
:100CF0000E94E1073BCF0E94EB0738CF0E94DF073D
:100D000035CF8695112311F08C2F8170882309F43B
:100D10002DCF4D2F429546954770440F440F8D2F90
:100D20008F70042E01C0880F0A94EAF72D2F2071CE
:100D3000D4FF07C02FE030E001C0220F4A95EAF748
:100D40002095C695C695C370822BC23049F058F4E1
:100D5000C13019F00E942C0809CF0E94270806CF45
:100D60000E94310803CF0E94F40700CFCF701123F7
:100D700029F08C2F0E9405088D2F42CF8D2F0E94C5
:100D80004E058C2F0E941008F1CED23F89F160F4FD
:100D9000D03FC9F0D13F29F1112309F442C001111C
:100DA000CDCE8C2F8F7121C0D33F39F1D43FA1F725
:100DB000112369F1CF718C2F0E94050863E08C2FFD
:100DC0000E94EB0CD3CE112341F0053008F0CECEBB
:100DD0008C2F8F710E941C08C9CE063008F0C6CE39
:100DE000F7CF8C2F8F71112369F20E940508BECEB8
:100DF0008C2F8F711123C9F3C5CF112329F08C2FAC
:100E00008F710E94FD07B2CE0E94FA07AFCE81E03B
:100E10000E94060D023008F4A9CE82E00E94060D61
:100E2000A5CE002359F0D93309F019CF8FEF97EEF3
:100E3000E3E081509040E040E1F70FCF8C2F8F71BD
:100E4000A1CF4C2F4F706D2FC6010E94AD0E0E9496
:100E5000E9088CCE4C2F4F706D2FC6010E94B00E4A
:100E600085CEDF91CF911F910F91FF90EF90DF9092
:100E7000CF90BF9008950F931F93CF93DF93EC0112
:100E8000688179818A810E94C5088C010E94360898
:100E90000E94DE07B801CE01DF91CF911F910F9123
:100EA0000C945505CF93DF93EC018B819C81892BAA
:100EB00029F08881998189238F3F59F4DF91CF915F
:100EC0000895CE010E943B07CE01DF91CF910C9493
:100ED000EE02CE010E9437038111F3CF0E943D0C38
:100EE000882361F38A81882349F382E0DF91CF91DF
:100EF0000C94060D90E080E00E94021B90E080E0E0
:100F00000E94181B0E94850C0E94950C0C94B50C35
:100F10000E942D0C0C947A070E94750C0C94880783
:100F2000E92FE295EF70E250EE3070F4F0E0EB550F
:100F3000FB4D0C943124803F19F020F4883E20F4BE
:100F400081E00895843FE1F380E00895883EC0F396
:100F5000813FD1F7F5CF93FB882780F90895FC01F5
:100F6000808191810E94BB080C949007CF93DF93FE
:100F700000D000D00F92CDB7DEB70F900F900F903A
:100F80000F900F90DF91CF910895CF93DF9300D012
:100F900000D000D0CDB7DEB726960FB6F894DEBFEE
:100FA0000FBECDBFDF91CF91089508950C94D50762
:100FB0000E94D6078093A0010C947A0708950C94A0
:100FC000D8079091A001892B0C94D8079091A0018B
:100FD00089230C94D8079091A00189270C94D807F5
:100FE0000C94D5070C94F0070E94F20780939F01A0
:100FF0000C947A0780E00C94F40791E001C0990FFB
:101000008A95EAF7892F0C94F40721E030E001C0BB
:10101000220F8A95EAF780919F01822B0C94F407A6
:1010200021E030E001C0220F8A95EAF720958091F7
:101030009F0182230C94F40721E030E001C0220FCD
:101040008A95EAF780919F0182270C94F40790918A
:101050009F01892B0C94F40790919F0189230C9494
:10106000F40790919F0189270C94F4070895E92FC4
:10107000EE0FE90FEE0F8E0F982F977041E001C031
:10108000440F9A95EAF786958695869593E0899F11
:10109000F0011124ED56FE4F30E020E070E0519158
:1010A000DF011197CB01022E02C0969587950A9415
:1010B000E2F7817081958527842385278C932F5FA4
:1010C0003F4F2330310559F70895E92FEE0FE90F0F
:1010D000EE0F8E0F982F977086958695869523E054
:1010E000829FF0011124ED56FE4F50E040E080E079
:1010F000219130E0092E02C0369527950A94E2F737
:1011000021703327042E01C0220F0A94EAF7822BA4
:101110004F5F5F4F4330510559F70895CF92DF92EB
:10112000FF920F931F93CF93DF936C0100919F0168
:101130008091A001082BC7E0D0E010E0FC2EC80190
:101140000C2E02C0959587950A94E2F780FD0CC09D
:101150002197A0F7F12C8F2DDF91CF911F910F9147
:10116000FF90DF90CF900895B6018C2F0E94C30F9F
:10117000019771F3F0CFCF93DF93EC010E948E08BB
:10118000BE01DF91CF910C94C30F1F93CF93DF93D8
:10119000EB0190919201992331F0CB01DF91CF9136
:1011A0001F910C94BB08882379F0CB010E948E0814
:1011B000182F682FCE010E943708BE01812FDF91C2
:1011C000CF911F910C94C30FCB010E946508182F7B
:1011D000F4CFEF92FF920F931F93CF93DF938C0185
:1011E000892B81F0F12CEE24E394E8012196F8019B
:1011F0008491843770F4843008F05FC08130B1F09E
:101200008230A1F1DF91CF911F910F91FF90EF906C
:101210000895853709F44CC008F43DC09CE7980F49
:10122000903780F78F770E94000549C00E5F1F4FEF
:10123000FE01849190E2980F983060F48770FE2D43
:1012400001C0FF0F8A95EAF78F2F0E94880C0E9439
:10125000B50C02C00E94BA048F2D815030F2EFE924
:10126000FFE03197F1F700C00000F7CF0E5F1F4F8E
:10127000FE01849190E2980F983050F48770FE2D13
:1012800001C0FF0F8A95EAF78F2F0E948E0CDFCFE7
:101290000E940005E1CF0E5F1F4FFE01C491C150B7
:1012A000D8F28FE99FE00197F1F700C00000F7CF77
:1012B0000E5F1F4FFE01F490CFCF0E94BA048E0143
:1012C000CBCF1F93CF93DF93C091A10116E0809104
:1012D000A2018C1304C0DF91CF911F910895D0E03B
:1012E0001C9FF0011D9FF00D1124ED55FE4F408114
:1012F000518162817381848195810E94C507219605
:10130000C770E5CF4091D3015091D4016091D501D0
:101310007091D6018091D7019091D8010C94C507A6
:101320001F93CF93DF938091D801807FA9F48091A0
:10133000D501882389F08091A101C091A20160911B
:10134000D3017091D401A091D601B091D701D62FCD
:10135000D72316E0C81304C0DF91CF911F910895E1
:1013600090E0109711F0DF3F19F401968770F2CFEB
:10137000189F9001199F300D1124F901ED55FE4F72
:1013800041814713F2CF40814613EFCF4281411193
:10139000ECCF438154814A1B5B0B483C510528F735
:1013A0008091D8018F7080618093D801F901E85550
:1013B000FE4F80818F708061808383ED91E00E9479
:1013C0005207DF91CF911F910C946109AF92BF92A8
:1013D000CF92DF92EF92FF920F931F93CF93DF9301
:1013E000CDB7DEB761970FB6F894DEBF0FBECDBFA5
:1013F0008C0185E0F801DE011D9601900D928A9521
:10140000E1F7F801E28083EDC82E81E0D82E6091EB
:10141000D6017091D7016115710509F45AC19091F7
:10142000D3012091D401892F82238F3F09F451C128
:1014300040815181A380B480F090D501F501E61B75
:10144000F70BFF2009F4F6C08091D801382F307FC8
:10145000E83CF10508F0AFC0311179C0FE2C25132E
:1014600023C0941321C0E1101FC08F70806180934E
:10147000D8010E948209C6010E9452078091D801BA
:10148000F80185838F2D61960FB6F894DEBF0FBEED
:10149000CDBFDF91CF911F910F91FF90EF90DF9023
:1014A000CF90BF90AF900895AB2829F0842F85236B
:1014B0008F3F09F027C180E0F82FF170DF2E80FF09
:1014C0003CC08091A1012091A20136E0821315C099
:1014D0004D875E878D859E850E94BB08292F2295AA
:1014E0002F702230F0F0243018F59F70F1F0F801E1
:1014F0009581907FD1F4D12C1EC090E0389FF001EF
:10150000399FF00D1124ED55FE4F6181651306C022
:101510006081641303C06281E6120FC00196877078
:10152000D5CF9F7011F0882331F3805E883018F397
:10153000C8010E945207FD2CA5CFEE2009F4A2CFCE
:101540008091D80181608093D801F12C9BCF251325
:1015500006C0941304C0F801EE2009F487C0C80146
:101560000E94AF07882319F1EE2009F18091D8017C
:10157000803270F02091D3013091D40138872F83CD
:101580001986BB86AA868C87CE0107960E945207D1
:1015900086E0F801A3EDB1E001900D928A95E1F7A4
:1015A0000E9490090E948209FF24F3946BCFC80126
:1015B0000E945207F9CF311113C07A2DB98AA88A37
:1015C0006E2D89890E94B60783ED91E00E94520733
:1015D00086E0F60111928A95E9F70E948209B5CF5B
:1015E00025130FC094130DC0E1100BC0F8018583C3
:1015F000C8010E94520786E0F60111928A95E9F728
:1016000041CFC8010E94AF07882389F2EE2079F20A
:101610008091D801803208F4BBCF2091D301309162
:10162000D4013A8329831B82BD82AC828E83CE0192
:101630000196ACCFE83CF10508F03EC0FE2CEE2050
:1016400009F4B5CF25132AC0941328C08091D8017E
:1016500080FD1BC0982F907FC1F0F8018583903FDB
:1016600031F0982F907F905F8F70892B8583C80110
:101670000E94520786E0F801A3EDB1E001900D92BF
:101680008A95E1F70E948209FDCE86E0F801A3ED7C
:10169000B1E001900D928A95E1F7F4CEC8010E9465
:1016A000AF07811175CF8091D80181608093D801F7
:1016B000C8010E945207E6CE7A2DB98AA88A6E2DFB
:1016C00089890E94B60786E0F60111928A95E9F7AA
:1016D000D9CFEE2009F46BCFC8010E94AF07F82ED6
:1016E000882309F464CF86E0F801A3EDB1E001900E
:1016F0000D928A95E1F783ED91E00E94B5040E9476
:101700009009C0CF81E08E25D7CE1F93CF93DF9372
:10171000CDB7DEB72C970FB6F894DEBF0FBECDBFA6
:101720004F83588769877A878B879C87CE01079676
:101730000E94E609882369F08A859B85892B39F008
:101740004F815885842F85238F3F09F071C016E0A3
:101750005FC086E0FE013796DE01119601900D9282
:101760008A95E1F78A859B85892B89F38F819885F6
:1017700089238F3F61F32091A20130E0C9010196D6
:10178000877099274091A1014817190671F40E94AA
:101790008C071092A2011092A10186E0E3EDF1E026
:1017A000DF011D928A95E9F7D2CF96E0929FD00192
:1017B000939FB00D1124AD55BE4FFE01319601909F
:1017C0000D929A95E1F78093A2010E946109BFCF23
:1017D000819FC00111248D559E4F0E94E6098823E8
:1017E000E9F0E091A1011E9FF0011124ED55FE4F9B
:1017F0004081518162817381848195810E94C507F6
:101800008091A10190E00196877099278093A101B2
:101810008091A1019091A2018913DACF2C960FB685
:10182000F894DEBF0FBECDBFDF91CF911F91089519
:1018300069857A858B859C850E94C50788CF682F2E
:1018400080910001909101010C94C21B682F80913E
:101850000001909101010C94CD1B809100019091A9
:1018600001010C94D81B8091D901859585958595AA
:1018700008958091D901877008959091D90197704A
:1018800081E009F480E008959091440292FB2227C0
:1018900020F9281751F080FB92F99093440280912F
:1018A0004302909144020C94490D089580914402A2
:1018B00082FB882780F991E089270C94440C81E011
:1018C0000C94440C80E00C94440C8091FD0108952C
:1018D0009091FD01892B8093FD0108958095909151
:1018E000FD0198239093FD0108951092FD01089544
:1018F0009091FC01892B8093FC0108958095909133
:10190000FC0198239093FC0108951092FC01089526
:101910009091FB01892B8093FB0108958095909114
:10192000FB0198239093FB0108951092FB01089509
:101930008091DA01089508950C949B0C90914402D3
:1019400092FD08C09091DA01981721F08093DA0196
:101950000C949C0C08958091DA01882329F0109250
:10196000DA0180E00C949C0C0895E0910001F09164
:1019700001018091FD018083E0910001F09101015E
:1019800080819091FC01892B8083E0910001F0918E
:10199000010180819091FB01892B80839091DA0174
:1019A000992381F0E0910001F09101018081892B60
:1019B000808380910001909101010E942E1B811172
:1019C0000E94AB0C80910001909101010C94E81AE7
:1019D00008950C94E80C9091440292FD10C098E098
:1019E000899F90011124622B6093D9010E94050800
:1019F0008091D9018595859585950C94E90C0C9479
:101A000005081092D90180E00C94E90C9091D9015D
:101A1000809589238093D901282F277039F4282FA6
:101A2000082E000C330B9217130621F490914402F8
:101A300092FF07C08595859585950E9410080C94A6
:101A4000010D08956FEF7FEF90E080E00C947D240E
:101A500090E080E00E945924893E9E4F11F40C943E
:101A6000931580E0089582E090E00C944B2483E08D
:101A700090E00C944B24CF9384E090E00E944B24A0
:101A8000C82F82E290E00E944B24982F8C2FCF9198
:101A90000895CF93C92F682F84E090E00E945F24BF
:101AA0006C2F82E290E0CF910C945F24AB01BC01DB
:101AB0008FE090E00C947124AB01BC0183E190E0D5
:101AC0000C94712460E070E0CB010C945C0D60E03C
:101AD00070E0CB010E94560D0C94620D69EE7EEF12
:101AE00090E080E00E947D2460E082E090E00E942F
:101AF0005F2460E083E090E00E945F241092A001E8
:101B000060E084E090E00E945F2460E082E290E088
:101B10000E945F2460E085E090E00E945F2460E026
:101B200086E090E00E945F246FEF87E090E00E94E3
:101B30005F2440E050E0BA0188E090E00E94712408
:101B400060E08DE090E00E945F2440E050E0BA0148
:101B500088E190E00E94712460E087E190E00E94BB
:101B60005F2440E050E0BA018CE190E00E947124D3
:101B700070E060E080E290E00E947D2440E050E070
:101B8000BA0188E190E00E94712480E00E94AC15C7
:101B90000E94D2150C94670D0C946E0D682F8EE088
:101BA00090E00C945F240E94791C6093080270936B
:101BB000090280930A0290930B02609304027093CF
:101BC00005028093060290930702089585B7806806
:101BD00085BF85B7806885BF0895089508950C94E2
:101BE000ED0D08950C94F10D0E94E60D81EA90E14F
:101BF0000E94C91C0E94EE0D0C94EF0D81E0089527
:101C00000C94FE0D089508950E94020E0C94030E8C
:101C10000E94641C0E94E1150E9487110E94AD146D
:101C20000C94F20DAF92BF92CF92DF92EF92FF929F
:101C30000F931F93CF93DF93CDB7DEB72A970FB6DD
:101C4000F894DEBF0FBECDBF0E94A31181110E9488
:101C5000D30D8FEFA82E81E0B82E10E000E0C02E4B
:101C6000802F0E94DB10E82EF501F1905F01F8163D
:101C700009F44BC080910C0281FD0E94E1108F2D70
:101C80008E25D12CFF24F394982F9F21C9F10E9417
:101C9000000E882399F0DE82CF82EF2081E009F4E4
:101CA00080E088870E946D1C8160782F9A878987E1
:101CB0004E815F8168858A850E947704F801E15032
:101CC000FE4F8081F826F0820E94DC1A9091FE017E
:101CD000891791F10E94DC1A8093FE012A960FB6B3
:101CE000F894DEBF0FBECDBFDF91CF911F910F9152
:101CF000FF90EF90DF90CF90BF90AF900C946F0467
:101D0000D394FF0CF6E0DF12BFCF0F5F1F4F0530FB
:101D1000110509F0A4CF8FEF89838A831B820E946B
:101D20006D1C8160782F9D838C8349815A816B81E2
:101D30008D810E947704C8CF2A960FB6F894DEBF33
:101D40000FBECDBFDF91CF911F910F91FF90EF900C
:101D5000DF90CF90BF90AF90089590E080E008951D
:101D60000895FC01EE0FFF1FE45BFD4F85919491F8
:101D70000895CF93DF930E94C70FEC01811520E5F2
:101D8000920708F041C0811530E4930708F0B4C011
:101D9000803E910518F5803C910508F09DC0883A79
:101DA000910570F4853A910508F08EC08130910557
:101DB000F9F00097E9F00497D8F4D0E0C0E018C03B
:101DC0008F3B9105D0F7C85AD0E0CC0FDD1FCD5B1B
:101DD000DE4F0990D881C02DD4640AC0811590428D
:101DE00058F4C11581E0D80718F4C83ED10528F78A
:101DF000CE01DF91CF910895C11590E3D90708F086
:101E000071C0CE019F706AC0811525E5920758F513
:101E1000811534E5930708F09EC0811542E59407CB
:101E200050F4C11581E5D80708F469C0DC2FCC2730
:101E3000C16FD06ADDCF982F969596959E0123703D
:101E40003327C115D34508F077C0C1E0D0E002C008
:101E5000CC0FDD1F2A95E2F720E2929FC0011124EA
:101E6000C82BD92B67C0C11589E5D807A8F4C115BF
:101E700098E5D90708F074C0C11526E5D20708F027
:101E80009CCF8C2F0E945E10C82FD0E0DC2FCC2777
:101E9000CC27DF71D062ACCFC1153AE5D30708F487
:101EA00064C0CE0190568115904208F086CF8D2FE8
:101EB0008F710E945E1090E0982F882788279F716D
:101EC0009C012C2BE901E6CFC55AD0E0CF58DE4F5C
:101ED000C881D0E0D0648CCF805C91090E94B10EA3
:101EE000EC0186CFCE019927D3FF03C0EC01D86C5B
:101EF0007FCFEC01D06C7CCFDF70D06A79CFCE0180
:101F0000E4E096958795EA95E1F783702C2F269566
:101F10002695237090E2299F90011124382B8C2F55
:101F20008370C1E0D0E002C0CC0FDD1F8A95E2F7DC
:101F3000C22BD32BDC685CCFC1E0D0E002C0CC0F59
:101F4000DD1F2A95E2F730E2939FC0011124C82BD0
:101F5000D92BDA684DCFD82FCC27C46FD06A48CFA1
:101F6000DC2FCC27C06FD06A43CF8C2F8F700E949C
:101F70005E1034E0D695C7953A95E1F7CF709C2F67
:101F8000EC01D06935CF0E9401180C94B90E82384B
:101F90009105B1F1B0F48133910509F475C048F4AD
:101FA0008932910509F469C08A32910509F473C038
:101FB00008958533910509F459C08933910501F1DC
:101FC0000895833E9105A9F138F4803E9105F9F01A
:101FD000823E910549F10895863E9105A9F1873E1B
:101FE0009105C9F1843E910519F52091440221FF24
:101FF0001FC08091430284FD14C087EE90E00895D5
:10200000209143022370A1F080EE90E0089520918A
:10201000430220FD47C03091440230FF09C024FF35
:1020200044C090E080E004C02091430222FDF7CF3D
:1020300008952091430222FD3BC03091440230FDBF
:10204000E3CF24FFF5CFEDCF2091430223FFF0CF64
:1020500024FDE7CFD2CF2091430223FD2CC0309145
:10206000440231FFEECF84EE90E0089520914302C8
:1020700025FFDECF89E290E008952091430225FFFD
:10208000D7CF85E390E008952091430226FFD0CF7B
:102090008AE290E008952091430226FFC9CF81E3B0
:1020A00090E0089589E390E0089583EE90E008952C
:1020B00082EE90E0089586EE90E0089590914302BC
:1020C00092FF06C0282F28712830F9F4877F84609A
:1020D00093FF06C0282F28712831F1F4877E846190
:1020E0002091440220FF06C0382F38713830D9F4CF
:1020F000877F816021FF06C0282F28712831D1F405
:10210000877E816194FD877E0895282F2471243075
:10211000F9F68B7F8860DCCF282F2471243101F7FA
:102120008B7E8861DDCF382F3171313019F78E7F8A
:102130008860E0CF282F2171213121F78E7E8861C0
:10214000E1CF80E008950C94220D0E94A3118FE34B
:102150009CE90197F1F700C000000E94A31180E004
:102160000E94DB1080FF04C00E94A3100C94B81CD6
:1021700008950C94A5100E94280D811102C00E94A0
:10218000CC0D0E94330D80930C020E943B0D909366
:102190004402809343020E94B9100E94370D0E94AE
:1021A000DF0780919F010C94F20708950C94D510DD
:1021B00008950C94D810E82FF0E0E65BFD4F808185
:1021C0000895089580EA8A95F1F7089500C008956A
:1021D0000C94E210F894E82FE295EF70F0E031A152
:1021E000282F2F7081E090E001C0880F2A95EAF730
:1021F000982F9095932391A392A1892B82A37894F1
:102200000895CF93DF93CAE7D1E089918F3F11F012
:102210000E94EA1081E0CF37D807B9F7C4E7D1E0D0
:1022200089918F3F11F00E94EA1081E0CA37D807E8
:10223000B9F7DF91CF910895CF92DF92EF92FF929D
:102240000F931F93CF93DF93EC01D62E062F10E050
:10225000C80186589E4F7C01FC0180818F3F09F4A4
:102260004BC0F894E82FE295EF70F0E091A18F70E9
:1022700021E030E001C0220F8A95EAF7892F822BF6
:1022800081A382A12095282322A378940E94E6109E
:10229000E4E7F1E030E020E0C12C51E041914F3F14
:1022A000A1F1A42FA295AF70B0E090968C9190E030
:1022B0004F7002C0959587954A95E2F780FD25C03D
:1022C000852F022E01C0880F0A94EAF7C82A2F5FD3
:1022D0003F4F2630310511F7F70180818F3F11F014
:1022E0000E94EA1061E0C11001C060E08D2D0E94E3
:1022F000E810C00FD11FC882DF91CF911F910F91BD
:10230000FF90EF90DF90CF90089580E0DFCF0E94A4
:102310000111A5E4B2E01C92EAE4F2E01082119609
:102320001C921197118212961C9212971282139688
:102330001C921397138214961C92148285E00E94BB
:10234000EA110C941F03FF920F931F93CF93DF9317
:1023500000D000D00F92CDB7DEB78E010F5F1F4FB8
:1023600085E0F80111928A95E9F7F12C6F2DC801EB
:102370000E941C11F394F5E0FF12F8CF45E050E005
:10238000B80185E492E00E943E24FF24F394009774
:1023900009F4F12C892B41F085E0F801A5E4B2E0C5
:1023A00001900D928A95E1F72F2D45E06AE472E0E5
:1023B00085E492E00E94EB110E9425038F2D0F907F
:1023C0000F900F900F900F90DF91CF911F910F9171
:1023D000FF9008950895FF920F931F93CF93DF937B
:1023E000F82E092F162FD72FC42F222349F081E072
:1023F00080930F020E946D1C90930E0280930D0239
:1024000080910F028823A1F080910D0290910E021D
:102410000E94851C059760F0EF2DF02FA12FBD2F96
:10242000CE0FDF2FD11DEC17FD0741F410920F02E4
:10243000DF91CF911F910F91FF90089581918D931E
:10244000F2CF0E94EA1B0E944F1E0E94681E0E944B
:102450007A1E0E94040EFBCFEF92FF920F931F9300
:10246000CF93DF93EB01E82FD11110C0442321F06B
:10247000F0E0E45BFD4FE4916E2F7E2F8E2FDF9115
:10248000CF911F910F91FF90EF9008950D2F10E0C5
:10249000282F30E0442329F0245B3D4FF90124919B
:1024A00030E0F6E0CF9FC0011124EFEFF0E0BF0174
:1024B0000E941D24AB018C2F90E0880F991FA5E589
:1024C000A49FB001A59F700D1124861B970B982F18
:1024D000990F980FBF01601B710B629FD001639F22
:1024E000B00D729FB00D11248B2F9D9FB001112450
:1024F000672F7727EF01C61BD70BBE01629FE00154
:10250000639FD00D729FD00D11247F01E91AF1084D
:10251000E09EB001E19E700DF09E700D1124672FBA
:102520007727E61BF70BE29F8001E39F100DF29FD8
:10253000100D1124E12F722F4230510599F048F40B
:102540004115510569F04130510581F0EB2F8D2F78
:1025500007C04430510569F080F046305105B1F7AD
:102560006E2F8DCFE22F7B2F812FFACFE22F7D2F81
:10257000F7CFEB2F822F712FF3CF7B2F822FED2FF1
:10258000EFCF41E00C942C120C94C112CF93DF9347
:10259000762FE901682F842F0E94C4127983688303
:1025A0008A83DF91CF91089580914F02982F9E7F6B
:1025B00039F480914F028170826080934F020895B8
:1025C0008430B8F7089588E090E00C945324CF92BB
:1025D000DF92EF92FF926B017C010E94D412B7014F
:1025E000A60188E090E0FF90EF90DF90CF900C94F0
:1025F000712460914F02709150028091510290912C
:1026000052020C94E712EFE4F2E083E0808311823F
:102610008FEF8283838314826081718182819381B1
:102620000C94E71280914F0280FF02C086950895B6
:1026300080E0089590915302933018F49F5F909337
:102640005302882351F060914F02709150028091A3
:102650005102909152020C94E712089581E00C947B
:102660001A1390915302992319F0915090935302A9
:10267000882351F060914F02709150028091510275
:10268000909152020C94E712089581E00C9431135A
:1026900080915302089580935302662351F0609114
:1026A0004F027091500280915102909152020C940D
:1026B000E712089560E00C944B1380915002089546
:1026C00080915102089580915202089570E00C9417
:1026D00067156091030180914F0280FF0AC08091CD
:1026E000020123E0829FC00111248C5A9D4F0C945B
:1026F0006613809104019091050123E0829FF0010F
:102700001124EC5AFD4F891750F711821082128262
:102710008F5F3396F8CFEFE4F2E080818E7F808385
:1027200060817181828193810E94E7122FEF80E79F
:1027300092E0215080409040E1F700C000000C94EE
:102740006913EFE4F2E080818E7F80832FEF80E7D2
:1027500092E0215080409040E1F700C000000C94CE
:10276000691390914F0290FF14C090910401209141
:10277000050133E0939FF0011124EC5AFD4F9217AD
:1027800010F00C9469138183608342839F5F3396BA
:10279000F6CF0895EF92FF920F931F93CF93DF939D
:1027A00000D00F92CDB7DEB7F82E062F142FE22EF1
:1027B00080914F0280FF28C0E82FE695F0E0E158B5
:1027C000FE4F9081909311028E7F823059F49E01CA
:1027D0002F5F3F4F8F2D0E94C6124B8169818A81E6
:1027E0000E94B113F09250020093510210935202D2
:1027F000EE2051F060914F02709150028091510291
:10280000909152020E94E7120F900F900F90DF916B
:10281000CF911F910F91FF90EF900895EFE4F2E0B8
:102820009181282F4381628188E0890F0C94CA131B
:1028300081E00C940E14EFE4F2E09181282F4381A3
:10284000628188EF890F0C94CA1381E00C941B14E9
:10285000EFE4F2E0628121E1620F08F46FEF282FCC
:10286000438181810C94CA1381E00C942814EFE415
:10287000F2E0628121E1621B08F460E0282F4381CD
:1028800081810C94CA1381E00C943714EFE4F2E0D8
:10289000438121E1420F08F44FEF282F62818181AB
:1028A0000C94CA1381E00C944614EFE4F2E04381E7
:1028B00021E1421B08F440E0282F628181810C94C1
:1028C000CA1381E00C94551420E00C94CA13809133
:1028D0004F0280FF18C08170826080934F02662390
:1028E00051F060914F02709150028091510290918D
:1028F00052020E94E712409152026091510280916F
:1029000050020C9464140895682F81E00C946714AD
:1029100081E00C948414682F90914F0296958FEF6C
:10292000890F09F481E00C94671481E00C948B14F6
:1029300061E00C946714EFE4F2E0808181608083B1
:1029400086950C94981480914F0280FD0C948B1303
:102950000C949B1460E00C94671480911002811118
:102960002CC00E94280D811104C00E94CC0D0E9431
:1029700003130E94E31260934F02709350028093FE
:102980005102909352026E7F61F40E9403130E94E1
:10299000E31260934F027093500280935102909320
:1029A00052020E94D41280914F0280FF03C086958C
:1029B0000E94AA1481E0809310020895EFE4F2E0EF
:1029C00080818160808386950C94AA14FA0181111C
:1029D00001C0FB0109940F931F93CF938C01FB015E
:1029E000C281CC2309F471C00E94650C8272093C3B
:1029F000FCE51F0709F460C048F5053CECE51E073F
:102A000009F455C078F4033C9CE5190709F443C068
:102A100008F048C0023C1C45D9F18C2FCF911F9182
:102A20000F91089543E454E164E374E1073C9CE5AD
:102A30001907A9F148E154E165E274E1083C1C453D
:102A400070F144E354E163E474E129C00D3CFCE51A
:102A50001F07B9F1A0F445E453E16EE273E10B3CCA
:102A6000ECE51E07E1F042E554E161E674E10C3C5F
:102A70001C45A8F04EE253E165E473E110C0063D49
:102A80008CE5180718F00D351D4539F6C0E0C5CFA7
:102A90000E94A314FBCF45E954E168E874E10E9469
:102AA000E614F4CF48E854E165E974E1F8CF45E273
:102AB00054E168E174E1F3CF41E654E162E574E189
:102AC000EECF81E00E949814E1CFC1E0A6CF849AB6
:102AD00041B34F7E51B35061EFB7F8949B01220F81
:102AE000331F260F371F280F391F2817390741F4C6
:102AF000EFBF8FE594E00197F1F700C00000089563
:102B0000DC016D91CD0178E051BB000000C067FF92
:102B100041BB660F000000C000C000C041BB00C048
:102B20007A9591F7E2CF83E290E00E944B248232C3
:102B300089F484E290E00E944B24813059F485E2CC
:102B400090E00E944B2491E0803309F090E0892FBF
:102B50008170089580E0FCCFCF93C82F6FEF811173
:102B600062E283E290E00E945F246FEFC11161E0B6
:102B700084E290E00E945F246FEFC11160E385E280
:102B800090E0CF910C945F24089586E290E00E943B
:102B90004B24682F70E090E080E0089586E290E09A
:102BA0000C945F2480E00E94AC1560E070E0CB01E3
:102BB0000E94CE150E947B170E94651881E00C943C
:102BC000AC150E94C4150E949315811102C00C948B
:102BD000D2150895CF93FB01C281CC2309F19C014A
:102BE00022513F452031310520F582510E94751850
:102BF000C0E08C2FCF91089581E00E94050843E04A
:102C000062E081E00E941603F3CF81E00E94100889
:102C100043E062E081E00E941603EBCF82E0F6CF52
:102C20008031FFE59F0789F381319F45B9F3C1E00A
:102C3000E0CF8031EFE59E07F9F281319F45C9F67B
:102C400082E0DBCF2FEFFC0120830895CF93DF9349
:102C5000EC0188818138A9F028F4803871F0DF9187
:102C6000CF910895823881F08338C9F70E945D13AF
:102C700089830E9460138A83F2CF0E946313898341
:102C8000EECF0E941213FBCF0E944813F8CFCF93D0
:102C9000DF93EC0188818138E1F028F4803869F015
:102CA000DF91CF910895823811F18338C9F70E94DE
:102CB0006313482F6A81898108C0D9810E946013FB
:102CC000C82F0E945D134D2F6C2FDF91CF910C9474
:102CD000641489810E94AA148981811104C0DF9142
:102CE000CF910C94A113DF91CF910C94DE148981C4
:102CF000DF91CF910C945A13EF92FF920F931F9391
:102D0000CF93DF93EC01062FDC01ED91CD01E15073
:102D1000E33108F0ADC0F0E0ED54FB4D0C943124EC
:102D2000198289E08A83602FCE01DF91CF911F91B4
:102D30000F91FF90EF900C94441D8981823069F0CF
:102D4000833071F08130D9F40E94791C0E943724BD
:102D50006A837B838C839D83E6CF0E94C515F6CF63
:102D60007E01B2E0EB0EF11C10E0812F0E94DB101F
:102D7000F70181937F011F5F1530B9F7D4CF602F22
:102D8000CE010E942216CFCF89818230C1F76A819D
:102D90007B818C819D810E9437240E94CE15C3CFF8
:102DA0004B816A8189810E944D179827892798272E
:102DB0009D838C83B8CF2C813D81322723273227F6
:102DC0004B816A8189810E946617ADCF0E947B1773
:102DD000AACF0E944716A7CF0E942616A4CF0E9412
:102DE000F912A1CF0E940E1889839DCF0E9410185E
:102DF0009827892798279A83898395CF6B8170E0DC
:102E000089819A81AE014C5F5F4F98278927982767
:102E10000E94131888CF6B8170E089819A81AE017E
:102E20004C5F5F4F9827892798270E943A187BCFDD
:102E30000E94651878CF0E943B17D6CF6B8170E057
:102E400089819A81AE014C5F5F4F98278927982727
:102E50000E94B31768CF6B8170E089819A81AE01BF
:102E60004C5F5F4F9827892798270E94D8175BCF20
:102E70008FEF888358CF84E0089550E0440F551FAA
:102E80009CE0699F400D511D11249CE3899F400DDA
:102E9000511D1124CA01879608950F931F93CF9354
:102EA000DF930E943D178C010E944B24C82FD0E075
:102EB000DC2FCC27C80101960E944B249E01282BB1
:102EC000C901DF91CF911F910F9108950F931F9327
:102ED000CF93DF93122F032F0E943D17EC01602F39
:102EE0000E945F24612FCE010196DF91CF911F9147
:102EF0000F910C945F24AF92BF92CF92DF92EF922A
:102F0000FF921F93CF93DF938CEAC82E80E0D82ED8
:102F1000D0E07601C0E014C0F50125913491412F35
:102F20006C2F8D2F0E94661782E0A80EB11C1F5FC8
:102F3000163091F78CE0E80EF11CCF5FC53019F028
:102F4000570110E0E9CFDF5F8CE3C80ED11CD4300D
:102F500001F7DF91CF911F91FF90EF90DF90CF901D
:102F6000BF90AF900895EF92FF920F931F93CF936E
:102F7000DF93EC018A017C01E60EF71ECE018796F5
:102F8000CE15DF0539F4DF91CF911F910F91FF909E
:102F9000EF900895C03FD10540F40E944B24F80102
:102FA00080830F5F1F4F2196E9CFF8011082F9CF80
:102FB000CF92DF92EF92FF920F931F93CF93DF9305
:102FC0007C016A018C01060F171FEC01CE01879668
:102FD000C017D10749F4DF91CF911F910F91FF9056
:102FE000EF90DF90CF900895C03FD10540F4FE01EF
:102FF000EE19FF09EC0DFD1D60810E945F242196F2
:10300000E5CF462F843038F4753028F4663018F454
:10301000672F0C944D1790E080E0089580E10895AB
:1030200089EE92E00895EF92FF920F931F93CF9352
:10303000DF93EC018A017C01E60EF71ECE01895E6A
:103040009E4FCE15DF0539F4DF91CF911F910F917F
:10305000FF90EF900895C93E22E0D20740F40E940D
:103060004B24F80180830F5F1F4F2196E7CFF801B3
:103070001082F9CFCF92DF92EF92FF920F931F93BE
:10308000CF93DF937C016A018C01060F171FEC01BF
:10309000CE01895E9E4FC017D10749F4DF91CF91D1
:1030A0001F910F91FF90EF90DF90CF900895C93E50
:1030B00022E0D20740F4FE01EE19FF09EC0DFD1DE0
:1030C00060810E945F242196E3CFCF93DF93C7E115
:1030D000D1E060E0CE010E945F242196C11584E01A
:1030E000D807B9F7DF91CF910895DF92EF92FF9261
:1030F0000F931F93CF93DF9300D000D0CDB7DEB7EF
:10310000F82E8FE08F1540F08FEF93E00E944B2454
:1031100007E111E08823C1F00F900F900F900F90FE
:10312000DF91CF911F910F91FF90EF90DF90089565
:10313000011584E0180781F3C8010E944B24811116
:1031400001C0FA940F5F1F4FF110F2CF19821A825B
:103150001B821C82DD24D39478018FEFE81AF80AD1
:10316000C8010E944B2489831A828823A9F29FEF09
:10317000980F933078F48A83D9820E5F1F4FC7016E
:103180000E944B248B83882339F2CE0101960E9442
:103190006404E2CF8701F9CF0F931F93CF93DF939E
:1031A000C42FD22FFC0182818823C9F040931502DD
:1031B0000E946D1C909314028093130280E28C0F86
:1031C000883008F050C0C77081E001C0880FCA95F0
:1031D000EAF7DF91CF911F910F910C944705109161
:1031E0001502141335C080911302909114020E94AD
:1031F000851C883C910560F5C0E2CD0F1D17B9F024
:1032000080E2810F883040F4177081E001C0880FA0
:103210001A95EAF70E944E05C83048F481E09D2FC8
:10322000977001C0880F9A95EAF70E944705802F92
:103230000E943F05C830B8F4D77081E001C0880F04
:10324000DA95EAF7DF91CF911F910F910C944E051B
:1032500080E28C0F883038F4C77081E001C0880F9D
:10326000CA95EAF7EFCFDF91CF911F910F910895A3
:103270000F939C01CB01233F4CE5340759F1A8F48F
:10328000283DFCE53F0701F1293D4CE53407D1F12C
:10329000273D3C4591F406E221EE41EE67ED7CE5E9
:1032A0000E94CC1880E00F910895253FFCE53F0770
:1032B000E9F0B0F0263F3C45F9F0FC01828188231B
:1032C00039F110921502EFCF07E225EE45EE68EDD9
:1032D0007CE5E6CF06E221EE40EE63EF7CE5E0CF51
:1032E00007E225EE44EE64EF7CE5DACF06E221EE5C
:1032F00042EE65EF7CE5D4CF07E225EE46EE66EFC1
:103300007CE5CECF08E221E045EE69ED7CE5C8CF53
:1033100081E0C9CFCF93DF93EC01FB018281882349
:1033200009F419C1C230FCE5DF07C0F1C6319CE5E4
:10333000D90730F09E012A5F3C452930310570F5F0
:103340000E943B0D9093440280934302C031ECE510
:10335000DE0709F4CFC008F05BC0C8308CE5D807A1
:1033600009F4B6C088F5C430ECE5DE0709F4A8C05E
:10337000C0F4C2308CE5D80709F49CC080914302A8
:103380008260C330DC4509F498C08091430290917B
:1033900044020E94490D0E948C0780E0DF91CF918A
:1033A0000895809143028061C630ECE5DE0709F4A0
:1033B00084C0809143028860C730DC4508F47DC03A
:1033C00080914302806279C0CC308CE5D80709F443
:1033D00089C070F4809143028C60CA30ECE5DE074E
:1033E00009F46BC008F478C0809143028E7F65C0F9
:1033F000CE308CE5D80709F479C0809143028B7FE9
:10340000CF30DC4508F459C0809143028F7E55C00F
:10341000CB3FECE5DE0709F457C030F5C3318CE54E
:10342000D80709F46FC078F4C131ECE5DE0709F480
:1034300065C0C231DC4509F0A8CF0E948C0780919D
:1034400043028F773AC0C5318CE5D80709F462C0D2
:1034500008F476C0809144028160CA3FDC4509F0DF
:1034600094CF8093440291CFCF3FFCE5DF0709F46E
:103470004DC088F4809144028D7FCD3F9CE5D907F3
:1034800081F3809144028E7FCE3FDC4550F38091E2
:1034900044028360E6CFC130FDE5DF0709F459C07F
:1034A00008F444C080E0C230DD4509F06ECF0E94D0
:1034B000CE0D6BCF8091430281608093430265CF34
:1034C000809143028460F9CF809144028260C9CF29
:1034D000809143028064F1CF0E948C078091430267
:1034E0008068EBCF809143028D7FE7CF80914302CC
:1034F000877FE3CF809143028F7DDFCF80914302AE
:103500008F7BDBCF80914302837FD7CF80914402B2
:103510008C7FA7CF8091430282FB992790F921E00D
:10352000922790FB82F990FB83F9C7CF80914402E8
:10353000982F909591708E7F892B90FB81F991CF78
:103540000E948C0790914302892F97FB87F980583E
:10355000B4CF81E0ACCF81E021CFCF93DF93EB01FB
:1035600086319C4511F50E94650C9A81992399F04A
:103570008A7A91E009F490E090931602811109C0D3
:1035800089E20E941F0C0E94B50C80E0DF91CF9170
:10359000089585E3F6CF80911602811104C089E277
:1035A0000E94260CF0CF85E3FBCF81E0EFCF909314
:1035B0001C0280931B020895E0911B02F0911C02F3
:1035C000309721F00190F081E02D099480E008957A
:1035D000E0911B02F0911C02309799F020911101AB
:1035E000222359F02091430227FF07C0DC012C91D0
:1035F00011962C93119725E02C930280F381E02DF6
:10360000099408952091190230911A022817390758
:1036100071F090931A0280931902E0911B02F091CD
:103620001C02309721F00680F781E02D099408955F
:1036300020911702309118022817390771F09093E2
:10364000180280931702E0911B02F0911C02309740
:1036500021F00084F185E02D09940895FC01329653
:1036600080911101882321F0809143029EE187FF20
:1036700096E080E0915008F4089521912223D1F33F
:103680008F5FF8CF662301F1209111012223F1F021
:103690002091430227FF1AC0462F4695469546952E
:1036A0004E3190F4677021E030E002C0220F331FEA
:1036B0006A95E2F7840F911DFC01828190E0282336
:1036C000392381E0232B69F480E00895FC013296D0
:1036D00008962191261721F0E817F907D1F7F4CFC2
:1036E00081E008959C01FC0132969FEF80E04191BA
:1036F000461751F09F3F19F4411101C0982F8F5F79
:103700008630A9F79F3F09F40895290F311D97FDD1
:103710003A95F90162830895FC0132960896219149
:10372000261303C0DF0111971C92E817F907B9F7B8
:103730000895E62FE695E695E695EE3168F4E80FF4
:10374000F92FF11D677021E030E001C0220F6A956A
:10375000EAF78281822B82830895E62FE695E6952B
:10376000E695EE3170F4E80FF92FF11D677021E056
:1037700030E001C0220F6A95EAF720958281282364
:103780002283089520911101222329F020914302E0
:1037900027FD0C94991B0C94721B2091110122237C
:1037A00029F02091430227FD0C94AD1B0C948C1B37
:1037B000FC01329680911101882351F080914302DF
:1037C00087FF06C08EE1DF011D928A95E9F7089513
:1037D00086E0F9CF0895089508950C94EC1B80912C
:1037E000AD02843049F10E94ED1B80E00E946F041D
:1037F00010921D0288E190E020E40FB6F894A8959D
:10380000809360000FBE2093600083B7817F846047
:1038100083BF83B7816083BF7894889583B78E7F99
:1038200083BF0FB6F894A89580916000886180935B
:103830006000109260000FBE08950895CF930E941B
:10384000EB1B0E94A3110E941D1CC0E08C2F0E9444
:10385000DB10811105C0CF5FC530C1F7CF9108954E
:1038600081E0FCCF08950C94321C0E948C070E94CA
:10387000DC1A0E946F040C94331C1F921FB61F9217
:1038800011248F939F93AF93BF9380911D02811159
:1038900013C08091A5029091A602A091A702B091B9
:1038A000A8024196A11DB11D8093A5029093A60286
:1038B000A093A702B093A802BF91AF919F918F915F
:1038C0001F901FBE1F90189582E084BD93E095BDA8
:1038D0009AEF97BD80936E0008952FB7F89480916A
:1038E000A5029091A602A091A702B091A8022FBFB5
:1038F00008952FB7F8946091A5027091A602809167
:10390000A7029091A8022FBF08959C014FB7F89489
:103910008091A5029091A602A091A702B091A80261
:103920004FBF821B930B089578941F921FB61F926E
:1039300011248F939F93AF93BF938091A502909191
:10394000A602A091A702B091A8020196A11DB11DE7
:103950008093A5029093A602A093A702B093A80219
:10396000BF91AF919F918F911F901FBE1F9018958F
:1039700087E797E7909301088093000888E19AE031
:103980000FB6F894A895809360000FBE90936000E6
:10399000FFCF90939101809390010895809141020F
:1039A00008959091AD02943029F580931E02709392
:1039B000200260931F029093E9008FEF9091E8003E
:1039C000815095FD06C095ED9A95F1F700008111A3
:1039D000F5CF8091E80085FF0DC050E040E063E046
:1039E00070E08EE192E00E943D1F8091E8008E77AA
:1039F0008093E8000895BC0184E00C94D11CBC01C4
:103A000083E00C94D11CCF93DF93EC0180911101E2
:103A10008823B1F18091430287FF32C060E284E0E5
:103A20008093E9008FEF9091E800815095FD06C0EA
:103A300095ED9A95F1F700008111F5CF8091E8009E
:103A400085FF1BC08091110170E050E040E08111C2
:103A500004C050E040E068E070E0CE010E943D1FED
:103A60008091E8008E778093E80080E2FE01A1E279
:103A7000B2E001900D928A95E1F7DF91CF91089520
:103A800068E081E0CDCF0895CF93FC01603221F54D
:103A90008091AD02843001F5C091E900CF70209192
:103AA000EC00922F917020FD90E8C92B82E080936A
:103AB000E9008091E80080FF0CC050E040E060E247
:103AC00070E0CF010E943D1F8091E8008E778093C7
:103AD000E800CF70C093E900CF9108958091AC02C7
:103AE000811109C00E941C210E9479218091E2006D
:103AF00084608093E20008951092AC0208950895C6
:103B00000895089542E061EC81E00E94982042E22D
:103B100061EC84E00E94982042E261EC82E00E9425
:103B2000982042E260EC83E00C9498208091AF02F0
:103B3000833009F461C030F48130D1F1823009F46E
:103B40009DC008958A3009F489C08B3009F46FC094
:103B5000893009F050C08091AE02813209F04BC02B
:103B60008091B2029091B302009719F0029709F088
:103B700042C08091E800877F8093E8008091E80050
:103B800082FF35C09091F3008091F200029729F4F2
:103B90008091F1008B7F813021F48091F10080933E
:103BA00041028091E8008B778093E8000C94CC2050
:103BB0008091AE02813AF9F48091E800877F80938A
:103BC000E8008091B2029091B302892B61F460E227
:103BD00081E292E070E00E94DB1F8091E8008B7729
:103BE0008093E800089560E090E080E0F3CF80915A
:103BF000AD028111C3CF08958091AE02813AD9F709
:103C00008091B2029091B302892BA9F78091E800CC
:103C1000877F8093E8008091E80080FFFCCF80914F
:103C200011018093F1008091E8008E77BDCF8091E3
:103C3000AE02813201F78091B2029091B302892BDA
:103C4000D1F68091E800877F8093E8000E94CC2025
:103C50008091B002809311010C948C078091AE0288
:103C6000813249F68091E800877F8093E8000E94C6
:103C7000CC208091B1028093420208958091AE02DF
:103C8000813A09F0B8CF8091E800877F8093E800FF
:103C90008091E80080FFFCCF80914202C2CF84B7C0
:103CA000877F84BF0FB6F894A895809160008861E3
:103CB00080936000109260000FBE80E890E00FB625
:103CC000F89480936100909361000FBE0C94F40D02
:103CD0000E941C210E947921E2EEF0E08081846044
:103CE000808378940E9402240E94080E87E091E06D
:103CF0000C94D71ACF93DF93CDB7DEB7A0970FB64A
:103D0000F894DEBF0FBECDBF8091AD02853031F497
:103D10008091AD02853091F10E94351C0E94120EF7
:103D20008091AD02843009F583E08093E9008091B1
:103D3000E80082FF1AC08091E80090E085FF09C08A
:103D400050E040E060E270E0CE0101960E948C1FDE
:103D500091E08091E8008B778093E800992329F027
:103D600060E2CE0101960E947C16A0960FB6F894F0
:103D7000DEBF0FBECDBFDF91CF9108950E94EF1B34
:103D80008091AB02882321F20E941E1C882309F433
:103D9000BFCF0E94271F0E948C07BACF0C94D01E61
:103DA000292F33272330310521F168F421303105E3
:103DB00009F443C02230310509F444C090E080E0AA
:103DC00030E020E026C02132310551F122323105A8
:103DD000A9F76330710590F7FB01EE0FFF1FEC5759
:103DE000FE4F208131816F577E4FFB01808190E033
:103DF00010C099278130910581F0009729F0029732
:103E0000E9F6ECE4F3E002C0ECE7F3E0849190E043
:103E10009F01FA01318320830895E4E6F3E0F6CFB1
:103E20006330710558F6660F771FFB01E657FE4FAA
:103E30002081318189E090E0ECCF82E190E02BEDB0
:103E400033E0E7CF8BE590E020E833E0E2CF80E19C
:103E500089BD82E189BD09B400FEFDCF8091D80003
:103E60008F7D8093D8008091E00082608093E00095
:103E70008091E00081FDFCCF0895AF92BF92CF9278
:103E8000DF92FF920F931F93CF93DF936C01EB01AF
:103E90008A010E94EB20F82E811123C00115110523
:103EA00039F0F80180819181C81BD90BC80ED91E49
:103EB000B12CA12C2097A9F08091E80085FD22C0AB
:103EC0008091E8008E778093E80001151105A1F03C
:103ED000F80180819181A80EB91EB182A08285E08F
:103EE000F82E8F2DDF91CF911F910F91FF90DF90D2
:103EF000CF90BF90AF9008950E94EB208823D1F21D
:103F0000F82EEFCFF60181916F018093F100219798
:103F1000FFEFAF1ABF0ACECFAF92BF92CF92DF9220
:103F2000FF920F931F93CF93DF936C01EB018A01F4
:103F30000E94EB20F82E811123C00115110539F0E4
:103F4000F80180819181C81BD90BC80ED91EB12CF4
:103F5000A12C2097A9F08091E80085FD22C08091D6
:103F6000E8008B778093E80001151105A1F0F801B6
:103F700080819181A80EB91EB182A08285E0F82EC1
:103F80008F2DDF91CF911F910F91FF90DF90CF90F8
:103F9000BF90AF9008950E94EB208823D1F2F82EB5
:103FA000EFCF8091F100F60181936F012197FFEF30
:103FB000AF1ABF0ACECFFC018091B4029091B50236
:103FC00086179707A0F06115710529F49091E80014
:103FD0009E779093E80090E06115710551F491117E
:103FE00008C08091E80082FF34C080E00895BC01E1
:103FF000F2CF8091AD028823C1F18530C1F180916B
:10400000E80083FD30C08091E80082FDEACF809116
:10401000E80080FFE1CF8091F3002091F200382F7B
:104020006115710519F02830310558F091E02830FC
:10403000310509F090E02091E8002E772093E80008
:10404000CBCF81918093F100615071092F5F3F4F79
:10405000E7CF8091AD02882341F0853041F0809117
:10406000E80083FFBECF81E0089582E0089583E0F9
:104070000895FC018091B4029091B50286179707CC
:10408000A0F06115710529F48091E8008E77809386
:10409000E80090E06115710551F4911108C080911C
:1040A000E80082FF35C080E00895BC01F2CF809126
:1040B000AD028823C9F18530C9F18091E80083FD04
:1040C00031C08091E80082FDEACF8091E80080FF56
:1040D000E1CF8091F3002091F200382F6115710536
:1040E00019F02830310558F091E02830310509F0F9
:1040F00090E08091E8008E778093E800CBCF8491A8
:104100008093F1003196615071092F5F3F4FE6CFE8
:104110008091AD02882341F0853041F08091E80024
:1041200083FFBDCF81E0089582E0089583E0089584
:10413000982F973028F08F708093E90081E00895E0
:104140009093E900242F762F50E0981731F070916A
:10415000EC002091ED005091F00021FD02C09F5F26
:10416000E8CF3091EB003E7F3093EB003091ED00D3
:104170003D7F3093ED003091EB0031603093EB00E8
:104180007093EC002093ED005093F0002091EE002E
:1041900027FDE5CF80E008958091AE0287FF13C030
:1041A0008091E80082FF06C08091E8008B778093C1
:1041B000E80004C08091AD028111F2CF0895809192
:1041C000AD028823D9F38091E80080FFF8CF809179
:1041D000E8008E77ECCF2091E4003091E50095E681
:1041E000A9012091EC00822F817020FF06C08091F0
:1041F000E80080FF06C080E008952091E80022FDDD
:104200001AC08091AD02882389F0853089F08091B1
:10421000EB0085FD0FC02091E4003091E5004217CE
:104220005307F9F29150E1F684E0089582E0089591
:1042300083E0089581E008950E948A210E949221DE
:10424000E0EEF0E0808181608083E8EDF0E0808145
:104250008F77808319BCA7EDB0E08C918E7F8C9313
:1042600080818F7E80831092AC0208950F931F93FC
:10427000CF93DF930E948A210E949221C8EDD0E063
:1042800088818F77888388818068888388818F7D03
:10429000888319BC1092AD021092A9021092AB0251
:1042A0001092AA0200EE10E0F80180818B7F8083DB
:1042B00088818160888342E060E080E00E949820ED
:1042C000E1EEF0E080818E7F8083E2EEF0E080819D
:1042D00081608083808188608083F80180818E7F07
:1042E0008083888180618883DF91CF911F910F91B6
:1042F0000895E8EDF0E080818F7E8083E7EDF0E0C7
:1043000080818160808384E082BF81E08093AC0201
:104310000C943621E8EDF0E080818E7F808310924E
:10432000E20008951092DA001092E10008951F92C1
:104330000F920FB60F9211242F933F934F935F93D9
:104340006F937F938F939F93AF93BF93EF93FF935D
:104350008091E10082FF0BC08091E20082FF07C0E4
:104360008091E1008B7F8093E1000E940124809185
:10437000DA0080FF19C08091D80080FF15C08091BD
:10438000DA008E7F8093DA008091D90080FF96C09A
:1043900080E189BD82E189BD09B400FEFDCF81E0E5
:1043A0008093AD020E946E1D8091E10080FF19C0D4
:1043B0008091E20080FF15C08091E2008E7F8093A3
:1043C000E2008091E20080618093E2008091D80059
:1043D00080628093D80019BC85E08093AD020E9472
:1043E000801D8091E10084FF2BC08091E20084FF5A
:1043F00027C080E189BD82E189BD89B5982F917080
:1044000080FFFBCF8091D8008F7D8093D800809172
:10441000E1008F7E8093E1008091E2008F7E8093A7
:10442000E2008091E20081608093E2008091A90225
:10443000882309F449C084E08093AD020E94811D65
:104440008091E10083FF29C08091E20083FF25C0B5
:104450008091E100877F8093E10082E08093AD024C
:104460001092A9028091E1008E7F8093E1008091FB
:10447000E2008E7F8093E2008091E2008061809371
:10448000E20042E060E080E00E9498208091F0002D
:1044900088608093F0000E947F1DFF91EF91BF9193
:1044A000AF919F918F917F916F915F914F913F91CC
:1044B0002F910F900FBE0F901F90189519BC10925E
:1044C000AD020E947C1D70CF8091E30087FD93E0D8
:1044D0009093AD02B3CF1F920F920FB60F9211249B
:1044E0002F933F934F935F936F937F938F939F93FC
:1044F000AF93BF93CF93DF93EF93FF93D091E900F6
:10450000DF708091EC00C82FC17080FDC0E8109270
:10451000E9008091F000877F8093F00078940E94FA
:10452000AF221092E9008091F00088608093F00043
:10453000CD2BCF70C093E900FF91EF91DF91CF9128
:10454000BF91AF919F918F917F916F915F914F91AB
:104550003F912F910F900FBE0F901F9018951F93B2
:10456000CF93DF93CDB7DEB7AA970FB6F894DEBF2F
:104570000FBECDBF8EEA92E02091F100FC012193A5
:10458000CF01F2E0863B9F07B9F70E94961D80910C
:10459000E80083FF1EC18091AE029091AF029A3075
:1045A00008F017C1E92FF0E0EA53FB4D0C943124D9
:1045B000803899F0823809F00CC18091B2028F7076
:1045C000873008F006C18093E9008091EB0085FBFD
:1045D000882780F91092E90006C08091AA02909184
:1045E000AB02911182609091E800977F9093E80070
:1045F0008093F1001092F1008091E8008E77E5C081
:10460000882309F4D3C0823009F0E3C08091B0025E
:104610008111D6C08091B2028F702FEF280F263003
:1046200008F0D7C08093E9002091EB0020FFC8C0BC
:10463000933031F48091EB0080628093EB00C0C036
:104640009091EB0090619093EB0021E030E001C08D
:10465000220F8A95EAF72093EA001092EA008091EF
:10466000EB008860EACF8111B4C01091B0021F77CF
:104670008091E3008078812B8093E3008091E800B3
:10468000877F8093E8000E94CC208091E80080FF23
:10469000FCCF8091E30080688093E30082E01111F9
:1046A00083E08093AD0295C08058823008F091C0BD
:1046B0008091B0029091B1028C3D23E09207A1F568
:1046C00083E08A838AE289834FB7F894DE011396E8
:1046D00020E03EE051E2E32FF0E050935700E491F8
:1046E00020FF03C0E295EF703F5FEF708E2F90E0E8
:1046F000EA30C0F0C7968D939D932F5F243159F710
:104700004FBF8091E800877F8093E8006AE270E005
:10471000CE0101960E94DB1F8091E8008B77809389
:10472000E80057C0C096E7CF6091B2027091B30223
:10473000AE014F5F5F4F0E94CE1EBC01892B09F472
:1047400048C09091E800977F9093E80089819A8112
:104750000E943920E1CF8038E1F58091E800877F21
:104760008093E8008091A9028093F10045CF8111E8
:1047700030C09091B002923060F58091E800877F60
:104780008093E8009093A9020E94CC208091A90216
:10479000882311F084E005C08091E30087FDFACF03
:1047A00081E08093AD020E94821D13C08091B0020F
:1047B000813079F481E0933009F080E08093AB029E
:1047C0001092E9008091E800877F8093E8000E94C2
:1047D000CC208091E80083FF0AC08091E800877FA9
:1047E0008093E8008091EB0080628093EB00AA96B2
:1047F0000FB6F894DEBF0FBECDBFDF91CF911F91F2
:1048000008950895CF938091AD028823A1F0C091BF
:10481000E900CF709091EC00892F817090FD80E8C5
:10482000C82B1092E9008091E80083FD0E94AF221E
:10483000CF70C093E900CF910895AA1BBB1B51E133
:1048400007C0AA1FBB1FA617B70710F0A61BB70B00
:10485000881F991F5A95A9F780959095BC01CD01A5
:104860000895EE0FFF1F0590F491E02D099469273C
:10487000962769277827872778270895FB01DC0189
:1048800004C08D910190801921F441505040C8F727
:10489000881B990B0895F999FECF92BD81BDF89AB6
:1048A000992780B50895A6E1B0E044E050E00C946B
:1048B0008524A8E1B0E042E050E00C948524262F46
:1048C000F999FECF92BD81BDF89A019700B4021606
:1048D00039F01FBA20BD0FB6F894FA9AF99A0FBEB4
:1048E00008950396272F0E9460240E945F24252F9D
:1048F0000E946024242F0C9460240196272F0E948C
:1049000060240C945F24DC01CB01FC01F999FECFFB
:1049100006C0F2BDE1BDF89A319600B40D92415047
:104920005040B8F70895F894FFCF89058905E1054F
:10493000E1053306B605B605B6054F06B606C5064B
:10494000C5062107B605B6052A079B079B07A407DE
:10495000A407A607A407A407A4079B079B07AB0708
:10496000A407A407AB0790169D16C416D016DB1635
:10497000E616E916EC16EF1638173817F216F61683
:10498000FE160B1718171B171E172B17D8220023FC
:10499000E9230023E92333235423E923AB23B7235B
:1049A000DB01001B001B1BCE1C031D431DFF1CFB5A
:1049B0001C01E200E900EA00B500B600B700CD0036
:1049C0008301CC008A019201940121022302240276
:1049D0002502260227022A02B300B4006F007000ED
:1049E000818283E200E900EA00B500B600B700CD9D
:1049F000008301CC008A0192019401210223022448
:104A0000022502260227022A02B300B4006F0070BA
:104A10000081828391F5F6F7313390946697C60052
:104A20000140226D7C04ED030F049203AB03CB0322
:00000001FF
