:100000000C9485030C94CC030C94CC030C94CC037B
:100010000C94CC030C94CC030C94CC030C94CC0324
:100020000C94CC030C94CC030C941D210C94D9207B
:100030000C941A220C94CC030C94CC030C94CC0397
:100040000C94CC030C94CC030C94CC030C94CC03F4
:100050000C94CC030C94F6210C94CC030C94CC039C
:100060000C94CC030C94CC030C94CC030C94CC03D4
:100070000C94CC030C94CC030C94CC030C94CC03C4
:100080000C94CC030C94CC030C94CC030C94CC03B4
:100090000C94CC030C94CC030C94CC030C94CC03A4
:1000A0000C94CC030C94CC030C94CC030501098074
:1000B000A101850319012AB700150126B700950192
:1000C00075108100C0050C0901A101850419012AE0
:1000D000A002150126A002950175108100C005013E
:1000E0000906A1018506050719E029E71500250184
:1000F0009508750181020507190029EF15002501F2
:1001000095F075018102050819012905950575010C
:100110009102950175039101C00660FF0961A1017B
:100120000962150026FF00952075088102096315F4
:100130000026FF00952075089102C005010906A15F
:1001400001050719E029E7150025019508750181CA
:10015000029501750881010507190029FF15002680
:10016000FF00950675088100050819012905950508
:1001700075019102950175039101C0000000000016
:10018000000000000000000000000000000000006F
:100190000000000000000000000000000000007EE1
:1001A0000F00D4FFFFFFC700000078000000000030
:1001B0000000002A2B2800000000000000000000C2
:1001C00000000000000029000000002C1E34202147
:1001D0002224342627252E362D3738271E1F20218E
:1001E00022232425263333362E37381F04050607ED
:1001F00008090A0B0C0D0E0F101112131415161707
:1002000018191A1B1C1D2F3130232D350405060724
:1002100008090A0B0C0D0E0F1011121314151617E6
:1002200018191A1B1C1D2F3130354C643214783CC0
:100230001E1E140A05FD377A585A000004E6D6B48B
:10024000460200210116000000742FE5A3E001BE64
:1002500000EB5D003D8889C65436C3174FE4DC319E
:100260009E7CC945D8291A7E26360102152D8C247C
:100270005A74F8A85413273E5908EB33E6C1ECE34F
:100280008FE9BBB4FEF467A8216E839BF674B27A43
:1002900024500698395A698C6FDB2A93525C60BCF3
:1002A000A195D5B6EEB0E0175414157545CF7B1A5D
:1002B000A6F13226C3302B46D2A3D3D95ED309741C
:1002C000BCBE54BF8EA7B5E8320DA51074E8F47813
:1002D00080CD5B7F71FE71AB776FA6C52BD623D91E
:1002E0005F5B76C361D93C013B62E0D8583AFACCF7
:1002F000FAA87EBDFCACD54DB73DCF9A5FA6BFA78F
:1003000029ACD24D60526EE47F65C259E0728B3BDE
:100310008628A1099759382EA2BCDD4ADA81E1CCA2
:10032000B1CBAFEBB477D69D8E4852043B1112404F
:100330008C146F27EE3DB48FEEDFA81451C250002D
:10034000007EAB950CDF0DB3FE00018702BF0300FA
:1003500000484377FDB1C467FB0200000000045968
:100360005A00010101010101010101020202020220
:10037000020202020303030303030303040404044D
:100380000404040505050505060606060607070715
:10039000070708080808090909090A0A0A0B0B0BCC
:1003A0000C0C0C0D0D0D0E0E0E0F0F0F1010111169
:1003B00011121213131414151516161717181819ED
:1003C000191A1A1B1B1C1D1D1E1E1F202021222254
:1003D000232424252626272829292A2B2C2D2D2E97
:1003E0002F30313232333435363738393A3B3C3DB1
:1003F0003E3F404142434445464748494A4C4D4EA2
:100400004F50515354555658595A5B5D5E5F616267
:1004100064656668696B6C6D6F7072737577787AF6
:100420007B7D7E8082838587888A8C8E8F91939551
:1004300096989A9C9EA0A2A3A5A7A9ABADAFB1B375
:10044000B5B7BABCBEC0C2C4C6C9CBCDCFD1D4D655
:10045000D8DBDDDFE2E4E7E9EBEEF0F3F5F8FAFDF7
:10046000FF2223252628292A2C2D2F3032333536FA
:10047000383A3B3D3E4042434547494A4C4E505135
:10048000535557595A5C5E6062646668696B6D6F5C
:1004900071737577797B7D7F81838587898A8C8E5F
:1004A00090929496989A9C9E9FA1A3A5A7A8AAAC67
:1004B000AEAFB1B3B4B6B8B9BBBCBEBFC1C2C3C5A1
:1004C000C6C7C9CACBCCCDCED0D1D2D2D3D4D5D643
:1004D000D7D7D8D9D9DADADBDBDBDCDCDCDCDCDD76
:1004E000DDDDDDDCDCDCDCDCDBDBDBDADAD9D9D85A
:1004F000D7D7D6D5D4D3D2D2D1D0CECDCCCBCAC9F2
:10050000C7C6C5C3C2C1BFBEBCBBB9B8B6B4B3B120
:10051000AFAEACAAA8A7A5A3A19F9E9C9A989694BB
:1005200092908E8C8A89878583817F7D7B79777590
:1005300073716F6D6B6968666462605E5C5A59576F
:10054000555351504E4C4A4947454342403E3D3B2E
:100550003A3836353332302F2D2C2A2928262523B8
:100560002214001A000800150017001C0018000CC7
:10057000001200130004001600070009000A000B17
:10058000000D000E000F0000001D001B00060019EA
:10059000000500110010002C0028000000010001DF
:1005A0000001000100010001000100010001000143
:1005B0000001000100010001000100010001000133
:1005C0000001000000010001000100010001000124
:1005D0000001000100010000000100010001000114
:1005E0000001000100010001000100010001000103
:1005F00000010001000100010001000100010000F4
:1006000000010001000100010001000100010001E2
:1006100000010000000100010001000100010001D3
:1006200000010001000100010001000100010001C2
:1006300000010001000100010001000000010001B3
:1006400000010001000100010001000100010000A3
:100650000009025B00030100A0FA09040000010385
:100660000101000921110100012240000705810359
:1006700008000A0904010002030000000921110119
:100680000001222200070582032000010705030361
:1006900020000109040200010300000009211101EA
:1006A0000001226D000705840320000A12010002E8
:1006B00000000008575028000000010203011C033D
:1006C0007600690061006C003A0066003600340074
:1006D0006300320062003300630000001003420038
:1006E000650074006100200032003800000016032D
:1006F00050004C0049005000200057006F0072006D
:100700006B00730000000403090411241FBECFEF27
:10071000DAE0DEBFCDBF04B603FE27C08091F80348
:100720009091F903A091FA03B091FB038730904BAD
:10073000A740B04BD1F41092F8031092F903109235
:10074000FA031092FB0314BE84B7877F84BF0FB6F1
:10075000F894A89580916000886180936000109261
:1007600060000FBEE0E0F8E3099511E0A0E0B1E021
:10077000ECEDF1E502C005900D92A437B107D9F771
:1007800023E0A4E7B1E001C01D92A83FB207E1F762
:100790000E9441220C94BA280C940000E8EDF0E08D
:1007A00080818E7F80831092E2001092DA00109296
:1007B000E100A0EEB0E08C9181608C9380818F7716
:1007C000808319BCA7EDB0E08C918E7F8C938081E3
:1007D0008F7E80831092C50308952091E4003091AC
:1007E000E50095E6A9012091EC00822F817020FFA1
:1007F00006C08091E80080FF06C080E00895209147
:10080000E80022FD1AC08091F303882389F0853027
:1008100089F08091EB0085FD0FC02091E4003091BC
:10082000E50042175307F9F29150E1F684E008958C
:1008300082E0089583E0089581E00895EF92FF92A9
:100840000F931F93CF937C018B010E94ED03C82F60
:10085000811117C08091E80085FD0BC08091E800F0
:100860008E778093E8000E94ED03882399F3C82FC8
:1008700008C0F70181917F018093F10001501109B7
:1008800049F78C2FCF911F910F91FF90EF90089512
:10089000CF93FC018091F303843001F5C091E9000E
:1008A000CF702091EC00922F917020FD90E8C92B21
:1008B00082E08093E9008091E80080FF0CC050E066
:1008C00040E060E270E0CF010E941E048091E800E9
:1008D0008E778093E800CF70C093E900CF910895A0
:1008E0008091EB0387FF13C08091E80082FF06C070
:1008F0008091E8008B778093E80004C08091F30337
:100900008111F2CF08958091F3038823D9F3809168
:10091000E80080FFF8CF8091E8008E77ECCF982F29
:100920009093E900242F762F50E0891731F07091D1
:10093000EC002091ED005091F00021FD07C09F5F79
:10094000973071F78093E90081E008953091EB00D2
:100950003E7F3093EB003091ED003D7F3093ED0012
:100960003091EB0031603093EB007093EC002093FA
:10097000ED005093F0002091EE0027FDE0CF80E0E5
:100980000895CF92DF92EF92FF920F931F93CF9330
:10099000DF93C8EDD0E088818F7E8883E7EDF0E0BB
:1009A00080818160808384E082BF81E08093C50381
:1009B00088818E7F888302EE10E0F8011082109209
:1009C000DA0081EEC82ED12CF601108288818F7753
:1009D000888388818068888388818F7D888319BC1B
:1009E0001092F3031092EA031092E9031092E803C5
:1009F00090EEE92EF12CF70180818B7F8083888136
:100A00008160888342E060E080E00E948F04F6010C
:100A100080818E7F8083F8018081816080838081E6
:100A200088608083F70180818E7F808388818061E8
:100A30008883DF91CF911F910F91FF90EF90DF900E
:100A4000CF900895FC018091F1039091F2038617F5
:100A50009707A0F06115710529F49091E8009E7741
:100A60009093E80090E06115710551F4911108C070
:100A70008091E80082FF34C080E00895BC01F2CF8D
:100A80008091F3038823C1F18530C1F18091E800A2
:100A900083FD30C08091E80082FDEACF8091E800BC
:100AA00080FFE1CF8091F3002091F200382F611593
:100AB000710519F02830310558F091E028303105E2
:100AC00009F090E02091E8002E772093E800CBCF4A
:100AD00081918093F100615071092F5F3F4FE7CF03
:100AE0008091F303882341F0853041F08091E80044
:100AF00083FFBECF81E0089582E0089583E00895EA
:100B00000895089508958091C703089587E797E7AA
:100B1000909301088093000888E19AE00FB6F8945A
:100B2000A895809360000FBE90936000FFCF9C015A
:100B30004FB7F8948091BC039091BD03A091BE0380
:100B4000B091BF034FBF821B930B08952FB7F8944A
:100B50008091BC039091BD03A091BE03B091BF03EF
:100B60002FBF089520910E012223C9F02091C003C8
:100B700027FF15C0E62FE695E695E695EE31D8F409
:100B8000E80FF92FF11D677021E030E001C0220F5E
:100B90006A95EAF720958281282322830895FC0133
:100BA000329608962191621303C0DF0111971C92BF
:100BB000E817F907B9F7089520910E012223C1F033
:100BC0002091C00327FF14C0E62FE695E695E69531
:100BD000EE31F8F4E80FF92FF11D677021E030E0F5
:100BE00001C0220F6A95EAF78281822B82830895E1
:100BF000FC0132962FEF30E04191641751F02F3F06
:100C000019F4411101C0232F3F5F3630A9F72F3F60
:100C100009F40895820F911D27FD9A95FC016283C6
:100C200008952091B9033091BA032817390771F05C
:100C30009093BA038093B903E091B703F091B8039E
:100C4000309721F00084F185E02D099408952091DA
:100C5000B5033091B6032817390771F09093B603A6
:100C60008093B503E091B703F091B803309721F07A
:100C70000680F781E02D09940895E091B703F09183
:100C8000B803309721F00190F081E02D099480E0C5
:100C90000895DC016091B1038091B203962F89130E
:100CA00001C00895292F30E0F901EE0FFF1FE7552D
:100CB000FC4F408151814A175B07A1F487E08A9F6E
:100CC000A0018B9F500D11244B5A5C4F81E0FA011B
:100CD00084839613E6CF2F5F3F4F237033272093F3
:100CE000B10308952F5F3F4F922F9370D8CF10928A
:100CF000F2021092F102E5E5F3E08581811102C074
:100D000014821682379683E0E93AF807B1F708951E
:100D1000FA01811101C0FB01099480917002982FA2
:100D20009E7F29F4817082608093700208958E31D5
:100D3000E8F381708C61F8CFAF92BF92DF92EF92AF
:100D4000FF920F931F93CF93DF93082F162FE90184
:100D5000E42FF0E0EF59FC4F611110C0E4915E2FD9
:100D60004E2F4983E8835A83DF91CF911F910F91D2
:100D7000FF90EF90DF90BF90AF900895E62EF12C9A
:100D80004491D42EE42FF0E026E0829FC00111248C
:100D90002FEF30E0B9010E940F28802F90E0880FDC
:100DA000991F55E5569FD001579FB00D11248A1BFE
:100DB0009B0B982F990F890F5901AE18BF08AE9E53
:100DC000D001AF9EB00DBE9EB00D11245B2F189FB9
:100DD00080011124012F11275901A01AB10AAE9EDA
:100DE0008001AF9E100DBE9E100D11245901A81A4E
:100DF000B108AE9CC001AF9C900DBE9C900D11241B
:100E0000892F9927281B390B2E9FC0012F9F900DEA
:100E10003E9F900D1124E92F62307105A1F050F42E
:100E20006115710509F49DCF6130710581F0EB2FDB
:100E3000512F97CF6430710569F080F066307105ED
:100E400009F48FCFF4CFE42F4B2F592F8ACFE42F03
:100E5000412F87CFEB2F542F492F83CF4B2F5D2D61
:100E6000E12F7FCF80E00895F894E82FE295EF70AE
:100E7000F0E031A1282F2F7081E090E001C0880FB1
:100E80002A95EAF7982F9095932391A392A1892B05
:100E900082A3789408959091C00392FF06C0282FF2
:100EA00028712830F9F4877F846093FF06C0282FCB
:100EB00028712831F1F4877E84612091C10320FFDD
:100EC00006C0382F38713830D9F4877F816021FF10
:100ED00006C0282F28712831D1F4877E816194FDC6
:100EE000877E0895282F24712430F9F68B7F88603F
:100EF000DCCF282F2471243101F78B7E8861DDCF70
:100F0000382F3171313019F78E7F8860E0CF282F6C
:100F10002171213121F78E7E8861E1CFCF93DF935C
:100F2000EC0182389105A9F1D8F58133910509F4D6
:100F300096C048F58932910509F48AC08A9709F468
:100F400095C0C11522E5D20708F0B6C0C11531E53C
:100F5000D30708F026C1C83ED10508F09CC0C03EAA
:100F6000D10560F5C83AD10508F087C0C53AD1056A
:100F700008F0EFC0C130D10509F12097F9F0C43075
:100F8000D105E0F440C08533910509F45AC0C997F2
:100F9000C1F68091C003837089F0C0EED0E00EC02E
:100FA000833E910599F170F4803E910501F1823EF6
:100FB000910539F68091C00382FD21C0CE01DF91F9
:100FC000CF910895863E910561F1873E910571F1BB
:100FD000843E910509F0B5CF8091C10381FFEECF2A
:100FE0008091C003C7EED0E084FD0DC0E7CF8091B3
:100FF000C00380FD07C19091C10390FFDFCFC3EE16
:10100000D0E084FFDBCFD0E0C0E0D8CF8091C00338
:1010100082FDFBC09091C10390FDBFCF84FFCECF76
:10102000F2CF8091C00383FDDDCFC8CF8091C00394
:1010300083FDEEC09091C10391FFF0CFC4EED0E0EC
:10104000BDCF8091C00385FFB9CFC9E2D0E0B6CF54
:101050008091C00385FFB2CFC5E3D0E0AFCF8091D0
:10106000C00386FFABCFCAE2D0E0A8CF8091C00317
:1010700086FFA4CFC1E3D0E0A1CFCF3BD10518F6C6
:10108000C85AD0E0CC0FDD1FC65EDE4F0990D88174
:10109000C02DD46493CFC11540E5D40708F064C0D7
:1010A000C11580E4D80708F05CC0CE019A9581157F
:1010B0009F4108F483CFA7CFC11536E5D30718F5B4
:1010C000C11545E5D40708F084C0C11584E5D807EB
:1010D00008F07AC09C2F969596959E012370332731
:1010E000C115D34508F462C0C1E0D0E002C0CC0F06
:1010F000DD1F2A95E2F730E2939FC0011124C82B2F
:10110000D92BDA685BCFC1158AE5D80778F4C11509
:1011100099E5D90708F068C0C11528E5D20708F499
:1011200072CFDC2FCC27C06FD06A48CFCE0190564B
:101130008115904208F067CF8D2F8F710E944B0769
:1011400090E0982F882788279F719C012C2BE9011C
:1011500049C0C55AD0E0C95EDE4FC881D0E0D06436
:101160002DCFDF70D06A2ACFCE01E4E09695879527
:10117000EA95E1F783702C2F26952695237040E29F
:10118000249F90011124382B8C2F8370C1E0D0E074
:1011900002C0CC0FDD1F8A95E2F7C22BD32BDC688F
:1011A0000DCFDC2FCC27C16FD06A08CFC1E0D0E0D3
:1011B00002C0CC0FDD1F2A95E2F720E2929FC0010A
:1011C0001124C82BD92BEBCFDC2FCC27C46FD06ACE
:1011D000F5CE8C2F0E944B07C82FD0E0DC2FCC27F8
:1011E000CC27DF71D062EACE8C2F8F700E944B0724
:1011F00034E0D695C7953A95E1F7CF709C2FEC0176
:10120000D069DCCEC9E3D0E0D9CEC2EED0E0D6CEF4
:10121000C6EED0E0D3CE8091F601882331F0109253
:10122000F6011092F5011092F401089580959091C5
:10123000F30198239093F30108958091F301909125
:10124000F201892B9091F101892B80937601809195
:10125000F601882329F10E94A6052091F40130911E
:10126000F501821B930B8838934110F00E940B0903
:10127000809176019091F601892B8093760180917F
:101280000E01882341F18091C00387FF24C08EE1C5
:10129000E8E7F1E090E0815000F591110E940B0920
:1012A000E091B703F091B8033097E1F080910E011F
:1012B000882359F08091C00387FF07C08091760191
:1012C0008093770186E0809376010280F381E02DA0
:1012D00086E791E0099486E0DBCF21912223D9F2C1
:1012E0009F5FD9CF08951092F0011092EF011092F4
:1012F000EE0108958091ED0181111092ED010895A4
:101300008091EC019091AB01981301C008958F5F1B
:101310008770FACF9E3F49F1E82F2AE0929FE00DB7
:1013200011249E2F9770E695E695E69583E0E89F59
:10133000F0011124E956FE4F50E040E080E0219199
:1013400030E0092E02C0369527950A94E2F7217005
:101350003327042E01C0220F0A94EAF7822B4F5F35
:101360005F4F4330510559F7089580E008959E3F3F
:1013700069F1E82F2AE0929FE00D11248E2F8770EB
:1013800041E001C0440F8A95EAF7E695E695E695B7
:1013900083E0E89FF0011124E956FE4F30E020E0A1
:1013A00070E05191DF011197CB01022E02C096959A
:1013B00087950A94E2F78170819585278423852794
:1013C0008C932F5F3F4F2330310559F7089590E0FC
:1013D00080E00E94270690E080E00E9411061092B3
:1013E000F2011092F1010C941D098093F4030C9406
:1013F000E7098091F403982F9670963019F488606D
:101400000C94F509877FFCCF21E030E001C0220F6A
:101410008A95EAF720958091F40382230C94F509CC
:101420009091F001809589238093F001282F2770F7
:1014300091F4282F082E000C330B9217130659F045
:101440009091C10392FD07C08595859585950E9471
:10145000040A0C947309089521E030E001C0220FC2
:101460008A95EAF78091F403822B0C94F509909108
:10147000C10392FD10C098E0899F90011124622B56
:101480006093F0010E942C0A0E94A6059093EF0140
:101490008093EE0108950C942C0A8093F7010C942C
:1014A000E709882321F00E9416090C941D0908956C
:1014B000882339F09091F301982B9093F3010C94C9
:1014C0001D090895882341F19CEF980F913A38F453
:1014D000682F86E791E00E94B2050C941D0990E206
:1014E000980F983050F4877091E001C0990F8A9559
:1014F000EAF7892F0E941609F0CF9BE5980F9330E9
:1015000020F490E080E00C942706885A873120F47C
:1015100090E080E00C9411060895CF93C82F8823A3
:1015200009F467C08CEF8C0F813AC0F580910E01F1
:10153000882311F18091C00387FF1EC0EC2FE69530
:10154000E695E695F0E0EA58FE4F828190E04C2F58
:10155000477021E030E002C0220F331F4A95E2F7C6
:1015600082239323892B91F06C2F86E791E00E94D0
:10157000B2050E941D090AC0E8E7F1E08EE791E09C
:101580002191C21789F38E179F07D1F76C2F86E739
:1015900091E00E94DC05CF910C941D0980E28C0F34
:1015A000883068F4C77021E030E001C0220FCA958E
:1015B000EAF78091F301822B8093F301ECCFEBE506
:1015C000EC0FE33040F4F0E0E95EFE4F808190E004
:1015D000CF910C942706C85AC73158F4EC2FF0E08D
:1015E000EE0FFF1FE65EFE4F80819181CF910C943C
:1015F0001106CF9108958093C2037093C403609342
:10160000C3038091F3038430F9F48093E9008FEFF2
:101610009091E800815095FD06C095ED9A95F1F7FF
:1016200000008111F5CF8091E80085FF0DC050E0EA
:1016300040E063E070E082EC93E00E941E04809141
:10164000E8008E778093E8000895BC0184E00C9454
:10165000FB0ABC0183E00C94FB0ACF93DF93EC01FF
:1016600080910E018823B1F18091C00387FF32C0C1
:1016700060E284E08093E9008FEF9091E800815070
:1016800095FD06C095ED9A95F1F700008111F5CF13
:101690008091E80085FF1BC080910E0170E050E052
:1016A00040E0811104C050E040E068E070E0CE010D
:1016B0000E941E048091E8008E778093E80080E20B
:1016C000FE01A8ECB3E001900D928A95E1F7DF915D
:1016D000CF91089568E081E0CDCF8091700280FDC8
:1016E0000AC0ECE1F2E0118210821282339652E0DD
:1016F000E037F507C1F7509A3BB13E7F2BB121602F
:101700004FB7F8948CE192E0FC015191CF0168E071
:101710002BB9000000C057FF3BB9550F000000C0B7
:1017200000C000C03BB900C06A9591F7F2E0803775
:101730009F0751F74FBF8FE594E00197F1F700C085
:1017400000000895EF92FF921F93CF93DF93EC0177
:101750008CE1E82E82E0F82E10E08C819701409118
:10176000730260917202810F0E949C06175F83E0F2
:10177000E80EF11C1C3F89F70E946D0B9A818C8149
:1017800090FF08C08F5F8C83DF91CF911F91FF90F6
:10179000EF9008958150F7CF9091700290FF0CC0A8
:1017A000ECE1F2E0818360834283339692E0E0379C
:1017B000F907C1F70C946D0B0895CF93DF9300D018
:1017C0000F92CDB7DEB79091700290FF0AC09E01D4
:1017D0002F5F3F4F0E949C064B8169818A810E9446
:1017E000CC0B0F900F900F90DF91CF910895CF9376
:1017F000DF93EC01E0E7F2E0438162818C810E949B
:10180000DD0B8C818F5F8C83DF91CF910895CF9317
:10181000DF93EC01EC81F0E0EF59FB4F4491E0E7FE
:10182000F2E0628181810E94DD0B8C818F5F8C836D
:10183000DF91CF9108951F93CF93DF93182FD0E0BE
:10184000C0E0893311F4C0E5D0E0812F0E948D0AF9
:10185000209731F4812FDF91CF911F910C94620A70
:101860008FE99FE00197F1F700C000002197F0CFCA
:101870000F931F93CF93DF93C62FD42F022FFC011A
:1018800082818823A1F06093F7030E94A6059093BC
:10189000F6038093F503C77081E001C0880FCA95F5
:1018A000EAF7DF91CF911F910F910C94580A809124
:1018B000F703681335C08091F5039091F6030E94F9
:1018C0009705883C910560F510E21D0FCD17B9F022
:1018D00080E28C0F883040F4C77081E001C0880F2F
:1018E000CA95EAF70E94510A183048F481E09D2F0A
:1018F000977001C0880F9A95EAF70E94580A802FC6
:101900000E941B0C183098F4D77081E001C0880F3A
:10191000DA95EAF7DF91CF911F910F910C94510A5C
:10192000C77081E001C0880FCA95EAF7F3CFDF9155
:10193000CF911F910F910895AF92BF92CF92DF92F6
:10194000EF92FF920F931F93CF93DF93EC018AE006
:10195000A82E2881222309F48CC02130C9F5998151
:101960008A81913021F422960E941B0C05C092308E
:1019700029F422960E948D0A2196EBCF933021F410
:1019800022960E94620AF8CF943011F02196F4CF8B
:10199000229630E020E0AE014F5F5F4F8053990BFD
:1019A0008A30910550F02150310930F38FE99FE0E2
:1019B0000197F1F700C00000F6CFA29EB001A39EF0
:1019C000700D11249C01260F371F8981EA01E3CF96
:1019D000E22FF0E0E555FE4FB490822F8695869574
:1019E000869590E0FC01E556FE4FE4902770F12CBF
:1019F000022E02C0F594E7940A94E2F731E0E32264
:101A0000FF24FC01E557FE4FC490D12C022E02C0EA
:101A1000D594C7940A94E2F731E0C322DD24FC0197
:101A2000E558FE4F049110E002C0159507952A95E0
:101A3000E2F701701127E114F10419F081EE0E9420
:101A40008D0AC114D10419F086EE0E948D0A8B2DE7
:101A50000E941B0CCD2819F086EE0E94620AEF2826
:101A600019F081EE0E94620A012B09F485CF8CE205
:101A70007BCFDF91CF911F910F91FF90EF90DF907F
:101A8000CF90BF90AF900895CF93DF93CFE8D1E090
:101A900060E0CE010E947E282196C11584E0D8071F
:101AA000B9F7DF91CF9108950F931F93CF93DF93F1
:101AB0008901843048F5633038F54A3028F521151E
:101AC0003C4531F42091ED023091EE02232BE1F000
:101AD000C42FD0E0CC0FDD1F94E1699FC00DD11D54
:101AE00011249CE3899FC00DD11D1124612FCE01CB
:101AF00087960E947E28602FCE018896DF91CF9135
:101B00001F910F910C947E28DF91CF911F910F911F
:101B10000895CF93C82F6FEF81116DE483E290E0B9
:101B20000E947E286FEFC11164E284E290E00E947F
:101B30007E286FEFC11169E885E290E0CF910C94A7
:101B40007E28CF93C091C103C2FB992790F99817C3
:101B500099F080FBC2F9C093C1036091C00384E097
:101B600090E00E947E286C2F82E290E00E947E2806
:101B700082E0CF910C94100ACF9108957F928F92BA
:101B80009F92AF92BF92CF92DF92EF92FF920F930C
:101B90001F93CF93DF93CDB7DEB72A970FB6F89494
:101BA000DEBF0FBECDBFA090ED02B090EE0281E08F
:101BB00090E09093EE028093ED0281E6C82E85E0DE
:101BC000D82E712C760100E014C0F40125913491D7
:101BD000412F602F872D0E94540D82E0880E911CAA
:101BE0001F5F1A3091F794E1E90EF11C0F5F03308B
:101BF00019F0470110E0E9CF7394ECE3CE0ED11C4D
:101C0000F4E07F12DFCFCE0101967C01FC0111923E
:101C10001A95E9F707E111E04AE050E0B801C70181
:101C20000E94A228065F1F4F0F38F1E01F07A1F79F
:101C3000B092EE02A092ED022A960FB6F894DEBFA3
:101C40000FBECDBFDF91CF911F910F91FF90EF900D
:101C5000DF90CF90BF90AF909F908F907F9008952E
:101C600080E00E94890D60E086E290E00E947E287C
:101C70000E94BE0D0E94440D81E00C94890D0F93CB
:101C80001F93CF93DF93843030F5633020F54A30D3
:101C900010F5C42FD0E0CC0FDD1F24E1629FC00DF2
:101CA000D11D11243CE3839FC00DD11D1124CE0111
:101CB00087960E946A28082F10E0102F0027CE0177
:101CC00088960E946A289801282BC901DF91CF913C
:101CD0001F910F91089590E080E0F8CF462F20915A
:101CE000EF023091F002232B49F4843038F4733042
:101CF00028F46A3018F4672F0C943F0E90E080E0CF
:101D00000895CF92DF92FF920F931F93CF93DF93AB
:101D10006C010091F4038091F701082BC7E0D0E03B
:101D200010E0FC2EC8010C2E02C0959587950A94F0
:101D3000E2F780FD0CC02197A0F7F12C8F2DDF91E9
:101D4000CF911F910F91FF90DF90CF900895B60132
:101D50008C2F0E946E0E0E948E07019761F3EECFCA
:101D6000CF93DF93EC010E94810EBE010E946E0EA4
:101D7000DF91CF910C948E07FC01868197810097AB
:101D800079F00E948E07292F2F7092959F709250A4
:101D90009E30A0F4E92FF0E0E454F74D0C94232892
:101DA000808191810E94B00EEECF803F19F020F427
:101DB000883E20F481E00895843FE1F380E00895B7
:101DC000883EC0F3813FD1F7F5CF822F8695869567
:101DD000869508951F93CF93DF9300D000D00F9284
:101DE000CDB7DEB7FC01268137812115310541F5DC
:101DF00025E0DE01119601900D922A95E1F7FC0194
:101E0000228189819A812223B9F06623A9F00E9458
:101E1000810E182F682F89819A810E94B7096981E4
:101E20007A81812F0F900F900F900F900F90DF917C
:101E3000CF911F910C946E0E0E948A09182FEFCF3C
:101E4000C9010F900F900F900F900F90DF91CF91DD
:101E50001F91089583E290E00E946A288D3489F4EE
:101E600084E290E00E946A28843259F485E290E08E
:101E70000E946A2891E0893809F090E0892F8170EA
:101E8000089580E0FCCFCF9384E090E00E946A2820
:101E9000C82F82E290E00E946A28982F8C2FCF9161
:101EA00008951092F30180910E01E8E7F1E0882394
:101EB00059F08091C00387FF07C08EE1DF011D92BA
:101EC0008A95E9F70C94E70986E0F8CF1F93CF9342
:101ED000DF93CDB7DEB7AA970FB6F894DEBF0FBE7B
:101EE000CDBF8BEE93E02091F100DC012D93CD016D
:101EF000B3E0833F9B07B9F78091EC03833009F48B
:101F000072C0B8F4813009F449C0823009F4B3C01A
:101F10008091E80083FF96C28091EB039091EC03DF
:101F20009A3008F08FC2E92FF0E0E653F74D0C9499
:101F300023288A3009F48EC08B3009F471C08930AF
:101F400039F78091EB03813219F78091EF0390917B
:101F5000F003009711F00297D9F68091E800877F8F
:101F60008093E8008091E80082FF38C09091F300F0
:101F70008091F200029731F48091F100813011F0EC
:101F8000863021F48091F1008093C7038091E800AE
:101F90008B778093E8000E947004BACF8091EB03A6
:101FA000813A09F0B5CF8091E800877F8093E800FF
:101FB0008091EF039091F003892B61F460E288EC4B
:101FC00093E070E00E9422058091E8008B77809377
:101FD000E8009ECF60E090E080E0F3CF8091F303D3
:101FE0008111C0CF95CF8091EB03813A09F090CF5A
:101FF0008091EF039091F003892B09F089CF8091B4
:10200000E800877F8093E8008091E80080FFFCCFA4
:1020100080910E018093F1008091E8008E77B9CF16
:102020008091EB03813209F073CF8091EF0390919F
:10203000F003892B09F06CCF8091E800877F8093B3
:10204000E8000E9470048091ED0380930E010E94CD
:10205000510F5ECF8091EB03813209F059CF80910F
:10206000E800877F8093E8000E9470048091EE036F
:102070008093C6034DCF8091EB03813A09F048CF9E
:102080008091E800877F8093E8008091E80080FFDE
:10209000FCCF8091C603BECF803899F0823809F01A
:1020A000D1C18091EF038F70873008F0CBC180934E
:1020B000E9008091EB0085FB882780F91092E90008
:1020C00006C08091E8039091E9039111826090919C
:1020D000E800977F9093E8008093F1001092F10060
:1020E0008091E8008E77AAC1882309F498C18230D4
:1020F00009F0A8C18091ED0381119BC18091EF038C
:102100008F702FEF280F263008F09CC18093E900D4
:102110002091EB0020FF8DC1933031F48091EB00D2
:1021200080628093EB0085C19091EB009061909369
:10213000EB0021E030E001C0220F8A95EAF72093FE
:10214000EA001092EA008091EB008860EACF8111EA
:1021500079C11091ED031F778091E3008078812B86
:102160008093E3008091E800877F8093E8000E94DD
:1021700070048091E80080FFFCCF8091E3008068CC
:102180008093E30082E0111183E08093F3035AC14E
:102190008058823008F056C12091ED033091EE0353
:1021A0002C3DE3E03E07A1F583E08A838AE2898340
:1021B0004FB7F894DE01139620E03EE051E2E32FA2
:1021C000F0E050935700E49120FF03C0E295EF70D8
:1021D0003F5FEF708E2F90E0EA30C0F0C7968D938E
:1021E0009D932F5F243159F74FBF8091E800877F7F
:1021F0008093E8006AE270E0CE0101960E94220519
:102200008091E8008B778093E8001CC1C096E7CFEF
:102210008091EF039091F003432F552743305105F0
:1022200009F44AC078F54130510509F485C08BE5C1
:1022300090E0E1E5F6E04230510509F003C120915C
:10224000E800277F2093E8002091F1033091F2030A
:102250008217930708F49C0140E02115310509F02D
:1022600070C041116EC08091E80082FDC9CF80919D
:10227000F303882329F2853019F28091E80083FF67
:10228000F2CFBECF4132510509F447C04232510569
:1022900009F0D8C08330910508F0D4C0FC01EE0FDE
:1022A000FF1FE959FE4F0190F081E02D8C599E4FA0
:1022B000DC018C9190E01DC0332721303105E9F01D
:1022C0002115310579F022303105F9F0233031053F
:1022D00009F0B8C0EEEBF6E0E4918E2F90E0EEEB63
:1022E000F6E007C0E6E0F7E0E4918E2F90E0E6E04C
:1022F000F7E0009709F4A6C0A2CFEEEEF6E0E49175
:102300008E2F90E0EEEEF6E0F4CFECEDF6E0E49107
:102310008E2F90E0ECEDF6E0ECCF8330910508F0E5
:1023200091C0880F991FFC01E359FE4F0190F08185
:10233000E02D89E090E083CF82E190E0ECEAF6E0E6
:102340007ECF8091F303882309F45ACF853009F4B6
:1023500057CF8091E80083FD53CF8091E80082FD44
:1023600082CF8091E80080FF78CF9091F300809138
:10237000F2002115310519F08830910550F041E047
:10238000089709F040E08091E8008E778093E8009C
:1023900064CF44914093F100319621503109019668
:1023A000E8CF803809F04EC08091E800877F8093A5
:1023B000E8008091EA038093F10092CE811142C03F
:1023C0001091ED031230F0F58091E800877F809343
:1023D000E8001093EA030E947004112311F084E0D6
:1023E00005C08091E30087FDFACF81E08093F3037D
:1023F00042E061EC81E00E948F0442E261EC84E003
:102400000E948F0442E261EC82E00E948F0442E26B
:1024100060EC83E00E948F048091F30313C08091ED
:10242000ED03813079F481E0933009F080E080930E
:10243000E9031092E9008091E800877F8093E8002B
:102440000E9470048091E80083FF0AC08091E80038
:10245000877F8093E8008091EB0080628093EB009F
:10246000AA960FB6F894DEBF0FBECDBFDF91CF9115
:102470001F910895CF92DF92EF92FF920F931F93D7
:10248000CF93DF93CDB7DEB72A970FB6F894DEBFB0
:102490000FBECDBFE5E7F2E088E7DF011D928A9528
:1024A000E9F7E5E5F3E084E5DF011D928A95E9F7B8
:1024B00085E7C82E82E0D82E7F0107E111E0F70101
:1024C000D182C0824AE050E0B801CE0101960E945C
:1024D0005A2888E0FE013196D60101900D928A9526
:1024E000E1F789859A85D70113969C938E9312976D
:1024F000BAE0CB0ED11CE7E0EE0EF11C065F1F4FD9
:102500000F38F1E01F07D9F62A960FB6F894DEBF10
:102510000FBECDBFDF91CF911F910F91FF90EF9034
:10252000DF90CF900895CF92DF92EF92FF926B01F0
:102530007C010E948D06B701A60188E090E0FF9023
:10254000EF90DF90CF900C949028EF92FF920F9332
:102550001F93CF93DF9300D00F92CDB7DEB7082F34
:10256000F62E142FE22E8091700280FF28C0E82FF3
:10257000E695F0E0EB5AFE4F908190931A028E7F21
:10258000823039F59E012F5F3F4F802F0E949C06BD
:102590004B8169818A810E94CC0B00937102F09279
:1025A000720210937302EE2051F0609170027091EC
:1025B000710280917202909173020E9493120F90A7
:1025C0000F900F90DF91CF911F910F91FF90EF909F
:1025D0000895923019F410917302DFCF963019F4F8
:1025E00000917102DACF9930C1F6FACFE0E7F2E05C
:1025F000438121E1421B08F440E021E062818181B6
:102600000C94A512E0E7F2E0438121E1420F08F4C7
:102610004FEF21E0628181810C94A512E0E7F2E0A6
:10262000628121E1621B08F460E021E04381818145
:102630000C94A512E0E7F2E0628121E1620F08F458
:102640006FEF21E0438181810C94A512E0E7F2E075
:10265000818121E04381628188500C94A512E0E7DA
:10266000F2E0818121E043816281885F0C94A512B0
:1026700080917402882319F08150809374026091D4
:1026800070027091710280917202909173020C94A9
:10269000931280917402833018F48F5F80937402D8
:1026A0006091700270917102809172029091730238
:1026B0000C9493129091700290FF3DC09170811123
:1026C00029C0926090937002662351F0609170026D
:1026D0007091710280917202909173020E94931224
:1026E00060917002669570E041E050E08CE091E00E
:1026F0000E943928892BA9F010921B0281E0809357
:10270000170220E040917302609172028091710281
:102710000C94A5128F3010F09C61D4CF880F982BA9
:10272000D1CF81E080931B020E94A60590931502F1
:1027300080931402E3CF08958091700286958150B2
:1027400009F48EE061E00C945A1380917002869532
:102750008F5F8F3008F081E061E00C945A13909104
:10276000700290FF07C09695981720F0961710F406
:102770000C94A51361E00C945A13E0E7F2E083E0B7
:10278000808311828FEF82838383148260817181C1
:10279000828193810C9493126AEE7EEF90E080E048
:1027A0000E949C2860E082E090E00E947E2860E029
:1027B00083E090E00E947E281092F70160E084E0C0
:1027C00090E00E947E2860E082E290E00E947E28F5
:1027D00060E085E090E00E947E2860E086E090E086
:1027E0000E947E286FEF87E090E00E947E2840E004
:1027F00050E0BA0188E090E00E94902860E08DE00F
:1028000090E00E947E2840E050E0BA0188E190E02C
:102810000E94902860E087E190E00E947E2840E0DE
:1028200050E0BA018CE190E00E94902870E060E0F6
:1028300080E290E00E949C2840E050E0BA0188E1EC
:1028400090E00E94902880E00E94890D0E94300E46
:1028500040E050E0BA018FE090E00E94902840E014
:1028600050E0BA0183E190E00C9490288F929F92FF
:10287000AF92BF92CF92DF92EF92FF920F931F938E
:10288000CF93DF9300D000D0CDB7DEB77C01FC0141
:1028900083819481892B31F08081918189238F3FBD
:1028A00009F0E6C40F900F900F900F90DF91CF9139
:1028B0001F910F91FF90EF90DF90CF90BF90AF905E
:1028C0009F908F900895980122513F452031310506
:1028D00008F0A7C48FEF93E00E946A284EEED42E32
:1028E000D00E0FE811E08823E1F08091F0018770AD
:1028F000C9F2F70182818823A9F28091C10382FD88
:10290000D1CF82E00E94100ACDCF0115F4E01F075D
:1029100061F3C8010E946A28811101C0DA940F5F37
:102920001F4FD110F2CF19821A821B821C82CC2435
:10293000CA9448012FEF821A920AC8010E946A289D
:1029400089831A82882389F2813009F047C05801AF
:1029500032E0A30EB11CC4010E946A28982E8A831B
:10296000882319F2C5010E946A28D82E8FEF890D9D
:10297000833068F4580143E0A40EB11CDB82DD20F3
:1029800021F0CE0101960E949C0C8501D2CF54E02B
:102990009512FBCF580184E0A80EB11CC801039624
:1029A0000E946A28DD2009F4A0CF882309F49DCF76
:1029B0008150990BC89E9001C99E300D1124ED2DB8
:1029C000E150FF0BCF01820F931F0197F0F2EFE967
:1029D000FFE03197F1F700C00000F7CFCE0101967C
:1029E0000E949C0C5401D1CF81E00E942C0A0E94CD
:1029F000F9097BCF81E00E94040AF9CF82E0F5CF8C
:102A0000053FECE51E0709F45EC008F458C0063F18
:102A10002CE5120709F45BC0882309F43DC4109229
:102A2000F70303303DE5130708F058C00A3F4CE5B3
:102A3000140730F4C80182509C45449708F053C0F5
:102A40000E94430F9093C1038093C00300318CE533
:102A5000180709F41BC108F097C00830ECE51E0701
:102A600009F406C108F066C004302CE5120709F429
:102A7000EDC008F04FC002304CE5140709F4E0C087
:102A80008091C003826003301C4509F4DCC0609172
:102A9000C0031091C10384E090E00E947E28612F62
:102AA00082E290E00E947E280E94510F1ECF27E212
:102AB00045EE65EED9C326E241EE60EED5C327E2CE
:102AC00045EE64EED1C326E241EE62EECDC327E2CD
:102AD00045EE66EEC9C328E241E0EBCF01365DE585
:102AE000150709F4ADCF8091F30106319CE5190774
:102AF00009F0DFC38A7A91E009F490E0909396019F
:102B000069E2811165E386E791E00E94DC050E949D
:102B10001D09EBCE06308CE5180709F4A5C080919D
:102B2000C003886007301C4508F48DC08091C00345
:102B3000806289C08091C0038D7F0C30ECE51E0758
:102B400009F481C070F48091C0038C600A302CE5D8
:102B5000120709F478C008F48FC08091C0038E7FFB
:102B600072C08091C003877F0E304CE5140709F4D2
:102B70006AC08091C0038B7F0F301C4508F463C08E
:102B80008091C0038F7E5FC00C3F8CE5180709F46D
:102B900079C068F50431ECE51E0709F48BC080F4B8
:102BA00002312CE5120709F475C08091C0038F7BB8
:102BB00003311C4508F447C08091C003837F43C0A4
:102BC0000A3F4CE5140709F445C008F049C0053137
:102BD0001C4509F05CCF8091C00382FB992790F9D6
:102BE00021E0922790FB82F990FB83F92CC001151C
:102BF0009DE5190709F454C088F48091C1038360EE
:102C00000E3FFCE51F0749F18091C1038D7F0F3F07
:102C10001C4518F18091C1038C7F1FC002303DE537
:102C2000130709F456C008F44EC001361D4509F0DB
:102C30002ECF9091C003892F8F7E94FF806103C0B7
:102C40008091C00381608093C00321CF8091C00335
:102C50008460F9CF8091C10381608093C10317CF55
:102C60008091C1038260F9CF8091C0038061EBCF76
:102C70008091C0038064E7CF0E94510F8091C00310
:102C80008068E1CF8091C1038E7FE7CF8091C00340
:102C90008F7DD9CF0E94510F8091C0038F77D3CF02
:102CA0008091C103982F909591708E7F892B90FB16
:102CB00081F9D3CF0E94510F9091C003892F97FBC8
:102CC00087F98058C0CF61E08EE090E00E947E28B6
:102CD000DECE60E0F9CF8091700280FF1BC08E7F56
:102CE0008093700260917002709171028091720203
:102CF000909173020E94931210921B02EFEFF0E783
:102D000022E0E150F0402040E1F700C000000E94C6
:102D10006D0BEBCD81608093700261E086950E941F
:102D20005A13E3CD4CE953E165EA73E10E9488064A
:102D3000DCCD45EA53E16CE973E1F8CF46E253E1BB
:102D40006FE273E1F3CF4FE253E166E273E1EECF5E
:102D50004EE053E16AE173E1E9CF4AE153E16EE00D
:102D600073E1E4CF42E053E166EF72E1DFCF48E385
:102D700053E169E473E1DACF49E453E168E373E1D5
:102D8000D5CF61E081E0CBCF68E086E00E94AF1351
:102D9000ACCD0B359DE5190701F10C351D4509F04A
:102DA000B3C28091C10382FB882780F991E0892713
:102DB0000E94A10DA9C20E94510FFFEF24E33CE045
:102DC000F15020403040E1F700C000000E9486052D
:102DD0000E94CC138ACD81E0EBCF80E0E9CF8281E5
:102DE00000811181882369F0C8010E94810ED82ECC
:102DF000682FC8010E94B709B8018D2D0E946E0E80
:102E000089C2C8010E948A09D82EF6CF212F2F70BF
:102E1000C22E107F19F0C29490EFC922DD20B9F0C4
:102E2000CC2069F080E2800F883010F0011109C0D9
:102E30008091F301C82AC092F3010E941D09802FDE
:102E40004AC08091F201C82AC092F201F6CF802FC9
:102E50000E94620ACC2009F440C080E2800F8830D2
:102E600010F0011104C08C2D0E94160906C0C094F8
:102E70008091F201C822C092F2010E941D092DC06A
:102E8000312F3F70932E107F103219F0929480EF03
:102E90009822002381F0013009F48BC0DD2009F471
:102EA00094C0CC2009F469C0F701858180FFC7CFA9
:102EB0008F70858362C08091C10382FF39C0DD209D
:102EC00081F1992039F08091F30189298093F301F0
:102ED0000E941D0980E00E948D0A4A2D4850550B22
:102EE0004430510510F40E943D06BB20A9F08091AA
:102EF000F00180FD11C0F7011282859585958595B9
:102F00000E942C0AC7010E9436148091F001859519
:102F1000859585950E94040A60E0C7010E94EA0E2B
:102F2000C1CC80E00E94620A9920B9F2892D9CCF21
:102F3000DD2039F1C11004C08091F60189291EC03D
:102F400041E0C41210C082FDC8CF8091F601982ADA
:102F5000981619F20E94A6059093F5018093F4014A
:102F60009092F601BACF55E0C512E6CF0E940B0948
:102F70008091ED0198129092ED01892D0E94580ADE
:102F8000ACCFC11006C00E940B09892D0E94510AC6
:102F9000A4CF81E0C81208C08091F301892109F40F
:102FA0009CCF0E947A09EFCF95E0C91609F495CF1E
:102FB000EACFDD2029F0E5E0EC1508F48ECFDDCF77
:102FC000F4E0FC1508F489CFE0CFCC20F1F209330E
:102FD00049F4FFEF27EE33E0F15020403040E1F7B5
:102FE00000C00000802F0E94620A77CF812F869553
:102FF0008695837061F0813009F06FCFC8019370BE
:10300000D11002C090E080E00E94110666CFC80196
:103010009370D11002C090E080E00E9427065DCF3F
:10302000812F837089F5D11058CF402F4295469556
:103030004770440F440F802F8F70042E01C0880FFB
:103040000A94EAF7202F207104FF07C02FE030E038
:1030500001C0220F4A95EAF7209516951695137030
:10306000123069F050F43091F701113029F0822BC1
:1030700083230E944D0A31CF832B822BFACF282B3A
:103080008091F7018227F5CF8695DD2011F0812F01
:103090008170882309F421CF402F429546954770CF
:1030A000440F440F802F8F70042E01C0880F0A94A4
:1030B000EAF7202F207104FF07C02FE030E001C0A5
:1030C000220F4A95EAF7209516951695137012303F
:1030D00069F050F43091F403113029F0822B8323EE
:1030E0000E94F509FACE832B822BFACF282B8091F0
:1030F000F4038227F5CF1F70DD2029F0812F0E9475
:103100002C0A802F3BCF802F0E94510A812F0E94D2
:10311000040AE3CE023F81F160F4003FB9F0013FC1
:1031200081F0DD2009F46DC0C11089CE812F8F712F
:1031300027C0033F41F1043FA1F78091C10382FF03
:103140002DC0812F8F71DD2011F31AC0DD2079F0A1
:1031500044E04C1508F4C1CE1F7181E090E001C03D
:10316000880F1A95EAF79091F4038927B9CF55E0B3
:103170005C1508F4B2CEF0CF812F8F71D110C7CF7C
:103180000E942C0AAACE80E0DD2009F4A9CF1F718D
:1031900081E001C0880F1A95EAF7A2CF8091ED0176
:1031A000DD20D9F00E9416098091F00187708430EB
:1031B00041F40E947309812F8F710E94040AB12C7F
:1031C0008CCE84E08C15D8F31F71812F0E942C0ABD
:1031D00063E0812F0E94370AF2CF9091F301982B80
:1031E0009093F30194E09C1540F40E9473090E94AF
:1031F0007A0964E0812F8F71EDCF81E00E94100A7F
:10320000DECFCC2059F0093309F0ECCEEFEFF7EE2A
:1032100023E0E150F0402040E1F7E2CE812F8F71B2
:1032200076CF0031FFE51F0709F4DECB01312FE532
:10323000120709F4E3CB033F2CE5120709F43BCC5A
:1032400008F0DECB083D4CE5140709F430CC093D0D
:103250005CE5150709F43FCC073D9CE5190709F02B
:10326000DBCB26E241EE61EEC7010E94380C3DCB7C
:1032700061E0C7010E94EA0E8C01F7018281811191
:1032800022CB00313FE5130709F4B4CB01314FE500
:10329000140789F682E0AFCB06311C45A9F5809171
:1032A000960169E2811165E386E791E00E94B2052B
:1032B0002ECC82720A3C2CE5120709F453CD08F09B
:1032C00073C0053C4CE5140709F438CD08F056C02E
:1032D000033C9CE5190709F425CD08F02ACD023CF2
:1032E000FCE51F0709F4F7CC0A353DE5130709F49F
:1032F00072CD08F04ECD01155CE5150709F45BCDE4
:103300000E3D1C4509F464CDF70186819781009735
:1033100009F465CD0E948E078C01F701D280C5802B
:10332000C2943FE0C3228091F0018770C1F0BD2CB0
:10333000DD20B1F0812F807F803421F080E2800F8A
:10334000883068F08091C10382FD09C082E00E944C
:10335000100A8091F0018770BB24B3948111B12CC5
:10336000A12EA2942FE0A222FBE0FA1508F4B5CD1D
:10337000EA2DF0E0EC52F74D0C942328073C2CE5A5
:10338000120709F4E5CC08F4DECC083C4CE5140740
:1033900009F4E3CC093C5CE5150709F0A5CF46EF3D
:1033A00052E162E073E1C2CC0F3C9CE5190709F4DD
:1033B000EBCCA0F40C3CFCE51F0709F4DDCC08F4D1
:1033C000D6CC0D3C3CE5130709F4DBCC65E082E08C
:1033D0000E3C4CE5140709F4D9CC86CF063D5CE5DC
:1033E000150738F4013D1C4508F07FCA6EE089E0FE
:1033F000CDCC0D35100709F478CA76CFCF93DF9383
:103400008091A801807FA1F48091A501882381F09B
:103410008091EC01D091AB016091A3017091A40166
:10342000A091A601B091A701C62FC723D81303C04E
:10343000DF91CF91089590E0109711F0CF3F19F4EC
:1034400001968770F3CF9C0143E0220F331F4A950A
:10345000E1F7F901E455FE4F41814713F1CF408177
:103460004613EECF42814111EBCF438154814A1B79
:103470005B0B483C510520F78091A8018F7080615B
:103480008093A801F901EF54FE4F80818F70806115
:10349000808383EA91E00E943614DF91CF910C94EF
:1034A0008009AF92BF92CF92DF92EF92FF920F937B
:1034B0001F93CF93DF93CDB7DEB765970FB6F89420
:1034C000DEBF0FBECDBF8C0185E0F801DE01519655
:1034D00001900D928A95E1F7F801E28063EAA62E49
:1034E00061E0B62E6091A6017091A701611571058A
:1034F00009F468C19091A3014091A401892F84230C
:103500008F3F09F45FC120813181C380D480F09066
:10351000A501F601E61BF70BFF2009F41DC1809100
:10352000A801582F507FE83CF10508F0D0C0511198
:1035300081C0FE2C43132BC0921329C06091A901B6
:103540007091AA01F8014681578164177507F9F453
:10355000E1101DC08F7080618093A801C5010E9499
:1035600036148091A801F80185838F2D65960FB6DA
:10357000F894DEBF0FBECDBFDF91CF911F910F91A9
:10358000FF90EF90DF90CF90BF90AF900895CD283F
:1035900029F0822F83238F3F09F02FC180E0F82F7D
:1035A000F170DF2E80FF3CC08091EC014091AB01B7
:1035B000841315C0298B3A8B89899A890E94B00E91
:1035C000292F22952F702230F8F0243020F59F709B
:1035D000F9F0F8019581907FD9F4D12C1FC090E0CB
:1035E000FC0153E0EE0FFF1F5A95E1F7E455FE4F43
:1035F0005181351306C05081251303C05281E51255
:103600000FC001968770D4CF9F7011F0882329F3E3
:10361000805E883010F3C8010E943614FD2CA5CFBF
:10362000EE2009F4A2CF8091A80181608093A801C7
:10363000F12C9BCF43131BC0921319C04091A901D9
:103640005091AA01F801268137814217530779F476
:10365000E1100DC08583C8010E94361488E0F8018E
:10366000A3EAB1E001900D928A95E1F77ECFC801FF
:103670000E94BC0E882339F1EE2029F18091A80127
:103680008032A0F02091A3013091A4013A872987CC
:103690001B86DD86CC868E878091A9019091AA0138
:1036A000988B8F87CE0109960E94361488E0F80126
:1036B000A3EAB1E001900D928A95E1F70E94FE190C
:1036C000FF24F39452CFC8010E943614F9CF511150
:1036D0000AC083EA91E00E94361488E0F501119255
:1036E0008A95E9F7A5CF431318C0921316C04091ED
:1036F000A9015091AA01F801268137814217530789
:1037000061F4E1100AC08583C8010E94361488E084
:10371000F50111928A95E9F728CFC8010E94BC0EE5
:10372000882389F2EE2079F28091A801803208F492
:10373000BDCF2091A3013091A4013A8329831B823C
:10374000DD82CC828E838091A9019091AA01988715
:103750008F83CE010196A8CFE83CF105C0F6FE2C80
:10376000EE2009F4B0CF43131FC092131DC0209167
:10377000A9013091AA01F80186819781281739079C
:1037800099F49091A80190FD69CF907F09F466CFDC
:103790008091A8018583903F09F45DCF982F907F99
:1037A000905F8F70892B56CFC8010E94BC0E81118B
:1037B0007DCF8091A80181608093A801C8010E94FB
:1037C0003614D3CEEE2009F47ECFC8010E94BC0E81
:1037D000F82E882309F477CF88E0F801A3EAB1E056
:1037E00001900D928A95E1F78091A3019091A40137
:1037F0000E94B00E0E94FE19B8CE81E08E25CFCE79
:10380000CF93DF93CDB7DEB760970FB6F894DEBFE6
:103810000FBECDBF29873A874B875C876D877E8730
:103820008F87988BCE0109960E94511A811112C080
:1038300088E0FE013996DE01119601900D928A957D
:10384000E1F78C859D85892B29F089859A858923C7
:103850008F3FA9F58091EC019091AB0189131CC0B9
:1038600060960FB6F894DEBF0FBECDBFDF91CF914B
:10387000089593E0AA0FBB1F9A95E1F7A455BE4F98
:1038800098E0FE01319601900D929A95E1F78093B0
:10389000AB010E948009DECFB8E08B9FC0011124EC
:1038A00084559E4F0E94511A8823D1F28091EC01D9
:1038B00090E00196877099278093EC01CBCFA0917F
:1038C000AB01B0E0CD010196877099272091EC0102
:1038D0002817190671F60E94510F1092AB01109231
:1038E000EC0188E0E3EAF1E0DF011D928A95E9F757
:1038F000B1CF0F931F93CF93DF938091F402E091A8
:10390000F302CCE081111AC0DF91CF911F910F918A
:103910000895D1E0DE0FD093F3020E2F10E0EC9F5C
:10392000F0011124EB50FD4F83819481892B29F004
:103930008081918189238F3F51F4ED2F8091F40292
:10394000E81738F31092F4021092F302DDCFC09F13
:10395000D001C19FB00D1124AB50BD4F16968D9173
:103960009C911797892B29F418968D919C9101961B
:1039700051F4208131814281538164817581868136
:1039800097810E94001CC09FF001C19FF00D11247F
:10399000EB50FD4F14821382D0CF1092B4031092DB
:1039A000B30310920D018091B2038093B1030E9482
:1039B00077060C94791C3F924F925F926F927F92A0
:1039C0008F929F92AF92BF92CF92DF92EF92FF922F
:1039D0000F931F93CF93DF93C091B10397E0892E8C
:1039E00001E010E02CE0322E3EEF932E442443946D
:1039F0008091B2038C1315C00E94791CDF91CF9186
:103A00001F910F91FF90EF90DF90CF90BF90AF90FC
:103A10009F908F907F906F905F904F903F900C940D
:103A20007706D0E0FE01EE0FFF1FE755FC4F8081C7
:103A30009181889ED001899EB00D1124AB5ABC4F54
:103A400014962C911497211157C05090F402E5EF71
:103A5000F2E030E020E0712C5D01251508F04AC04D
:103A6000E284F384D501CD90DC906FEF7FEF612C81
:103A7000462D50E0DA01AA0FBB1FAC0DBD1D0D9005
:103A8000BC91A02D109731F0EA16FB0609F4BA019B
:103A90006394EECF6F3F7607A1F1D80102C0AA0F61
:103AA000BB1F6A95E2F77A2AB80102C0660F771F3A
:103AB0006A94E2F7AB014150510974161506F9F406
:103AC000329EF001339EF00D1124EB50FD4F889E85
:103AD000D001899EB00D1124AB5ABC4F12962D9186
:103AE0003C911397378326839082918291878087B8
:103AF00015964C920E9449062196C37079CF148284
:103B000013822F5F3F4F3C96A8CF2F923F924F9248
:103B10005F926F927F928F929F92AF92BF92CF925D
:103B2000DF92EF92FF920F931F93CF93DF93CDB766
:103B3000DEB769970FB6F894DEBF0FBECDBF498BD5
:103B40005A8B6B8B7C8B8D8B61111092F2011D86D1
:103B50001E861F86188A85E0FE017196DE01199681
:103B600001900D928A95E1F78091C10382FD1CC0FE
:103B70000E94A6052091EE013091EF01821B930B6C
:103B80008838934120F08091F00182FFFEC10E94AD
:103B9000A6052091F4013091F501821B930B883822
:103BA000934110F00E940B098C859D85892B31F083
:103BB00089859A8589238F3F09F0D3C129853A8564
:103BC0004B855C856D857E858F8598890E94001C5C
:103BD000C2C048EFC4164CE5D40629F4882379F016
:103BE0000E94CD1CEBCF69EFC6166CE5D60639F402
:103BF000882329F080910D018111F2CFC2C105E522
:103C000013E0E12CB12CA12C88248394912C2EEF6D
:103C1000522E44244394F8014081518166246A94D1
:103C2000762C20E0822F90E0FC01EE0FFF1FE40FC6
:103C3000F51F608171816115710531F0C616D706D7
:103C400009F43C012F5FEECFF12CFFEF6F167F06DA
:103C500009F443C0F8014481F0900D018F2D41110A
:103C600080E0F82FF170FF2EF801258086819B857A
:103C7000992309F406C1FF2009F403C1211013C0E0
:103C8000A40101C0440F6A94EAF7842B86838091D3
:103C9000F1029091F202C29730F462E370E0709307
:103CA000F2026093F102C40102C0880F991F2A95A5
:103CB000E2F70197F80126812817190671F480911F
:103CC000B3039091B403009709F45EC00E94970576
:103CD000C39708F459C0F8014482EF28FFEFAF1AE8
:103CE000BF0A095F1F4F2CE0A216B10409F093CF61
:103CF0008B85882309F420C1EE2009F41DC10E94A0
:103D0000A6059093B4038093B3038091F4028830A6
:103D100010F591E0980F9093F40298E0FE01399627
:103D2000DE01119601900D929A95E1F73CE0839F98
:103D3000C00111248B509D4F28E0FE013196DC011B
:103D400001900D922A95E1F72FEF3FEFFC013187AB
:103D50002087D386C28669960FB6F894DEBF0FBE61
:103D6000CDBFDF91CF911F910F91FF90EF90DF902A
:103D7000CF90BF90AF909F908F907F906F905F900B
:103D80004F903F902F9008958091B1035091B203CE
:103D9000982FF0E0E0E0851314C09093B1030E1764
:103DA0001F0709F49ACF90E0FC01EE0FFF1FE755C3
:103DB000FC4FB182A0820196837099278093B20351
:103DC0008CCF282E312CF101EE0FFF1FE755FC4F51
:103DD00020813181F7E0F29FD001F39FB00D1124D3
:103DE000AB5ABC4F2D913C911197398F288F40E0F1
:103DF00020E030E0E32FF0E0EE0FFF1F688D798DBB
:103E0000E60FF71F6080718061147104E1F0F80122
:103E10000190F081E02DFF8BEE8B20E005C066164F
:103E2000770609F44F2D2F5FE22FF0E0EE0FFF1F12
:103E30006E897F89E60FF71F6081718161157105B9
:103E400071F73F5FD7CF4423C9F0F801231708F07B
:103E5000FD014482E017F10721F49093B103F42EA1
:103E60003CCF981305C0EA17FB0711F49F5F9370CE
:103E700091012F5F3F4F822F83708DCFF0E0E0E004
:103E8000F7CF90E021101FC0B40102C0660F771F6A
:103E90002A95E2F79B01215031098217930731F4EB
:103EA000442309F447C0C5010E944906C40101C06A
:103EB000880F6A94EAF7982F9095F80186818923F4
:103EC0008683F22C0ACF9C01062C02C035952795DB
:103ED0000A94E2F7A90141705527BC0161507109AC
:103EE00086239723892B11F5452B01F1F801828157
:103EF0009381892BC1F01B821C821D821E825982F4
:103F00005A820E94A6058160582F9D838C83F801F8
:103F1000828193818F83988729813A814B816D813A
:103F20007E810E94001CF8011582C0CFF22FF17033
:103F30002F2EBCCF2F2CBACF9091B1038091B2031A
:103F4000981731F00E94DB1CEE2009F437CE03CF26
:103F50000E94791C1092B4031092B3030E9477065A
:103F6000F3CF61E0CE0109960E94EA0E6C018B85C9
:103F7000F7EFCF16FCE5DF0609F02BCE882309F416
:103F80003ECE81E080930D0119CE82E00E94100A9E
:103F9000FECD6F927F928F929F92AF92BF92CF92FF
:103FA000DF92EF92FF920F931F93CF93DF9300D096
:103FB00000D000D0CDB7DEB78E010F5F1F4F86E077
:103FC000F80111928A95E9F798E4E92E91E0F92E2B
:103FD00068012BE4622E21E0722E88248394912CB8
:103FE000F70181917F018F3F09F446C0F894E82FD3
:103FF000E295EF70F0E021A18F70A40102C0440FA0
:10400000551F8A95E2F7CA01922F982B91A392A18E
:104010008095892382A3789400C0EBE4F1E021E04D
:1040200030E0B12CA12C41914F3F09F46EC0A42F78
:10403000A295AF70B0E090968C9190E04F7002C066
:10404000959587954A95E2F780FD5FC0C901A82A3A
:10405000B92A220F331F51E0E535F50721F7F701A3
:10406000319780818F3F11F00E94340780EA8A9552
:10407000F1F7F601B182A082F2E0CF0ED11C6E14EE
:104080007F0409F0ADCF46E050E0B8018BEF91E03E
:104090000E944628FF24F394009709F4F12C892B01
:1040A000B9F186E0F801ABEFB1E001900D928A958D
:1040B000E1F781E08093FA010E94A6059093F9014F
:1040C0008093F8018091F8019091F9010E94970581
:1040D000059710F18091FB019091FC0190930F02E4
:1040E00080930E028091FD019091FE019093110248
:1040F000809310028091FF0190910002909313022F
:10410000809312021092FA0107C090E080E09FCFE6
:104110008091FA018111D6CF80910D018823F9F0A9
:104120008091B3039091B4030097C9F00E94970562
:104130002091F1023091F2022817390780F4909112
:10414000B1038091B203981701F10E94DB1C109219
:10415000F2021092F1021092B4031092B3038F2D69
:1041600026960FB6F894DEBF0FBECDBFDF91CF917C
:104170001F910F91FF90EF90DF90CF90BF90AF9085
:104180009F908F907F906F9008950E94791C10925D
:10419000B4031092B3030E947706E1CF90E080E071
:1041A0000E9478288A3E9E4F11F40C942A0F80E0DA
:1041B00008951F920F920FB60F9211242F933F93E1
:1041C0004F935F936F937F938F939F93AF93BF931F
:1041D000CF93DF93EF93FF93D091E900DF7080914D
:1041E000EC00C82FC17080FDC0E81092E9008091FA
:1041F000F000877F8093F00078940E94660F109201
:10420000E9008091F00088608093F000CD2BCF70A2
:10421000C093E900FF91EF91DF91CF91BF91AF91F2
:104220009F918F917F916F915F914F913F912F91CE
:104230000F900FBE0F901F9018951F920F920FB600
:104240000F9211242F933F934F935F936F937F931C
:104250008F939F93AF93BF93EF93FF938091E10070
:1042600082FF09C08091E20082FF05C08091E100D9
:104270008B7F8093E1008091DA0080FF24C08091E1
:10428000D80080FF20C08091DA008E7F8093DA0012
:104290008091D90080FF9DC080E189BD82E189BD08
:1042A00009B400FEFDCF81E08093F3038091C50344
:1042B000811109C00E94CE030E94C1048091E200D6
:1042C00084608093E2008091E10080FF17C08091BC
:1042D000E20080FF13C08091E2008E7F8093E200B5
:1042E0008091E20080618093E2008091D80080623A
:1042F0008093D80019BC85E08093F3038091E1009E
:1043000084FF2BC08091E20084FF27C080E189BD3B
:1043100082E189BD89B5982F917080FFFBCF809194
:10432000D8008F7D8093D8008091E1008F7E8093AC
:10433000E1008091E2008F7E8093E2008091E200B4
:1043400081608093E2008091EA03882309F447C0EA
:1043500084E08093F3038091F3038091E10083FF75
:1043600027C08091E20083FF23C08091E100877F16
:104370008093E10082E08093F3031092EA0380913E
:10438000E1008E7F8093E1008091E2008E7F809338
:10439000E2008091E20080618093E20042E060E010
:1043A00080E00E948F048091F00088608093F0008C
:1043B000FF91EF91BF91AF919F918F917F916F91FD
:1043C0005F914F913F912F910F900FBE0F901F90D3
:1043D000189519BC1092F3031092C50374CF809105
:1043E000E30087FD93E09093F303B5CF78941F9299
:1043F0001FB61F9211248F939F93AF93BF93809109
:10440000BC039091BD03A091BE03B091BF03019680
:10441000A11DB11D8093BC039093BD03A093BE0367
:10442000B093BF03BF91AF919F918F911F901FBE1B
:104430001F9018951F921FB61F9211248F939F9360
:10444000AF93BF938091BB03811113C08091BC03D4
:104450009091BD03A091BE03B091BF034196A11DF1
:10446000B11D8093BC039093BD03A093BE03B09392
:10447000BF03BF91AF919F918F911F901FBE1F905F
:104480001895CDB7DEB7E6970FB6F894DEBF0FBE2E
:10449000CDBF84B7877F84BF0FB6F894A89580916D
:1044A0006000886180936000109260000FBE80E819
:1044B00090E00FB6F89480936100909361000FBE76
:1044C00085B7806885BF85B7806885BF82E397E040
:1044D00090937501809374010E943A120E94CE035A
:1044E0000E94C1048091E20084608093E20078948D
:1044F0008091F3038823A1F01091E9001F7090913F
:10450000EC00892F817090FD80E8182B1092E90053
:104510008091E80083FD0E94660F1F701093E900F0
:1045200082E084BD93E095BD9AEF97BD80936E00C5
:104530000E942A0F811102C00E94300E81E90E9460
:10454000340787E90E94340786EC0E9434070BE4A5
:1045500011E055E5E52E51E0F52ED8018D918D0144
:104560008F3F11F00E943407E016F106B1F786E0A4
:10457000EEE0F2E0DF01282F1D922A95E9F7EBEF3C
:10458000F1E0DF011D928A95E9F70E94CE208111AA
:1045900002C00E94CC1382E090E00E946A288093BF
:1045A00003020E94430F9093C1038093C0030E94B3
:1045B000C91FEFE3FCE93197F1F700C000000E944A
:1045C000C91F80910E0280FF08C06FEF7FEF90E05F
:1045D00080E00E949C280E94860583E090E00E9473
:1045E0006A280E944D0A80910102811133C00E9405
:1045F000CE20811104C00E94CC130E94BD1388E01C
:1046000090E00E9472286093700270937102809310
:104610007202909373026E7F71F40E94BD1388E062
:1046200090E00E94722860937002709371028093F0
:104630007202909373020E948D0610921B02809169
:10464000700280FF04C060E086950E945A1381E0EA
:104650008093010280E091E09093B8038093B703C8
:104660009E012F5F3F4F79015E0131E2A30EB11C25
:104670008091F30310E102E1853009F429C10E9421
:10468000C91F882359F08FB7F8944091BC0350910B
:10469000BD036091BE037091BF038FBFAEE0B2E077
:1046A000E4E0F2E010E000E0702F8D919D91219107
:1046B00031912817390709F41BC12827392760E0F1
:1046C000CC24C394D12CA9014C215D21452B09F4A4
:1046D00009C16BA77CA79C012C213D2191E0232BD4
:1046E00009F490E09DA70E94A6058160782F9FA7FE
:1046F0008EA74BA55CA56DA58FA50E94851D000FFB
:10470000111FF801EC5FFD4F80819181C826D926E9
:10471000D182C08280911B028823D1F180911A023C
:10472000E0917002E695E81BE0931602823009F0F2
:10473000F6C0F0E0EF5CFD4FE4910E2F10E077E063
:10474000C72E7CE0D72E80911702882361F010924B
:1047500017020E94A60590931502809314021092EE
:104760001902109218020E94A605E0911402F0911D
:1047700015028E1B9F0B8F3F9F4750F40E0F1F1F7C
:10478000109315020093140284E192E0F60109955A
:104790000E943D0690910202891721F00E943D0679
:1047A000809302028091F303843009F061CF83E0AB
:1047B0008093E9008091E80082FF5ACF8091E80061
:1047C00090E085FF0CC00E94ED0330E2C32ED12C97
:1047D0008E010F5F1F4F882309F4CDC091E08091B7
:1047E000E8008B778093E800992309F441CF00918A
:1047F000EF021091F00289810115110509F4C9C079
:104800008E3F09F061C18A81833020F0855083306A
:1048100008F05AC1EA81EE3008F056C1F0E0E052EB
:10482000F74D0C9423288091F303843021F11092EA
:10483000BB0388E190E0A0E40FB6F894A8958093BC
:1048400060000FBEA093600083B7817F846083BF48
:1048500083B7816083BF7894889583B78E7F83BF49
:104860000FB6F894A89580916000886180936000ED
:10487000109260000FBE8091E903882349F10E94E5
:10488000C91F80910E0290910F0220911002309169
:104890001102822B932B2091120230911302822B52
:1048A000932B892BA9F019BD09BD09B400FEFDCFDA
:1048B0008091D8008F7D8093D8008091E000826045
:1048C0008093E0008091E00081FDFCCF0E94510FB9
:1048D0008091F303853009F4A6CF0E94510F0E9406
:1048E0003D06CDCE6F5FCC0CDD1C6A3009F0EBCEFF
:1048F0000F5F1F4F0330110509F0D6CE8FEF88AB45
:1049000089AB1AAA0E94A6058160782F9CAB8BAB5D
:1049100048A959A96AA98CA90E94851DFBCE863099
:1049200059F4F0E0E25DFD4FE4910E2F10E067EFE7
:10493000C62E6BE0D62E07CF00ED17E041E8C42E5F
:1049400045E0D42E893009F0FECEE695F0E0E55D35
:10495000FD4FE4910E2F10E052EAC52E5BE0D52EFC
:10496000F2CE8091F100D8018D938D01B1E0CB1A88
:10497000D10809F433CF8091E80085FDF2CF809112
:10498000E8008B778093E8000E94ED03882399F379
:1049900025CF8B3009F416C298F5853009F4C9C0CB
:1049A000D0F4823009F476C030F4813009F46EC05E
:1049B0008FEF898389C0833009F4ACC08430C1F79C
:1049C0004C816B818A810E943F0E98278927982706
:1049D0009E838D8379C0873009F4B9C008F4B4C0D0
:1049E000883009F4F5C0893019F760917002709130
:1049F000710280917202909173020E94931264C0BE
:104A0000803109F436C1B0F58D3009F405C108F4E0
:104A100000C18E3009F404C18F3051F68091ED024F
:104A20009091EE02892B09F44FC00C8110E00D31FA
:104A3000110508F049C0CA80DB80DC24CD24DC24C9
:104A400047010E0D1F1DC60181579E4F801691060E
:104A5000D9F131E7C31632E0D30628F4D401149615
:104A60006C910E947E28BFEF8B1A9B0AEFEFCE1A43
:104A7000DE0AE9CF823109F401C108F4FDC08331B7
:104A800009F423C18E3F09F093CFC4CE1A8289E086
:104A90008B831AC08A81823009F4B9C28330C1F095
:104AA000813009F085CF2FB7F8946091BC037091E5
:104AB000BD038091BE039091BF032FBF0E942928A0
:104AC0006B837C838D839E83C7010E944804D0CD75
:104AD0008091ED029091EE02892BB1F380910E024C
:104AE00090910F029827892798279C838B83809128
:104AF0001002909111029827892798279E838D8311
:104B000080911202909113029827892798279887FD
:104B10008F83DACF8A81823009F04ACF6B817C8122
:104B20008D819E810E94292886E290E00E947E2845
:104B3000CBCF2D813E813227232732274C816B81B9
:104B40008A810E94540DC0CF0E94BE0DBDCF8A81C4
:104B50008138C1F060F4803809F0B6CF20E04B8195
:104B600060917202809171020E94A512ADCF8238CD
:104B700059F1833809F0A8CF20E0409173026C818D
:104B80008B81F2CF60E08B810E945A139B818091D0
:104B90007002911111C08E7F8093700210921B02DF
:104BA000EFEFF0E722E0E150F0402040E1F700C0F5
:104BB00000000E946D0B88CF81608093700260E0DE
:104BC00086950E945A1380CF8B81809374027CCF8C
:104BD0008A81813899F030F4803809F075CF80915E
:104BE000730256CF823891F0833809F06DCF8091EF
:104BF00071028B83809172028C8366CF80917002E8
:104C000080FF02C0869544CF80E042CF809174023D
:104C10003FCF80E18A8358CF82E08A8381E738CF13
:104C20000C8110E00D31110508F04ECFCA80DB80F9
:104C3000DC24CD24DC2447010E0D1F1DC601815745
:104C40009E4F8016910609F43FCF31E7C31632E03C
:104C5000D30660F40E946A28D40114968C93FFEF67
:104C6000CF1ADF0A2FEF821A920AE8CFF4011482DA
:104C7000F6CF0E94440D28CF84E0CCCF0C8110E009
:104C80000D31110508F020CFCA80DB80DC24CD2453
:104C9000DC2447010E0D1F1DC60187968016910664
:104CA00009F412CFF0EFCF16D10460F40E946A2805
:104CB000D40114968C93FFEFCF1ADF0A2FEF821ADC
:104CC000920AEACFF4011482F6CFCC80D12C3DE1D8
:104CD000C316D10408F0F8CE0A811B8110270127E2
:104CE0001027003F110508F0EFCE80EF90E0801B09
:104CF000910B8C159D0508F4E7CE280187E2480E3C
:104D0000511C8091ED029091EE021601200E311E91
:104D1000892BB9F5480191E08922992400FF0DC043
:104D2000C80186960E946A289D818927982789272D
:104D300081159C4511F48FEF8D83360120FE1AC03A
:104D4000B1E06B1A7108E5E0F0E0EC0FFD1FE60D35
:104D5000F71DFEABEDABC2018C0D9D1D0E946A28B4
:104D6000ADA9BEA99C9181159C4521F48FEFEDA9B9
:104D7000FEA98083F701E80DF91D2FEF8614970433
:104D800010F0670119C09481858181159C4511F44B
:104D90002483258382E0880E911C3296EFCF003F5A
:104DA000110528F4D60114966C910E947E28BFEF5D
:104DB000CB1ADB0A0F5F1F4FC801879620163106FA
:104DC00071F782CE8091ED029091EE02892B09F469
:104DD0007BCECE0101960E944804EFEFF1EE24E075
:104DE000E150F0402040E1F700C00000F4CB88E043
:104DF000EFE0F1E0D50101900D928A95E1F780E2B4
:104E0000D7011D928A95E9F784E0898388E0F5014E
:104E1000DE01159601900D928A95E1F755CE8CE250
:104E2000898381E08A831B821C824ECE8C81682F0D
:104E300070E0762F66278B81860F972F911D092EA4
:104E4000000CAA0BBB0B25E0880F991FAA1FBB1FE4
:104E50002A95D1F7AC01BD01405E5F4F6F4F7F4F88
:104E6000481759076A077B0708F42ECE8C32E1E019
:104E70009E07A105B10508F027CE4D32F1E05F078E
:104E80006105710520F04CE251E060E070E0481BE4
:104E9000590BBC016B5C7D4FC7010E94302814CEBA
:104EA0004AE150E06FEF70E0CE0107960E94532870
:104EB0008091ED0289830A831B821C8282E08D83AC
:104EC00088E08E8301CE81E090E09093F0028093A1
:104ED000EF0282E390E090930D0280930C020E9417
:104EE000A60590930B0280930A02EECD012B61F18F
:104EF00010910E020091130280910A0290910B0210
:104F00000E9497058536910540F100FF26C010FFED
:104F100024C00E94A60590930B0280930A02809100
:104F20000C0290910D02019790930D0280930C0258
:104F3000892B51F41092F0021092EF0281E090E080
:104F40009093EE028093ED028091ED02898380912F
:104F5000EF028A8380910C029BCD82E390E09093D4
:104F60000D0280930C02F0CF1092EE021092ED022F
:104F7000ABCD40E250E06FEF70E0C7010E945328D4
:104F8000A3CD8B81833059F0843029F181119CCDE0
:104F900080E2D7011D928A95E9F78CE03BCE6C81C7
:104FA0008AE0F501282F11922A95E9F76C3088F4F0
:104FB000689FB0011124695E7E4F4AE050E0C50150
:104FC0000E945A2880E089838AE0F501DE0112966A
:104FD00021CF8FEFF8CF6C818AE0FE013596D501A5
:104FE00001900D928A95E1F78FEF6C3060F43AE012
:104FF000639FB0011124695E7E4F4AE050E0C50115
:105000000E94A22880E089830E943A125DCD86E248
:1050100090E00E946A281B821C821D8252CFAA1B2C
:10502000BB1B51E107C0AA1FBB1FA617B70710F093
:10503000A61BB70B881F991F5A95A9F780959095C5
:10504000BC01CD010895EE0FFF1F0590F491E02DF6
:10505000099469279627692778278727782708954D
:10506000FB01DC0102C005900D9241505040D8F781
:105070000895FC014150504030F001900616D1F7E0
:105080003197CF010895882799270895FB01DC0106
:1050900004C08D910190801921F441505040C8F70F
:1050A000881B990B0895DC0101C06D93415050405D
:1050B000E0F70895DC01CB01FC01F999FECF06C0B1
:1050C000F2BDE1BDF89A319600B40D9241505040C6
:1050D000B8F70895F999FECF92BD81BDF89A992746
:1050E00080B50895A6E1B0E044E050E00C945C285F
:1050F000A8E1B0E042E050E00C945C28262FF9993A
:10510000FECF92BD81BDF89A019700B4021639F026
:105110001FBA20BD0FB6F894FA9AF99A0FBE0895F7
:105120000396272F0E947F280E947E28252F0E9409
:105130007F28242F0C947F280196272F0E947F28F8
:105140000C947E28DC01CB0103C02D910E94AD2878
:1051500041505040D0F70895262FF999FECF1FBA3D
:1051600092BD81BD20BD0FB6F894FA9AF99A0FBE90
:1051700001960895F894FFCFD50ED50EDE0EDE0E03
:10518000E00EDE0EDE0EDE0ED50ED50EE50EDE0EC8
:10519000DE0EE50E4C107410221274102212A710AD
:1051A000C8102212D111DE1106170617401740173A
:1051B000F6176D176D176D1710187B188A188A1857
:1051C000F7260F271627642564255027632776279F
:0C51D000B427B927642564256425C12795
:1051DC0083052D0B8205290B250B8005010101226E
:1051EC0039DCD9252A45A1818283E200E900EA0055
:1051FC00B500B600B700CD008301CC008A01920146
:10520C0094012102230224022502260227022A02EB
:10521C00B300B4006F0070009197C634353632334A
:10522C0031F7F6F5F400010202020206060609093E
:10523C000909090940226D3B011901AC0063067C88
:04524C00069C0600B6
:00000001FF
