:100000000C94D5020C940D030C940D030C940D0369
:100010000C940D030C940D030C940D030C940D0320
:100020000C940D030C940D030C946F160C942B166A
:100030000C946C170C940D030C940D030C940D038D
:100040000C940D030C940D030C940D030C940D03F0
:100050000C940D030C9448170C940D030C940D0391
:100060000C940D030C940D030C940D030C940D03D0
:100070000C940D030C940D030C940D030C940D03C0
:100080000C940D030C940D030C940D030C940D03B0
:100090000C940D030C940D03290000002900460068
:1000A00035001E001F002000210022002300240034
:1000B0002500260027002D002E002A004C005600A7
:1000C00054005500000000003A003B003C004A008C
:1000D0002B0014001A000800150017001C0018005F
:1000E0000C00120013002F0030003100A8005F0048
:1000F00060006100560057003D003E003F004B008D
:10010000390004001600070009000A000B000D006A
:100110000E000F00330034000000280052005C0085
:100120005D005E0055002A004000410042004E0084
:10013000E1001D001B000600190005001100100061
:100140003600370038000000E5000000510059007B
:100150005A005B00540058004300440045004D0025
:10016000E000E300E20001002C00000000002C0091
:100170000000E600E7000100E40050004F006200CC
:100180008500630067002B000100000001000100F2
:100190000100010001000100010001000100010057
:1001A0000100010001000100010001000100010047
:1001B0000100010000000000010001000100010039
:1001C0000100010001000100010001000100010027
:1001D0000100010001000100010001000100010017
:1001E0000100010001000100010001000100010007
:1001F00001000100010001000100010001000100F7
:1002000001000100010001000000010001000100E7
:1002100001000100010001000100010001000100D6
:1002200001000100010001000100010001000100C6
:1002300001000100010000000100000001000100B8
:1002400001000100010001000100010001000100A6
:100250000100010001000100010000000000010098
:100260000000010001000100010001000100010087
:100270000100010001000100010000000100010077
:100280000100010001000100010001000100010066
:100290000100010001000100010001000100010056
:1002A0000100010000000000010001000100010048
:1002B0000100010001000100010001000100010036
:1002C0000100010001000100010001000100010026
:1002D0000100010001000100010001000100010016
:1002E0000100010001000100010001000100010006
:1002F00001000100010001000000010001000100F7
:1003000001000100010001000100010001000100E5
:1003100001000100010001000100010001000100D5
:1003200001000100010000000100000001000100C7
:1003300001000100010001000100010001000100B5
:1003400001000100010001000100000000000100A7
:100350000000010001000100010001000100010096
:100360000100010001000100010000000100010086
:100370000100010001000100010001000100010075
:100380000100010001000100010001000100010065
:100390000100010000000000010001000100010057
:1003A0000100010001000100010001000100010045
:1003B0000100010001000100010001000100010035
:1003C0000100010001000100010001000100010025
:1003D0000100010001000100010001000100010015
:1003E0000100010001000100000001000100010006
:1003F00001000100010001000100010001000100F5
:1004000001000100010001000100010001000100E4
:1004100001000100010000000100000001000100D6
:1004200001000100010001000100010001000100C4
:1004300001000100010001000100000000000100B6
:1004400000000100010001000100010001000100A5
:100450000100010001000100A900AA000100010043
:10046000010001000100010005010902A10185024E
:100470000901A100050919012908150025019508A0
:10048000750181020501093009311581257F950229
:100490007508810609381581257F95017508810643
:1004A000050C0A38021581257F950175088106C063
:1004B000C005010980A101850319012AB7001501B2
:1004C00026B700950175108100C0050C0901A10136
:1004D000850419012AA002150126A00295017510B4
:1004E0008100C005010906A101050719E029E715EA
:1004F00000250195087501810295017508810105A6
:1005000007190029FF150026FF00950675088100D0
:1005100005081901290595057501910295017503D5
:100520009101C009023B00020100A0FA0904000089
:10053000010301010009211101000122400007050A
:1005400081030800010904010001030000000921E2
:1005500011010001227B0007058203200001120126
:1005600000020000000857504D4C0001010200013C
:100570001C034C006F006E00670020004C006F00F1
:100580006E00670020004D0061006E000000160341
:1005900050004C0049005000200057006F007200CE
:1005A0006B00730000000403090411241FBECFEF89
:1005B000D0E1DEBFCDBF04B603FE18C080917E023D
:1005C00090917F02A0918002B09181028730904B80
:1005D000A740B04B59F410927E0210927F02109205
:1005E000800210928102E0E0F8E7099522E0A0E79E
:1005F000B1E001C01D92AE37B207E1F711E0A0E013
:10060000B1E0E8E8F8E302C005900D92A037B10729
:10061000D9F70E9493170C94031C0C940000E8ED8A
:10062000F0E080818C7F80831092E2001092DA00EB
:100630001092E100A0EEB0E08C9181608C938081FB
:100640008F77808319BCA7EDB0E08C918E7F8C935F
:1006500080818F7E80831092640208952091E4004F
:100660003091E50095E6A9012091EC00822F817080
:1006700020FF06C08091E80080FF06C080E008955A
:100680002091E80022FD1AC080917102882389F030
:10069000853089F08091EB0085FD0FC02091E4004A
:1006A0003091E50042175307F9F29150E1F684E0EA
:1006B000089582E0089583E0089581E0089580918F
:1006C000730287FF13C08091E80082FF06C080910B
:1006D000E8008B778093E80004C08091710281115B
:1006E000F2CF0895809171028823D9F38091E800B8
:1006F00080FFF8CF8091E8008E77ECCF982F909311
:10070000E900242F762F50E0891731F07091EC002A
:100710002091ED005091F00021FD07C09F5F9730C0
:1007200071F78093E90081E008953091EB003E7FFE
:100730003093EB003091ED003D7F3093ED00309130
:10074000EB0031603093EB007093EC002093ED00F0
:100750005093F0002091EE0027FDE0CF80E0089557
:10076000B0E0A0E0E6EBF3E00C94731BC8EDD0E042
:1007700088818F7E8883E7EDF0E0808181608083CF
:1007800081E08093640288818C7F888302EE10E090
:10079000D8011C921092DA0081EEC82ED12CD6011D
:1007A0001C9288818F77888388818068888388817C
:1007B0008F7D888380818068808319BC109271024C
:1007C000109272021092700210926F0290EEE92E57
:1007D000F12CF70180818B7F808388818160888301
:1007E00042E060E080E00E947E03D6018C918E7F23
:1007F0008C93F80180818160808380818860808310
:10080000D7018C918E7F8C93888180618883CDB74E
:10081000DEB7E8E00C948F1BFC0180917902909187
:100820007A0286179707A0F06115710529F4909157
:10083000E8009E779093E80090E06115710551F40F
:10084000911108C08091E80082FF33C080E00895D4
:10085000BC01F2CF809171028823B9F18530B9F1E2
:100860008091E80083FD2FC08091E80082FDEACFEF
:100870008091E80080FFE1CF2091F2003091F300F9
:100880006115710519F02830310558F091E02830D4
:10089000310509F090E02091E8002E772093E800E0
:1008A000CCCF81918093F100615071092F5F3F4F50
:1008B000E7CF80917102882341F0853041F080912B
:1008C000E80083FFBFCF81E0089582E0089583E0D0
:1008D00008958091660208959C014FB7F894809125
:1008E000600290916102A0916202B09163024FBFD9
:1008F000821B930B08952FB7F8948091600290911A
:100900006102A0916202B09163022FBF08959C0121
:10091000FC0132969FEF80E04191461751F09F3FD6
:1009200019F4411101C0982F8F5F8630A9F79F3FBE
:1009300009F40895290F311D97FD3A95F901628355
:100940000895A3E0B0E0E7EAF4E00C94791B20916D
:100950005D0230915E0228173907A1F090935E0284
:1009600080935D02E0915B02F0915C02309751F060
:1009700024E029839B838A830680F781E02DCE01C2
:10098000019609952396E2E00C94951BA3E0B0E054
:10099000ECECF4E00C94791B2091590230915A024E
:1009A00028173907A1F090935A0280935902E091D9
:1009B0005B02F0915C02309751F023E029839B8326
:1009C0008A830680F781E02DCE0101960995239652
:1009D000E2E00C94951BE0915B02F0915C02309791
:1009E00029F00190F081E02D0995089580E00895A7
:1009F0000E947B049C019091550280915602982B95
:100A000021F030935202209351029091570280912D
:100A10005802982B21F03093500220934F02E0911E
:100A20005B02F0915C02309749F082E080935302C0
:100A30000480F581E02D83E592E009950895809189
:100A40004E0280FD16C081FD16C082FD16C0809149
:100A50004D028823A1F0883280F428E0829FC001F3
:100A6000112468E270E00E944F1B862F672B39F03B
:100A7000089582E0089584E0089588E0089581E073
:100A8000089580914E0280FD14C081FD14C082FD46
:100A900016C080914C02882381F08E3180F420E5CD
:100AA000829FC00111246EE170E00E944F1B862FCF
:100AB000089584E1089588E2089588E0089580E526
:100AC000089580E00895F894E82FE295EF70F0E043
:100AD00031A1282F2F7081E090E001C0880F2A9566
:100AE000EAF7982F9095932391A392A1892B82A343
:100AF0007894089590911C0292FF06C0282F2871C7
:100B00002830F9F4877F846093FF06C0282F28716E
:100B10002831F1F4877E846120911D0220FF06C0F8
:100B2000382F38713830D9F4877F816021FF06C0B3
:100B3000282F28712831D1F4877E816194FD877E2A
:100B40000895282F24712430F9F68B7F8860DCCF3C
:100B5000282F2471243101F78B7E8861DDCF382F57
:100B60003171313019F78E7F8860E0CF282F2171E5
:100B7000213121F78E7E8861E1CF82389105B9F16C
:100B8000B0F48133910509F47DC048F489329105B0
:100B900009F46DC08A32910509F47BC0089585334C
:100BA000910509F45FC08933910509F10895833EE9
:100BB0009105D9F138F4803E910529F1823E9105E5
:100BC00079F10895863E9105D9F1873E910509F4A2
:100BD0003EC0843E910541F520911D0221FF24C0B5
:100BE00080911C0284FD19C087EE90E00895209149
:100BF0001C02237009F05AC020911D0223FF14C06B
:100C000089E290E0089520911C0220FD38C03091C7
:100C10001D0230FF09C024FF43C090E080E008952A
:100C200020911C0222FDF7CF089520911C0222FD85
:100C30003AC030911D0230FD39C024FFF5CFEDCF11
:100C400020911C0223FFF0CF24FDE7CFCDCF2091D0
:100C50001C0223FD2EC030911D0231FFEECF84EE29
:100C600090E0089520911C0225FFDECFC9CF20918E
:100C70001C0225FD21C020911D0223FFD5CF89E351
:100C800090E0D2CF20911C0226FFCECF8AE290E0E6
:100C9000089520911C0226FFC7CF81E390E00895BC
:100CA00083EE90E0089582EE90E0089580EE90E06B
:100CB000089586EE90E0089585E390E00895972FDB
:100CC0007530B8F4683178F5843080F570E028E14B
:100CD000929F600D711D1124FB0198E7899FE00D23
:100CE000F11D1124EE0FFF1FE856FF4F85919491DF
:100CF00008957D3F59F4611116C08430B8F424E0A2
:100D0000829FF0011124E85AFB4FF0CF7C3F59F449
:100D1000611109C0843050F494E0899FF0011124DE
:100D2000E65AFB4FE3CF80E090E0089581E0FCCFEE
:100D30001F93CF93DF930E94BD05EC01C11580E5A1
:100D4000D807F0F5C11580E4D80708F09CC0C03E74
:100D5000D10520F5CD3CD10508F082C0C83AD105B7
:100D600078F4C53AD10508F073C0C130D10519F146
:100D7000209709F1C430D105F0F4D0E0C0E01BC0E9
:100D8000C33CD105D0F7C85AD0E0CC0FDD1FC45FFB
:100D9000DE4F0990D881C02DD4640DC0C11580E20A
:100DA000D80708F0D1C0C11581E0D80708F05AC0B3
:100DB000C83ED10510F7CE01DF91CF911F91089564
:100DC000C03682E5D80718F5C03482E5D80708F0A8
:100DD0006BC0C03282E5D80708F05FC0C11582E55C
:100DE000D80708F497C02C2F2695269580E2289FD7
:100DF000900111248C2F8370C1E0D0E002C0CC0F91
:100E0000DD1F8A95E2F7C22BD32BDD68D4CFC03A21
:100E100082E5D80760F4C03882E5D80708F459C0E5
:100E2000CF71D0E0DC2FCC27C46FD06AC4CFC03CD8
:100E300082E5D80708F462C0C03E82E5D80708F012
:100E40009CCFDC2FCC27CC27DF71C06FD06AB3CF0B
:100E5000C55AD0E0C75FDE4FC881D0E0D064ABCFC9
:100E6000D065A9CF8D2F0E947A05182FCE01992722
:100E70000E94BD05C12FD0E0DC2FCC27CC27DF712D
:100E8000C82BD92B98CFCE0199270E94BD05CC271E
:100E9000DF70C82BD92BD06A8ECFCF71D0E0DC2F7A
:100EA000CC27C16FD06A87CF2C2F26952695277027
:100EB00080E2289F900111248C2F8370C1E0D0E044
:100EC00002C0CC0FDD1F8A95E2F7C22BD32BDC6862
:100ED00072CF2C2F26952695277080E2289F9001AF
:100EE00011248C2F8370C1E0D0E002C0CC0FDD1F35
:100EF0008A95E2F7C22BD32BDA685DCF8C2F8F71E6
:100F00000E947A05C82FD0E0DC2FCC27CC27DF71D8
:100F1000D06251CF8C2F8F710E947A0555E0D69503
:100F2000C7955A95E1F7CF70D0E0DC2FCC27282F5A
:100F300030E084FF05C044E0220F331F4A95E1F7FB
:100F4000C22BD32BD06937CF8D2F8F710E947A059A
:100F5000182FCE0199270E94BD05C12FD0E0DC2FAC
:100F6000CC27CC27DF71C82BD92BD2CF8091FE01A3
:100F700081111092FE01089580959091FD019823B2
:100F80009093FD0108952091F2019091C10156E0E6
:100F9000291302C080E0089530E0529FF001539F72
:100FA000F00D1124EE53FE4F7181761306C070814F
:100FB000781303C07281741304C02F5F3F4F2770F2
:100FC000E7CF81E008958091F2019091C1019813DB
:100FD00001C008958F5F8770FACFB0E0A0E0E3EF23
:100FE000F7E00C94721B7C0100911A0210911B0215
:100FF0008091180290911902082B192BCFE0D0E0B4
:10100000CC24C394D12CBC2EC6010C2E02C0880F58
:10101000991F0A94E2F780239123892B49F42197A1
:1010200090F7B12C8B2DCDB7DEB7E9E00C948E1B79
:10103000B7018C2F0E945F060E949806019779F3F2
:10104000F1CFCF93DF93EC010E94ED07BE010E9428
:101050005F060E949806DF91CF910895A82FA77090
:1010600023E0969587952A95E1F7880F991F880FB9
:10107000991FFB01E80FF91F50E040E080E021914B
:1010800030E00A2E02C0369527950A94E2F72170C7
:101090003327042E01C0220F0A94EAF7822B4F5FF8
:1010A0005F4F4430510559F70895292F953068F462
:1010B000883190F490E06FE771E038E1239F800D74
:1010C000911D11240E942E0808952C5F223020F4D7
:1010D0006BE771E090E0F6CF80E00895262F27704F
:1010E00091E001C0990F2A95EAF723E0769567957C
:1010F0002A95E1F7660F771F660F771FFA01E60F53
:10110000F71F50E040E0682F70E08191DF011197F8
:101110009B01042E02C0369527950A94E2F72170B0
:1011200021952827292328272C934F5F5F4F443090
:10113000510559F70895282F862F953070F42831DE
:1011400058F4622F70E028E1929F600D711D112408
:101150004FE751E00E946E0808959C5F9230E0F7DF
:10116000622F70E04BE751E0F5CF90931B02809324
:101170001A02089521E030E002C0220F331F8A9541
:10118000E2F72095309580911A0290911B028223FC
:1011900093230E94B50808959091F30180958923C7
:1011A0008093F301282F277091F4282F082E000C2C
:1011B000330B9217130659F090911D0292FF07C04E
:1011C0008595859585950E94BA081092F30108953A
:1011D00021E030E002C0220F331F8A95E2F78091B0
:1011E0001A0290911B02822B932B0E94B50808953E
:1011F00090931902809318020895FC0183819481D1
:10120000892B29F08081918189238F3F51F480E0DF
:101210000895843FE1F717C0883EA8F0813FB9F7F1
:1012200012C0808191810E94210892959F70963012
:1012300099F358F4925F9F70923048F7803F19F00D
:1012400040F7883E20F781E008959A5FF4CF662347
:1012500009F45DC08D3C41F40E9441058195809365
:1012600056020E94F80408958E3C19F40E9441052C
:10127000F6CF8F3C31F40E94410581958093550251
:10128000F0CF803D19F40E944105F8CF893D29F443
:101290000E941F0580935702E4CF8A3D21F40E94EB
:1012A0001F058195F7CF8B3D31F40E941F05819575
:1012B00080935802D6CF8C3D19F40E941F05F8CFB9
:1012C0009FE2980F983070F4815D990B21E030E037
:1012D00001C0220F8A95EAF780915402822B8093F5
:1012E0005402BFCF8D3D31F480914E0281608093D6
:1012F0004E02B7CF8E3D21F480914E028260F7CF2F
:101300008F3D09F0AECF80914E028460F0CF4091C6
:1013100055028D3C59F48091560287FF0DC0109202
:10132000560241110BC010924C0208C08E3C81F451
:101330008091560218169CF3442381F08091570245
:1013400090915802892B09F08CCF10924D0289CFD1
:101350008F3C49F447FFF0CF10925502809156021E
:101360008111ECCFE0CF803D19F41416ACF3E4CF3B
:1013700090915702893D29F41916F4F610925702FC
:10138000DBCF8A3D19F497FFD7CFF8CF9091580261
:101390008B3D29F497FFD0CF10925802CDCF8C3DD2
:1013A00019F41916CCF3C8CF9FE2980F983090F437
:1013B000815D990B21E030E0B90102C0660F771F13
:1013C0008A95E2F7CB01809590915402892380930E
:1013D0005402B2CF8D3D31F480914E028E7F8093C6
:1013E0004E02AACF8E3D21F480914E028D7FF7CF21
:1013F0008F3D09F0A1CF80914E028B7FF0CF0F93EC
:101400001F93CF93DF938B01EA0190917102943087
:1014100061F58093E9008FEF9091E800815095FD90
:1014200006C095ED9A95F1F700008111F5CF8091F6
:10143000E80085FF1AC00E942E03811111C080911F
:10144000E80085FD06C08091E8008E778093E80073
:10145000F2CFF80181918F018093F100219779F704
:101460008091E8008E778093E800DF91CF911F9103
:101470000F91089543E050E0BC0182E00E94FF0913
:10148000089546E050E0BC0182E00E94FF09089503
:10149000CF93DF93EC0148E050E0BC0181E00E9473
:1014A000FF0988E0FE01A7E6B2E001900D928A955F
:1014B000E1F7DF91CF9108958091FD019091FC01BA
:1014C000892B809372019091FE01992391F0892BD1
:1014D0008093720120E084E791E0FC013191CF011B
:1014E00031112F5FF1E08A379F07B9F721110E9470
:1014F000B60748E050E064EF71E082E791E00E94B7
:10150000B41B892BA9F088E0E2E7F1E0A4EFB1E099
:1015100001900D928A95E1F7E0915B02F0915C02F7
:10152000309731F00280F381E02D82E791E0099558
:101530000895882321F00E94BC070E945C0A089548
:10154000882339F09091FD01982B9093FD010E9422
:101550005C0A08958823D1F19CEF980F913A78F4B2
:10156000E4E7F1E09191891303C0DF0111971C9228
:1015700091E0EA37F907B1F70E945C0A089590E21A
:10158000980F983050F4877091E001C0990F8A95B8
:10159000EAF7892F0E94BC07EFCF9BE5980F9330A5
:1015A00028F490E080E00E94C604089598E5980F22
:1015B0009B3128F490E080E00E94A104089593E319
:1015C000980F933118F460E00E9427090895CF9393
:1015D000C82F8823B1F08CEF8C0F813A00F5E4E737
:1015E000F1E08AE791E0DF012D91C21761F08A17DF
:1015F0009B07D1F76C2F82E791E00E9487040E943D
:101600005C0ACF9108952191C21303C0DF011197A5
:101610001C928E179F07B9F70E945C0AEBCF80E2FD
:101620008C0F883068F4C77021E030E001C0220FD1
:10163000CA95EAF78091FD01822B8093FD01DFCFEF
:10164000EBE5EC0FE33040F4F0E0E75FFE4F808124
:1016500090E00E94C604D5CFE8E5EC0FEB3150F4E2
:10166000F0E0EE0FFF1FE45FFE4F808191810E944A
:10167000A104C7CF83E38C0F833118F661E08C2F70
:101680000E942709BECF0F931F93CF93DF93C62FDE
:10169000D42F022FFC0182818823A9F060937D0260
:1016A0000E947B0490937C0280937B02C77081E050
:1016B00001C0880FCA95EAF70E94A00ADF91CF9176
:1016C0001F910F91089580917D02681335C080911C
:1016D0007B0290917C020E946C04883C910560F52D
:1016E00010E21D0FCD17B9F080E28C0F883040F466
:1016F000C77081E001C0880FCA95EAF70E94990A75
:10170000183048F481E09D2F977001C0880F9A959A
:10171000EAF70E94A00A802F0E94E70A802F0E9409
:10172000AA0A183058F6D77081E001C0880FDA9500
:10173000EAF70E94990AC2CFC77081E001C0880F02
:10174000CA95EAF7F6CF90911D0292FB222720F965
:10175000281779F080FB92F990931D0260911C028A
:1017600070911D0284E090E00E94ED1B82E00E94D7
:10177000CC080895CF931092FD01C6E0E4E7F1E0B4
:10178000DF018C2F1D928A95E9F790E080E00E949E
:10179000C60490E080E00E94A1041092FC010E9427
:1017A0005C0AE3E5F2E0DF011D92CA95E9F71092C9
:1017B0004C0210924D0210924E020E94F804CF91FA
:1017C0000895AAE2B0E0E7EEFBE00C94781B83E713
:1017D00092E02091F100FC012193CF01F2E08B37E0
:1017E0009F07B9F780917402833009F470C0B8F490
:1017F000813009F447C0823009F4B1C08091E8001B
:1018000083FF7EC280917302909174029A3008F037
:1018100077C2E92FF0E0EB5FF34E0C94631B8A3044
:1018200009F48CC08B3009F46FC0893039F780918E
:101830007302813219F780917702909178020297B2
:10184000E8F68091E800877F8093E8008091E800C7
:1018500082FF38C08091F2009091F300029731F43A
:101860008091F100813011F0863021F48091F100F7
:10187000809366028091E8008B778093E8000E9455
:101880005F03BCCF80917302813A09F0B7CF80919A
:10189000E800877F8093E80080917702909178023A
:1018A000892B61F468E087E692E070E00E940C0406
:1018B0008091E8008B778093E800A0CF60E090E013
:1018C00080E0F3CF809171028111C0CF97CF8091DA
:1018D0007302813A09F092CF809177029091780259
:1018E000892B09F08BCF8091E800877F8093E800F7
:1018F0008091E80080FFFCCF809108018093F10087
:101900008091E8008E77B9CF80917302813209F01F
:1019100075CF8091770290917802892B09F06ECF74
:101920008091E800877F8093E8000E945F038091A8
:101930007502809308010E94BA0B60CF80917302F8
:10194000813209F05BCF8091E800877F8093E800C7
:101950000E945F0380917602809365024FCF809151
:101960007302813A09F04ACF8091E800877F809323
:10197000E8008091E80080FFFCCF80916502BECF37
:10198000803899F0823809F0BBC1809177028F705E
:10199000873008F0B5C18093E9008091EB0085FBAA
:1019A000882780F91092E90006C080916F0290911B
:1019B0007002911182609091E800977F9093E80007
:1019C0008093F1001092F1008091E8008E7794C12D
:1019D000882309F482C1823009F092C18091750296
:1019E000811185C1809177028F702FEF280F2630EB
:1019F00008F086C18093E9002091EB0020FF77C1B9
:101A0000933031F48091EB0080628093EB006FC1E2
:101A10009091EB0090619093EB0021E030E001C0E9
:101A2000220F8A95EAF72093EA001092EA0080914B
:101A3000EB008860EACF811163C1109175021F77B6
:101A40008091E3008078812B8093E3008091E8000F
:101A5000877F8093E8000E945F038091E80080FF09
:101A6000FCCF8091E30080688093E30082E0111155
:101A700083E08093710244C18058823008F040C1F5
:101A800080917502909176028C3D23E09207A1F53A
:101A900083E08A838AE289834FB7F894DE01139644
:101AA00020E03EE051E2E32FF0E050935700E49154
:101AB00020FF03C0E295EF703F5FEF708E2F90E044
:101AC000EA30C0F0C7968D939D932F5F243159F76C
:101AD0004FBF8091E800877F8093E8006AE270E062
:101AE000CE0101960E940C048091E8008B778093D0
:101AF000E80006C1C096E7CF409177025091780286
:101B0000292F33272330310509F444C078F52130DB
:101B1000310509F46FC08BE390E0E3E2F5E0223099
:101B2000310509F0EDC02091E800277F2093E800FF
:101B30002091790230917A028217930708F49C0170
:101B400040E02115310509F064C0411162C0809167
:101B5000E80082FDC9CF80917102882329F2853087
:101B600019F28091E80083FFF2CFBECF2132310518
:101B7000A9F12232310509F0C3C04115510509F41C
:101B800043C04130510509F0BBC08BE790E0E8E667
:101B9000F4E0C9CF992781309105C1F0009759F041
:101BA000029709F0ADC0E0E7F5E0E4918E2F90E0F8
:101BB000E0E7F5E007C0E6EAF5E0E4918E2F90E07B
:101BC000E6EAF5E0009709F49BC0ADCFEEE8F5E05A
:101BD000E4918E2F90E0EEE8F5E0F4CF4115510549
:101BE00071F04130510509F08BC089E090E0EEE4DE
:101BF000F5E099CF82E190E0EEE5F5E094CF89E061
:101C000090E0E5E3F5E08FCF80E490E0E3EEF4E0F0
:101C10008ACF80917102882309F466CF853009F458
:101C200063CF8091E80083FD5FCF8091E80082FD63
:101C30008ECF8091E80080FF84CF8091F200909158
:101C4000F3002115310519F08830910550F041E07D
:101C5000089709F040E08091E8008E778093E800D3
:101C600070CF44914093F100319621503109019693
:101C7000E8CF803809F044C08091E800877F8093E6
:101C8000E800809172028093F1009ECE811138C0ED
:101C9000109175021230A0F58091E800877F809343
:101CA000E800109372020E945F03112311F084E098
:101CB00005C08091E30087FDFACF81E08093710237
:101CC00042E061EC81E00E947E0342E261EC82E04E
:101CD0000E947E038091710213C080917502813051
:101CE00079F481E0933009F080E0809370021092E3
:101CF000E9008091E800877F8093E8000E945F03FD
:101D00008091E80083FF0AC08091E800877F80937C
:101D1000E8008091EB0080628093EB00AA96E3E0FC
:101D20000C94941B0E94BA0B2FEF84E39CE021508B
:101D300080409040E1F700C0000088E19CE00FB6D1
:101D4000F894A895809360000FBE90936000FFCF39
:101D5000A5E0B0E0EEEAFEE00C946F1B7C01FC0114
:101D600083819481892B31F08081918189238F3FF8
:101D700009F0C7C32596ECE00C948B1B0E94ED077D
:101D8000182F682F89819A810E949B0869817A8126
:101D9000812F0E945F068C01FC01E851FC47E7306F
:101DA000F10588F5E15FF34E0C94631B26E241EEEA
:101DB00061EEC7010E94430B8091F3018770D1F25D
:101DC000F70182818823B1F280911D0282FFD2CF78
:101DD00082E00E94CC08CECF27E245EE65EEE9CF47
:101DE00026E241EE60EEE5CF27E245EE64EEE1CF7C
:101DF00026E241EE62EEDDCF27E245EE66EED9CF78
:101E000028E241E0EBCFF7018281882309F4A0C3E7
:101E100010927D02C8019057839708F083C384E035
:101E200090E00E94C91B90931D0280931C02F80150
:101E3000E150F047E232F10520F4EA5EF34E0C94F3
:101E4000631B80911C02816080931C0295C080916D
:101E50001D02886080931D028FC080911C028260E9
:101E6000F3CF80911C028460EFCF80911C028860C8
:101E7000EBCF80911D028160EDCF80911D028260C9
:101E8000E9CF80911C028061DFCF80911C028062CB
:101E9000DBCF80911C028064D7CF0E94BA0B809167
:101EA0001C028068D1CF80911C028C60CDCF8091C4
:101EB0001D028360CFCF80911C028E7FC5CF8091A1
:101EC0001D02877FC7CF80911C028D7FBDCF80917F
:101ED0001C028B7FB9CF80911C02877FB5CF809188
:101EE0001D028E7FB7CF80911D028D7FB3CF809171
:101EF0001C028F7EA9CF80911C028F7DA5CF80917F
:101F00001C028F7BA1CF0E94BA0B80911C028F779D
:101F10009BCF80911C02837F97CF80911D028C7F85
:101F200099CF80911C0282FB992790F921E092279A
:101F300090FB82F990FB83F987CF80911D02982F47
:101F4000909591708E7F892B90FB81F983CF909132
:101F50001C02892F8F7B96FF806476CF0E94BA0B7C
:101F600090911C02892F97FB87F980586DCF61E013
:101F70008EE090E00E94CF1B60911C0270911D02C8
:101F800084E090E00E94ED1B0E94BA0B15CF60E048
:101F9000EFCF90911C02892F8F7E94FF806154CFE8
:101FA00090911C02892F8E7F90FF81604DCF909180
:101FB0001D02892F877F93FF88604CCF85E3D2C2B3
:101FC0000E94BA0BFFEF24E33CE0F1502040304088
:101FD000E1F700C0000081E08093E00080E28093A0
:101FE000D8001092C9008FE19EE40197F1F700C07C
:101FF000000087E090EBDC0180937E0290937F02EB
:10200000A0938002B093810288E19CE00FB6F8941F
:10201000A895809360000FBE90936000FFCF6FEF94
:102020007FEF90E080E00E94ED1B0E94920E809175
:102030001D0282FB882780F991E089270E94A30B6B
:10204000F701828100811181882309F449C0C80108
:102050000E94ED07D82E682FC8010E949B08B80186
:102060008D2D0E945F060E9498068C01882EF70134
:10207000D280B580B2943FE0B3228091F3018770A3
:10208000F1F0AD2CDD20E1F0812F807F803451F024
:1020900080E2800F883098F0B11004C0812F807EDC
:1020A000803269F080911D0282FF09C082E00E94A7
:1020B000CC088091F3018770AA24A3948111A12CEC
:1020C000912E92942FE09222FBE0F91508F474C04F
:1020D000E92DF0E0E85CF34E0C94631B80E0AECF9A
:1020E000C8010E945508D82EBACF212F2F70C22EBA
:1020F000107F19F0C29490EFC922DD20B9F0CC20F6
:1021000069F080E2800F883010F0811009C0809162
:10211000FD01C82AC092FD010E945C0A802F4AC0BE
:102120008091FC01C82AC092FC01F6CF802F0E944A
:10213000AA0ACC2009F440C0005E083010F08110DB
:1021400004C08C2D0E94BC0706C0C0948091FC0185
:10215000C822C092FC010E945C0A2EC0312F3F7041
:10216000C32E107F103219F0C29480EFC82288204D
:1021700089F081E0881609F47CC0DD2009F486C06E
:10218000BB2009F47CC0F701858180FFC7CF8F7029
:10219000858375C020911D0222FD43C0DD20D9F149
:1021A000CC2039F08091FD01C82AC092FD010E9427
:1021B0005C0A80E00E94E70AE92DE850FF0B3497A3
:1021C00010F40E94EB04AA20A9F08091F30180FD95
:1021D00011C0F70112828595859585950E94E808C2
:1021E000C7010E94A80E8091F3018595859585957C
:1021F0000E94BA0885E0F701DE01119601900D9268
:102200008A95E1F709811A81C8010E945508B80131
:102210000E945F06AFCD80E00E94AA0ACC2061F246
:1022200090CFDD20A1F09091FE018C2D892BB11073
:1022300003C00E94A00AC0CFE1E0BE12FACF22FF85
:10224000BBCF891709F4B8CF8093FE01B5CFB11089
:1022500006C00E94B6078C2D0E94990AADCFF1E00E
:10226000BF1609F4A9CF8C2D0E94990A0E94B607C7
:10227000A3CFDD2031F025E02B1508F49DCF8C2D68
:10228000D8CF34E03B1508F497CFE5CFBB2019F346
:10229000F9E38F122FC12FEF37EE83E0215030404A
:1022A0008040E1F700C0000025C1812F869586950A
:1022B000837061F0813009F07FCFC8019370D11035
:1022C00002C080E090E00E94A10476CFC801937024
:1022D000D11002C080E090E00E94C6046DCF6D2D49
:1022E000802F0E94270968CF812F837009F03FC09B
:1022F000D11062CF402F429546954770440F440F4E
:10230000802F8F7090E0042E02C0880F991F0A94CE
:10231000E2F730E020E004FF09C02FE030E002C027
:10232000220F331F4A95E2F72095309516951695A2
:102330001370123099F078F44091180250911902FC
:10234000113039F0822B932B842395230E94F808B7
:1023500033CF842B952B822B932BF8CF822B932B6F
:10236000209118023091190282279327EFCF86958A
:10237000DD2011F0812F8170882309F41DCF402FBB
:10238000429546954770440F440F802F8F7090E020
:10239000042E02C0880F991F0A94E2F730E020E073
:1023A00004FF09C02FE030E002C0220F331F4A951E
:1023B000E2F720953095169516951370123099F026
:1023C00078F440911A0250911B02113039F0822B9F
:1023D000932B842395230E94B508EECE842B952B56
:1023E000822B932BF8CF822B932B20911A023091C2
:1023F0001B0282279327EFCF1F70DD2029F0812F4A
:102400000E94E808802F15CF802F0E94990A812F03
:102410000E94BA08D1CE802F92EF891699F19815B3
:1024200070F0E0EF8E16D1F0F1EF8F1691F0DD2015
:1024300009F45BC0B11072CE812F8F7127C023EFDA
:10244000821639F134EF8312F2CF80911D0282FDA2
:102450002EC0812F8F71DD20D9F218C0DD2069F0E8
:1024600084E08B1508F4A8CE1F7181E090E002C0D3
:10247000880F991F1A95E2F7B8CF95E09B1508F4DD
:102480009BCEF2CF812F8F71D110C2CF0E94E8086E
:1024900093CE90E080E0DD2009F49DCF1F7181E0B4
:1024A00090E002C0880F991F1A95E2F794CFDD20C3
:1024B00089F01F71812F0E94E80880911D0282FF20
:1024C00007C0E8E01E9FC001112483608093F301E0
:1024D000812FDCCF81E00E94CC08F1E0FB1508F0F1
:1024E0006BCE82E00E94CC0867CEBB2039F08933E6
:1024F00009F4D1CE802F0E94AA0A5ECE812F8F715F
:1025000087CF85E0DE01119601900D928A95E1F763
:10251000F701228189819A81211130CC0E945508CE
:10252000182F34CC0631FCE71F0751F58091FD01CF
:102530008A7A91E009F490E090937A0169E281113E
:1025400065E382E791E00E9487040E945C0A34CC34
:1025500006312CE7120709F073CD80917A018111C1
:102560002DCD89E2E4E7F1E02AE731E0919189138A
:1025700003C0DF0111971C922E173F07B9F7E5CF73
:1025800003303CE7130709F44ACD50F401159CE7EA
:10259000190709F415CD01301C4709F446CD50CD7B
:1025A0000B35FCE71F0709F499CD0C352CE7120712
:1025B00009F43DCD0A351C4709F042CD81E03ECDFE
:1025C0001F93CF93DF938091C001807F09F04BC0B0
:1025D0008091BD01882309F446C08091F201C09129
:1025E000C1014091BB015091BC016091BE0170914D
:1025F000BF01D42FD52316E0C817A9F190E06115CB
:102600007105A9F1DF3F99F1189FF001199FF00DB5
:102610001124DF01AE53BE4F11962C911197251353
:1026200026C02C91241323C012962C9112972111AD
:102630001EC013962D913C91261B370B283C31056B
:10264000B0F48091C0018F7080618093C001E95324
:10265000FE4F80818F70806180838BEB91E00E94C0
:10266000A80E0E94E307DF91CF911F910895019674
:102670008770C2CFA1E1B0E0E0E4F3E10C946F1BFE
:102680008C0185E0F801DE011D9601900D928A957E
:10269000E1F7F801E2808BEB882E81E0982E4091E3
:1026A000BE015091BF014115510509F430C190910F
:1026B000BB012091BC01892F82238F3F09F427C1E0
:1026C000D080C180A380B480F090BD01B501641BAF
:1026D000750BFF2009F4E7C08091C001382F307FCF
:1026E000683C710508F0ABC0311178C0FE2C2C118C
:1026F00014C09D1112C0E11010C08F7080618093D2
:10270000C001C4010E94A80E8091C001F801858318
:102710008F2D6196ECE00C948B1BA114B104C9F1D0
:102720008D2D8C218F3FA9F181E08E2580FF05C082
:102730004E2D6C2D8D2D0E94C307A114B10459F1AB
:102740008D2D8C218F3F39F181E08E25F82FF1708E
:10275000BF2E80FF39C04E2D6C2D8D2D0E94C307DA
:10276000A82E811131C0DD86CE868D859E850E9482
:102770002108292F22952F70243078F49F70223061
:10278000A8F09923B9F0F8019581907F99F4FA2C7B
:10279000BFCF80E0CBCF80E0D9CF2A5F2F7022302F
:1027A00068F0C8010E94A80EAB2CF1CF992311F05C
:1027B000882369F3805E883050F3F3CF803F38F38D
:1027C000815F833070F7E3CFEE2009F4A1CF8091D1
:1027D000C00181608093C001F12C9ACF2C1105C0FB
:1027E0009D1103C0EE2009F477C0C8010E94FD08C6
:1027F000882309F1EE20F9F08091C001803270F059
:102800002091BB013091BC0138872F831986BB868C
:10281000AA868C87CE0107960E94A80E86E0F80152
:10282000ABEBB1E001900D928A95E1F70E94E012C6
:10283000FF24F3946DCFC8010E94A80EF9CF311187
:102840000AC08BEB91E00E94A80E86E0F401119281
:102850008A95E9F7C1CF2C110EC09D110CC0E11073
:102860000AC08583C8010E94A80E86E0F401119277
:102870008A95E9F74DCFC8010E94FD088823D9F257
:10288000EE20C9F28091C001803240F22091BB015C
:102890003091BC013A8329831B82BD82AC828E8336
:1028A000CE010196B9CF683C7105F8F6FE2CEE20FA
:1028B00011F22C111EC09D111CC08091C00180FD21
:1028C0000FC0982F907F61F08583903F31F0982F53
:1028D000907F905F8F70892B8583C8010E94A80E1E
:1028E00086E0F801ABEBB1E001900D928A95E1F73B
:1028F0000FCFC8010E94FD08811190CF8091C001C7
:1029000081608093C001C8010E94A80E01CFEE2013
:1029100009F491CFC8010E94FD08F82E882309F41C
:102920008ACF86E0F801ABEBB1E001900D928A9579
:10293000E1F78091BB019091BC010E9421080E94A7
:10294000E012E6CEA7E1B0E0E8EAF4E10C94781BEF
:102950004B8B5C8B6D8B7E8B8F8B61111092FC018E
:102960001A8A198A85E0FE017396DE011D96019090
:102970000D928A95E1F786E0FE013D96DE011796FD
:1029800001900D928A95E1F7CE0107960E943A13C5
:10299000882359F016E08091F2019091C1018913CA
:1029A00043C06796E3E00C94941B86E0FE013796E3
:1029B000DE01119601900D928A95E1F78A859B853B
:1029C000892B41F38F81988589238F3F19F32091BB
:1029D000C10130E0C9010196877099274091F20149
:1029E0004817190671F40E94BA0B1092C101109297
:1029F000F20186E0EBEBF1E0DF011D928A95E9F749
:102A0000C9CF96E0929FD001939FB00D1124AE5391
:102A1000BE4FFE01319601900D929A95E1F7809399
:102A2000C1010E94E307B6CF819FC00111248E53DC
:102A30009E4F0E943A13882309F4B3CF8091F2018C
:102A400090E00196877099278093F201A4CFA5E0CA
:102A5000B0E0EDE2F5E10C94771B0E947B048C0161
:102A60008091FF019091000280179107A1F08FEFF4
:102A700089838A831B820E947B048160782F9D83D7
:102A80008C8349815A816B818D810E94A21410939D
:102A900000020093FF012596E4E00C94931B4F92F3
:102AA0005F926F927F92AF92BF92CF92DF92EF923E
:102AB000FF920F931F93CF93DF93CDB7DEB7649749
:102AC0000FB6F894DEBF0FBECDBF8E010F5F1F4F54
:102AD00084E1F80111928A95E9F792E4E92E91E0F8
:102AE000F92E6801AA24A394B12CF70181917F01EA
:102AF0008F3F09F452C0F894E82FE295EF70F0E0B0
:102B000021A18F70A50102C0440F551F8A95E2F7DD
:102B1000CA01922F982B91A392A18095892382A319
:102B2000789400C0E7E4F1E041E050E060E070E05C
:102B3000412C512C320181918F3F89F0A82FA29511
:102B4000AF70B0E090962C9130E08F7002C0359558
:102B500027958A95E2F7DB01CA0120FF03C080E0D8
:102B600090E0DC01482A592A6A2A7B2A440F551F23
:102B7000661F771F81E0EF35F807E9F6F701319717
:102B800080818F3F11F00E946305E0EAEA95F1F73A
:102B9000F6014082518262827382F4E0CF0ED11C32
:102BA00047E4E41641E0F40609F09FCF44E150E029
:102BB000B80184E092E00E94B41B892B81F184E18A
:102BC000F801A4E0B2E001900D928A95E1F781E06E
:102BD000809303020E947B0490930202809301027F
:102BE00080910102909102020E946C040597D8F036
:102BF00044E150E064E072E08EE192E00E94B41B98
:102C0000892B39F184E1E4E0F2E0AEE1B2E0019039
:102C10000D928A95E1F781E01092030205C0809140
:102C200003028111DDCF80E064960FB6F894DEBF19
:102C30000FBECDBFDF91CF911F910F91FF90EF900D
:102C4000DF90CF90BF90AF907F906F905F904F904C
:102C5000089580E0E1CF1F920F920FB60F921124DA
:102C60002F933F934F935F936F937F938F939F9394
:102C7000AF93BF93CF93DF93EF93FF93D091E9008E
:102C8000DF708091EC00C82FC17080FDC0E8109209
:102C9000E9008091F000877F8093F00078940E9493
:102CA000E10B1092E9008091F00088608093F000C1
:102CB000CD2BCF70C093E900FF91EF91DF91CF91C1
:102CC000BF91AF919F918F917F916F915F914F9144
:102CD0003F912F910F900FBE0F901F9018951F924C
:102CE0000F920FB60F9211242F933F934F935F9340
:102CF0006F937F938F939F93AF93BF93EF93FF93C4
:102D00008091E10082FF09C08091E20082FF05C04E
:102D10008091E1008B7F8093E1008091DA0080FF59
:102D200024C08091D80080FF20C08091DA008E7F7F
:102D30008093DA008091D90080FF9DC088E189BD31
:102D40008AE189BD09B400FEFDCF81E08093710264
:102D500080916402811109C00E940F030E94B00398
:102D60008091E20084608093E2008091E10080FF26
:102D700017C08091E20080FF13C08091E2008E7F37
:102D80008093E2008091E20080618093E200809174
:102D9000D80080628093D80019BC85E080937102CE
:102DA0008091E10084FF2BC08091E20084FF27C066
:102DB00088E189BD8AE189BD89B5982F917080FF2E
:102DC000FBCF8091D8008F7D8093D8008091E10067
:102DD0008F7E8093E1008091E2008F7E8093E200FD
:102DE0008091E20081608093E200809172028823EA
:102DF00009F447C084E08093710280917102809150
:102E0000E10083FF27C08091E20083FF23C080910F
:102E1000E100877F8093E10082E08093710210924D
:102E200072028091E1008E7F8093E1008091E20048
:102E30008E7F8093E2008091E20080618093E200C7
:102E400042E060E080E00E947E038091F0008860B4
:102E50008093F000FF91EF91BF91AF919F918F917F
:102E60007F916F915F914F913F912F910F900FBE86
:102E70000F901F90189519BC109271021092640265
:102E800074CF8091E30087FD93E090937102B5CFFA
:102E900078941F921FB61F9211248F939F93AF9324
:102EA000BF938091600290916102A0916202B09103
:102EB00063020196A11DB11D80936002909361028F
:102EC000A0936202B0936302BF91AF919F918F91E3
:102ED0001F901FBE1F9018951F921FB61F9211249E
:102EE0008F939F93AF93BF9380915F02811113C023
:102EF0008091600290916102A0916202B0916302A0
:102F00004196A11DB11D8093600290936102A09330
:102F10006202B0936302BF91AF919F918F911F9016
:102F20001FBE1F901895CDB7DEB7A3970FB6F894C4
:102F3000DEBF0FBECDBF85B7806885BF85B780680F
:102F400085BF84B7877F84BF0FB6F894A89580911A
:102F50006000886180936000109260000FBE80E87E
:102F600090E00FB6F89480936100909361000FBEDB
:102F700081E695E090937101809370010E940F03A8
:102F80000E94B0038091E20084608093E200789414
:102F9000809171028823A1F01091E9001F70909137
:102FA000EC00892F817090FD80E8182B1092E900C9
:102FB0008091E80083FD0E94E10B1F701093E900EF
:102FC00082E084BD93E095BD9AEF97BD80936E003B
:102FD00081E0809349026E98769A6F98779A8FE88D
:102FE00091E00197F1F700C00000409149026AE4C6
:102FF00072E0FB018E2F861B841708F43CC102E4AB
:1030000011E0D8018D918D018F3F11F00E94630571
:10301000B1E007341B07A9F707E411E0BFE5EB2E89
:10302000B1E0FB2EF80181918F018F3F11F00E94DA
:103030006305E016F106B1F784E1EEE1F2E0DF01AD
:10304000282F1D922A95E9F7E4E0F2E0DF011D92B6
:103050008A95E9F790E080E00E94C91B873E9E4F69
:1030600009F45EC067EE7EEF90E080E00E94ED1B09
:1030700060E082E090E00E94CF1B60E083E090E09F
:103080000E94CF1B109219021092180260E074E1A6
:1030900084E090E00E94ED1B60E086E090E00E94FA
:1030A000CF1B6FEF87E090E00E94CF1B40E050E025
:1030B000BA0188E090E00E94E11B60E08DE090E0C2
:1030C0000E94CF1B40E050E0BA0188E190E00E94EE
:1030D000E11B60E087E190E00E94CF1B40E050E000
:1030E000BA018CE190E00E94E11B70E060E080E2B8
:1030F00090E00E94ED1B40E050E0BA0188E190E0D2
:103100000E94E11B40E050E0BA018FE090E00E9495
:10311000E11B40E050E0BA0183E190E00E94E11B36
:1031200082E090E00E94C11B8093320284E090E034
:103130000E94C91B90931D0280931C0283E090E0C3
:103140000E94C11B90E00E94F80880E091E09093FB
:103150005C0280935B02A0E48A2E11E080917102F0
:10316000F8E1FF2E0AE1853009F4D2C00E944F1524
:1031700073E3A72E72E0B72EEEE12E2EE2E03E2E94
:10318000D101F501C190D190E190F1904D915D9107
:103190006D917D9182E0E734F80709F4C3C0C4164D
:1031A000D506E606F70671F300E0D101CD90DD907B
:1031B000ED90FD901D01F50141905190619071904D
:1031C0005F014C145D046E047F0409F444C0D30114
:1031D000C2018C259D25AE25BF2588A399A3AAA34E
:1031E000BBA3912C412C512C3201439488A199A16D
:1031F000AAA1BBA184219521A621B721892B8A2BC5
:103200008B2BD9F09B8E0C8F21E0D701C601842136
:103210009521A621B721892B8A2B8B2B09F420E03D
:103220002D8F0E947B048160782F9F8F8E8F4B8D16
:103230005C8D6D8D8F8D0E94A2149394440C551C4F
:10324000661C771C98E19912D1CFF5013497C082A2
:10325000D182E282F3820F5F053009F0A6CF8FB7EB
:10326000F894409160025091610260916202709105
:1032700063028FBF5FC08CB186FB882780F92CB1B9
:1032800030E0220F232F221F330B90E0232B09F075
:1032900092E0892B8193AECE80917102843019F136
:1032A00010925F02E8E1F0E00FB6F894A895E09381
:1032B00060000FBE8092600083B7817F846083BF0F
:1032C00083B7816083BF7894889583B78E7F83BFEF
:1032D0000FB6F894A8958091600088618093600093
:1032E000109260000FBE80917002882389F00E94C6
:1032F0004F15EEE1F2E081919191A191B191892B6D
:103300008A2B8B2B09F0ABC122E0E233F20799F74D
:1033100080917102853009F4BFCF0E94BA0B0E94E0
:10332000EB0424CFC416D506E606F70609F03CCF19
:103330000E94271500E0B12C3CEFA32E4DEF942EF8
:1033400080914902081708F4F3C0BB2059F08FB7E9
:10335000F894409160025091610260916202709114
:1033600063028FBF86E0E3E5F2E0DE011196019093
:103370000D928A95E1F71092550210925602109222
:103380005702109258028B819C81892B09F44AC004
:1033900080915102909152020E946C049C01909184
:1033A0004C02992309F476C125313105D8F19F3FAC
:1033B00019F09F5F90934C020B81002359F00E94FB
:1033C00041059FEF10160CF491E0899F802D112488
:1033D000809355020C81002359F00E9441059FEF14
:1033E00010160CF491E0899F802D112480935602D1
:1033F000309155023323B1F020915602222391F0EF
:1034000045EB3403C0011124992309F41CC19093A6
:10341000550245EB240390011124332309F416C10E
:10342000309356028D819E81892B09F44AC0809188
:103430004F02909150020E946C049C0190914D02A9
:10344000992309F422C121353105D8F19F3F19F0A4
:103450009F5F90934D020D81002359F00E941F053C
:103460009FEF10160CF491E0899F802D112480931A
:1034700057020E81002359F00E941F059FEF10167E
:103480000CF491E0899F802D112480935802309193
:1034900057023323B1F020915802222391F045EBDB
:1034A0003403C0011124992309F4D3C09093570227
:1034B00045EB240390011124332309F4CDC030934C
:1034C000580246E050E0BE016F5F7F4F83E592E017
:1034D0000E94B41B892B61F4809155029091560291
:1034E000892B90915702892B90915802892B11F0CA
:1034F0000E94F80486E0FE013196A3E5B2E0019057
:103500000D928A95E1F70E94EB0490914B02891786
:1035100009F424CE80934B028FB7F8944091600257
:103520005091610260916202709163028FBF16CE6A
:10353000E02EF12CECB1E6FBEE27E0F98CB190E047
:10354000880F892F881F990B892B09F07AC080E09A
:103550008E2BD701A65BBD4FEC919E2F93708917E0
:1035600009F46DC0EE0FEE0FE82BEC93EF70F0E076
:10357000E15AFE4FD701A85BBD4F6D0180819C9140
:10358000890F8C9320E084302CF1F701E95BFD4F2B
:1035900080818F5F80830E947B04098B9A8A1B8BBA
:1035A0008160782F9D8B8C8B402F5DEF61E08D8942
:1035B0000E94A2140E947B040E8B9F8A188E816049
:1035C000782F9A8F898F402F5DEF60E08A8D0E945F
:1035D000A21421E0F60180818D3F2CF5F701E95B13
:1035E000FD4F8081815080830E947B040F83A886D9
:1035F00019878160782F9B878A87402F5CEF61E075
:103600008B850E94A2140E947B040C87AD861E86C7
:103610008160782F988B8F87402F5CEF60E08889DE
:103620000E94A21421E0D6018C91082E000C990B67
:1036300064E070E00E944F1BF6018083B22A0F5FA6
:103640007FCE82E085CF10935502E3CE10935602D1
:10365000E9CE109357022CCF1093580232CFF9BC09
:1036600009BD09B400FEFDCF8091D8008F7D809305
:10367000D8008091E00082608093E0008091E000BB
:1036800081FDFCCF0E94BA0B43CE2B30310508F0F0
:10369000DFCE17CF2B30310508F08BCEC3CE97FB92
:1036A000072E16F4009407D077FD09D00E94A01BC6
:1036B00007FC05D03EF4909581959F4F0895709535
:1036C00061957F4F0895EE0FFF1F0590F491E02D57
:1036D00009942F923F924F925F926F927F928F92B6
:1036E0009F92AF92BF92CF92DF92EF92FF920F9391
:1036F0001F93CF93DF93CDB7DEB7CA1BDB0B0FB69B
:10370000F894DEBF0FBECDBF09942A883988488857
:103710005F846E847D848C849B84AA84B984C884ED
:10372000DF80EE80FD800C811B81AA81B981CE0FE4
:10373000D11D0FB6F894DEBF0FBECDBFED010895C9
:10374000AA1BBB1B51E107C0AA1FBB1FA617B707C7
:1037500010F0A61BB70B881F991F5A95A9F78095E3
:103760009095BC01CD010895FB01DC0104C08D9151
:103770000190801921F441505040C8F7881B990BE3
:103780000895F999FECF92BD81BDF89A992780B529
:103790000895A8E1B0E042E050E00C94F51B262F1C
:1037A000F999FECF92BD81BDF89A019700B4021637
:1037B00039F01FBA20BD0FB6F894FA9AF99A0FBEE5
:1037C00008950396272F0E94D01B0E94CF1B252F00
:1037D0000E94D01B242F0C94D01B0196272F0E94EF
:1037E000D01B0C94CF1BDC01CB01FC01F999FECF5F
:1037F00006C0F2BDE1BDF89A319600B40D92415079
:103800005040B8F70895F894FFCFC00CE80C800E34
:10381000E80C800E1B0D3C0D800E390E460EF00E8E
:10382000F40ED60EEC0EF80EFC0E000F5B0FD00F50
:10383000630F2D0F310F670F350F6B0F770F410F90
:10384000C90F450F7B0F490F7F0FA70F4D0F830F38
:10385000AE0F530F890F910F390F6F0F3D0F730F7D
:10386000570F8D0F9D0FB70FC70F270F5F0FD70F84
:1038700075107510AE10AE1055116F11DC10DC1004
:083880007411FC110B120B1274
:103888006904480A410A3A0A01818283E200E90090
:10389800EA00B500B600B700CD008301CC008A016C
:1038A8009201940121022302240225022602270202
:1038B8002A02B300B4006F0070009F01CB019F0281
:1038C800A0023233606162C1C09796959493929139
:1038D80090F0F1F2F3F4F5F6F700010203040500A5
:1038E800FF0100010000FFFF0000010001FF0000D0
:00000001FF
