:100000000C94F6040C942E050C942E050C942E05DD
:100010000C942E050C942E050C942E050C942E0594
:100020000C942E050C942E050C9413330C94E7338A
:100030000C943C2D0C942E050C942E050C942E053E
:100040000C942E050C942E050C942E050C942E0564
:100050000C942E050C94C22D0C942E050C942E0598
:100060000C942E050C942E050C942E050C942E0544
:100070000C942E050C942E050C942E050C942E0534
:100080000C942E050C942E050C942E050C942E0524
:100090000C942E050C942E05290000002900010067
:1000A00035001E001F002000210022002300240034
:1000B0002500260027002D002E002A004C005600A7
:1000C00054005500000000003A003B003C004A008C
:1000D0002B0014001A000800150017001C0018005F
:1000E0000C00120013002F003000310001005F00EF
:1000F00060006100010058003D003E003F004B00E1
:10010000390004001600070009000A000B000D006A
:100110000E000F00330034000000280052005C0085
:100120005D005E00010001004000410042004E0001
:10013000E1001D001B000600190005001100100061
:100140003600370038000000E5000000510059007B
:100150005A005B00010057004300440045004D0079
:10016000E000E300E20001002C00000000002C0091
:100170000000E600E7000100E40050004F0001002D
:1001800062006300010001000100000001000100A5
:100190000100010001000100010001000100010057
:1001A0000100010001000100010001000100010047
:1001B0000100010000000000010001000100010039
:1001C0000100010001000100010001000100010027
:1001D0000100010001000100010001000100010017
:1001E0000100010001000100010001000100010007
:1001F00001000100010001000100010001000100F7
:1002000001000100010001000000010001000100E7
:1002100001000100010001000100010001000100D6
:1002200001000100010001000100010001000100C6
:1002300001000100010000000100000001000100B8
:1002400001000100010001000100010001000100A6
:100250000100010001000100010000000000010098
:100260000000010001000100010001000100010087
:100270000100010001000100010000000100010077
:100280000100010001000100010001000100010066
:100290000100010001000100010001000100010056
:1002A0000100010000000000010001000100010048
:1002B0000100010001000100010001000100010036
:1002C0000100010001000100010001000100010026
:1002D0000100010001000100010001000100010016
:1002E0000100010001000100010001000100010006
:1002F00001000100010001000000010001000100F7
:1003000001000100010001000100010001000100E5
:1003100001000100010001000100010001000100D5
:1003200001000100010000000100000001000100C7
:1003300001000100010001000100010001000100B5
:1003400001000100010001000100000000000100A7
:100350000000010001000100010001000100010096
:100360000100010001000100010000000100010086
:100370000100010001000100010001000100010075
:100380000100010001000100010001000100010065
:100390000100010000000000010001000100010057
:1003A0000100010001000100010001000100010045
:1003B0000100010001000100010001000100010035
:1003C0000100010001000100010001000100010025
:1003D0000100010001000100010001000100010015
:1003E0000100010001000100000001000100010006
:1003F00001000100010001000100010001000100F5
:1004000001000100010001000100010001000100E4
:1004100001000100010000000100000001000100D6
:1004200001000100010001000100010001000100C4
:1004300001000100010001000100000000000100B6
:1004400000000100010001000100010001000100A5
:100450000100010001000100000000000000000098
:100460002A2B28000000000000000000000000000F
:1004700000000029000000002C1E3420212224341A
:100480002627252E362D3738271E1F2021222324EC
:1004900025263333362E37381F0405060708090A88
:1004A0000B0C0D0E0F101112131415161718191A24
:1004B0001B1C1D2F3130232D350405060708090AA2
:1004C0000B0C0D0E0F101112131415161718191A04
:1004D0001B1C1D2F3130354C0000000000000000B7
:1004E000000000000000000000000000000000000C
:1004F0000000000000000000000000007E0F00D49B
:10050000FFFFFFC700000078FD377A585A0000044B
:10051000E6D6B4460200210116000000742FE5A3C0
:10052000E0075502275D003D8889C65436C3174F42
:10053000E4E21131AAE46E2E0F4A5B945164B7597C
:1005400065F2326DDD643A9BB7720457405CFA7015
:100550001981CEBD857687377CA9F0148AD64D24C3
:1005600033CF1FCEDCEE0A3453F5BC826864D785E6
:10057000F9F4226D4AB8A3A98FAC1AA51365F37CD0
:10058000480224FC1705680EDFBF31EA278C2F20B4
:100590006578673D40DEF5D372B30AB7B27200AA40
:1005A00090E8A1F3BC6B293BC6DDF433599D54950B
:1005B0003E4BC1289451194399F2B20DCC23CF94EC
:1005C0001DCE2E84FBAAACE9C02AAB53715D4B3E15
:1005D00040C7F66242163ECEE146091365DDD428D7
:1005E000AD9D57A52F512397902531E24493A48CBC
:1005F00070D01CA75FED6CEBACFE30218191D45024
:100600005249EEEE51FF984C18BA66D0DB59A50E50
:10061000FD1342F70CBC5FC7ACB5EBCEF433B82585
:10062000E176ED27D7AA82AED9CC2BB51D477AD477
:10063000C96DAE91579A75D8C9B801ABD087EF5E36
:10064000BE7F05222FE79BB972E041B6247B79A7D4
:1006500018A532321887CF6C261FAA37DD3F86BE19
:100660008C5D124BF38E680BCEF37EF39EDEDB6661
:1006700014FB6567CED83B91518C73C71045C2AE51
:10068000364B6811E19B1BBB85C2C11EA3AE07FAA6
:10069000B7056E962F2B8D5BEBAA3CC1716AB4CD6A
:1006A00029EDE232CE22D122CD4CEA158B6683B9F8
:1006B00048B0B462334663FEF66D70D3621BADE59D
:1006C000FB163CD41EB232C022AEB8B50B834B7DB4
:1006D000D675EE208CCA9E42AE8E438F5A1BBC65E7
:1006E0000D2B7D384796403E2DBB7074BC26959AE5
:1006F0004B840F118859FB57EBEE5BB771075D45D3
:10070000AB5F9BAA692CC15B3FA3CD43C363F2954A
:100710008E384087E24933E9FF34397D7F25FAF589
:1007200057FE2E63031485A306DEA4841A17B26055
:10073000487A8819F0F6999014CC23588685070DCD
:100740007C580DB41EF7BF22DD6A64FF1E620000F4
:10075000C426E8160B99FAA00001C304D60E0000C7
:1007600048D508A8B1C467FB020000000004595A2C
:1007700001000100D104000002000200CD040000CD
:1007800003000100D204000004000200B704A62305
:1007900005000100D304000006000200B9040000B7
:1007A00007000200CF04000008000100D40400008C
:1007B00009000200BB0481230A000200BD0481235A
:1007C0000B000200BF0481230C000200C10481233E
:1007D0000D000200C30481230E000200C504812322
:1007E0000F000200C704812310000200C904812306
:1007F00011000200CB04812312000200D504000086
:1008000013000200D70400001C0376006900610099
:100810006C003A006600360034006300320062006B
:100820003300630000001C034C006F006E00670083
:1008300020004C006F006E00670020004D0061003A
:100840006E000000160350004C00490050002000CC
:1008500057006F0072006B0073000000040309046E
:1008600009025B00030100A0FA0904000001030172
:100870000100092111010001224000070581030840
:100880000001090401000203000000092111010018
:10089000012222000705820320000107050303202F
:1008A00000010904020001030000000921110100F8
:1008B0000122BC0007058403200001120100020090
:1008C00000000857506D6C0000010203010660FF34
:1008D0000961A1010962150026FF009520750881B4
:1008E000020963150026FF00952075089102C005D6
:1008F000010902A10185020901A1000509190129C7
:100900000515002501950575018102950175038185
:10091000010501093009311581257F95027508818E
:100920000609381581257F950175088106050C0A91
:1009300038021581257F950175088106C0C0050123
:100940000980A101850319012AB700150126B70006
:10095000950175108100C0050C0901A101850419DC
:10096000012AA002150126A002950175108100C080
:1009700005010906A1018506050719E029E715000B
:1009800025019508750181020507190029EF150059
:10099000250195F0750181020508190129059505C4
:1009A00075019102950175039101C005010906A128
:1009B00001050719E029E715002501950875018152
:1009C000029501750881010507190029FF15002608
:1009D000FF00950675088100050819012905950590
:1009E00075019102950175039101C00011241FBE8C
:1009F000CFEFD0E1DEBFCDBF04B603FE18C08091BB
:100A0000EA049091EB04A091EC04B091ED048730DE
:100A1000904BA740B04B59F41092EA041092EB04AB
:100A20001092EC041092ED04E0E0F8E7099511E073
:100A3000A0E0B1E0E8EEFCE602C005900D92A23C19
:100A4000B107D9F724E0A2ECB1E001C01D92AA3EA3
:100A5000B207E1F70E94A9170C944E360C940000DF
:100A60009C013A9521153F4150F5FC01EE27F170AC
:100A7000BC0166277270AC01442754709C01222788
:100A8000387094FF0EC080E1EF2B09F480E0672BF3
:100A900009F08062452B09F08064232B89F080687F
:100AA000089581E0EF2B09F480E0672B09F0826064
:100AB000452B09F08460232B19F08860089580E0AD
:100AC0000895CF93DF93EB010E943005FE01DF9183
:100AD000CF910994CF93DF93EC01805E9109089741
:100AE00020F068EB78E0209711F46AEA78E0CE0114
:100AF0000E9461058C2FDF91CF910C940A08CF934F
:100B0000DF93EC010E945808CE01805E910908979E
:100B100020F06FEB78E0209711F461EB78E0CE01E4
:100B2000DF91CF910C94610581E0089581E00895F3
:100B30000C94960508950C949A051F93CF93DF9318
:100B400000D000D00F92CDB7DEB749835A836B83B4
:100B50003091C50189819A8131111DC06623B9F098
:100B60002223A9F00E94B10C182F682F89819A8145
:100B70000E94540C69817A81812F0F900F900F9001
:100B80000F900F90DF91CF911F910C9468220E94DB
:100B9000840C182FEFCF0E94B10C69817A81EDCFC0
:100BA000FC01262F408151816281738184810C94E4
:100BB0009D0581E00895CF93DF93EC0160E00E94F2
:100BC000D005BE01DF91CF910C949B05E1E0F0E0F0
:100BD000DF0102C0AA0FBB1F6A95E2F7BD01DF016A
:100BE00002C0AA0FBB1F4A95E2F76A2B01C0EE0FA5
:100BF0002A95EAF7962F9823961302C08E2B089514
:100C0000E0958E230895242F462F682F8091F501BB
:100C10000E94E6050C94110C0C940A160C940D1607
:100C200008950E94DA080E9410062FEF84E39CE0EA
:100C3000215080409040E1F700C000000C94E62D68
:100C40000F931F93CF93DF93EC018B010E94CA2A6D
:100C5000B801CE010E94D01A882309F44FC0B80110
:100C6000CE010E94ED1F882309F448C0B801CE01CF
:100C70000E949805882309F441C0B801CE010E9462
:100C8000102B8823D9F1B801CE010E94A527882313
:100C9000A9F1B801CE010E94152A882379F1B80183
:100CA000CE010E940525882349F1B801CE010E949A
:100CB0004629882319F1F8018281882361F0CA3519
:100CC000FDE5DF0721F170F4C115ECE5DE07A1F0C9
:100CD000CE3DDC45C9F0C801DF91CF911F910F9146
:100CE0000C949405CB358DE5D807A1F0CC35DD45C6
:100CF00091F70E941512EFCF0E94110680E0DF915C
:100D0000CF911F910F9108950E94CE12F7CF0E94AC
:100D10001E12E1CF0E942112DECFCF93DF93EC01B0
:100D200061E00E94D005BE01DF91CF910C942006B6
:100D30000E941E2D0C9481070E9484070C94222D82
:100D4000DF92EF92FF920F931F93CF93DF93E82FE1
:100D5000F0E0E85AFB4FD490282F2695269526954B
:100D600030E0F901E850FB4F0491877010E0082E45
:100D700002C0159507950A94E2F701701127F90151
:100D8000E851FB4FE490F12C082E02C0F594E79453
:100D90000A94E2F791E0E922FF24F901E852FB4FBF
:100DA000C491D0E002C0D595C7958A95E2F7C1708D
:100DB000DD270115110519F081EE0E940A08E114E2
:100DC000F10419F086EE0E940A088D2D0E949E08FB
:100DD000EF2819F086EE0E945808012B19F081EED9
:100DE0000E945808CD2B51F08CE2DF91CF911F91DA
:100DF0000F91FF90EF90DF900C949E08DF91CF91C0
:100E00001F910F91FF90EF90DF900895EF92FF9266
:100E10000F931F93CF93DF93EC01162F0AE0888185
:100E2000882309F454C0813009F04EC08981813093
:100E300099F47E0122E0E20EF11C8A810E949E0854
:100E4000E7012196812F815050F3EFE9FFE03197C0
:100E5000F1F700C00000F7CF823041F47E0182E05C
:100E6000E80EF11C8A810E940A08EACF833041F41F
:100E70007E01E2E0EE0EF11C8A810E945808E0CF6C
:100E8000843011F02196DDCF2A81229690E080E017
:100E9000AE014F5F5F4F2053330B2A30310548F0CE
:100EA000019778F2EFE9FFE03197F1F700C0000019
:100EB000F7CF089FB001099F700D1124C901860F5B
:100EC000971F2981EA01E4CF0E94A006BACFDF91E3
:100ED000CF911F910F91FF90EF90089560E00C94D7
:100EE000060708950C94710781E008950C94740727
:100EF0000895CF93C82F0E9472078C2FCF910C9426
:100F0000760780E00C9479070E94E62B0C94790711
:100F10000E94E62B9091C401981721F08093C401A0
:100F20000C9479070895019708F40895EFE9FFE01C
:100F30003197F1F700C00000F6CFCF93DF93CDB724
:100F4000DEB72B970FB6F894DEBF0FBECDBF4F8331
:100F5000588769877A878B878A859B85892B29F0B3
:100F6000CA0189238F3F09F046C0898581110E94FB
:100F700027111E821D8285E0FE013796DE01119643
:100F800001900D928A95E1F780918C0482FD12C048
:100F90008091B9049091BA04892B61F00E94E3100A
:100FA000882319F082E00E94E4110E94BF10811191
:100FB0000E945E118C819D81892B89F449815A811F
:100FC0006B817C818D819E810E940E102B960FB6C5
:100FD000F894DEBF0FBECDBFDF91CF910895898118
:100FE0009A8189238F3F51F3CE0101960E94D90542
:100FF0008111E4CFEBCF8091C6019091C70101969A
:101000009093C7018093C601B0CFFC01808191818C
:101010000C94DE0CCF93C82F882309F447C08CEFC3
:101020008C0F813AA0F46C2F809100019091010106
:101030000E945A2C882329F08C2F0E94AF100E9406
:101040006C118C2F0E94A810CF910C946C1180E22F
:101050008C0F883048F4C77081E001C0880FCA95B2
:10106000EAF70E940711F0CFEBE5EC0FE33040F414
:10107000F0E0EE5AFE4F808190E0CF910C941A2C54
:10108000E8E5EC0FE73150F4F0E0EE0FFF1FEC5D08
:10109000FE4F80819181CF910C94302CC03F30F075
:1010A0008C2F0E944E18CF910C943919CF9108952E
:1010B000882361F19CEF980F913A20F40E94AF10C1
:1010C0000C946C1190E2980F983050F4877091E076
:1010D00001C0990F8A95EAF7892F0E940D11F0CF70
:1010E0009BE5980F933020F490E080E00C941A2C4C
:1010F00098E5980F973120F490E080E00C94302C24
:10110000803F20F00E94B6180C94391908951F935F
:10111000CF93DF93182FEB010E940A08209731F438
:10112000812FDF91CF911F910C9458088FE99FE098
:101130000197F1F700C000002197F0CF6091D7042C
:101140007091D804893321F06091D5047091D60450
:101150000C948708882321F00E9407110C946C11CD
:101160000895882321F00E940D110C946C110895AC
:10117000882321F00E941A110C946C110895882381
:1011800021F00E9420110C946C11089590E080E0F1
:101190000E941A2C90E080E00E94302C0E942711BF
:1011A0000E946C110E94601A0C9439190E94B610AA
:1011B0000C94C6080E9414110C94D60892959F7046
:1011C000963091F058F4925F9F70923058F4803FBF
:1011D00019F030F4883E30F481E008959A5FF4CF3E
:1011E000843FD1F380E00895883EB0F3813FD1F78A
:1011F000F3CFFC01808191810E94DE0C0C94DE080B
:10120000BF92CF92DF92EF92FF920F931F93CF93F3
:10121000DF936C01EB01FC011281058102950F70D7
:101220000E94FD10E82E8823B9F0E12E1123A1F0D1
:101230008D2F807F803421F080E28C0F8830D0F0B9
:1012400080918C0482FD16C082E00E94E4110E940D
:10125000FD1091E0E82EE926BD2EB2942FE0B222D7
:10126000FBE0FB1508F47CC0EB2DF0E0E05BF94CF3
:101270000C94C135E12CF0CF2D2F2F70F22E8D2F35
:10128000807F19F0F29490EFF922112399F0FF205A
:1012900059F080E28C0F883010F0C11107C08F2DFB
:1012A0000E9407110E946C118C2F52C08F2D0E943A
:1012B0001A11F8CF8C2F0E945808FF2009F450C053
:1012C00080E28C0F883010F0C11104C08F2D0E9475
:1012D0000D1103C08F2D0E9420110E946C1140C07F
:1012E0003D2F3F70F32E8D2F807F803219F0F294C6
:1012F00080EFF822CC23F1F0C13009F49BC0112318
:1013000009F4A2C0002309F477C020E0F60140816F
:1013100051816281738184810E949D05B6010E9482
:10132000BF248111C1CFF601858180FFBDCF8F70B1
:10133000858362C080918C0482FF41C0112359F0E3
:10134000FF2029F08F2D0E9407110E946C1180E070
:101350000E940A0805C080E00E945808F110B6CF2C
:10136000EB2DE850FF0B349720F40E94E62B0E94EF
:101370007907CE010E94DE088111A7C11092C70132
:101380001092C601EE2009F4C1C10E94DF1080FD59
:10139000BDC1F60112820E94D9100E94220CC60122
:1013A0000E94A70B0E94D910DF91CF911F910F913E
:1013B000FF90EF90DF90CF90BF900C942D0C1123F5
:1013C000E9F0011106C00E942A118F290E94AA0883
:1013D000C7CF013031F40E942A118F290E94461193
:1013E000BFCF8091D304823070F38013ECCF0E9482
:1013F0005E118F2D0E9430118F2DE8CF011106C094
:101400000E945E118F2D0E94B108AACF8091D30453
:10141000013059F4823008F4A3CF0E9404118F21C7
:1014200009F49ECF0E943911EBCF823048F30813A4
:10143000E7CF96CF112321F0063008F091CFDCCF13
:10144000053008F08DCFDECF0023E1F28091D70484
:101450009091D804C93321F08091D5049091D6049D
:101460000E9493078C2F0E9458087ACF8D2F869563
:101470008695837061F0813009F072CFCE01937050
:10148000111102C090E080E00E94302C69CFCE01A3
:101490009370111102C090E080E00E941A2C60CF7E
:1014A0008C2F112329F00E944E180E94391958CF11
:1014B0000E94B618FACF8D2F837081F5111150CF8D
:1014C0004C2F429546954770440F440F8C2F8F70D8
:1014D000042E01C0880F0A94EAF72C2F2071C4FF54
:1014E00007C02FE030E001C0220F4A95EAF72095AF
:1014F0009D2F969596959370822B923049F058F4D3
:10150000913019F00E94030C2BCF0E94FE0B28CFC4
:101510000E94080C25CF0E94FC0B22CF8695112338
:1015200011F08D2F8170882309F41ACF4C2F42952A
:1015300046954770440F440F8C2F8F70042E01C0C6
:10154000880F0A94EAF72C2F2071C4FF07C02FE000
:1015500030E001C0220F4A95EAF720959D2F96951D
:1015600096959370822B923049F058F4913019F08F
:101570000E94490CF5CE0E94440CF2CE0E944E0C03
:10158000EFCE0E94110CECCEFD2FFF70FF2E112329
:1015900029F08F2F0E94220C8C2F18CF8C2F0E94A5
:1015A000B1088F2D0E942D0CDBCEC23F41F160F4BB
:1015B000C03FB9F0C13F81F0112309F481C001118E
:1015C00073CE8D2F8F711FC0C33F01F1C43FA1F7B0
:1015D00080918C0482FF24C08D2F8F71112311F311
:1015E00012C0112341F0053008F0BACE8D2F8F7153
:1015F0000E94390CB5CE063008F0B2CEF7CF8D2F51
:101600008F711111CFCF0E94220CAACE112329F085
:101610008D2F8F710E941A0CA3CE0E94170CA0CEA2
:101620008091D3048230A8F11123F9F00E94BC10FC
:101630000E940D110E94DF10843041F40E94DB11E2
:101640008D2F8F710E942D0CE12C8ACE8091D304B6
:101650000817D0F72D2F2F71F22E822F0E94220C07
:1016600063E08F2D0E94BF11EFCF0E94BC100E943B
:1016700007118091D304081740F00E94DB110E94EB
:10168000391164E08D2F8F71EDCF81E00E94E4115C
:10169000DBCF112359F03D2F3F71F32E832F0E9492
:1016A000220C63E08F2D0E94BF115ACE81E00E9470
:1016B000E411023008F454CE82E00E94E41150CECE
:1016C0000111C4CE8D2F8F716DCF112319F001112F
:1016D00055CE58CE011152CE20E0F6014081518105
:1016E0006281738184810E949D05B6010E94CA2493
:1016F000882309F443CE8091C6019091C7010297D7
:1017000009F03CCE8C2F0E949E0838CEDF91CF91FD
:101710001F910F91FF90EF90DF90CF90BF900895B1
:101720000F931F93CF93DF93EC01688179818A81B6
:101730000E94E80C8C010E94530C0E94FB0BB80124
:10174000CE01DF91CF911F910F910C940009CF939F
:10175000DF93EC018B819C81892B29F08881998111
:1017600089238F3F59F4DF91CF910895CE010E94D4
:10177000900BCE01DF91CF910C94DB05CE010E943E
:101780008D068111F3CF0E94FD10882361F38A81B9
:10179000882349F380918C0482FDE5CF82E0DF91BC
:1017A000CF910C94E411CF93DF9300D000D00F922F
:1017B000CDB7DEB70F900F900F900F900F90DF9185
:1017C000CF910895CF93DF9300D000D000D0CDB754
:1017D000DEB726960FB6F894DEBF0FBECDBFDF9101
:1017E000CF91089508950C94F20B0E94F30B80930F
:1017F000F6010C94C60808950C94F50B9091F6012F
:10180000892B0C94F50B9091F60189230C94F50B20
:101810009091F60189270C94F50B0C94F20B0C9423
:101820000D0C0E940F0C8093F5010C94C60880E00B
:101830000C94110C91E001C0990F8A95EAF7892F59
:101840000C94110C21E030E001C0220F8A95EAF7D8
:101850008091F501822B0C94110C21E030E001C045
:10186000220F8A95EAF720958091F50182230C9446
:10187000110C21E030E001C0220F8A95EAF7809137
:10188000F50182270C94110C9091F501892B0C9491
:10189000110C9091F50189230C94110C9091F50194
:1018A00089270C94110C08959E3F69F1E82F28E1D7
:1018B000929FE00D11248E2F877041E001C0440FEC
:1018C0008A95EAF7E695E695E69583E0E89FF001CC
:1018D0001124E853FE4F30E020E070E05191DF0129
:1018E0001197CB01022E02C0969587950A94E2F7D4
:1018F000817081958527842385278C932F5F3F4FA7
:101900002330310559F708959E3F49F1E82F28E12A
:10191000929FE00D11249E2F9770E695E695E6952F
:1019200083E0E89FF0011124E853FE4F50E040E0CF
:1019300080E0219130E0092E02C0369527950A9467
:10194000E2F721703327042E01C0220F0A94EAF730
:10195000822B4F5F5F4F4330510559F7089580E068
:101960000895CF92DF92FF920F931F93CF93DF934F
:101970006C010091F5018091F601082BC7E0D0E0E1
:1019800010E0FC2EC8010C2E02C0959587950A9494
:10199000E2F780FD0CC02197A0F7F12C8F2DDF918D
:1019A000CF911F910F91FF90DF90CF900895B601D6
:1019B0008C2F0E94F714019771F3F0CFCF93DF9330
:1019C000EC010E94B10CBE01DF91CF910C94F71491
:1019D0001F93CF93DF93EB019091C501992331F0D1
:1019E000CB01DF91CF911F910C94DE0C882379F00D
:1019F000CB010E94B10C182F682FCE010E94540C0D
:101A0000BE01812FDF91CF911F910C94F714CB0170
:101A10000E94840C182FF4CF1F93CF93DF93C091B3
:101A2000F70116E08091F8018C1304C0DF91CF918B
:101A30001F910895D0E01C9FF0011D9FF00D11240F
:101A4000E750FE4F4081518162817381848195818D
:101A50000E94E20B2196C770E5CF40912902509178
:101A60002A0260912B0270912C0280912D0290919C
:101A70002E020C94E20B2091F7019091F80156E0B0
:101A8000291302C080E0089530E0529FF001539F77
:101A9000F00D1124E750FE4F7181761306C070815E
:101AA000781303C07281741304C02F5F3F4F2770F7
:101AB000E7CF81E00895DF92EF92FF920F931F939B
:101AC000CF93DF9380912E02807F61F480912B026F
:101AD000882341F0C091F70186E0D82E8091F8016B
:101AE0008C1308C0DF91CF911F910F91FF90EF9061
:101AF000DF90089520912C0230912D02D0E0211525
:101B0000310541F08091290290912A02482F492302
:101B10004F3F19F42196C770E1CFDC9E8001DD9E16
:101B2000100D1124F801E750FE4F41814913F2CF07
:101B300090819813EFCF82818111ECCFE380F48004
:101B4000E21AF30A60E089E292E00E94D00569E2BD
:101B500072E00E94B624E816F906E0F680912E02A3
:101B60008F70806180932E02F801E250FE4F8081D9
:101B70008F708061808389E292E00E94A70BDF91E1
:101B8000CF911F910F91FF90EF90DF900C940C0D6F
:101B90004F925F926F927F928F929F92AF92BF927D
:101BA000CF92DF92EF92FF920F931F93CF93DF9329
:101BB000CDB7DEB761970FB6F894DEBF0FBECDBFCD
:101BC0008C0185E0F801DE011D9601900D928A9549
:101BD000E1F7D8014C9011965C90119712967C9089
:101BE00012971396ED90FC9060E089E292E00E94DB
:101BF000D0056C0189E2882E82E0982E20912C027B
:101C000030912D022115310541F0809129029091EA
:101C10002A0289238F3F09F0ADC1711001C1C801AB
:101C20000E94A70B79C069E272E0C6010E94BB2442
:101C30008111D3C1EF2829F0852D84218F3F09F030
:101C400005C180E0B82FB170EB2E80FF29C0472D71
:101C5000652D842D0E943B0DF82E811121C04D86EB
:101C60005E868D859E850E94DE0C292F22952F7021
:101C7000223050F0243078F49F7051F0F8019581B3
:101C8000907F31F46F2C04C19F7011F08823D1F341
:101C9000805E8830B8F3C8010E94A70BFE2CF2CFFB
:101CA000772009F4F5C080912E02816080932E0286
:101CB000612CEEC0892B49F08091290290912A0273
:101CC000282F29232F3F09F0FBC0C8010E94F908E3
:101CD000882309F4A4CF772009F4A1CF80912E02A4
:101CE000803270F02091290230912A0238872F83A8
:101CF0001986FB86EA868C87CE0107960E94A70B81
:101D000086E0F801A9E2B2E001900D928A95E1F730
:101D10000E945B0D0E942D0D66246394B9C02111B1
:101D200012C07E2DF98AE88AA201672D89890E9456
:101D3000D30B89E292E00E94A70B86E0F401119296
:101D40008A95E9F768C180912C0290912D02892B28
:101D500049F08091290290912A02282F29232F3FB0
:101D600009F0CAC0C8010E94F908882309F457CFB6
:101D7000772009F454CF80912E02803208F220910E
:101D8000290230912A023A8329831B82FD82EC8248
:101D90008E83CE010196B2CF60E089E292E00E948C
:101DA000D00569E272E00E94B624A816B90650F583
:101DB000672C772009F433CF80912C0290912D026B
:101DC000892B49F08091290290912A02282F2923FA
:101DD0002F3F09F0ABC0C8010E94F908811190CFD4
:101DE00080912E02816080932E02C8010E94A70B71
:101DF0004FC086E0F801A9E2B2E001900D928A9509
:101E0000E1F746C07E2DF98AE88AA201672D89890B
:101E10000E94D30B86E0F40111928A95E9F769C01C
:101E2000C8010E94F908682E882309F4F8CE86E0DC
:101E3000F801A9E2B2E001900D928A95E1F789E2FA
:101E400092E00E9405080E945B0D53C081E0872547
:101E5000F9CE81E08725CAC0D80111962C912913AB
:101E6000B3C0F80190819813AFC07110ADC08091DC
:101E70002E028F70806180932E020E942D0D89E2C8
:101E800092E00E94A70B80912E02D80115968C93A8
:101E9000862D61960FB6F894DEBF0FBECDBFDF91E1
:101EA000CF911F910F91FF90EF90DF90CF90BF9057
:101EB000AF909F908F907F906F905F904F9008951C
:101EC000F8012181291301CFD8019C919813FDCEEF
:101ED00080912E027110F9CE15968C93C8010E9444
:101EE000A70B86E0F801A9E2B2E001900D928A9575
:101EF000E1F70E942D0DCCCFD80111962C9129131A
:101F000031CFD8019C9198132DCF71102BCF809198
:101F10002E0215968C93C8010E94A70BE9E2F2E00D
:101F200086E0DF011D928A95E9F7B2CFF8012181A1
:101F3000291351CFF801908198134DCF69E272E0D7
:101F4000C6010E94C424811154CF80912E0280FDCD
:101F500050CF982F907F09F44CCFD80115968C93D1
:101F60001597903F09F4BACF982F907F905F8F70AC
:101F7000892BB2CF60902B025701A21AB30A6620B8
:101F800009F40ACF60E089E292E00E94D00569E29C
:101F900072E00E94B62420912E02207FA816B90676
:101FA00008F0BDCE80912C0290912D02211182CE9D
:101FB000672C892B49F08091290290912A02282FC1
:101FC00029232F3F09F048CF69E272E0C6010E9441
:101FD000B624843F914008F426CEE114F10429F0A0
:101FE000852D84218F3F09F034CF80E080FF22CE01
:101FF000472D652D842D0E943B0D882309F41ACEB0
:1020000089E292E00E94A70B86E0E9E2F2E0DF01BC
:102010001D928A95E9F70E942D0D4ACE1F93CF930A
:10202000DF93CDB7DEB72C970FB6F894DEBF0FBEA7
:10203000CDBF4F83588769877A878B879C87CE016E
:1020400007960E94C80D882369F08A859B85892B95
:1020500039F04F815885842F85238F3F09F071C057
:1020600016E05FC086E0FE013796DE011196019012
:102070000D928A95E1F78A859B85892B89F38F815B
:10208000988589238F3F61F32091F80130E0C901E1
:102090000196877099274091F7014817190671F446
:1020A0000E94DA081092F8011092F70186E0E9E246
:1020B000F2E0DF011D928A95E9F7D2CF96E0929F78
:1020C000D001939FB00D1124A750BE4FFE01319651
:1020D00001900D929A95E1F78093F8010E940C0D02
:1020E000BFCF819FC001112487509E4F0E94C80D11
:1020F0008823E9F0E091F7011E9FF0011124E750D9
:10210000FE4F4081518162817381848195810E945B
:10211000E20B8091F70190E00196877099278093F8
:10212000F7018091F7019091F8018913DACF2C968D
:102130000FB6F894DEBF0FBECDBFDF91CF911F91D8
:10214000089569857A858B859C850E94E20B88CFEE
:10215000682F80910001909101010C94DA2C682F76
:1021600080910001909101010C94E52C8091000177
:10217000909101010C94F02C80915402089580916B
:10218000B9049091BA04892B89F00E949B2D20916B
:10219000520230915302AC01421B530B81E020915B
:1021A000B9043091BA044217530708F480E08170F3
:1021B0000895809151028595859585950895809122
:1021C0005102877008950E949B2D20914F023091FB
:1021D0005002821B930B2091B9043091BA048217EC
:1021E000930748F08091510282FB882780F991E0A3
:1021F00089278170089580E0FCCF909151029770FB
:1022000081E009F480E0089580917702089590912B
:102210007702892B809377020895809590917702B9
:1022200098239093770208951092770208958091F1
:102230007602089590917602892B80937602089514
:10224000809590917602982390937602089510924B
:102250007602089580915502089508950C942D11E9
:1022600090915402981721F0809354020C942E11EF
:10227000089580915402882329F01092540280E03E
:102280000C942E11089508950C944311CF93C82FE8
:1022900080918C0482FD10C0809155028C1761F0F2
:1022A0000E949B2D9093530280935202C09355023B
:1022B0008C2FCF910C944411CF91089580915502A9
:1022C000882349F010925502109253021092520244
:1022D00080E00C9444110895CF93DF93E0910001C6
:1022E000F0910101809177028083E0910001F091EB
:1022F0000101808190917602892B80838091550223
:102300008823E9F08091B9049091BA04892B29F0CF
:102310000E94BF1081110E945E11E0910001F091B6
:102320000101808190915502892B80838091000169
:10233000909101010E94462C81110E945E11C09172
:102340000001D091010140E250E06FE272E0CE0165
:102350000E94D735892B69F080E2FE01AFE2B2E03E
:1023600001900D928A95E1F7CE01DF91CF910C9407
:10237000F22BDF91CF91089508950C94BC119091A8
:102380008C0492FD16C098E0899F90011124622B65
:10239000609351020E94220C0E949B2D9093500248
:1023A00080934F02809151028595859585950C9477
:1023B000BD110C94220C10925102109250021092F6
:1023C0004F0280E00C94BD119091510280958923B9
:1023D00080935102282F277091F4282F082E000C8B
:1023E000330B9217130659F090918C0492FD07C09D
:1023F0008595859585950E942D0C0C94DB1108958B
:1024000090918C0492FB222720F9281769F080FB19
:1024100092F990938C0480918B0490918C040E948B
:102420004B1282E00C94E411089580918C0482FB9D
:10243000882780F991E089270C94001281E00C94A0
:10244000001280E00C9400126FEF7FEF90E080E0CC
:102450000C94303690E080E00E940C36893E9E4F0E
:1024600011F40C946E1A80E0089582E090E00C94D0
:10247000043683E090E00C940436CF9384E090E03F
:102480000E940436C82F82E290E00E940436982F02
:102490008C2FCF910895CF93C92F682F84E090E0BF
:1024A0000E9412366C2F82E290E0CF910C9412368B
:1024B000AB01BC018FE090E00C942436AB01BC0171
:1024C00083E190E00C94243660E070E0CB010C9442
:1024D0005E1260E070E0CB010E9458120C9464120E
:1024E00069EE7EEF90E080E00E94303660E082E0AE
:1024F00090E00E94123660E083E090E00E94123685
:102500001092F60160E084E090E00E94123660E0F4
:1025100082E290E00E94123660E085E090E00E9446
:10252000123660E086E090E00E9412366FEF87E09E
:1025300090E00E94123640E050E0BA0188E090E05E
:102540000E94243660E08DE090E00E94123640E068
:1025500050E0BA0188E190E00E94243660E087E113
:1025600090E00E94123640E050E0BA018CE190E029
:102570000E94243670E060E080E290E00E943036F5
:1025800040E050E0BA0188E190E00E94243680E00B
:102590000E94871A0E94B41A0C9469120C9470124B
:1025A000682F8EE090E00C9412360E94A72D609365
:1025B0009402709395028093960290939702609391
:1025C00090027093910280939202909393020895E7
:1025D0000E94A72D609394027093950280939602B7
:1025E0009093970260938C0270938D0280938E0279
:1025F00090938F02089585B7806885BF85B78068FE
:1026000085BF0895089508950C94031308950C94BC
:1026100006130E94FB1285ED95E10E94DC2B0E94BF
:10262000FF1D0E94C8230E9402130C94041381E032
:1026300008950C941713089508950E941B130C9489
:102640001C130E94EF150C9478070E94922D0E9493
:10265000C31A0E9401170E9421130E94E4280C94BF
:1026600007133F924F925F926F927F928F929F9249
:10267000AF92BF92CF92DF92EF92FF920F931F9390
:10268000CF93DF93CDB7DEB72A970FB6F894DEBFAE
:102690000FBECDBF0E941617882E81110E94D51241
:1026A00058E7A52E52E0B52E10E000E0302E802F26
:1026B0000E9431162B013C01F501C190D190E190AF
:1026C000F1905F01C414D504E604F70409F46FC067
:1026D0008091980281FD0E943C16D701C601842595
:1026E0009525A625B725912CC12CD12C7601C39414
:1026F000AC01BD014C215D216E217F21452B462B74
:10270000472B09F44CC00E9419138823C9F09E82FC
:102710003F824C205D206E207F2081E045284628A6
:10272000472809F480E088870E949B2D8160782FDC
:102730009A8789874E815F8168858A850E949D0777
:10274000000F111F000F111FF801E858FD4F808185
:102750009181A281B3818C259D25AE25BF258083E3
:102760009183A283B38381E0811001C080E02A9627
:102770000FB6F894DEBF0FBECDBFDF91CF911F9192
:102780000F91FF90EF90DF90CF90BF90AF909F9010
:102790008F907F906F905F904F903F9008959394AB
:1027A000CC0CDD1CEE1CFF1CF8E19F12A1CF0F5FCB
:1027B0001F4F0530110509F079CF8FEF89838A8388
:1027C0001B820E949B2D8160782F9D838C83498181
:1027D0005A816B818D810E949D07C5CF0E946B2B12
:1027E0000C946C270E9431130E94EE130E94FC2867
:1027F00081110E94E8120E9454190C948807CF930B
:10280000DF930E94FB14EC01811521E5920708F08B
:1028100042C0811530E5930708F09DC0883E9105C0
:1028200030F5803E910508F092C0883A910588F411
:10283000853A910508F084C08130910509F487C07C
:10284000009709F484C0049708F081C0D0E0C0E08C
:102850007EC08F3B9105D0F7C85AD0E0CC0FDD1F6A
:10286000CB5ADE4F0990D881C02DD46470C0811539
:10287000904250F4C11581E0D80708F068C0C03F0D
:10288000D10520F3D06563C0C11590E4D907F0F2FB
:10289000DF70D06A5CC0811525E5920700F58115CF
:1028A00034E5930708F08BC0811543E5940708F0E1
:1028B00073C0C11582E5D80708F469C0CE018370E2
:1028C000992721E030E002C0220F331F8A95E2F7FA
:1028D000C695C69580E2C89FE001112454C0C11579
:1028E00099E5D907A8F4C11528E5D20708F06CC00E
:1028F000C11536E5D30708F0A9CF8C2F0E94921599
:10290000C82FD0E0DC2FCC27CC27DF71D0621FC0CE
:10291000C1154AE5D40708F45CC0CE019056811574
:10292000904208F093CF8D2F8F710E94921590E006
:10293000982F882788279F719C012C2BE901E6CFCF
:10294000C55AD0E0CD57DE4FC881D0E0D064CE016B
:10295000DF91CF910895E4E096958795EA95E1F7A8
:1029600083702C2F26952695237040E2249F90019A
:102970001124382B8C2F8370C1E0D0E002C0CC0F23
:10298000DD1F8A95E2F7C22BD32BDC68E0CFDC2F6A
:10299000CC27C16FD06ADBCF8370992721E030E06C
:1029A00002C0220F331F8A95E2F7C695C69590E2C2
:1029B000C99FE0011124C22BD32BDA68C8CFD82FCE
:1029C000CC27C46FD06AC3CFDC2FCC27C06FD06AAE
:1029D000BECF8C2F8F700E94921534E0D695C7958C
:1029E0003A95E1F7CF709C2FEC01D069B0CF0E94EF
:1029F00068220C94FF1382389105B1F1B0F4813351
:102A0000910509F475C048F48932910509F469C04B
:102A10008A32910509F473C008958533910509F44C
:102A200059C08933910501F10895833E9105A9F1BB
:102A300038F4803E9105F9F0823E910549F1089500
:102A4000863E9105A9F1873E9105C9F1843E910525
:102A500019F520918C0421FF1FC080918B0484FD07
:102A600014C087EE90E0089520918B042370A1F0AC
:102A700080EE90E0089520918B0420FD47C03091B6
:102A80008C0430FF09C024FF44C090E080E004C003
:102A900020918B0422FDF7CF089520918B0422FD15
:102AA0003BC030918C0430FDE3CF24FFF5CFEDCF58
:102AB00020918B0423FFF0CF24FDE7CFD2CF2091CC
:102AC0008B0423FD2CC030918C0431FFEECF84EEBB
:102AD00090E0089520918B0425FFDECF89E290E0FD
:102AE000089520918B0425FFD7CF85E390E00895CA
:102AF00020918B0426FFD0CF8AE290E008952091A8
:102B00008B0426FFC9CF81E390E0089589E390E02C
:102B1000089583EE90E0089582EE90E0089586EEA9
:102B200090E0089590918B0492FF06C0282F2871A1
:102B30002830F9F4877F846093FF06C0282F28711E
:102B40002831F1F4877E846120918C0420FF06C037
:102B5000382F38713830D9F4877F816021FF06C063
:102B6000282F28712831D1F4877E816194FD877EDA
:102B70000895282F24712430F9F68B7F8860DCCFEC
:102B8000282F2471243101F78B7E8861DDCF382F07
:102B90003171313019F78E7F8860E0CF282F217195
:102BA000213121F78E7E8861E1CF80E008950C9479
:102BB00024120E9416178FE39CE90197F1F700C0D9
:102BC00000000E94161780E00E94311660FF04C0CA
:102BD0000E94D7150C94E62D08950C94D9150E94E7
:102BE0002A12811102C00E94CE120E9435128093D7
:102BF00098020E943D1290938C0480938B040E9453
:102C0000ED150E9439120E94FC0B8091F5010C9485
:102C10000F0C08950C94091608950C940C16962F19
:102C200024E0829FF0011124EF55FB4F41E050E07A
:102C300060E070E004C0440F551F661F771F9A952F
:102C4000D2F780819181A281B38184239523A62329
:102C5000B72321E0892B8A2B8B2B09F420E0822FCC
:102C6000089594E0899FF0011124EF55FB4F608196
:102C70007181828193810895089580EA8A95F1F7A0
:102C8000089500C008950C943D16F894E82FE2953D
:102C9000EF70F0E031A1282F2F7081E090E001C0AB
:102CA000880F2A95EAF7982F9095932391A392A1E4
:102CB000892B82A378940895CF93DF93CEE9D1E056
:102CC00089918F3F11F00E94451681E0C33AD807E1
:102CD000B9F7C6E8D1E089918F3F11F00E944516FF
:102CE00081E0CE39D807B9F7DF91CF9108954F929F
:102CF0005F926F927F928F929F92AF92BF92DF927C
:102D0000EF92FF920F931F93CF93DF938C01D62EF8
:102D1000C62FD0E0CE0182569E4F7C01FC0120815F
:102D20002F3F09F45EC0F894E22FE295EF70F0E0D7
:102D300031A12F7081E090E001C0880F2A95EAF759
:102D4000932F982B91A392A18095892382A37894A5
:102D50000E944116E6E8F1E02EE931E0412C512CC9
:102D600032014394812C912C540181918F3F89F041
:102D7000A82FA295AF70B0E090964C9150E08F7064
:102D800002C0559547958A95E2F7D301C20140FFED
:102D900003C080E090E0DC01882A992AAA2ABB2A95
:102DA000440C551C661C771C2E173F07F1F6F701E3
:102DB00080818F3F11F00E94451661E081149104DB
:102DC000A104B10409F460E08D2D0E944316CC0FDC
:102DD000DD1FCC0FDD1FC00FD11F88829982AA8210
:102DE000BB82DF91CF911F910F91FF90EF90DF9009
:102DF000BF90AF909F908F907F906F905F904F901B
:102E000008950E945C1684E1E1EAF4E0DF01982F66
:102E10001D929A95E9F7EDE8F4E0DF011D928A959D
:102E2000E9F785E00E9461170C940C06FF920F935E
:102E30001F93CF93DF93CDB7DEB764970FB6F894A7
:102E4000DEBF0FBECDBF8E010F5F1F4F84E1F801C3
:102E500011928A95E9F7F12C6F2DC8010E9477161F
:102E6000F394F5E0FF12F8CF44E150E0B8018DE8AB
:102E700094E00E94D735FF24F394009709F4F12CD5
:102E8000892B41F084E1F801ADE8B4E001900D92A6
:102E90008A95E1F72F2D45E061EA74E08DE894E032
:102EA0000E9462170E940E068F2D64960FB6F8944A
:102EB000DEBF0FBECDBFDF91CF911F910F91FF906D
:102EC00008950895FF920F931F93CF93DF93F82EE9
:102ED000D92F8B01C42F222349F081E080939B02DC
:102EE0000E949B2D90939A028093990280919B025D
:102EF000882399F08091990290919A020E94B32DB3
:102F0000059758F0EF2DFD2FD80190E080E0D0E03C
:102F10008C179D0744F010929B02DF91CF911F9177
:102F20000F91FF90089501911191219131910D938D
:102F30001D932D933D930196EBCF0E94E12F0E94AC
:102F400025130C94ED2F0E94F12F0E94F2130C9484
:102F50000B300E943B2D0E94C82F0E9409130E9433
:102F60009D170E94A3170E941D13FBCF8091A20200
:102F70006091BF047091C00480FF16C020910701CA
:102F8000269FC001279F900D1124BC01769567955F
:102F9000769567956038710508F043C06115710535
:102FA00009F441C0862F089581FF0BC020910701CD
:102FB000269FC001279F900D1124BC01769567952F
:102FC000E9CF82FF09C0809107019B01829FB00178
:102FD000839F700D1124DECF2091A1022223D1F214
:102FE0009091060180910701482F50E0291748F081
:102FF000CB01849FB001859F700D949F700D1124AB
:10300000C9CF289F90011124269FA001279F500D12
:10301000369F500D1124692F70E0CA010E94993526
:10302000B9CF8FE7089581E008958091A20280FFD3
:103030000CC06091030170E0759567957595679573
:103040006115710549F1862F089581FF06C06091D1
:10305000030170E075956795F3CF6091030182FDE0
:103060000BC09091A0029923A1F060910201809180
:103070000301961738F0682F70E06038710500F38F
:103080008FE70895899FC001112470E00E94AD353B
:10309000F4CF61E070E0D7CF81E00895803F31F454
:1030A0000E94B61781958093A6020895813F19F476
:1030B0000E94B617F8CF823F31F40E94B61781956F
:1030C0008093A5020895833F19F40E94B617F8CFA4
:1030D000893F29F40E9415188093A70208958A3F1A
:1030E00021F40E9415188195F7CF8B3F31F40E948F
:1030F000151881958093A80208958C3F19F40E94B9
:103100001518F8CF843F31F48091A4028160809338
:10311000A4020895853F21F48091A4028260F7CF34
:10312000863F21F48091A4028460F1CF873F21F48F
:103130008091A4028860EBCF883F21F48091A402A3
:103140008061E5CF8D3F31F48091A2028160809350
:10315000A20208958E3F21F48091A2028260F7CFEF
:103160008F3FB9F78091A2028460F1CF9091A502C0
:10317000803F59F48091A60287FF0DC01092A602ED
:1031800091110BC01092A10208C0813F81F480917F
:10319000A60218169CF3992381F08091A7029091C2
:1031A000A802892B09F064C01092A0020895823F02
:1031B00049F497FFF0CF1092A5028091A6028111E9
:1031C000ECCFE0CF833F19F41916ACF3E4CF209194
:1031D000A702893F29F41216F4F61092A702DBCF5A
:1031E0008A3F19F427FFD7CFF8CF2091A8028B3F51
:1031F00029F427FFD0CF1092A802CDCF8C3F19F42D
:103200001216CCF3C8CF843F31F48091A4028E7F94
:103210008093A402C0CF853F21F48091A4028D7FCA
:10322000F7CF863F21F48091A4028B7FF1CF873FB7
:1032300021F48091A402877FEBCF883F21F4809115
:10324000A4028F7EE5CF8D3F31F48091A2028E7F64
:103250008093A202A0CF8E3F21F48091A2028D7FA5
:10326000F7CF8F3F09F097CF8091A2028B7FF0CFED
:1032700008950E949B2D9C019091A5028091A60229
:10328000982B21F030939F0220939E029091A702E9
:103290008091A802982B21F030939D0220939C02EC
:1032A00083EA92E00C940C2CEF92FF920F931F9301
:1032B000CF93DF9300D000D000D0CDB7DEB786E04B
:1032C000E3EAF2E0DE01119601900D928A95E1F7B2
:1032D000E090A502F090A6020091A7021091A8022A
:1032E0001092A5021092A6021092A7021092A802B4
:1032F0008E2D8F2991F080919E0290919F020E94C5
:10330000B32DAC019091A102992309F43FC08091A3
:1033100008018417150608F447C0802F812B91F00F
:1033200080919C0290919D020E94B32DAC019091DE
:10333000A002992309F477C080910401841715062F
:1033400008F47FC08091A5029091A602892B9091EC
:10335000A702892B9091A802892B11F00E9439199C
:1033600086E0FE013196A3EAB2E001900D928A95C3
:10337000E1F726960FB6F894DEBF0FBECDBFDF9102
:10338000CF911F910F91FF90EF9008952091090127
:103390008AE0289F900111242417350708F0BDCF3B
:1033A0009F5F9093A10202C09F3FD1F7EE2059F09A
:1033B0000E94B6179FEF1E140CF491E0899F802D98
:1033C00011248093A502FF2059F00E94B6179FEFA9
:1033D0001F140CF491E0899F802D11248093A60284
:1033E0003091A502332309F498CF2091A60222231D
:1033F00009F493CF45EB3403C0011124992359F00C
:103400009093A50245EB240390011124332339F056
:103410003093A60282CF81E08093A502F3CF81E0B2
:103420008093A6027ACF209105018AE0289F90011F
:1034300011242417350708F085CF9F5F9093A002D1
:1034400002C09F3FD1F7002359F00E9415189FEF4B
:1034500010160CF491E0899F802D11248093A7020F
:10346000112359F00E9415189FEF11160CF491E0EA
:10347000899F802D11248093A8023091A7023323C5
:1034800009F460CF2091A802222309F45BCF45EB19
:103490003403C0011124992359F09093A70245EBFE
:1034A000240390011124332339F03093A8024ACF2A
:1034B00081E08093A702F3CF81E08093A80242CFFE
:1034C00086E0E3EAF2E0DF011D928A95E9F71092C7
:1034D000A1021092A0021092A202089583E290E04D
:1034E0000E940436893389F484E290E00E94043615
:1034F000843B59F485E290E00E94043691E08E3ED0
:1035000009F090E0892F8170089580E0FCCFCF937F
:10351000C82F6FEF811169E383E290E00E941236B9
:103520006FEFC11164EB84E290E00E9412366FEFFE
:10353000C1116EEE85E290E0CF910C9412360895A1
:1035400086E290E00E940436682F70E090E080E010
:1035500008950895CF93C62F0E94A91A6C2F86E272
:1035600090E0CF910C94123680E00E94871A60E0C0
:1035700070E0CB010E94AA1A0E942D210E94DB223A
:1035800081E00C94871A0E949F1A0E94A01A0E9440
:10359000A91A0E946E1A811102C00C94B41A0895DF
:1035A000CF93FB01C281CC2309F19C0122513F45FD
:1035B0002031310520F582510E94EB22C0E08C2F92
:1035C000CF91089581E00E94220C43E062E081E007
:1035D0000E940306F3CF81E00E942D0C43E062E0DD
:1035E00081E00E940306EBCF82E0F6CF8031FFE559
:1035F0009F0789F381319F45B9F3C1E0E0CF803166
:10360000EFE59E07F9F281319F45C9F682E0DBCFF5
:103610002FEFFC0120830895EF92FF920F931F93E9
:10362000CF93DF93EC01F62E88812091270430910F
:103630002804232B79F08E3F09F05CC08981833008
:1036400020F08550833008F055C06F2DCE010E94C8
:10365000011E50C08B3009F4ECC0D0F4843009F462
:103660008AC060F4823009F44FC008F077C081301E
:10367000F1F16F2DCE010E94081B3CC0863009F489
:1036800090C008F483C08A30A0F78FEF888332C0DF
:10369000803109F4A6C000F58D3009F489C008F422
:1036A00083C08E3009F48CC08F3019F780912904C3
:1036B00090912A04892BF1F06B8170E06D317105D6
:1036C000C8F489819A81AE014C5F5F4F98278927A2
:1036D00098270E94B0220EC0823109F488C008F4F5
:1036E00083C0833109F494C08E3F19F6AECF19829E
:1036F00089E08A836F2DCE01DF91CF911F910F91C9
:10370000FF90EF900C94A12E8981823071F083306C
:1037100079F0813009F0ADCF0E94A72D0E94C73506
:103720006A837B838C839D83E5CF0E94A01AF6CFAA
:103730008091290490912A04892BE1F28E01E12CD9
:103740008E2D0E943116F801828373836483E39483
:103750000D5F1F4FF5E0EF12F3CFCCCF89818230A0
:1037600009F087CF6A817B818C819D810E94C7355A
:103770000E94AA1ABFCF4B816A8189810E944E2084
:103780009827892798279D838C83B4CF2C813D81EE
:103790003227232732274B816A8189810E9470203A
:1037A000A9CF0E942D21A6CF0E9484228983A2CF77
:1037B0000E9486229827892798279A8389839ACFFF
:1037C0006B8170E06D31710508F094CF89819A8129
:1037D000AE014C5F5F4F9827892798270E94892266
:1037E00089CF0E94DB2286CF0E943C20DFCF6B81F5
:1037F00070E06D31710508F07DCF89819A81AE014D
:103800004C5F5F4F9827892798270E94B02172CF7D
:103810006B8170E06D31710508F06CCF89819A8100
:10382000AE014C5F5F4F9827892798270E94D621C9
:1038300061CF8091290490912A04892B09F45ACFF1
:10384000CE010E94A12E2FEF81EE94E02150804006
:103850009040E1F700C000000E94E62D4BCF8F9210
:103860009F92AF92BF92CF92DF92EF92FF920F930F
:103870001F93CF93DF93CDB7DEB72A970FB6F89497
:10388000DEBF0FBECDBF09EA12E0F12CE12C89E5C5
:10389000C82E8DE1D82E93E8A92E9DE1B92E24EBF8
:1038A000822E2CE1922EF801D182C082B382A282B4
:1038B00095828482F58AE48ABE016F5F7F4F8E2DE8
:1038C0000E940521892B29F489859A85F801938B1B
:1038D000828BFFEFEF1AFF0A0A5E1F4F80E1E816A6
:1038E000F10409F72A960FB6F894DEBF0FBECDBFDC
:1038F000DF91CF911F910F91FF90EF90DF90CF90CC
:10390000BF90AF909F908F900895CF93DF9300D09A
:1039100000D00F92CDB7DEB79093B6048093B50474
:10392000811520E2920748F40F900F900F900F90AE
:103930000F90DF91CF910C947F058EEF89838A835E
:103940001B820E949B2D8160782F9D838C834981EF
:103950005A816B818D810F900F900F900F900F9077
:10396000DF91CF910C949D070F931F93CF93DF931B
:103970008C01EB0169E074E08C2F0E940521892BFA
:10398000A1F48091D5049091D604019798F4DD2795
:10399000CD5EDB4F8881F80110821882833041F1BF
:1039A00080F4813091F08230B9F0DF91CF911F9196
:1039B0000F910895EFE9FFE03197F1F700C00000A3
:1039C000E4CF8430D1F0853081F780910904909163
:1039D0000A04009751F306C080910B0490910C04E7
:1039E000009799F3DF91CF911F910F910C94851C53
:1039F00080910D0490910E04F3CF80910F0490916B
:103A00001004009779F72091090430910A048091FD
:103A10000B0490910C0421153105D9F2009711F790
:103A2000C901E0CFCF93DF9300D000D00F92CDB784
:103A3000DEB79093B6048093B504811520E2920717
:103A400048F40F900F900F900F900F90DF91CF914F
:103A50000C946A058EEF89838A8381E08B830E94B0
:103A60009B2D8160782F9D838C8349815A816B8146
:103A70008D810F900F900F900F900F90DF91CF914D
:103A80000C949D07CF93DF93EC010E94121D80914F
:103A9000D5049091D604019728F4CE01DF91CF91FF
:103AA0000C94851CEFE9FFE03197F1F700C00000AE
:103AB000F2CF0F931F93CF93DF938C01862F69E092
:103AC00074E00E940521892BC9F4C0910904D091AA
:103AD0000A04209799F0F8018081833069F4CE01BF
:103AE0000E94421DCE010E94421DCE01DF91CF9166
:103AF0001F910F910C94421D8430B8F7DF91CF9144
:103B00001F910F9108950F931F93CF93DF938C0113
:103B1000EB0169E074E08C2F0E940521892B09F0EC
:103B200064C0FE01FF27D8018C91ED5EFB4F813010
:103B3000D9F419969C911997992311F080830CC0A0
:103B40001A969C919923D1F382E0808380910B0493
:103B500090910C040097D9F48091090490910A0483
:103B6000009709F442C013C08230E9F519968C9190
:103B7000199781112DC01A968C9181110EC083E086
:103B8000808380910D0490910E04009719F1DF91CC
:103B9000CF911F910F910C94121D84E0808380912E
:103BA0000F0490911004009791F78091090490916F
:103BB0000A040097F9F00E94421D80910B04909135
:103BC0000C04009721F78091090490910A04DFCF3B
:103BD00085E080838091090490910A04009729F080
:103BE0000E94421DF0CF86E08083DF91CF911F912C
:103BF0000F91089580910B0490910C04B1CF0C9417
:103C00002F1CCF92DF92FF920F931F93CF93DF93DE
:103C1000CDB7DEB72A970FB6F894DEBF0FBECDBF83
:103C20008C01603269F5DC011196EC911197EE3050
:103C300038F5F0E0E45AF94C0C94C13588E0ECE139
:103C4000F1E0DE01119601900D928A95E1F780E294
:103C5000F80111928A95E9F784E0D8018C931196C6
:103C60001C92119712961C92129713961C921397FE
:103C700088E0FE013196149601900D928A95E1F745
:103C80002A960FB6F894DEBF0FBECDBFDF91CF915D
:103C90001F910F91FF90DF90CF90089588E6F80173
:103CA000808382E0818312821382EACF13968C9103
:103CB0001397682F70E0762F662712968C91860FE7
:103CC000972F911D092E000CAA0BBB0B35E0880F16
:103CD000991FAA1FBB1F3A95D1F7AC01BD01405EE9
:103CE0005F4F6F4F7F4F481759076A077B0740F2B6
:103CF0008836E2E09E07A105B10510F64936F2E0EC
:103D00005F076105710520F048E652E060E070E071
:103D1000481B590BBC01685F7A4FC8010E94CE3521
:103D2000AFCF1296FC9012971396DC9040E06D2D69
:103D30008F2D0E949820982789279827F801918332
:103D4000808341E06D2D8F2D0E9498209827892730
:103D50009827D80113969C938E93129791CFFC01CC
:103D6000258136813227232732274481638182814E
:103D70000E94C32085CF40E250E06FEF70E00E94C8
:103D8000ED3580912904D8018C93809127041196F8
:103D90008C93119712961C92129713961C9213975C
:103DA00014961C92149782E115968C9369CF81E04A
:103DB00090E0909328048093270482E390E090930E
:103DC0002604809325040E949B2D909324048093C5
:103DD000230456CF8091270490912804892B91F1D8
:103DE00060E080E00E940F16D82E62E180E00E9421
:103DF0000F16F82E80912304909124040E94B32D75
:103E00008536910550F1DD2041F1FF2031F10E940E
:103E10009B2D9093240480932304809125049091FA
:103E2000260401979093260480932504892B51F44E
:103E3000109228041092270481E090E090932A04C5
:103E40008093290480912904F801808380912704BC
:103E5000818380912504828313CF82E390E0909345
:103E6000260480932504EECF10922A041092290490
:103E700007CF40E250E0BC0112968D919C910E94C8
:103E80002A24FECEBC016F5F7F4F4FE150E0FC0162
:103E9000828193810E945C24D8018C93F1CEBC0175
:103EA0006C5F7F4F4CE150E0FC01828193810E9466
:103EB0008424F2CF0E94ED23E3CEFC018281813085
:103EC00009F18823B9F0823009F0DACE13968C918B
:103ED0009AE03496DE01119601900D929A95E1F7E1
:103EE000BE016F5F7F4F0E941921F80180830E94FD
:103EF0002F1CC6CE80E21D928A95E9F780E180836F
:103F00001182BECE13968C919AE0F92EFE01319665
:103F10006F01DF01EF2D1D92EA95E9F7B6010E94CE
:103F20000521D8018D93F60101900D92FA94E1F7E5
:103F3000A7CEAF92BF92CF92DF92EF92FF920F93F4
:103F40001F93CF93DF93B82EA62EC090F5018091DA
:103F5000F601C82AC7E0D0E0D12CF12CE12CD70122
:103F6000C6010C2E04C0B695A795979587950A941F
:103F7000D2F780FF20C04A2D6B2D8C2F0E949820F5
:103F80008C0181309105B9F00E94121D8FE39CE9EC
:103F90000197F1F700C00000C8010E94851C81E074
:103FA000DF91CF911F910F91FF90EF90DF90CF9015
:103FB000BF90AF900895219790F64A2D6B2D80E029
:103FC0000E949820EC010E94121D8FE39CE901974A
:103FD000F1F700C00000CE01E0CFCF93DF93FB01EB
:103FE0002281211130C0EC01D755CF3FD10509F016
:103FF00050F569E074E08C2F0E940521892B19F59A
:1040000086E18C9FF0018D9FF00D1124E755FD4F47
:1040100086818130E1F48091090490910A04892B12
:1040200091F080910B0490910C04892B61F08091A8
:104030000D0490910E0420910F0430911004822BF6
:10404000932B892B61F081E0DF91CF91089582302D
:10405000D1F780910D0490910E04892BA1F326E1F4
:104060002C9FC0012D9F900D112487559D4FFC0161
:10407000108A0E94672AE7CF84E0089550E0440F39
:10408000551F90E3699F400D511D112490EF899FAA
:10409000400D511D1124CA01879608950F931F9357
:1040A000CF93DF938430C8F46530B8F44831A8F476
:1040B0000E943E208C010E940436C82FD0E0DC2FE5
:1040C000CC27C80101960E9404369E01282BC90105
:1040D000DF91CF911F910F91089590E080E0F8CF8C
:1040E0000F931F93CF93DF93E9018430E0F46530A1
:1040F000D0F44831C0F421153C4531F42091290415
:1041000030912A04232B79F00E943E208C016D2FE0
:104110000E9412366C2FC8010196DF91CF911F913A
:104120000F910C941236DF91CF911F910F9108954A
:104130000F931F93CF93DF93843010F5611120C04C
:104140004230F0F424E0829F8001112450E0440FBB
:10415000551F040F151F09511C4FC8010E9404363A
:10416000C82FD0E0DC2FCC27C80101960E9404366E
:104170009E01282BC901DF91CF911F910F910895C6
:1041800090E080E0F8CF0F931F93CF93DF938901E6
:10419000843028F5611123C0423008F521153C45D3
:1041A00031F42091290430912A04232BC1F094E0AA
:1041B000899FE001112450E0440F551FC40FD51F03
:1041C000C951DC4F612FCE010E941236602FCE0103
:1041D0000196DF91CF911F910F910C941236DF91D0
:1041E000CF911F910F9108958232910520F489504B
:1041F0009C4F0C94043680E008958232910520F49F
:1042000089509C4F0C94123608959B01803170F4B4
:104210009AE0899FB0011124675E7B4F4AE050E02D
:10422000C9010E94F43590E080E008958FEF9FEF80
:1042300008959B01803170F49AE0899FB0011124A8
:10424000675E7B4F4AE050E0C9010E94363690E03D
:1042500080E008958FEF9FEF08957F928F929F9255
:10426000AF92BF92CF92DF92EF92FF920F931F9384
:10427000CF93DF93CDB7DEB72A970FB6F894DEBFA2
:104280000FBECDBFA0902904B0902A0481E090E039
:1042900090932A048093290488E9C82E80E0D82EC0
:1042A00010E0760100E015C0F40125913491472D0E
:1042B000602F812F0E94702082E0880E911C7394E1
:1042C00088E17812F1CF80E3E80EF11C0F5F053032
:1042D00019F04701712CE8CF21E030E040E060E0C8
:1042E000812F0E94C32021E030E041E060E0812F77
:1042F0000E94C3201F5F80EFC80ED11C143089F6C6
:104300000E94ED231A8219821C821B821E821D824A
:1043100018861F8288EC90E09A87898710E0BE019A
:104320006F5F7F4F812F0E9419211F5F1031B9F7F6
:10433000B0922A04A09229042A960FB6F894DEBF00
:104340000FBECDBFDF91CF911F910F91FF90EF90E6
:10435000DF90CF90BF90AF909F908F907F90089507
:10436000EF92FF920F931F93CF93DF93EC018A019B
:104370007C01E60EF71ECE018796CE15DF0539F4D7
:10438000DF91CF911F910F91FF90EF900895C03C66
:1043900023E0D20740F40E940436F80180830F5FC7
:1043A0001F4F2196E8CFF8011082F9CF4F925F920C
:1043B0006F927F928F929F92AF92BF92CF92DF9235
:1043C000EF92FF920F931F93CF93DF93EC017B014A
:1043D0008A01803C9340D8F480EC93E08C1B9D0BC9
:1043E00086179707A0F03E0137E2630E711C80919B
:1043F000290490912A042E01460E571E892BC1F0E4
:104400007E01C7018796E414F50409F050C0DF91DE
:10441000CF911F910F91FF90EF90DF90CF90BF90C1
:10442000AF909F908F907F906F905F904F90089586
:104430006E0181E0C822DD24C0FF0FC0CE01869648
:104440000E940436F80190818927982789278115D1
:104450009C4519F48FEFF8018083570140FE13C08B
:10446000F1E0AF1AB10848018A0C9B1CC3018E0D04
:104470009F1D0E940436F401908181159C4519F41A
:104480008FEFF4018083F801EC0DFD1D2FEFCA14AE
:10449000DB0408F0B5CF9081818181159C4511F432
:1044A0002083218382E0C80ED11C3296F0CFE0EC4D
:1044B000EE16E3E0FE0640F4F701EC1BFD0BE00F07
:1044C000F11F60810E941236FFEFEF1AFF0A99CFA9
:1044D000462F2091270430912804232B91F47E3F0E
:1044E00039F46E3F71F48091B5049091B60408954B
:1044F000843038F4753028F4683118F4672F0C9440
:104500004E2090E080E0089580E1089587E493E0F4
:104510000895EF92FF920F931F93CF93DF93EC01D7
:104520008A017C01E60EF71ECE0187549B4FCE1503
:10453000DF0539F4DF91CF911F910F91FF90EF903C
:104540000895C73423E0D20740F40E940436F801EE
:1045500080830F5F1F4F2196E7CFF8011082F9CFBC
:10456000CF92DF92EF92FF920F931F93CF93DF933F
:104570007C016A018C01060F171FEC01CE018754E4
:104580009B4FC017D10749F4DF91CF911F910F9135
:10459000FF90EF90DF90CF900895C73423E0D207CB
:1045A00040F4FE01EE19FF09EC0DFD1D60810E9433
:1045B00012362196E3CFCF93DF93C9EBD4E060E0CE
:1045C000CE010E9412362196C11588E0D807B9F7AE
:1045D000DF91CF910895BF92CF92DF92EF92FF9239
:1045E0000F931F93CF93DF9300D000D0CDB7DEB7EA
:1045F000F82E2FE0281740F08FEF97E00E94043646
:1046000009EB14E08823D1F00F900F900F900F90DA
:10461000DF91CF911F910F91FF90EF90DF90CF909E
:10462000BF900895011548E0140771F3C8010E9476
:104630000436811101C0FA940F5F1F4FF110F2CFC1
:1046400019821A821B821C82BB24BA9478015FEF04
:10465000E51AF50AC8010E94043689831A82882364
:1046600099F2813009F047C0680182E0C80ED11C80
:10467000C7010E940436E82E8A83882329F2C601E6
:104680000E940436F82E8FEF8E0D833068F4680197
:10469000E3E0CE0ED11CFB82FF2021F0CE0101967B
:1046A0000E946E078601D2CFF4E0EF12FBCF6801C3
:1046B00024E0C20ED11CC80103960E940436FF20DC
:1046C00009F4A2CF882309F49FCF8150990BB89E9B
:1046D0009001B99E300D11244F2D4150550BCA0148
:1046E000820F931F0197F0F2EFE9FFE03197F1F7A6
:1046F00000C00000F7CFCE0101960E946E0767014F
:10470000D1CFE7EBF4E0848195812AE030E0B90174
:104710000E94993560930901868180930801828502
:104720008093070184858093060186859785B9016A
:104730000E949935609305018089809304018289E4
:104740008093030184898093020108958091B704C6
:104750009091B8040C94A0270F931F93CF93DF93ED
:1047600007EB14E0D0E0C0E0CE010E94F420F80195
:1047700061918F01861719F0CE010E94FD202196CC
:10478000C232D10589F7DF91CF911F910F91089522
:104790000F931F93CF93DF9307EB14E0D0E0C0E0BB
:1047A000CE010E94F420F80181938F012196C2323C
:1047B000D105B1F7C6E7D7E0FE0185919491009746
:1047C00011F0FC0109952896F8E0CE30DF07A1F73B
:1047D000DF91CF911F910F910895E7EBF4E0128ED6
:1047E000138E8FEA90E09183808385E0848F88E840
:1047F00093E1938382838AE090E09583848324E12C
:1048000030E03783268348E050E051874087938724
:1048100082872EE130E0358724879787868720E5D9
:1048200030E0318B208B538B428B48E250E0558B2C
:10483000448B42E350E0578B468B48EC50E0518F5D
:10484000408F158E978F868F31A320A30E94AC23B3
:104850000C94C823EF92FF920F931F93CF93DF9393
:104860007C01EB018A016FEF70E0CE010E94ED3513
:1048700020E737E0A8E0B8E090E080E0AC014E5FD0
:104880005F4F0417150788F0F90165917491E616DA
:10489000F70630F48C0F9D1FFC0171836083CA0101
:1048A000285F3F4FA217B30749F7DF91CF911F91C0
:1048B0000F91FF90EF900895DC01CB0120E737E0E6
:1048C000F90165917491A617B70749F0285F3F4F2A
:1048D00068E028303607A1F78FEF9FEF0895B90100
:1048E0006E5F7F4FFB01A591B4914A175B07A0F360
:1048F000FB0145915491F9013496659174910E94A0
:10490000E43590E080E00895CF93DF93C0E7D7E0EF
:10491000FE01259134918217930741F0289628E0F3
:10492000C830D207A9F78FEF9FEF1DC0CE010296C6
:10493000FC012591349142175307A8F3FC014591DE
:104940005491FE013496859194910E94E4350E9421
:10495000AC23FE01369685919491009711F0FC01ED
:10496000099590E080E0DF91CF9108958091CF0488
:104970009091D00408958091D4048170089580911D
:10498000D4048695817008958091D40482FB882791
:1049900080F908958091D40483FB882780F90895D5
:1049A0008832910538F48E319105E8F40497A0F42B
:1049B00080E008958933910558F48D32910510F403
:1049C0008B97B1F78091D20482FB882780F908C0C9
:1049D00084369105B9F3ECCF8091D2048295817031
:1049E00091E0892708958091D20483FB882780F97C
:1049F000F7CF8091D20485FB882780F908958091B4
:104A0000D20486FB882780F90895CF93DF93EC01C9
:104A1000FB018281882309F433C1C330FDE5DF0740
:104A2000C0F5CA3F9CE5D90730F49E0122503C45B1
:104A300024313105B0F50E943D1290938C0480938F
:104A40008B04C1318CE5D80709F4EEC008F069C0C9
:104A5000C930ECE5DE0709F4D5C0C8F5C5308CE5F2
:104A6000D80709F4C7C000F5C330ECE5DE0709F448
:104A7000B9C008F0BBC0C230DC4509F4ADC08091BC
:104A80008B0490918C040E944B120E94DA0880E003
:104A900008C0C136EDE5DE0771F2C53AFDE5DF0776
:104AA00051F2DF91CF91089580918B048062C730DD
:104AB0009CE5D90709F493C080918B048061C830CC
:104AC000DC4508F48CC080918B04806488C08091A0
:104AD0008B048B7FCD30FCE5DF0709F480C098F4B0
:104AE00080918B048E7FCB309CE5D90709F477C089
:104AF00080918B048C60CC30DC4508F470C08091D0
:104B00008B048D7F6CC080918B048F7ECF30FCE551
:104B1000DF0709F464C008F47BC080918B048F7DAB
:104B20005EC0CD3F9CE5D90709F47AC050F5C53188
:104B3000FCE5DF0709F486C098F480918B04837F3D
:104B4000C3319CE5D90709F44AC008F471C00E943A
:104B5000DA0890918B04892F97FB87F980583FC022
:104B6000CB3FFCE5DF0709F449C008F055C0809150
:104B70008C048160CA3FDC4509F081CF80938C04AE
:104B80007ECFC130EDE5DE0709F468C0A8F4CF3F61
:104B90008CE5D80709F452C080918C048360C1155C
:104BA000DD4560F380918C04982F909591708E7FF5
:104BB000892B90FB81F9E2CFC136EDE5DE0709F4E0
:104BC00051C0C53AFDE5DF0709F453C0C230DD45E9
:104BD00009F055CF80E043C080918B0481608093C1
:104BE0008B044DCF80918B048260F9CF80918B0430
:104BF0008460F5CF80918B048860F1CF80918C0424
:104C00008260BCCF0E94DA0880918B048068E7CF75
:104C100080918B04877FE3CF80918C048E7FAECF11
:104C200080918C048D7FAACF80918B048F7BD7CF0E
:104C30000E94DA0880918B048F77D1CF80918C0409
:104C40008C7F9CCF80918B0482FB992790F921E087
:104C5000922790FB82F990FB83F9C1CF81E00E94FB
:104C6000D0120DCF90918B04892F8F7E94FF80619D
:104C7000B6CF90918B04892F8E7F90FF8160AFCF4C
:104C800081E00FCF80910A01877F80930A0182E043
:104C90000E94201180910A0184FF06C08F7E8093BC
:104CA0000A0182E00E94071180910A0185FF06C077
:104CB0008F7D80930A0180E20E9407110C946C1191
:104CC000CF93DF93EC01662319F082E00E941A1162
:104CD000CE019056811520E2920720F0905E81155A
:104CE000904108F4DD27CE01DF91CF910C946A0545
:104CF0009C013056211540E2340720F0305E21152A
:104D0000304108F499270C947F05FC0123E0F695C7
:104D1000E7952A95E1F7EE71FF27E55DFB4F2081CE
:104D20003181AC014F70552781E090E002C0880FBF
:104D3000991F4A95E2F7662329F0822B932B9183E2
:104D4000808308958095909582239323F8CFFC016A
:104D500023E0F695E7952A95E1F7EE71FF27E55DEB
:104D6000FB4F8F70992721E030E002C0220F331FE4
:104D70008A95E2F7808191812823392381E0232BD2
:104D800009F480E00895DF92EF92FF920F931F9352
:104D9000CF93DF93EC017B01D42E890180910A012E
:104DA00082FF86C020915104309152042C173D0798
:104DB00019F0209709F07CC090910A019B7F909395
:104DC0000A0161E091FD10C0809153049091540458
:104DD000A701481B590B61E080910B0190910C01D8
:104DE0004817590708F460E0617080910A0160FB80
:104DF00081F980930A01C9010E9485260E9404114D
:104E000081FF08C080910A01806180930A0182E0DD
:104E10000E940D110E94041185FF08C080910A01B3
:104E2000806280930A0180E20E940D1160910A0164
:104E300066956170A80180915104909152040E947E
:104E40006026D11014C08091D5049091D6040197AA
:104E500040F560910A0166956170A8018091510446
:104E6000909152040E9478260E94422630C0B801D8
:104E700080915104909152040E94F924882319F3DF
:104E8000B80180915104909152040E94FF24811135
:104E9000DACFDF91CF911F910F91FF90EF90DF90CC
:104EA0000895EFE9FFE03197F1F700C00000CFCFA0
:104EB000CE010E94A726A801682FCE010E94782665
:104EC00080915104909152048C179D0769F2F092E1
:104ED0005404E0925304DDCF8091D20480FF1EC0C1
:104EE00080910A0182FF1AC00E949B2D20915304D9
:104EF00030915404AC01421B530B20910B013091B3
:104F00000C014217530750F02BE434E041E0BC01A0
:104F100080915104909152040C94C326089590916D
:104F20000A01892F8E7F90FF816080930A010C9483
:104F3000422680910A018E7F80930A010C944226BA
:104F400090930C0180930B010895CF92DF92EF9222
:104F5000FF920F931F93CF93DF93EC017B0180911E
:104F6000D20480FD0BC011E0812FDF91CF911F9102
:104F70000F91FF90EF90DF90CF9008950E949B2DAE
:104F80006C01F7018281882391F180910A0182FFEF
:104F900008C02BE434E040E0B60190E080E00E94DD
:104FA000C326CB31FCE5DF07C9F0CC312CE5D207B5
:104FB000D9F0CA318CE5D80711F40E948F27CE01B1
:104FC00090568115E0E29E0720F0905E8115904199
:104FD000E0F41092520410925104C5CF80910A015E
:104FE000816080930A01EBCF0E949927E8CF8091DE
:104FF0000A018F7EC13ED10531F0C53ED105B9F51C
:1050000080910A018F7D80930A0180910A0180FFBF
:10501000AACFB701CE010E94D024F70112818823C4
:1050200009F4C8C0112309F4BEC00E940411182F4E
:105030000E942A11812B8D7FB9F110925204109297
:1050400051048091D20481FD2FC060E0CE010E9406
:105050008526A70160E0CE010E9460260E942A11E9
:105060008D7F0E94461182E00E94E41172C0CE0141
:105070009056811520E2920720F0905E81159041B4
:1050800020F680910A0182FF6ECFB701CE010E9407
:10509000BF24811168CF2BE434E040E0B60190E0FA
:1050A00080E00E94C3265FCF86E0F701ABE4B4E066
:1050B00001900D928A95E1F710924D0410924F04E1
:1050C00010924E048091510490915204C817D90750
:1050D00009F04AC0B701CE010E94F924882309F4DF
:1050E00043C080910A0181FD36C0809153049091A4
:1050F00054048601081B190BB7018091510490914B
:1051000052040E94B6240817190770F50E94041172
:1051100081FF08C080910A01806180930A0182E0CA
:105120000E940D110E94041185FF08C080910A01A0
:10513000806280930A0180E20E940D1160910A0151
:1051400066956170A70180915104909152040E946C
:10515000602610E009CFB70180915104909152046C
:105160000E94FF248111C1CF0E940411182F0E94B8
:105170002A11812B90910A0181FB91F990930A01E8
:105180000E942A118D7F0E944611D0935204C09331
:105190005104D0925404C092530480910A01846057
:1051A00080930A0160CF970140E0B601CE010E94D2
:1051B000C326DACE11110DCFD6CE8FE891E001973C
:1051C000F1F700C0000008956E98769A6F98779A6C
:1051D0000E94DD288CB186FB882780F92CB130E055
:1051E000220F232F221F330B90E0232B09F092E094
:1051F000892B809357040895E0915704EE0FEE0F2A
:10520000E09357048CB186FB222720F98CB190E003
:10521000880F892F881F990B009711F082E090E08A
:10522000822BE82BE0935704EF70F0E0ED55FE4F32
:10523000808190915604890F8093560420E0843039
:1052400054F0809155048F5F8093550461E080E0B5
:105250000E94991F21E0809156048D3F54F4809163
:10526000550481508093550460E080E00E94991FAE
:1052700021E080915604082E000C990B64E070E048
:105280000E94AD3580935604822F0895CF93DF930B
:10529000EB0186319C4509F03BC00E940411982F18
:1052A0009A7A2091D10420FF04C0382F347409F079
:1052B00090E021FF04C0382F317109F090E022FF07
:1052C00004C0382F387809F090E023FF03C08272C1
:1052D00009F090E08A81882389F081E0911101C072
:1052E00080E08093580489E2911185E30E94A81020
:1052F0000E946C1180E0DF91CF9108958091580455
:10530000811104C089E20E94AF10F2CF85E3FBCF88
:1053100081E0F1CFAF92BF92CF92DF92EF92FF92F6
:105320000F931F93CF93DF937C015B01C42FD22F88
:10533000FC0182818823F9F040935B040E949B2D3D
:1053400090935A048093590480E28C0F883008F0BF
:1053500061C0C77081E001C0880FCA95EAF7DF918C
:10536000CF911F910F91FF90EF90DF90CF90BF9062
:10537000AF900C94AA0810915B04141340C0809164
:10538000590490915A040E94B32D6C01B701C501D4
:105390000E94B624C816D90690F5C0E2CD0F1D179D
:1053A000B9F080E2810F883040F4177081E001C0CD
:1053B000880F1A95EAF70E94B108C83048F481E0D6
:1053C0009D2F977001C0880F9A95EAF70E94AA084E
:1053D000802F0E949E08C830E8F4D77081E001C099
:1053E000880FDA95EAF7DF91CF911F910F91FF9027
:1053F000EF90DF90CF90BF90AF900C94B10880E217
:105400008C0F883038F4C77081E001C0880FCA95CE
:10541000EAF7E9CFDF91CF911F910F91FF90EF90C5
:10542000DF90CF90BF90AF9008950F939C01CB0178
:10543000233F4CE5340759F1A8F4283DFCE53F072C
:1054400001F1293D4CE53407D1F1273D3C4591F46C
:1054500006E221EE41EE67ED7CE50E948A2980E0BC
:105460000F910895253FFCE53F07E9F0B0F0263F96
:105470003C45F9F0FC018281882339F110925B04EC
:10548000EFCF07E225EE45EE68ED7CE5E6CF06E2DC
:1054900021EE40EE63EF7CE5E0CF07E225EE44EE3F
:1054A00064EF7CE5DACF06E221EE42EE65EF7CE5C3
:1054B000D4CF07E225EE46EE66EF7CE5CECF08E2DC
:1054C00021E045EE69ED7CE5C8CF81E0C9CFCF93FF
:1054D000DF93EC018989811115C081E0898B8F816F
:1054E0000E94071188850E941A110E946C11EA819E
:1054F000FB81309739F06C897D89CE010696DF916A
:10550000CF910994DF91CF910895EF92FF920F937D
:105510001F93CF93DF93EC018A85811134C0EB8018
:10552000FC8087E5F81A26E12E9DC0012F9D900D85
:105530001124DC01A755BD4F1496ED91FC911597F0
:10554000309731F054966D917C9181559D4F09951E
:1055500086E18E9D80018F9D100D112407551D4FF2
:10556000F80187810E940D11F80180850E942011A9
:105570000E946C11188219861B861E821D82109251
:105580005D0410925C04DF91CF911F910F91FF9009
:10559000EF900895DF92EF92FF920F931F93CF93B6
:1055A000DF937C01FB018281882399F080910D01BA
:1055B00090910E01019669F0C9EAD2E010E000E096
:1055C000DD24D39480910D0190910E0180179107F5
:1055D00044F4DF91CF911F910F91FF90EF90DF90F6
:1055E00008958E818823C1F089859A858E159F053F
:1055F00039F480915C0490915D048E159F0561F0F3
:10560000DF86FC86EB86CE010E94672ACE010696D5
:105610000E94852A0E9427110F5F1F4F6696D2CFE6
:10562000EF92FF920F931F93CF93DF937C019755D7
:105630008F3F910509F0E0F520910D0130910E01A9
:105640002817390724F490930E0180930D01FB0174
:10565000228136E1389F8001399F100D1124E80125
:10566000C755DD4F288B92818E81992349F1FA86A7
:10567000E9868F5F8E830E949B2D9E878D870E9477
:105680002A118F830E94041188870E941711988520
:10569000892B8887E881F981309731F06C897D8981
:1056A000C80181559D4F0995F0925D04E0925C041C
:1056B00081E0DF91CF911F910F91FF90EF900895BE
:1056C0008823B1F38989882399F3C80181559D4FB7
:1056D0000E94852AEDCF9F92AF92BF92CF92DF9228
:1056E000EF92FF920F931F93CF93DF9300D000D0E0
:1056F00000D0CDB7DEB780910D0190910E010196DB
:1057000009F052C026960FB6F894DEBF0FBECDBF8B
:10571000DF91CF911F910F91FF90EF90DF90CF908D
:10572000BF90AF909F9008950A9DF0010B9DF00DE2
:105730001124E755FD4FC288D388C114D10459F410
:10574000D701292D1D922A95E9F7B7018185928508
:105750000E94B6246C010A9DF0010B9DF00D1124EE
:10576000E755FD4F86818823A1F0858596850E94A7
:10577000B32DC816D90668F4109F60011124C60124
:1057800087559D4F0E94672AC60181559D4F0E94F3
:10579000852A1F5FA12EB12C80910D0190910E01E1
:1057A0008A159B050CF6AECF10E006E186E0982E38
:1057B000CE0101967C01EECF9093C3018093C2018C
:1057C000089590936304809362040895E0916204C5
:1057D000F0916304309721F00190F081E02D09945D
:1057E00080E00895E0916204F0916304309799F0AD
:1057F00020911B01222359F020918B0427FF07C021
:10580000DC012C9111962C93119726E02C930280A9
:10581000F381E02D09940895E0916204F09163040E
:10582000309739F022E0DC012C930480F581E02DE3
:105830000994089520916004309161042817390774
:1058400071F09093610480936004E0916204F091A0
:105850006304309721F00680F781E02D09940895C4
:1058600020915E0430915F042817390771F09093FE
:105870005F0480935E04E0916204F09163043097CA
:1058800021F00084F185E02D09940895FC01329601
:1058900080911B01882321F080918B049EE187FF7A
:1058A00096E080E0915008F4089521912223D1F3ED
:1058B0008F5FF8CF662301F120911B012223F1F0C5
:1058C00020918B0427FF1AC0462F46954695469592
:1058D0004E3190F4677021E030E002C0220F331F98
:1058E0006A95E2F7840F911DFC01828190E02823E4
:1058F000392381E0232B69F480E00895FC0132967E
:1059000008962191261721F0E817F907D1F7F4CF6F
:1059100081E008959C01FC0132969FEF80E0419167
:10592000461751F09F3F19F4411101C0982F8F5F26
:105930008630A9F79F3F09F40895290F311D97FD7F
:105940003A95F90162830895FC01329608962191F7
:10595000261303C0DF0111971C92E817F907B9F766
:105960000895E62FE695E695E695EE3168F4E80FA2
:10597000F92FF11D677021E030E001C0220F6A9518
:10598000EAF78281822B82830895E62FE695E695D9
:10599000E695EE3170F4E80FF92FF11D677021E004
:1059A00030E001C0220F6A95EAF720958281282312
:1059B0002283089520911B01222329F020918B043A
:1059C00027FD0C94B12C0C948A2C20911B012223CE
:1059D00029F020918B0427FD0C94C52C0C94A42C49
:1059E000FC01329680911B01882351F080918B0439
:1059F00087FF06C08EE1DF011D928A95E9F70895C1
:105A000086E0F9CF08950C94022D811105C081E044
:105A1000809364040C94032D82E0FACF83E080939A
:105A200064040C94032D0C94052D81E08093640490
:105A30000C94032D0C94152D089508950C941D2D90
:105A4000089508950C941C2DCF930E94202D0E9440
:105A500016170E94212DC0E08C2F0E943116672B53
:105A6000682B692B31F4CF5FC530B1F780E0CF915F
:105A7000089581E0FCCF08951F921FB61F92112454
:105A80008F939F93AF93BF9380916504811113C04F
:105A90008091D9049091DA04A091DB04B091DC04E8
:105AA0004196A11DB11D8093D9049093DA04A0936F
:105AB000DB04B093DC04BF91AF919F918F911F9055
:105AC0001FBE1F9018958091E104843031F10E942F
:105AD00098061092650488E190E020E40FB6F894EF
