:100000000C9406050C943E050C943E050C943E059C
:100010000C943E050C943E050C943E050C943E0554
:100020000C943E050C943E050C94202D0C94DC2C75
:100030000C941D2E0C943E050C943E050C943E052C
:100040000C943E050C943E050C943E050C943E0524
:100050000C943E050C94F92D0C943E050C943E0531
:100060000C943E050C943E050C943E050C943E0504
:100070000C943E050C943E050C943E050C943E05F4
:100080000C943E050C943E050C943E050C943E05E4
:100090000C943E050C943E0505010902A101850260
:1000A0000901A1000509190129051500250195057A
:1000B000750181029501750381010501093009313E
:1000C0001581257F95027508810609381581257FE0
:1000D000950175088106050C0A38021581257F9562
:1000E0000175088106C0C005010980A101850319B9
:1000F000012AB700150126B700950175108100C0CF
:10010000050C0901A101850419012AA00215012687
:10011000A002950175108100C00660FF0961A10170
:100120000962150026FF00952075088102096315F4
:100130000026FF00952075089102C005010906A15F
:1001400001050719E029E7150025019508750181CA
:10015000029501750881010507190029FF15002680
:10016000FF00950675088100050819012905950508
:1001700075019102950175039101C0FD377A585AB6
:10018000000004E6D6B44602002101160000007407
:100190002FE5A3E006D5020E5D003D8889C65436E2
:1001A000C3174FE4E21131AAE46E2E0F4A5B94515B
:1001B00064B75965F2326DDD643A9BB772045740FB
:1001C0005CFA701981CEBD857687377CA83FEC1428
:1001D000724D2433CF1FCEDCEE0A3453F5BC826857
:1001E00064D785F9F4226D4AB8A3A98FAC1AA51378
:1001F00065F37C480224FC1705680EDFBF31EA274F
:100200008C2F206578673D40DF798D0E0B97CABE35
:1002100000EFA7F1BA6DFAB09F16C09B6B894976C3
:100220002D9D4BA9BB01A423BE02F6FE0F7F4362A6
:100230008FEAAD1789A827F90A55EB3A846188B986
:10024000FE5CB225A6DE25FEAE122B25FF2B684FE5
:10025000E32615E9897FB206FDFE54EE81AF0873EF
:10026000A29BF7DC46F09F291F6F8465B27A399014
:100270001D049EE713A556F7B3C9079A839714A7E1
:10028000745201E414331032C1C91DB42E7B762E92
:100290004E5D30AA58A99D91D768D41D6EB5D4A1E2
:1002A000A29014E53B5970C293FCE16E320C5301ED
:1002B000425C7CBDE78B6305521F3A9191D2D93CD9
:1002C0000FB9D9927EA0043A556F1DA0AE80953B20
:1002D000AB46EF387957EF3DA54576DBCF438BA38F
:1002E0006E7AB7AEB051D3D7966A0A291938BB28AF
:1002F00059086F9BD24BC895DB1D9456CABDF1D6E9
:10030000D729AA31126082AEB767334BD2753FE668
:100310009B9F9DD290BC91DB18EC135875A950009F
:100320008957B521DBA2652E2539528DC14CCE39B6
:1003300083D0D55A4E9013A3FDB569A4C4F62EB24E
:1003400039FC97800AAC3340F39CE6A2D1DD98A833
:1003500052B1EBF38D5BE7E95041B3F6480BEB4B41
:10036000EFF4225B495F0DACD86F2341623083DF2D
:100370000431179352501FFA8BAED3B1237363F538
:10038000099C0C0D0743A34F764EF480689DDABBA1
:100390006794A5306D25AC939EF6A601A1425FAD92
:1003A000A866DDFFC798B5000000009EACC7C58FEA
:1003B000899C180001AA04D60D00008335B585B1CB
:1003C000C467FB020000000004595AA900AA0001FA
:1003D00000010001000100010001002900000029C6
:1003E00000460035001E001F0020002100220023CF
:1003F0000024002500260027002D002E002A004C96
:1004000000560054005500000000003A003B003C3C
:10041000004A002B0014001A000800150017001CE9
:100420000018000C00120013002F0030003100A84B
:10043000005F0060006100560057003D003E003F35
:10044000004B00390004001600070009000A000BE9
:10045000000D000E000F0033003400000028005291
:10046000005C005D005E0055002A00400041004233
:10047000004E00E1001D001B0006001900050011E0
:100480000010003600370038000000E50000005181
:100490000059005A005B00540058004300440045D6
:1004A000004D00E000E300E20001002C000000002D
:1004B000002C000000E600E7000100E40050004FBF
:1004C0000062008500630067002B0001000000014E
:1004D0000001000100010001000100010001000114
:1004E0000001000100010001000100010001000104
:1004F00000010001000100000000000100010001F6
:1005000000010001000100010001000100010001E3
:1005100000010001000100010001000100010001D3
:1005200000010001000100010001000100010001C3
:1005300000010001000100010001000100010001B3
:1005400000010001000100010001000000010001A4
:100550000001000100010001000100010001000193
:100560000001000100010001000100010001000183
:100570000001000100010001000000010000000175
:100580000001000100010001000100010001000163
:100590000001000100010001000100010000000055
:1005A0000001000000010001000100010001000144
:1005B0000001000100010001000100010000000134
:1005C0000001000100010001000100010001000123
:1005D0000001000100010001000100010001000113
:1005E0000001000100010000000000010001000105
:1005F00000010001000100010001000100010001F3
:1006000000010001000100010001000100010001E2
:1006100000010001000100010001000100010001D2
:1006200000010001000100010001000100010001C2
:1006300000010001000100010001000000010001B3
:1006400000010001000100010001000100010001A2
:100650000001000100010001000100010001000192
:100660000001000100010001000000010000000184
:100670000001000100010001000100010001000172
:100680000001000100010001000100010000000064
:100690000001000000010001000100010001000153
:1006A0000001000100010001000100010000000143
:1006B0000001000100010001000100010001000132
:1006C0000001000100010001000100010001000122
:1006D0000001000100010000000000010001000114
:1006E0000001000100010001000100010001000102
:1006F00000010001000100010001000100010001F2
:1007000000010001000100010001000100010001E1
:1007100000010001000100010001000100010001D1
:1007200000010001000100010001000000010001C2
:1007300000010001000100010001000100010001B1
:1007400000010001000100010001000100010001A1
:100750000001000100010001000000010000000193
:100760000001000100010001000100010001000181
:100770000001000100010001000100010000000073
:100780000001000000010001000100010001000162
:100790000001000100010001000100010001007BD7
:1007A00005FD0F30100000020002007705FD0F303C
:1007B000100000030001007C05FD0F301000000454
:1007C0000002006105FD0F3010C408050001007D26
:1007D00005FD0F30100000060002006305FD0F301C
:1007E000100000070002007905FD0F30100000081E
:1007F0000001007E05FD0F301000000900020065B9
:1008000005FD0F30109F080A0002006705FD0F303C
:10081000109F080B0002006905FD0F30109F080CA7
:100820000002006B05FD0F30109F080D0002006DE7
:1008300005FD0F30109F080E0002006F05FD0F3000
:10084000109F080F0002007105FD0F30109F081067
:100850000002007305FD0F30109F081100020075A3
:1008600005FD0F30109F08120002007F05FD0F30BC
:10087000100000130002008105FD0F30100000146D
:100880000001008305FD0F3010000015000000007E
:10089000002508DB17000009025B00030100A0FA35
:1008A00009040000010301010009211101000122D6
:1008B000400007058103080001090401000203004C
:1008C00000000921110100012222000705820320F6
:1008D00000010705030320000109040200010300D1
:1008E0000000092111010001228100070584032075
:1008F0000001120100020000000857504D4C000199
:10090000010203011C037600690061006C003A00DB
:10091000660036003400630032006200330063007A
:1009200000001C034C006F006E00670020004C00AC
:100930006F006E00670020004D0061006E00000037
:10094000160350004C0049005000200057006F0073
:1009500072006B0073000000040309040000000033
:100960000000000000000000000000000000000087
:100970000000000000000000000000000000000077
:100980007E0F00D4FFFFFFC70000007800000000CA
:10099000000000002A2B28000000000000000000DA
:1009A0000000000000000029000000002C1E342080
:1009B000212224342627252E362D3738271E1F20A6
:1009C0002122232425263333362E37381F040506EB
:1009D0000708090A0B0C0D0E0F101112131415162F
:1009E0001718191A1B1C1D2F3130232D350405062D
:1009F0000708090A0B0C0D0E0F101112131415160F
:100A00001718191A1B1C1D2F3130354C11241FBE0D
:100A1000CFEFD0E1DEBFCDBF04B603FE18C080919A
:100A2000A8069091A906A091AA06B091AB068730BE
:100A3000904BA740B04B59F41092A8061092A9060B
:100A40001092AA061092AB06E0E0F8E7099526E0BE
:100A5000A0E9B1E001C01D92A83AB207E1F711E0A8
:100A6000A0E0B1E0E0EEF0E702C005900D92A03901
:100A7000B107D9F70E94442E0C9443380C9400001F
:100A8000E8EDF0E080818C7F80831092E20010928C
:100A9000DA001092E100A0EEB0E08C9181608C93BE
:100AA00080818F77808319BCA7EDB0E08C918E7F19
:100AB0008C9380818F7E808310928F060895209181
:100AC000E4003091E50095E6A9012091EC00822F29
:100AD000817020FF06C08091E80080FF06C080E0A2
:100AE00008952091E80022FD1AC08091A506882370
:100AF00089F0853089F08091EB0085FD0FC0209151
:100B0000E4003091E50042175307F9F29150E1F605
:100B100084E0089582E0089583E0089581E00895D7
:100B2000EF92FF920F931F93CF937C018B010E9452
:100B30005F05C82F811117C08091E80085FD0BC0AB
:100B40008091E8008E778093E8000E945F058823FB
:100B500099F3C82F08C0F70181917F018093F100BC
:100B60000150110949F78C2FCF911F910F91FF90E0
:100B7000EF900895CF93FC018091A506843001F594
:100B8000C091E900CF702091EC00922F917020FD70
:100B900090E8C92B82E08093E9008091E80080FF13
:100BA0000CC050E040E060E270E0CF010E94900590
:100BB0008091E8008E778093E800CF70C093E900C1
:100BC000CF91089580919D0687FF13C08091E80022
:100BD00082FF06C08091E8008B778093E80004C014
:100BE0008091A5068111F2CF08958091A5068823F2
:100BF000D9F38091E80080FFF8CF8091E8008E77EC
:100C0000ECCF982F9093E900242F762F50E089178E
:100C100031F07091EC002091ED005091F00021FD39
:100C200007C09F5F973071F78093E90081E00895D6
:100C30003091EB003E7F3093EB003091ED003D7F33
:100C40003093ED003091EB0031603093EB00709306
:100C5000EC002093ED005093F0002091EE0027FD72
:100C6000E0CF80E00895B0E0A0E0E9E3F6E00C9486
:100C70009637C8EDD0E088818F7E8883E7EDF0E07D
:100C800080818160808381E080938F0688818C7F62
:100C9000888302EE10E0D8011C921092DA0081EEF7
:100CA000C82ED12CD6011C9288818F7788838881A9
:100CB0008068888388818F7D888380818068808335
:100CC00019BC1092A50610929C0610929B061092D9
:100CD0009A0690EEE92EF12CF70180818B7F8083BC
:100CE00088818160888342E060E080E00E940106A4
:100CF000D6018C918E7F8C93F801808181608083F6
:100D0000808188608083D7018C918E7F8C938881CD
:100D100080618883CDB7DEB7E8E00C94B237FC0180
:100D20008091A3069091A40686179707A0F06115FD
:100D3000710529F49091E8009E779093E80090E087
:100D40006115710551F4911108C08091E80082FF8E
:100D500033C080E00895BC01F2CF8091A5068823BE
:100D6000B9F18530B9F18091E80083FD2FC0809101
:100D7000E80082FDEACF8091E80080FFE1CF20917A
:100D8000F2003091F3006115710519F0283031053A
:100D900058F091E02830310509F090E02091E8000A
:100DA0002E772093E800CCCF81918093F1006150A1
:100DB00071092F5F3F4FE7CF8091A506882341F04F
:100DC000853041F08091E80083FFBFCF81E0089536
:100DD00082E0089583E00895089580919106089532
:100DE0009C014FB7F8948091880690918906A09154
:100DF0008A06B0918B064FBF821B930B08952FB7C5
:100E0000F894609188067091890680918A06909185
:100E10008B062FBF08952FB7F89480918806909184
:100E20008906A0918A06B0918B062FBF08959C0178
:100E3000FC0132969FEF80E04191461751F09F3FB1
:100E400019F4411101C0982F8F5F8630A9F79F3F99
:100E500009F40895290F311D97FD3A95F901628330
:100E6000089520918506309186062817390771F07C
:100E70009093860680938506E0918306F091840620
:100E8000309721F00084F185E02D09950895209197
:100E90008106309182062817390771F090938206F7
:100EA00080938106E0918306F0918406309721F0CB
:100EB0000680F781E02D09950895E0918306F09171
:100EC0008406309729F00190F081E02D099508956E
:100ED00080E00895CF93DF93EC014091710650912B
:100EE000720660917306709174062FB7F894809122
:100EF000880690918906A0918A06B0918B062FBF33
:100F0000841B950BA60BB70B843F9140A105B1053F
:100F100018F58091710690917206A0917306B091B8
:100F2000740680936D0690936E06A0936F06B0933F
:100F3000700684EF91E0A0E0B0E0809369069093A2
:100F40006A06A0936B06B0936C06D0937906C093A3
:100F50007806DF91CF9108950E94FF0660936D0699
:100F600070936E0680936F069093700682E390E014
:100F7000A0E0B0E0E2CFFC018481862351F49281AD
:100F80009923B9F06923808583FF05C081E0611151
:100F90000FC080E00895892F8F7092959F70982BD5
:100FA000862F8F7062956F70682B81E09613F1CF5A
:100FB000089581E0FDCF452B39F0682381E06F3F34
:100FC00009F080E08170089581E0FCCFDC01609140
:100FD000650680916606962F891301C00895292F12
:100FE00030E0F901EE0FFF1FE35AF94F40815181C4
:100FF0004A175B07A1F487E08A9FA0018B9F500DE1
:10100000112443515A4F81E0FA0184839613E6CFAD
:101010002F5F3F4F237033272093650608952F5F7E
:101020003F4F922F9370D8CF10928A051092890566
:10103000EDEEF5E08581811102C0148216823796AB
:1010400086E0ED35F807B1F70895B0E0A0E0EBE2F7
:10105000F8E00C9494378FEF9FEF4430510508F47B
:1010600069C040913E0541FB882780F990E0880FD8
:10107000991F42FB002700F910E0000F111F000F1D
:10108000111F802B912B40FBCC24C0F8D12C8C2934
:101090009D2943FB222720F9C22FE0E0DE2F53E0F9
:1010A000CC0FDD1F5A95E1F78C2B9D2B44FBAA2713
:1010B000A0F9B0E0E4E0AA0FBB1FEA95E1F78A2BA4
:1010C0009B2B45FBEE27E0F9F0E0A5E0EE0FFF1FBC
:1010D000AA95E1F78E2B9F2B46FB222720F930E0C3
:1010E000B6E0220F331FBA95E1F7822B932B47FB13
:1010F000222720F930E03695322F22273795279581
:10110000822B932B20913F05322F3170F32EE82E46
:10111000F92A26952170B22EBB0CA82EBF28C50136
:10112000BB0CAA0BBB0BFB0180839183A283B3830F
:1011300090E080E0CDB7DEB7EAE00C94B037E1E6AE
:10114000F5E0848195812AE030E0B9010E945737AB
:10115000609314018681809313018285809312012C
:1011600084858093110186859785B9010E94573740
:1011700060931001808980930F01828980930E0112
:10118000848980930D010895809161059091620595
:1011900090931601809315010895E5EAF2E090E03E
:1011A00080E061E47CE248E65CE226EB3BE27783A8
:1011B0006683518740873387228795878487019686
:1011C0003E968031910599F7089581152CE5920797
:1011D00041F42091380530913905232B11F490E02A
:1011E00080E008950E940B079C01909187028091F6
:1011F0008802982B21F030938402209383029091EF
:10120000890280918A02982B21F0309382022093E8
:101210008102E0918306F0918406309749F082E0E4
:10122000809385020480F581E02D85E892E00995A0
:10123000089590918702803F59F48091880287FF3A
:101240000DC01092880291110BC010927F0208C04D
:10125000813F81F48091880218169CF3992381F0D4
:101260008091890290918A02892B09F064C01092C2
:101270007E020895823F49F497FFF0CF10928702D3
:10128000809188028111ECCFE0CF833F19F41916C9
:10129000ACF3E4CF20918902893F29F41216F4F6C9
:1012A00010928902DBCF8A3F19F427FFD7CFF8CFFE
:1012B00020918A028B3F29F427FFD0CF10928A0217
:1012C000CDCF8C3F19F41216CCF3C8CF843F31F444
:1012D000809186028E7F80938602C0CF853F21F465
:1012E000809186028D7FF7CF863F21F48091860220
:1012F0008B7FF1CF873F21F480918602877FEBCFF0
:10130000883F21F4809186028F7EE5CF8D3F31F4B6
:10131000809180028E7F80938002A0CF8E3F21F447
:10132000809180028D7FF7CF8F3F09F097CF80911A
:1013300080028B7FF0CF08958091800280FF0CC0E7
:1013400060910E0170E075956795759567956115CB
:10135000710549F1862F089581FF06C060910E0145
:1013600070E075956795F3CF60910E0182FD0BC01B
:1013700090917E029923A1F060910D0180910E0160
:10138000961738F0682F70E06038710500F38FE72A
:101390000895899FC001112470E00E946B37F4CF3B
:1013A00061E070E0D7CF81E0089580918002609184
:1013B000690570916A0580FF16C020911201269F71
:1013C000C001279F900D1124BC01769567957695F5
:1013D00067956038710508F043C06115710509F41F
:1013E00041C0862F089581FF0BC020911201269FD6
:1013F000C001279F900D1124BC0176956795E9CF18
:1014000082FF09C0809112019B01829FB001839FDE
:10141000700D1124DECF20917F022223D1F2909112
:10142000110180911201482F50E0291748F0CB019B
:10143000849FB001859F700D949F700D1124C9CFBA
:10144000289F90011124269FA001279F500D369FB1
:10145000500D1124692F70E0CA010E945737B9CF8F
:101460008FE7089581E00895803F31F40E94D50907
:101470008195809388020895813F19F40E94D509CF
:10148000F8CF823F31F40E94D5098195809387027D
:101490000895833F19F40E94D509F8CF893F29F4B4
:1014A0000E949C098093890208958A3F21F40E943A
:1014B0009C098195F7CF8B3F31F40E949C0981955F
:1014C00080938A0208958C3F19F40E949C09F8CFFA
:1014D000843F31F480918602816080938602089572
:1014E000853F21F4809186028260F7CF863F21F408
:1014F000809186028460F1CF873F21F4809186023B
:101500008860EBCF883F21F4809186028061E5CF2F
:101510008D3F31F480918002816080938002089534
:101520008E3F21F4809180028260F7CF8F3FB9F720
:10153000809180028460F1CF80E00895F894E82FD4
:10154000E295EF70F0E031A1282F2F7081E090E05C
:1015500001C0880F2A95EAF7982F9095932391A3BD
:1015600092A1892B82A37894089590913E0592FFD1
:1015700006C0282F28712830F9F4877F846093FFF4
:1015800006C0282F28712831F1F4877E84612091CC
:101590003F0520FF06C0382F38713830D9F4877FD7
:1015A000816021FF06C0282F28712831D1F4877E61
:1015B000816194FD877E0895282F24712430F9F6E7
:1015C0008B7F8860DCCF282F2471243101F78B7E3C
:1015D0008861DDCF382F3171313019F78E7F886007
:1015E000E0CF282F2171213121F78E7E8861E1CF54
:1015F000CF93DF93EC0182389105B1F108F040C040
:101600008133910509F49DC048F58932910509F4AB
:101610008DC08A9709F49CC0C11521E5D20708F056
:10162000C3C0C11530E5D30708F01EC1C83ED105BF
:1016300008F0A3C0C13ED10588F5C83AD10508F02D
:101640008EC0C53AD10508F007C1C130D10531F1CE
:10165000209721F1C430D10508F545C085339105A7
:1016600009F45FC0C997C1F680913E05837009F007
:1016700044C180913F0583FF11C0C9E2D0E00EC094
:10168000833E910599F170F4803E910501F1823E0F
:10169000910511F680913E0582FD21C0CE01DF91BA
:1016A000CF910895863E910561F1873E910571F1D4
:1016B000843E910509F0B0CF80913F0581FFEECFC8
:1016C00080913E05C7EED0E084FD0DC0E7CF80914C
:1016D0003E0580FD33C090913F0590FFDFCFC3EE04
:1016E000D0E084FFDBCFD0E0C0E0D8CF80913E05D2
:1016F00082FD00C190913F0590FDFFC084FFCECFD9
:10170000F2CF80913E0583FDDDCFC8CF80913E05AD
:1017100083FDF6C090913F0591FFF0CFC4EED0E07D
:10172000BDCF80913E0585FFB9CFA7CF80913E0503
:1017300085FDE9C080913F0583FFB0CFC9E3D0E0CC
:10174000ADCF80913E0586FFA9CFCAE2D0E0A6CFFB
:1017500080913E0586FFA2CFC1E3D0E09FCFCF3B73
:10176000D10508F6C85AD0E0CC0FDD1FCB5DDE4FA7
:101770000990D881C02DD46491CFC11540E2D4071F
:1017800058F4C11581E0D80708F088CFC03FD105D3
:1017900008F4A9CFD06582CFC11520E4D20708F4A0
:1017A000A2CFDF70D06A7ACFC11535E5D30718F51F
:1017B000C11544E5D40708F085C0C11583E5D807F5
:1017C00008F06CC0C11522E5D20708F462C0CE0152
:1017D0008370992721E030E002C0220F331F8A95E1
:1017E000E2F7C695C69580E2C89FE0011124C22B9E
:1017F000D32BDC6853CFC11539E5D307A8F4C11545
:1018000048E5D40708F063C0C11586E5D80708F09D
:101810006ACF8C2F0E94B50AC82FD0E0DC2FCC27CE
:10182000CC27DF71D0623ACFC1152AE5D20708F480
:1018300053C0CE0190568115904208F054CF8D2FA1
:101840008F710E94B50A90E0982F882788279F7192
:101850009C012C2BE901E6CFC55AD0E0CE5DDE4FCE
:10186000C881D0E0D0641ACF2C2F269526952370FE
:1018700040E2249F900111248C2F8370C1E0D0E0BE
:1018800002C0CC0FDD1F8A95E2F7C22BD32BDD6897
:1018900005CFDC2FCC27C16FD06A00CFCE0183707B
:1018A000992721E030E002C0220F331F8A95E2F72A
:1018B000C695C69540E2C49FE0011124C22BD32BEC
:1018C000DA68ECCEDC2FCC27C46FD06AE7CEDC2FF1
:1018D000CC27C06FD06AE2CE8C2F8F700E94B50AE1
:1018E00034E0D695C7953A95E1F7CF709C2FEC017F
:1018F000D069D4CEC2EED0E0D1CEC0EED0E0CECE14
:10190000C6EED0E0CBCEC5E3D0E0C8CE80912702B2
:10191000882331F01092270210922602109225029D
:101920000895CF93C82F80913F0582FF0CC080910E
:1019300027028C1741F00E940B0790932602809398
:101940002502C0932702CF91089580959091A70614
:1019500098239093A7060895809590914005982329
:1019600090934005089590914005892B8093400500
:10197000089510921C0210921B0210921A020895F0
:101980008091630590916405892B89F00E940B0773
:101990002091250230912602AC01421B530B81E0BD
:1019A00020916305309164054217530708F480E0E5
:1019B00081700895E4E9F1E09191891303C0DF019A
:1019C00011971C9291E0EA39F907B1F70895209137
:1019D00019029091D801291302C080E0089530E0E7
:1019E000F90153E0EE0FFF1F5A95E1F7E752FE4F62
:1019F0005181561306C05081581303C052815413AD
:101A000004C02F5F3F4F2770E6CF81E0089580919B
:101A100019029091D801981301C008958F5F8770C3
:101A2000FACFA82FA77023E0969587952A95E1F71E
:101A3000FC01EE0FFF1FE80FF91FE60FF71F50E044
:101A400040E080E0219130E00A2E02C036952795D3
:101A50000A94E2F721703327042E01C0220F0A9462
:101A6000EAF7822B4F5F5F4F4330510559F70895D6
:101A7000903FC9F0953080F48831A8F4282F30E0E9
:101A800063EA71E0A901E8E19E9F400D511D112418
:101A9000CA010E94110D08959C5F923020F460EA03
:101AA00071E090E0F6CF80E00895262F277091E056
:101AB00001C0990F2A95EAF723E0769567952A9554
:101AC000E1F7FB01EE0FFF1FE60FF71FE40FF51F15
:101AD00050E040E0682F70E08191DF0111979B0199
:101AE000042E02C0369527950A94E2F721702195BD
:101AF0002827292328272C934F5F5F4F4330510518
:101B000059F70895282F862F903F79F0953070F47B
:101B1000283158F4622F70E028E1929F600D711D0A
:101B2000112443EA51E00E94550D08959C5F9230C4
:101B3000E0F7622F70E040EA51E0F5CF92959F7098
:101B4000963091F058F4925F9F70923058F4803F35
:101B500019F030F4883E30F481E008959A5FF4CFB4
:101B6000843FD1F380E00895883EB0F3813FD1F700
:101B7000F3CF9C013A9521153F4150F5FC01EE272A
:101B8000F170BC0166277270AC01442754709C014F
:101B90002227387094FF0EC080E1EF2B09F480E01B
:101BA000672B09F08062452B09F08064232B89F0B4
:101BB0008068089581E0EF2B09F480E0672B09F03D
:101BC0008260452B09F08460232B19F0886008950A
:101BD00080E0089580938C0670938E0660938D0646
:101BE0008091A5068430F9F48093E9008FEF9091FD
:101BF000E800815095FD06C095ED9A95F1F700003B
:101C00008111F5CF8091E80085FF0DC050E040E0E4
:101C100063E070E08CE896E00E9490058091E80017
:101C20008E778093E8000895BC0184E00E94EA0D5D
:101C30000895BC0183E00E94EA0D08959C0184E0B0
:101C40008093E9009FEF8091E800915085FD06C0E8
:101C500085ED8A95F1F700009111F5CF8091E800AC
:101C600085FF0CC050E040E066E070E0C9010E94D2
:101C700090058091E8008E778093E8000895CF93D7
:101C8000DF93EC0181E08093E9008FEF9091E80011
:101C9000815095FD06C095ED9A95F1F700008111F0
:101CA000F5CF8091E80085FF14C050E040E068E087
:101CB00070E0CE010E9490058091E8008E778093BD
:101CC000E80088E0FE01A2E9B6E001900D928A9555
:101CD000E1F7DF91CF91089581E08093E00080E209
:101CE0008093D8001092C9008FE19EE40197F1F72C
:101CF00000C0000087E090EBDC018093A806909381
:101D0000A906A093AA06B093AB0688E19CE00FB6A3
:101D1000F894A895809360000FBE90936000FFCF69
:101D2000019708F40895EFE9FFE03197F1F700C05B
:101D30000000F6CF0F931F93CF93DF9301E615E0DA
:101D4000C7EFD3E0CE010E94F937F80181938F01EC
:101D50002196CB31F4E0DF07A9F7C5EAD7E0FE0111
:101D600085919491009711F0FC0109952C96F8E06B
:101D7000C13ADF07A1F7DF91CF911F910F9108952D
:101D8000FF920F931F93CF93DF93F42E843040F58F
:101D9000611126C024E0829F8001112409511C4F4B
:101DA00082E090E0442311F090E080E0800F911FEA
:101DB0000E94F937C82FD0E0DC2FCC2783E090E0D9
:101DC000FF2011F081E090E0800F911F0E94F93711
:101DD0009E01282BC901CDB7DEB7E5E00C94B537DD
:101DE00090E080E0F8CF0F931F93CF93DF93843080
:101DF00030F5653020F5483110F5C42FD0E0CC0F18
:101E0000DD1F20E3629FC00DD11D112430EF839FA1
:101E1000C00DD11D1124CE0187960E94F937082FDD
:101E200010E0102F0027CE0188960E94F937980104
:101E3000282BC901DF91CF911F910F91089590E058
:101E400080E0F8CF462F672F20913C0530913D056B
:101E5000232BF9F4703F39F4403FD9F480913A05CF
:101E600090913B0508958430A0F4753028F44831F2
:101E700080F40E94F30E08957D3F39F4411109C0AA
:101E800041E060E00E94C00E08957C3F11F44423BD
:101E9000C1F390E080E00895CF92DF92FF920F931C
:101EA0001F93CF93DF936C010091A60680912802C7
:101EB000082BC7E0D0E010E0FC2EC8010C2E02C0B9
:101EC000959587950A94E2F780FD0CC02197A0F7BD
:101ED000F12C8F2DDF91CF911F910F91FF90DF900B
:101EE000CF900895B6018C2F0E94220F0E94F80A0D
:101EF000019761F3EECFCF93DF93EC010E944C0F7B
:101F0000BE010E94220F0E94F80ADF91CF9108952E
:101F1000CF93DF93EC014B815C81698188810E94C2
:101F2000DB07811110C08E819F81009739F00E94DC
:101F3000F80A0E949E0DDF91CF91089588819981C2
:101F40000E947B0FF6CF80E0F6CFA5E0B0E0EBEA91
:101F5000FFE00C949B3749835A8389819A816623D9
:101F600099F0222389F00E944C0F182F682F898145
:101F70009A810E94820D69817A81812F0E94220FAD
:101F80002596E3E00C94B7370E94380D182FF3CF55
:101F9000FC01262F86819781009739F44081518179
:101FA0006281738184810E94A50F089583E290E08D
:101FB0000E94F9378E3489F484E290E00E94F93768
:101FC0008C3259F485E290E00E94F93791E08A3F23
:101FD00009F090E0892F8170089580E0FCCFCF93C5
:101FE00084E090E00E94F937C82F82E290E00E94DE
:101FF000F937982F8C2FCF910895DB01FC01329691
:10200000259134914217530758F0FC01349665919D
:102010007491A901CD010E94D93790E080E0089524
:102020008FEF9FEF08950F931F93CF93DF9301E6F8
:1020300015E0C7EFD3E0CE010E94F937F8016191B6
:102040008F01681719F0CE010E9407382196CB3115
:10205000F4E0DF0781F7DF91CF911F910F91089591
:10206000DA019C012E5F3F4FF90145915491F9012E
:1020700025913491A217B30758F0FC01349685914D
:1020800094910E94D9370E94131090E080E0089547
:102090008FEF9FEF0895CF93DF93CBEFD5E060E014
:1020A000CE010E9407382196C11588E0D807B9F7FC
:1020B000DF91CF9108950F931F93CF93DF93142F48
:1020C000022F8430F0F461111CC094E0899FE0017C
:1020D0001124C951DC4F82E090E0442311F090E0DC
:1020E00080E0632F8C0F9D1F0E94073883E090E0F3
:1020F000112311F081E090E0602F8C0F9D1F0E9452
:102100000738DF91CF911F910F9108951F93CF93BF
:10211000DF93122F8430E0F46530D0F44831C0F4FE
:10212000C42FD0E0CC0FDD1F90E3699FC00DD11DFF
:10213000112490EF899FC00DD11D1124632FCE0172
:1021400087960E940738612FCE0188960E94073833
:10215000DF91CF911F910895CF93C82F6FEF811119
:102160006EE483E290E00E9407386FEFC1116CE2E9
:1021700084E290E00E9407386FEFC1116AEF85E2B8
:1021800090E00E940738CF910895CF93C92F682F10
:1021900084E090E00E9407386C2F82E290E00E9479
:1021A0000738CF9108959B01803170F49AE0899FA0
:1021B000B0011124655E7B4F4AE050E0C9010E94E6
:1021C000E93790E080E008958FEF9FEF0895AAE04F
:1021D000B0E0EDEEF0E10C949C379C0137552F3FB9
:1021E000310509F068F4BE016F5F7F4F0E94D31084
:1021F000892B31F489859A852A96E2E00C94B837C8
:102200008091790590917A05F7CFAAE0B0E0EBE0F4
:10221000F1E10C94923708E414E086E2C82E84E0E1
:10222000D82E9BE5E92E95E0F92E27E0922E35E297
:10223000A32E34E0B32E88248394D6010D931D93EE
:102240006D014AE050E0B701CE0101960E94E937E6
:10225000F8013896DF01892D1D928A95E9F7898169
:102260009A81D80111969C938E938F8112968C93AC
:1022700012978D8113968C931397888514968C935F
:102280001497898515968C9315978B819C81179649
:102290009C938E93169718961C9218978A8587FFA1
:1022A0003CC01E961C921E921D9780FF03C0D80151
:1022B00018968C9281FF04C0F801908592609087F7
:1022C00082FF07C0D80118969C91189794601896C1
:1022D0009C9383FF04C0F80190859860908784FFE9
:1022E00007C0D80118969C911897906118969C93F6
:1022F00085FF04C0F801808580628087015F1F4FE1
:10230000FAE0EF0EF11C8BEFE81685E0F80609F015
:1023100094CF2A96ECE00C94AE37F801B686A586E9
:10232000C4CFAAE0B0E0E7E9F1E10C949637E5E824
:10233000F3E080EADF011D928A95E9F7EDEEF5E022
:1023400080E7DF011D928A95E9F785E8C82E83E0D2
:10235000D82E7F010BEB14E0F701D182C0824AE056
:1023600050E0B801CE0101960E94E93788E0FE01F5
:102370003196D60101900D928A95E1F789859A856B
:10238000D70113969C938E931297BAE0CB0ED11C73
:10239000E7E0EE0EF11C065F1F4F0B35F5E01F075F
:1023A000D9F62A96E8E00C94B2374F925F926F927A
:1023B0007F92AF92BF92CF92DF92EF92FF920F93F4
:1023C0001F93CF93DF93CDB7DEB764970FB6F89422
:1023D000DEBF0FBECDBF8E010F5F1F4F84E1F8013E
:1023E00011928A95E9F793E5E92E91E0F92E6801BB
:1023F000AA24A394B12CF70181917F018F3F09F4A6
:1024000052C0F894E82FE295EF70F0E021A18F70B0
:10241000A50102C0440F551F8A95E2F7CA01922F09
:10242000982B91A392A18095892382A3789400C0D0
:10243000E8E5F1E041E050E060E070E0412C512C33
:10244000320181918F3F89F0A82FA295AF70B0E043
:1024500090962C9130E08F7002C0359527958A9523
:10246000E2F7DB01CA0120FF03C080E090E0DC015D
:10247000482A592A6A2A7B2A440F551F661F771F4C
:1024800081E0E037F807E9F6F701319780818F3F67
:1024900011F00E949E0AE0EAEA95F1F7F601408207
:1024A000518262827382F4E0CF0ED11C48E5E416BB
:1024B00041E0F40609F09FCF44E150E0B8018CE21E
:1024C00092E00E94CC37892B81F184E1F801ACE2E3
:1024D000B2E001900D928A95E1F781E080932B02A2
:1024E0000E940B0790932A0280932902809129026F
:1024F00090912A020E94F0060597D8F044E150E03E
:102500006CE272E08AE692E00E94CC37892B39F1C6
:1025100084E1ECE2F2E0AAE6B2E001900D928A9545
:10252000E1F781E010922B0205C080912B0281110E
:10253000DDCF80E064960FB6F894DEBF0FBECDBF4E
:10254000DF91CF911F910F91FF90EF90DF90CF908F
:10255000BF90AF907F906F905F904F90089580E014
:10256000E1CF809140059091A706892B809392013D
:1025700080912702882309F1809163059091640579
:10258000892B29F00E94C00C81110E94860C809139
:10259000920190912702892B8093920120E084E997
:1025A00091E0FC013191CF0131112F5FF1E08A39C7
:1025B0009F07B9F721110E94860C809175068095BE
:1025C00090919201892390917606892B80939201B4
:1025D00048E050E06DE172E082E991E00E94CC3782
:1025E000892BA9F088E0E2E9F1E0ADE1B2E00190E9
:1025F0000D928A95E1F7E0918306F0918406309779
:1026000031F00280F381E02D82E991E0099508958F
:10261000CF93DF93EC01EA85FB85309719F06C8549
:102620007D8509958B810E94A50C8C810E94AC0C44
:102630000E94B11286E0FE0111928A95E9F7DF91BE
:10264000CF910895CF93DF93EC018D8181FD15C06B
:1026500082608D838091A7069B81892B8093A7063A
:102660008C810E94B30C0E94B112E885F9853097E5
:1026700021F06C857D85CE0109951092800610921F
:102680007F068D8180FD03C0CE010E940813DF917B
:10269000CF91089580911701877F8093170182E081
:1026A0000E94A50C8091170184FF06C08F7E809345
:1026B000170182E00E94B30C8091170185FF06C0CC
:1026C0008F7D8093170180E20E94B30C0E94B112AB
:1026D000089590E080E00E94470790E080E00E942B
:1026E00031071092A7060E94B11286E0E5E8F2E0F9
:1026F000DF011D928A95E9F710927F0210927E0207
:10270000109280020E94F20808958093A6060E940B
:10271000691308958091A606982F9670963021F43B
:1027200088600E9485130895877FFBCF21E030E009
:1027300001C0220F8A95EAF720958091A606822390
:102740000E948513089590911C028095892380939F
:102750001C02282F277091F4282F082E000C330B11
:102760009217130659F090913F0592FF07C0859587
:10277000859585950E9496130E94B90C08959091B5
:102780003F0592FB222720F9281769F080FB92F978
:1027900090933F0580913E0590913F050E94C510A2
:1027A00082E00E94A313089521E030E001C0220FCF
:1027B0008A95EAF78091A606822B0E9485130895D8
:1027C00090913F0592FF10C098E0899F90011124DD
:1027D000622B60931C020E94D4130E940B079093FB
:1027E0001B0280931A0208950E94D41308958093C7
:1027F00028020E946913089510924005E4E9F1E06F
:1028000086E0DF011D928A95E9F70E946913089519
:10281000AAE2B0E0EEE0F4E10C949B378DE996E09B
:102820002091F100DC012D93CD01B6E0853A9B07A4
:10283000B9F780919E06833009F472C0B8F48130F4
:1028400009F449C0823009F4B3C08091E80083FFE5
:1028500096C280919D0690919E069A3008F08FC294
:10286000E92FF0E0EB5BF74C0C947F378A3009F4EA
:102870008EC08B3009F471C0893039F780919D0684
:10288000813219F78091A1069091A206009711F06C
:102890000297D9F68091E800877F8093E8008091C5
:1028A000E80082FF38C08091F2009091F300029717
:1028B00031F48091F100813011F0863021F4809163
:1028C000F100809391068091E8008B778093E80077
:1028D0000E94E205BACF80919D06813A09F0B5CFFA
:1028E0008091E800877F8093E8008091A106909115
:1028F000A206892B61F468E082E996E070E00E940C
:102900008F068091E8008B778093E8009ECF60E08F
:1029100090E080E0F3CF8091A5068111C0CF95CFE4
:1029200080919D06813A09F090CF8091A106909107
:10293000A206892B09F089CF8091E800877F8093D8
:10294000E8008091E80080FFFCCF8091190180931E
:10295000F1008091E8008E77B9CF80919D06813299
:1029600009F073CF8091A1069091A206892B09F0FE
:102970006CCF8091E800877F8093E8000E94E20599
:1029800080919F06809319010E94FC135ECF809175
:102990009D06813209F059CF8091E800877F8093AE
:1029A000E8000E94E2058091A006809390064DCF3A
:1029B00080919D06813A09F048CF8091E800877F99
:1029C0008093E8008091E80080FFFCCF8091900622
:1029D000BECF803899F0823809F0D1C18091A1062C
:1029E0008F70873008F0CBC18093E9008091EB00B5
:1029F00085FB882780F91092E90006C080919A062D
:102A000090919B06911182609091E800977F90933E
:102A1000E8008093F1001092F1008091E8008E7739
:102A2000AAC1882309F498C1823009F0A8C1809115
:102A30009F0681119BC18091A1068F702FEF280FF7
:102A4000263008F09CC18093E9002091EB0020FF24
:102A50008DC1933031F48091EB0080628093EB0064
:102A600085C19091EB0090619093EB0021E030E004
:102A700001C0220F8A95EAF72093EA001092EA003B
:102A80008091EB008860EACF811179C110919F0697
:102A90001F778091E3008078812B8093E300809101
:102AA000E800877F8093E8000E94E2058091E800BB
:102AB00080FFFCCF8091E30080688093E30082E098
:102AC000111183E08093A5065AC18058823008F026
:102AD00056C120919F063091A0062C3DE3E03E07B1
:102AE000A1F583E08A838AE289834FB7F894DE01F7
:102AF000139620E03EE051E2E32FF0E050935700C0
:102B0000E49120FF03C0E295EF703F5FEF708E2FDE
:102B100090E0EA30C0F0C7968D939D932F5F2431EB
:102B200059F74FBF8091E800877F8093E8006AE201
:102B300070E0CE0101960E948F068091E8008B77AD
:102B40008093E8001CC1C096E7CF8091A1069091C8
:102B5000A206432F55274330510509F44AC078F5A2
:102B60004130510509F485C08BE590E0E7E9F8E0D4
:102B70004230510509F003C12091E800277F2093DE
:102B8000E8002091A3063091A4068217930708F469
:102B90009C0140E02115310509F070C041116EC063
:102BA0008091E80082FDC9CF8091A506882329F293
:102BB000853019F28091E80083FFF2CFBECF413219
:102BC000510509F447C04232510509F0D8C083309D
:102BD000910508F0D4C0FC01EE0FFF1FED57FE4F2A
:102BE0000190F081E02D80589E4FDC018C9190E0A7
:102BF0001DC0332721303105E9F02115310579F069
:102C000022303105F9F02330310509F0B8C0E4E095
:102C1000F9E0E4918E2F90E0E4E0F9E007C0E8E508
:102C2000F9E0E4918E2F90E0E8E5F9E0009709F4EF
:102C3000A6C0A2CFE0E4F9E0E4918E2F90E0E0E4BA
:102C4000F9E0F4CFE2E2F9E0E4918E2F90E0E2E2E5
:102C5000F9E0ECCF8330910508F091C0880F991FFF
:102C6000FC01E757FE4F0190F081E02D89E090E0F4
:102C700083CF82E190E0E2EFF8E07ECF8091A5067D
:102C8000882309F45ACF853009F457CF8091E800A2
:102C900083FD53CF8091E80082FD82CF8091E800D0
:102CA00080FF78CF8091F2009091F30021153105DB
:102CB00019F08830910550F041E0089709F040E0A4
:102CC0008091E8008E778093E80064CF4491409330
:102CD000F1003196215031090196E8CF803809F092
:102CE0004EC08091E800877F8093E80080919C0629
:102CF0008093F10092CE811142C010919F06123054
:102D0000F0F58091E800877F8093E80010939C069F
:102D10000E94E205112311F084E005C08091E300D8
:102D200087FDFACF81E08093A50642E061EC81E067
:102D30000E94010642E261EC84E00E94010642E248
:102D400061EC82E00E94010642E260EC83E00E94B6
:102D500001068091A50613C080919F06813079F409
:102D600081E0933009F080E080939B061092E900A7
:102D70008091E800877F8093E8000E94E2058091BF
:102D8000E80083FF0AC08091E800877F8093E80015
:102D90008091EB0080628093EB00AA96E3E00C94B4
:102DA000B737E1E6F5E0128E138E8FEA90E091835B
:102DB000808325E0248F88E893E1938382838AE0EF
:102DC00090E09583848344E150E05783468348E054
:102DD00050E051874087938782876EE170E0758766
:102DE00064879787868780E590E0918B808B538BF3
:102DF000428B48E250E0558B448B42E350E0578BC6
:102E0000468B48EC50E0518F408F158E178E168EF2
:102E100091A380A322A30E9413100E94FC1310927E
:102E20003F0510923E05EFE3F5E0808184608083EA
:102E300080913E0590913F050E94C5100E949A0E18
:102E40000895AEE1B0E0E7E2F7E10C948D376090D1
:102E500038057090390581E090E0909339058093B2
:102E600038058BECC82E83E0D82E9DECA92E93E07C
:102E7000B92E2BEDE22E23E0F22E512C8701412CAE
:102E800015C0F40125913491432D642D852D0E94A8
:102E9000861082E0880E911C3394E8E13E12F1CF57
:102EA000005D1F4F4394F5E04F1619F04801312C97
:102EB000E8CFF6012591349141E060E0852D0E9434
:102EC0005B10F5012591349140E060E0852D0E9472
:102ED0005B1084E0C80ED11C5394E4E0AE0EB11C2C
:102EE000F0EFEF0EF11C84E05812C8CF0E94D1160B
:102EF0001A8219821C821B821E821D8218861F82E2
:102F000088EC90E09A8789870BE114E04AE050E072
:102F1000B801CE0101960E942B38065F1F4F0B3B74
:102F2000E4E01E0799F77E01FBE0EF0EF11C8AE05A
:102F3000F70111928A95E9F74AE050E0B801C7011C
:102F40000E942B38065F1F4F0B35F5E01F07A1F7D6
:102F50007E0185E1E80EF11C8AE0F70111928A9565
:102F6000E9F78FEF9FEF9A8F898F87E08E8F4AE086
:102F700050E0B801C7010E942B38065F1F4F0B3F7E
:102F8000F5E01F07A1F770923905609238056E963B
:102F9000E1E10C94A93780E00E94AC1060E086E289
:102FA00090E00E9407380E9421170E944B1081E098
:102FB0000E94AC100895CF92DF92EF92FF928FEFB4
:102FC0009FEF4430510508F46AC0FB01C080D180F6
:102FD000E280F3800E94FC1380913E05C0FA80F9E4
:102FE000B701A601769567955795479540FB81F9FE
:102FF000B701A60122E076956795579547952A95E2
:10300000D1F740FB82F9B701A60133E076956795C9
:10301000579547953A95D1F740FB83F9B701A6013B
:10302000E4E07695679557954795EA95D1F740FB8B
:1030300084F9B701A601F5E0769567955795479510
:10304000FA95D1F740FB85F9B701A601A6E0769580
:10305000679557954795AA95D1F740FB86F9B70133
:10306000A601B7E07695679557954795BA95D1F73C
:1030700040FB87F980933E0580913F05D0FA80F9A7
:10308000D1FACC24C0F8C0FA81F980933F05809131
:103090003E0590913F050E94C51090E080E0FF90B2
:1030A000EF90DF90CF9008950E94FC132FEF84E300
:1030B0009CE0215080409040E1F700C0000088E192
:1030C0009CE00FB6F894A895809360000FBE909393
:1030D0006000FFCF882321F00E94A50C0E94B1124E
:1030E0000895882339F09091A706982B9093A7060E
:1030F0000E94B1120895882321F00E94AC0C0E9416
:10310000B1120895882321F00E94B30C0E94B112DD
:103110000895882379F19CEF980F913A28F40E9442
:10312000DA0C0E94B112089590E2980F983050F492
:10313000877091E001C0990F8A95EAF7892F0E9464
:10314000AC0CEFCF9BE5980F933028F490E080E033
:103150000E944707089598E5980F973128F490E06A
:1031600080E00E9431070895803F20F00E941909F5
:103170000E94F2080895FF920F931F93CF93DF935D
:10318000F82E00917A0610917B060115110509F4BD
:1031900049C0109279061092780610927506109226
:1031A0007606D8011696CD91DC919E013A952115AF
:1031B0003F4108F4D07ED1E0C11101C0D0E0D80178
:1031C0001996ED91FC911A97309731F01B966D91FD
:1031D0007C9180E00995D823DD2339F08CEF8C0FAA
:1031E000813A30F58C2F0E94DA0CFF2099F0E091A3
:1031F0007A06F0917B06808584FD0CC0809177066D
:10320000882341F0808191819C0121503109203B2C
:103210003D45A0F00E94B11210927B0610927A06F2
:1032200010927706C801CDB7DEB7E5E00C94B5374C
:103230000E94B1128C2F0E948918D7CF0E946A0772
:10324000E9CFCF93DF93EC010E948918CE010E9451
:10325000B90D9E01205E31092830310510F0CD2BCB
:1032600029F40E947B18DF91CF9108950E946A187B
:10327000FACFCF93C82F8823A1F08CEF8C0F813A1F
:1032800090F4E4E9F1E08191C817E1F181E0EA39D5
:10329000F807C9F76C2F82E991E00E9417070E9496
:1032A000B112CF91089580E28C0F883048F4C77036
:1032B00081E001C0880FCA95EAF70E94B30CEFCFF6
:1032C000EBE5EC0FE33040F4F0E0EE5DFE4F808183
:1032D00090E00E944707E5CFE8E5EC0FE73150F4B6
:1032E000F0E0EE0FFF1FEB5DFE4F808191810E94A9
:1032F0003107D7CFC03FA8F28C2F0E94340A0E941A
:10330000F208CFCF8C2F0E94DA0C0E94B112C2CFEC
:103310001F93CF93DF93182FC0918105D091820521
:10332000893321F0C0917F05D0918005812F0E94C3
:103330003919209739F4812F0E948918DF91CF9194
:103340001F9108958FE99FE00197F1F700C00000F9
:103350002197EFCFB0E0A0E0E0EBF9E10C949437D7
:10336000EC018AE0A82E2881222309F48FC02130A5
:10337000C9F599818A81913021F422960E94881999
:1033800005C0923029F422960E9439192196EBCF7C
:10339000933021F422960E948918F8CF943011F0CE
:1033A0002196F4CF229630E020E0AE014F5F5F4FD0
:1033B0008053990B8A30910550F02150310930F338
:1033C0008FE99FE00197F1F700C00000F6CFA29EC1
:1033D000B001A39E700D11249C01260F371F898117
:1033E000EA01E3CFE22FF0E0E457F64FB490822FEA
:1033F00086958695869590E0FC01E458F64FE4901A
:103400002770F12C022E02C0F594E7940A94E2F79B
:1034100031E0E322FF24FC01E459F64FC490D12CA3
:10342000022E02C0D594C7940A94E2F731E0C32279
:10343000DD24FC01E45AF64F049110E002C015951A
:1034400007952A95E2F701701127E114F10419F0AC
:1034500081EE0E943919C114D10419F086EE0E9440
:1034600039198B2D0E948819C114D10419F086EEE8
:103470000E948918E114F10419F081EE0E94891864
:103480000115110509F482CF8CE278CFCDB7DEB7F4
:10349000EAE00C94B037B0E0A0E0E1E5FAE10C948A
:1034A00094377C015B01C42FD22FFC0182818823D9
:1034B000A9F040937E060E940B0790937D068093AF
:1034C0007C06C77081E001C0880FCA95EAF70E94A8
:1034D0008218CDB7DEB7EAE00C94B03710917E06C3
:1034E000141338C080917C0690917D060E94F006EE
:1034F0006C01B701C5010E94E710C816D90650F546
:10350000C0E2CD0F1D17C1F080E2810F883048F472
:10351000177081E0012E01C0880F0A94EAF70E941B
:103520007B18C83048F481E09D2F977001C0880F48
:103530009A95EAF70E948218802F0E948819C83055
:1035400040F6D77081E001C0880FDA95EAF70E9453
:103550007B18BFCFC77081E001C0880FCA95EAF71A
:10356000F6CFCF93DF93EC010E94B90D9E01205E50
:1035700031092830310510F0209741F40E9482185B
:103580008C2F0E943919DF91CF9108950E947118F4
:10359000F7CF662329F02091A70622602093A70683
:1035A0009C013056211540E2340720F0305E211591
:1035B000304108F499270E94B11A0895B0E0A0E0C4
:1035C000E4EEFAE10C9497377C018B01D42E8091C4
:1035D000170182FF8CC0C0918705D0918805CE1558
:1035E000DF0521F0E114F10409F081C08091170199
:1035F0008B7F8093170181FD73C080918505909129
:103600008605A801481B590B81E0209115013091D6
:1036100016014217530708F480E08170F82E80915C
:103620001701F0FA81F980931701FE0183E0F69506
:10363000E7958A95E1F7EE71FF27EF5BFA4F20815E
:103640003181AE014F70552781E090E002C0880FB4
:10365000991F4A95E2F7FF2009F444C0822B932B6F
:10366000918380838091400581FF08C0809117017C
:1036700080618093170182E00E94AC0C809140052C
:1036800085FF08C08091170180628093170180E256
:103690000E94AC0C6F2DCE010E94C91ADD2031F0C2
:1036A00080917C0585FF02C086FF3BC080917F052D
:1036B000909180050E94900E8091870590918805D9
:1036C0009C013056211540E2340720F0305E211570
:1036D000304108F499270E9421190E944A131DC005
:1036E00081E09BCF8095909582239323B9CFC7012A
:1036F000992797013056211540E2340728F0305EB3
:103700002115304108F0C7010E94211980918705D9
:10371000909188058E159F0501F3109386050093FF
:103720008505CDB7DEB7E7E00C94B33768EE7EEFE2
:1037300090E080E00E94253860E082E090E00E9406
:10374000073860E083E090E00E940738109228027A
:1037500060E084E090E00E94073864E082E290E05C
:103760000E94073860E085E090E00E94073860E042
:1037700086E090E00E9407386FEF87E090E00E94BB
:10378000073840E050E0BA0188E090E00E94193824
:1037900060E08DE090E00E94073840E050E0BA0120
:1037A00088E190E00E94193860E087E190E00E9493
:1037B000073840E050E0BA018CE190E00E941938EF
:1037C00070E060E080E290E00E94253840E050E048
:1037D000BA0188E190E00E94193880E00E94AC10A4
:1037E0000E94CB1740E050E0BA018FE090E00E94C9
:1037F000193840E050E0BA0183E190E00E941938A6
:103800000895A7E0B0E0E7E0FCE10C948C377C0180
:10381000DC0113964D915C91149711966C91119760
:103820008C910E94DB078111EEC061E0C7010E940C
:10383000C80F8C01F70182818823E1F080917F0617
:10384000909180060097B1F00817190799F0FEE0F3
:103850008F9FC0011124FC01E655FD4F208124609B
:1038600020838B559D4FDC010D931C930E942213E6
:103870001092A706F7018281882311F40C94C124C9
:10388000C80182519F45409710F00C94B5248FEFEA
:1038900097E00E94F9378111A6C07EEED72ED00E98
:1038A0000BEF15E0D11036C019821A821B821C82E0
:1038B00099249A9468012FEFC21AD20AC8010E9473
:1038C000F93789831A82882309F48DC0813009F081
:1038D0007FC0580132E0A30EB11CC6010E94F93727
:1038E000C82E8A83882309F47EC0C5010E94F93757
:1038F000D82E8FEF8C0D8330D8F4580143E0A40EFE
:10390000B11CDB82DD2021F0CE0101960E94AA19B4
:103910008501D0CF0115F8E01F0709F464C0C80184
:103920000E94F937811101C0DA940F5F1F4FBACF9F
:103930008BEF8C0D833030F5C8010396DB825C0180
:10394000DD2031F3580154E0A50EB11C0E94F93777
:103950008C838823E9F28B819C818130AFEF9A07B9
:1039600010F0982F8827B6E0CB1631F0E7E0CE169E
:1039700031F00E94302CCCCF0E940A2CC9CF0E947B
:10398000912BC6CFF4E0CF12C3CF580124E0A20E92
:10399000B11CC80103960E94F937DD2021F188236C
:1039A00011F18150990B989E9001999E300D112430
:1039B0004D2D4150550BCA01820F931F019708F4FA
:1039C000A7CFAFE9BFE01197F1F700C00000F6CF35
:1039D000CE0101960E94AA1956019ACF81E00E9459
:1039E000D4130E948A1380911C02877061F0D70162
:1039F00012968C91882339F080913F0582FF03C095
:103A000082E00E94A3132796E2E10C94A83781E09C
:103A10000E949613E6CF82E0FBCF823011F00C9427
:103A2000FF2480919F029091A002892B09F4E7C79F
:103A30002EE02C9DC0012D9D900D1124FC01E6551A
:103A4000FD4F20812E7F20838B559D4F0E94221396
:103A5000D6C781E080930001C6CF80910001882302
:103A600009F4AFC6480120EE821A9108409027025F
:103A700080919D01482A80914005482A38E08316AC
:103A8000910408F086C098012770332781E090E008
:103A900001C0880F2A95EAF7552009F477C0482A13
:103AA000D7018D919C910E94380D21E030E0F90101
:103AB00002C0EE0FFF1F8A95E2F7FF83EE8320908E
:103AC0007A0630907B0660909A0170909B011D826F
:103AD0002D81E22FF0E0EE0FFF1FEA5DFB4FC0806B
:103AE000D180C114D10409F4D0C6411005C0D6015B
:103AF00012968C91811189C0F601838190E02E810C
:103B00003F8182239323892B09F47FC08085982FDE
:103B1000977009F487E038E08316910408F053C0E9
:103B2000552009F44CC086958170882309F46DC036
:103B3000D601AD90BC900A151B0519F4552009F467
:103B400064C0C214D30409F460C0D6011D96ED917F
:103B5000FC91309721F08081882309F456C0642DB0
:103B6000C6010E94BB07882309F44FC00A151B0534
:103B700009F099C70115110509F49AC751109AC7A0
:103B8000A614B70409F041C0512C94C7809548226F
:103B900087CF552009F462C610939B0100939A01C8
:103BA0000E94FF06609371067093720680937306FD
:103BB00090937406109279061092780671CF82FB6A
:103BC000882780F9B2CF552001F18170AECF0E94D5
:103BD00089188EC70497813A910558F46A2D82E9B5
:103BE00091E00E941707552009F4EBC50E94B1121D
:103BF000FACE0E94B1128FE39CE90197F1F700C061
:103C000000008A2D0E943919EECF9D819F5F9D8310
:103C10005FCFFC01208131810217130709F0CAC56B
:103C20005110CAC51092770680E00E94BB18C9C522
:103C3000902F812F0EC6F901858181FF3AC6C901F7
:103C40000E94081336C68091170181608093170186
:103C50005EC6809117018E7F809317010E944A13E0
:103C600056C6809117018F7E013E110531F0053E49
:103C70001105C9F4809117018F7D80931701809100
:103C8000170180FF53C6D70112968C910832110597
:103C900028F50E31110508F072C00430110580F5C9
:103CA000811140C643C6C8019056811540E2940771
:103CB00020F0905E8115904110F78091170182FFEE
:103CC00035C680917E0581FD31C629E532E040E0B0
:103CD000B60190E080E00E94DE1A28C60933110583
:103CE00058F40D32110518F40B321105C9F69091F4
:103CF0007C0592FDD5CF08C004361105C1F3D0CFA5
:103D000090917C0594FDCCCF882309F4A8C08091C4
:103D1000270290914005892B8D7FB1F11092880583
:103D20001092870580917C0581FD2EC0F80143E04B
:103D3000F695E7954A95E1F7EE71FF27EF5BFA4FAD
:103D400098012F70332781E090E002C0880F991FFF
:103D50002A95E2F7809590952081318182239323E3
:103D60009183808360E0C8010E94C91A8091270274
:103D70008D7F0E94910C82E00E94A31334CE90911B
:103D80007C0593FD8DCFC0CF88E0F701A9E5B2E0B7
:103D900001900D928A95E1F710925B0210925D02FC
:103DA00010925C0280918705909188050817190789
:103DB000D1F520917C0525FF36C03091170131FFE8
:103DC00002C026FF30C0209185053091860556013E
:103DD000A21AB30AB7010E94E710A816B90618F58F
:103DE0008091400581FF08C0809117018061809318
:103DF000170182E00E94AC0C8091400585FF08C04D
:103E00008091170180628093170180E20E94AC0CC0
:103E10006091170166956170809187059091880582
:103E20000E94C91AE0CD8091270290914005982BFD
:103E30002091170191FB21F9209317018D7F0E949A
:103E4000910C1093880500938705D0928605C09247
:103E50008505809117018460809317018CCF9701AD
:103E600040E0B601C8010E94DE1ABDCD053F4CE519
:103E7000140709F463C008F45BC0063F8CE518071B
:103E800009F462C0D70112963C91332309F4D8C5D6
:103E900010927E060330BDE51B0708F061C00A3FA3
:103EA000ECE51E0730F4C80182509C45449708F0A9
:103EB00063C00E94EF0F90933F0580933E0502314F
:103EC0005CE5150709F49EC108F0EEC009309CE5D9
:103ED000190709F475C108F0B8C00530BCE51B0727
:103EE00009F462C108F09FC00330FCE51F0709F424
:103EF00053C108F055C180913E05816002303CE518
:103F0000130709F4CEC080913E0590913F050E94B1
:103F1000C5100E94FC1367CD07E225EE45EE68ED63
:103F20007CE51FC506E221EE40EE63EF7CE519C596
:103F300007E225EE44EE64EF7CE513C506E221EED0
:103F400042EE65EF7CE50DC507E225EE46EE66EF35
:103F50007CE507C508E221E045EE69ED7CE501C599
:103F6000053AFDE51F0709F4A4CF08F055C0013656
:103F70004DE5140709F49DCF06318CE5180709F4C7
:103F800064C50A355DE5150709F495C108F06EC1F1
:103F900001159CE5190709F474C10E3D1C4509F48F
:103FA0007DC1F70186819781009709F488C10E943D
:103FB000F80A182F092FF701D280C580C2943FE07C
:103FC000C32280911C028770C1F0AD2CDD20B1F0BE
:103FD000892F807F803421F080E2810F883068F063
:103FE00080913F0582FF09C082E00E94A313809167
:103FF0001C028770AA24A3948111A12C902E929464
:104000002FE09222FBE0F91508F4E6C1E92DF0E07B
:10401000E15BF74C0C947F37C8018D5A9D4503979F
:1040200008F0AACF46CF80913E05806207304CE56C
:104030001407B9F180913E05806108305CE51507F1
:1040400080F180913E0580642CC00D308CE518070E
:1040500009F4C0C090F480913E058E7F0B30ACE532
:104060001A07F9F080913E058C600C30BCE51B0707
:10407000C0F080913E058D7F14C00F30ECE51E0727
:1040800009F4B8C008F4AAC000312CE5120709F4FD
:10409000B5C080913E058F7B01313CE5130709F0E7
:1040A00032CF80933E052FCF0F3F4CE5140709F424
:1040B000B3C0A8F50A3F8CE5180709F479C0C0F42D
:1040C0000431ACE51A0709F4B5C008F4A1C0053104
:1040D000ECE51E0709F017CF80913E0582FB99277A
:1040E00090F921E0922790FB82F990FB83F9D9CFD8
:1040F0000C3FFCE51F0709F475C008F45DC00D3FD7
:104100003CE5130709F472C080913F0583600E3FC0
:104110004CE5140709F0F7CE80933F05F4CE013645
:104120005DE5150709F491C090F401309DE519078C
:1041300009F489C008F474C060E00230BDE51B07D3
:1041400009F0E1CE8EE090E00E940738DCCE0D3A17
:10415000EDE51E07E9F060F490913E05892F8E7F12
:1041600090FF8160053A2DE5120709F49ACFCBCE76
:104170000E3A3DE5130751F10F3A4DE5140709F0EA
:10418000C2CE90913F05892F877F93FF8860C4CF6F
:1041900080913F058860C0CF80913E05826081CFCD
:1041A00080913E0584607DCF80913E05886079CF07
:1041B00080913F058160B0CF80913F058260ACCF98
:1041C0000E94FC1380913E0580686BCF80913F0573
:1041D000877FA2CF80913E058B7F63CF80913E0584
:1041E000877F5FCF80913F058E7F96CF80913F057F
:1041F0008D7F92CF80913E058F7E53CF80913E057B
:104200008F7D4FCF0E94FC1380913E058F7749CF61
:1042100080913E05837F45CF80913F058C7F7CCF89
:1042200080913F05982F909591708E7F892B90FB00
:1042300081F972CF0E94FC1390913E05892F97FB64
:1042400087F980582ECF61E07DCF90913E05892F70
:104250008F7E94FF806125CF80919C01811104C0E5
:1042600089E20E94DA0CC2CC85E3FBCF0C35BDE5B8
:104270001B07B9F010F1073A1D4509F092CE0E94D4
:1042800054180E94FC132FEF34E34CE021503040CF
:104290004040E1F700C000000E946C0E0E94961B97
:1042A000EECF80913F0582FB882780F991E0892736
:1042B0000E94BF1376CE81E0FBCF80E0F9CF8281F0
:1042C00000811181882369F0C8010E944C0FD82E0B
:1042D000682FC8010E94820DB8018D2D0E94220F07
:1042E00066CEC8010E94380DD82EF6CF202F2F7031
:1042F000B22E802F807F19F0B29490EFB922DD208A
:10430000A9F0BB2059F080E2810F883010F0111124
:1043100007C08B2D0E94B30C0E94B112812F5AC08E
:104320008091A706B82AB092A706F6CF812F0E94E7
:104330008918BB2009F450C080E2810F883010F04A
:10434000111104C08B2D0E94AC0C03C08B2D0E9458
:10435000A50C0E94B11240C0302F3F70B32E802FA9
:10436000807F803219F0B29480EFB822112321F1BE
:10437000113009F4AEC0DD2009F4B7C0CC2009F437
:104380007FC020E0D7014C9111965C911197129655
:104390006C91129713967C91139714968C910E94AE
:1043A000A50F80917E0581FDB9CFF701858180FF42
:1043B000B5CF8F70858364C080913F0582FD40C07A
:1043C000DD20C1F1BB2029F08B2D0E94B30C0E948F
:1043D000B11280E00E943919A92DA850BB0B149787
:1043E00010F40E945D07812F902F0E949E0D811175
:1043F000C2C110929F0110929E01AA20B1F080913B
:104400001C0280FD12C0D70112961C9285958595DD
:1044100085950E94D413C7010E94011C80911C0243
:104420008595859585950E94961360E0C7010E9449
:10443000C80FE9CA80E00E948918BB2069F282CFC8
:10444000DD2011F1C11004C0809127028B2919C011
:1044500041E0C41206C0809127028B290E94910C72
:10446000BBCF80917D05823078F3C812EDCF0E94DA
:10447000860C90919D018B2D892B891380939D0132
:104480008B2D0E948218A8CFC11003C00E94860CF9
:1044900017C080917D0551E0C51216C0823008F426
:1044A0009BCF809140058B2109F496CF0E94860C0A
:1044B00090919D018B2D80958923891380939D0177
:1044C0008B2D0E947B1888CF823000F3C812DECF7C
:1044D00083CF80918305DD2021F08C1508F47CCFFB
:1044E000CFCFC81608F078CFEBCFCC2049F380911E
:1044F000810590918205193321F080917F0590917B
:1045000080050E94900E812F0E94891865CF802F10
:1045100086958695837069F0813009F05DCF812F93
:10452000902F9370D11002C090E080E00E9431077C
:1045300053CF812F902F9370D11002C090E080E074
:104540000E94470749CF812FDD2029F00E94340ABD
:104550000E94F20841CF0E941909FACF802F837080
:1045600091F5D11039CF412F429546954770440FB0
:10457000440F812F8F70042E01C0880F0A94EAF730
:10458000212F207114FF07C02FE030E001C0220F5F
:104590004A95EAF72095302F3695369533703230AC
:1045A00069F050F440912802313029F0822B8423A5
:1045B0000E94F71311CF842B822BFACF282B8091E6
:1045C00028028227F5CF8695DD2011F0802F81709B
:1045D000882309F401CF412F429546954770440F37
:1045E000440F812F8F70042E01C0880F0A94EAF7C0
:1045F000212F207114FF07C02FE030E001C0220FEF
:104600004A95EAF72095302F36953695337032303B
:1046100069F050F44091A606313029F0822B8423B2
:104620000E948513D9CE842B822BFACF282B809120
:10463000A6068227F5CFF02FFF70BF2EDD2029F0D0
:104640008F2F0E94D413812F1CCF812F0E947B18A3
:104650008B2D0E949613C0CE123F89F160F4103F5B
:10466000B9F0113F81F0DD2009F480C0C11056CEB1
:10467000802F8F7128C0133F49F1143FA1F780911B
:104680003F0582FD2FC0802F8F71DD2011F31BC0ED
:1046900080918305DD2079F0C81608F09DCE202F8B
:1046A0002F7181E090E001C0880F2A95EAF7909180
:1046B000A6068927B5CF8C1508F48ECEF0CF802FB3
:1046C0008F71D110C6CF0E94D41386CE80E0DD203A
:1046D00009F4A6CF81E0902F9F7101C0880F9A95B1
:1046E000EAF79ECF80917D05823040F1DD20D1F048
:1046F00090911C029770943041F40E94B90C802F65
:104700008F710E949613A12C67CEC816E0F7202F58
:104710002F71B22E822F0E94D41363E08B2D0E9442
:10472000E013F1CFC81630F00E94B90C64E0802F7E
:104730008F71F5CF81E00E94A313E5CFDD2059F002
:10474000302F3F71B32E832F0E94D41363E08B2D43
:104750000E94E01341CE81E00E94A31341E04C157A
:1047600008F03ACE82E00E94A31336CEC110BFCE2D
:10477000802F8F716ECFDD2019F0C1103ACE3DCE63
:10478000C11037CE20E0F7014081518162817381F1
:1047900084810E94A50F80917E0583FF2ACE80919F
:1047A0009E0190919F01029709F023CE812F0E94D4
:1047B00088191FCE552029F0DC0118968C9185FFB1
:1047C00033CAC80197558F3F910511F008F071C0A9
:1047D0005801BB24BEE00B9FF00111249F012B5513
:1047E0003D4F6901D70112968C91E655FD4F90819E
:1047F00080FB90F99083882309F41DCA0E940B075F
:104800009093580280935702F60182818F5F8283D2
:104810008091A70690914005892B83838091270280
:1048200084830680F781E02D309731F0D6011C9605
:104830006D917C91C60109958EE08A9DF0018B9D5A
:10484000F00D1124EB55FD4F858181FFF1C990E0FA
:1048500080E090937F06809380062BC080919A0120
:1048600090919B010817190781F410929B011092F7
:104870009A011092710610927206109273061092AD
:104880007406109279061092780680917A069091BB
:104890007B06009709F495CFA8E08A16910408F0EA
:1048A000B8C9642D0E94BB07811103C081E00E943A
:1048B000BB1880917C0580FF39C00E940B076C01FA
:1048C000D70112968C91882309F4CBC980911701E6
:1048D00082FF08C029E532E040E0B60190E080E0C8
:1048E0000E94DE1A0B31BCE51B0709F4ACC90C3180
:1048F000ECE51E0709F4ADC990911701892F8E7F51
:1049000090FF81600A31FCE51F0709F4A5C9C801C1
:104910009056811520E2920728F0905E8115904113
:1049200008F0ADC91092880510928705033FBCE5D9
:104930001B0709F4F7CA08F099CA083DFCE51F07F0
:1049400009F4EACA093D2CE5120709F403CB073D37
:104950003CE5130709F096CA06E221EE41EE67ED49
:104960007CE5C7010E944B1A3EC80031FFE51F07D6
:1049700009F434C801312FE5120709F040C082E084
:104980002EC800313FE5130709F441C801314FE556
:10499000140709F440C86801E7E5DE1AFFEFCF16F7
:1049A000D10409F060F56BE972E08C2D0E94D31000
:1049B000892B29F58EE08C9DF0018D9DF00D112441
:1049C000EB55FD4F8281813009F027C880919B0211
:1049D00090919C02892B99F080919D0290919E026A
:1049E000892B69F080919F029091A0022091A102F1
:1049F0003091A202822B932B892B09F419C8D7017D
:104A000012965C90552009F428C80F35BDE51B07A8
:104A100009F41FC80036EDE51E0759F00E35FDE517
:104A20001F0709F01AC880910001882311F40C9423
:104A3000291D1092000180E00E94BB180C94F31C09
:104A400006315CE5150709F0ACCA80914005982F46
:104A50009A7A20917B0520FF04C0482F447409F006
:104A600090E021FF04C0482F417109F090E022FF3F
:104A700004C0482F487809F090E023FF03C08272F9
:104A800009F090E0332309F4E7CB81E0911101C0F4
:104A900080E080939C0169E2911165E382E991E0F5
:104AA0000E941707A3C8A114B10409F069C8512CCA
:104AB000B12CA12C80E00E94BB18D0927B06C09242
:104AC0007A0681E080937706F601858180937506EA
:104AD00051100EC0AB2861F0F601808191819C01DC
:104AE00024503109213A310508F071C80E94DA0CCE
:104AF000D6011696AD90BC90C5019A9581159F413F
:104B000010F4E0EEBE2277247394C5010197803B38
:104B10009D4508F0712CD6011996ED91FC911A97DC
:104B2000309731F01B966D917C9181E00995782248
:104B3000772079F0F601868197810E94B90D8093E4
:104B40007606C501F8E08F16910408F043C80E946C
:104B50006A070E94B11247C8B0E0A0E0E2EBF5E2BC
:104B60000C9496378091D501807F31F48091D201E9
:104B7000C0911902811107C0CDB7DEB7E8E00C94EF
:104B8000B2372196C7708091D8018C17A9F3F090A5
:104B9000D001E090D101C090D301D090D401A60102
:104BA0006E2D8F2D0E94DB07D0E08111EACF8E01A0
:104BB00083E0000F111F8A95E1F7F801E752FE4FDD
:104BC00081818E11DECF80818F11DBCF82818111B7
:104BD000D8CFE380F480EC18FD0860E080ED91E030
:104BE0000E94C80F60ED71E00E94E710E816F90618
:104BF00040F68091D5018F7080618093D501F801D6
:104C0000E252FE4F80818F708061808380ED91E061
:104C10000E94011C0E94070DAFCFA5E1B0E0E3E1C7
:104C2000F6E20C948F378C0185E0F801DE01519695
:104C300001900D928A95E1F7D8015C9011966C90E5
:104C400011971296EC9012971396CD90DC9060E03D
:104C500080ED91E00E94C80F80EDA82E81E0B82E73
:104C60008090D3019090D401A4016091D1018091F2
:104C7000D0010E94DB078111A8C1F090D201F6019A
:104C8000E819F9094F0160E0FF2009F44BC1C501A3
:104C90000E94C80FB5010E94E7107090D5018816D8
:104CA000990608F0F2C04091D3015091D401B09020
:104CB000D001A090D101872D807F6A2D09F08CC092
:104CC0008B2D0E94DB07FE2C811127C0D801119685
:104CD0008C9111978A1121C08C918B111EC020914B
:104CE000D6013091D70116968D919C9128173907DE
:104CF000A1F4E11012C0872D8F7080618093D501DF
:104D000080ED91E00E94011C8091D501F80185831E
:104D10008F2D6596EFE00C94AB37A601662D852D9F
:104D20000E94DB07D82E81E08E25D11080E080FF25
:104D300018C04E2D662D852D0E94E70C882389F022
:104D400080917E0580FF0DC080ED91E00E94011CE6
:104D500088E0E0EDF1E0DF011D928A95E9F7F12CA2
:104D6000D7CF81E08E25D11080E0B82FB170CB2E47
:104D700080FF29C04E2D662D852D0E94E70CD82E70
:104D8000811121C0598A6A8A89899A890E947B0F78
:104D9000292F22952F70223050F0243078F49F7004
:104DA00051F0F8019581907F31F4FD2CB1CF9F70C7
:104DB00011F08823D1F3805E8830B8F3C8010E94D7
:104DC000011CDC2CF2CFEE2009F4A2CF8091D5019A
:104DD00081608093D501C3CF8B2D0E94DB078111A9
:104DE00024C0D80111968C9111978A111EC08C9104
:104DF0008B111BC02091D6013091D70116968D9151
:104E00009C9117972817390781F4E1100EC0159669
:104E10007C92C8010E94011C88E0F801A0EDB1E07D
:104E200001900D928A95E1F773CFC8010E94880F17
:104E3000882339F1EE2029F18091D5018032A0F04C
:104E40002091D0013091D1013A8729871B86DD86D8
:104E5000CC868E878091D6019091D701988B8F87D1
:104E6000CE0109960E94011C88E0F801A0EDB1E096
:104E700001900D928A95E1F70E94AC25FF24F394EE
:104E800047CFC8010E94011CF9CF872D807F09F40C
:104E90005BCF9090D0018090D1014091D30150918F
:104EA000D401682D892D0E94DB0781111CC0F801F7
:104EB0008181881118C08081891115C02091D60187
:104EC0003091D701868197812817390761F4E11065
:104ED0000AC07582C8010E94011C88E0D5011D929C
:104EE0008A95E9F715CFC8010E94880F882349F2F7
:104EF000EE2039F28091D501803208F4B5CF2091AF
:104F0000D0013091D1013A8329831B82DD82CC828A
:104F10008E838091D6019091D70198878F83CE019F
:104F20000196A0CF80ED91E00E94C80F60ED71E086
:104F30000E94E7108816990680F6FE2CEE2009F4F0
:104F4000A0CFE090D001D090D1014091D3015091F9
:104F5000D4016D2D8E2D0E94DB07811128C0F80130
:104F600081818D1124C080818E1121C02091D601B4
:104F70003091D7018681978128173907C1F4809134
:104F80007E0582FD49CF9091D50190FD45CF907F60
:104F900009F442CF8091D5018583903F09F439CF40
:104FA000982F907F905F8F70892B858332CFC801B7
:104FB0000E94880F811158CF8091D5018160809324
:104FC000D501C8010E94011CA3CEEE2009F459CFDF
:104FD000C8010E94880FF82E882309F452CF88E078
:104FE000F801A0EDB1E001900D928A95E1F7809172
:104FF000D0019091D1010E947B0F0E94AC2588CEF8
:10500000A0E1B0E0E6E0F8E20C949C3729873A870B
:105010004B875C876D877E878F87988BCE0109963B
:105020000E940D2681112FC088E0FE013996DE0115
:10503000119601900D928A95E1F74C855D856A8500
:1050400089850E94DB0781111EC0A091D801B0E0C4
:10505000CD0101968770992720911902281719060A
:10506000E1F093E0AA0FBB1F9A95E1F7A752BE4F5C
:1050700098E0FE01319601900D929A95E1F78093A8
:10508000D8010E94070D809119029091D8018913CF
:1050900012C06096E2E00C94B8370E94FC131092A4
:1050A000D8011092190288E0E0EDF1E0DF011D92D5
:1050B0008A95E9F7E8CFB8E08B9FC00111248752A9
:1050C0009E4F0E940D26882321F38091190290E0C3
:1050D00001968770992780931902D5CFEF92FF929E
:1050E0000F931F93CF93DF9380918C05882361F0FA
:1050F000C0918B058CE0F82E80918C05C81748F084
:1051000010928C0510928B05CDB7DEB7E6E00C94BB
:10511000B437EE24E394EC0EE0928B050C2F10E0F4
:10512000CF9DE0011124C357DA4F4B815C81698127
:1051300088810E94DB0781111DC08E819F81892B90
:1051400021F488859985019651F4288139814A8115
:105150005B816C817D818E819F810E940028F09E01
:10516000F001F19EF00D1124E357FA4F14821382DF
:105170001092A706CE2DC0CF109268061092670637
:105180001092180180916606809365060E941408AB
:105190000E946E280895B0E0A0E0E1EDF8E20C94E2
:1051A0008D37C091650697E0892E01E010E02CE074
:1051B000322E3EEF932E44244394809166068C1346
:1051C00009C00E946E280E941408CDB7DEB7E1E145
:1051D0000C94A937D0E0FE01EE0FFF1FE35AF94F00
:1051E00080819181889ED001899EB00D1124A351A8
:1051F000BA4F14962C911497211158C050908C05D9
:10520000EDE8F5E030E020E0712C5D01251508F0B7
:105210004BC0E284F384D501CD90DC906FEF7FEF3B
:10522000612C462D50E0DA01AA0FBB1FAC0DBD1D4D
:105230000D90BC91A02D109731F0EA16FB0609F4F1
:10524000BA016394EECF6F3F7607A9F1D80102C08F
:10525000AA0FBB1F6A95E2F77A2AB801062C02C092
:10526000660F771F0A94E2F7AB014150510974169B
:105270001506F9F4329EF001339EF00D1124E35728
:10528000FA4F889ED001899EB00D1124A351BA4FC8
:1052900012962D913C9113973783268390829182A9
:1052A0009187808715964C920E94E6072196C370DD
:1052B00084CF148213822F5F3F4F3C96A7CFA9E182
:1052C000B0E0E5E6F9E20C948C37942F498B252F5A
:1052D0005A8B6B8B7C8B8D8B4C895D89622F892FD0
:1052E0000E94DB07811109C080919E0190919F016E
:1052F000019690939F0180939E018B89811110925A
:10530000A7061D861E861F86188A85E0FE017196F7
:10531000DE01199601900D928A95E1F780913F0583
:1053200082FF1EC08091630590916405892BC1F0B6
:105330000E940B0720911A0230911B02821B930BD3
:1053400020916305309164058217930720F08091C6
:105350001C0282FFE2C10E94C00C81110E94860CD7
:105360004C855D856A8589850E94DB07811111C0A6
:1053700061E0CE0109960E94C80F6C018B8527EF72
:10538000C2162CE5D20681F4882321F181E08093B6
:10539000180129853A854B855C856D857E858F85CD
:1053A00098890E940028C6C038EFC3163CE5D30692
:1053B00029F4882379F00E94BC28EBCF49EFC4166A
:1053C0004CE5D40639F4882329F080911801811125
:1053D000F2CFDCCF0DEE15E0512CB12CA12C222404
:1053E0002394312C2EEF422EF801408151818824E4
:1053F0008A94982C20E0822F90E0FC01EE0FFF1F92
:10540000E40FF51F608171816115710531F0C616D9
:10541000D70609F44C012F5FEECFF12CFFEF8F166A
:105420009F0609F449C0F8014481F09018018F2DBE
:10543000411180E0F82FF170FF2EF801E5808681A0
:105440009B85992309F4F8C0FF2009F4F5C060900A
:10545000770570907805E11013C0A101082C01C0F8
:10546000440F0A94EAF7842B8683809189059091F2
:105470008A058615970520F470928A056092890541
:10548000C10102C0880F991F2A95E2F70197F80120
:1054900026812817190681F4809167069091680685
:1054A000009709F44BC00E94F0066816790608F0D0
:1054B00045C021E0F80124835F28FFEFAF1ABF0A3F
:1054C000095F1F4F20E1A216B10409F08DCF8B8533
:1054D000882309F40DC1552009F40AC10E940B0765
:1054E000909368068093670680918C05883010F54C
:1054F00091E0980F90938C0598E0FE013996DE01BB
:10550000119601900D929A95E1F73CE0839FC001BE
:10551000112483579A4F28E0FE013196DC01019057
:105520000D922A95E1F72FEF3FEFFC01318720879D
:10553000D386C2866996E2E10C94A837809165060D
:1055400050916606982FF0E0E0E0851314C0909328
:105550006506E017F10709F4AFCF90E0FC01EE0F0C
:10556000FF1FE35AF94FB182A082019683709927F9
:1055700080936606A1CF682E712CF301EE0FFF1FFA
:10558000E35AF94F2081318147E0429FD001439F88
:10559000B00D1124A351BA4F6D917C911197798F61
:1055A000688F40E020E030E0E32FF0E0EE0FFF1FD7
:1055B000688D798DE60FF71F8080918081149104AA
:1055C000E1F0F8010190F081E02DFF8BEE8B20E0FF
:1055D00005C08616970609F44F2D2F5FE22FF0E0E5
:1055E000EE0FFF1F6E897F89E60FF71F60817181C3
:1055F0006115710571F73F5FD7CF4423D1F0F801F2
:10560000231708F0FD0121E024830E171F0721F462
:1056100090936506F42E50CF981305C0AE17BF07C0
:1056200011F49F5F937093012F5F3F4F822F837020
:105630008CCFF0E0E0E0F7CF90E0E11020C0B101C6
:1056400002C0660F771F2A95E2F79B0121503109AE
:105650008217930731F4442309F448C0C5010E941E
:10566000E607C101082C01C0880F0A94EAF7982FB9
:105670009095F801868189238683FE2C1DCF9C019D
:10568000082C02C0359527950A94E2F7A9014170CC
:105690005527BC016150710986239723892B11F589
:1056A000452B01F1F80182819381892BC1F01B8286
:1056B0001C821D821E8249824A820E940B078160E1
:1056C000582F9D838C83F801828193818F839887E3
:1056D00029813A814B816D817E810E940028F801E9
:1056E0001582BFCFF22FF170EF2EBBCFEF2CB9CFC9
:1056F0009091650680916606981731F00E94CB283C
:10570000552009F446CE16CF0E946E2810926806E6
:10571000109267060E941408F3CF82E00E94A31340
:105720001ACEA5E0B0E0E7E9FBE20C949C37909339
:105730003B0580933A05811520E2920730F40E94E0
:1057400021192596E2E00C94B83780EF89838A838B
:105750001B820E940B078160782F9D838C83498177
:105760005A816B818D810E945F29EBCF0F931F932C
:10577000CF93DF938C01EB016BE972E08C2F0E94D9
:10578000D310892BA1F480917F05909180050E9410
:10579000900EDD27C557DD4F8881F80112821882EF
:1057A0008330F1F048F4813059F0823081F0DF919C
:1057B000CF911F910F9108958430B9F08530B9F7DA
:1057C00080919B0290919C02009789F306C0809182
:1057D0009D0290919E02009799F30E94912BE7CF32
:1057E00080919F029091A002F6CF8091A1029091AA
:1057F000A202009791F720919B0230919C02809128
:105800009D0290919E0221153105F1F2009729F732
:10581000C901E3CFA5E0B0E0E0E1FCE20C949C37E5
:1058200090933B0580933A05811520E2920730F46E
:105830000E94B11A2596E2E00C94B83780EF898374
:105840008A8381E08B830E940B078160782F9D8380
:105850008C8349815A816B818D810E945F29EACFB7
:10586000CF93DF93EC010E940A2C80917F059091E9
:1058700080050E94900ECE010E94912BDF91CF9166
:1058800008950F931F93CF93DF938C01862F6BE9BD
:1058900072E00E94D310892BB1F4C0919B02D09189
:1058A0009C02209781F0F8018281833051F4CE016F
:1058B0000E94302CCE010E94302CCE010E94302C50
:1058C00002C08430D0F7DF91CF911F910F910895DE
:1058D0000F931F93CF93DF938C01EB016BE972E081
:1058E0008C2F0E94D310892B09F05CC0FE01FF278A
:1058F000D80112968C911297E557FD4F8130B9F47B
:1059000015969C9192FF02C080830AC090FFFCCF45
:1059100082E0808380919D0290919E020097B9F46D
:1059200080919B0290919C020097E1F110C082301F
:10593000B9F515968C9182FD28C080FD0BC083E0DF
:10594000808380919F029091A002009701F10E94B4
:105950000A2C28C084E080838091A1029091A20249
:105960000097A9F780919B0290919C020097F9F013
:105970000E94302C80919D0290919E02009739F7F1
:1059800080919B0290919C02E2CF85E08083809180
:105990009B0290919C02009729F00E94302CF0CF3E
:1059A00086E08083DF91CF911F910F9108958091C0
:1059B0009D0290919E02B8CF1F920F920FB60F9248
:1059C00011242F933F934F935F936F937F938F9304
:1059D0009F93AF93BF93CF93DF93EF93FF93D091B8
:1059E000E900DF708091EC00C82FC17080FDC0E835
:1059F0001092E9008091F000877F8093F000789406
:105A00000E9408141092E9008091F0008860809351
:105A1000F000CD2BCF70C093E900FF91EF91DF91A3
:105A2000CF91BF91AF919F918F917F916F915F9136
:105A30004F913F912F910F900FBE0F901F9018958F
:105A40001F920F920FB60F9211242F933F934F93F3
:105A50005F936F937F938F939F93AF93BF93EF93D6
:105A6000FF938091E10082FF09C08091E20082FFF4
:105A700005C08091E1008B7F8093E1008091DA0086
:105A800080FF24C08091D80080FF20C08091DA0080
:105A90008E7F8093DA008091D90080FF9DC088E1DD
:105AA00089BD8AE189BD09B400FEFDCF81E0809304
:105AB000A50680918F06811109C00E9440050E94B1
:105AC00033068091E20084608093E2008091E100DF
:105AD00080FF17C08091E20080FF13C08091E20038
