:100000000C94DE040C9416050C9416050C9416053D
:100010000C9416050C9416050C9416050C941605F4
:100020000C9416050C9416050C94FB320C94CF33EB
:100030000C94242D0C9416050C9416050C9416059E
:100040000C9416050C9416050C9416050C941605C4
:100050000C9416050C94AA2D0C9416050C941605F8
:100060000C9416050C9416050C9416050C941605A4
:100070000C9416050C9416050C9416050C94160594
:100080000C9416050C9416050C9416050C94160584
:100090000C9416050C941605290000002900010097
:1000A00035001E001F002000210022002300240034
:1000B0002500260027002D002E002A004C005600A7
:1000C00054005500000000003A003B003C004A008C
:1000D0002B0014001A000800150017001C0018005F
:1000E0000C00120013002F003000310001005F00EF
:1000F00060006100010058003D003E003F004B00E1
:10010000390004001600070009000A000B000D006A
:100110000E000F00330034000000280052005C0085
:100120005D005E00010001004000410042004E0001
:10013000E1001D001B000600190005001100100061
:100140003600370038000000E5000000510059007B
:100150005A005B00010057004300440045004D0079
:10016000E000E300E20001002C00000000002C0091
:100170000000E600E7000100E40050004F0001002D
:1001800062006300010001000100000001000100A5
:100190000100010001000100010001000100010057
:1001A0000100010001000100010001000100010047
:1001B0000100010000000000010001000100010039
:1001C0000100010001000100010001000100010027
:1001D0000100010001000100010001000100010017
:1001E0000100010001000100010001000100010007
:1001F00001000100010001000100010001000100F7
:1002000001000100010001000000010001000100E7
:1002100001000100010001000100010001000100D6
:1002200001000100010001000100010001000100C6
:1002300001000100010000000100000001000100B8
:1002400001000100010001000100010001000100A6
:100250000100010001000100010000000000010098
:100260000000010001000100010001000100010087
:100270000100010001000100010000000100010077
:100280000100010001000100010001000100010066
:100290000100010001000100010001000100010056
:1002A0000100010000000000010001000100010048
:1002B0000100010001000100010001000100010036
:1002C0000100010001000100010001000100010026
:1002D0000100010001000100010001000100010016
:1002E0000100010001000100010001000100010006
:1002F00001000100010001000000010001000100F7
:1003000001000100010001000100010001000100E5
:1003100001000100010001000100010001000100D5
:1003200001000100010000000100000001000100C7
:1003300001000100010001000100010001000100B5
:1003400001000100010001000100000000000100A7
:100350000000010001000100010001000100010096
:100360000100010001000100010000000100010086
:100370000100010001000100010001000100010075
:100380000100010001000100010001000100010065
:100390000100010000000000010001000100010057
:1003A0000100010001000100010001000100010045
:1003B0000100010001000100010001000100010035
:1003C0000100010001000100010001000100010025
:1003D0000100010001000100010001000100010015
:1003E0000100010001000100000001000100010006
:1003F00001000100010001000100010001000100F5
:1004000001000100010001000100010001000100E4
:1004100001000100010000000100000001000100D6
:1004200001000100010001000100010001000100C4
:1004300001000100010001000100000000000100B6
:1004400000000100010001000100010001000100A5
:100450000100010001000100000000000000000098
:100460002A2B28000000000000000000000000000F
:1004700000000029000000002C1E3420212224341A
:100480002627252E362D3738271E1F2021222324EC
:1004900025263333362E37381F0405060708090A88
:1004A0000B0C0D0E0F101112131415161718191A24
:1004B0001B1C1D2F3130232D350405060708090AA2
:1004C0000B0C0D0E0F101112131415161718191A04
:1004D0001B1C1D2F3130354C0000000000000000B7
:1004E000000000000000000000000000000000000C
:1004F0000000000000000000000000007E0F00D49B
:10050000FFFFFFC700000078FD377A585A0000044B
:10051000E6D6B4460200210116000000742FE5A3C0
:10052000E0070D01F85D003D8889C65436C3174FBA
:10053000E4E21131AAE46E2E0F4A5B945164B7597C
:1005400065F2326DDD643A9BB7720457405CFA7015
:100550001981CEBD857687377CA9F0148AD64D24C3
:1005600033CF1FCEDCEE0A3453F5BC826864D785E6
:10057000F9F4226D4AB8A3A98FAC1AA51365F37CD0
:10058000480224FC1705680EDFBF31EA278BFF2ADB
:10059000BD7823CE4575FC06198B819AC172AFD305
:1005A0005E812F49513D4C7EEAFBF0C5587E6CC8F8
:1005B0009A01EBD18F0CDE20B278D92C8279402BB6
:1005C00055DBD988C3E8C82F4A0006C3AAAB8C6B99
:1005D0008F47BB28A21CEFA8204E33986F3EAD4B2F
:1005E0006DE2866D56A28E47FF53AC1EDFC7C995DC
:1005F000690B436F54E261FFF480A32D4274F7FF4F
:10060000DBC640D588FCF94A6F4F58222B5B6974D2
:100610002538FE3BCCA84F02533BA9CE0F2975CFFE
:1006200055A426AA5BF307F433DA35C7FB92D4DF6F
:100630004490C4C1A8660F668CF3C08B08A92860DB
:10064000416F02348E91D7C2CA8C5258506B4FAC56
:1006500051396A607E4F657B624686A9930B31AB48
:10066000E41331C4CDEAC1D53C6AD55D03A6248E1E
:1006700051CE405FAA14910AA945665B4C7F6996EA
:1006800013B8C72B520D58567EAFF53A6ABC9FB3CC
:10069000B0B18FDFD757B8F348F99D8A9820038D02
:1006A000BE74209B24A8C30A7FEB9238C642BCD9F3
:1006B000AB476E6990A2CBBEE387C373B453DD68CA
:1006C000C57635AFA971C8729B6CFE058FBF6CD61D
:1006D000BA677B727FFE974E4598F8FE3E2EA97E44
:1006E0005911E9B731B393AF3BE3A353ACAE587A9A
:1006F00083BBCC1A62CC93386FEE575B4B559FF897
:10070000124C04CCD18C51889C851783274390E7E9
:10071000CD7EAE0FC3E980792811F2F748CF0000F3
:100720002D77FFBFC16331BA000194048E0E000023
:100730004ACA3AB7B1C467FB020000000004595A24
:1007400001000100D104000002000200CD040000FD
:1007500003000100D204000004000200B7048E234D
:1007600005000100D304000006000200B9040000E7
:1007700007000200CF04000008000100D4040000BC
:1007800009000200BB0469230A000200BD046923BA
:100790000B000200BF0469230C000200C10469239E
:1007A0000D000200C30469230E000200C504692382
:1007B0000F000200C704692310000200C904692366
:1007C00011000200CB04692312000200D5040000CE
:1007D00013000200D70400001C03760069006100CA
:1007E0006C003A006600360034006300320062009C
:1007F0003300630000001C034C006F006E006700B4
:1008000020004C006F006E00670020004D0061006A
:100810006E000000160350004C00490050002000FC
:1008200057006F0072006B0073000000040309049E
:1008300009025B00030100A0FA09040000010301A2
:100840000100092111010001224000070581030870
:100850000001090401000203000000092111010048
:10086000012222000705820320000107050303205F
:100870000001090402000103000000092111010028
:100880000122BC00070584032000011201000200C0
:1008900000000857506D6C0000010203010660FF64
:1008A0000961A1010962150026FF009520750881E4
:1008B000020963150026FF00952075089102C00506
:1008C000010902A10185020901A1000509190129F7
:1008D00005150025019505750181029501750381B6
:1008E000010501093009311581257F9502750881BF
:1008F0000609381581257F950175088106050C0AC2
:1009000038021581257F950175088106C0C0050153
:100910000980A101850319012AB700150126B70036
:10092000950175108100C0050C0901A1018504190C
:10093000012AA002150126A002950175108100C0B0
:1009400005010906A1018506050719E029E715003B
:1009500025019508750181020507190029EF150089
:10096000250195F0750181020508190129059505F4
:1009700075019102950175039101C005010906A158
:1009800001050719E029E715002501950875018182
:10099000029501750881010507190029FF15002638
:1009A000FF009506750881000508190129059505C0
:1009B00075019102950175039101C00011241FBEBC
:1009C000CFEFD0E1DEBFCDBF04B603FE18C08091EB
:1009D000EA049091EB04A091EC04B091ED0487300F
:1009E000904BA740B04B59F41092EA041092EB04DC
:1009F0001092EC041092ED04E0E0F8E7099511E0A4
:100A0000A0E0B1E0E8EBFCE602C005900D92A23C4C
:100A1000B107D9F724E0A2ECB1E001C01D92AA3ED3
:100A2000B207E1F70E9491170C9436360C9400003F
:100A30009C013A9521153F4150F5FC01EE27F170DC
:100A4000BC0166277270AC01442754709C012227B8
:100A5000387094FF0EC080E1EF2B09F480E0672B23
:100A600009F08062452B09F08064232B89F08068AF
:100A7000089581E0EF2B09F480E0672B09F0826094
:100A8000452B09F08460232B19F08860089580E0DD
:100A90000895CF93DF93EB010E941805FE01DF91CB
:100AA000CF910994CF93DF93EC01805E9109089771
:100AB00020F060EA78E0209711F462E978E0CE0156
:100AC0000E9449058C2FDF91CF910C94F207CF93B0
:100AD000DF93EC010E944008CE01805E91090897E7
:100AE00020F067EA78E0209711F469E978E0CE0118
:100AF000DF91CF910C94490581E0089581E008953C
:100B00000C947E0508950C9482051F93CF93DF9378
:100B100000D000D00F92CDB7DEB749835A836B83E4
:100B20003091C50189819A8131111DC06623B9F0C8
:100B30002223A9F00E94990C182F682F89819A818D
:100B40000E943C0C69817A81812F0F900F900F9049
:100B50000F900F90DF91CF911F910C9450220E9423
:100B60006C0C182FEFCF0E94990C69817A81EDCF20
:100B7000FC01262F408151816281738184810C9414
:100B8000850581E00895CF93DF93EC0160E00E943A
:100B9000B805BE01DF91CF910C948305E1E0F0E050
:100BA000DF0102C0AA0FBB1F6A95E2F7BD01DF019A
:100BB00002C0AA0FBB1F4A95E2F76A2B01C0EE0FD5
:100BC0002A95EAF7962F9823961302C08E2B089544
:100BD000E0958E230895242F462F682F8091F501EC
:100BE0000E94CE050C94F90B0C94F2150C94F5159B
:100BF00008950E94C2080E94F8052FEF84E39CE04C
:100C0000215080409040E1F700C000000C94CE2DB0
:100C10000F931F93CF93DF93EC018B010E94B22AB5
:100C2000B801CE010E94B81A882309F44FC0B80158
:100C3000CE010E94D51F882309F448C0B801CE0117
:100C40000E948005882309F441C0B801CE010E94AA
:100C5000F82A8823D9F1B801CE010E948D27882374
:100C6000A9F1B801CE010E94FD29882379F1B801CC
:100C7000CE010E94ED24882349F1B801CE010E94E3
:100C80002E29882319F1F8018281882361F0CA3561
:100C9000FDE5DF0721F170F4C115ECE5DE07A1F0F9
:100CA000CE3DDC45C9F0C801DF91CF911F910F9176
:100CB0000C947C05CB358DE5D807A1F0CC35DD450E
:100CC00091F70E94FD11EFCF0E94F90580E0DF91BE
:100CD000CF911F910F9108950E94B612F7CF0E94F5
:100CE0000612E1CF0E940912DECFCF93DF93EC0111
:100CF00061E00E94B805BE01DF91CF910C94080617
:100D00000E94062D0C9469070E946C070C940A2D12
:100D1000DF92EF92FF920F931F93CF93DF93E82F11
:100D2000F0E0E85AFB4FD490282F2695269526957B
:100D300030E0F901E850FB4F0491877010E0082E75
:100D400002C0159507950A94E2F701701127F90181
:100D5000E851FB4FE490F12C082E02C0F594E79483
:100D60000A94E2F791E0E922FF24F901E852FB4FEF
:100D7000C491D0E002C0D595C7958A95E2F7C170BD
:100D8000DD270115110519F081EE0E94F207E1142B
:100D9000F10419F086EE0E94F2078D2D0E9486085C
:100DA000EF2819F086EE0E944008012B19F081EE21
:100DB0000E944008CD2B51F08CE2DF91CF911F9122
:100DC0000F91FF90EF90DF900C948608DF91CF9108
:100DD0001F910F91FF90EF90DF900895EF92FF9297
:100DE0000F931F93CF93DF93EC01162F0AE08881B6
:100DF000882309F454C0813009F04EC089818130C4
:100E000099F47E0122E0E20EF11C8A810E9486089C
:100E1000E7012196812F815050F3EFE9FFE03197F0
:100E2000F1F700C00000F7CF823041F47E0182E08C
:100E3000E80EF11C8A810E94F207EACF833041F468
:100E40007E01E2E0EE0EF11C8A810E944008E0CFB4
:100E5000843011F02196DDCF2A81229690E080E047
:100E6000AE014F5F5F4F2053330B2A30310548F0FE
:100E7000019778F2EFE9FFE03197F1F700C0000049
:100E8000F7CF089FB001099F700D1124C901860F8B
:100E9000971F2981EA01E4CF0E948806BACFDF912B
:100EA000CF911F910F91FF90EF90089560E00C9407
:100EB000EE0608950C94590781E008950C945C07A0
:100EC0000895CF93C82F0E945A078C2FCF910C946E
:100ED0005E0780E00C9461070E94CE2B0C946107A2
:100EE0000E94CE2B9091C401981721F08093C401E9
:100EF0000C9461070895019708F40895EFE9FFE065
:100F00003197F1F700C00000F6CFCF93DF93CDB754
:100F1000DEB72B970FB6F894DEBF0FBECDBF4F8361
:100F2000588769877A878B878A859B85892B29F0E3
:100F3000CA0189238F3F09F046C0898581110E942B
:100F40000F111E821D8285E0FE013796DE0111968B
:100F500001900D928A95E1F780918C0482FD12C078
:100F60008091B9049091BA04892B61F00E94CB1052
:100F7000882319F082E00E94CC110E94A7108111F1
:100F80000E9446118C819D81892B89F449815A8167
:100F90006B817C818D819E810E94F60F2B960FB60E
:100FA000F894DEBF0FBECDBFDF91CF910895898148
:100FB0009A8189238F3F51F3CE0101960E94C1058A
:100FC0008111E4CFEBCF8091C6019091C7010196CA
:100FD0009093C7018093C601B0CFFC0180819181BD
:100FE0000C94C60CCF93C82F882309F447C08CEF0C
:100FF0008C0F813AA0F46C2F809100019091010137
:101000000E94422C882329F08C2F0E9497100E9466
:1010100054118C2F0E949010CF910C94541180E2A7
:101020008C0F883048F4C77081E001C0880FCA95E2
:10103000EAF70E94EF10F0CFEBE5EC0FE33040F45D
:10104000F0E0EE5AFE4F808190E0CF910C94022C9C
:10105000E8E5EC0FE73150F4F0E0EE0FFF1FEC5D38
:10106000FE4F80819181CF910C94182CC03F30F0BD
:101070008C2F0E943618CF910C942119CF9108958E
:10108000882361F19CEF980F913A20F40E94971009
:101090000C94541190E2980F983050F4877091E0BE
:1010A00001C0990F8A95EAF7892F0E94F510F0CFB9
:1010B0009BE5980F933020F490E080E00C94022C94
:1010C00098E5980F973120F490E080E00C94182C6C
:1010D000803F20F00E949E180C94211908951F93C0
:1010E000CF93DF93182FEB010E94F207209731F482
:1010F000812FDF91CF911F910C9440088FE99FE0E1
:101100000197F1F700C000002197F0CF6091D7045C
:101110007091D804893321F06091D5047091D60480
:101120000C946F08882321F00E94EF100C94541146
:101130000895882321F00E94F5100C94541108950D
:10114000882321F00E9402110C94541108958823E1
:1011500021F00E9408110C945411089590E080E051
:101160000E94022C90E080E00E94182C0E940F1137
:101170000E9454110E94481A0C9421190E949E103A
:101180000C94AE080E94FC100C94BE0892959F70BF
:10119000963091F058F4925F9F70923058F4803FEF
:1011A00019F030F4883E30F481E008959A5FF4CF6E
:1011B000843FD1F380E00895883EB0F3813FD1F7BA
:1011C000F3CFFC01808191810E94C60C0C94C6086B
:1011D000BF92CF92DF92EF92FF920F931F93CF9324
:1011E000DF936C01EB01FC011281058102950F7008
:1011F0000E94E510E82E8823B9F0E12E1123A1F01A
:101200008D2F807F803421F080E28C0F8830D0F0E9
:1012100080918C0482FD16C082E00E94CC110E9455
:10122000E51091E0E82EE926BD2EB2942FE0B2221F
:10123000FBE0FB1508F47CC0EB2DF0E0E85CF94C1A
:101240000C94A935E12CF0CF2D2F2F70F22E8D2F7D
:10125000807F19F0F29490EFF922112399F0FF208A
:1012600059F080E28C0F883010F0C11107C08F2D2B
:101270000E94EF100E9454118C2F52C08F2D0E949B
:101280000211F8CF8C2F0E944008FF2009F450C0B3
:1012900080E28C0F883010F0C11104C08F2D0E94A5
:1012A000F51003C08F2D0E9408110E94541140C0F8
:1012B0003D2F3F70F32E8D2F807F803219F0F294F6
:1012C00080EFF822CC23F1F0C13009F49BC0112348
:1012D00009F4A2C0002309F477C020E0F6014081A0
:1012E00051816281738184810E948505B6010E94CB
:1012F000A7248111C1CFF601858180FFBDCF8F70FA
:10130000858362C080918C0482FF41C0112359F013
:10131000FF2029F08F2D0E94EF100E94541180E0D1
:101320000E94F20705C080E00E944008F110B6CF8D
:10133000EB2DE850FF0B349720F40E94CE2B0E9437
:101340006107CE010E94C6088111A7C11092C70192
:101350001092C601EE2009F4C1C10E94C71080FDA1
:10136000BDC1F60112820E94C1100E940A0CC60182
:101370000E948F0B0E94C110DF91CF911F910F919E
:10138000FF90EF90DF90CF90BF900C94150C11233D
:10139000E9F0011106C00E9412118F290E949208E3
:1013A000C7CF013031F40E9412118F290E942E11F3
:1013B000BFCF8091D304823070F38013ECCF0E94B2
:1013C00046118F2D0E9418118F2DE8CF011106C0F4
:1013D0000E9446118F2D0E949908AACF8091D304B4
:1013E000013059F4823008F4A3CF0E94EC108F2111
:1013F00009F49ECF0E942111EBCF823048F30813ED
:10140000E7CF96CF112321F0063008F091CFDCCF43
:10141000053008F08DCFDECF0023E1F28091D704B4
:101420009091D804C93321F08091D5049091D604CD
:101430000E947B078C2F0E9440087ACF8D2F8695C3
:101440008695837061F0813009F072CFCE01937080
:10145000111102C090E080E00E94182C69CFCE01EB
:101460009370111102C090E080E00E94022C60CFC6
:101470008C2F112329F00E9436180E94211958CF71
:101480000E949E18FACF8D2F837081F5111150CFD5
:101490004C2F429546954770440F440F8C2F8F7008
:1014A000042E01C0880F0A94EAF72C2F2071C4FF84
:1014B00007C02FE030E001C0220F4A95EAF72095DF
:1014C0009D2F969596959370822B923049F058F403
:1014D000913019F00E94EB0B2BCF0E94E60B28CF26
:1014E0000E94F00B25CF0E94E40B22CF869511239A
:1014F00011F08D2F8170882309F41ACF4C2F42955B
:1015000046954770440F440F8C2F8F70042E01C0F6
:10151000880F0A94EAF72C2F2071C4FF07C02FE030
:1015200030E001C0220F4A95EAF720959D2F96954D
:1015300096959370822B923049F058F4913019F0BF
:101540000E94310CF5CE0E942C0CF2CE0E94360C7B
:10155000EFCE0E94F90BECCEFD2FFF70FF2E112372
:1015600029F08F2F0E940A0C8C2F18CF8C2F0E94ED
:1015700099088F2D0E94150CDBCEC23F41F160F41B
:10158000C03FB9F0C13F81F0112309F481C00111BE
:1015900073CE8D2F8F711FC0C33F01F1C43FA1F7E0
:1015A00080918C0482FF24C08D2F8F71112311F341
:1015B00012C0112341F0053008F0BACE8D2F8F7183
:1015C0000E94210CB5CE063008F0B2CEF7CF8D2F99
:1015D0008F711111CFCF0E940A0CAACE112329F0CE
:1015E0008D2F8F710E94020CA3CE0E94FF0BA0CE04
:1015F0008091D3048230A8F11123F9F00E94A41045
:101600000E94F5100E94C710843041F40E94C3115B
:101610008D2F8F710E94150CE12C8ACE8091D304FE
:101620000817D0F72D2F2F71F22E822F0E940A0C4F
:1016300063E08F2D0E94A711EFCF0E94A4100E949B
:10164000EF108091D304081740F00E94C3110E944C
:10165000211164E08D2F8F71EDCF81E00E94CC11BC
:10166000DBCF112359F03D2F3F71F32E832F0E94C2
:101670000A0C63E08F2D0E94A7115ACE81E00E94D0
:10168000CC11023008F454CE82E00E94CC1150CE2E
:101690000111C4CE8D2F8F716DCF112319F001115F
:1016A00055CE58CE011152CE20E0F6014081518135
:1016B0006281738184810E948505B6010E94B224F3
:1016C000882309F443CE8091C6019091C701029707
:1016D00009F03CCE8C2F0E94860838CEDF91CF9146
:1016E0001F910F91FF90EF90DF90CF90BF900895E2
:1016F0000F931F93CF93DF93EC01688179818A81E7
:101700000E94D00C8C010E943B0C0E94E30BB8019C
:10171000CE01DF91CF911F910F910C94E808CF93E8
:10172000DF93EC018B819C81892B29F08881998141
:1017300089238F3F59F4DF91CF910895CE010E9404
:10174000780BCE01DF91CF910C94C305CE010E949E
:1017500075068111F3CF0E94E510882361F38A8119
:10176000882349F380918C0482FDE5CF82E0DF91EC
:10177000CF910C94CC11CF93DF9300D000D00F9277
:10178000CDB7DEB70F900F900F900F900F90DF91B5
:10179000CF910895CF93DF9300D000D000D0CDB784
:1017A000DEB726960FB6F894DEBF0FBECDBFDF9131
:1017B000CF91089508950C94DA0B0E94DB0B80936F
:1017C000F6010C94AE0808950C94DD0B9091F6018F
:1017D000892B0C94DD0B9091F60189230C94DD0B81
:1017E0009091F60189270C94DD0B0C94DA0B0C9484
:1017F000F50B0E94F70B8093F5010C94AE0880E086
:101800000C94F90B91E001C0990F8A95EAF7892FA2
:101810000C94F90B21E030E001C0220F8A95EAF721
:101820008091F501822B0C94F90B21E030E001C08E
:10183000220F8A95EAF720958091F50182230C9476
:10184000F90B21E030E001C0220F8A95EAF7809180
:10185000F50182270C94F90B9091F501892B0C94DA
:10186000F90B9091F50189230C94F90B9091F501F6
:1018700089270C94F90B08959E3F69F1E82F28E120
:10188000929FE00D11248E2F877041E001C0440F1C
:101890008A95EAF7E695E695E69583E0E89FF001FC
:1018A0001124E853FE4F30E020E070E05191DF0159
:1018B0001197CB01022E02C0969587950A94E2F704
:1018C000817081958527842385278C932F5F3F4FD7
:1018D0002330310559F708959E3F49F1E82F28E15B
:1018E000929FE00D11249E2F9770E695E695E69560
:1018F00083E0E89FF0011124E853FE4F50E040E000
:1019000080E0219130E0092E02C0369527950A9497
:10191000E2F721703327042E01C0220F0A94EAF760
:10192000822B4F5F5F4F4330510559F7089580E098
:101930000895CF92DF92FF920F931F93CF93DF937F
:101940006C010091F5018091F601082BC7E0D0E011
:1019500010E0FC2EC8010C2E02C0959587950A94C4
:10196000E2F780FD0CC02197A0F7F12C8F2DDF91BD
:10197000CF911F910F91FF90DF90CF900895B60106
:101980008C2F0E94DF14019771F3F0CFCF93DF9378
:10199000EC010E94990CBE01DF91CF910C94DF14F1
:1019A0001F93CF93DF93EB019091C501992331F001
:1019B000CB01DF91CF911F910C94C60C882379F055
:1019C000CB010E94990C182F682FCE010E943C0C6D
:1019D000BE01812FDF91CF911F910C94DF14CB01B9
:1019E0000E946C0C182FF4CF1F93CF93DF93C091FC
:1019F000F70116E08091F8018C1304C0DF91CF91BC
:101A00001F910895D0E01C9FF0011D9FF00D11243F
:101A1000E750FE4F408151816281738184819581BD
:101A20000E94CA0B2196C770E5CF409129025091C0
:101A30002A0260912B0270912C0280912D029091CC
:101A40002E020C94CA0B2091F7019091F80156E0F8
:101A5000291302C080E0089530E0529FF001539FA7
:101A6000F00D1124E750FE4F7181761306C070818E
:101A7000781303C07281741304C02F5F3F4F277027
:101A8000E7CF81E00895DF92EF92FF920F931F93CB
:101A9000CF93DF9380912E02807F61F480912B029F
:101AA000882341F0C091F70186E0D82E8091F8019B
:101AB0008C1308C0DF91CF911F910F91FF90EF9091
:101AC000DF90089520912C0230912D02D0E0211555
:101AD000310541F08091290290912A02482F492333
:101AE0004F3F19F42196C770E1CFDC9E8001DD9E47
:101AF000100D1124F801E750FE4F41814913F2CF38
:101B000090819813EFCF82818111ECCFE380F48034
:101B1000E21AF30A60E089E292E00E94B80569E205
:101B200072E00E949E24E816F906E0F680912E02EB
:101B30008F70806180932E02F801E250FE4F808109
:101B40008F708061808389E292E00E948F0BDF9129
:101B5000CF911F910F91FF90EF90DF900C94F40CB8
:101B60004F925F926F927F928F929F92AF92BF92AD
:101B7000CF92DF92EF92FF920F931F93CF93DF9359
:101B8000CDB7DEB761970FB6F894DEBF0FBECDBFFD
:101B90008C0185E0F801DE011D9601900D928A9579
:101BA000E1F7D8014C9011965C90119712967C90B9
:101BB00012971396ED90FC9060E089E292E00E940B
:101BC000B8056C0189E2882E82E0982E20912C02C3
:101BD00030912D022115310541F08091290290911B
:101BE0002A0289238F3F09F0ADC1711001C1C801DC
:101BF0000E948F0B79C069E272E0C6010E94A324A3
:101C00008111D3C1EF2829F0852D84218F3F09F060
:101C100005C180E0B82FB170EB2E80FF29C0472DA1
:101C2000652D842D0E94230DF82E811121C04D8633
:101C30005E868D859E850E94C60C292F22952F7069
:101C4000223050F0243078F49F7051F0F8019581E3
:101C5000907F31F46F2C04C19F7011F08823D1F371
:101C6000805E8830B8F3C8010E948F0BFE2CF2CF43
:101C7000772009F4F5C080912E02816080932E02B6
:101C8000612CEEC0892B49F08091290290912A02A3
:101C9000282F29232F3F09F0FBC0C8010E94E1082B
:101CA000882309F4A4CF772009F4A1CF80912E02D4
:101CB000803270F02091290230912A0238872F83D8
:101CC0001986FB86EA868C87CE0107960E948F0BC9
:101CD00086E0F801A9E2B2E001900D928A95E1F761
:101CE0000E94430D0E94150D66246394B9C0211112
:101CF00012C07E2DF98AE88AA201672D89890E9487
:101D0000BB0B89E292E00E948F0B86E0F4011192F6
:101D10008A95E9F768C180912C0290912D02892B58
:101D200049F08091290290912A02282F29232F3FE0
:101D300009F0CAC0C8010E94E108882309F457CFFE
:101D4000772009F454CF80912E02803208F220913E
:101D5000290230912A023A8329831B82FD82EC8278
:101D60008E83CE010196B2CF60E089E292E00E94BC
:101D7000B80569E272E00E949E24A816B90650F5E3
:101D8000672C772009F433CF80912C0290912D029B
:101D9000892B49F08091290290912A02282F29232A
:101DA0002F3F09F0ABC0C8010E94E108811190CF1C
:101DB00080912E02816080932E02C8010E948F0BB9
:101DC0004FC086E0F801A9E2B2E001900D928A9539
:101DD000E1F746C07E2DF98AE88AA201672D89893C
:101DE0000E94BB0B86E0F40111928A95E9F769C065
:101DF000C8010E94E108682E882309F4F8CE86E025
:101E0000F801A9E2B2E001900D928A95E1F789E22A
:101E100092E00E94ED070E94430D53C081E08725A8
:101E2000F9CE81E08725CAC0D80111962C912913DB
:101E3000B3C0F80190819813AFC07110ADC080910C
:101E40002E028F70806180932E020E94150D89E210
:101E500092E00E948F0B80912E02D80115968C93F0
:101E6000862D61960FB6F894DEBF0FBECDBFDF9111
:101E7000CF911F910F91FF90EF90DF90CF90BF9087
:101E8000AF909F908F907F906F905F904F9008954C
:101E9000F8012181291301CFD8019C919813FDCE1F
:101EA00080912E027110F9CE15968C93C8010E9474
:101EB0008F0B86E0F801A9E2B2E001900D928A95BD
:101EC000E1F70E94150DCCCFD80111962C91291362
:101ED00031CFD8019C9198132DCF71102BCF8091C9
:101EE0002E0215968C93C8010E948F0BE9E2F2E056
:101EF00086E0DF011D928A95E9F7B2CFF8012181D2
:101F0000291351CFF801908198134DCF69E272E007
:101F1000C6010E94AC24811154CF80912E0280FD15
:101F200050CF982F907F09F44CCFD80115968C9301
:101F30001597903F09F4BACF982F907F905F8F70DC
:101F4000892BB2CF60902B025701A21AB30A6620E8
:101F500009F40ACF60E089E292E00E94B80569E2E4
:101F600072E00E949E2420912E02207FA816B906BE
:101F700008F0BDCE80912C0290912D02211182CECD
:101F8000672C892B49F08091290290912A02282FF1
:101F900029232F3F09F048CF69E272E0C6010E9471
:101FA0009E24843F914008F426CEE114F10429F0E8
:101FB000852D84218F3F09F034CF80E080FF22CE31
:101FC000472D652D842D0E94230D882309F41ACEF8
:101FD00089E292E00E948F0B86E0E9E2F2E0DF0105
:101FE0001D928A95E9F70E94150D4ACE1F93CF9353
:101FF000DF93CDB7DEB72C970FB6F894DEBF0FBED8
:10200000CDBF4F83588769877A878B879C87CE019E
:1020100007960E94B00D882369F08A859B85892BDD
:1020200039F04F815885842F85238F3F09F071C087
:1020300016E05FC086E0FE013796DE011196019042
:102040000D928A95E1F78A859B85892B89F38F818B
:10205000988589238F3F61F32091F80130E0C90111
:102060000196877099274091F7014817190671F476
:102070000E94C2081092F8011092F70186E0E9E28E
:10208000F2E0DF011D928A95E9F7D2CF96E0929FA8
:10209000D001939FB00D1124A750BE4FFE01319681
:1020A00001900D929A95E1F78093F8010E94F40C4B
:1020B000BFCF819FC001112487509E4F0E94B00D59
:1020C0008823E9F0E091F7011E9FF0011124E75009
:1020D000FE4F4081518162817381848195810E948C
:1020E000CA0B8091F70190E0019687709927809341
:1020F000F7018091F7019091F8018913DACF2C96BE
:102100000FB6F894DEBF0FBECDBFDF91CF911F9108
:10211000089569857A858B859C850E94CA0B88CF36
:10212000682F80910001909101010C94C22C682FBE
:1021300080910001909101010C94CD2C80910001BF
:10214000909101010C94D82C8091540208958091B3
:10215000B9049091BA04892B89F00E94832D2091B3
:10216000520230915302AC01421B530B81E020918B
:10217000B9043091BA044217530708F480E0817023
:102180000895809151028595859585950895809152
:102190005102877008950E94832D20914F02309143
:1021A0005002821B930B2091B9043091BA0482171C
:1021B000930748F08091510282FB882780F991E0D3
:1021C00089278170089580E0FCCF9091510297702B
:1021D00081E009F480E0089580917702089590915C
:1021E0007702892B809377020895809590917702EA
:1021F0009823909377020895109277020895809122
:102200007602089590917602892B80937602089544
:10221000809590917602982390937602089510927B
:102220007602089580915502089508950C94151131
:1022300090915402981721F0809354020C94161137
:10224000089580915402882329F01092540280E06E
:102250000C941611089508950C942B11CF93C82F48
:1022600080918C0482FD10C0809155028C1761F022
:102270000E94832D9093530280935202C093550283
:102280008C2FCF910C942C11CF91089580915502F1
:10229000882349F010925502109253021092520274
:1022A00080E00C942C110895CF93DF93E09100010E
:1022B000F0910101809177028083E0910001F0911B
:1022C0000101808190917602892B80838091550253
:1022D0008823E9F08091B9049091BA04892B29F000
:1022E0000E94A71081110E944611E0910001F09117
:1022F0000101808190915502892B8083809100019A
:10230000909101010E942E2C81110E944611C091D2
:102310000001D091010140E250E06FE272E0CE0195
:102320000E94BF35892B69F080E2FE01AFE2B2E086
:1023300001900D928A95E1F7CE01DF91CF910C9437
:10234000DA2BDF91CF91089508950C94A411909108
:102350008C0492FD16C098E0899F90011124622B95
:10236000609351020E940A0C0E94832D90935002A8
:1023700080934F02809151028595859585950C94A7
:10238000A5110C940A0C1092510210925002109256
:102390004F0280E00C94A511909151028095892301
:1023A00080935102282F277091F4282F082E000CBB
:1023B000330B9217130659F090918C0492FD07C0CD
:1023C0008595859585950E94150C0C94C3110895EB
:1023D00090918C0492FB222720F9281769F080FB4A
:1023E00092F990938C0480918B0490918C040E94BC
:1023F000331282E00C94CC11089580918C0482FBFE
:10240000882780F991E089270C94E81181E00C94E9
:10241000E81180E00C94E8116FEF7FEF90E080E02E
:102420000C94183690E080E00E94F435893E9E4F6F
:1024300011F40C94561A80E0089582E090E00C9418
:10244000EC3583E090E00C94EC35CF9384E090E0A1
:102450000E94EC35C82F82E290E00E94EC35982F64
:102460008C2FCF910895CF93C92F682F84E090E0EF
:102470000E94FA356C2F82E290E0CF910C94FA35ED
:10248000AB01BC018FE090E00C940C36AB01BC01B9
:1024900083E190E00C940C3660E070E0CB010C948A
:1024A000461260E070E0CB010E9440120C944C1286
:1024B00069EE7EEF90E080E00E94183660E082E0F6
:1024C00090E00E94FA3560E083E090E00E94FA35E7
:1024D0001092F60160E084E090E00E94FA3560E03E
:1024E00082E290E00E94FA3560E085E090E00E9490
:1024F000FA3560E086E090E00E94FA356FEF87E001
:1025000090E00E94FA3540E050E0BA0188E090E0A7
:102510000E940C3660E08DE090E00E94FA3540E0C9
:1025200050E0BA0188E190E00E940C3660E087E15B
:1025300090E00E94FA3540E050E0BA018CE190E072
:102540000E940C3670E060E080E290E00E94183655
:1025500040E050E0BA0188E190E00E940C3680E053
:102560000E946F1A0E949C1A0C9451120C945812DB
:10257000682F8EE090E00C94FA350E948F2D6093C6
:1025800094027093950280939602909397026093C1
:102590009002709391028093920290939302089517
:1025A0000E948F2D609394027093950280939602FF
:1025B0009093970260938C0270938D0280938E02A9
:1025C00090938F02089585B7806885BF85B780682E
:1025D00085BF0895089508950C94EB1208950C9406
:1025E000EE120E94E3128DEB95E10E94C42B0E9433
:1025F000E71D0E94B0230E94EA120C94EC1281E0C5
:1026000008950C94FF12089508950E9403130C94EA
:1026100004130E94D7150C9460070E947A2D0E9423
:10262000AB1A0E94E9160E9409130E94CC280C9450
:10263000EF123F924F925F926F927F928F929F9292
:10264000AF92BF92CF92DF92EF92FF920F931F93C0
:10265000CF93DF93CDB7DEB72A970FB6F894DEBFDE
:102660000FBECDBF0E94FE16882E81110E94BD12A2
:1026700058E7A52E52E0B52E10E000E0302E802F56
:102680000E9419162B013C01F501C190D190E190F7
:10269000F1905F01C414D504E604F70409F46FC097
:1026A0008091980281FD0E942416D701C6018425DD
:1026B0009525A625B725912CC12CD12C7601C39444
:1026C000AC01BD014C215D216E217F21452B462BA4
:1026D000472B09F44CC00E9401138823C9F09E8245
:1026E0003F824C205D206E207F2081E045284628D7
:1026F000472809F480E088870E94832D8160782F25
:102700009A8789874E815F8168858A850E948507BF
:10271000000F111F000F111FF801E858FD4F8081B5
:102720009181A281B3818C259D25AE25BF25808313
:102730009183A283B38381E0811001C080E02A9657
:102740000FB6F894DEBF0FBECDBFDF91CF911F91C2
:102750000F91FF90EF90DF90CF90BF90AF909F9040
:102760008F907F906F905F904F903F9008959394DB
:10277000CC0CDD1CEE1CFF1CF8E19F12A1CF0F5FFB
:102780001F4F0530110509F079CF8FEF89838A83B8
:102790001B820E94832D8160782F9D838C834981C9
:1027A0005A816B818D810E948507C5CF0E94532B72
:1027B0000C9454270E9419130E94D6130E94E428F7
:1027C00081110E94D0120E943C190C947007CF9383
:1027D000DF930E94E314EC01811521E5920708F0D4
:1027E00042C0811530E5930708F09DC0883E9105F1
:1027F00030F5803E910508F092C0883A910588F442
:10280000853A910508F084C08130910509F487C0AC
:10281000009709F484C0049708F081C0D0E0C0E0BC
:102820007EC08F3B9105D0F7C85AD0E0CC0FDD1F9A
:10283000CB5ADE4F0990D881C02DD46470C0811569
:10284000904250F4C11581E0D80708F068C0C03F3D
:10285000D10520F3D06563C0C11590E4D907F0F22B
:10286000DF70D06A5CC0811525E5920700F58115FF
:1028700034E5930708F08BC0811543E5940708F011
:1028800073C0C11582E5D80708F469C0CE01837012
:10289000992721E030E002C0220F331F8A95E2F72A
:1028A000C695C69580E2C89FE001112454C0C115A9
:1028B00099E5D907A8F4C11528E5D20708F06CC03E
:1028C000C11536E5D30708F0A9CF8C2F0E947A15E1
:1028D000C82FD0E0DC2FCC27CC27DF71D0621FC0FF
:1028E000C1154AE5D40708F45CC0CE0190568115A5
:1028F000904208F093CF8D2F8F710E947A1590E04F
:10290000982F882788279F719C012C2BE901E6CFFF
:10291000C55AD0E0CD57DE4FC881D0E0D064CE019B
:10292000DF91CF910895E4E096958795EA95E1F7D8
:1029300083702C2F26952695237040E2249F9001CA
:102940001124382B8C2F8370C1E0D0E002C0CC0F53
:10295000DD1F8A95E2F7C22BD32BDC68E0CFDC2F9A
:10296000CC27C16FD06ADBCF8370992721E030E09C
:1029700002C0220F331F8A95E2F7C695C69590E2F2
:10298000C99FE0011124C22BD32BDA68C8CFD82FFE
:10299000CC27C46FD06AC3CFDC2FCC27C06FD06ADE
:1029A000BECF8C2F8F700E947A1534E0D695C795D4
:1029B0003A95E1F7CF709C2FEC01D069B0CF0E941F
:1029C00050220C94E71382389105B1F1B0F48133B1
:1029D000910509F475C048F48932910509F469C07C
:1029E0008A32910509F473C008958533910509F47D
:1029F00059C08933910501F10895833E9105A9F1EC
:102A000038F4803E9105F9F0823E910549F1089530
:102A1000863E9105A9F1873E9105C9F1843E910555
:102A200019F520918C0421FF1FC080918B0484FD37
:102A300014C087EE90E0089520918B042370A1F0DC
:102A400080EE90E0089520918B0420FD47C03091E6
:102A50008C0430FF09C024FF44C090E080E004C033
:102A600020918B0422FDF7CF089520918B0422FD45
:102A70003BC030918C0430FDE3CF24FFF5CFEDCF88
:102A800020918B0423FFF0CF24FDE7CFD2CF2091FC
:102A90008B0423FD2CC030918C0431FFEECF84EEEB
:102AA00090E0089520918B0425FFDECF89E290E02D
:102AB000089520918B0425FFD7CF85E390E00895FA
:102AC00020918B0426FFD0CF8AE290E008952091D8
:102AD0008B0426FFC9CF81E390E0089589E390E05D
:102AE000089583EE90E0089582EE90E0089586EEDA
:102AF00090E0089590918B0492FF06C0282F2871D2
:102B00002830F9F4877F846093FF06C0282F28714E
:102B10002831F1F4877E846120918C0420FF06C067
:102B2000382F38713830D9F4877F816021FF06C093
:102B3000282F28712831D1F4877E816194FD877E0A
:102B40000895282F24712430F9F68B7F8860DCCF1C
:102B5000282F2471243101F78B7E8861DDCF382F37
:102B60003171313019F78E7F8860E0CF282F2171C5
:102B7000213121F78E7E8861E1CF80E008950C94A9
:102B80000C120E94FE168FE39CE90197F1F700C03A
:102B900000000E94FE1680E00E94191660FF04C02B
:102BA0000E94BF150C94CE2D08950C94C1150E945F
:102BB0001212811102C00E94B6120E941D1280934F
:102BC00098020E94251290938C0480938B040E949B
:102BD000D5150E9421120E94E40B8091F5010C94FE
:102BE000F70B08950C94F11508950C94F415962F95
:102BF00024E0829FF0011124EF55FB4F41E050E0AB
:102C000060E070E004C0440F551F661F771F9A955F
:102C1000D2F780819181A281B38184239523A62359
:102C2000B72321E0892B8A2B8B2B09F420E0822FFC
:102C3000089594E0899FF0011124EF55FB4F6081C6
:102C40007181828193810895089580EA8A95F1F7D0
:102C5000089500C008950C942516F894E82FE29585
:102C6000EF70F0E031A1282F2F7081E090E001C0DB
:102C7000880F2A95EAF7982F9095932391A392A114
:102C8000892B82A378940895CF93DF93CEE9D1E086
:102C900089918F3F11F00E942D1681E0C33AD80729
:102CA000B9F7C6E8D1E089918F3F11F00E942D1647
:102CB00081E0CE39D807B9F7DF91CF9108954F92CF
:102CC0005F926F927F928F929F92AF92BF92DF92AC
:102CD000EF92FF920F931F93CF93DF938C01D62E29
:102CE000C62FD0E0CE0182569E4F7C01FC01208190
:102CF0002F3F09F45EC0F894E22FE295EF70F0E008
:102D000031A12F7081E090E001C0880F2A95EAF789
:102D1000932F982B91A392A18095892382A37894D5
:102D20000E942916E6E8F1E02EE931E0412C512C11
:102D300032014394812C912C540181918F3F89F071
:102D4000A82FA295AF70B0E090964C9150E08F7094
:102D500002C0559547958A95E2F7D301C20140FF1D
:102D600003C080E090E0DC01882A992AAA2ABB2AC5
:102D7000440C551C661C771C2E173F07F1F6F70113
:102D800080818F3F11F00E942D1661E08114910423
:102D9000A104B10409F460E08D2D0E942B16CC0F24
:102DA000DD1FCC0FDD1FC00FD11F88829982AA8240
:102DB000BB82DF91CF911F910F91FF90EF90DF9039
:102DC000BF90AF909F908F907F906F905F904F904B
:102DD00008950E94441684E1E1EAF4E0DF01982FAF
:102DE0001D929A95E9F7EDE8F4E0DF011D928A95CE
:102DF000E9F785E00E9449170C94F405FF920F93C0
:102E00001F93CF93DF93CDB7DEB764970FB6F894D7
:102E1000DEBF0FBECDBF8E010F5F1F4F84E1F801F3
:102E200011928A95E9F7F12C6F2DC8010E945F1667
:102E3000F394F5E0FF12F8CF44E150E0B8018DE8DB
:102E400094E00E94BF35FF24F394009709F4F12C1D
:102E5000892B41F084E1F801ADE8B4E001900D92D6
:102E60008A95E1F72F2D45E061EA74E08DE894E062
:102E70000E944A170E94F6058F2D64960FB6F894AB
:102E8000DEBF0FBECDBFDF91CF911F910F91FF909D
:102E900008950895FF920F931F93CF93DF93F82E19
:102EA000D92F8B01C42F222349F081E080939B020C
:102EB0000E94832D90939A028093990280919B02A5
:102EC000882399F08091990290919A020E949B2DFB
:102ED000059758F0EF2DFD2FD80190E080E0D0E06D
:102EE0008C179D0744F010929B02DF91CF911F91A8
:102EF0000F91FF90089501911191219131910D93BE
:102F00001D932D933D930196EBCF0E94C92F0E94F4
:102F10000D130C94D52F0E94D92F0E94DA130C9414
:102F2000F32F0E94232D0E94B02F0E94F1120E94C5
:102F300085170E948B170E940513FBCF8091A20278
:102F40006091BF047091C00480FF16C020910701FA
:102F5000269FC001279F900D1124BC01769567958F
:102F6000769567956038710508F043C06115710565
:102F700009F441C0862F089581FF0BC020910701FD
:102F8000269FC001279F900D1124BC01769567955F
:102F9000E9CF82FF09C0809107019B01829FB001A8
:102FA000839F700D1124DECF2091A1022223D1F244
:102FB0009091060180910701482F50E0291748F0B1
:102FC000CB01849FB001859F700D949F700D1124DB
:102FD000C9CF289F90011124269FA001279F500D43
:102FE000369F500D1124692F70E0CA010E9481356F
:102FF000B9CF8FE7089581E008958091A20280FF04
:103000000CC06091030170E07595679575956795A3
:103010006115710549F1862F089581FF06C0609101
:10302000030170E075956795F3CF6091030182FD10
:103030000BC09091A0029923A1F0609102018091B0
:103040000301961738F0682F70E06038710500F3BF
:103050008FE70895899FC001112470E00E94953583
:10306000F4CF61E070E0D7CF81E00895803F31F484
:103070000E949E1781958093A6020895813F19F4BE
:103080000E949E17F8CF823F31F40E949E178195CF
:103090008093A5020895833F19F40E949E17F8CFEC
:1030A000893F29F40E94FD178093A70208958A3F63
:1030B00021F40E94FD178195F7CF8B3F31F40E94D8
:1030C000FD1781958093A80208958C3F19F40E9402
:1030D000FD17F8CF843F31F48091A4028160809382
:1030E000A4020895853F21F48091A4028260F7CF65
:1030F000863F21F48091A4028460F1CF873F21F4C0
:103100008091A4028860EBCF883F21F48091A402D3
:103110008061E5CF8D3F31F48091A2028160809380
:10312000A20208958E3F21F48091A2028260F7CF1F
:103130008F3FB9F78091A2028460F1CF9091A502F0
:10314000803F59F48091A60287FF0DC01092A6021D
:1031500091110BC01092A10208C0813F81F48091AF
:10316000A60218169CF3992381F08091A7029091F2
:10317000A802892B09F064C01092A0020895823F32
:1031800049F497FFF0CF1092A5028091A602811119
:10319000ECCFE0CF833F19F41916ACF3E4CF2091C4
:1031A000A702893F29F41216F4F61092A702DBCF8A
:1031B0008A3F19F427FFD7CFF8CF2091A8028B3F81
:1031C00029F427FFD0CF1092A802CDCF8C3F19F45D
:1031D0001216CCF3C8CF843F31F48091A4028E7FC5
:1031E0008093A402C0CF853F21F48091A4028D7FFB
:1031F000F7CF863F21F48091A4028B7FF1CF873FE8
:1032000021F48091A402877FEBCF883F21F4809145
:10321000A4028F7EE5CF8D3F31F48091A2028E7F94
:103220008093A202A0CF8E3F21F48091A2028D7FD5
:10323000F7CF8F3F09F097CF8091A2028B7FF0CF1D
:1032400008950E94832D9C019091A5028091A60271
:10325000982B21F030939F0220939E029091A70219
:103260008091A802982B21F030939D0220939C021C
:1032700083EA92E00C94F42BEF92FF920F931F934A
:10328000CF93DF9300D000D000D0CDB7DEB786E07B
:10329000E3EAF2E0DE01119601900D928A95E1F7E2
:1032A000E090A502F090A6020091A7021091A8025A
:1032B0001092A5021092A6021092A7021092A802E4
:1032C0008E2D8F2991F080919E0290919F020E94F5
:1032D0009B2DAC019091A102992309F43FC08091EC
:1032E00008018417150608F447C0802F812B91F040
:1032F00080919C0290919D020E949B2DAC01909127
:10330000A002992309F477C080910401841715065F
:1033100008F47FC08091A5029091A602892B90911C
:10332000A702892B9091A802892B11F00E942119E4
:1033300086E0FE013196A3EAB2E001900D928A95F3
:10334000E1F726960FB6F894DEBF0FBECDBFDF9132
:10335000CF911F910F91FF90EF9008952091090157
:103360008AE0289F900111242417350708F0BDCF6B
:103370009F5F9093A10202C09F3FD1F7EE2059F0CA
:103380000E949E179FEF1E140CF491E0899F802DE0
:1033900011248093A502FF2059F00E949E179FEFF1
:1033A0001F140CF491E0899F802D11248093A602B4
:1033B0003091A502332309F498CF2091A60222234D
:1033C00009F493CF45EB3403C0011124992359F03C
:1033D0009093A50245EB240390011124332339F087
:1033E0003093A60282CF81E08093A502F3CF81E0E3
:1033F0008093A6027ACF209105018AE0289F900150
:1034000011242417350708F085CF9F5F9093A00201
:1034100002C09F3FD1F7002359F00E94FD179FEF94
:1034200010160CF491E0899F802D11248093A7023F
:10343000112359F00E94FD179FEF11160CF491E033
:10344000899F802D11248093A8023091A7023323F5
:1034500009F460CF2091A802222309F45BCF45EB49
:103460003403C0011124992359F09093A70245EB2E
:10347000240390011124332339F03093A8024ACF5A
:1034800081E08093A702F3CF81E08093A80242CF2E
:1034900086E0E3EAF2E0DF011D928A95E9F71092F7
:1034A000A1021092A0021092A202089583E290E07D
:1034B0000E94EC35893389F484E290E00E94EC3577
:1034C000843B59F485E290E00E94EC3591E08E3E19
:1034D00009F090E0892F8170089580E0FCCFCF93B0
:1034E000C82F6FEF811169E383E290E00E94FA3503
:1034F0006FEFC11164EB84E290E00E94FA356FEF48
:10350000C1116EEE85E290E0CF910C94FA350895EA
:1035100086E290E00E94EC35682F70E090E080E059
:1035200008950895CF93C62F0E94911A6C2F86E2BA
:1035300090E0CF910C94FA3580E00E946F1A60E021
:1035400070E0CB010E94921A0E9415210E94C322B2
:1035500081E00C946F1A0E94871A0E94881A0E94B8
:10356000911A0E94561A811102C00C949C1A089557
:10357000CF93FB01C281CC2309F19C0122513F452D
:103580002031310520F582510E94D322C0E08C2FDA
:10359000CF91089581E00E940A0C43E062E081E04F
:1035A0000E94EB05F3CF81E00E94150C43E062E03E
:1035B00081E00E94EB05EBCF82E0F6CF8031FFE5A2
:1035C0009F0789F381319F45B9F3C1E0E0CF803196
:1035D000EFE59E07F9F281319F45C9F682E0DBCF26
:1035E0002FEFFC0120830895EF92FF920F931F931A
:1035F000CF93DF93EC01F62E888120912704309140
:103600002804232B79F08E3F09F05CC08981833038
:1036100020F08550833008F055C06F2DCE010E94F8
:10362000E91D50C08B3009F4ECC0D0F4843009F4AB
:103630008AC060F4823009F44FC008F077C081304E
:10364000F1F16F2DCE010E94F01A3CC0863009F4D2
:1036500090C008F483C08A30A0F78FEF888332C00F
:10366000803109F4A6C000F58D3009F489C008F452
:1036700083C08E3009F48CC08F3019F780912904F3
:1036800090912A04892BF1F06B8170E06D31710506
:10369000C8F489819A81AE014C5F5F4F98278927D2
:1036A00098270E9498220EC0823109F488C008F43D
:1036B00083C0833109F494C08E3F19F6AECF1982CE
:1036C00089E08A836F2DCE01DF91CF911F910F91F9
:1036D000FF90EF900C94892E8981823071F08330B5
:1036E00079F0813009F0ADCF0E948F2D0E94AF3567
:1036F0006A837B838C839D83E5CF0E94881AF6CFF3
:103700008091290490912A04892BE1F28E01E12C09
:103710008E2D0E941916F801828373836483E394CB
:103720000D5F1F4FF5E0EF12F3CFCCCF89818230D0
:1037300009F087CF6A817B818C819D810E94AF35A2
:103740000E94921ABFCF4B816A8189810E943620E4
:103750009827892798279D838C83B4CF2C813D811E
:103760003227232732274B816A8189810E94582082
:10377000A9CF0E941521A6CF0E946C228983A2CFD7
:103780000E946E229827892798279A8389839ACF47
:103790006B8170E06D31710508F094CF89819A8159
:1037A000AE014C5F5F4F9827892798270E947122AE
:1037B00089CF0E94C32286CF0E942420DFCF6B8155
:1037C00070E06D31710508F07DCF89819A81AE017D
:1037D0004C5F5F4F9827892798270E94982172CFC6
:1037E0006B8170E06D31710508F06CCF89819A8131
:1037F000AE014C5F5F4F9827892798270E94BE2112
:1038000061CF8091290490912A04892B09F45ACF21
:10381000CE010E94892E2FEF81EE94E0215080404E
:103820009040E1F700C000000E94CE2D4BCF8F9258
:103830009F92AF92BF92CF92DF92EF92FF920F933F
:103840001F93CF93DF93CDB7DEB72A970FB6F894C7
:10385000DEBF0FBECDBF09EA12E0F12CE12C81E4FE
:10386000C82E8DE1D82E9BE6A92E9DE1B92E2CE91C
:10387000822E2CE1922EF801D182C082B382A282E4
:1038800095828482F58AE48ABE016F5F7F4F8E2D18
:103890000E94ED20892B29F489859A85F801938B64
:1038A000828BFFEFEF1AFF0A0A5E1F4F80E1E816D6
:1038B000F10409F72A960FB6F894DEBF0FBECDBF0C
:1038C000DF91CF911F910F91FF90EF90DF90CF90FC
:1038D000BF90AF909F908F900895CF93DF9300D0CB
:1038E00000D00F92CDB7DEB79093B6048093B504A5
:1038F000811520E2920748F40F900F900F900F90DF
:103900000F90DF91CF910C9467058EEF89838A83A6
:103910001B820E94832D8160782F9D838C83498137
:103920005A816B818D810F900F900F900F900F90A7
:10393000DF91CF910C9485070F931F93CF93DF9363
:103940008C01EB0169E074E08C2F0E94ED20892B43
:10395000A1F48091D5049091D604019798F4DD27C5
:10396000CD5EDB4F8881F80110821882833041F1EF
:1039700080F4813091F08230B9F0DF91CF911F91C6
:103980000F910895EFE9FFE03197F1F700C00000D3
:10399000E4CF8430D1F0853081F780910904909193
:1039A0000A04009751F306C080910B0490910C0417
:1039B000009799F3DF91CF911F910F910C946D1C9B
:1039C00080910D0490910E04F3CF80910F0490919B
:1039D0001004009779F72091090430910A0480912E
:1039E0000B0490910C0421153105D9F2009711F7C1
:1039F000C901E0CFCF93DF9300D000D00F92CDB7B5
:103A0000DEB79093B6048093B504811520E2920747
:103A100048F40F900F900F900F900F90DF91CF917F
:103A20000C9452058EEF89838A8381E08B830E94F8
:103A3000832D8160782F9D838C8349815A816B818E
:103A40008D810F900F900F900F900F90DF91CF917D
:103A50000C948507CF93DF93EC010E94FA1C8091B0
:103A6000D5049091D604019728F4CE01DF91CF912F
:103A70000C946D1CEFE9FFE03197F1F700C00000F6
:103A8000F2CF0F931F93CF93DF938C01862F69E0C2
:103A900074E00E94ED20892BC9F4C0910904D091F3
:103AA0000A04209799F0F8018081833069F4CE01EF
:103AB0000E942A1DCE010E942A1DCE01DF91CF91C6
:103AC0001F910F910C942A1D8430B8F7DF91CF918C
:103AD0001F910F9108950F931F93CF93DF938C0144
:103AE000EB0169E074E08C2F0E94ED20892B09F036
:103AF00064C0FE01FF27D8018C91ED5EFB4F813041
:103B0000D9F419969C911997992311F080830CC0D0
:103B10001A969C919923D1F382E0808380910B04C3
:103B200090910C040097D9F48091090490910A04B3
:103B3000009709F442C013C08230E9F519968C91C0
:103B4000199781112DC01A968C9181110EC083E0B6
:103B5000808380910D0490910E04009719F1DF91FC
:103B6000CF911F910F910C94FA1C84E08083809177
:103B70000F0490911004009791F78091090490919F
:103B80000A040097F9F00E942A1D80910B0490917D
:103B90000C04009721F78091090490910A04DFCF6B
:103BA00085E080838091090490910A04009729F0B0
:103BB0000E942A1DF0CF86E08083DF91CF911F9174
:103BC0000F91089580910B0490910C04B1CF0C9447
:103BD000171CCF92DF92FF920F931F93CF93DF9327
:103BE000CDB7DEB72A970FB6F894DEBF0FBECDBFB4
:103BF0008C01603269F5DC011196EC911197EE3081
:103C000038F5F0E0EC5BF94C0C94A93588E0ECE178
:103C1000F1E0DE01119601900D928A95E1F780E2C4
:103C2000F80111928A95E9F784E0D8018C931196F6
:103C30001C92119712961C92129713961C9213972E
:103C400088E0FE013196149601900D928A95E1F775
:103C50002A960FB6F894DEBF0FBECDBFDF91CF918D
:103C60001F910F91FF90DF90CF90089588E3F801A6
:103C7000808382E0818312821382EACF13968C9133
:103C80001397682F70E0762F662712968C91860F17
:103C9000972F911D092E000CAA0BBB0B35E0880F46
:103CA000991FAA1FBB1F3A95D1F7AC01BD01405E19
:103CB0005F4F6F4F7F4F481759076A077B0740F2E6
:103CC0008833E2E09E07A105B10510F64933F2E022
:103CD0005F076105710520F048E352E060E070E0A5
:103CE000481B590BBC01685F7A4FC8010E94B6356A
:103CF000AFCF1296FC9012971396DC9040E06D2D9A
:103D00008F2D0E948020982789279827F80191837A
:103D1000808341E06D2D8F2D0E9480209827892778
:103D20009827D80113969C938E93129791CFFC01FC
:103D3000258136813227232732274481638182817E
:103D40000E94AB2085CF40E250E06FEF70E00E9410
:103D5000D53580912904D8018C9380912704119640
:103D60008C93119712961C92129713961C9213978C
:103D700014961C92149783E115968C9369CF81E079
:103D800090E0909328048093270482E390E090933E
:103D90002604809325040E94832D9093240480930D
:103DA000230456CF8091270490912804892B91F108
:103DB00060E080E00E94F715D82E63E180E00E9469
:103DC000F715F82E80912304909124040E949B2DD6
:103DD0008536910550F1DD2041F1FF2031F10E943F
:103DE000832D909324048093230480912504909143
:103DF000260401979093260480932504892B51F47F
:103E0000109228041092270481E090E090932A04F5
:103E10008093290480912904F801808380912704EC
:103E2000818380912504828313CF82E390E0909375
:103E3000260480932504EECF10922A0410922904C0
:103E400007CF40E250E0BC0112968D919C910E94F8
:103E50001224FECEBC016F5F7F4F4FE150E0FC01AA
:103E6000828193810E944424D8018C93F1CEBC01BD
:103E70006C5F7F4F4CE150E0FC01828193810E9496
:103E80006C24F2CF0E94D523E3CEFC0182818130E5
:103E900009F18823B9F0823009F0DACE13968C91BB
:103EA0009AE03496DE01119601900D929A95E1F711
:103EB000BE016F5F7F4F0E940121F80180830E9445
:103EC000171CC6CE80E21D928A95E9F780E18083B7
:103ED0001182BECE13968C919AE0F92EFE01319696
:103EE0006F01DF01EF2D1D92EA95E9F7B6010E94FF
:103EF000ED20D8018D93F60101900D92FA94E1F72F
:103F0000A7CEAF92BF92CF92DF92EF92FF920F9324
:103F10001F93CF93DF93B82EA62EC090F50180910A
:103F2000F601C82AC7E0D0E0D12CF12CE12CD70152
:103F3000C6010C2E04C0B695A795979587950A944F
:103F4000D2F780FF20C04A2D6B2D8C2F0E9480203D
:103F50008C0181309105B9F00E94FA1C8FE39CE935
:103F60000197F1F700C00000C8010E946D1C81E0BC
:103F7000DF91CF911F910F91FF90EF90DF90CF9045
:103F8000BF90AF900895219790F64A2D6B2D80E059
:103F90000E948020EC010E94FA1C8FE39CE90197AB
:103FA000F1F700C00000CE01E0CFCF93DF93FB011B
:103FB0002281211130C0EC01D755CF3FD10509F046
:103FC00050F569E074E08C2F0E94ED20892B19F5E3
:103FD00086E18C9FF0018D9FF00D1124E755FD4F78
:103FE00086818130E1F48091090490910A04892B43
:103FF00091F080910B0490910C04892B61F08091D9
:104000000D0490910E0420910F0430911004822B26
:10401000932B892B61F081E0DF91CF91089582305D
:10402000D1F780910D0490910E04892BA1F326E124
:104030002C9FC0012D9F900D112487559D4FFC0191
:10404000108A0E944F2AE7CF84E0089550E0440F81
:10405000551F90E3699F400D511D112490EF899FDA
:10406000400D511D1124CA01879608950F931F9387
:10407000CF93DF938430C8F46530B8F44831A8F4A6
:104080000E9426208C010E94EC35C82FD0E0DC2F46
:10409000CC27C80101960E94EC359E01282BC9014E
:1040A000DF91CF911F910F91089590E080E0F8CFBC
:1040B0000F931F93CF93DF93E9018430E0F46530D1
:1040C000D0F44831C0F421153C4531F42091290445
:1040D00030912A04232B79F00E9426208C016D2F29
:1040E0000E94FA356C2FC8010196DF91CF911F9184
:1040F0000F910C94FA35DF91CF911F910F91089594
:104100000F931F93CF93DF93843010F5611120C07C
:104110004230F0F424E0829F8001112450E0440FEB
:10412000551F040F151F09511C4FC8010E94EC3583
:10413000C82FD0E0DC2FCC27C80101960E94EC35B7
:104140009E01282BC901DF91CF911F910F910895F6
:1041500090E080E0F8CF0F931F93CF93DF93890116
:10416000843028F5611123C0423008F521153C4503
:1041700031F42091290430912A04232BC1F094E0DA
:10418000899FE001112450E0440F551FC40FD51F33
:10419000C951DC4F612FCE010E94FA35602FCE014C
:1041A0000196DF91CF911F910F910C94FA35DF9119
:1041B000CF911F910F9108958232910520F489507B
:1041C0009C4F0C94EC3580E008958232910520F4E8
:1041D00089509C4F0C94FA3508959B01803170F4FE
:1041E0009AE0899FB0011124675E7B4F4AE050E05E
:1041F000C9010E94DC3590E080E008958FEF9FEFC9
:1042000008959B01803170F49AE0899FB0011124D8
:10421000675E7B4F4AE050E0C9010E941E3690E085
:1042200080E008958FEF9FEF08957F928F929F9285
:10423000AF92BF92CF92DF92EF92FF920F931F93B4
:10424000CF93DF93CDB7DEB72A970FB6F894DEBFD2
:104250000FBECDBFA0902904B0902A0481E090E069
:1042600090932A048093290488E9C82E80E0D82EF0
:1042700010E0760100E015C0F40125913491472D3E
:10428000602F812F0E94582082E0880E911C739429
:1042900088E17812F1CF80E3E80EF11C0F5F053062
:1042A00019F04701712CE8CF21E030E040E060E0F8
:1042B000812F0E94AB2021E030E041E060E0812FBF
:1042C0000E94AB201F5F80EFC80ED11C143089F60E
:1042D0000E94D5231A8219821C821B821E821D8293
:1042E00018861F8288EC90E09A87898710E0BE01CB
:1042F0006F5F7F4F812F0E9401211F5F1031B9F73F
:10430000B0922A04A09229042A960FB6F894DEBF30
:104310000FBECDBFDF91CF911F910F91FF90EF9016
:10432000DF90CF90BF90AF909F908F907F90089537
:10433000EF92FF920F931F93CF93DF93EC018A01CB
:104340007C01E60EF71ECE018796CE15DF0539F407
:10435000DF91CF911F910F91FF90EF900895C03C96
:1043600023E0D20740F40E94EC35F80180830F5F10
:104370001F4F2196E8CFF8011082F9CF4F925F923C
:104380006F927F928F929F92AF92BF92CF92DF9265
:10439000EF92FF920F931F93CF93DF93EC017B017A
:1043A0008A01803C9340D8F480EC93E08C1B9D0BF9
:1043B00086179707A0F03E0137E2630E711C8091CB
:1043C000290490912A042E01460E571E892BC1F014
:1043D0007E01C7018796E414F50409F050C0DF910F
:1043E000CF911F910F91FF90EF90DF90CF90BF90F2
:1043F000AF909F908F907F906F905F904F900895B7
:104400006E0181E0C822DD24C0FF0FC0CE01869678
:104410000E94EC35F801908189279827892781151A
:104420009C4519F48FEFF8018083570140FE13C0BB
:10443000F1E0AF1AB10848018A0C9B1CC3018E0D34
:104440009F1D0E94EC35F401908181159C4519F463
:104450008FEFF4018083F801EC0DFD1D2FEFCA14DE
:10446000DB0408F0B5CF9081818181159C4511F462
:104470002083218382E0C80ED11C3296F0CFE0EC7D
:10448000EE16E3E0FE0640F4F701EC1BFD0BE00F37
:10449000F11F60810E94FA35FFEFEF1AFF0A99CFF2
:1044A000462F2091270430912804232B91F47E3F3E
:1044B00039F46E3F71F48091B5049091B60408957B
:1044C000843038F4753028F4683118F4672F0C9470
:1044D000362090E080E0089580E1089587E493E03D
:1044E0000895EF92FF920F931F93CF93DF93EC0108
:1044F0008A017C01E60EF71ECE0187549B4FCE1534
:10450000DF0539F4DF91CF911F910F91FF90EF906C
:104510000895C73423E0D20740F40E94EC35F80137
:1045200080830F5F1F4F2196E7CFF8011082F9CFEC
:10453000CF92DF92EF92FF920F931F93CF93DF936F
:104540007C016A018C01060F171FEC01CE01875414
:104550009B4FC017D10749F4DF91CF911F910F9165
:10456000FF90EF90DF90CF900895C73423E0D207FB
:1045700040F4FE01EE19FF09EC0DFD1D60810E9463
:10458000FA352196E3CFCF93DF93C9EBD4E060E017
:10459000CE010E94FA352196C11588E0D807B9F7F7
:1045A000DF91CF910895BF92CF92DF92EF92FF9269
:1045B0000F931F93CF93DF9300D000D0CDB7DEB71A
:1045C000F82E2FE0281740F08FEF97E00E94EC358F
:1045D00009EB14E08823D1F00F900F900F900F900B
:1045E000DF91CF911F910F91FF90EF90DF90CF90CF
:1045F000BF900895011548E0140771F3C8010E94A7
:10460000EC35811101C0FA940F5F1F4FF110F2CF0A
:1046100019821A821B821C82BB24BA9478015FEF34
:10462000E51AF50AC8010E94EC3589831A828823AD
:1046300099F2813009F047C0680182E0C80ED11CB0
:10464000C7010E94EC35E82E8A83882329F2C6012F
:104650000E94EC35F82E8FEF8E0D833068F46801E0
:10466000E3E0CE0ED11CFB82FF2021F0CE010196AB
:104670000E9456078601D2CFF4E0EF12FBCF68010B
:1046800024E0C20ED11CC80103960E94EC35FF2025
:1046900009F4A2CF882309F49FCF8150990BB89ECB
:1046A0009001B99E300D11244F2D4150550BCA0178
:1046B000820F931F0197F0F2EFE9FFE03197F1F7D6
:1046C00000C00000F7CFCE0101960E945607670197
:1046D000D1CFE7EBF4E0848195812AE030E0B901A5
:1046E0000E9481356093090186818093080182854B
:1046F0008093070184858093060186859785B9019B
:104700000E9481356093050180898093040182892C
:104710008093030184898093020108958091B704F6
:104720009091B8040C9488270F931F93CF93DF9335
:1047300007EB14E0D0E0C0E0CE010E94DC20F801DD
:1047400061918F01861719F0CE010E94E520219614
:10475000C232D10589F7DF91CF911F910F91089552
:104760000F931F93CF93DF9307EB14E0D0E0C0E0EB
:10477000CE010E94DC20F80181938F012196C23284
:10478000D105B1F7C6E4D7E0FE0185919491009779
:1047900011F0FC0109952896F7E0CE3DDF07A1F75F
:1047A000DF91CF911F910F910895E7EBF4E0128E06
:1047B000138E8FEA90E09183808385E0848F88E870
:1047C00093E1938382838AE090E09583848324E15C
:1047D00030E03783268348E050E051874087938755
:1047E00082872EE130E0358724879787868720E50A
:1047F00030E0318B208B538B428B48E250E0558B5D
:10480000448B42E350E0578B468B48EC50E0518F8D
:10481000408F158E978F868F31A320A30E949423FB
:104820000C94B023EF92FF920F931F93CF93DF93DB
:104830007C01EB018A016FEF70E0CE010E94D5355B
:1048400020E437E0A8EDB7E090E080E0AC014E5FF7
:104850005F4F0417150788F0F90165917491E6160A
:10486000F70630F48C0F9D1FFC0171836083CA0131
:10487000285F3F4FA217B30749F7DF91CF911F91F0
:104880000F91FF90EF900895DC01CB0120E437E019
:10489000F90165917491A617B70749F0285F3F4F5A
:1048A00067E0283D3607A1F78FEF9FEF0895B90124
:1048B0006E5F7F4FFB01A591B4914A175B07A0F390
:1048C000FB0145915491F9013496659174910E94D0
:1048D000CC3590E080E00895CF93DF93C0E4D7E03B
:1048E000FE01259134918217930741F0289627E025
:1048F000C83DD207A9F78FEF9FEF1DC0CE010296EA
:10490000FC012591349142175307A8F3FC0145910E
:104910005491FE013496859194910E94CC350E9469
:104920009423FE01369685919491009711F0FC0135
:10493000099590E080E0DF91CF9108958091CF04B8
:104940009091D00408958091D4048170089580914D
:10495000D4048695817008958091D40482FB8827C1
:1049600080F908958091D40483FB882780F9089505
:104970008832910538F48E319105E8F40497A0F45B
:1049800080E008958933910558F48D32910510F433
:104990008B97B1F78091D20482FB882780F908C0F9
:1049A00084369105B9F3ECCF8091D2048295817061
:1049B00091E0892708958091D20483FB882780F9AC
:1049C000F7CF8091D20485FB882780F908958091E4
:1049D000D20486FB882780F90895CF93DF93EC01FA
:1049E000FB018281882309F433C1C330FDE5DF0771
:1049F000C0F5CA3F9CE5D90730F49E0122503C45E2
:104A000024313105B0F50E94251290938C048093D7
:104A10008B04C1318CE5D80709F4EEC008F069C0F9
:104A2000C930ECE5DE0709F4D5C0C8F5C5308CE522
:104A3000D80709F4C7C000F5C330ECE5DE0709F478
:104A4000B9C008F0BBC0C230DC4509F4ADC08091EC
:104A50008B0490918C040E9433120E94C20880E063
:104A600008C0C136EDE5DE0771F2C53AFDE5DF07A6
:104A700051F2DF91CF91089580918B048062C7300D
:104A80009CE5D90709F493C080918B048061C830FC
:104A9000DC4508F48CC080918B04806488C08091D0
:104AA0008B048B7FCD30FCE5DF0709F480C098F4E0
:104AB00080918B048E7FCB309CE5D90709F477C0B9
:104AC00080918B048C60CC30DC4508F470C0809100
:104AD0008B048D7F6CC080918B048F7ECF30FCE582
:104AE000DF0709F464C008F47BC080918B048F7DDC
:104AF0005EC0CD3F9CE5D90709F47AC050F5C531B9
:104B0000FCE5DF0709F486C098F480918B04837F6D
:104B1000C3319CE5D90709F44AC008F471C00E946A
:104B2000C20890918B04892F97FB87F980583FC06A
:104B3000CB3FFCE5DF0709F449C008F055C0809180
:104B40008C048160CA3FDC4509F081CF80938C04DE
:104B50007ECFC130EDE5DE0709F468C0A8F4CF3F91
:104B60008CE5D80709F452C080918C048360C1158C
:104B7000DD4560F380918C04982F909591708E7F25
:104B8000892B90FB81F9E2CFC136EDE5DE0709F410
:104B900051C0C53AFDE5DF0709F453C0C230DD4519
:104BA00009F055CF80E043C080918B0481608093F1
:104BB0008B044DCF80918B048260F9CF80918B0460
:104BC0008460F5CF80918B048860F1CF80918C0454
:104BD0008260BCCF0E94C20880918B048068E7CFBE
:104BE00080918B04877FE3CF80918C048E7FAECF42
:104BF00080918C048D7FAACF80918B048F7BD7CF3F
:104C00000E94C20880918B048F77D1CF80918C0451
:104C10008C7F9CCF80918B0482FB992790F921E0B7
:104C2000922790FB82F990FB83F9C1CF81E00E942B
:104C3000B8120DCF90918B04892F8F7E94FF8061E5
:104C4000B6CF90918B04892F8E7F90FF8160AFCF7C
:104C500081E00FCF80910A01877F80930A0182E073
:104C60000E94081180910A0184FF06C08F7E809304
:104C70000A0182E00E94EF1080910A0185FF06C0C0
:104C80008F7D80930A0180E20E94EF100C945411F2
:104C9000CF93DF93EC01662319F082E00E940211AA
:104CA000CE019056811520E2920720F0905E81158A
:104CB000904108F4DD27CE01DF91CF910C9452058D
:104CC0009C013056211540E2340720F0305E21155A
:104CD000304108F499270C946705FC0123E0F69510
:104CE000E7952A95E1F7EE71FF27E55DFB4F2081FF
:104CF0003181AC014F70552781E090E002C0880FF0
:104D0000991F4A95E2F7662329F0822B932B918312
:104D1000808308958095909582239323F8CFFC019A
:104D200023E0F695E7952A95E1F7EE71FF27E55D1B
:104D3000FB4F8F70992721E030E002C0220F331F14
:104D40008A95E2F7808191812823392381E0232B02
:104D500009F480E00895DF92EF92FF920F931F9382
:104D6000CF93DF93EC017B01D42E890180910A015E
:104D700082FF86C020915104309152042C173D07C8
:104D800019F0209709F07CC090910A019B7F9093C5
:104D90000A0161E091FD10C0809153049091540488
:104DA000A701481B590B61E080910B0190910C0108
:104DB0004817590708F460E0617080910A0160FBB0
:104DC00081F980930A01C9010E946D260E94EC10AE
:104DD00081FF08C080910A01806180930A0182E00E
:104DE0000E94F5100E94EC1085FF08C080910A0116
:104DF000806280930A0180E20E94F51060910A01AE
:104E000066956170A80180915104909152040E94AE
:104E10004826D11014C08091D5049091D6040197F2
:104E200040F560910A0166956170A8018091510476
:104E3000909152040E9460260E942A2630C0B80138
:104E400080915104909152040E94E124882319F327
:104E5000B80180915104909152040E94E72481117D
:104E6000DACFDF91CF911F910F91FF90EF90DF90FC
:104E70000895EFE9FFE03197F1F700C00000CFCFD0
:104E8000CE010E948F26A801682FCE010E946026C5
:104E900080915104909152048C179D0769F2F09211
:104EA0005404E0925304DDCF8091D20480FF1EC0F1
:104EB00080910A0182FF1AC00E94832D2091530421
:104EC00030915404AC01421B530B20910B013091E3
:104ED0000C014217530750F02BE434E041E0BC01D1
:104EE00080915104909152040C94AB2608959091B6
:104EF0000A01892F8E7F90FF816080930A010C94B4
:104F00002A2680910A018E7F80930A010C942A261A
:104F100090930C0180930B010895CF92DF92EF9252
:104F2000FF920F931F93CF93DF93EC017B0180914E
:104F3000D20480FD0BC011E0812FDF91CF911F9132
:104F40000F91FF90EF90DF90CF9008950E94832DF6
:104F50006C01F7018281882391F180910A0182FF1F
:104F600008C02BE434E040E0B60190E080E00E940D
:104F7000AB26CB31FCE5DF07C9F0CC312CE5D207FD
:104F8000D9F0CA318CE5D80711F40E947727CE01F9
:104F900090568115E0E29E0720F0905E81159041C9
:104FA000E0F41092520410925104C5CF80910A018E
:104FB000816080930A01EBCF0E948127E8CF809126
:104FC0000A018F7EC13ED10531F0C53ED105B9F54C
:104FD00080910A018F7D80930A0180910A0180FFF0
:104FE000AACFB701CE010E94B824F701128188230D
:104FF00009F4C8C0112309F4BEC00E94EC10182F98
:105000000E941211812B8D7FB9F1109252041092DF
:1050100051048091D20481FD2FC060E0CE010E9436
:105020006D26A70160E0CE010E9448260E94121161
:105030008D7F0E942E1182E00E94CC1172C0CE01A1
:105040009056811520E2920720F0905E81159041E4
:1050500020F680910A0182FF6ECFB701CE010E9437
:10506000A724811168CF2BE434E040E0B60190E042
:1050700080E00E94AB265FCF86E0F701ABE4B4E0AE
:1050800001900D928A95E1F710924D0410924F0411
:1050900010924E048091510490915204C817D90780
:1050A00009F04AC0B701CE010E94E124882309F427
:1050B00043C080910A0181FD36C0809153049091D4
:1050C00054048601081B190BB7018091510490917B
:1050D00052040E949E240817190770F50E94EC10D4
:1050E00081FF08C080910A01806180930A0182E0FB
:1050F0000E94F5100E94EC1085FF08C080910A0103
:10510000806280930A0180E20E94F51060910A019A
:1051100066956170A70180915104909152040E949C
:10512000482610E009CFB7018091510490915204B4
:105130000E94E7248111C1CF0E94EC10182F0E9419
:105140001211812B90910A0181FB91F990930A0130
:105150000E9412118D7F0E942E11D0935204C09391
:105160005104D0925404C092530480910A01846087
:1051700080930A0160CF970140E0B601CE010E9402
:10518000AB26DACE11110DCFD6CE8FE891E0019784
:10519000F1F700C0000008956E98769A6F98779A9C
:1051A0000E94C5288CB186FB882780F92CB130E09D
:1051B000220F232F221F330B90E0232B09F092E0C4
:1051C000892B809357040895E0915704EE0FEE0F5A
:1051D000E09357048CB186FB222720F98CB190E034
:1051E000880F892F881F990B009711F082E090E0BB
:1051F000822BE82BE0935704EF70F0E0ED55FE4F63
:10520000808190915604890F8093560420E0843069
:1052100054F0809155048F5F8093550461E080E0E5
:105220000E94811F21E0809156048D3F54F48091AB
:10523000550481508093550460E080E00E94811FF6
:1052400021E080915604082E000C990B64E070E078
:105250000E94953580935604822F0895CF93DF9353
:10526000EB0186319C4509F03BC00E94EC10982F61
:105270009A7A2091D10420FF04C0382F347409F0A9
:1052800090E021FF04C0382F317109F090E022FF37
:1052900004C0382F387809F090E023FF03C08272F1
:1052A00009F090E08A81882389F081E0911101C0A2
:1052B00080E08093580489E2911185E30E94901068
:1052C0000E94541180E0DF91CF910895809158049D
:1052D000811104C089E20E949710F2CF85E3FBCFD1
:1052E00081E0F1CFAF92BF92CF92DF92EF92FF9227
:1052F0000F931F93CF93DF937C015B01C42FD22FB9
:10530000FC0182818823F9F040935B040E94832D85
:1053100090935A048093590480E28C0F883008F0EF
:1053200061C0C77081E001C0880FCA95EAF7DF91BC
:10533000CF911F910F91FF90EF90DF90CF90BF9092
:10534000AF900C94920810915B04141340C08091AC
:10535000590490915A040E949B2D6C01B701C5011C
:105360000E949E24C816D90690F5C0E2CD0F1D17E5
:10537000B9F080E2810F883040F4177081E001C0FD
:10538000880F1A95EAF70E949908C83048F481E01E
:105390009D2F977001C0880F9A95EAF70E94920896
:1053A000802F0E948608C830E8F4D77081E001C0E1
:1053B000880FDA95EAF7DF91CF911F910F91FF9057
:1053C000EF90DF90CF90BF90AF900C94990880E25F
:1053D0008C0F883038F4C77081E001C0880FCA95FF
:1053E000EAF7E9CFDF91CF911F910F91FF90EF90F6
:1053F000DF90CF90BF90AF9008950F939C01CB01A9
:10540000233F4CE5340759F1A8F4283DFCE53F075C
:1054100001F1293D4CE53407D1F1273D3C4591F49C
:1054200006E221EE41EE67ED7CE50E94722980E004
:105430000F910895253FFCE53F07E9F0B0F0263FC6
:105440003C45F9F0FC018281882339F110925B041C
:10545000EFCF07E225EE45EE68ED7CE5E6CF06E20C
:1054600021EE40EE63EF7CE5E0CF07E225EE44EE6F
:1054700064EF7CE5DACF06E221EE42EE65EF7CE5F3
:10548000D4CF07E225EE46EE66EF7CE5CECF08E20C
:1054900021E045EE69ED7CE5C8CF81E0C9CFCF932F
:1054A000DF93EC018989811115C081E0898B8F819F
:1054B0000E94EF1088850E9402110E945411EA8117
:1054C000FB81309739F06C897D89CE010696DF919A
:1054D000CF910994DF91CF910895EF92FF920F93AE
:1054E0001F93CF93DF93EC018A85811134C0EB8049
:1054F000FC8087E5F81A26E12E9DC0012F9D900DB6
:105500001124DC01A755BD4F1496ED91FC91159720
:10551000309731F054966D917C9181559D4F09954E
:1055200086E18E9D80018F9D100D112407551D4F22
:10553000F80187810E94F510F80180850E9408110A
:105540000E945411188219861B861E821D82109299
:105550005D0410925C04DF91CF911F910F91FF9039
:10556000EF900895DF92EF92FF920F931F93CF93E6
:10557000DF937C01FB018281882399F080910D01EA
:1055800090910E01019669F0C9EAD2E010E000E0C6
:10559000DD24D39480910D0190910E018017910725
:1055A00044F4DF91CF911F910F91FF90EF90DF9026
:1055B00008958E818823C1F089859A858E159F056F
:1055C00039F480915C0490915D048E159F0561F023
:1055D000DF86FC86EB86CE010E944F2ACE0106961E
:1055E0000E946D2A0E940F110F5F1F4F6696D2CF47
:1055F000EF92FF920F931F93CF93DF937C01975508
:105600008F3F910509F0E0F520910D0130910E01D9
:105610002817390724F490930E0180930D01FB01A4
:10562000228136E1389F8001399F100D1124E80155
:10563000C755DD4F288B92818E81992349F1FA86D7
:10564000E9868F5F8E830E94832D9E878D870E94BF
:1056500012118F830E94EC1088870E94FF1098859A
:10566000892B8887E881F981309731F06C897D89B1
:10567000C80181559D4F0995F0925D04E0925C044C
:1056800081E0DF91CF911F910F91FF90EF900895EE
:105690008823B1F38989882399F3C80181559D4FE7
:1056A0000E946D2AEDCF9F92AF92BF92CF92DF9270
:1056B000EF92FF920F931F93CF93DF9300D000D010
:1056C00000D0CDB7DEB780910D0190910E0101960B
:1056D00009F052C026960FB6F894DEBF0FBECDBFBC
:1056E000DF91CF911F910F91FF90EF90DF90CF90BE
:1056F000BF90AF909F9008950A9DF0010B9DF00D13
:105700001124E755FD4FC288D388C114D10459F440
:10571000D701292D1D922A95E9F7B7018185928538
:105720000E949E246C010A9DF0010B9DF00D112436
:10573000E755FD4F86818823A1F0858596850E94D7
:105740009B2DC816D90668F4109F60011124C6016C
:1057500087559D4F0E944F2AC60181559D4F0E943B
:105760006D2A1F5FA12EB12C80910D0190910E0129
:105770008A159B050CF6AECF10E006E186E0982E68
:10578000CE0101967C01EECF9093C3018093C201BC
:10579000089590936304809362040895E0916204F5
:1057A000F0916304309721F00190F081E02D09948D
:1057B00080E00895E0916204F0916304309799F0DD
:1057C00020911B01222359F020918B0427FF07C051
:1057D000DC012C9111962C93119726E02C930280DA
:1057E000F381E02D09940895E0916204F09163043F
:1057F000309739F022E0DC012C930480F581E02D14
:1058000009940895209160043091610428173907A4
:1058100071F09093610480936004E0916204F091D0
:105820006304309721F00680F781E02D09940895F4
:1058300020915E0430915F042817390771F090932E
:105840005F0480935E04E0916204F09163043097FA
:1058500021F00084F185E02D09940895FC01329631
:1058600080911B01882321F080918B049EE187FFAA
:1058700096E080E0915008F4089521912223D1F31D
:105880008F5FF8CF662301F120911B012223F1F0F5
:1058900020918B0427FF1AC0462F469546954695C2
:1058A0004E3190F4677021E030E002C0220F331FC8
:1058B0006A95E2F7840F911DFC01828190E0282314
:1058C000392381E0232B69F480E00895FC013296AE
:1058D00008962191261721F0E817F907D1F7F4CFA0
:1058E00081E008959C01FC0132969FEF80E0419198
:1058F000461751F09F3F19F4411101C0982F8F5F57
:105900008630A9F79F3F09F40895290F311D97FDAF
:105910003A95F90162830895FC0132960896219127
:10592000261303C0DF0111971C92E817F907B9F796
:105930000895E62FE695E695E695EE3168F4E80FD2
:10594000F92FF11D677021E030E001C0220F6A9548
:10595000EAF78281822B82830895E62FE695E69509
:10596000E695EE3170F4E80FF92FF11D677021E034
:1059700030E001C0220F6A95EAF720958281282342
:105980002283089520911B01222329F020918B046A
:1059900027FD0C94992C0C94722C20911B0122232E
:1059A00029F020918B0427FD0C94AD2C0C948C2CA9
:1059B000FC01329680911B01882351F080918B0469
:1059C00087FF06C08EE1DF011D928A95E9F70895F1
:1059D00086E0F9CF08950C94EA2C811105C081E08E
:1059E000809364040C94EB2C82E0FACF83E08093E4
:1059F00064040C94EB2C0C94ED2C81E080936404F3
:105A00000C94EB2C0C94FD2C089508950C94052D0A
:105A1000089508950C94042DCF930E94082D0E94A0
:105A2000FE160E94092DC0E08C2F0E941916672BCC
:105A3000682B692B31F4CF5FC530B1F780E0CF918F
:105A4000089581E0FCCF08951F921FB61F92112484
:105A50008F939F93AF93BF9380916504811113C07F
:105A60008091D9049091DA04A091DB04B091DC0418
:105A70004196A11DB11D8093D9049093DA04A0939F
:105A8000DB04B093DC04BF91AF919F918F911F9085
:105A90001FBE1F9018958091E104843031F10E945F
:105AA00080061092650488E190E020E40FB6F89437
:105AB000A895809360000FBE2093600083B7817F1C
:105AC000846083BF83B7816083BF7894889583B7F0
:105AD0008E7F83BF0FB6F894A8958091600088618F
